:100000000C947D1C0C94371F0C94681F0C94991F42
:100010000C94CA1F0C94FB1F0C942C200C945D2094
:100020000C948E200C94AE1C0C94AE1C0C94AE1C44
:100030000C94AE1C0C94CEEB0C94AE1C0C94AE1C29
:100040000C94AE1C0C949BC50C94AE1C0C94AE1C72
:100050000C94AE1C0C94AE1C0C94B3D60C94B01C37
:100060000C94AE1C0C9433A00C94AE1C0C94AE1CDF
:100070000C94AE1C0C94AE1C0C94AE1C0C94AE1CD8
:100080000C94AE1C0C94AE1C0C94AE1C0C94AE1CC8
:100090000C94AE1C0C94AE1C0C94AE1C0C94252A33
:1000A0000C94AE1C0C94AE1C0C94AE1C0C94AE1CA8
:1000B0000C94AE1C0C94AE1C0C94AE1C0C94AE1C98
:1000C0000C94AE1C0C94AE1C0C94AE1C0C94AE1C88
:1000D0000C94AE1C0C94AE1C0C94AE1C0C94AE1C78
:1000E0000C94AE1CE21DE71DEC1DF61D6F1E001EDC
:1000F000081E101E1A1E241E2E1E3D1E471E6F1E99
:10010000511E5B1E651E8D1E901E831E871EC71E00
:10011000941E981E9E1EA21EA61EAC1EB01EB41ECD
:10012000C71EBA1EBE1EC21E2C242C243A244824EC
:100130006424722480248E249F2456242CEA2FEADF
:1001400036EA3DEA44EA4BEA30EB52EA59EA61EA20
:1001500030EB69EA72EA79EA82EA89EA90EA30EBFE
:1001600097EA9EEAA7EA30EBB0EAB9EABBEABDEA51
:10017000BFEAC1EAC3EAC5EAC7EAC9EACBEACDEAFF
:10018000CFEAD1EAD3EAD5EAD7EA30EB30EB30EB6D
:1001900030EB30EB30EB30EB30EB30EB30EB30EB87
:1001A00030EB30EB30EB30EB30EB30EB30EB30EB77
:1001B00030EB30EB30EB30EB30EB30EB30EB30EB67
:1001C00030EB30EB30EB30EB30EB30EB30EB30EB57
:1001D00030EB30EB30EB30EB30EB30EB30EB30EB47
:1001E00030EB30EB30EB30EB30EB30EB30EB30EB37
:1001F00030EB30EB30EB30EB30EB30EB30EB30EB27
:1002000030EB30EBDBEAF4EA084AD73B3BCE016E39
:1002100084BCBFFDC12F3D6C74319ABD56833DDA5D
:100220003D00C77F11BED9E4BB4C3E916BAAAABE6C
:10023000000000803F05A84CCDB2D44EB93836A995
:10024000020C50B9918688083CA6AAAA2ABE0000D2
:1002500000803F0000090A02080B0C0D070603048A
:10026000010000000000000000000000000000008D
:10027000000000000000000000000000000000116D
:10028000100F00000000000000000000000000004F
:1002900000000000000000000001021020200808FB
:1002A00010204010204080020102010804020101D8
:1002B00002040810204080804020100804020180C1
:1002C0000402018040201008040201080402010118
:1002D000020408102040800102040810204080051C
:1002E000050505070508080808020202020A0A08AF
:1002F00008040404040101010101010101030303D5
:100300000303030303040707070C0C0C0C0C0C0C71
:100310000C0202020206060606060606060B0B0B78
:100320000B0B0B0B0B00002200250028002B002ECE
:10033000003100340002010000050108010B01003A
:10034000002100240027002A002D00300033000186
:10035000010000040107010A015052494E54004DAA
:100360004154455249414C004D41494E54454E413E
:100370004E4345005072696E74696E6720776974E8
:1003800068205553422E2E2E00756C74696D616B7A
:1003900065722E636F6D2F4552303700476F2074A2
:1003A0006F3A0058206F7220592073776974636820
:1003B00020737475636B00756C74696D616B657225
:1003C0002E636F6D2F4552303700476F20746F3AA0
:1003D0000058206F72205920737769746368206217
:1003E000726F6B656E00756C74696D616B65722EF2
:1003F000636F6D2F4552303600476F20746F3A009F
:100400005A2073776974636820737475636B007521
:100410006C74696D616B65722E636F6D2F45523020
:100420003500476F20746F3A005A20737769746300
:10043000682062726F6B656E00756C74696D616BBC
:1004400065722E636F6D2F4552303400476F2074F4
:100450006F3A0053616665747920636972637569E8
:100460007400756C74696D616B65722E636F6D2FAE
:100470004552303300476F20746F3A00486561740D
:100480006572206572726F7200756C74696D616B54
:1004900065722E636F6D2F4552303200476F2074A6
:1004A0006F3A0054656D702073656E736F722042F1
:1004B000454400756C74696D616B65722E636F6D78
:1004C0002F4552303100476F20746F3A0054656DEC
:1004D000702073656E736F72004552524F52202D1B
:1004E0002053544F5050454400801506060606FE22
:1004F000FEFEFEFC00000000000000FCFEFEFEFC14
:100500000000000EFEFEFEFE0000E0FCFEFEFCE031
:10051000E0000000CECECE000000C0C0C0C0C0C011
:100520008000000000000080C0C0800000000000CB
:10053000008080C0C0C0C0C0C0C08080000000007B
:1005400006FEFEFEFE0000000080C0C0C0000000ED
:100550000000008080C0C0C080808000000000C01B
:10056000C0C0C00080C0C0C0C08000000000007FCC
:10057000FFFFFFFF80000000000080FFFFFFFFFF84
:1005800000000000FFFFFFFF000000FFFFFFFF0073
:1005900000000000FFFFFF00000081F1FFFF3F0FA0
:1005A0003FFFFCF0F0FCFF3F0F3FFFFEF880000034
:1005B00000C1E1F1F17131010183FFFFFFFC000097
:1005C00000FFFFFFFF000C3EFFFFF7C3010000002C
:1005D000FCFEFF8703113131333F3F3F1E00000116
:1005E000FFFFFFFF07030101010100000000000001
:1005F000010307070F0F0F0F0F0F0F0707070F0F4D
:1006000006000000070F0F07000000070F0F07008C
:10061000000000000F0F0F0000060F0F0701000081
:100620000001070F0F070100000001070F0F060070
:100630000003070F0F0E0E060703070F0F0700003A
:1006400000070F0F0700000000030F0F0F06000048
:10065000000307070F0E0E0E0E0E0E060000000020
:100660000F0F0F0F00000000000000507265763A77
:10067000200043414E43454C002073656300206DCC
:10068000696E0020686F75720020686F7572730064
:10069000000000000000005F0000000700070014D9
:1006A0007F147F14242A7F2A122313086462364998
:1006B0005522500005030000001C22410000412289
:1006C0001C00082A1C2A0808083E080800503000B0
:1006D00000080808080800606000002010080402F4
:1006E0003E5149453E00427F40004261514946210A
:1006F00041454B311814127F1027454545393C4A76
:1007000049493001710905033649494936064949C5
:10071000291E00363600000056360000000814225C
:100720004114141414144122140800020151090642
:10073000324979413E7E1111117E7F494949363E49
:10074000414141227F4141221C7F494949417F0962
:100750000901013E414151327F0808087F00417F75
:1007600041002040413F017F081422417F4040402A
:10077000407F0204027F7F0408107F3E4141413EDA
:100780007F090909063E4151215E7F091929464624
:100790004949493101017F01013F4040403F1F204D
:1007A00040201F7F2018207F6314081463030478FF
:1007B0000403615149454300007F41410204081090
:1007C0002041417F000004020102044040404040BB
:1007D000000102040020545454787F4844443838BF
:1007E00044444420384444487F3854545418087EC4
:1007F000090102081454543C7F0804047800447D25
:1008000040002040443D00007F10284400417F40CC
:10081000007C041804787C08040478384444443884
:100820007C14141408081414187C7C080404084868
:1008300054545420043F4440203C4040207C1C2021
:1008400040201C3C4030403C44281028440C505070
:10085000503C4464544C44000836410000007F0082
:1008600000004136080008082A1C08081C2A08084D
:10087000473120462569205A256920582569205985
:10088000256900473238205A30205830205930002E
:100890006275696C64706C6174652E006F662061AE
:1008A000646A757374696E6720796F757200746815
:1008B000726F756768207468652070726F63657306
:1008C0007300492077696C6C2067756964652079CD
:1008D0006F7500434F4E54494E55450043414E43BA
:1008E000454C00473238205A3000746F20707269CE
:1008F0006E742069742100616E6420707265737378
:100900002074686520627574746F6E006F6E207459
:1009100068652053442D636172640053656C6563A0
:10092000742061207072696E742066696C65003293
:10093000312F3231004C45542753205052494E54E8
:100940000052656164696E6720636172642E2E2EA9
:100950000032312F323100796F757220556C746915
:100960006D616B6572322E2E2E0074686174206387
:10097000616D65207769746800506C6561736520EE
:10098000696E736572742053442D63617264003222
:10099000312F3231006D616B65206120334420506E
:1009A00072696E74210049276D2072656164792037
:1009B0006C657427730032302F323100415245206C
:1009C000594F552052454144593F0066726F6D2082
:1009D0006E6F7A7A6C652E2E2E006D617465726969
:1009E000616C206578697473005075736820627556
:1009F00074746F6E207768656E0031392F32310064
:100A0000434F4E54494E5545004C6F6164696E67C3
:100A1000206D6174657269616C2E2E2E0031382F45
:100A200032310061626F7665207468652061727290
:100A30006F772E00796F757220556C74696D616BDC
:100A40006572322C0066726F6D2074686520726565
:100A50006172206F6600496E73657274206E6577EF
:100A6000206D6174657269616C0031372F3231001D
:100A7000434F4E54494E5545006D6174657269612E
:100A80006C206C6F6164696E67007072696E746867
:100A90006561642068656174696E6720666F7200C5
:100AA000506C6561736520776169742C0031362F55
:100AB00032310053656C65637420746865206D6124
:100AC00074657269616C006974206973207573695B
:100AD0006E672E006F66206D6174657269616C00CF
:100AE0006B6E6F77732077686174206B696E64003A
:100AF0004E6F7720796F757220556C74696D616BDC
:100B00006572320031352F323100434F4E54494E19
:100B10005545006973207468697320726967687449
:100B20003F00596F7520686176652063686F736553
:100B30006E0031342F323100594553004E4F0020A2
:100B40006173206D6174657269616C2C0031332FA3
:100B50003231004D4154455249414C00556C746945
:100B60006D616B6572322E00696E736572742069F7
:100B70006E2074686973006D6174657269616C20C0
:100B8000796F752077696C6C004E6578742C2073D2
:100B9000656C656374207468650031322F323100F2
:100BA0005245414459004D383400473120463132D6
:100BB00030303020583131302059313000746F20BE
:100BC000696E73657274206D6174657269616C2EF3
:100BD00000746865206E6578742073746570206990
:100BE0007300746865206275696C64706C6174650B
:100BF000004E6F772074686174207765206C65768D
:100C0000656C65640031312F323100434F4E5449D9
:100C10004E55450074686520726967687420636F7B
:100C2000726E65722E2E2E0052657065617420748E
:100C300068697320666F720031302F323100434F84
:100C40004E54494E554500444F4E4500746865204A
:100C50006C65667420636F726E65722E2E2E005264
:100C60006570656174207468697320666F720039FD
:100C70002F323100434F4E54494E5545006269743E
:100C800020726573697374616E63652E00756E748E
:100C9000696C20796F75206665656C2061006275EE
:100CA000696C64706C61746520616E64206E6F7A2B
:100CB0007A6C6500536C69646520612070617065B1
:100CC00072206265747765656E00382F323100439B
:100CD0004F4E54494E554500434F4E54494E55458D
:100CE00000473120462569205A30004731204625EB
:100CF0006920582569205925690047312046256912
:100D0000205A3500746865206275696C64706C6186
:100D10007465206C6576656C2E007061706572205C
:100D2000746F2066696E652D74756E65006E6F77E1
:100D3000207573652061207368656574206F660097
:100D4000526570656174207468697320737465708E
:100D50002C2062757400372F323100434F4E5449B6
:100D60004E55450066726F6D207468652062756926
:100D70006C64706C6174652E0069732061206D690C
:100D80006C6C696D6574657220617761790073635D
:100D90007265772074696C6C20746865206E6F7A58
:100DA0007A6C65005475726E20726967687420628F
:100DB00075696C64706C61746500362F3231004364
:100DC0004F4E54494E554500473120462569205A1B
:100DD000300047312046256920582569205925696A
:100DE00000473120462569205A350066726F6D2014
:100DF000746865206275696C64706C6174652E003E
:100E000069732061206D696C6C696D657465722011
:100E1000617761790073637265772074696C6C2007
:100E2000746865206E6F7A7A6C65005475726E20F6
:100E30006C656674206275696C64706C61746500C1
:100E4000352F323100434F4E54494E5545004731FE
:100E500020462569205A3000473120462569205810
:100E600025692059256900473120462569205A35D2
:100E70000066726F6D20746865206275696C6470BD
:100E80006C6174652E0061206D696C6C696D6574B0
:100E90006572206177617900756E74696C20746881
:100EA00065206E6F7A7A6C6520697300526F746189
:100EB00074652074686520627574746F6E00342FD9
:100EC000323100434F4E54494E554500434F4E5426
:100ED000494E554500473120462569205A2569204D
:100EE0005825692059256900473238205830205943
:100EF0003000676F696E6720746F20646F207468BC
:100F00006174206E6F772E0061646A7573746D650D
:100F10006E74732C20776520617265007765206E92
:100F200065656420746F20646F20736F6D65004188
:100F300066746572207472616E73706F727461741E
:100F4000696F6E00332F323100434F4E54494E5576
:100F50004500473120462569205A25690047323827
:100F6000205A3000612066697273742072756E2099
:100F700077697A6172642E0077616C6B20796F7586
:100F8000207468726F756768006669727374207385
:100F900074617274757020492077696C6C004265C9
:100FA0006361757365207468697320697320746860
:100FB0006500322F323100434F4E54494E554500A3
:100FC000627574746F6E20746F20636F6E74696ED7
:100FD000756500556C74696D616B65722120507286
:100FE0006573732074686500737461727475702022
:100FF0006F6620796F75720057656C636F6D652041
:10100000746F2074686520666972737400312F32C2
:101010003100434F4E54494E5545004300432F0085
:10102000436C69636B20746F2072657475726E0017
:101030004275696C64706C6174652074656D702EA6
:101040003A003F3F3F00466163746F7279207265DA
:101050007365740052756E74696D65207374617484
:10106000730056657273696F6E004D6F74696F6EB1
:101070002073657474696E677300536574206661CC
:101080006E207370656564004D6F7665206D6174C8
:10109000657269616C00496E73657274206D61746C
:1010A000657269616C005261697365206275696C73
:1010B00064706C617465004C6F776572206275694D
:1010C0006C64706C61746500486F6D652068656163
:1010D0006400486561747570206275696C64706C39
:1010E00061746500486561747570206E6F7A7A6C02
:1010F00065004C45442073657474696E6773003CE9
:101100002052455455524E00566572733A5F313540
:101110002E30342E372D524335657800250043009C
:10112000432F004300432F0025003F3F3F0020474F
:101130006C6F77207768656E20646F6E6500204F56
:101140006E207768696C65207072696E74696E676D
:101150000020416C77617973204F66660020416CF6
:1011600077617973204F6E004272696768746E65AB
:101170007373003C2052455455524E002500250003
:101180004272696768746E657373004C454400432E
:1011900000432F00436C69636B20746F2072657489
:1011A00075726E004E6F7A7A6C652074656D70652D
:1011B0007261747572653A00473238205830205990
:1011C00030004300432F00436C69636B20746F2031
:1011D00072657475726E00526F7461746520746FFD
:1011E0002065787472756465004E6F7A7A6C65203C
:1011F00074656D70657261747572653A003F3F3F4A
:101200000043757272656E74204500437572726595
:101210006E74205A0043757272656E7420582F598F
:10122000004D6178207370656564205A004D6178C7
:101230002073706565642059004D61782073706576
:101240006564205800582F59204A65726B0041632D
:1012500063656C65726174696F6E003C2052455421
:1012600055524E006D41006D41006D41006D6D2F76
:10127000736563006D6D2F736563006D6D2F73650E
:1012800063006D6D2F736563006D6D2F7365635E15
:1012900032006D410043757272656E742045006DB9
:1012A000410043757272656E74205A006D410043AF
:1012B000757272656E7420582F59006D6D2F7365AD
:1012C00063004D6178207370656564205A006D6D10
:1012D0002F736563004D61782073706565642059D4
:1012E000006D6D2F736563004D61782073706565C7
:1012F000642058006D6D2F73656300582F59204A84
:1013000065726B0030306D6D2F7365635E32004126
:101310006363656C65726174696F6E004D4F54490B
:101320004F4E00566572733A5F31352E30342E378A
:101330002D5243356578004A756E203137203230A2
:1013400031362031333A31323A35350052657475D1
:10135000726E006D00204D61743A003A005072695F
:101360006E74696E673A003A004D616368696E6534
:10137000206F6E20666F723A0052657475726E004F
:10138000746F2064656661756C743F0052657365A7
:10139000742065766572797468696E670059455383
:1013A000004E4F00250046616E2073706565640035
:1013B000473120462569205825692059256900476D
:1013C0003238205830205930004731205A3430000C
:1013D000473238205A3000473238205A30004732DE
:1013E0003820583020593000473238205A300041D8
:1013F0004456414E434544004255494C442D7C508F
:101400004C41544500414456414E434544005245E9
:101410005455524E004350450041425300504C41F8
:101420000054505520393541004350452B004E792A
:101430006C6F6E00504300435045004142530050D2
:101440004C4100250046616E3A20004300430025D0
:1014500000466C6F773A006D6D00636F6D657320A9
:101460006F757420746865206E6F7A7A6C650057AA
:101470006169742074696C6C206D61746572696156
:101480006C0052454144590043414E43454C00468F
:101490006F7277617264696E67206D6174657269DD
:1014A000616C0061626F766520746865206172729C
:1014B0006F772E00796F7572206D616368696E6554
:1014C0002C0066726F6D20746865206261636B73B7
:1014D000696465206F6600496E73657274206E657D
:1014E00077206D6174657269616C005245414459A1
:1014F0000043414E43454C006D6174657269616CF7
:1015000020696E73657274696F6E00436F6F6C69EA
:101510006E67207072696E746865616420666F72B0
:101520000048656174696E67207072696E746865E1
:10153000616420666F72004D4154455249414C0030
:1015400052656D6F7665206D6174657269616C00BE
:1015500052454144590043414E43454C0052657643
:10156000657273696E67206D6174657269616C0084
:10157000666F72206D6174657269616C2072656D51
:101580006F76616C0048656174696E67207072697E
:101590006E746865616400473238205830205930D5
:1015A00000496D706F72742066726F6D2053440035
:1015B0004578706F727420746F20534400437573C4
:1015C000746F6D697A65003C2052455455524E0047
:1015D0004C6F61647320616C6C206D61746572691D
:1015E000616C7300536176657320616C6C206D6172
:1015F00074657269616C73004D6F646966792074FB
:1016000068652073657474696E67730025004661B0
:101610006E3A2000430043002500466C6F773A0085
:101620006D6D003F3F3F0053746F72652061732002
:101630007072657365740052657472616374696F6A
:101640006E00466C6F7720250046616E004469612C
:101650006D657465720048656174656420627569C2
:101660006C64706C6174650054656D706572617452
:10167000757265003C2052455455524E0025002598
:10168000006D6D00430043200043200054656D70E1
:10169000657261747572653A20003C20524554555C
:1016A000524E004300430054656D7065726174755D
:1016B0007265004D4154455249414C005265747267
:1016C000616374696F6E3A20003C20524554555254
:1016D0004E006D6D2F73006D6D20003F3F3F005237
:1016E000657472616374207370656564005265741B
:1016F00072616374206C656E677468003C205245AB
:101700005455524E006D6D2F736563006D6D006D05
:101710006D2F73656300526574726163742073701A
:10172000656564006D6D0052657472616374206C50
:10173000656E6774680052455452414354494F4E98
:10174000004D4154455249414C004E65772070721E
:1017500065736574003C2052455455524E005052FA
:1017600045534554530025004D6174657269616CA1
:1017700020666C6F7700250046616E20737065658A
:1017800064006D6D004D6174657269616C2044691F
:10179000616D657465720043004275696C64706CBC
:1017A0006174652054656D702E004D415445524959
:1017B000414C00696E204D4154455249414C2E54D4
:1017C000585400746F20746865205344206361721C
:1017D00064005361766564206D6174657269616C43
:1017E00073004F6B000A006469616D657465723D3A
:1017F000000A00666C6F773D000A0066616E5F73D9
:10180000706565643D000A006265645F74656D70B3
:10181000657261747572653D000A003D0072657401
:1018200072616374696F6E5F73706565645F000AEF
:10183000003D0072657472616374696F6E5F6C6500
:101840006E6774685F000A003D0074656D706572B4
:1018500061747572655F000A0074656D7065726110
:10186000747572653D000A006E616D653D005B6DCB
:101870006174657269616C5D0A0052656164696ECC
:101880006720636172642E2E2E00506C6561736553
:1018900020696E736572742063617264004E6F20FC
:1018A00053442D43415244210066726F6D20746889
:1018B000652053442063617264004C6F6164656409
:1018C000206D6174657269616C73004F6B003D003F
:1018D00072657472616374696F6E5F73706565645D
:1018E0005F003D0072657472616374696F6E5F6C56
:1018F000656E6774685F0074656D7065726174759C
:1019000072655F006469616D6574657200666C6F15
:10191000770066616E5F7370656564006265645F21
:1019200074656D70657261747572650074656D7053
:1019300065726174757265006E616D65005B6D61E5
:1019400074657269616C5D00466F756E64206F6EC0
:1019500020636172642E004E6F206578706F727420
:101960002066696C650052656164696E6720636119
:1019700072642E2E2E00506C6561736520696E7343
:101980006572742063617264004E6F2053442D436E
:10199000415244210053656C6563746564206D6138
:1019A00074657269616C3A004F4B004D4154455269
:1019B00049414C0047312046256920582569205966
:1019C00025690047323820583020593000434841BB
:1019D0004E47450053455454494E475300524554D1
:1019E00055524E004300432F00436C69636B2074D3
:1019F0006F2072657475726E004E6F7A7A6C652016
:101A000074656D70657261747572653A00507265C7
:101A1000706172696E6720746F207072696E743ABB
:101A20000048656174696E672075702E2E2E005413
:101A3000554E450041424F52540025732076732085
:101A40002573006D6174657269616C2E00666F723A
:101A5000206120646966666572656E740054686909
:101A6000732066696C6520697320637265617465B3
:101A70006400434F4E54494E55450043414E434543
:101A80004C004C4544204272696768746E657373FC
:101A90000052657472616374696F6E004D617465A4
:101AA0007269616C20666C6F770046616E2073709E
:101AB000656564004275696C64706C61746520745E
:101AC000656D702E0054656D706572617475726518
:101AD0000053706565640041626F7274003C20526F
:101AE000455455524E002500250025004300430073
:101AF00043004300250041626F72742074686520C2
:101B00007072696E743F00594553004E4F003F3F5D
:101B10003F00526574726163742073706565640080
:101B200052657472616374206C656E677468003C02
:101B30002052455455524E006D6D2F736563006DF4
:101B40006D006D6D2F73656300526574726163740F
:101B5000207370656564006D6D0052657472616319
:101B600074206C656E67746800524554524143544A
:101B7000494F4E0025004272696768746E65737341
:101B80000025004D6174657269616C20666C6F7729
:101B900000250046616E2073706565640025005065
:101BA00072696E742073706565640054554E45000B
:101BB00054696D65206C6566740054696D65206CB0
:101BC00065667420756E6B6E6F776E004300430020
:101BD00048656174696E67206275696C64706C61D8
:101BE0007465004300430048656174696E67005086
:101BF00072696E74696E673A0054554E45005041E3
:101C000055534500524553554D457C5052494E540D
:101C1000004348414E47457C4D4154455249414C53
:101C20000054554E45004D38340047323800473295
:101C300038205A3000473238205830205930004779
:101C40003120462569204530004739322045256935
:101C5000004D343031004D36303120583520593563
:101C6000205A2569204C25690074686520707269C6
:101C70006E742E00596F752063616E2072656D6FF2
:101C80007665005072696E742066696E6973686566
:101C900064004241434B20544F204D454E55004374
:101CA000004320005072696E74657220636F6F6C20
:101CB000696E6720646F776E004241434B20544F3A
:101CC000204D454E55006F66207072696E74696EC6
:101CD0006720617265610054726965642070726981
:101CE0006E74696E67206F7574004552524F523A98
:101CF0000052455455524E20544F204D41494E00FC
:101D0000756C74696D616B65722E636F6D2F4552D2
:101D1000303800476F20746F3A0072656164696EF5
:101D2000672053442D6361726421004572726F72A3
:101D3000207768696C650052455455524E20544FC7
:101D4000204D41494E0066726F6D207468652073A6
:101D50006C696365722E0073657474696E672077B1
:101D60006974682073657474696E67006F76657254
:101D700072696465206D616368696E6500546869A5
:101D8000732066696C652077696C6C00434F4E5414
:101D9000494E55450043414E43454C003C2042418D
:101DA000434B003C2052455455524E00534420436F
:101DB00041524400473120463132303030205835CE
:101DC0002059313000473238003B464C41564F5283
:101DD0003A556C746947436F6465003B464C415605
:101DE0004F523A556C746947436F6465004E6F20DB
:101DF00066696C657320666F756E6421004F4B00D9
:101E00004F4B0052656164696E6720636172642E96
:101E10002E2E00506C6561736520696E7365727457
:101E20002063617264004E6F2053442D434152443D
:101E300021004E6F20696E666F20617661696C616A
:101E4000626C65004E6F7A7A6C653A20006D006DA9
:101E5000004D6174657269616C3A200054696D656A
:101E60003A20003B4D545950453A003B4E4F5A5A88
:101E70004C455F4449414D455445523A003B4D4124
:101E800054455249414C3A003B54494D453A00466D
:101E90006F6C646572004D32313820496E76616C2A
:101EA000696420657874727564657220004D313004
:101EB0003920496E76616C69642065787472756446
:101EC000657220004D31303520496E76616C696451
:101ED00020657874727564657220004D313034204D
:101EE000496E76616C696420657874727564657298
:101EF00020005072696E7465722073746F70706523
:101F0000642064756520746F206572726F72732E21
:101F10002046697820746865206572726F7220614E
:101F20006E6420757365204D39393920746F2072C5
:101F30006573746172742E202854656D70657261CA
:101F4000747572652069732072657365742E2053F1
:101F5000657420697420616674657220726573749B
:101F6000617274696E6729005072696E74657220BF
:101F700068616C7465642E206B696C6C2829206321
:101F8000616C6C656421006F6B00526573656E64F3
:101F90003A2000456E6473746F70207374696C6CC2
:101FA0002070726573736564206166746572206267
:101FB00061636B696E67206F66662E20456E647381
:101FC000746F7020737475636B3F00456E64737437
:101FD0006F70206E6F74207072657373656420611A
:101FE0006674657220686F6D696E6720646F776EC6
:101FF0002E20456E6473746F702062726F6B656E15
:102000003F00456E6473746F70206E6F7420707241
:10201000657373656420616674657220686F6D69AD
:102020006E6720646F776E2E20456E6473746F70D8
:102030002062726F6B656E3F002200556E6B6E6F93
:10204000776E20636F6D6D616E643A202200456C7F
:10205000656374726F6E6963735F74657374004156
:1020600063746976652045787472756465723A2088
:1020700000496E76616C6964206578747275646578
:102080007200540020423A300020423A31006F6B17
:1020900020523A0020633A0020643A0020693A0056
:1020A00020703A006F6B002200556E6B6E6F776E7A
:1020B00020636F6D6D616E643A2022006F70656EF3
:1020C00000545249474745524544007A5F6D617854
:1020D0003A20006F70656E0054524947474552459B
:1020E0004400795F6D61783A20006F70656E00542E
:1020F000524947474552454400785F6D696E3A2022
:10210000005265706F7274696E6720656E647374D7
:102110006F7020737461747573005A3A00593A00F5
:1021200020436F756E7420583A2000453A005A3AA1
:1021300000593A00583A004649524D574152455FBE
:102140004E414D453A4D61726C696E20556C746913
:102150006D616B6572323B20537072696E7465728B
:102160002F6772626C206D617368757020666F7284
:102170002067656E36204649524D574152455F559E
:10218000524C3A687474703A2F2F6769746875629C
:102190002E636F6D2F556C74696D616B6572205085
:1021A000524F544F434F4C5F56455253494F4E3A4E
:1021B000312E30204D414348494E455F54595045DA
:1021C0003A556C74696D616B65722045585452556F
:1021D0004445525F434F554E543A310A0020423A2B
:1021E0000020453A00543A003F0020573A0020456D
:1021F0003A00543A002042403A0020403A00202F52
:102200000020423A00202F006F6B20543A002569CD
:10221000206D696E2C2025692073656300456E640E
:102220002066696C65206C69737400426567696E2D
:102230002066696C65206C69737400256920686F7D
:10224000757273202569206D696E7574657300441D
:102250006F6E65207072696E74696E672066696C56
:1022600065005072696E7465722073746F7070656A
:10227000642064756520746F206572726F72732EAE
:102280002046697820746865206572726F722061DB
:102290006E6420757365204D39393920746F207252
:1022A0006573746172742E202854656D7065726157
:1022B000747572652069732072657365742E20537E
:1022C0006574206974206166746572207265737428
:1022D000617274696E6729006F6B004E6F204C69E4
:1022E0006E65204E756D6265722077697468206333
:1022F0006865636B73756D2C204C617374204C6939
:102300006E653A20004E6F20436865636B73756D90
:102310002077697468206C696E65206E756D6265E2
:10232000722C204C617374204C696E653A200063F6
:102330006865636B73756D206D69736D6174636837
:102340002C204C617374204C696E653A20004C69F6
:102350006E65204E756D626572206973206E6F74B4
:10236000204C617374204C696E65204E756D6265FA
:10237000722B312C204C617374204C696E653A20AD
:10238000004D31313000446F6E6520736176696EA7
:10239000672066696C652E006F6B004D3239002036
:1023A00020506C616E6E6572427566666572427928
:1023B0007465733A20002046726565204D656D6F27
:1023C00072793A20004A756E20313720323031362A
:1023D00000436F6D70696C65643A200056657273D6
:1023E0003A5F31352E30342E372D52433565780023
:1023F000207C20417574686F723A20004A756E2007
:10240000313720323031362031333A31323A3537B4
:1024100000204C61737420557064617465643A20C7
:1024200000312E302E30004D61726C696E2000201C
:10243000536F66747761726520526573657400200E
:102440005761746368646F67205265736574002018
:1024500042726F776E206F757420526573657400D9
:102460002045787465726E616C20526573657400E6
:10247000506F77657255700073746172740022003A
:10248000656E717565696E672022002200656E7148
:102490007565696E67202200FF01010000E04000C1
:1024A00000E0400000E0400000664300006643009A
:1024B00080A24300000000000066430080A24300A9
:1024C000006643000066430080A243000000000055
:1024D000000000000000006563686F3A00457272FA
:1024E0006F723A0000002110422063308440A550F2
:1024F000C660E770088129914AA16BB18CC1ADD14A
:10250000CEE1EFF13112100273325222B5529442F1
:10251000F772D662399318837BB35AA3BDD39CC399
:10252000FFF3DEE36224433420040114E664C7743D
:10253000A44485546AA54BB528850995EEE5CFF5E9
:10254000ACC58DD55336722611163006D776F66691
:102550009556B4465BB77AA719973887DFF7FEE739
:102560009DD7BCC7C448E5588668A778400861185D
:1025700002282338CCC9EDD98EE9AFF94889699989
:102580000AA92BB9F55AD44AB77A966A711A500A31
:10259000333A122AFDDBDCCBBFFB9EEB799B588BD9
:1025A0003BBB1AABA66C877CE44CC55C222C033C7D
:1025B000600C411CAEED8FFDECCDCDDD2AAD0BBD29
:1025C000688D499D977EB66ED55EF44E133E322ED1
:1025D000511E700E9FFFBEEFDDDFFCCF1BBF3AAF79
:1025E000599F788F8891A981CAB1EBA10CD12DC1D7
:1025F0004EF16FE18010A100C230E320045025406D
:1026000046706760B9839893FBA3DAB33DC31CD3CC
:102610007FE35EF3B1029012F322D23235421452BC
:1026200077625672EAB5CBA5A89589856EF54FE518
:102630002CD50DC5E234C324A0148104667447640C
:1026400024540544DBA7FAB79987B8975FE77EF76C
:102650001DC73CD7D326F2369106B016576676765C
:10266000154634564CD96DC90EF92FE9C899E98938
:102670008AB9ABA94458654806782768C018E108AC
:102680008238A3287DCB5CDB3FEB1EFBF98BD89B0C
:10269000BBAB9ABB754A545A376A167AF10AD01AFC
:1026A000B32A923A2EFD0FED6CDD4DCDAABD8BAD58
:1026B000E89DC98D267C076C645C454CA23C832C4C
:1026C000E01CC10C1FEF3EFF5DCF7CDF9BAFBABFAC
:1026D000D98FF89F176E367E554E745E932EB23E9C
:1026E000D10EF01E7C3C3E5E2B3D3F2F5B5D3B2CB4
:1026F0002A225C0020746F6F206C6F6E67206578F3
:1027000074727573696F6E2070726576656E74652C
:10271000640020636F6C6420657874727573696FF0
:102720006E2070726576656E746564006563686FAF
:102730003A00205A3A0020593A0020583A00656E73
:102740006473746F7073206869743A200024F4D441
:102750003050C38E20C2A24017828B7011127A9122
:102760000D816CD90AA861E108C758660761514319
:10277000061E4B5D05C145A7041A411104093D9889
:1027800003713931034036DB0265339102D4305492
:1027900002802E1D02632CEE01752AC501B028A00F
:1027A00001102781018F2564012B244B01E0223485
:1027B00001AC211F018D200D01801FFC00841EED46
:1027C00000971DDF00B81CD200E61BC600201BBC12
:1027D00000641AB200B219A8000A19A0006A189978
:1027E00000D117910040178B00B516840031167E7A
:1027F00000B31579003A157300C7146F0058146AB6
:1028000000EE1366008813630025135E00C7125B99
:10281000006C12570015125400C111510070114F75
:102820000021114B00D61049008D1047004610447E
:102830000002104200C00F4000800F3E00420F3CDB
:1028400000060F3B00CB0E3800930E37005C0E35B0
:1028500000270E3400F30D3200C10D3100900D3011
:1028600000600D2E00320D2D00050D2C00D90C2B13
:1028700000AE0C2900850C29005C0C2700350C27C4
:10288000000E0C2600E80B2400C40B2400A00B2330
:10289000007D0B23005A0B2100390B2100180B205F
:1028A00000F80A1F00D90A1E00BB0A1E009D0A1D5F
:1028B00000800A1D00630A1C00470A1B002C0A1B2B
:1028C00000110A1A00F7091A00DD091900C40919D4
:1028D00000AB091900920917007B0918006309175A
:1028E000004C09160036091600200916000A0915C1
:1028F00000F5081500E0081400CC081400B808140E
:1029000000A4081400900813007D0812006B08133F
:10291000005808120046081200340811002308115C
:10292000001208110001081100F0071000E0071064
:1029300000D0071000C0071000B0070F00A107105B
:102940000091070E0083070F0074070F0065070E44
:102950000057070E0049070E003B070D002E070E1B
:102960000020070D0013070D0006070D00F9060CE7
:1029700000ED060D00E0060C00D4060C00C8060CA5
:1029800000BC060C00B0060C00A4060B0099060C57
:10299000008D060B0082060B0077060B006C060B01
:1029A0000061060A0057060B004C060A0042060AA0
:1029B0000038060A002E060A0024060A001A060A33
:1029C000001006090007060A00FD050900F40509C4
:1029D00000EB050900E2050900D9050900D0050949
:1029E00000C7050900BE050900B5050800AD0508CA
:1029F00000A50509009C050800940508008C050841
:102A000000840508007C050800740508006C0507B3
:102A100000650508005D050700560508004E05071E
:102A20000047050700400508003805070031050785
:102A3000002A050700230507001C050600160507E8
:102A4000000F0507000805060002050700FB040645
:102A500000F5040700EE040600E8040600E204079F
:102A600000DB040600D5040600CF040600C90406F6
:102A700000C3040600BD040600B7040600B1040547
:102A800000AC040600A6040600A00405009B040692
:102A90000095040500900406008A040500850405DD
:102AA00000800406007A0405007504050070040522
:102AB000006B04050066040500610405005C040564
:102AC0000057040500520405004D040500480405A4
:102AD00000430405003E0404003A040500350405E3
:102AE00000300404002C040500270404002304051E
:102AF000001E0404001A0404001604050011040456
:102B0000000D04040009040500040404000004048A
:102B100000FC030400F8030400F4030400F00304C1
:102B200000EC030400E8030400E4030400E00304F1
:102B300000DC030400D8030400D4030400D0030421
:102B400000CC030400C8030300C503030024F404FD
:102B5000D9201BC40C5C0E9804C4095F0265077180
:102B600001F405F900FB04B30048048700C10369C0
:102B7000005803550003034500BE023A00840231A9
:102B80000053022A002902250004022000E4011C4F
:102B900000C8011900AF0117009801140084011347
:102BA00000710110006101100051010E0043010D80
:102BB0000036010B002B010B0020010B0015010951
:102BC000000C01090003010800FB000800F30008E5
:102BD00000EB000700E4000600DE000600D8000657
:102BE00000D2000600CC000500C7000500C20005A9
:102BF00000BD000400B9000400B5000400B10004E9
:102C000000AD000400A9000400A5000300A2000319
:102C1000009F0004009B0003009800030095000241
:102C20000093000300900003008D0002008B00035E
:102C30000088000200860002008400030081000278
:102C4000007F0002007D0002007B0002007900028C
:102C5000007700010076000200740002007200019B
:102C600000710002006F0002006D0001006C0002A4
:102C7000006A0001006900020067000100660001AF
:102C800000650001006400020062000100610001B3
:102C900000600001005F0002005D0001005C0001B7
:102CA000005B0001005A00010059000100580001BA
:102CB00000570001005600010055000100540001BA
:102CC00000530000005300010052000100510001B8
:102CD00000500001004F0001004E0000004E0001B6
:102CE000004D0001004C0001004B0000004B0001B2
:102CF000004A0001004900010048000000480001AE
:102D000000470001004600000046000100450000A9
:102D100000450001004400010043000000430001A1
:102D2000004200000042000100410000004100019B
:102D300000400001003F0000003F0001003E000095
:102D4000003E0001003D0000003D0001003C00008D
:102D5000003C0000003C0001003B0000003B000183
:102D6000003A0000003A000100390000003900017B
:102D70000038000000380000003800010037000073
:102D80000037000100360000003600000036000168
:102D9000003500000035000000350001003400005F
:102DA0000034000000340001003300000033000054
:102DB0000033000100320000003200000032000148
:102DC000003100000031000000310001003000003F
:102DD0000030000000300001002F0000002F000034
:102DE000002F0000002F0001002E0000002E000028
:102DF000002E0001002D0000002D0000002D00001D
:102E0000002D0001002C0000002C0000002C000010
:102E1000002C0001002B0000002B0000002B000004
:102E2000002B0001002A0000002A0000002A0000F8
:102E3000002A0001002900000029000000290000EC
:102E400000290000002900010028000000280000DF
:102E500000280000002800000028000100270000D2
:102E600000270000002700000027000000270001C5
:102E700000260000002600000026000000260000BA
:102E800000260001002500000025000000250000AC
:102E9000002500000025000000250001002400009E
:102EA0000024000000240000002400000024000191
:102EB0000023000000230000002300000023000086
:102EC0000023000000230000002300010022000076
:102ED000002200000022000000220000002200006A
:102EE000002200010021000000210000002100005C
:102EF000002100000021000000210000002100014D
:102F00000020000000200000002000000020000041
:102F10000020000000200000002000000020000130
:102F2000001F0000001F0000001F0000001F000025
:102F3000001F0000001F0000001F0001001E000015
:102F4000001E0000001E0000001E000000656368F7
:102F50006F3A003A20457874727564657220737711
:102F6000697463686564206F66662E204D494E540F
:102F7000454D502074726967676572656420210051
:102F80003A2045787472756465722073776974634A
:102F9000686564206F66662E204D415854454D503B
:102FA0002074726967676572656420210054656DDD
:102FB00070657261747572652068656174656420FE
:102FC000626564207377697463686564206F666600
:102FD0002E204D415854454D5020747269676765E5
:102FE00072656420212100202D20496E76616C6974
:102FF00064206578747275646572206E756D6265A3
:1030000072202100504944204175746F74756E65BB
:103010002066696E69736865642120507574207438
:103020006865204B702C204B6920616E64204B64D6
:1030300020636F6E7374616E747320696E746F2099
:10304000436F6E66696775726174696F6E2E680092
:10305000504944204175746F74756E6520666169CE
:103060006C6564212074696D656F75740020403A49
:10307000006F6B20543A006F6B20423A0050494475
:10308000204175746F74756E65206661696C656446
:10309000212054656D706572617475726520746F5E
:1030A0006F206869676800204B643A2000204B69F4
:1030B0003A2000204B703A200020436C6173696312
:1030C0002050494420002054753A2000204B753A86
:1030D0002000206D61783A2000206D696E3A200052
:1030E00020643A200020626961733A20005049440C
:1030F000204175746F74756E65207374617274000D
:10310000504944204175746F74756E65206661691D
:103110006C65642E20426164206578747275646504
:1031200072206E756D6265722E004572726F723A12
:10313000000000000018070100A80714003008284C
:1031400000B8083C0038095000C0096400480A78FB
:1031500000C80A8C00480BA000C80BB400480CC87B
:1031600000C80CDC00400DF000C00D0401380E1842
:1031700001B00E2C01280F4001A00F540118106857
:103180000188107C01001190013013F4014815589A
:10319000024017BC0228192003F01A8403A81CE877
:1031A00003401E4C044D383420582059205A2045E5
:1031B0000043616E6E6F7420656E74657220737566
:1031C000626469723A20004D3234004D323320255A
:1031D00073006175746F25692E67006572726F7276
:1031E0002077726974696E6720746F2066696C65F8
:1031F0000043617264206572726F723A004E6F74A0
:10320000205344207072696E74696E67002F0053FA
:1032100044207072696E74696E67206279746520EB
:10322000002E0044656C6574696F6E206661696C80
:1032300065642C2046696C653A200046696C6520FF
:1032400064656C657465643A002E006F70656E206D
:103250006661696C65642C2046696C653A2000578C
:10326000726974696E6720746F2066696C653A20B4
:10327000002E006F70656E206661696C65642C209D
:1032800046696C653A20002E006F70656E2066619D
:10329000696C65642C2046696C653A200046696C4F
:1032A000652073656C6563746564002053697A6595
:1032B0003A200046696C65206F70656E65643A203F
:1032C000002E006F70656E206661696C65642C204D
:1032D00046696C653A200053442063617264206F34
:1032E0006B006F70656E526F6F74206661696C65FC
:1032F0006400766F6C756D652E696E697420666109
:10330000696C656400534420696E69742066616964
:103310006C0043616E6E6F74206F70656E20737504
:1033200062646972006563686F3A004572726F7219
:103330003A0048617264636F646564204465666145
:10334000756C742053657474696E6773204C6F617B
:1033500064656400563031300053746F72656420C8
:1033600073657474696E67732072657472696576CB
:103370006564002044002049002020204D33303176
:103380002050005049442073657474696E67733A25
:1033900000205A0020590020204D3230362058009D
:1033A000486F6D65206F666673657420286D6D29A2
:1033B0003A00204500205A002058002042002054A6
:1033C0000020204D323035205300416476616E6319
:1033D0006564207661726961626C65733A20533D61
:1033E0004D696E20666565647261746520286D6D37
:1033F0002F73292C20543D4D696E207472617665BF
:103400006C20666565647261746520286D6D2F732C
:10341000292C20423D6D696E696D756D207365675D
:103420006D656E742074696D6520286D73292C207C
:10343000583D6D6178696D756D205859206A6572C7
:103440006B20286D6D2F73292C20205A3D6D6178DB
:10345000696D756D205A206A65726B20286D6D2F1D
:1034600073292C2020453D6D6178696D756D20456F
:10347000206A65726B20286D6D2F7329002054001F
:1034800020204D323034205300416363656C6572F7
:103490006174696F6E3A20533D616363656C657258
:1034A0006174696F6E2C20543D726574726163742F
:1034B00020616363656C65726174696F6E0020459D
:1034C00000205A0020590020204D32303120580071
:1034D0004D6178696D756D20416363656C657261DE
:1034E00074696F6E20286D6D2F7332293A00204564
:1034F00000205A0020590020204D3230332058003F
:103500004D6178696D756D2066656564726174657D
:103510007320286D6D2F73293A00204500205A0032
:1035200020590020204D39322058005374657073A3
:103530002070657220756E69743A00536574746901
:103540006E67732053746F726564006563686F3AC9
:1035500000544553540D0A000D0A00556E6B6E6FF2
:10356000776E20636F6D6D616E643A20000D0A0006
:103570003F00566572733A5F31352E30342E372D49
:10358000524335657800024E414E494E49545949DF
:103590004E46CDCCCC3D0AD7233C17B7D13877CC9B
:1035A0002B329595E6241FB14F0A00002041000000
:1035B000C84200401C4620BCBE4CCA1B0E5AAEC5B9
:1035C0009D740C947C370C94C94A0C94AF4F0C94A6
:1035D0001E420C9459380C942E1E0C94B5570C9422
:1035E00052EA0C940D530C94D1EA0C94A7EA0C9473
:1035F000DF490C94F61D0C9430EB0C94DB4F0C94CB
:103600009C5D0C94EF3E0C94B2280C941B440C94DB
:103610005B1E0C9492350C94CFEA0C94526C0C9473
:1036200062690C945A6F0C941EA00C9489EA0C9455
:103630006A440C9473550C94101E0C94B6470C9469
:103640001A1E0C94D5470C94001E0C947A3E0C94D0
:10365000CDEA0C94E2630C94651E0C94E7510C9433
:10366000AE6B0C94823B0C941E350C94C71E0C94CC
:10367000EE570C946F1E0C949E1E0C942CEA0C9426
:1036800099630C947E210C94E21D0C943A240C94C2
:10369000D1210C94D5EA0C9472240C943E550C94D0
:1036A00079EA0C940B3C0C9443460C94B41E0C9495
:1036B000D13E0C949EEA0C944C250C949F240C94BF
:1036C000C5EA0C94B01E0C94EC490C94C3EA0C941B
:1036D000DF610C94DD460C94BFEA0C94941E0C94AC
:1036E0008B6F0C94EC3F0C94EC400C94974C0C9426
:1036F000BA1E0C9405770C94AB4D0C940D3E0C94B3
:103700009B3D0C94A03A0C9413AE0C94C3370C94CC
:1037100011420C948D1E0C940B700C94AD640C949F
:103720002FEA0C9456240C94A8550C9480240C94E5
:10373000F33C0C94BF200C947B510C94831E0C948E
:103740003C4F0C94A0340C94AC1E0C94BE630C94AF
:1037500012360C94DF340C94BE6E0C9461EA0C9417
:10376000EA360C943D650C94241E0C944A510C943A
:103770004C3E0C9476680C94715F0C944F520C94F0
:1037800064240C94514D0C94DB640C94C21E0C9474
:1037900059EA0C9431660C94053F0C94E5430C9463
:1037A000F3660C940F390C94CBEA0C94CE680C940D
:1037B000B94E0C944BEA0C94AD420C94F36D0C94FE
:1037C000D3EA0C94F4EA0C9497EA0C94DE630C941C
:1037D00000380C94BBEA0C94981E0C949D480C94F1
:1037E00048240C94BA500C94EB470C943A6C0C940B
:1037F000B0EA0C94871E0C945E4D0C940D3D0C9415
:1038000072350C9485410C9482EA0C94E71D0C945B
:1038100036EA0C944D490C94383A0C948A3C0C943A
:10382000723B0C94543D0C9405470C942FA00C94BF
:10383000901E0C94C9EA0C9472EA0C94313B0C94DF
:10384000081E0C943B3B0C94856C0C9469EA0C9418
:10385000BDEA0C94074A0C94A6510C94A21E0C9439
:1038600040620C94A61E0C94C1EA0C94DE6C0C947D
:103870002C240C94FD470C94CF350C941F640C94AD
:10388000BE1E0C94774E0C949C470C94F6710C94CD
:10389000AB3E0C9444EA0C94471E0C946B480C9479
:1038A000C5390C9490EA0C94EC1D0C943DEA0C94F0
:1038B00004650C94D7EA0C945B340C949B470C94ED
:1038C00061340C94D46C0C9448350C94511E0C94B7
:1038D0007E360C94C7EA0C943D1E0C948E240C94F6
:1038E000B9EA0C9432510C9422400C940B4E0C9477
:1038F00035370C94DBEA1EA02FA011241FBECFEF9A
:10390000D1E2DEBFCDBF00E00CBF13E0A0E0B2E02B
:10391000ECE6F1EF01E00BBF02C007900D92AC3274
:10392000B107D9F71AE1ACE2B3E001C01D92AA30A9
:10393000B107E1F718E3C8EFD8E300E006C022972B
:103940000109FE010BBF0E9468F1C63FD10780E06C
:103950000807A9F70E942EEC0C94A4F80C94000020
:103960001F920F920FB60F9211242F933F938F93B4
:103970009F93AF93BF9380912D0390912E03A091BD
:103980002F03B091300330912C0323E0230F2D3708
:1039900020F40196A11DB11D05C026E8230F029653
:1039A000A11DB11D20932C0380932D0390932E0312
:1039B000A0932F03B0933003809131039091320391
:1039C000A0913303B09134030196A11DB11D8093E2
:1039D000310390933203A0933303B0933403BF9128
:1039E000AF919F918F913F912F910F900FBE0F90AC
:1039F0001F9018952FB7F89460912D0370912E03A6
:103A000080912F03909130032FBF08953FB7F89412
:103A10008091310390913203A0913303B09134032C
:103A200026B5A89B05C02F3F19F00196A11DB11D19
:103A30003FBF6627782F892F9A2F620F711D811D36
:103A4000911D42E0660F771F881F991F4A95D1F795
:103A50000895CF92DF92EF92FF92CF93DF936B01A5
:103A60007C010E94061DEB01C114D104E104F104A4
:103A700079F00E94061D6C1B7D0B683E7340A0F31D
:103A800081E0C81AD108E108F108C851DC4FECCF39
:103A9000DF91CF91FF90EF90DF90CF900895019745
:103AA000009739F0880F991F880F991F0297019787
:103AB000F1F70895789484B5826084BD84B58160FF
:103AC00084BD85B5826085BD85B5816085BDEEE626
:103AD000F0E0808181608083E1E8F0E01082808105
:103AE00082608083808181608083E0E8F0E0808173
:103AF00081608083E1EBF0E0808184608083E0EB93
:103B0000F0E0808181608083E1E9F0E08081826083
:103B10008083808181608083E0E9F0E08081816042
:103B20008083E1EAF0E0808182608083808181602F
:103B30008083E0EAF0E0808181608083E1E2F1E06F
:103B4000808182608083808181608083E0E2F1E017
:103B5000808181608083EAE7F0E0808184608083F7
:103B600080818260808380818160808380818068A1
:103B700080831092C10008951F93CF93DF93182F75
:103B8000EB0161E00E94C81E209711F460E004C0C0
:103B9000CF3FD10539F461E0812FDF91CF911F91A3
:103BA0000C94011FE12FF0E0ED5AFD4F449150E0DD
:103BB000FA013197E131F10508F091C0EE58FF4F5D
:103BC0000C944EF184B5806884BDC7BD8DC084B5AA
:103BD000806284BDC8BD88C0809180008068809369
:103BE0008000D0938900C09388007EC080918000BF
:103BF000806280938000D0938B00C0938A0074C051
:103C00008091B00080688093B000C093B3006CC016
:103C10008091B00080628093B000C093B40064C013
:103C200080919000806880939000D0939900C09319
:103C300098005AC080919000806280939000D09349
:103C40009B00C0939A0050C0809190008860809340
:103C50009000D0939D00C0939C0046C08091A0002E
:103C600080688093A0008091A0008F7B8093A0004B
:103C7000D093A900C093A80037C08091A0008062B3
:103C80008093A000D093AB00C093AA002DC0809178
:103C9000A00088608093A000D093AD00C093AC00DA
:103CA00023C080912001806880932001D093290156
:103CB000C093280119C08091200180628093200167
:103CC000D0932B01C0932A010FC0809120018860FE
:103CD00080932001D0932D01C0932C0105C0C038E2
:103CE000D1050CF058CF52CFDF91CF911F9108959D
:103CF00090E0FC013197E131F10508F048C0ED5743
:103D0000FF4F0C944EF1809180008F7703C080911B
:103D100080008F7D80938000089584B58F7702C0E6
:103D200084B58F7D84BD08958091B0008F7703C0E6
:103D30008091B0008F7D8093B000089580919000B5
:103D40008F7707C0809190008F7D03C08091900095
:103D5000877F8093900008958091A0008F7707C09F
:103D60008091A0008F7D03C08091A000877F809309
:103D7000A0000895809120018F7707C080912001D5
:103D80008F7D03C080912001877F8093200108955B
:103D9000CF93DF9390E0FC01E756FD4F2491FC01A7
:103DA000E152FD4F8491882349F190E0880F991FDB
:103DB000FC01E15CFC4FA591B4918B5D9C4FFC0133
:103DC000C591D4919FB7611108C0F8948C9120954A
:103DD00082238C93888182230AC0623051F4F89444
:103DE0008C91322F309583238C938881822B88830A
:103DF00004C0F8948C91822B8C939FBFDF91CF915C
:103E000008950F931F93CF93DF931F92CDB7DEB723
:103E1000282F30E0F901ED5AFD4F8491F901E75662
:103E2000FD4F1491F901E152FD4F04910023C9F0B7
:103E3000882321F069830E94781E6981E02FF0E0D9
:103E4000EE0FFF1FEB5DFC4FA591B4919FB7F89467
:103E50008C91611103C01095812301C0812B8C933B
:103E60009FBF0F90DF91CF911F910F9108951F92E7
:103E70000F920FB60F9211240BB60F922F933F9310
:103E80004F935F936F937F938F939F93AF93BF9362
:103E9000EF93FF938091390390913A03892B29F096
:103EA000E0913903F0913A031995FF91EF91BF9199
:103EB000AF919F918F917F916F915F914F913F91C2
:103EC0002F910F900BBE0F900FBE0F901F90189563
:103ED0001F920F920FB60F9211240BB60F922F93D1
:103EE0003F934F935F936F937F938F939F93AF9382
:103EF000BF93EF93FF9380913B0390913C03892BF9
:103F000029F0E0913B03F0913C031995FF91EF916B
:103F1000BF91AF919F918F917F916F915F914F91E1
:103F20003F912F910F900BBE0F900FBE0F901F90DF
:103F300018951F920F920FB60F9211240BB60F9285
:103F40002F933F934F935F936F937F938F939F93A1
:103F5000AF93BF93EF93FF9380913D0390913E0306
:103F6000892B29F0E0913D03F0913E031995FF91D3
:103F7000EF91BF91AF919F918F917F916F915F91E1
:103F80004F913F912F910F900BBE0F900FBE0F904E
:103F90001F9018951F920F920FB60F9211240BB617
:103FA0000F922F933F934F935F936F937F938F93D2
:103FB0009F93AF93BF93EF93FF9380913F039091B3
:103FC0004003892B29F0E0913F03F09140031995BC
:103FD000FF91EF91BF91AF919F918F917F916F91E1
:103FE0005F914F913F912F910F900BBE0F900FBE9D
:103FF0000F901F9018951F920F920FB60F921124D9
:104000000BB60F922F933F934F935F936F937F93D2
:104010008F939F93AF93BF93EF93FF93809135035B
:1040200090913603892B29F0E0913503F091360306
:104030001995FF91EF91BF91AF919F918F917F91D2
:104040006F915F914F913F912F910F900BBE0F9009
:104050000FBE0F901F9018951F920F920FB60F92E0
:1040600011240BB60F922F933F934F935F936F934F
:104070007F938F939F93AF93BF93EF93FF93809121
:10408000370390913803892B29F0E0913703F091A1
:1040900038031995FF91EF91BF91AF919F918F9147
:1040A0007F916F915F914F913F912F910F900BBE38
:1040B0000F900FBE0F901F9018951F920F920FB682
:1040C0000F9211240BB60F922F933F934F935F9350
:1040D0006F937F938F939F93AF93BF93EF93FF93D0
:1040E0008091410390914203892B29F0E091410393
:1040F000F09142031995FF91EF91BF91AF919F917C
:104100008F917F916F915F914F913F912F910F9080
:104110000BBE0F900FBE0F901F9018951F920F921D
:104120000FB60F9211240BB60F922F933F934F931C
:104130005F936F937F938F939F93AF93BF93EF930F
:10414000FF938091430390914403892B29F0E091E0
:104150004303F09144031995FF91EF91BF91AF9103
:104160009F918F917F916F915F914F913F912F918F
:104170000F900BBE0F900FBE0F901F901895FF92DF
:104180000F931F93CF93DF9388EA9FEF9093690378
:104190008093680340915C0388E0840F405E682F41
:1041A0000E94A72A0E94E42F80915C038435C8F501
:1041B00049EE54E066E180E00E94F33007E116E149
:1041C000C0E0D0E0FC2E40915C03842F90E0880F8B
:1041D000991FFE017396E817F90744F4440F445100
:1041E0004C1B202F612F80E00E94EF2F80915C03F9
:1041F000482F50E0440F551F4C175D0734F0880FCF
:10420000202F4FE7612F8F1904C0202F4FE7612F18
:1042100080E00E94EF2F21961E5F0E5F1A3291F60A
:1042200009C0815080935C0349EE54E066E180E070
:104230000E94F3300E946A2A80914503811113C0C5
:1042400020915C0330E0220F331F40911202429F05
:10425000C001439F900D112464E670E00E94F9F0C4
:1042600088E00E94BC1D80915B03811104C0809195
:1042700067038823E9F18091450381110DC0809186
:1042800012022FEF829FC001112464E670E00E94A9
:10429000F9F088E00E94BC1D10925B0310925C0351
:1042A0004CE360E380E30E94A72A809167038111B9
:1042B0000E94663180E094E00E94C2F7853579F46F
:1042C00020E030E0A9016091570F7091580F809164
:1042D000590F90915A0F0E9415ED811103C08DE086
:1042E0009EE302C08EE791E29093640380936303A0
:1042F000DF91CF911F910F91FF90089548E653E011
:104300006FE573E089E593E00E948925809167035A
:10431000882349F180916803909169039C01295F8A
:104320003F4F2F30310558F40E94E47181E79FE040
:104330000E94A8DB62E070E086EF91E712C09C016A
:10434000285031092830310528F468EA7FEF85EBE1
:1043500097E507C04097089730F468EA7FEF8AE74F
:104360009EE30E945925809166038823A1F08091E5
:10437000680390916903883A9F4F69F410925B0338
:1043800080915C03893C58F068EA7FEF81ED91E20F
:104390000E94592504C010925B0310925C030C9498
:1043A0006A2A8F929F92BF92CF92DF92EF92FF92F2
:1043B0000F931F93CF93DF931F921F92CDB7DEB75A
:1043C0008091680390916903883A9F4F59F58AE17B
:1043D00090E0909369038093680321E338E043E021
:1043E00080E090E0F901E80FF91F408301968530E5
:1043F0009105C1F72B5F3F4F88E02034380781F7E4
:10440000109241081092400880E099E3909343088D
:104410008093420810924508109244081092470871
:1044200010924608809168039091690397FF04C039
:104430001092690310926803809168039091690358
:10444000880F991F8B36910534F085E390E09093A7
:1044500069038093680360914408709145088091D6
:10446000400890914108860F971F909341088093D0
:1044700040084091460850914708209142083091E9
:104480004308240F351F30934308209342088F3F81
:10449000910509F01CF477FF0DC009C08130ECE7ED
:1044A0009E0764F077FF03C071956195710971955E
:1044B0006195710970934508609344082F3F310559
:1044C00009F054F457FF03C0519541955109509399
:1044D00047084093460805C02115FEE13F070CF050
:1044E00053C0292F220F220B892F922F69E170E0F0
:1044F0000E94F9F0262F932F990F990B832F6AE0D2
:1045000070E00E94F9F045E0649FF0011124E20F91
:10451000F11DEF5CF74F80818823B1F181508083DA
:10452000809146089091470897FF03C09195819527
:104530009109909347088093460881E398E020E032
:1045400030E0FC01E20FF31F408141111DC02F5FDD
:104550003F4F25303105A9F70596F8E080349F07D5
:1045600071F781E398E043E020E030E0FC01E20FE6
:10457000F31F40832F5F3F4F25303105B9F7059674
:10458000E8E080349E0781F78091420890914308CB
:1045900081309A430CF448C0209140083091410882
:1045A00080916803909169030197880F991F582F94
:1045B00044272417350734F04796982F8827821709
:1045C000930734F468EA7FEF8EE791E20E94592561
:1045D0008BEF9FEF2091680330916903821B930B4F
:1045E000982F8827990F2091400830914108820F19
:1045F000931F97FDCF96E6E095958795EA95E1F7AD
:104600002091440830914508820F931F90934508EC
:104610008093440897FF03C091958195910992502A
:1046200090934708809346088091460890914708E8
:10463000892B59F580E099E39093430880934208D1
:1046400080916803909169039C012B5F3F4F220F7B
:10465000331F1092400820934108209167032223C2
:10466000A1F0809763E0880F991F6A95E1F7909316
:1046700045088093440897FF03C09195819591095F
:10468000925090934708809346080E94E42F01E3DC
:1046900018E033E047E0B42EB30ECC24CA94C30E26
:1046A00056E0D52ED30E480194E07401F4018081C8
:1046B000882361F02B2D43E1490F6C2D8FEF890F7B
:1046C00039839A830E94472F9A813981F40180812E
:1046D000823059F42D2D42E1490F632F892F398300
:1046E0009A830E94792F9A813981FFEF8F1A9F0A4E
:1046F000F7018081833059F42D2D42E1490F632F5A
:10470000892F39839A830E9475309A813981975E07
:10471000913859F6365F0B5F1F4F313209F0BACF2F
:10472000609143088091410822E0260F42E0480F43
:104730000E94472F80916803880F45E1480F2FE3BF
:104740006CE30E94472F0F900F90DF91CF911F9144
:104750000F91FF90EF90DF90CF90BF909F908F9040
:104760000C946A2A0E94DC310E946662811106C0A4
:104770000E94725860E080E00E94B8600E94155E5E
:104780008FEB90E2909364038093630360E070E0AA
:1047900088E00E94BC1D0E94FA1C68587341810980
:1047A0009109609347037093480380934903909362
:1047B0004A030895CF92DF92EF92FF920E94A22ABD
:1047C000882309F464C10E94BB3182B382FB88272D
:1047D00080F991E089279091750F981759F0909181
:1047E0001911992321F091509093191106C08093CB
:1047F000750F03C088E28093191190915B0380913B
:104800005C03992341F0825080935C0381110BC0BB
:1048100010925B0308C08E5F80935C038E3719F49F
:1048200081E080935B030E94D585882309F48FC0C3
:104830000E94E42F69ED74E08AE00E94DE2D0E9460
:10484000DC8590E0FC013197EA30F10508F077C093
:10485000EC56FF4F0C944EF16DEC74E084E10E9435
:10486000DE2D46EC54E068E281E00E945C2C43EBD4
:1048700054E061C063EA74E084E10E94DE2D4CE9FB
:1048800054E068E281E00E945C2C49E854E053C0A7
:104890006CE774E084E10E94DE2D45E754E068E2B5
:1048A00081E00E945C2C42E654E045C063E574E080
:1048B00084E10E94DE2D4CE454E068E281E00E9435
:1048C0005C2C49E354E037C069E274E084E10E9463
:1048D000DE2D42E254E068E281E00E945C2C4FE071
:1048E00054E029C060E074E084E10E94DE2D49EFCD
:1048F00053E068E281E00E945C2C46EE53E01BC06E
:1049000061ED73E084E10E94DE2D4AEC53E068E241
:1049100081E00E945C2C47EB53E00DC063EA73E03A
:1049200084E10E94DE2D4CE953E068E281E00E94C0
:104930005C2C49E853E062E381E00E945C2C8091AA
:104940005C0360E8681B482F0E94A72A30C00E94C1
:10495000FA1CC0904703D0904803E0904903F090C0
:104960004A036C197D098E099F09683873418105D6
:10497000910518F58091460381110AC00E94E42F29
:1049800064E773E084E10E94DE2D81E080934603BA
:1049900080917D0C8350833050F40E94FA1C609308
:1049A0004703709348038093490390934A03FF9011
:1049B000EF90DF90CF900C946A2A109246032DEC72
:1049C0003CEC4CE45DE36091F3197091F419809133
:1049D000F5199091F6190E94EAEF6B017C0123E32F
:1049E00033E343E75FE360910E0270910F02809121
:1049F0001002909111020E94EAEF9B01AC01C701E5
:104A0000B6010E943CEC60930E0270930F028093FB
:104A10001002909311022DEC3CEC4CE45DE36091AC
:104A2000ED197091EE198091EF199091F0190E9493
:104A3000EAEF6B017C0123E333E343E75FE360913B
:104A40000A0270910B0280910C0290910D020E945B
:104A5000EAEF9B01AC01C701B6010E943CEC6093F8
:104A60000A0270930B0280930C0290930D02E09166
:104A70006303F09164031995E0915F03F091600383
:104A8000309729F0FF90EF90DF90CF901994FF902E
:104A9000EF90DF90CF9008951092FC191092FB19BF
:104AA0001092FA191092F9191092410F08950C946E
:104AB00089310F931F93CF93DF93EC018B011092F9
:104AC0005A0310925B0310925C034CE360E380E3B3
:104AD0000E94A72A0E94663180916303909164032B
:104AE00090936203809361038091680390916903BE
:104AF00090935E0380935D03D0936403C09363033C
:104B00001093690300936803DF91CF911F910F9178
:104B10000895EF92FF920F931F93CF93DF938C0131
:104B20007B01EA012091680330916903283A8FEFF5
:104B30003807A1F037FF06C0285E3F4F3093690366
:104B400020936803809168039091690388319105EF
:104B50002CF0489790936903809368030E94E42F98
:104B60004DE265E080E40E94F32E40E36CE783E0D1
:104B70000E94D62E2091680330916903295F3F4F30
:104B80002F30310590F42BE24BE367E085E00E9483
:104B9000472F2AE24AE368E086E00E947530A801C8
:104BA00066E181E20E946E2E05C0A80166E181E205
:104BB0000E94062E809168039091690308970897D8
:104BC00090F42BE24BE767E085E40E94472F2AE24E
:104BD0004AE768E086E40E947530A70166E181E655
:104BE0000E946E2E05C0A70166E181E60E94062E96
:104BF000209739F180916803909169034097089755
:104C0000B0F42DE34BE763E385E00E94472F2CE3EC
:104C10004AE764E386E00E947530BE0185E3DF91D8
:104C2000CF911F910F91FF90EF900C94F22DBE0148
:104C300085E3DF91CF911F910F91FF90EF900C943E
:104C4000DE2DDF91CF911F910F91FF90EF9008958E
:104C50000E94E42F40E36CE783E00C94D62E0F9380
:104C60001F93CF93DF931F921F92CDB7DEB78A01B8
:104C70002091680330916903283A4FEF3407A9F077
:104C800037FF06C0205F3F4F3093690320936803CE
:104C900020916803309169032031310534F02051AF
:104CA000310930936903209368032091670322231D
:104CB000C1F02091680330916903295F3F4F2F3085
:104CC000310578F46115710531F089839A83FB0110
:104CD00019959A818981009721F068EA7FEF0E94F7
:104CE00059250E9428260115110511F402E716E046
:104CF000809168039091690307960F97F0F42DE374
:104D00004BE763E385E00E94472F2CE34AE764E327
:104D100086E00E947530C8010E949CF4982F990F7C
:104D2000980FA80165E381E4891B0F900F90DF9134
:104D3000CF911F910F910C94182DC8010E949CF4E3
:104D4000982F990F980FA80165E381E4891B0F90B4
:104D50000F90DF91CF911F910F910C945C2CAF922B
:104D6000BF92CF92DF92EF92FF920F931F93CF9358
:104D7000DF936C01EA015901409168035091690386
:104D8000483A8FEF5807A1F057FF06C0405F5F4FCA
:104D9000509369034093680380916803909169037D
:104DA000803191052CF040979093690380936803BC
:104DB00080916703882331F18091680390916903A2
:104DC0009C01295F3F4F2F30310560F4611571055B
:104DD00011F0FB011995C114D104A1F068EA7FEF2D
:104DE000C6010EC00897089768F40115110511F067
:104DF000F8011995A114B10429F068EA7FEFC50103
:104E00000E9459250E942826809168039091690389
:104E100007960F97C8F42DE34EE363E385E00E9405
:104E2000472F2CE34DE364E386E00E947530CE010A
:104E30000E949CF4982F990F980FAE0165E383E2CE
:104E4000891B0E94182D0CC0CE010E949CF4982F43
:104E5000990F980FAE0165E383E2891B0E945C2CD9
:104E600080916803909169030897089710F52DE3E6
:104E70004AE763E382E40E94472F2CE349E764E3B7
:104E800083E40E947530C7010E949CF4982F990F0B
:104E9000980FA70165E38FE5891BDF91CF911F91E3
:104EA0000F91FF90EF90DF90CF90BF90AF900C9458
:104EB000182DC7010E949CF4982F990F980FA701F5
:104EC00065E38FE5891BDF91CF911F910F91FF90D3
:104ED000EF90DF90CF90BF90AF900C945C2CDF925E
:104EE000EF92FF920F931F93CF93DF93D82E2EE272
:104EF0004CE766E283E00E94472FC0E0D0E00D2D32
:104F000010E0015011098CE0E82EF12CEC2FCD15AA
:104F1000D0F4C937D105B9F0C8018C1B9D0BB7017E
:104F20000E94F9F0482F853018F4485D68E205C00A
:104F30008A3038F463E2640F4CE284E08E0F0E9402
:104F4000F32E2196E3CFDF91CF911F910F91FF9028
:104F5000EF90DF9008952F923F924F925F926F9261
:104F60007F928F929F92AF92BF92CF92DF92EF92F9
:104F7000FF920F931F93CF93DF935C017A01690136
:104F8000809167038111DBC0809168039091690370
:104F9000883A9F4F21F41092690310926803209180
:104FA000680330916903862E992487FC909437FF1B
:104FB0000BC0C401880F991F880F991F820F931F80
:104FC00090936903809368038091680390916903CB
:104FD0009401220F331F220F331F821793074CF0C7
:104FE000E4E06E0280199109112490936903809383
:104FF0006803009168031091690317FF02C00D5FF9
:105000001F4F1595079515950795702E0E94E42F53
:1050100080914B0390914C03D801BB2773E0AA0FFA
:10502000BB1F7A95E1F71F97A81BB90BED01B7FDE0
:105030002396D595C795D595C795C80FD91F1A162C
:105040001B0614F4219608C0AB2B29F4D0934C0313
:10505000C0934B0309C02197D0934C03C0934B03DB
:1050600010925B0310925C0380914B0390914C0370
:10507000282F27703AE0632E43E0969587954A954E
:10508000E1F7382E621AC0E0D0E02C2E230C222D3E
:1050900030E028153905DCF4822DF70119952C0133
:1050A000FC01148A27100EC027E0260D4CE76FEF95
:1050B000660D83E00E947530A201662D84E00E9497
:1050C000702B05C0AC01662D84E00E94AE2A2196AB
:1050D000F8E06F0EC630D105C1F628E04CE760E07D
:1050E00083E00E9475302FE34CE76FE283E00E947B
:1050F000EF2F29E04CE769E083E00E94EF2F40E3C7
:105100006CE783E00E94D62EB50181E00E94F22D6B
:10511000802FF6011995DF91CF911F910F91FF908C
:10512000EF90DF90CF90BF90AF909F908F907F9047
:105130006F905F904F903F902F900C946A2ADF9170
:10514000CF911F910F91FF90EF90DF90CF90BF9084
:10515000AF909F908F907F906F905F904F903F9017
:105160002F9008950F931F93CF93DF93CDB7DEB7A2
:1051700060970FB6F894DEBF0FBECDBF809151038C
:1051800090915203209168033091690328173907E1
:1051900024F4909369038093680380914F03909166
:1051A000500320916803309169038217930724F418
:1051B000909369038093680380915303813041F495
:1051C000E0915403F09155038091680380838EC071
:1051D000823059F4E0915403F091550380916803B3
:1051E000909169039183808381C08330A9F40091F9
:1051F00054031091550360916803709169038827E7
:1052000077FD8095982F0E94B7ED20E030E048ECC4
:1052100052E40E941CED65C0843089F4E09154038F
:10522000F09155038091680390916903AA2797FD37
:10523000A095BA2F80839183A283B38357C0853012
:10524000A1F4E0915403F09155032091680330914B
:1052500069034FEF429FC001439F900D112464E604
:1052600070E00E94F9F0608341C0863099F40091AB
:105270005403109155036091680370916903882766
:1052800077FD8095982F0E94B7ED20E030E040E751
:1052900052E414C08730A9F40091540310915503CF
:1052A0006091680370916903882777FD8095982F36
:1052B0000E94B7ED20E030E048EC52E40E94EAEFB3
:1052C00010C0883099F400915403109155036091F7
:1052D000680370916903882777FD8095982F0E9455
:1052E000B7EDF80160837183828393830E9428263F
:1052F000609158037091590384E10E94DE2D209142
:1053000053038091680390916903009156031091B3
:1053100057032330A1F4BC01882777FD8095982F8F
:105320000E94B7ED20E030E048EC52E40E941CED12
:105330009801AE014F5F5F4F0E94B33306C0A801D2
:10534000BE016F5F7F4F0E94A532BE016F5F7F4F2E
:105350008EE10E943C2C6BE676E0CE0101960E9425
:1053600095F42091530300915603109157038091B7
:105370004D0390914E032330A1F4BC01882777FDA3
:105380008095982F0E94B7ED20E030E048EC52E481
:105390000E941CED9801AE01495F5F4F0E94B3333C
:1053A00006C0A801BE01695F7F4F0E94A532BE0101
:1053B0006F5F7F4F85E30E943C2C0E946A2A809198
:1053C0006703882351F060915D0370915E038091C3
:1053D0006103909162030E94592560960FB6F8947C
:1053E000DEBF0FBECDBFDF91CF911F910F9108950A
:1053F0009091BC0097FFFCCF8093BB0084E8809322
:10540000BC0008958091BC0087FFFCCF84E98093A5
:10541000BC0008951F93CF93DF931F92CDB7DEB7E3
:10542000182F84EA8093BC0080EC69830E94F829DD
:10543000812F0E94F8296981862F0E94F8290F90F8
:10544000DF91CF911F910C94022A1F920F920FB6F9
:105450000F9211240BB60F922F933F934F935F93AC
:105460006F937F938F939F93AF93BF93EF93FF932C
:1054700080916B0390916C03811524E0920719F4DD
:105480000E94022A14C0FC01E059FC4F80810E9456
:10549000F8298091BC0081608093BC0080916B03EF
:1054A00090916C03019690936C0380936B03FF9132
:1054B000EF91BF91AF919F918F917F916F915F918C
:1054C0004F913F912F910F900BBE0F900FBE0F90F9
:1054D0001F90189560916F0382E00E940A2A6091E4
:1054E0006E0383E00E940A2A60916D0384E00E94AB
:1054F0000A2A84EA8093BC0088E70E94F82980E0A9
:105500000E94F82980E00E94F82980E10E94F82991
:1055100080EB0E94F8298091BC0087FFFCCF84EAD1
:105520008093BC0088E70E94F82980E40E94F82953
:1055300010926C0310926B038091BC008160809389
:10554000BC0008958091BC0080958170089580937F
:105550006F0360936E0340936D0308951F93CF9381
:10556000DF93962F969596959695C82FD0E080E874
:10557000989FC00DD11D1124DE01A059BC4FC05110
:10558000DC4F677078E0761B15E0FA01208122235A
:1055900009F4A2C030E020523109129FC001139FCC
:1055A000900D11248057994FFC012491062E01C0C3
:1055B000220F0A94EAF73C91232B2C933196E49125
:1055C000062E01C0EE0F0A94EAF711962C9111975E
:1055D000E22B1196EC931197FC013296E491062E82
:1055E00001C0EE0F0A94EAF712962C911297E22B63
:1055F0001296EC931297FC013396E491062E01C0AB
:10560000EE0F0A94EAF713962C911397E22B139658
:10561000EC931397FC0134968491062E01C0880FF9
:105620000A94EAF714969C911497892B14968C93FC
:1056300014971696662309F44CC0FA01208130E0D5
:1056400020523109129FC001139F900D11248057E1
:10565000994FFC01249130E0072E02C03595279523
:105660000A94E2F73881322B38833196E491F0E0E6
:10567000072E02C0F595E7950A94E2F729812E2BB3
:105680002983FC013296E491F0E0072E02C0F595E3
:10569000E7950A94E2F72A812E2B2A83FC013396A0
:1056A000E491F0E0072E02C0F595E7950A94E2F741
:1056B0002B812E2B2B83FC013496849190E0072EB6
:1056C00002C0959587950A94E2F79C81982B9C835C
:1056D00026964F5F5F4F59CFDF91CF911F9108956D
:1056E0001F93CF93DF93962F969596959695C82FF7
:1056F000D0E080E8989FC00DD11D1124DE01A05993
:10570000BC4FC051DC4F677078E0761B15E0FA01A2
:105710002081222309F4ACC030E020523109129FCD
:10572000C001139F900D11248057994FFC012491C3
:10573000062E01C0220F0A94EAF720953C913223ED
:105740003C933196E491062E01C0EE0F0A94EAF7DD
:10575000E09511962C9111972E2311962C93119769
:10576000FC013296E491062E01C0EE0F0A94EAF78E
:10577000E09512962C9112972E2312962C93129745
:10578000FC013396E491062E01C0EE0F0A94EAF76D
:10579000E09513962C9113972E2313962C93139721
:1057A000FC0134968491062E01C0880F0A94EAF712
:1057B000809514969C911497982314969C93149713
:1057C0001696662309F451C0FA01208130E0205278
:1057D0003109129FC001139F900D11248057994FDA
:1057E000FC01249130E0072E02C0359527950A94DC
:1057F000E2F720953881322338833196E491F0E046
:10580000072E02C0F595E7950A94E2F7E095298105
:105810002E232983FC013296E491F0E0072E02C08A
:10582000F595E7950A94E2F7E0952A812E232A83DD
:10583000FC013396E491F0E0072E02C0F595E79560
:105840000A94E2F7E0952B812E232B83FC013496FA
:10585000849190E0072E02C0959587950A94E2F70F
:1058600080959C8198239C8326964F5F5F4F4FCFF6
:10587000DF91CF911F910895AB01FB0101900020B2
:10588000E9F73197E61BF70B9E2F990F9E0F682FB4
:1058900080E4891B0C94AE2AAB01FB01019000202F
:1058A000E9F73197E61BF70B9E2F990F9E0F682F94
:1058B00080E4891B0C94702BBF92CF92DF92EF9201
:1058C000FF920F931F93CF93DF93962F9695969504
:1058D0009695C82FD0E080E8989FC00DD11D112467
:1058E000DE01A059BC4FC051DC4F677078E0761BD9
:1058F000FA01249185E0B82E222309F48FC030E00C
:1059000020523109B29EC001B39E900D11248057E0
:10591000994FFC01C490D12C9601062E01C0220F94
:105920000A94EAF73C91322B3C933196E490F12CA7
:105930009701062E01C0220F0A94EAF711963C91B6
:105940001197322B11963C931197FC0132960491DA
:1059500010E09801062E01C0220F0A94EAF7129671
:105960003C911297322B12963C931297FC0133967E
:10597000249130E0F901062E01C0EE0F0A94EAF7F7
:105980001396FC911397FE2B1396FC931397FC012F
:105990003496849190E0FC01062E01C0EE0F0A942B
:1059A000EAF71496FC911497FE2B1496FC93149727
:1059B0001696662371F1072E02C0D594C7940A94F7
:1059C000E2F7E881EC29E883072E02C0F594E7941A
:1059D0000A94E2F7E981EE29E983072E02C01595C2
:1059E00007950A94E2F7EA81E02BEA83072E02C0CA
:1059F000359527950A94E2F73B81322B3B83072E9E
:105A000002C0959587950A94E2F79C81982B9C8318
:105A100026964F5F5F4FFA0124916ECFDF91CF91B1
:105A20001F910F91FF90EF90DF90CF90BF9008955E
:105A3000BF92CF92DF92EF92FF920F931F93CF937B
:105A4000DF93962F969596959695C82FD0E080E88F
:105A5000989FC00DD11D1124DE01A059BC4FC0512B
:105A6000DC4F677078E0761BFA01249195E0B92E3F
:105A7000222309F499C030E020523109B29EC001BE
:105A8000B39E900D11248057994FFC01C490D12CE6
:105A90009601062E01C0220F0A94EAF720953C9148
:105AA00032233C933196E490F12C9701062E01C0ED
:105AB000220F0A94EAF7209511963C911197322310
:105AC00011963C931197FC013296049110E09801D5
:105AD000062E01C0220F0A94EAF7209512963C91F7
