:100000000C94510F0C940B120C943C120C946D1226
:100010000C949E120C94CF120C9400130C94311378
:100020000C9462130C94820F0C94820F0C94820F28
:100030000C94820F0C949F840C94820F0C94820F6A
:100040000C94820F0C94265D0C94820F0C94820FFA
:100050000C94820F0C94820F0C947A700C94840F81
:100060000C94820F0C946D380C94820F0C94820FB8
:100070000C94820F0C94820F0C94820F0C94820FBC
:100080000C94820F0C94820F0C94820F0C94820FAC
:100090000C94820F0C94820F0C94820F0C94820F9C
:1000A0000C94820F0C94820F0C94820F0C94820F8C
:1000B0000C94820F0C94820F0C94820F0C94820F7C
:1000C0000C94820F0C94820F0C94820F0C94820F6C
:1000D0000C94820F0C94820F0C94820F0C94820F5C
:1000E0000C94820FB610BB10C010CA104311D4106C
:1000F000DC10E410EE10F810021111111B11431165
:1001000025112F1139116111641157115B119B11C8
:1001100068116C11721176117A1180118411881195
:100120009B118E1192119611312031203C203C20E0
:100130003C204720472047205C205220522052205C
:10014000D370E270FE700D71277136715071547169
:100150005C71084AD73B3BCE016E84BCBFFDC12F0A
:100160003D6C74319ABD56833DDA3D00C77F11BEA8
:10017000D9E4BB4C3E916BAAAABE000000803F05AB
:10018000A84CCDB2D44EB93836A9020C50B99186DC
:1001900088083CA6AAAA2ABE000000803F000C9452
:1001A00076B10C946C110C941B110C94FE910C9470
:1001B00084110C94C0100C94C8B00C949B110C9436
:1001C000D4100C94DD970C9418960C9460BC0C948D
:1001D00002110C947A110C942C8A0C9468110C94D2
:1001E00036710C948E110C9469380C9443110C9454
:1001F00050B30C94B0B70C9492110C94FEAF0C94C5
:1002000025110C944BB00C9450B60C9488110C949E
:10021000DDB70C94EE100C94E6450C94889C0C947D
:1002200065880C9472110C9427710C9457110C94DE
:1002300053940C9411110C9476110C9423A50C94E6
:10024000DC100C94CA100C9450710C94FE700C9439
:100250003C200C94E4100C94335C0C94E2700C94ED
:100260003A8A0C94D2B20C94B6100C94D0B30C947D
:10027000D3700C945E9E0C94F8B60C94F8100C9409
:1002800052200C945C710C941E8A0C940AB50C9448
:10029000EDAB0C9454710C9434A00C9480110C941C
:1002A00096110C9465380C94BB100C945C200C9443
:1002B00047200C9439110C9467B40C9461110C9480
:1002C00031200C94C88B0C94968C0C9464110C9473
:1002D00024B20C94DC8B0C94ADB50C940D710C9481
:1002E00093130C94FF860C942F110C94648F0C9430
:1002F0005B110000090A02080B0C0D07060304013C
:1003000000000000000000000000000000000000ED
:1003100000000000000000000000000000001110BC
:100320000F000000000000000000000000000000BE
:10033000000000000000000001021020200808104A
:100340002040102040800201020108040201010245
:10035000040810204080804020100804020180041E
:100360000201804020100804020108040201010279
:100370000408102040800102040810204080050578
:100380000505070508080808020202020A0A08080B
:100390000404040401010101010101010303030339
:1003A00003030303040707070C0C0C0C0C0C0C0CC8
:1003B0000202020206060606060606060B0B0B0BD9
:1003C0000B0B0B0B00002200250028002B002E0039
:1003D0003100340002010000050108010B0100009A
:1003E0002100240027002A002D00300033000101E5
:1003F0000000040107010A0153544F505045442E98
:1004000020005072696E7465722073746F7070652D
:10041000642064756520746F206572726F72732E2C
:100420002046697820746865206572726F72206159
:100430006E6420757365204D39393920746F2072D0
:100440006573746172742E202854656D70657261D5
:10045000747572652069732072657365742E2053FC
:1004600065742069742061667465722072657374A6
:10047000617274696E6729004B494C4C45442E20CB
:10048000005072696E7465722068616C7465642EC8
:10049000206B696C6C28292063616C6C6564210099
:1004A0006F6B00526573656E643A20002200556ED2
:1004B0006B6E6F776E20636F6D6D616E643A202294
:1004C000004368616E67652066696C616D656E7476
:1004D000005A204F6666736574203A20007A5F6D7B
:1004E00061783A20007A5F6D696E3A20005A204F99
:1004F0006666736574005A204F6666736574206F74
:100500006B00486F74656E64206F66667365747304
:100510003A007A5F6D696E3A2000795F6D696E3AD4
:100520002000785F6D696E3A2000205A3A00205909
:100530003A0020436F756E7420583A200020453AE7
:1005400000205A3A0020593A00583A004649524D84
:10055000574152455F4E414D453A4D61726C696E4F
:100560002056313B20537072696E7465722F67722A
:10057000626C206D617368757020666F72206765AC
:100580006E36204649524D574152455F55524C3ABE
:10059000687474703A2F2F6669726D776172652E78
:1005A000756C74696D616B65722E636F6D2050524E
:1005B0004F544F434F4C5F56455253494F4E3A317B
:1005C0002E30204D414348494E455F545950453ADD
:1005D000556C74696D616B65722045585452554471
:1005E00045525F434F554E543A3220555549443A8F
:1005F00030303030303030302D303030302D303001
:1006000030302D303030302D3030303030303030F0
:10061000303030300A00556C74696D616B65722042
:100620004F66662E0042656420646F6E652E002062
:10063000423A0020453A00543A0042656420486539
:100640006174696E672E0048656174696E67206425
:100650006F6E652E0020573A0020453A00543A004C
:1006600048656174696E672E2E2E002042403A0064
:1006700020403A00202F003A00205400202F002074
:10068000423A00202F006F6B20543A002569206DFC
:10069000696E2C2025692073656300456E642066B1
:1006A000696C65206C69737400426567696E2066C9
:1006B000696C65206C697374004E6F206D6F766590
:1006C0002E00526573756D696E67207072696E7465
:1006D000005761697420666F7220757365722E2EE3
:1006E0002E00536C6565702E2E2E00256920686FD4
:1006F000757273202569206D696E75746573004489
:100700006F6E65207072696E74696E672066696CC1
:10071000650053544F505045442E20005072696E6E
:100720007465722073746F707065642064756520E1
:10073000746F206572726F72732E20466978207410
:100740006865206572726F7220616E6420757365D2
:10075000204D39393920746F207265737461727459
:100760002E202854656D70657261747572652069FC
:10077000732072657365742E20536574206974202C
:1007800061667465722072657374617274696E67F4
:1007900029006F6B004E6F204C696E65204E756DA1
:1007A000626572207769746820636865636B73752E
:1007B0006D2C204C617374204C696E653A20004E9C
:1007C0006F20436865636B73756D2077697468206B
:1007D0006C696E65206E756D6265722C204C61735C
:1007E00074204C696E653A2000636865636B7375AD
:1007F0006D206D69736D617463682C204C61737436
:10080000204C696E653A20004C696E65204E756D0E
:10081000626572206973206E6F74204C617374205E
:100820004C696E65204E756D6265722B312C204CC3
:10083000617374204C696E653A20004D313130008F
:10084000446F6E6520736176696E672066696C65BA
:100850002E006F6B004D3239002020506C616E6E9F
:10086000657242756666657242797465733A2000F6
:100870002046726565204D656D6F72793A20004A99
:10088000756E203230203230313600436F6D706922
:100890006C65643A20002844617669642042726184
:1008A000616D2900207C20417574686F723A2000C8
:1008B0004A756E20323020323031362031353A34AC
:1008C000313A303100204C6173742055706461748A
:1008D00065643A2000312E302E30004D61726C6913
:1008E0006E0020536F667477617265205265736580
:1008F0007400205761746368646F67205265736584
:1009000074002042726F776E206F75742052657389
:100910006574002045787465726E616C2052657351
:10092000657400506F7765725570007374617274EE
:10093000002200656E717565696E672022002200D5
:10094000656E717565696E67202200FFFFFF00000C
:10095000A0400000A0400000004000005243000002
:10096000524300005243000000000000000000005D
:1009700000000000524300005243000052430000B8
:10098000000000000000000000006563686F3A008E
:100990004572726F723A007C3C3E5E2B3D3F2F5B8E
:1009A0005D3B2C2A225C0020746F6F206C6F6E6799
:1009B00020657874727573696F6E207072657665E4
:1009C0006E7465640020636F6C6420657874727562
:1009D00073696F6E2070726576656E74656400650C
:1009E00063686F3A00656E6473746F707320686932
:1009F000743A205A00205A3A00656E6473746F701E
:100A000073206869743A20590020593A00656E6471
:100A100073746F7073206869743A20580020583AD4
:100A200000656E6473746F7073206869743A200097
:100A300024F4D43050C38E20C2A24017828B701190
:100A4000127A910D816CD90AA861E108C75866072E
:100A5000615143061E4B5D05C145A7041A411104AF
:100A6000093D9803713931034036DB026533910249
:100A7000D4305402802E1D02632CEE01752AC5016C
:100A8000B028A001102781018F2564012B244B0180
:100A9000E0223401AC211F018D200D01801FFC00DC
:100AA000841EED00971DDF00B81CD200E61BC600B7
:100AB000201BBC00641AB200B219A8000A19A000D9
:100AC0006A189900D117910040178B00B516840061
:100AD00031167E00B31579003A157300C7146F0004
:100AE00058146A00EE1366008813630025135E0035
:100AF000C7125B006C12570015125400C11151004F
:100B000070114F0021114B00D61049008D10470085
:100B10004610440002104200C00F4000800F3E000B
:100B2000420F3C00060F3B00CB0E3800930E3700FF
:100B30005C0E3500270E3400F30D3200C10D31007C
:100B4000900D3000600D2E00320D2D00050D2C0093
:100B5000D90C2B00AE0C2900850C29005C0C270059
:100B6000350C27000E0C2600E80B2400C40B2400D3
:100B7000A00B23007D0B23005A0B2100390B210011
:100B8000180B2000F80A1F00D90A1E00BB0A1E001D
:100B90009D0A1D00800A1D00630A1C00470A1B00F5
:100BA0002C0A1B00110A1A00F7091A00DD091900A6
:100BB000C4091900AB091900920917007B09180034
:100BC000630917004C0916003609160020091600A3
:100BD0000A091500F5081500E0081400CC081400F7
:100BE000B8081400A4081400900813007D0812002F
:100BF0006B08130058081200460812003408110050
:100C0000230811001208110001081100F00710005C
:100C1000E0071000D0071000C0071000B0070F0059
:100C2000A107100091070E0083070F0074070F0043
:100C300065070E0057070E0049070E003B070D0021
:100C40002E070E0020070D0013070D0006070D00EC
:100C5000F9060C00ED060D00E0060C00D4060C00B1
:100C6000C8060C00BC060C00B0060C00A4060B0065
:100C700099060C008D060B0082060B0077060B0010
:100C80006C060B0061060A0057060B004C060A00B2
:100C900042060A0038060A002E060A0024060A0048
:100CA0001A060A001006090007060A00FD050900D9
:100CB000F4050900EB050900E2050900D905090062
:100CC000D0050900C7050900BE050900B5050800E3
:100CD000AD050800A50509009C050800940508005D
:100CE0008C050800840508007C05080074050800D0
:100CF0006C050700650508005D050700560508003E
:100D00004E050700470507004005080038050700A5
:100D1000310507002A050700230507001C0506000A
:100D2000160507000F050700080506000205070065
:100D3000FB040600F5040700EE040600E8040600C4
:100D4000E2040700DB040600D5040600CF04060019
:100D5000C9040600C3040600BD040600B70406006B
:100D6000B1040500AC040600A6040600A0040500BA
:100D70009B04060095040500900406008A04050003
:100D800085040500800406007A040500750405004A
:100D9000700405006B04050066040500610405008D
:100DA0005C04050057040500520405004D040500CD
:100DB00048040500430405003E0404003A0405000D
:100DC00035040500300404002C0405002704040049
:100DD000230405001E0404001A0404001604050080
:100DE000110404000D0404000904050004040400B7
:100DF00000040400FC030400F8030400F4030400EE
:100E0000F0030400EC030400E8030400E40304001E
:100E1000E0030400DC030400D8030400D40304004E
:100E2000D0030400CC030400C8030300C50303007F
:100E300024F404D9201BC40C5C0E9804C4095F027E
:100E400065077101F405F900FB04B300480487004D
:100E5000C10369005803550003034500BE023A0070
:100E60008402310053022A002902250004022000D6
:100E7000E4011C00C8011900AF011700980114001B
:100E800084011300710110006101100051010E0076
:100E900043010D0036010B002B010B0020010B005C
:100EA000150109000C01090003010800FB000800FE
:100EB000F3000800EB000700E4000600DE00060077
:100EC000D8000600D2000600CC000500C7000500CF
:100ED000C2000500BD000400B9000400B500040014
:100EE000B1000400AD000400A9000400A500030047
:100EF000A20003009F0004009B0003009800030071
:100F00009500020093000300900003008D00020092
:100F10008B000300880002008600020084000300AA
:100F2000810002007F0002007D0002007B000200C1
:100F300079000200770001007600020074000200D0
:100F400072000100710002006F0002006D000100DC
:100F50006C0002006A0001006900020067000100E5
:100F600066000100650001006400020062000100EB
:100F700061000100600001005F0002005D000100EF
:100F80005C0001005B0001005A00010059000100F3
:100F900058000100570001005600010055000100F3
:100FA00054000100530000005300010052000100F2
:100FB00051000100500001004F0001004E000000F0
:100FC0004E0001004D0001004C0001004B000000EC
:100FD0004B0001004A0001004900010048000000E8
:100FE00048000100470001004600000046000100E3
:100FF00045000000450001004400010043000000DE
:1010000043000100420000004200010041000000D6
:1010100041000100400001003F0000003F000100CE
:101020003E0000003E0001003D0000003D000100C8
:101030003C0000003C0000003C0001003B000000C0
:101040003B0001003A0000003A00010039000000B6
:1010500039000100380000003800000038000100AD
:1010600037000000370001003600000036000000A5
:101070003600010035000000350000003500010099
:101080003400000034000000340001003300000090
:101090003300000033000100320000003200000085
:1010A0003200010031000000310000003100010079
:1010B0003000000030000000300001002F00000070
:1010C0002F0000002F0000002F0001002E00000064
:1010D0002E0000002E0001002D0000002D00000059
:1010E0002D0000002D0001002C0000002C0000004D
:1010F0002C0000002C0001002B0000002B00000041
:101100002B0000002B0001002A0000002A00000034
:101110002A0000002A000100290000002900000028
:10112000290000002900000029000100280000001B
:10113000280000002800000028000000280001000E
:101140002700000027000000270000002700000003
:1011500027000100260000002600000026000000F5
:1011600026000000260001002500000025000000E8
:1011700025000000250000002500000025000100DA
:1011800024000000240000002400000024000000CF
:1011900024000100230000002300000023000000C1
:1011A00023000000230000002300000023000100B2
:1011B00022000000220000002200000022000000A7
:1011C0002200000022000100210000002100000098
:1011D000210000002100000021000000210000008B
:1011E000210001002000000020000000200000007D
:1011F000200000002000000020000000200000006F
:10120000200001001F0000001F0000001F00000060
:101210001F0000001F0000001F0000001F00010051
:101220001E0000001E0000001E0000001E00000046
:101230006563686F3A004572723A204D41585445D3
:101240004D50204245440054656D7065726174755F
:1012500072652068656174656420626564207377D7
:10126000697463686564206F66662E204D4158542A
:10127000454D50207472696767657265642021214D
:10128000004572723A204D494E54454D50003A2067
:1012900045787472756465722073776974636865E4
:1012A00064206F66662E204D494E54454D50207483
:1012B00072696767657265642021004572723A2021
:1012C0004D415854454D50003A204578747275642C
:1012D0006572207377697463686564206F66662E33
:1012E000204D415854454D502074726967676572AE
:1012F000656420210048656174696E6720666169D4
:101300006C656400202D20496E76616C69642065EF
:1013100078747275646572206E756D6265722021D5
:1013200000504944204175746F74756E652066697C
:101330006E69736865642120507574207468652037
:101340006C617374204B702C204B6920616E64209B
:101350004B6420636F6E7374616E74732066726F7A
:101360006D2061626F766520696E746F20436F6EC9
:1013700066696775726174696F6E2E6800504944C2
:10138000204175746F74756E65206661696C656463
:10139000212074696D656F75740020403A006F6B91
:1013A00020543A006F6B20423A0050494420417566
:1013B000746F74756E65206661696C656421205474
:1013C000656D706572617475726520746F6F2068E9
:1013D00069676800204B643A2000204B693A20007E
:1013E000204B703A200020436C6173736963205076
:1013F000494420002054753A2000204B753A2000C3
:10140000206D61783A2000206D696E3A20002064DA
:101410003A200020626961733A20006563686F3A80
:10142000004572726F723A0000000000300E010039
:10143000C00E0A00500F1400D00F1E0060102800CC
:10144000E010320070113C00F011460070125000A4
:1014500000135A008013640000146E00901478008A
:101460001015820090158C00101696009016A000A2
:101470001017AA009017B4001018BE009018C800EA
:101480001019D2009019DC00101AE600801AF00042
:10149000001BFA00801B0401F01B0E01701C1801D8
:1014A000F01C2201601D2C01E01D3601501E400180
:1014B000D01E4A01401F5401B01F5E013020680158
:1014C000A020720110217C01902186010022900150
:1014D0006026F401902A5802802EBC02503220036C
:1014E000E03584035039E803803C4C044D38342007
:1014F000582059205A20450043616E6E6F74206554
:101500006E746572207375626469723A20004D32A0
:1015100034004D3233202573006175746F25692EB8
:1015200067006572726F722077726974696E6720E6
:10153000746F2066696C65004E6F74205344207090
:1015400072696E74696E67002F005344207072696F
:101550006E74696E67206279746520002E004465A0
:101560006C6574696F6E206661696C65642C2046D9
:10157000696C653A200046696C652064656C657429
:1015800065643A002E006F70656E206661696C6557
:10159000642C2046696C653A200057726974696E44
:1015A0006720746F2066696C653A20002E006F70AA
:1015B000656E206661696C65642C2046696C653ACD
:1015C00020002E006F70656E206661696C65642C6A
:1015D0002046696C653A200046696C652073656C2D
:1015E0006563746564002053697A653A2000466932
:1015F0006C65206F70656E65643A20002E006F7018
:10160000656E206661696C65642C2046696C653A7C
:1016100020004E6F772066726573682066696C657E
:101620003A20004E6F7720646F696E672066696CA0
:10163000653A20002220706F73002220706172656D
:101640006E743A2200535542524F5554494E45202C
:1016500043414C4C207461726765743A2200747285
:1016600079696E6720746F2063616C6C207375629A
:101670002D67636F64652066696C65732077697494
:101680006820746F6F206D616E79206C6576656C73
:10169000732E204D4158206C6576656C2069733A35
:1016A0000053442063617264206F6B006F70656E3D
:1016B000526F6F74206661696C656400766F6C753B
:1016C0006D652E696E6974206661696C656400538E
:1016D0004420696E6974206661696C006563686F97
:1016E0003A004572726F723A0048617264636F64C7
:1016F00065642044656661756C7420536574746913
:101700006E6773204C6F616465640053746F72651B
:10171000642073657474696E67732072657472698E
:1017200065766564002044002049002020204D3368
:1017300030312050005049442073657474696E67DD
:10174000733A00205A0020590020204D32303620B4
:101750005800486F6D65206F666673657420286D4C
:101760006D293A00204500205A00205800204200F0
:1017700020540020204D32303520530041647661E2
:101780006E636564207661726961626C65733A208C
:10179000533D4D696E2066656564726174652028ED
:1017A0006D6D2F73292C20543D4D696E207472612C
:1017B00076656C20666565647261746520286D6D60
:1017C0002F73292C20423D6D696E696D756D2073F4
:1017D00065676D656E742074696D6520286D732969
:1017E0002C20583D6D6178696D756D205859206ABF
:1017F00065726B20286D6D2F73292C20205A3D6D4A
:101800006178696D756D205A206A65726B20286D4C
:101810006D2F73292C2020453D6D6178696D756DA4
:101820002045206A65726B20286D6D2F732900207A
:10183000540020204D323034205300416363656CE6
:1018400065726174696F6E3A20533D616363656CC4
:1018500065726174696F6E2C20543D72657472619B
:10186000637420616363656C65726174696F6E0097
:10187000204500205A0020590020204D32303120D0
:1018800058004D6178696D756D20416363656C65C5
:10189000726174696F6E20286D6D2F7332293A0062
:1018A000204500205A0020590020204D323033209E
:1018B00058004D6178696D756D206665656472616B
:1018C00074657320286D6D2F73293A002045002020
:1018D0005A0020590020204D393220580053746599
:1018E00070732070657220756E69743A0053657468
:1018F00074696E67732053746F7265640065636802
:101900006F3A0002436172642072656D6F766564A0
:10191000004361726420696E736572746564002DA2
:101920002D3A2D2D002D2D2D0053440001200001B6
:1019300020000120004D363030004368616E67653D
:101940002066696C616D656E7400466C6F7720313E
:1019500000466C6F77203100466C6F772030004670
:101960006C6F7720300046616E207370656564008F
:1019700046616E207370656564004265640042656F
:1019800064004E6F7A7A6C6532004E6F7A7A6C65BD
:1019900032004E6F7A7A6C65004E6F7A7A6C650011
:1019A0005370656564005370656564004D61696ED0
:1019B000004D383420583020593000473238005A12
:1019C000005072656865617420504C412042656426
:1019D000005072656865617420504C4120416C6C08
:1019E000005072656865617420504C41203200508F
:1019F00072656865617420504C41203100507265F9
:101A0000706172650050726568656174204142536F
:101A100020426564005072656865617420414253DC
:101A200020416C6C005072656865617420414253BE
:101A30002032005072656865617420414253203144
:101A4000005072657061726500580059005A004577
:101A50007874727564657200457874727564657225
:101A6000004D6F7665205A004D6F76652059004D08
:101A70006F76652058004D6F766520617869730038
:101A80004D6F766520302E316D6D004D6F7665207F
:101A9000316D6D004D6F76652031306D6D00507287
:101AA0006570617265004D6F7665206178697300BD
:101AB000436F6F6C646F776E005072656865617418
:101AC00020414253005072656865617420504C415A
:101AD000004D6F7665205A004175746F20686F6DF8
:101AE00065004D38340044697361626C652073741D
:101AF000657070657273004D61696E0053746F722A
:101B000065206D656D6F72790042656400426564A1
:101B1000004E6F7A7A6C65004E6F7A7A6C6500467B
:101B2000616E2073706565640046616E2073706538
:101B300065640054656D70657261747572650053FB
:101B4000746F7265206D656D6F7279004265640017
:101B5000426564004E6F7A7A6C65004E6F7A7A6CDB
:101B6000650046616E2073706565640046616E2095
:101B700073706565640054656D706572617475722B
:101B80006500507265686561742041425320636F3F
:101B90006E66005072656865617420504C41206328
:101BA0006F6E66005049442D43005049442D430058
:101BB0005049442D44005049442D44005049442D7F
:101BC00049005049442D49005049442D5000504986
:101BD000442D500046616E20737065656400466157
:101BE0006E20737065656400426564004265640040
:101BF0004E6F7A7A6C6532004E6F7A7A6C6532007D
:101C00004E6F7A7A6C65004E6F7A7A6C6500436F1E
:101C10006E74726F6C004573746570732F6D6D0018
:101C20004573746570732F6D6D005A7374657073AE
:101C30002F6D6D005A73746570732F6D6D0059733D
:101C4000746570732F6D6D005973746570732F6DAB
:101C50006D005873746570732F6D6D0058737465E3
:101C600070732F6D6D00412D726574726163740025
:101C7000412D7265747261637400416D61782065F5
:101C800000416D6178206500416D6178207A0041E6
:101C90006D6178207A00416D6178207900416D6135
:101CA00078207900416D6178207800416D6178205D
:101CB00078005654726176206D696E0056547261D8
:101CC00076206D696E00566D696E00566D696E0006
:101CD000566D6178206500566D6178206500566DFF
:101CE0006178207A00566D6178207A00566D6178AF
:101CF000207900566D6178207900566D61782078E2
:101D000000566D617820780056652D6A65726B000B
:101D100056652D6A65726B00567A2D6A65726B0086
:101D2000567A2D6A65726B005678792D6A65726BEA
:101D3000005678792D6A65726B00416363656C00AB
:101D4000416363656C00436F6E74726F6C004A751B
:101D50006E20323020323031362031353A34313A4B
:101D60003033003131353230305F6475616C00558D
:101D70006C74696D616B65723A2044455600466922
:101D8000726D776172652076657273696F6E004659
:101D900069726D776172652076657273696F6E0026
:101DA000526573746F7265206661696C73616665F4
:101DB000004C6F6164206D656D6F72790053746FB4
:101DC0007265206D656D6F7279004D6F74696F6E0D
:101DD0000054656D7065726174757265004D61695E
:101DE0006E004D383420582059205A2045004D327D
:101DF00034004D323320257300052E2E004D6169CD
:101E00006E004E6F2053442063617264005072690B
:101E10006E742066726F6D2053440053746F70208F
:101E20007072696E7400526573756D6520707269A9
:101E30006E74005061757365207072696E74004332
:101E40006F6E74726F6C00507265706172650054D1
:101E5000756E6500496E666F2073637265656E000E
:101E60004E414E494E495459494E46CDCCCC3D0A7F
:101E7000D7233C17B7D13877CC2B329595E6241F62
:101E8000B14F0A000020410000C84200401C46201B
:101E9000BCBE4CCA1B0E5AAEC59D74006538FEAF61
:101EA000693811241FBECFEFD1E2DEBFCDBF00E005
:101EB0000CBF14E0A0E0B2E0E8EBFFE801E00BBFEC
:101EC00002C007900D92AA3BB107D9F722E1AAEB15
:101ED000B4E001C01D92A23AB207E1F71EE1C0EAE8
:101EE000DEE100E006C022970109FE010BBF0E945F
:101EF00081C1CC39D10780E00807A9F70E9466BCF0
:101F00000C94CAC70C9400001F920F920FB60F9248
:101F100011242F933F938F939F93AF93BF938091FF
:101F2000BB049091BC04A091BD04B091BE0430915B
:101F3000BA0423E0230F2D3720F40196A11DB11D13
:101F400005C026E8230F0296A11DB11D2093BA04F7
:101F50008093BB049093BC04A093BD04B093BE04D3
:101F60008091BF049091C004A091C104B091C204BB
:101F70000196A11DB11D8093BF049093C004A0934E
:101F8000C104B093C204BF91AF919F918F913F91D3
:101F90002F910F900FBE0F901F9018952FB7F894A8
:101FA0006091BB047091BC048091BD049091BE040B
:101FB0002FBF08953FB7F8948091BF049091C0045B
:101FC000A091C104B091C20426B5A89B05C02F3FC3
:101FD00019F00196A11DB11D3FBF6627782F892FEB
:101FE0009A2F620F711D811D911D42E0660F771FB0
:101FF000881F991F4A95D1F70895CF92DF92EF92EB
:10200000FF92CF93DF936B017C010E94DA0FEB010B
:10201000C114D104E104F10479F00E94DA0F6C1BC1
:102020007D0B683E7340A0F381E0C81AD108E10837
:10203000F108C851DC4FECCFDF91CF91FF90EF90CA
:10204000DF90CF9008950197009739F0880F991F7E
:10205000880F991F02970197F1F70895789484B536
:10206000826084BD84B5816084BD85B5826085BD94
:1020700085B5816085BDEEE6F0E08081816080837A
:10208000E1E8F0E01082808182608083808181605D
:102090008083E0E8F0E0808181608083E1EBF0E024
:1020A000808184608083E0EBF0E0808181608083C8
:1020B000E1E9F0E0808182608083808181608083BB
:1020C000E0E9F0E0808181608083E1EAF0E08081F6
:1020D00082608083808181608083E0EAF0E080819B
:1020E00081608083E1E2F1E0808182608083808191
:1020F00081608083E0E2F1E0808181608083EAE7B3
:10210000F0E0808184608083808182608083808130
:10211000816080838081806880831092C1000895EF
:102120001F93CF93DF93182FEB0161E00E949C1166
:10213000209711F460E004C0CF3FD10539F461E08D
:10214000812FDF91CF911F910C94D511E12FF0E0F9
:10215000EE50FD4F449150E0FA013197E131F10525
:1021600008F091C0EE58FF4F0C9461C184B58068AF
:1021700084BDC7BD8DC084B5806284BDC8BD88C024
:1021800080918000806880938000D0938900C09304
:1021900088007EC080918000806280938000D09310
:1021A0008B00C0938A0074C08091B00080688093D7
:1021B000B000C093B3006CC08091B0008062809387
:1021C000B000C093B40064C0809190008068809398
:1021D0009000D0939900C09398005AC080919000CD
:1021E000806280939000D0939B00C0939A0050C06F
:1021F00080919000886080939000D0939D00C09360
:102200009C0046C08091A00080688093A0008091CF
:10221000A0008F7B8093A000D093A900C093A8005A
:1022200037C08091A00080628093A000D093AB0063
:10223000C093AA002DC08091A00088608093A00068
:10224000D093AD00C093AC0023C080912001806882
:1022500080932001D0932901C093280119C0809157
:102260002001806280932001D0932B01C0932A012A
:102270000FC080912001886080932001D0932D01B0
:10228000C0932C0105C0C038D1050CF058CF52CFF7
:10229000DF91CF911F91089590E0FC013197E131DA
:1022A000F10508F048C0ED57FF4F0C9461C18091D3
:1022B00080008F7703C0809180008F7D80938000A5
:1022C000089584B58F7702C084B58F7D84BD08954D
:1022D0008091B0008F7703C08091B0008F7D809394
:1022E000B0000895809190008F7707C08091900092
:1022F0008F7D03C080919000877F80939000089528
:102300008091A0008F7707C08091A0008F7D03C0CF
:102310008091A000877F8093A00008958091200184
:102320008F7707C0809120018F7D03C080912001AD
:10233000877F809320010895CF93DF9390E0FC0185
:10234000E85CFC4F2491FC01E258FC4F8491882307
:1023500049F190E0880F991FFC01E252FC4FA591D2
:10236000B4918C539C4FFC01C591D4919FB76111DE
:1023700008C0F8948C91209582238C9388818223C5
:102380000AC0623051F4F8948C91322F3095832337
:102390008C938881822B888304C0F8948C91822B43
:1023A0008C939FBFDF91CF9108950F931F93CF938D
:1023B000DF931F92CDB7DEB7282F30E0F901EE5042
:1023C000FD4F8491F901E85CFC4F1491F901E2584A
:1023D000FC4F04910023C9F0882321F069830E94F7
:1023E0004C116981E02FF0E0EE0FFF1FEC53FC4F22
:1023F000A591B4919FB7F8948C91611103C0109589
:10240000812301C0812B8C939FBF0F90DF91CF91CF
:102410001F910F9108951F920F920FB60F921124E2
:102420000BB60F922F933F934F935F936F937F93CE
:102430008F939F93AF93BF93EF93FF938091C704C4
:102440009091C804892B29F0E091C704F091C80449
:102450001995FF91EF91BF91AF919F918F917F91CE
:102460006F915F914F913F912F910F900BBE0F9005
:102470000FBE0F901F9018951F920F920FB60F92DC
:1024800011240BB60F922F933F934F935F936F934B
:102490007F938F939F93AF93BF93EF93FF9380911D
:1024A000C9049091CA04892B29F0E091C904F091E4
:1024B000CA041995FF91EF91BF91AF919F918F91B0
:1024C0007F916F915F914F913F912F910F900BBE34
:1024D0000F900FBE0F901F9018951F920F920FB67E
:1024E0000F9211240BB60F922F933F934F935F934C
:1024F0006F937F938F939F93AF93BF93EF93FF93CC
:102500008091CB049091CC04892B29F0E091CB04ED
:10251000F091CC041995FF91EF91BF91AF919F91EC
:102520008F917F916F915F914F913F912F910F907C
:102530000BBE0F900FBE0F901F9018951F920F9219
:102540000FB60F9211240BB60F922F933F934F9318
:102550005F936F937F938F939F93AF93BF93EF930B
:10256000FF938091CD049091CE04892B29F0E091C6
:10257000CD04F091CE041995FF91EF91BF91AF91E9
:102580009F918F917F916F915F914F913F912F918B
:102590000F900BBE0F900FBE0F901F9018951F92BB
:1025A0000F920FB60F9211240BB60F922F933F93F9
:1025B0004F935F936F937F938F939F93AF93BF934B
:1025C000EF93FF938091C3049091C404892B29F069
:1025D000E091C304F091C4041995FF91EF91BF916C
:1025E000AF919F918F917F916F915F914F913F91AB
:1025F0002F910F900BBE0F900FBE0F901F9018954C
:102600001F920F920FB60F9211240BB60F922F93B9
:102610003F934F935F936F937F938F939F93AF936A
:10262000BF93EF93FF938091C5049091C604892BCB
:1026300029F0E091C504F091C6041995FF91EF913E
:10264000BF91AF919F918F917F916F915F914F91CA
:102650003F912F910F900BBE0F900FBE0F901F90C8
:1026600018951F920F920FB60F9211240BB60F926E
:102670002F933F934F935F936F937F938F939F938A
:10268000AF93BF93EF93FF938091CF049091D004C9
:10269000892B29F0E091CF04F091D0041995FF9196
:1026A000EF91BF91AF919F918F917F916F915F91CA
:1026B0004F913F912F910F900BBE0F900FBE0F9037
:1026C0001F9018951F920F920FB60F9211240BB600
:1026D0000F922F933F934F935F936F937F938F93BB
:1026E0009F93AF93BF93EF93FF938091D104909109
:1026F000D204892B29F0E091D104F091D2041995EC
:10270000FF91EF91BF91AF919F918F917F916F91C9
:102710005F914F913F912F910F900BBE0F900FBE85
:102720000F901F901895CF92DF92EF92FF920F9328
:102730001F93CF93DF936C017A01EB01E60EF71E36
:1027400000E010E0CE15DF0561F06991D601ED9152
:10275000FC910190F081E02DC6011995080F191F19
:10276000F1CFC801DF91CF911F910F91FF90EF90B2
:10277000DF90CF9008956115710581F0DB010D9018
:102780000020E9F7AD0141505109461B570BDC0110
:10279000ED91FC910280F381E02D199480E090E0AE
:1027A00008950C94BB13DC01ED91FC910190F08134
:1027B000E02D1994FC01659175918591949108958E
:1027C000EF92FF920F931F93CF93DF93EC01CC0F07
:1027D000DD1FCC0FDD1FCE018A59964F0E94DA1300
:1027E0009E012652394F79018E010253194FF8018B
:1027F00020813181428153810E9474BCF701608342
:10280000718382839383CE018258964F0E94DA139C
:102810009E012E53394F7901F80120813181428187
:1028200053810E9474BCF701608371838283938318
:10283000CE018E58964F0E94DA13CB5EDD4FF80121
:1028400020813181428153810E9474BC68837983E5
:102850008A839B83DF91CF911F910F91FF90EF901F
:1028600008952F923F924F925F926F927F928F9234
:102870009F92AF92BF92CF92DF92EF92FF920F930F
:102880001F93CF93DF9300D01F92CDB7DEB74C01DB
:10289000FC01E55BF64FB490880F991F880F991FD4
:1028A0009C838B838652994F1C01FC0110821182FC
:1028B0001282138226EE36E042EE56E06EED76E0AE
:1028C0008AED96E00E94615B8B819C81865A964FCF
:1028D0000E94DA136B017C016B2D772767FD7095E1
:1028E000872F972F0E94EFBD2B013C018B819C818C
:1028F0008856994F5C0120E030E040EC5FE3C7016F
:10290000B6010E9422C0A30192010E9422C0F501DB
:1029100060837183828393838B819C818F5C9D4FC5
:102920009A838983FC0160817181828193816093A4
:102930000F0270931002809311029093120220E014
:1029400030E040E752E40E9454BD3AEAC32E36E03C
:10295000D32E7B018C0124EA36E040EA56E06CE994
:1029600076E088E996E00E94B7510E94CC63F101BD
:10297000108211821282138226EE36E042EE56E079
:102980006EED76E08AED96E00E94615B8B819C8122
:10299000825B964F9C838B830E94DA139058A3012D
:1029A00092010E9422C0F501608371838283938328
:1029B00020E030E040E752E460910F027091100295
:1029C00080911102909112020E9454BD7B018C01F2
:1029D00024EA36E040EA56E06CE976E088E996E0E1
:1029E0000E94B7510E94CC638B819C810E94DA13B4
:1029F0009B01AC010E9474BCA30192010E9422C001
:102A0000F501608371838283938320E030E040E0AE
:102A10005FE3E981FA8160817181828193810E9403
:102A200022C060930F027093100280931102909362
:102A3000120220E030E040E752E40E9454BD7B01E6
:102A40008C0124EA36E040EA56E06CE976E088E959
:102A500096E00E94B7510E94CC63C4010E94E0132B
:102A6000F10180819181A281B381F50180839183FD
:102A7000A283B38310920F021092100210921102DF
:102A8000109212020E94165DF401E154F94F81E0A8
:102A900080830F900F900F900F90DF91CF911F9137
:102AA0000F91FF90EF90DF90CF90BF90AF909F90ED
:102AB0008F907F906F905F904F903F902F900895F0
:102AC000FC012491222341F03091C00035FFFCCF5E
:102AD0002093C6000196F4CF22E030E08DE799E024
:102AE0000C949E3AFC012491222341F03091C000C5
:102AF00035FFFCCF2093C6000196F4CF2AE030E0EA
:102B00008DE799E00C94ED39CF93DF931F921F92DC
:102B1000CDB7DEB780919C1290919D129E012F5FE0
:102B20003F4F009719F4225A324102C0281B390B3B
:102B30003A83298389819A810F900F90DF91CF91F9
:102B400008952091ED043091EE04243031050CF00D
:102B50006AC04091EF045091F00460E6649F9001D8
:102B6000659F300D1124BC01C90189509B4F0E9403
:102B7000BDC4EAE8F9E08491882341F09091C00057
:102B800095FFFCCF8093C6003196F5CFE0E4F9E0E5
:102B90008491882341F09091C00095FFFCCF8093F1
:102BA000C6003196F5CF8091EF049091F00420E6B5
:102BB000289FF001299FF00D1124E950FB4F8191CE
:102BC000882339F09091C00095FFFCCF8093C60018
:102BD000F6CFEEE3F9E08491882341F09091C000B4
:102BE00095FFFCCF8093C6003196F5CF8091C00051
:102BF00085FFFCCF8AE08093C6008091EF0490911E
:102C0000F004019664E070E00E940CC19093F0041F
:102C10008093EF048091ED049091EE0401969093DF
:102C2000EE048093ED0408952091ED043091EE04BC
:102C3000243031050CF06AC04091EF045091F0044B
:102C400060E6649F9001659F300D1124BC01C901AD
:102C500089509B4F0E9449C4EAE8F9E08491882397
:102C600041F09091C00095FFFCCF8093C600319653
:102C7000F5CFE3E3F9E08491882341F09091C0001F
:102C800095FFFCCF8093C6003196F5CF8091EF047D
:102C90009091F00420E6289FF001299FF00D112467
:102CA000E950FB4F8191882339F09091C00095FF46
:102CB000FCCF8093C600F6CFE1E3F9E0849188234E
:102CC00041F09091C00095FFFCCF8093C6003196F3
:102CD000F5CF8091C00085FFFCCF8AE08093C600CD
:102CE0008091EF049091F004019664E070E00E94FE
:102CF0000CC19093F0048093EF048091ED049091C7
:102D0000EE0401969093EE048093ED04089540E064
:102D100052EC61E070E08DE799E00E94A638EBE2AA
:102D2000F9E08491882341F09091C00095FFFCCF99
:102D30008093C6003196F5CF8091C00085FFFCCF0F
:102D40008AE08093C6008AE899E0FC01249122235E
:102D500041F03091C00035FFFCCF2093C600319682
:102D6000F5CF24B720FF14C0E3E2F9E03491332318
:102D700041F04091C00045FFFCCF3093C600319632
:102D8000F5CF3091C00035FFFCCF3AE03093C6005C
:102D900021FF14C0E3E1F9E03491332341F0409185
:102DA000C00045FFFCCF3093C6003196F5CF30917F
:102DB000C00035FFFCCF3AE03093C60022FF14C0BC
:102DC000E2E0F9E03491332341F04091C00045FF47
:102DD000FCCF3093C6003196F5CF3091C00035FF5F
:102DE000FCCF3AE03093C60023FF14C0E2EFF8E0D6
:102DF0003491332341F04091C00045FFFCCF309324
:102E0000C6003196F5CF3091C00035FFFCCF3AE0D7
:102E10003093C60025FF14C0E2EEF8E0249122238F
:102E200041F03091C00035FFFCCF2093C6003196B1
:102E3000F5CF2091C00025FFFCCF2AE02093C600EB
:102E400014BEEBEDF8E02491222341F03091C00054
:102E500035FFFCCF2093C6003196F5CFE5EDF8E0C5
:102E60002491222341F03091C00035FFFCCF209304
:102E7000C6003196F5CF2091C00025FFFCCF2AE097
:102E80002093C600FC012491EAE8F9E0222349F0EE
:102E90003091C00035FFFCCF2093C60031962491BD
:102EA000F5CFE5ECF8E02491222341F03091C00009
:102EB00035FFFCCF2093C6003196F5CFE0EBF8E06C
:102EC0002491222341F03091C00035FFFCCF2093A4
:102ED000C6003196F5CFE4EAF8E02491222341F0D0
:102EE0003091C00035FFFCCF2093C6003196F5CF5E
:102EF000E6E9F8E02491222341F03091C00035FF4B
:102F0000FCCF2093C6003196F5CF2091C00025FF5D
:102F1000FCCF2AE02093C600EBE8F8E024912223BE
:102F200041F03091C00035FFFCCF2093C6003196B0
:102F3000F5CFEFE7F8E02491222341F03091C00073
:102F400035FFFCCF2093C6003196F5CF2091C0000D
:102F500025FFFCCF2AE02093C600FC018491EAE81B
:102F6000F9E0882349F09091C00095FFFCCF809351
:102F7000C60031968491F5CFE0E7F8E0849188238C
:102F800041F09091C00095FFFCCF8093C600319630
:102F9000F5CF0E9484154AE050E0BC018DE799E02E
:102FA0000E94BE39E9E5F8E08491882341F09091D0
:102FB000C00095FFFCCF8093C6003196F5CF4AE064
:102FC00050E060ED74E08DE799E00E94BE39809199
:102FD000C00085FFFCCF8AE08093C6001092F30406
:102FE0001092F4041092F5041092F6040E944C839F
:102FF0000E941D6A0E9467510E944B840E94CF6408
:103000000E947D9AFFEF23ED80E3F1502040804045
:10301000E1F700C0000008958091E7049091E80472
:1030200060E070E001960C9494C18091E704909167
:10303000E8044AE050E060E070E001960C9405C3BB
:10304000682F70E02091F1043091F20440E6429F35
:10305000C001439F900D112489509B4F0E94B2C420
:103060009093E8048093E70421E0892B09F420E0A1
:10307000822F08950E94CE0F6093E3047093E404BE
:103080008093E5049093E60408950E94CE0F609328
:10309000E3047093E4048093E5049093E604E091E4
:1030A000F104F091F204ED50FB4F8081811114C0C6
:1030B000E0EAF4E08491882341F09091C00095FF0C
:1030C000FCCF8093C6003196F5CF8091C00085FF7C
:1030D000FCCF8AE08093C60008958DE799E00E94B6
:1030E000F838E3EAF4E08491882341F09091C0003D
:1030F00095FFFCCF8093C6003196F5CF40917C06BA
:1031000050917D0660917E0670917F064F5F5F4F04
:103110006F4F7F4F2AE030E08DE799E00E949739AA
:103120008091C00085FFFCCF8AE08093C6000C949C
:1031300045182F923F924F925F926F927F928F929B
:103140009F92AF92BF92CF92DF92EF92FF920F9336
:103150001F93CF93DF93CDB7DEB76E970FB6F8947A
:10316000DEBF0FBECDBF70E6972E04E010E0ECE1AD
:10317000EE2EE7E0FE2EFAE08F2EA2E9CA2EA7E09F
:10318000DA2E772473948091FE099091FF092091A3
:10319000000A3091010A821B930B8F779927892BA4
:1031A00039F08091ED049091EE0404970CF448C03E
:1031B0008091F206882309F484C38091EA049091F7
:1031C000EB04892B09F07DC38091ED049091EE040E
:1031D000892B11F41092D30458EE252E53E0352E8E
:1031E000412C512C6CE3C62ED12CE12CF12C8E01FC
:1031F0000F5F1F4F40E6642E77247394409173094C
:1032000050917409609175097091760980916B09EC
:1032100090916C09A0916D09B0916E0948175907FA
:103220006A077B0708F04DC38091ED049091EE048E
:1032300004970CF046C38091D304811142C322C28B
:103240008DE799E00E94DC388093EC042091EA0439
:103250003091EB048A3061F08D3051F08A3321F4E3
:103260009091E904992321F02F3531050CF48FC199
:103270002115310509F4A9C18091EF049091F00462
:10328000989E5001999EB00C1124F501E20FF31F96
:10329000E950FB4F10822091E904211173C1109273
:1032A000E904FC01ED50FB4F1082950129503B4F82
:1032B00019016EE470E0C9010E94B2C4009709F4DC
:1032C000A1C09093E8048093E704821993098A0DC2
:1032D0009B1D4AE050E060E070E088509B4F0E94E8
:1032E00005C3609380067093810680938206909355
:1032F000830620917C0630917D0640917E06509198
:103300007F062F5F3F4F4F4F5F4FA090EF04B0906D
:10331000F004621773078407950709F459C19A9C52
:10332000C0019B9C900D11246BE378E089509B4F6A
:103330000E9477C4892B09F04BC1E0E9F9E0849140
:10334000882341F09091C00095FFFCCF8093C60088
:103350003196F5CFE8E0F8E08491882341F0909130
:10336000C00095FFFCCF8093C6003196F5CF409109
:103370007C0650917D0660917E0670917F062AE062
:1033800030E08DE799E00E9497398091C00085FF79
:10339000FCCF32C09093E8048093E7048A199B091C
:1033A000820D931D60E070E088509B4F0E9494C195
:1033B0000E94BCBD262D30E02617370709F45EC0F9
:1033C000E0E9F9E0849181114DC1E9EEF7E08491E3
:1033D000811150C140917C0650917D0660917E061E
:1033E00070917F062AE030E08DE799E00E949739DE
:1033F0008091C00085FFFCCF8AE08093C6000E94C8
:103400006D1837C06AE270E0C1010E94B2C4892B16
:1034100009F444C0E0E9F9E08491882341F09091F7
:10342000C00095FFFCCF8093C6003196F5CFE5E94B
:10343000F7E08491882341F09091C00095FFFCCF84
:103440008093C6003196F5CF40917C0650917D0661
:1034500060917E0670917F062AE030E08DE799E06A
:103460000E9497398091C00085FFFCCF8AE080934D
:10347000C6001092EB041092EA0423C280918006E9
:1034800090918106A0918206B091830680937C067C
:1034900090937D06A0937E06B0937F068091EF0403
:1034A0009091F004989E5001999EB00C1124C50192
:1034B00089509B4F1C0167E470E00E94B2C40097E2
:1034C00009F44BC09093E8048093E70482199309B0
:1034D0008A0D9B1D60E070E088509B4F0E9494C154
:1034E0000E94BCBD6430710508F037C08091D504DE
:1034F00081111AC08091F00681112FC0F6018491CC
:10350000E2E9F7E0882349F09091C00095FFFCCFF5
:103510008093C60031968491F5CF8091C00085FFDD
:10352000FCCF8092C60019C0F7018491ECE1F7E06E
:10353000882349F09091C00095FFFCCF8093C6008E
:1035400031968491F5CF8091C00085FFFCCF8092A9
:10355000C60082E197E00E940C9A8091EF0490915E
:10356000F0040196B8010E940CC19093F00480937E
:10357000EF048091ED049091EE0401969093EE0497
:103580008093ED041092EB041092EA04FCCD8B338F
:1035900011F47092E9049091E9049111F4CD4091F5
:1035A000EF045091F004B9016F5F7F4F7093EB040B
:1035B0006093EA04949EF001959EF00D1124E20FB1
:1035C000F31FE950FB4F8083DECD1092E90479C1EF
:1035D0009A9C10019B9C300C1124C10189509B4F77
:1035E0005C016AE270E00E94B2C4009769F5E0E90C
:1035F000F9E08491882341F09091C00095FFFCCFC1
:103600008093C6003196F5CFEFEBF7E084918823E5
:1036100041F09091C00095FFFCCF8093C600319699
:10362000F5CF40917C0650917D0660917E067091A9
:103630007F062AE030E08DE799E00E94973980917B
:10364000C00085FFFCCFD8CE20E0612CF101E20F55
:10365000F11DE950FB4F30813A3209F49BCE2F5FC8
:103660006326F4CF9091C00095FFFCCF8093C600F5
:103670003196A8CE9091C00095FFFCCF8093C600F4
:103680003196A5CE8091C6089091C708A091C80830
:10369000B091C9088093730990937409A093750938
:1036A000B09376098EEB98E00E948E3F482F80936E
:1036B000EC048A30B9F04D30A9F0433229F420915E
:1036C000E904222379F002C04A33C9F32091EA04C5
:1036D0003091EB042F3531052CF48F3FFFEF9F071E
:1036E00009F0D1C040917309509174096091750936
:1036F0007091760980916B0990916C09A0916D0988
:10370000B0916E09481759076A077B0708F481C012
:10371000EFEFF6E08491882341F09091C00095FF8F
:10372000FCCF8093C6003196F5CF8091C00085FF15
:10373000FCCFFAE0F093C6000E94CE0F6093D7044E
:103740007093D8048093D9049093DA048090DB04BA
:103750009090DC04A090DD04B090DE046819790933
:103760008A099B09A20191010E9420C149015A01C5
:10377000CA01B901A70196010E9420C1CA01B9017D
:10378000A70196010E9420C17F936F93C501B401E8
:1037900020E13EE040E050E00E9420C13F932F93A3
:1037A000ABEEB6E0BF93AF931F930F930E94E1C4BB
:1037B000EAE8F9E084910FB6F894DEBF0FBECDBF02
:1037C000882349F09091C00095FFFCCF8093C600FC
:1037D00031968491F5CFF8018191882339F0909149
:1037E000C00095FFFCCF8093C600F6CF8091C0004B
:1037F00085FFFCCF3AE03093C600C8010E94FD99D6
:1038000080EF96E00E946A7D61E080EF96E00E9482
:10381000D17A8091EC04833211F47092D304209118
:10382000EA043091EB042115310509F4CECE8091E4
:10383000EF049091F004689EF001699EF00D112450
:10384000E20FF31FE950FB4F1082FC01ED50FB4FDC
:1038500070822091ED043091EE042F5F3F4F309342
:10386000EE042093ED04019664E070E00E940CC128
:103870009093F0048093EF041092E9041092EB040B
:103880001092EA04BBCC4B3311F47092E9044091DE
:10389000E9044111AFCC4091EF045091F004B9011B
:1038A0006F5F7F4F7093EB046093EA04649EF001B6
:1038B000659EF00D1124E20FF31FE950FB4F80834A
:1038C0009DCC6E960FB6F894DEBF0FBECDBFDF91D4
:1038D000CF911F910F91FF90EF90DF90CF90BF900D
:1038E000AF909F908F907F906F905F904F903F90A0
:1038F0002F9008958F929F92AF92BF92CF92DF92B6
:10390000EF92FF920F931F93CF93DF93BBE2EB2EC7
:10391000B4E0FB2E0AED16E0C8E9D6E08CEEC82E26
:1039200086E0D82EF70181917F010E94201888231C
:1039300019F10E940C184B015C01F6018081811184
:1039400003C06091770601C061E070E080E090E024
:103950000E94EFBDF80120813181428153810E9494
:1039600022C09B01AC01C501B4010E9474BC6883F4
:1039700079838A839B8309C0F80180819181A28128
:10398000B38188839983AA83BB830C5F1F4F2496DE
:10399000FFEFCF1ADF0A8FE2E81684E0F80611F68F
:1039A00086E40E9420188823D9F00E940C186B012D
:1039B0007C01609388067093890680938A069093B1
:1039C0008B0620E030E0A9010E9450BF181644F495
:1039D000C0920F02D0921002E0921102F0921202F5
:1039E000DF91CF911F910F91FF90EF90DF90CF90DB
:1039F000BF90AF909F908F9008950E947A1C89E4A9
:103A00000E942018882359F00E940C1860938C069D
:103A100070938D0680938E0690938F0608C0109247
:103A20008C0610928D0610928E0610928F068AE4F4
:103A30000E942018882359F00E940C186093900669
:103A40007093910680939206909393060895109236
:103A50009006109291061092920610929306089585
:103A6000CF92DF92EF92FF92CF93DF93EC01C09061
:103A7000C206D090C306E090C406F090C506A70128
:103A80009601688179818A819B810E944DBD87FF63
:103A900004C0C882D982EA82FB82C090C606D09058
:103AA000C706E090C806F090C906A70196016C8190
:103AB0007D818E819F810E944DBD87FF04C0CC8295
:103AC000DD82EE82FF82C090CA06D090CB06E090E5
:103AD000CC06F090CD06A7019601688579858A8588
:103AE0009B850E944DBD87FF04C0C886D986EA86A3
:103AF000FB86C0901502D0901602E0901702F0905D
:103B00001802A7019601688179818A819B810E94B0
:103B100050BF181624F4C882D982EA82FB82C09072
:103B20001902D0901A02E0901B02F0901C02A7012B
:103B300096016C817D818E819F810E9450BF1816F5
:103B400024F4CC82DD82EE82FF82C0901D02D090F0
:103B50001E02E0901F02F0902002A70196016885E6
:103B600079858A859B850E9450BF181624F4C886E3
:103B7000D986EA86FB86DF91CF91FF90EF90DF90A8
:103B8000CF900895CF92DF92EF92FF920F931F9301
:103B900088E996E00E94301D0E94CE0F6093E304F6
:103BA0007093E4048093E5049093E60420919806D2
:103BB0003091990640919A0650919B066091DA06E1
:103BC0007091DB068091DC069091DD060E944DBD70
:103BD000811179C020919C0630919D0640919E06EE
:103BE00050919F066091DE067091DF068091E0069D
:103BF0009091E1060E944DBD811165C020E030E04A
:103C000040E752E460910F0270911002809111021E
:103C1000909112020E9454BD2AEAC22E26E0D22EB2
:103C20007B018C0124EA36E040EA56E06CE976E05C
:103C300088E996E00E94B751809198069091990684
:103C4000A0919A06B0919B068093DA069093DB06CA
:103C5000A093DC06B093DD0680919C0690919D06B2
:103C6000A0919E06B0919F068093DE069093DF069A
:103C7000A093E006B093E1068091A0069091A10682
:103C8000A091A206B091A3068093E2069093E3066A
:103C9000A093E406B093E5068091A4069091A50652
:103CA000A091A606B091A7068093E6069093E7063A
:103CB000A093E806B093E9061F910F91FF90EF9053
:103CC000DF90CF90089560912F0270913002882785
:103CD00077FD8095982F0E94EFBD20910F023091C3
:103CE000100240911102509112020E9422C020E065
:103CF00030E040E752E40E9454BD20E030E048EC60
:103D000052E488CFAF92BF92CF92DF92EF92FF92B0
:103D10000F931F93CF93DF93D82F2091900630916C
:103D20009106409192065091930660918C06709195
:103D30008D0680918E0690918F060E945DBFC62FE2
:103D4000172F082FF92E60912F02709130028827CB
:103D500077FD8095982F0E94EFBD20910F02309142
:103D6000100240911102509112020E9422C020E0E4
:103D700030E040E752E40E9454BD20E030E048ECDF
:103D800052E40E9454BD2091AA062F93DF93FF9224
:103D90000F931F93CF935B016C0132E0E32E01E0A0
:103DA00020E04CE856E068E976E08AED96E00E9473
:103DB000964A8091980690919906A0919A06B091A2
:103DC0009B068093DA069093DB06A093DC06B09303
:103DD000DD0680919C0690919D06A0919E06B09173
:103DE0009F068093DE069093DF06A093E006B093D3
:103DF000E1068091A0069091A106A091A206B09143
:103E0000A3068093E2069093E306A093E406B093A2
:103E1000E5068091A4069091A506A091A606B09112
:103E2000A7068093E6069093E706A093E806B09372
:103E3000E9060E94CE0F6093E3047093E40480933C
:103E4000E5049093E6040F900F900F900F900F9061
:103E50000F90DF91CF911F910F91FF90EF90DF9026
:103E6000CF90BF90AF900895F8940E94866B159AFA
:103E70001092BF06469A1092C006439A1092C1064D
:103E8000409A9FB7F89480910B01826080930B0158
:103E90009FBFE0E9F9E08491882341F09091C00050
:103EA00095FFFCCF8093C6003196F5CFE1E8F4E0B2
:103EB0008491882341F09091C00095FFFCCF8093BE
:103EC000C6003196F5CF8091C00085FFFCCF8AE017
:103ED0008093C60088E794E00E941B9AFFCFCF92A0
:103EE000DF92EF92FF920F931F930E94CE0F0091EB
:103EF000DF041091E0042091E1043091E204C090CD
:103F0000E304D090E404E090E504F090E6046C193A
:103F10007D098E099F09061717072807390730F40E
:103F2000012B022B032B11F00E94341F80910B02F6
:103F300090910C02A0910D02B0910E02892B8A2B58
:103F40008B2B09F10E94CE0F0091E3041091E40441
:103F50002091E5043091E604601B710B820B930BFA
:103F600000910B0210910C0220910D0230910E0273
:103F7000061717072807390730F49091100C809125
:103F80000F0C981741F01F910F91FF90EF90DF9069
:103F9000CF900C949B51159A1092BF06469A10929E
:103FA000C006439A1092C106409A9FB7F894809138
:103FB0000B01826080930B019FBFE5CF0E94866B4F
:103FC0008091D504811138C081E08093D50480911F
:103FD0007C0690917D06A0917E06B0917F0680932D
:103FE000780690937906A0937A06B0937B06E0E971
:103FF000F9E08491882341F09091C00095FFFCCFB7
:104000008093C6003196F5CFE2E0F4E084918823F6
:1040100041F09091C00095FFFCCF8093C60031968F
:10402000F5CF8091C00085FFFCCF8AE08093C60069
:1040300088EF93E00C940C9A08958091D50408952C
:1040400067707727E82FF0E0EE50FD4F849190E005
:10405000FC013697EC30F10578F5EC56FF4F0C94E7
:1040600061C18091B100887F8093B1008091B100DF
:10407000862B8093B100089580919100887F809372
:10408000910080919100862B8093910008958091FA
:10409000A100887F8093A1008091A100862B80934E
:1040A000A100089580912101887F80932101809152
:1040B0002101862B809321010895CF93DF93EC019A
:1040C0008091AA068093D60484E50E94201881116D
:1040D00002C080E075C00E940C180E94C1BD6093B0
:1040E000D6046230B0F3EAE8F9E08491882341F025
:1040F0009091C00095FFFCCF8093C6003196F5CF1C
:10410000CD36D105B9F054F4C836D105B1F0C93671
:10411000D10509F045C0E2E4F3E021C0CA3DD10574
:1041200031F0CD3DD105E1F5EDEFF2E036C0E4E14F
:10413000F3E029C0EBE2F3E01CC0E9E5F3E0819194
:10414000882371F19091C00095FFFCCF8093C60049
:10415000F6CF9091C00095FFFCCF8093C60081916F
:104160008111F7CF1DC09091C00095FFFCCF8093C7
:10417000C60081918111F7CF13C09091C00095FFC7
:10418000FCCF8093C60081918111F7CF09C0909137
:10419000C00095FFFCCF8093C60081918111F7CFBD
:1041A00040E050E06091D6048DE799E00E94F93933
:1041B0008091C00085FFFCCF8AE08093C60081E03B
:1041C000DF91CF9108953F924F925F926F927F92CD
:1041D0008F929F92AF92BF92CF92DF92EF92FF9217
:1041E0000F931F93CF93DF93CDB7DEB7E4970FB64E
:1041F000F894DEBF0FBECDBF87E40E94201888234D
:1042000009F499C30E940C180E94BCBD643071056A
:10421000D9F144F46230710521F15CF577FF17C0E4
:104220000C94C2356A35710509F431C334F46C312C
:10423000710509F471C00C94C2356B35710509F430
:104240002AC36C35710509F42BC30C94C2358091D7
:10425000D504811106C00E947A1C0E94C21D0C94D4
:104260006E378091D504811104C00E94FD1C81E04D
:1042700007C08091D504811107C00E94FD1C80E019
:104280000E94821E0C946E3782EE96E00E940C9A79
:1042900080E50E942018882339F00E940C180E94A3
:1042A000C1BD4B015C0103C0812C912C540183E5FD
:1042B0000E942018882361F00E940C1820E030E052
:1042C0004AE754E40E9422C00E94C1BD4B015C0138
:1042D0000E94CC630E94CE0F6B017C01C80CD91CDC
:1042E000EA1CFB1C0E94CE0F6093E3047093E4046D
:1042F0008093E5049093E6040E94CE0F6C157D0533
:104300008E059F0510F00C94C2350E947D670E94B7
:104310006F1F0E94A09AF0CF80910F02909110021F
:10432000A0911102B09112028093840690938506A9
:10433000A0938606B093870680912F029091300259
:104340009093EB068093EA0684E690E09093300227
:1043500080932F020E94CE0F6093E3047093E404D5
:104360008093E5049093E60481E00E941D5D8091B6
:10437000DA069091DB06A091DC06B091DD06809311
:10438000980690939906A0939A06B0939B06809105
:10439000DE069091DF06A091E006B091E1068093E1
:1043A0009C0690939D06A0939E06B0939F068091D5
:1043B000E2069091E306A091E406B091E5068093B1
:1043C000A0069093A106A093A206B093A3068091A5
:1043D000E6069091E706A091E806B091E906809381
:1043E000A4069093A506A093A606B093A7061092E4
:1043F0000F0210921002109211021092120288E520
:104400000E942018882311F090E00AC089E50E94DC
:1044100020188111F9CF8AE50E94201891E0982791
:104420009093130291110CC088E50E9420188823F4
:1044300009F47CC189E50E942018882309F476C11B
:104440001092DA061092DB061092DC061092DD065E
:104450001092DE061092DF061092E0061092E1063E
:10446000EBE4F9E0149126EE36E042EE56E06EED14
:1044700076E08AED96E00E94615B8AE599E00E9411
:10448000DA1320E030E040EC5FE30E9422C06B01D1
:104490007C01612F772767FD7095872F972F0E94EA
:1044A000EFBD9B01AC01C701B6010E9422C0609321
:1044B00098067093990680939A0690939B068EE5D2
:1044C00099E00E94DA13ECE4F9E0149120E030E086
:1044D00040EC5FE30E9422C06B017C01612F7727D3
:1044E00067FD7095872F972F0E94EFBD9B01AC0150
:1044F000C701B6010E9422C060939C0670939D067E
:1045000080939E0690939F06209131023091320253
:10451000409133025091340220930F0230931002E5
:104520004093110250931202C0903502D09036028F
:10453000E0903702F0903802C701B6010E944DBDED
:1045400087FF08C0C0920F02D0921002E0921102C1
:10455000F09212028AE599E00E94DA136B017C0165
:104560008EE599E00E94DA139B01AC01C701B60108
:104570000E9450BF181614F00C94C5358EE599E0D2
:104580000E94DA136B017C018AE599E00E94DA133C
:104590009B01AC01C701B6010E9454BD9B01AC0157
:1045A0000E9422C020E030E040E85FE30E9474BC3B
:1045B0000E948FC09B01AC0160910F0270911002AC
:1045C00080911102909112020E9422C060930F020A
:1045D00070931002809311029093120220E030E059
:1045E00040E752E460910F02709110028091110235
:1045F000909112020E9454BD2AEAC22E26E0D22EC9
:104600007B018C0124EA36E040EA56E06CE976E072
:1046100088E996E00E94B7510E94CC6380E090E068
:104620000E94E01381E090E00E94E01326EE36E065
:1046300042EE56E06EED76E08AED96E00E94615B18
:104640008091DA069091DB06A091DC06B091DD0640
:104650008093980690939906A0939A06B0939B0630
:104660008091DE069091DF06A091E006B091E10610
:1046700080939C0690939D06A0939E06B0939F0600
:1046800020E030E040E752E460910F0270911002A8
:1046900080911102909112020E9454BD7B018C0105
:1046A00024EA36E040EA56E06CE976E088E996E0F4
:1046B0000E94B75110920F02109210021092110234
:1046C000109212020E94CC630E94165D809198069F
:1046D00090919906A0919A06B0919B068093DA0674
:1046E0009093DB06A093DC06B093DD0680919C06D8
:1046F00090919D06A0919E06B0919F068093DE0644
:104700009093DF06A093E006B093E1068091A006A7
:104710009091A106A091A206B091A3068093E20613
:104720009093E306A093E406B093E506809113020C
:1047300081110C94CF3588E50E94201881110C94CA
:10474000CF358091130281110C94D53589E50E94F3
:10475000201881110C94D53588E50E9420188823F3
:10476000D1F00E941518672B682B692BA1F00E94CD
:104770000C182091CE063091CF064091D006509172
:10478000D1060E9474BC6093DA067093DB068093B6
:10479000DC069093DD0689E50E9420188823D1F07D
:1047A0000E941518672B682B692BA1F00E940C182A
:1047B0002091D2063091D3064091D4065091D5066F
:1047C0000E9474BC6093DE067093DF068093E0065F
:1047D0009093E1068091130281110C94DB358AE5F8
:1047E0000E94201881110C94DB358AE50E94201864
:1047F0008823D1F00E941518672B682B692BA1F034
:104800000E940C182091D6063091D7064091D80608
:104810005091D9060E9474BC6093E2067093E3063F
:104820008093E4069093E50626EE36E042EE56E0ED
:104830006EED76E08AED96E00E94615B80E00E947A
:104840001D5D8091840690918506A0918606B091A9
:10485000870680930F0290931002A0931102B093E9
:1048600012028091EA069091EB06909330028093B9
:104870002F020E94CE0F6093E3047093E4048093B0
:10488000E5049093E6040E94165D0C94C2351092E4
:1048900077060C94C23581E0809377060C94C2357C
:1048A00085E40E942018811102C00E94CC631BE2A3
:1048B000C12E14E0D12E0EECE02E06E0F02E0AED13
:1048C00016E0B12CF60181916F010E942018882317
:1048D00039F1F3E0BF120CC00E940C18F80160839C
:1048E00071838283938386EE96E00E94065C18C0F3
:1048F0000E940C18F70120813181428153810E946E
:1049000074BCF801608371838283938326EE36E062
:1049100042EE56E06EED76E08AED96E00E94615B35
:10492000B394F4E0EF0EF11C0C5F1F4F24E0B212C1
:10493000C9CF0C94C2358DE40E942018882311F44D
:104940000C9471340E940C180E94BCBD6337710531
:1049500011F40C94592C0CF08AC06F31710509F4D4
:104960003DC3A4F56631710509F4DCC1BCF46131C5
:10497000710509F491C134F46230710508F431C154
:104980000C94C2356431710509F498C10CF0C4C1AE
:104990006231710509F4D0C60C94C2356A317105D3
:1049A00009F4F5C13CF46831710509F4DAC10CF47D
:1049B000BFC1E7C16C31710509F4FDC10CF4F5C14B
:1049C0006E31710509F42DC20C94C235653571053F
:1049D00009F4E5C6CCF46135710509F485C654F4D3
:1049E0006032710509F45CC26A32710509F454C37E
:1049F0000C94C2356335710509F499C60CF09CC658
:104A00001092EF060C94C2356A36710509F43CC663
:104A1000DCF46836710509F46AC30CF097C36C3591
:104A2000710511F00C94C2352BE234E038AB2FA79E
:104A300001E411E131E5832E31E1932E45E0A42E0E
:104A400041E1B42E312C23C76D36710509F4AAC497
:104A50006237710509F451C76B36710511F00C947A
:104A6000C2351092A9061092A8060C94C2356D3D6D
:104A7000710511F40C94D12F0CF05DC0683C7105E8
:104A800011F40C94E32D2CF56837710511F40C9496
:104A90005D2D6CF46537710509F41AC76737710528
:104AA00011F00C94C235EFE7F3E00C94682D6C38EC
:104AB000710509F43AC36E3B710509F4E1C4693725
:104AC000710511F00C94C23581E00E941D5D0C94BB
:104AD000C2356D3C710511F40C94B22EACF46B3CF4
:104AE000710511F40C94762E14F00C94922E693CFE
:104AF000710511F00C94C2350BE214E021E3E22EB3
:104B000021E1F22E0C945C2E6A3D710511F40C9497
:104B1000272F6C3D710511F40C94C22F6E3C71056A
:104B200011F00C94C2350BE214E08EECE82E86E016
:104B3000F82E0C94182F653F31E0730711F40C9494
:104B4000343134F56E3291E0790711F40C94E83089
:104B500064F4623E710511F40C94F72F6D327140CC
:104B600011F40C9422300C94C235603921E07207A4
:104B700011F40C942E31643F31E0730711F40C945E
:104B800031316F32714011F00C94C2350C94F63013
:104B9000633593E0790711F40C943D3184F4673F59
:104BA000F1E07F0711F40C943A3114F40C9437318E
:104BB0006835724011F40C9412320C94C235603A8C
:104BC00083E0780709F4D6C1673E93E0790711F4D2
:104BD0000C945A346B38734011F00C94C2350C9419
:104BE000343481ED96E00E940C9A80E50E942018F2
:104BF000882339F00E940C180E94C1BD6B017C0112
:104C000003C0C12CD12C760183E50E942018882393
:104C100061F00E940C1820E030E04AE754E40E9462
:104C200022C00E94C1BD6B017C010E94CC630E9426
:104C3000CE0F6093E3047093E4048093E5049093B3
:104C4000E604C114D104E104F104A9F00E94CE0FDE
:104C50004B015C018C0C9D1CAE1CBF1C0E94CE0F36
:104C6000681579058A059B0588F40E94659B81116A
:104C70000DC00C94E1350E94659B811107C00E9414
:104C80007D670E946F1F0E94A09AF5CF82EC96E08C
:104C90000E940C9A0C94C23589EB96E00E940C9A03
:104CA00015984698439840989FB7F89480910B01C7
:104CB0008D7F80930B019FBF0C94C235E9EAF6E02B
:104CC0008491882341F09091C00095FFFCCF8093A0
:104CD000C6003196F5CF8091C00085FFFCCF8AE0F9
:104CE0008093C60080EF96E00E942D74EBE9F6E019
:104CF0008491882341F09091C00095FFFCCF809370
:104D0000C6003196F5CF8091C00085FFFCCF8AE0C8
:104D10008093C6000C94C23580EF96E00E948474A4
:104D20000C94C23580EF96E00E944B750C94C2350E
:104D30000091E7041091E8040C5F1F4F6AE270E0F5
:104D4000C8010E94B2C4009719F0FC01319710828B
:104D500021E041E0B80180EF96E00E94BA750C9422
:104D6000C23580EF96E00E944F750E94CE0F60938F
:104D7000DB047093DC048093DD049093DE040C94D8
:104D8000C23580EF96E00E9456750C94C235809132
:104D9000F306882311F40C94C23583E50E94201891
:104DA00081110C94E9350C94C23580EF96E00E9495
:104DB0000B7A0C94C2358091E7049091E8046AE282
:104DC00070E004960E94B2C48C010097E1F020913B
:104DD000F1043091F20440E6429FC001439F900DE0
:104DE00011246EE470E089509B4F0E94B2C460E2CF
:104DF00070E00E94B2C401969093E8048093E704A7
:104E0000F801319710826091E7047091E8046C5FBB
:104E10007F4F21E040E080EF96E00E94BA750C944D
:104E2000C2358091F306882311F40C94C23560E0FA
:104E300080EF96E00E94C47B8091E7049091E804A3
:104E40006AE270E004960E94B2C48C010097E1F01F
:104E50002091F1043091F20440E6429FC001439F4B
:104E6000900D11246EE470E089509B4F0E94B2C4F3
:104E700060E270E00E94B2C401969093E8048093CF
:104E8000E704F801319710826091E7047091E8041B
:104E90006C5F7F4F80EF96E00E94D1780C94C23512
:104EA0008091F20681110E94CC630091E704109179
:104EB000E8040C5F1F4F6AE270E0C8010E94B2C4B0
:104EC0007C0161E270E0C8010E94B2C4009719F051
:104ED0008C010F5F1F4FE114F10419F0F7013197B6
:104EE000108280E50E942018F82E2091E70430916E
:104EF000E8040217130708F4F12C8091F3068823C5
:104F000011F40C94C23521E02F2541E0B80180EF67
:104F100096E00E94BA7583E50E9420188823B9F0B4
:104F20002091E7043091E8042017310780F40E94B3
:104F30001518AB01BC014093730950937409609339
:104F40007509709376098EEB98E00E945A4080EFC5
:104F500096E00E944F75F1100C94C2350E94CE0F5E
:104F60006093DB047093DC048093DD049093DE0493
:104F70000C94C2358091E7049091E8046AE270E0F5
:104F800005960E94B2C48C010097E1F02091F104D3
:104F90003091F20440E6429FC001439F900D1124DE
:104FA0006EE470E089509B4F0E94B2C460E270E0F2
:104FB0000E94B2C401969093E8048093E704F8013C
:104FC000319710826091E7047091E8046B5F7F4F26
:104FD00080EF96E00E94CB780C94C2350E94CE0FF1
:104FE0006093D7047093D8048093D9049093DA0423
:104FF0000091DB041091DC042091DD043091DE048B
:10500000601B710B820B930B28EE33E040E050E005
:105010000E9420C1CA01B9012CE330E040E050E019
:105020000E9420C17F936F933F932F938CE896E06B
:105030009F938F93CE0101969F938F930E94E1C41B
:10504000EAE8F9E084910FB6F894DEBF0FBECDBF59
:10505000882349F09091C00095FFFCCF8093C60053
:1050600031968491F5CFFE0131968191882339F0F4
:105070009091C00095FFFCCF8093C600F6CF809141
:10508000C00085FFFCCF8AE08093C600CE01019668
:105090000E94FD990C94C23583E50E942018882354
:1050A00011F40C94C2350E940C186B017C0180E550
:1050B0000E942018882351F0C701B6010E94BCBD90
:1050C0006F3F710509F010F40C94FA3568E070E058
:1050D00020E0E22FEE0FFF0BE551FC4F8081918124
:1050E0008617970711F40C94C2352F5FF2CF88E62C
:1050F00090E00E945D2081110C94C23583E50E94EE
:105100002018882371F00091D6040E940C1810E03A
:10511000000F111F0D5C1D4E0E94BCBDF801718374
:1051200060830E94196B0C94C23583E50E9420189D
:10513000882311F40C94C2350E940C180E94BCBD47
:1051400070933212609331120C94C23589E690E06C
:105150000E945D2081110C94C235E6E8F6E084914E
:10516000882341F09091C00095FFFCCF8093C6004A
:105170003196F5CFE091D60424E0E29FF0011124AE
:10518000EB5DFD4E408151816281738121E030E011
:105190008DE799E00E949E3AE3E8F6E08491882347
:1051A00041F09091C00095FFFCCF8093C6003196EE
:1051B000F5CFE091D604F0E0EE0FFF1FED5CFD4E61
:1051C00060817181882777FD8095982F0E94EFBDBF
:1051D000AB01BC0121E030E08DE799E00E949E3AEE
:1051E000EFE7F6E08491882341F09091C00095FFAD
:1051F000FCCF8093C6003196F5CF40911F1250919D
:105200002012609121127091221221E030E08DE78E
:1052100099E00E949E3AECE7F6E08491882341F001
:105220009091C00095FFFCCF8093C6003196F5CFDA
:105230006091311270913212882777FD8095982FF6
:105240000E94EFBDAB01BC0121E030E08DE799E0A9
:105250000E949E3A33E3E32E32E1F32E45E2C42E60
:1052600042E1D42E00E010E059E7652E56E0752E9D
:1052700067E7A62E66E0B62E74E7872E76E0972EB7
:10528000F3018491E9E7F6E0882349F09091C000AA
:1052900095FFFCCF8093C60031968491F5CF4AE00C
:1052A00050E0B8018DE799E00E94BE39F501849184
:1052B000E7E7F6E0882349F09091C00095FFFCCF26
:1052C0008093C60031968491F5CFF60141915191BA
:1052D000619171916F0121E030E08DE799E00E94CA
:1052E0009E3AF4018491E4E7F6E0882349F0909136
:1052F000C00095FFFCCF8093C60031968491F5CF16
:10530000F701619171917F01882777FD8095982F32
:105310000E94EFBDAB01BC0121E030E08DE799E0D8
:105320000E949E3A0F5F1F4F0230110509F0A8CF6F
:10533000E0E7F6E08491882341F09091C00095FF6A
:10534000FCCF8093C6003196F5CF8091D60490E0D3
:105350000E9472674AE050E0BC018DE799E00E942C
:10536000BE39EBE6F6E08491882341F09091C000CD
:1053700095FFFCCF8093C6003196F5CF8FEF9FEF5E
:105380000E9472674AE050E0BC018DE799E00E94FC
:10539000BE398091C00085FFFCCF8AE08093C600B3
:1053A0000C946E378DE690E00E945D2081110C9484
:1053B000C23580E696E00E940C9A83E50E94201890
:1053C000882391F00091D6040E940C1810E0000F81
:1053D000111F0D5C1D4E0E94BCBDF80171836083DE
:1053E00081E080930A0215C082E50E94201888237C
:1053F00081F00091D6040E940C1810E0000F111FDC
:105400000D5C1D4E0E94BCBDF8017183608310923B
:105410000A020E94196B0E94CE0F4B015C010091A1
:10542000D60410E0F801EE0FFF1FED5CFD4E608129
:105430007181882777FD8095982F0E94EFBDF80134
:10544000EE0FFF1FEE0FFF1FEB5DFD4E11E0208101
:105450003181428153810E9450BF18160CF010E038
:105460001093D404CC24CA94DC2C760148EE442E4C
:1054700043E0542E612C712C5AE0352E0C945D368D
:105480008AE396E00E940C9A83E50E942018882304
:1054900061F00E940C180E94BCBD709332126093A0
:1054A000311281E080930A020FC082E50E94201829
:1054B000882351F00E940C180E94BCBD70933212D8
:1054C0006093311210920A020E94CE0F4B015C01D0
:1054D0006091311270913212882777FD8095982F54
:1054E0000E94EFBD11E020911F12309120124091D7
:1054F0002112509122120E9450BF18160CF010E099
:105500001093D40407E316E053E3E52E56E0F52E9E
:105510006FE2C62E66E0D62E7AE0772E8091D40414
:105520006091311270913212882309F486C0882765
:1055300077FD8095982F0E94EFBD20911F1230912A
:10554000201240912112509122120E9450BF181631
:105550000CF08AC00E94CE0F681979098A099B094C
:10556000693E73408105910508F460C0E091AA0688
:1055700034E0E39FF0011124EB5DFD4E4081518149
:1055800062817381F8018491E7E3F6E0882349F0B2
:105590009091C00095FFFCCF8093C6003196849116
:1055A000F5CF22E030E08DE799E00E949E3AF701C6
:1055B0008491E3E3F6E0882349F09091C00095FFE1
:1055C000FCCF8093C60031968491F5CF6091AA06F6
:1055D00070E04AE050E08DE799E00E94BE39F601A4
:1055E0008491EFE2F6E0882349F09091C00095FFA6
:1055F000FCCF8093C60031968491F5CF40911F1265
:1056000050912012609121127091221221E030E01D
:105610008DE799E00E949E3A8091C00085FFFCCF03
:105620007092C6000E94CE0F4B015C010E947D6704
:105630000E946F1F0E94A09A71CF882777FD8095E6
:10564000982F0E94EFBD20911F123091201240919F
:105650002112509122120E944DBD87FF05C08091FA
:105660000A02882309F476CF85E296E00E940C9A1C
:105670000E94CE0F6093E3047093E4048093E504EA
:105680009093E6040C94C23583E50E942018882389
:1056900019F10E940C1820E030E0A9010E944DBDD4
:1056A00087FD0FC00E940C1820E030E04FE753E464
:1056B0000E9450BF181644F00E940C180E94BCBDF6
:1056C00005C060E070E002C06FEF70E07093A90663
:1056D0006093A8060C94C2358FEF90E09093A906D2
:1056E0008093A8060C94C2350E94866B0E94CC63FE
:1056F000409A9FB7F89480910B01826080930B01D0
:105700009FBF0E9435641092A9061092A80668EE09
:1057100073E080E090E00E94FD0F1092140286E199
:1057200096E00E940C9A0E94A09A0C94C23581E0E7
:105730008093EF060C94C23583E50E9420188823DD
:10574000A1F00E940C1820E030E04AE754E40E94E7
:1057500022C00E94C1BD60930B0270930C02809323
:105760000D0290930E020C94C23588E50E94201819
:1057700081110C94363789E50E94201881110C9410
:1057800036378AE50E94201881110C94363785E45B
:105790000E94201881110C9436370C94603783E5F1
:1057A0000E9420180E940C1820E030E04AE754E4E0
:1057B0000E9422C00E94C1BD6093DF047093E00488
:1057C0008093E1049093E2040C94C235F3E03F121D
:1057D00068C00E940C186B017C0120E030E040EAB8
:1057E00051E40E944DBD87FF3FC0A7019601F8011B
:1057F00060817181828193810E9454BD2B013C01A3
:105800009B01AC016091191170911A1180911B11CB
:1058100090911C110E9422C06093191170931A116B
:1058200080931B1190931C11A3019201F4016081DC
:105830007181828193810E9422C0F401608371830F
:1058400082839383F50160817181828193810E94BB
:10585000EDBDA30192010E9422C00E94C1BDF501CD
:105860006083718382839383F801C082D182E28254
:10587000F38233940C5F1F4FF4E08F0E911C24E0F1
:10588000A20EB11C34E0331611F40C94C235EFA50E
:10589000F8A98191F8ABEFA70E942018882349F35B
:1058A00095CF0E940C18F8016083718382839383E3
:1058B000E0CFECE4F5E08491882311F40C94C23538
:1058C0009091C00095FFFCCF8093C6003196F3CF36
:1058D0000091E7041091E8040B5F1F4F6AE270E04B
:1058E000C8010E94B2C4009719F0FC0131971082E0
:1058F000C8010E94FD990C94C235E9E4F5E0849159
:10590000882341F09091C00095FFFCCF8093C600A2
:105910003196F5CF4091DA065091DB066091DC06B6
:105920007091DD0622E030E08DE799E00E949E3A1A
:10593000E5E4F5E08491882341F09091C00095FF63
:10594000FCCF8093C6003196F5CF4091DE06509192
:10595000DF066091E0067091E10622E030E08DE71D
:1059600099E00E949E3AE1E4F5E08491882341F0B9
:105970009091C00095FFFCCF8093C6003196F5CF83
:105980004091E2065091E3066091E4067091E506CD
:1059900022E030E08DE799E00E949E3AEDE3F5E0E9
:1059A0008491882341F09091C00095FFFCCF8093B3
:1059B000C6003196F5CF4091E6065091E70660911A
:1059C000E8067091E90622E030E08DE799E00E9458
:1059D0009E3AE2E3F5E08491882341F09091C00083
:1059E00095FFFCCF8093C6003196F5CF0E942764C7
:1059F0000E94EFBD2091411130914211409143111D
:105A0000509144110E9454BDAB01BC0122E030E032
:105A10008DE799E00E949E3AEEE2F5E084918823BA
:105A200041F09091C00095FFFCCF8093C600319665
:105A3000F5CF81E00E9427640E94EFBD20914511BF
:105A40003091461140914711509148110E9454BD28
:105A5000AB01BC0122E030E08DE799E00E949E3A64
:105A6000EAE2F5E08491882341F09091C00095FF2F
:105A7000FCCF8093C6003196F5CF82E00E94276468
:105A80000E94EFBD2091491130914A1140914B1174
:105A900050914C110E9454BDAB01BC0122E030E09A
:105AA0008DE799E00E949E3A8091C00085FFFCCF6F
:105AB0008AE08093C6000C94C23580E00E941D5D90
:105AC0000C94C2359091C00095FFFCCF8093C60026
:105AD00081918111F7CF8091C00085FFFCCF8AE0D2
