:100000000C94D51B0C948F1E0C94C01E0C94F11EE6
:100010000C94221F0C94531F0C94841F0C94B51F36
:100020000C94E61F0C94061C0C94061C0C94061CE5
:100030000C94061C0C9478E00C94061C0C94061C82
:100040000C94061C0C9445BA0C94061C0C94061CCB
:100050000C94061C0C94061C0C945DCB0C94081C90
:100060000C94061C0C94DD940C94061C0C94061C39
:100070000C94061C0C94061C0C94061C0C94061C78
:100080000C94061C0C94061C0C94061C0C94061C68
:100090000C94061C0C94061C0C94061C0C947D29D4
:1000A0000C94061C0C94061C0C94061C0C94061C48
:1000B0000C94061C0C94061C0C94061C0C94061C38
:1000C0000C94061C0C94061C0C94061C0C94061C28
:1000D0000C94061C0C94061C0C94061C0C94061C18
:1000E0000C94061C3A1D3F1D441D4E1DC71D581D76
:1000F000601D681D721D7C1D861D951D9F1DC71DE1
:10010000A91DB31DBD1DE51DE81DDB1DDF1D1F1E47
:10011000EC1DF01DF61DFA1DFE1D041E081E0C1E12
:100120001F1E121E161E1A1E842384239223A02330
:10013000BC23CA23D823E623F723AE23D6DED9DE99
:10014000E0DEE7DEEEDEF5DEDADFFCDE03DF0BDF2E
:10015000DADF13DF1CDF23DF2CDF33DF3ADFDADF08
:1001600041DF48DF51DFDADF5ADF63DF65DF67DF5A
:1001700069DF6BDF6DDF6FDF71DF73DF75DF77DF07
:1001800079DF7BDF7DDF7FDF81DFDADFDADFDADF78
:10019000DADFDADFDADFDADFDADFDADFDADFDADF97
:1001A000DADFDADFDADFDADFDADFDADFDADFDADF87
:1001B000DADFDADFDADFDADFDADFDADFDADFDADF77
:1001C000DADFDADFDADFDADFDADFDADFDADFDADF67
:1001D000DADFDADFDADFDADFDADFDADFDADFDADF57
:1001E000DADFDADFDADFDADFDADFDADFDADFDADF47
:1001F000DADFDADFDADFDADFDADFDADFDADFDADF37
:10020000DADFDADF85DF9EDF084AD73B3BCE016EBF
:1002100084BCBFFDC12F3D6C74319ABD56833DDA5D
:100220003D00C77F11BED9E4BB4C3E916BAAAABE6C
:10023000000000803F05A84CCDB2D44EB93836A995
:10024000020C50B9918688083CA6AAAA2ABE0000D2
:1002500000803F0000090A02080B0C0D070603048A
:10026000010000000000000000000000000000008D
:10027000000000000000000000000000000000116D
:10028000100F00000000000000000000000000004F
:1002900000000000000000000001021020200808FB
:1002A00010204010204080020102010804020101D8
:1002B00002040810204080804020100804020180C1
:1002C0000402018040201008040201080402010118
:1002D000020408102040800102040810204080051C
:1002E000050505070508080808020202020A0A08AF
:1002F00008040404040101010101010101030303D5
:100300000303030303040707070C0C0C0C0C0C0C71
:100310000C0202020206060606060606060B0B0B78
:100320000B0B0B0B0B00002200250028002B002ECE
:10033000003100340002010000050108010B01003A
:10034000002100240027002A002D00300033000186
:10035000010000040107010A015052494E54004DAA
:100360004154455249414C004D41494E54454E413E
:100370004E4345005072696E74696E6720776974E8
:1003800068205553422E2E2E00756C74696D616B7A
:1003900065722E636F6D2F4552303700476F2074A2
:1003A0006F3A0058206F7220592073776974636820
:1003B00020737475636B00756C74696D616B657225
:1003C0002E636F6D2F4552303700476F20746F3AA0
:1003D0000058206F72205920737769746368206217
:1003E000726F6B656E00756C74696D616B65722EF2
:1003F000636F6D2F4552303600476F20746F3A009F
:100400005A2073776974636820737475636B007521
:100410006C74696D616B65722E636F6D2F45523020
:100420003500476F20746F3A005A20737769746300
:10043000682062726F6B656E00756C74696D616BBC
:1004400065722E636F6D2F4552303400476F2074F4
:100450006F3A0053616665747920636972637569E8
:100460007400756C74696D616B65722E636F6D2FAE
:100470004552303300476F20746F3A00486561740D
:100480006572206572726F7200756C74696D616B54
:1004900065722E636F6D2F4552303200476F2074A6
:1004A0006F3A0054656D702073656E736F722042F1
:1004B000454400756C74696D616B65722E636F6D78
:1004C0002F4552303100476F20746F3A0054656DEC
:1004D000702073656E736F72004552524F52202D1B
:1004E0002053544F5050454400801506060606FE22
:1004F000FEFEFEFC00000000000000FCFEFEFEFC14
:100500000000000EFEFEFEFE0000E0FCFEFEFCE031
:10051000E0000000CECECE000000C0C0C0C0C0C011
:100520008000000000000080C0C0800000000000CB
:10053000008080C0C0C0C0C0C0C08080000000007B
:1005400006FEFEFEFE0000000080C0C0C0000000ED
:100550000000008080C0C0C080808000000000C01B
:10056000C0C0C00080C0C0C0C08000000000007FCC
:10057000FFFFFFFF80000000000080FFFFFFFFFF84
:1005800000000000FFFFFFFF000000FFFFFFFF0073
:1005900000000000FFFFFF00000081F1FFFF3F0FA0
:1005A0003FFFFCF0F0FCFF3F0F3FFFFEF880000034
:1005B00000C1E1F1F17131010183FFFFFFFC000097
:1005C00000FFFFFFFF000C3EFFFFF7C3010000002C
:1005D000FCFEFF8703113131333F3F3F1E00000116
:1005E000FFFFFFFF07030101010100000000000001
:1005F000010307070F0F0F0F0F0F0F0707070F0F4D
:1006000006000000070F0F07000000070F0F07008C
:10061000000000000F0F0F0000060F0F0701000081
:100620000001070F0F070100000001070F0F060070
:100630000003070F0F0E0E060703070F0F0700003A
:1006400000070F0F0700000000030F0F0F06000048
:10065000000307070F0E0E0E0E0E0E060000000020
:100660000F0F0F0F00000000000000507265763A77
:10067000200043414E43454C002073656300206DCC
:10068000696E0020686F75720020686F7572730064
:10069000000000000000005F0000000700070014D9
:1006A0007F147F14242A7F2A122313086462364998
:1006B0005522500005030000001C22410000412289
:1006C0001C00082A1C2A0808083E080800503000B0
:1006D00000080808080800606000002010080402F4
:1006E0003E5149453E00427F40004261514946210A
:1006F00041454B311814127F1027454545393C4A76
:1007000049493001710905033649494936064949C5
:10071000291E00363600000056360000000814225C
:100720004114141414144122140800020151090642
:10073000324979413E7E1111117E7F494949363E49
:10074000414141227F4141221C7F494949417F0962
:100750000901013E414151327F0808087F00417F75
:1007600041002040413F017F081422417F4040402A
:10077000407F0204027F7F0408107F3E4141413EDA
:100780007F090909063E4151215E7F091929464624
:100790004949493101017F01013F4040403F1F204D
:1007A00040201F7F2018207F6314081463030478FF
:1007B0000403615149454300007F41410204081090
:1007C0002041417F000004020102044040404040BB
:1007D000000102040020545454787F4844443838BF
:1007E00044444420384444487F3854545418087EC4
:1007F000090102081454543C7F0804047800447D25
:1008000040002040443D00007F10284400417F40CC
:10081000007C041804787C08040478384444443884
:100820007C14141408081414187C7C080404084868
:1008300054545420043F4440203C4040207C1C2021
:1008400040201C3C4030403C44281028440C505070
:10085000503C4464544C44000836410000007F0082
:1008600000004136080008082A1C08081C2A08084D
:10087000473120462569205A256920582569205985
:10088000256900473238205A30205830205930002E
:100890006275696C64706C6174652E006F662061AE
:1008A000646A757374696E6720796F757200746815
:1008B000726F756768207468652070726F63657306
:1008C0007300492077696C6C2067756964652079CD
:1008D0006F7500434F4E54494E55450043414E43BA
:1008E000454C00473238205A3000746F20707269CE
:1008F0006E742069742100616E6420707265737378
:100900002074686520627574746F6E006F6E207459
:1009100068652053442D636172640053656C6563A0
:10092000742061207072696E742066696C65003293
:10093000312F3231004C45542753205052494E54E8
:100940000052656164696E6720636172642E2E2EA9
:100950000032312F323100796F757220556C746915
:100960006D616B6572322E2E2E0074686174206387
:10097000616D65207769746800506C6561736520EE
:10098000696E736572742053442D63617264003222
:10099000312F3231006D616B65206120334420506E
:1009A00072696E74210049276D2072656164792037
:1009B0006C657427730032302F323100415245206C
:1009C000594F552052454144593F0066726F6D2082
:1009D0006E6F7A7A6C652E2E2E006D617465726969
:1009E000616C206578697473005075736820627556
:1009F00074746F6E207768656E0031392F32310064
:100A0000434F4E54494E5545004C6F6164696E67C3
:100A1000206D6174657269616C2E2E2E0031382F45
:100A200032310061626F7665207468652061727290
:100A30006F772E00796F757220556C74696D616BDC
:100A40006572322C0066726F6D2074686520726565
:100A50006172206F6600496E73657274206E6577EF
:100A6000206D6174657269616C0031372F3231001D
:100A7000434F4E54494E5545006D6174657269612E
:100A80006C206C6F6164696E67007072696E746867
:100A90006561642068656174696E6720666F7200C5
:100AA000506C6561736520776169742C0031362F55
:100AB00032310053656C65637420746865206D6124
:100AC00074657269616C006974206973207573695B
:100AD0006E672E006F66206D6174657269616C00CF
:100AE0006B6E6F77732077686174206B696E64003A
:100AF0004E6F7720796F757220556C74696D616BDC
:100B00006572320031352F323100434F4E54494E19
:100B10005545006973207468697320726967687449
:100B20003F00596F7520686176652063686F736553
:100B30006E0031342F323100594553004E4F0020A2
:100B40006173206D6174657269616C2C0031332FA3
:100B50003231004D4154455249414C00556C746945
:100B60006D616B6572322E00696E736572742069F7
:100B70006E2074686973006D6174657269616C20C0
:100B8000796F752077696C6C004E6578742C2073D2
:100B9000656C656374207468650031322F323100F2
:100BA0005245414459004D383400473120463132D6
:100BB00030303020583131302059313000746F20BE
:100BC000696E73657274206D6174657269616C2EF3
:100BD00000746865206E6578742073746570206990
:100BE0007300746865206275696C64706C6174650B
:100BF000004E6F772074686174207765206C65768D
:100C0000656C65640031312F323100434F4E5449D9
:100C10004E55450074686520726967687420636F7B
:100C2000726E65722E2E2E0052657065617420748E
:100C300068697320666F720031302F323100434F84
:100C40004E54494E554500444F4E4500746865204A
:100C50006C65667420636F726E65722E2E2E005264
:100C60006570656174207468697320666F720039FD
:100C70002F323100434F4E54494E5545006269743E
:100C800020726573697374616E63652E00756E748E
:100C9000696C20796F75206665656C2061006275EE
:100CA000696C64706C61746520616E64206E6F7A2B
:100CB0007A6C6500536C69646520612070617065B1
:100CC00072206265747765656E00382F323100439B
:100CD0004F4E54494E554500434F4E54494E55458D
:100CE00000473120462569205A30004731204625EB
:100CF0006920582569205925690047312046256912
:100D0000205A3500746865206275696C64706C6186
:100D10007465206C6576656C2E007061706572205C
:100D2000746F2066696E652D74756E65006E6F77E1
:100D3000207573652061207368656574206F660097
:100D4000526570656174207468697320737465708E
:100D50002C2062757400372F323100434F4E5449B6
:100D60004E55450066726F6D207468652062756926
:100D70006C64706C6174652E0069732061206D690C
:100D80006C6C696D6574657220617761790073635D
:100D90007265772074696C6C20746865206E6F7A58
:100DA0007A6C65005475726E20726967687420628F
:100DB00075696C64706C61746500362F3231004364
:100DC0004F4E54494E554500473120462569205A1B
:100DD000300047312046256920582569205925696A
:100DE00000473120462569205A350066726F6D2014
:100DF000746865206275696C64706C6174652E003E
:100E000069732061206D696C6C696D657465722011
:100E1000617761790073637265772074696C6C2007
:100E2000746865206E6F7A7A6C65005475726E20F6
:100E30006C656674206275696C64706C61746500C1
:100E4000352F323100434F4E54494E5545004731FE
:100E500020462569205A3000473120462569205810
:100E600025692059256900473120462569205A35D2
:100E70000066726F6D20746865206275696C6470BD
:100E80006C6174652E0061206D696C6C696D6574B0
:100E90006572206177617900756E74696C20746881
:100EA00065206E6F7A7A6C6520697300526F746189
:100EB00074652074686520627574746F6E00342FD9
:100EC000323100434F4E54494E554500434F4E5426
:100ED000494E554500473120462569205A2569204D
:100EE0005825692059256900473238205830205943
:100EF0003000676F696E6720746F20646F207468BC
:100F00006174206E6F772E0061646A7573746D650D
:100F10006E74732C20776520617265007765206E92
:100F200065656420746F20646F20736F6D65004188
:100F300066746572207472616E73706F727461741E
:100F4000696F6E00332F323100434F4E54494E5576
:100F50004500473120462569205A25690047323827
:100F6000205A3000612066697273742072756E2099
:100F700077697A6172642E0077616C6B20796F7586
:100F8000207468726F756768006669727374207385
:100F900074617274757020492077696C6C004265C9
:100FA0006361757365207468697320697320746860
:100FB0006500322F323100434F4E54494E554500A3
:100FC000627574746F6E20746F20636F6E74696ED7
:100FD000756500556C74696D616B65722120507286
:100FE0006573732074686500737461727475702022
:100FF0006F6620796F75720057656C636F6D652041
:10100000746F2074686520666972737400312F32C2
:101010003100434F4E54494E5545004300432F0085
:10102000436C69636B20746F2072657475726E0017
:101030004275696C64706C6174652074656D702EA6
:101040003A003F3F3F00466163746F7279207265DA
:101050007365740052756E74696D65207374617484
:10106000730056657273696F6E004D6F74696F6EB1
:101070002073657474696E6773005265747261637E
:1010800074696F6E2073657474696E67730053655D
:10109000742066616E207370656564004D6F7665BF
:1010A000206D6174657269616C00496E736572745C
:1010B000206D6174657269616C00526169736520AD
:1010C0006275696C64706C617465004C6F776572F1
:1010D000206275696C64706C61746500486F6D6541
:1010E0002068656164004865617475702062756987
:1010F0006C64706C61746500486561747570206E15
:101100006F7A7A6C65004C45442073657474696E1F
:101110006773003C2052455455524E005665727319
:101120003A5F31352E30342E372D524335657800F5
:1011300025004300432F004300432F0025003F3F7D
:101140003F0020476C6F77207768656E20646F6E74
:101150006500204F6E207768696C65207072696E3B
:1011600074696E670020416C77617973204F666601
:101170000020416C77617973204F6E00427269677D
:1011800068746E657373003C2052455455524E008E
:10119000250025004272696768746E657373004CA0
:1011A0004544004300432F00436C69636B20746F18
:1011B0002072657475726E004E6F7A7A6C65207459
:1011C000656D70657261747572653A0047323820DA
:1011D0005830205930004300432F00436C69636B43
:1011E00020746F2072657475726E00526F74617432
:1011F0006520746F2065787472756465004E6F7A2F
:101200007A6C652074656D70657261747572653A8B
:10121000003F3F3F005265747261637420737065D4
:1012200065640052657472616374206C656E6774E6
:1012300068003C2052455455524E006D6D2F736529
:1012400063006D6D006D6D2F736563005265747280
:10125000616374207370656564006D6D0052657420
:1012600072616374206C656E6774680052455452F5
:10127000414354494F4E003F3F3F004375727265F2
:101280006E7420450043757272656E74205A004377
:10129000757272656E7420582F59004D61782073F5
:1012A00070656564205A004D6178207370656564CF
:1012B0002059004D6178207370656564205800588E
:1012C0002F59204A65726B00416363656C657261DA
:1012D00074696F6E003C2052455455524E006D416A
:1012E000006D41006D41006D6D2F736563006D6D84
:1012F0002F736563006D6D2F736563006D6D2F73C4
:101300006563006D6D2F7365635E32006D41004350
:10131000757272656E742045006D4100437572727E
:10132000656E74205A006D410043757272656E746B
:1013300020582F59006D6D2F736563004D61782023
:101340007370656564205A006D6D2F736563004D81
:1013500061782073706565642059006D6D2F736529
:1013600063004D61782073706565642058006D6D71
:101370002F73656300582F59204A65726B00303017
:101380006D6D2F7365635E3200416363656C6572DA
:101390006174696F6E004D4F54494F4E005665722F
:1013A000733A5F31352E30342E372D524335657800
:1013B000004A756E20313720323031362031333AD1
:1013C00031323A33330052657475726E006D00200D
:1013D0004D61743A003A005072696E74696E673AF2
:1013E000003A004D616368696E65206F6E20666F1C
:1013F000723A0052657475726E00746F206465668F
:1014000061756C743F005265736574206576657212
:10141000797468696E6700594553004E4F00250086
:1014200046616E207370656564004731204625690A
:101430002058256920592569004732382058302026
:101440005930004731205A343000473238205A3062
:1014500000473238205A300047323820583020595F
:101460003000473238205A3000414456414E4345FF
:1014700044004255494C442D7C504C415445004158
:101480004456414E4345440052455455524E004344
:1014900050450043504500435045005550455400C9
:1014A0004350450041425300504C410025004661E5
:1014B0006E3A2000430043002500466C6F773A00E7
:1014C0006D6D00636F6D6573206F75742074686552
:1014D000206E6F7A7A6C6500576169742074696C4C
:1014E0006C206D6174657269616C005245414459AC
:1014F0000043414E43454C00466F72776172646908
:101500006E67206D6174657269616C0061626F76EF
:101510006520746865206172726F772E00796F752F
:1015200072206D616368696E652C0066726F6D2054
:10153000746865206261636B73696465206F66001F
:10154000496E73657274206E6577206D6174657283
:1015500069616C0052454144590043414E43454C3A
:10156000006D6174657269616C20696E7365727477
:10157000696F6E00436F6F6C696E67207072696E81
:10158000746865616420666F720048656174696E95
:1015900067207072696E746865616420666F72009E
:1015A0004D4154455249414C0052656D6F7665205E
:1015B0006D6174657269616C005245414459004324
:1015C000414E43454C00526576657273696E6720E3
:1015D0006D6174657269616C00666F72206D617413
:1015E000657269616C2072656D6F76616C0048652B
:1015F0006174696E67207072696E746865616400F9
:1016000047323820583020593000496D706F72745D
:101610002066726F6D205344004578706F7274209D
:10162000746F20534400437573746F6D697A65005D
:101630003C2052455455524E004C6F6164732061FA
:101640006C6C206D6174657269616C7300536176B6
:10165000657320616C6C206D6174657269616C7377
:10166000004D6F64696679207468652073657474D1
:10167000696E677300250046616E3A20004300439F
:10168000002500466C6F773A006D6D003F3F3F00CC
:1016900053746F7265206173207072657365740096
:1016A000466C6F7720250046616E004469616D6568
:1016B00074657200486561746564206275696C6464
:1016C000706C6174650054656D70657261747572DB
:1016D00065003C2052455455524E00250025006DB2
:1016E0006D00430043004E6577207072657365742A
:1016F000003C2052455455524E00505245534554DB
:10170000530025004D6174657269616C20666C6FD1
:101710007700250046616E207370656564006D6D0D
:10172000004D6174657269616C204469616D657416
:1017300065720043004275696C64706C6174652069
:1017400054656D702E00430054656D706572617450
:10175000757265004D4154455249414C00696E20F7
:101760004D4154455249414C2E54585400746F20F9
:101770007468652053442063617264005361766528
:1017800064206D6174657269616C73004F6B000A4F
:101790000A006469616D657465723D000A00666CDB
:1017A0006F773D000A0066616E5F73706565643D2A
:1017B000000A006265645F74656D706572617475BE
:1017C00072653D000A0074656D70657261747572B2
:1017D000653D000A006E616D653D005B6D6174657D
:1017E0007269616C5D0A0052656164696E672063AD
:1017F0006172642E2E2E00506C6561736520696ED7
:10180000736572742063617264004E6F2053442DBF
:1018100043415244210066726F6D20746865205305
:10182000442063617264004C6F61646564206D6183
:1018300074657269616C73004F6B006469616D65FA
:1018400074657200666C6F770066616E5F737065B9
:101850006564006265645F74656D7065726174755E
:1018600072650074656D7065726174757265006E85
:10187000616D65005B6D6174657269616C5D0046E8
:101880006F756E64206F6E20636172642E004E6F00
:10189000206578706F72742066696C6500526561AE
:1018A00064696E6720636172642E2E2E00506C6531
:1018B00061736520696E7365727420636172640080
:1018C0004E6F2053442D43415244210053656C65B3
:1018D00063746564206D6174657269616C3A004F70
:1018E0004B004D4154455249414C0047312046255B
:1018F0006920582569205925690047323820583019
:10190000205930004348414E4745005345545449FF
:101910004E47530052455455524E004300432F004A
:10192000436C69636B20746F2072657475726E000E
:101930004E6F7A7A6C652074656D7065726174752E
:1019400072653A00507265706172696E6720746FDB
:10195000207072696E743A0048656174696E672020
:1019600075702E2E2E0054554E450041424F525454
:10197000004C4544204272696768746E6573730059
:1019800052657472616374696F6E004D6174657243
:1019900069616C20666C6F770046616E20737065BC
:1019A0006564004275696C64706C6174652074656F
:1019B0006D702E0054656D7065726174757265008E
:1019C00053706565640041626F7274003C2052453B
:1019D0005455524E00250025002500430043004386
:1019E000004300250041626F7274207468652070A6
:1019F00072696E743F00594553004E4F003F3F3FA0
:101A0000005265747261637420737065656400527E
:101A1000657472616374206C656E677468003C2045
:101A200052455455524E006D6D2F736563006D6DB8
:101A3000006D6D2F7365630052657472616374206D
:101A40007370656564006D6D0052657472616374D6
:101A5000206C656E67746800524554524143544986
:101A60004F4E0025004272696768746E657373009B
:101A700025004D6174657269616C20666C6F77003A
:101A8000250046616E207370656564002500507204
:101A9000696E742073706565640054554E4500543A
:101AA000696D65206C6566740054696D65206C65B0
:101AB000667420756E6B6E6F776E0043004300484E
:101AC000656174696E67206275696C64706C6174BD
:101AD00065004300430048656174696E6700507299
:101AE000696E74696E673A0054554E450050415511
:101AF000534500524553554D457C5052494E540074
:101B00004348414E47457C4D4154455249414C0064
:101B100054554E45004D383400473238004732386E
:101B2000205A300047323820583020593000473191
:101B30002046256920453000473932204525690077
:101B40004D343031004D3630312058352059352054
:101B50005A2569204C256900746865207072696E89
:101B6000742E00596F752063616E2072656D6F76FB
:101B700065005072696E742066696E697368656489
:101B8000004241434B20544F204D454E55004300E9
:101B90004320005072696E74657220636F6F6C69C8
:101BA0006E6720646F776E004241434B20544F2094
:101BB0004D454E55006F66207072696E74696E6790
:101BC0002061726561005472696564207072696E8B
:101BD00074696E67206F7574004552524F523A0017
:101BE00052455455524E20544F204D41494E007598
:101BF0006C74696D616B65722E636F6D2F45523029
:101C00003800476F20746F3A0072656164696E67CF
:101C10002053442D6361726421004572726F7220FB
:101C20007768696C650052455455524E20544F20D8
:101C30004D41494E0066726F6D2074686520736C6B
:101C4000696365722E0073657474696E67207769C5
:101C500074682073657474696E67006F766572725C
:101C6000696465206D616368696E650054686973B5
:101C70002066696C652077696C6C00434F4E54494F
:101C80004E55450043414E43454C003C20424143A4
:101C90004B003C2052455455524E00534420434182
:101CA0005244004731204631323030302058352000
:101CB00059313000473238003B464C41564F523A7A
:101CC000556C746947436F6465003B464C41564F01
:101CD000523A556C746947436F6465004E6F2066D5
:101CE000696C657320666F756E6421004F4B004F01
:101CF0004B0052656164696E6720636172642E2EC9
:101D00002E00506C6561736520696E736572742076
:101D100063617264004E6F2053442D43415244214D
:101D2000004E6F20696E666F20617661696C61623A
:101D30006C65006D006D004D6174657269616C3A8F
:101D4000200054696D653A20003B4D41544552498D
:101D5000414C3A003B54494D453A00466F6C64652E
:101D600072004D32313820496E76616C69642065AD
:101D70007874727564657220004D31303920496E77
:101D800076616C6964206578747275646572200090
:101D90004D31303520496E76616C69642065787408
:101DA000727564657220004D31303420496E766161
:101DB0006C69642065787472756465722000507275
:101DC000696E7465722073746F70706564206475D9
:101DD0006520746F206572726F72732E2046697869
:101DE00020746865206572726F7220616E64207560
:101DF0007365204D39393920746F207265737461B1
:101E000072742E202854656D7065726174757265E8
:101E10002069732072657365742E20536574206980
:101E2000742061667465722072657374617274697E
:101E30006E6729005072696E7465722068616C74F7
:101E400065642E206B696C6C28292063616C6C655D
:101E50006421006F6B00526573656E643A20004523
:101E60006E6473746F70207374696C6C207072652B
:101E700073736564206166746572206261636B6967
:101E80006E67206F66662E20456E6473746F7020D7
:101E9000737475636B3F00456E6473746F70206E6E
:101EA0006F74207072657373656420616674657207
:101EB00020686F6D696E6720646F776E2E20456EA7
:101EC0006473746F702062726F6B656E3F00456E55
:101ED0006473746F70206E6F7420707265737365B5
:101EE0006420616674657220686F6D696E67206436
:101EF0006F776E2E20456E6473746F702062726F00
:101F00006B656E3F002200556E6B6E6F776E2063BF
:101F10006F6D6D616E643A202200456C656374726A
:101F20006F6E6963735F746573740041637469767F
:101F3000652045787472756465723A2000496E7642
:101F4000616C696420657874727564657200540010
:101F500020423A300020423A31006F6B20523A0062
:101F600020633A0020643A0020693A0020703A0069
:101F70006F6B002200556E6B6E6F776E20636F6D16
:101F80006D616E643A2022006F70656E0054524994
:101F9000474745524544007A5F6D61783A20006FAB
:101FA00070656E0054524947474552454400795F79
:101FB0006D61783A20006F70656E00545249474752
:101FC0004552454400785F6D696E3A200052657055
:101FD0006F7274696E6720656E6473746F702073BE
:101FE0007461747573005A3A00593A0020436F7552
:101FF0006E7420583A2000453A005A3A00593A0087
:10200000583A004649524D574152455F4E414D4561
:102010003A4D61726C696E20556C74696D616B65C7
:1020200072323B20537072696E7465722F677262F0
:102030006C206D617368757020666F722067656EC5
:1020400036204649524D574152455F55524C3A68E9
:102050007474703A2F2F6769746875622E636F6DA0
:102060002F556C74696D616B65722050524F544FDF
:10207000434F4C5F56455253494F4E3A312E302014
:102080004D414348494E455F545950453A556C744B
:10209000696D616B65722045585452554445525FD5
:1020A000434F554E543A310A0020423A0020453AF7
:1020B00000543A003F0020573A0020453A00543A75
:1020C000002042403A0020403A00202F0020423AAF
:1020D00000202F006F6B20543A002569206D696E37
:1020E0002C2025692073656300456E642066696C49
:1020F00065206C69737400426567696E2066696C5F
:1021000065206C69737400256920686F757273208F
:102110002569206D696E7574657300446F6E652066
:102120007072696E74696E672066696C65005072C2
:10213000696E7465722073746F7070656420647565
:102140006520746F206572726F72732E20466978F5
:1021500020746865206572726F7220616E642075EC
:102160007365204D39393920746F2072657374613D
:1021700072742E202854656D706572617475726575
:102180002069732072657365742E2053657420690D
:10219000742061667465722072657374617274690B
:1021A0006E6729006F6B004E6F204C696E65204E84
:1021B000756D626572207769746820636865636B0A
:1021C00073756D2C204C617374204C696E653A20D8
:1021D000004E6F20436865636B73756D207769747B
:1021E00068206C696E65206E756D6265722C204C7E
:1021F000617374204C696E653A2000636865636B97
:1022000073756D206D69736D617463682C204C610A
:102210007374204C696E653A20004C696E65204EDF
:10222000756D626572206973206E6F74204C6173E6
:1022300074204C696E65204E756D6265722B312C71
:10224000204C617374204C696E653A20004D313129
:102250003000446F6E6520736176696E6720666931
:102260006C652E006F6B004D3239002020506C6180
:102270006E6E657242756666657242797465733A10
:1022800020002046726565204D656D6F72793A2099
:10229000004A756E203137203230313600436F6D81
:1022A00070696C65643A2000566572733A5F313527
:1022B0002E30342E372D524335657800207C204156
:1022C0007574686F723A20004A756E20313720327B
:1022D0003031362031333A31323A333500204C61D7
:1022E000737420557064617465643A2000312E3037
:1022F0002E30004D61726C696E200020536F667441
:10230000776172652052657365740020576174634C
:1023100068646F67205265736574002042726F773E
:102320006E206F7574205265736574002045787453
:1023300065726E616C20526573657400506F7765CD
:10234000725570007374617274002200656E71754D
:1023500065696E672022002200656E717565696E81
:1023600067202200FF01010000E0400000E0400083
:1023700000E04000006643000066430000A5430003
:10238000000000000066430000A543000066430013
:102390000066430000A543000000000000000000AC
:1023A0000000006563686F3A004572726F723A0010
:1023B00000002110422063308440A550C660E770C1
:1023C000088129914AA16BB18CC1ADD1CEE1EFF169
:1023D0003112100273325222B5529442F772D66211
:1023E000399318837BB35AA3BDD39CC3FFF3DEE3B9
:1023F0006224433420040114E664C774A444855461
:102400006AA54BB528850995EEE5CFF5ACC58DD508
:102410005336722611163006D776F6669556B446B0
:102420005BB77AA719973887DFF7FEE79DD7BCC758
:10243000C448E5588668A778400861180228233800
:10244000CCC9EDD98EE9AFF9488969990AA92BB9A8
:10245000F55AD44AB77A966A711A500A333A122A50
:10246000FDDBDCCBBFFB9EEB799B588B3BBB1AABF8
:10247000A66C877CE44CC55C222C033C600C411CA0
:10248000AEED8FFDECCDCDDD2AAD0BBD688D499D48
:10249000977EB66ED55EF44E133E322E511E700EF0
:1024A0009FFFBEEFDDDFFCCF1BBF3AAF599F788F98
:1024B0008891A981CAB1EBA10CD12DC14EF16FE178
:1024C0008010A100C230E3200450254046706760B0
:1024D000B9839893FBA3DAB33DC31CD37FE35EF3C8
:1024E000B1029012F322D232354214527762567200
:1024F000EAB5CBA5A89589856EF54FE52CD50DC518
:10250000E234C324A014810466744764245405444F
:10251000DBA7FAB79987B8975FE77EF71DC73CD767
:10252000D326F2369106B01657667676154634569F
:102530004CD96DC90EF92FE9C899E9898AB9ABA9B7
:102540004458654806782768C018E1088238A328EF
:102550007DCB5CDB3FEB1EFBF98BD89BBBAB9ABB07
:10256000754A545A376A167AF10AD01AB32A923A3F
:102570002EFD0FED6CDD4DCDAABD8BADE89DC98D57
:10258000267C076C645C454CA23C832CE01CC10C8F
:102590001FEF3EFF5DCF7CDF9BAFBABFD98FF89FA7
:1025A000176E367E554E745E932EB23ED10EF01EDF
:1025B0007C3C3E5E2B3D3F2F5B5D3B2C2A225C002A
:1025C00020746F6F206C6F6E6720657874727573FE
:1025D000696F6E2070726576656E74656400206345
:1025E0006F6C6420657874727573696F6E20707299
:1025F0006576656E746564006563686F3A00205A9D
:102600003A0020593A0020583A00656E6473746F9E
:102610007073206869743A200024F4D43050C38E5B
:1026200020C2A24017828B7011127A910D816CD951
:102630000AA861E108C7586607615143061E4B5D51
:1026400005C145A7041A411104093D9803713931A8
:10265000034036DB0265339102D4305402802E1DD4
:1026600002632CEE01752AC501B028A00110278154
:10267000018F2564012B244B01E0223401AC211F82
:10268000018D200D01801FFC00841EED00971DDFD1
:1026900000B81CD200E61BC600201BBC00641AB2A6
:1026A00000B219A8000A19A0006A189900D1179160
:1026B0000040178B00B516840031167E00B31579E3
:1026C000003A157300C7146F0058146A00EE1366C1
:1026D000008813630025135E00C7125B006C12575D
:1026E0000015125400C111510070114F0021114BFF
:1026F00000D61049008D10470046104400021042D9
:1027000000C00F4000800F3E00420F3C00060F3B10
:1027100000CB0E3800930E37005C0E3500270E34C8
:1027200000F30D3200C10D3100900D3000600D2E10
:1027300000320D2D00050D2C00D90C2B00AE0C29FC
:1027400000850C29005C0C2700350C27000E0C2698
:1027500000E80B2400C40B2400A00B23007D0B23F6
:10276000005A0B2100390B2100180B2000F80A1F1A
:1027700000D90A1E00BB0A1E009D0A1D00800A1D0A
:1027800000630A1C00470A1B002C0A1B00110A1ACE
:1027900000F7091A00DD091900C4091900AB09196D
:1027A00000920917007B091800630917004C0916ED
:1027B0000036091600200916000A091500F508154B
:1027C00000E0081400CC081400B8081400A4081491
:1027D00000900813007D0812006B081300580812BF
:1027E00000460812003408110023081100120811D5
:1027F0000001081100F0071000E0071000D00710DA
:1028000000C0071000B0070F00A107100091070ECD
:102810000083070F0074070F0065070E0057070EAF
:102820000049070E003B070D002E070E0020070D84
:102830000013070D0006070D00F9060C00ED060D4C
:1028400000E0060C00D4060C00C8060C00BC060C08
:1028500000B0060C00A4060B0099060C008D060BB8
:102860000082060B0077060B006C060B0061060A5F
:102870000057060B004C060A0042060A0038060AFA
:10288000002E060A0024060A001A060A001006098D
:102890000007060A00FD050900F4050900EB05091B
:1028A00000E2050900D9050900D0050900C705099E
:1028B00000BE050900B5050800AD050800A505091D
:1028C000009C050800940508008C05080084050894
:1028D000007C050800740508006C05070065050804
:1028E000005D050700560508004E0507004705076F
:1028F000004005080038050700310507002A0507D4
:1029000000230507001C050600160507000F050734
:10291000000805060002050700FB040600F5040791
:1029200000EE040600E8040600E2040700DB0406EB
:1029300000D5040600CF040600C9040600C304063F
:1029400000BD040600B7040600B1040500AC04068F
:1029500000A6040600A00405009B040600950405DB
:1029600000900406008A0405008504050080040622
:10297000007A04050075040500700405006B040569
:102980000066040500610405005C040500570405A9
:1029900000520405004D04050048040500430405E9
:1029A000003E0404003A0405003504050030040428
:1029B000002C04050027040400230405001E040461
:1029C000001A04040016040500110404000D040498
:1029D00000090405000404040000040400FC0304CE
:1029E00000F8030400F4030400F0030400EC030403
:1029F00000E8030400E4030400E0030400DC030433
:102A000000D8030400D4030400D0030400CC030462
:102A100000C8030300C503030024F404D9201BC429
:102A20000C5C0E9804C4095F0265077101F405F996
:102A300000FB04B30048048700C103690058035534
:102A40000003034500BE023A008402310053022A0B
:102A5000002902250004022000E4011C00C801191D
:102A600000AF0117009801140084011300710110D8
:102A7000006101100051010E0043010D0036010BF1
:102A8000002B010B0020010B00150109000C0109AE
:102A90000003010800FB000800F3000800EB00073A
:102AA00000E4000600DE000600D8000600D20006A2
:102AB00000CC000500C7000500C2000500BD0004F1
:102AC00000B9000400B5000400B1000400AD00042A
:102AD00000A9000400A5000300A20003009F000459
:102AE000009B000300980003009500020093000380
:102AF00000900003008D0002008B0003008800029C
:102B0000008600020084000300810002007F0002B2
:102B1000007D0002007B00020079000200770001C6
:102B200000760002007400020072000100710002D1
:102B3000006F0002006D0001006C0002006A0001DD
:102B400000690002006700010066000100650001E5
:102B500000640002006200010061000100600001E9
:102B6000005F0002005D0001005C0001005B0001ED
:102B7000005A0001005900010058000100570001EF
:102B800000560001005500010054000100530000F0
:102B900000530001005200010051000100500001EB
:102BA000004F0001004E0000004E0001004D0001EA
:102BB000004C0001004B0000004B0001004A0001E6
:102BC00000490001004800000048000100470001E2
:102BD00000460000004600010045000000450001DD
:102BE00000440001004300000043000100420000D7
:102BF00000420001004100000041000100400001CE
:102C0000003F0000003F0001003E0000003E0001C8
:102C1000003D0000003D0001003C0000003C0000C1
:102C2000003C0001003B0000003B0001003A0000B6
:102C3000003A0001003900000039000100380000AE
:102C400000380000003800010037000000370001A4
:102C5000003600000036000000360001003500009C
:102C60000035000000350001003400000034000091
:102C70000034000100330000003300000033000185
:102C8000003200000032000000320001003100007C
:102C90000031000000310001003000000030000071
:102CA00000300001002F0000002F0000002F000066
:102CB000002F0001002E0000002E0000002E000159
:102CC000002D0000002D0000002D0000002D00014F
:102CD000002C0000002C0000002C0000002C000143
:102CE000002B0000002B0000002B0000002B000137
:102CF000002A0000002A0000002A0000002A00012B
:102D0000002900000029000000290000002900001F
:102D10000029000100280000002800000028000011
:102D20000028000000280001002700000027000004
:102D300000270000002700000027000100260000F7
:102D400000260000002600000026000000260001EA
:102D500000250000002500000025000000250000DF
:102D600000250000002500010024000000240000D0
:102D700000240000002400000024000100230000C3
:102D800000230000002300000023000000230000B7
:102D900000230000002300010022000000220000A8
:102DA000002200000022000000220000002200019A
:102DB000002100000021000000210000002100008F
:102DC000002100000021000000210001002000007F
:102DD0000020000000200000002000000020000073
:102DE000002000000020000000200001001F000063
:102DF000001F0000001F0000001F0000001F000057
:102E0000001F0000001F0001001E0000001E000047
:102E1000001E0000001E0000006563686F3A003A63
:102E2000204578747275646572207377697463687D
:102E30006564206F66662E204D494E54454D5020E6
:102E40007472696767657265642021003A2045786D
:102E50007472756465722073776974636865642041
:102E60006F66662E204D415854454D50207472694E
:102E700067676572656420210054656D70657261D5
:102E8000747572652068656174656420626564208C
:102E90007377697463686564206F66662E204D41A0
:102EA0005854454D50207472696767657265642097
:102EB000212100202D20496E76616C69642065789F
:102EC000747275646572206E756D62657220210082
:102ED000504944204175746F74756E652066696E43
:102EE0006973686564212050757420746865204B8F
:102EF000702C204B6920616E64204B6420636F6EE0
:102F00007374616E747320696E746F20436F6E66A4
:102F1000696775726174696F6E2E6800504944204C
:102F20004175746F74756E65206661696C656421A6
:102F30002074696D656F75740020403A006F6B20D6
:102F4000543A006F6B20423A005049442041757456
:102F50006F74756E65206661696C656421205465C7
:102F60006D706572617475726520746F6F20686929
:102F7000676800204B643A2000204B693A2000200B
:102F80004B703A200020436C6173696320504944C0
:102F900020002054753A2000204B753A2000206D07
:102FA00061783A2000206D696E3A200020643A2052
:102FB0000020626961733A200050494420417574D1
:102FC0006F74756E6520737461727400504944208B
:102FD0004175746F74756E65206661696C65642EE9
:102FE00020426164206578747275646572206E7524
:102FF0006D6265722E004572726F723A00000000B9
:103000000018070100A807140030082800B8083C81
:103010000038095000C0096400480A7800C80A8CCA
:1030200000480BA000C80BB400480CC800C80CDC5A
:1030300000400DF000C00D0401380E1801B00E2C38
:1030400001280F4001A00F54011810680188107C5E
:1030500001001190013013F401481558024017BCCB
:103060000228192003F01A8403A81CE803401E4C10
:10307000044D383420582059205A20450043616EB1
:103080006E6F7420656E7465722073756264697208
:103090003A20004D3234004D3233202573006175E3
:1030A000746F25692E67006572726F72207772697E
:1030B00074696E6720746F2066696C650043617285
:1030C00064206572726F723A004E6F742053442010
:1030D0007072696E74696E67002F005344207072BD
:1030E000696E74696E67206279746520002E0044F1
:1030F000656C6574696F6E206661696C65642C200F
:1031000046696C653A200046696C652064656C65AB
:103110007465643A002E006F70656E206661696C9C
:1031200065642C2046696C653A20005772697469A1
:103130006E6720746F2066696C653A20002E006F00
:1031400070656E206661696C65642C2046696C65EB
:103150003A20002E006F70656E206661696C6564B0
:103160002C2046696C653A200046696C65207365C1
:103170006C6563746564002053697A653A20004683
:10318000696C65206F70656E65643A20002E006F73
:1031900070656E206661696C65642C2046696C659B
:1031A0003A200053442063617264206F6B006F709B
:1031B000656E526F6F74206661696C656400766F2E
:1031C0006C756D652E696E6974206661696C6564E5
:1031D00000534420696E6974206661696C00436124
:1031E0006E6E6F74206F70656E20737562646972A5
:1031F000006563686F3A004572726F723A00486109
:103200007264636F6465642044656661756C7420E4
:1032100053657474696E6773204C6F6164656400F4
:10322000563031300053746F726564207365747466
:10323000696E6773207265747269657665640020D3
:1032400044002049002020204D33303120500050D0
:1032500049442073657474696E67733A00205A009C
:1032600020590020204D323036205800486F6D65BF
:10327000206F666673657420286D6D293A002045BD
:1032800000205A0020580020420020540020204DE9
:10329000323035205300416476616E636564207678
:1032A00061726961626C65733A20533D4D696E20AD
:1032B000666565647261746520286D6D2F73292CB5
:1032C00020543D4D696E2074726176656C20666590
:1032D00065647261746520286D6D2F73292C2042FE
:1032E0003D6D696E696D756D207365676D656E7492
:1032F0002074696D6520286D73292C20583D6D61FF
:1033000078696D756D205859206A65726B20286D3B
:103310006D2F73292C20205A3D6D6178696D756D74
:10332000205A206A65726B20286D6D2F73292C201E
:1033300020453D6D6178696D756D2045206A657227
:103340006B20286D6D2F73290020540020204D32F2
:103350003034205300416363656C65726174696F3A
:103360006E3A20533D616363656C65726174696F89
:103370006E2C20543D7265747261637420616363C6
:10338000656C65726174696F6E00204500205A009B
:1033900020590020204D3230312058004D6178698D
:1033A0006D756D20416363656C65726174696F6EE4
:1033B00020286D6D2F7332293A00204500205A00D5
:1033C00020590020204D3230332058004D6178695B
:1033D0006D756D2066656564726174657320286D16
:1033E0006D2F73293A00204500205A0020590020F3
:1033F000204D393220580053746570732070657207
:1034000020756E69743A0053657474696E67732031
:1034100053746F726564006563686F3A0054455376
:10342000540D0A000D0A00556E6B6E6F776E2063A7
:103430006F6D6D616E643A20000D0A003F005665A5
:1034400072733A5F31352E30342E372D5243356545
:103450007800024E414E494E495459494E46CDCC12
:10346000CC3D0AD7233C17B7D13877CC2B32959572
:10347000E6241FB14F0A000020410000C84200406E
:103480001C4620BCBE4CCA1B0E5AAEC59D740C9483
:10349000D4360C9443620C9416490C94AF6B0C9484
:1034A00076410C94B1370C94F0640C94861D0C9406
:1034B000504F0C947DDF0C94EC4D0C9455530C94B0
:1034C0004E1D0C94A4490C94473E0C94F0660C9449
:1034D00070650C947BDF0C940A280C947E430C944A
:1034E000B31D0C94EA340C945ADF0C9423DF0C9433
:1034F000065A0C9485DF0C9496430C94B14E0C94B0
:1035000048DF0C94681D0C94721D0C94B7610C94E8
:1035100074500C94581D0C94A5590C94C25A0C94D8
:10352000D23D0C941CDF0C9413DF0C94BD1D0C9445
:10353000D34C0C94C8940C94DA3A0C9476340C94D2
:103540001C530C941F1E0C94BC4F0C94C71D0C9460
:10355000F61D0C942CDF0C947B4F0C94035C0C94A4
:10356000D6200C94C5590C943A1D0C9492230C94BB
:103570006BDF0C9433DF0C9429210C94CA230C9438
:103580002E4E0C94C9590C9465DF0C94633B0C943B
:10359000EA430C940C1E0C940F5B0C94293E0C9483
:1035A000A1470C94A4240C94F7230C94081E0C94AB
:1035B0003ADF0C9451DF0C9458630C9469DF0C943F
:1035C000C3450C94FCDE0C94EC1D0C9457580C94E1
:1035D000443F0C9444400C94E0DE0C94121E0C9476
:1035E000C55C0C94945A0C9438480C94EA610C9481
:1035F00067DF0C94653D0C94C75E0C94F33C0C940F
:10360000F8390C941B370C9469410C94E51D0C940B
:10361000AE230C946FDF0C94244F0C94D8230C949D
:10362000EB5A0C944B3C0C9417200C940C4C0C94BF
:10363000DB1D0C9499480C94F8330C94041E0C94E4
:10364000D9DE0C940BDF0C9463DF0C946A350C9478
:10365000BF640C9437340C9442360C947C1D0C944B
:10366000624A0C94A43D0C94204D0C94BC230C9401
:103670001A1E0C94CA510C94DADF0C9475DF0C946A
:103680005D3E0C9473DF0C9448430C9467380C94A3
:1036900087480C9405420C94F6570C9439620C94AC
:1036A00023640C949EDF0C9458370C94F01D0C94FA
:1036B00011560C94A0230C94B1490C9471DF0C9416
:1036C0006DDF0C9479DF0C94DF1D0C9437480C945B
:1036D000653C0C94CA340C94DD400C9480590C94D5
:1036E000E7DE0C9481DF0C943F1D0C94BDA20C947A
:1036F00090390C94E23B0C94CA3A0C9441DF0C9440
:10370000AC3C0C94F5DE0C9490460C94E81D0C94A3
:103710002A470C9403DF0C9452470C94D6DE0C9489
:10372000893A0C94335E0C94601D0C94933A0C947B
:10373000C64C0C94FA1D0C9416550C94FE1D0C945A
:1037400084230C9427350C94161E0C9471480C9409
:10375000D9940C94033E0C949F1D0C94804D0C94B2
:103760001D390C94441D0C94B3330C947FDF0C94DE
:10377000B9330C949F610C94A0340C94A91D0C9443
:10378000D6350C94951D0C9413610C94E6230C947F
:10379000EEDE0C9477DF0C94CC490C947A3F0C94B9
:1037A00052480C948D36C894D99411241FBECFEF83
:1037B000D1E2DEBFCDBF00E00CBF13E0A0E0B2E07D
:1037C000E0E8FAED01E00BBF02C007900D92A831CE
:1037D000B107D9F719E1A8E1B3E001C01D92A33404
:1037E000B107E1F717E3C8EAD7E300E006C0229784
:1037F0000109FE010BBF0E9412E6C63AD10780E024
:103800000807A9F70E94D8E00C942EED0C94000054
:103810001F920F920FB60F9211242F933F938F9305
:103820009F93AF93BF938091190390911A03A09136
:103830001B03B0911C033091180323E0230F2D3795
:1038400020F40196A11DB11D05C026E8230F0296A4
:10385000A11DB11D209318038093190390931A039F
:10386000A0931B03B0931C0380911D0390911E0332
:10387000A0911F03B09120030196A11DB11D80935B
:103880001D0390931E03A0931F03B0932003BF91C9
:10389000AF919F918F913F912F910F900FBE0F90FD
:1038A0001F9018952FB7F8946091190370911A031F
:1038B00080911B0390911C032FBF08953FB7F8948C
:1038C00080911D0390911E03A0911F03B0912003CE
:1038D00026B5A89B05C02F3F19F00196A11DB11D6B
:1038E0003FBF6627782F892F9A2F620F711D811D88
:1038F000911D42E0660F771F881F991F4A95D1F7E7
:103900000895CF92DF92EF92FF92CF93DF936B01F6
:103910007C010E945E1CEB01C114D104E104F1049E
:1039200079F00E945E1C6C1B7D0B683E7340A0F317
:1039300081E0C81AD108E108F108C851DC4FECCF8A
:10394000DF91CF91FF90EF90DF90CF900895019796
:10395000009739F0880F991F880F991F02970197D8
:10396000F1F70895789484B5826084BD84B5816050
:1039700084BD85B5826085BD85B5816085BDEEE677
:10398000F0E0808181608083E1E8F0E01082808156
:1039900082608083808181608083E0E8F0E08081C4
:1039A00081608083E1EBF0E0808184608083E0EBE4
:1039B000F0E0808181608083E1E9F0E080818260D5
:1039C0008083808181608083E0E9F0E08081816094
:1039D0008083E1EAF0E08081826080838081816081
:1039E0008083E0EAF0E0808181608083E1E2F1E0C1
:1039F000808182608083808181608083E0E2F1E069
:103A0000808181608083EAE7F0E080818460808348
:103A100080818260808380818160808380818068F2
:103A200080831092C10008951F93CF93DF93182FC6
:103A3000EB0161E00E94201E209711F460E004C0B9
:103A4000CF3FD10539F461E0812FDF91CF911F91F4
:103A50000C94591EE12FF0E0ED5AFD4F449150E0D7
:103A6000FA013197E131F10508F091C0EE58FF4FAE
:103A70000C94F8E584B5806884BDC7BD8DC084B55D
:103A8000806284BDC8BD88C08091800080688093BA
:103A90008000D0938900C09388007EC08091800010
:103AA000806280938000D0938B00C0938A0074C0A2
:103AB0008091B00080688093B000C093B3006CC068
:103AC0008091B00080628093B000C093B40064C065
:103AD00080919000806880939000D0939900C0936B
:103AE00098005AC080919000806280939000D0939B
:103AF0009B00C0939A0050C0809190008860809392
:103B00009000D0939D00C0939C0046C08091A0007F
:103B100080688093A0008091A0008F7B8093A0009C
:103B2000D093A900C093A80037C08091A000806204
:103B30008093A000D093AB00C093AA002DC08091C9
:103B4000A00088608093A000D093AD00C093AC002B
:103B500023C080912001806880932001D0932901A7
:103B6000C093280119C080912001806280932001B8
:103B7000D0932B01C0932A010FC08091200188604F
:103B800080932001D0932D01C0932C0105C0C03833
:103B9000D1050CF058CF52CFDF91CF911F910895EE
:103BA00090E0FC013197E131F10508F048C0ED5794
:103BB000FF4F0C94F8E5809180008F7703C08091CF
:103BC00080008F7D80938000089584B58F7702C038
:103BD00084B58F7D84BD08958091B0008F7703C038
:103BE0008091B0008F7D8093B00008958091900007
:103BF0008F7707C0809190008F7D03C080919000E7
:103C0000877F8093900008958091A0008F7707C0F0
:103C10008091A0008F7D03C08091A000877F80935A
:103C2000A0000895809120018F7707C08091200126
:103C30008F7D03C080912001877F809320010895AC
:103C4000CF93DF9390E0FC01E756FD4F2491FC01F8
:103C5000E152FD4F8491882349F190E0880F991F2C
:103C6000FC01E15CFC4FA591B4918B5D9C4FFC0184
:103C7000C591D4919FB7611108C0F8948C9120959B
:103C800082238C93888182230AC0623051F4F89495
:103C90008C91322F309583238C938881822B88835B
:103CA00004C0F8948C91822B8C939FBFDF91CF91AD
:103CB00008950F931F93CF93DF931F92CDB7DEB775
:103CC000282F30E0F901ED5AFD4F8491F901E756B4
:103CD000FD4F1491F901E152FD4F04910023C9F009
:103CE000882321F069830E94D01D6981E02FF0E0D4
:103CF000EE0FFF1FEB5DFC4FA591B4919FB7F894B9
:103D00008C91611103C01095812301C0812B8C938C
:103D10009FBF0F90DF91CF911F910F9108951F9238
:103D20000F920FB60F9211240BB60F922F933F9361
:103D30004F935F936F937F938F939F93AF93BF93B3
:103D4000EF93FF938091250390912603892B29F00F
:103D5000E0912503F09126031995FF91EF91BF9112
:103D6000AF919F918F917F916F915F914F913F9113
:103D70002F910F900BBE0F900FBE0F901F901895B4
:103D80001F920F920FB60F9211240BB60F922F9322
:103D90003F934F935F936F937F938F939F93AF93D3
:103DA000BF93EF93FF938091270390912803892B72
:103DB00029F0E0912703F09128031995FF91EF91E5
:103DC000BF91AF919F918F917F916F915F914F9133
:103DD0003F912F910F900BBE0F900FBE0F901F9031
:103DE00018951F920F920FB60F9211240BB60F92D7
:103DF0002F933F934F935F936F937F938F939F93F3
:103E0000AF93BF93EF93FF938091290390912A037F
:103E1000892B29F0E0912903F0912A031995FF914C
:103E2000EF91BF91AF919F918F917F916F915F9132
:103E30004F913F912F910F900BBE0F900FBE0F909F
:103E40001F9018951F920F920FB60F9211240BB668
:103E50000F922F933F934F935F936F937F938F9323
:103E60009F93AF93BF93EF93FF9380912B03909118
:103E70002C03892B29F0E0912B03F0912C03199549
:103E8000FF91EF91BF91AF919F918F917F916F9132
:103E90005F914F913F912F910F900BBE0F900FBEEE
:103EA0000F901F9018951F920F920FB60F9211242A
:103EB0000BB60F922F933F934F935F936F937F9324
:103EC0008F939F93AF93BF93EF93FF9380912103C1
:103ED00090912203892B29F0E0912103F091220394
:103EE0001995FF91EF91BF91AF919F918F917F9124
:103EF0006F915F914F913F912F910F900BBE0F905B
:103F00000FBE0F901F9018951F920F920FB60F9231
:103F100011240BB60F922F933F934F935F936F93A0
:103F20007F938F939F93AF93BF93EF93FF93809172
:103F3000230390912403892B29F0E0912303F0912E
:103F400024031995FF91EF91BF91AF919F918F91AC
:103F50007F916F915F914F913F912F910F900BBE89
:103F60000F900FBE0F901F9018951F920F920FB6D3
:103F70000F9211240BB60F922F933F934F935F93A1
:103F80006F937F938F939F93AF93BF93EF93FF9321
:103F900080912D0390912E03892B29F0E0912D0320
:103FA000F0912E031995FF91EF91BF91AF919F91E1
:103FB0008F917F916F915F914F913F912F910F90D2
:103FC0000BBE0F900FBE0F901F9018951F920F926F
:103FD0000FB60F9211240BB60F922F933F934F936E
:103FE0005F936F937F938F939F93AF93BF93EF9361
:103FF000FF9380912F0390913003892B29F0E0915A
:104000002F03F09130031995FF91EF91BF91AF917C
:104010009F918F917F916F915F914F913F912F91E0
:104020000F900BBE0F900FBE0F901F901895FF9230
:104030000F931F93CF93DF9388EA9FEF90935503DD
:10404000809354034091480388E0840F405E682FBA
:104050000E94FF290E943C2F809148038435C8F5B7
:1040600049EE54E066E180E00E944B3007E116E142
:10407000C0E0D0E0FC2E40914803842F90E0880FF0
:10408000991FFE017396E817F90744F4440F445151
:104090004C1B202F612F80E00E94472F8091480306
:1040A000482F50E0440F551F4C175D0734F0880F20
:1040B000202F4FE7612F8F1904C0202F4FE7612F6A
:1040C00080E00E94472F21961E5F0E5F1A3291F604
:1040D00009C081508093480349EE54E066E180E0D6
:1040E0000E944B300E94C22980913103811113C07C
:1040F0002091480330E0220F331F40911202429F6B
:10410000C001439F900D112464E670E00E94A3E576
:1041100088E00E94141D80914703811104C08091A2
:1041200053038823E9F18091310381110DC08091FF
:1041300012022FEF829FC001112464E670E00E94FA
:10414000A3E588E00E94141D1092470310924803D3
:104150004CE360E380E30E94FF29809153038111C7
:104160000E94BE3080E094E00E944CEC853579F4EA
:1041700020E030E0A9016091900E7091910E809145
:10418000920E9091930E0E94BFE1811103C085E6CB
:104190009DE302C086ED90E29093500380934F031D
:1041A000DF91CF911F910F91FF90089548E653E062
:1041B0006FE573E089E593E00E94E1248091530369
:1041C000882349F180915403909155039C01295F04
:1041D0003F4F2F30310558F40E94DE668AEA9EE098
:1041E0000E9452D062E070E080EF96E612C09C011F
:1041F000285031092830310528F468EA7FEF8CE136
:1042000093E507C04097089730F468EA7FEF82EDA6
:104210009DE30E94B124809152038823A1F08091F4
:10422000540390915503883A9F4F69F410924703C5
:1042300080914803893C58F068EA7FEF89E291E277
:104240000E94B12404C010924703109248030C94BA
:10425000C2298F929F92BF92CF92DF92EF92FF92EC
:104260000F931F93CF93DF931F921F92CDB7DEB7AB
:104270008091540390915503883A9F4F59F58AE1F4
:1042800090E0909355038093540326E737E043E092
:1042900080E090E0F901E80FF91F40830196853036
:1042A0009105C1F72B5F3F4F87E02538380781F72D
:1042B000109286071092850780E099E39093880713
:1042C0008093870710928A071092890710928C07B3
:1042D00010928B07809154039091550397FF04C06F
:1042E00010925503109254038091540390915503FA
:1042F000880F991F8B36910534F085E390E09093F9
:104300005503809354036091890770918A078091C7
:10431000850790918607860F971F90938607809355
:10432000850740918B0750918C072091870730912A
:104330008807240F351F30938807209387078F3F06
:10434000910509F01CF477FF0DC009C08130ECE73E
:104350009E0764F077FF03C07195619571097195AF
:104360006195710970938A07609389072F3F310522
:1043700009F054F457FF03C05195419551095093EA
:104380008C0740938B0705C02115FEE13F070CF019
:1043900053C0292F220F220B892F922F69E170E041
:1043A0000E94A3E5262F932F990F990B832F6AE084
:1043B00070E00E94A3E545E0649FF0011124E20F44
:1043C000F11DEA58F84F80818823B1F18150808334
:1043D00080918B0790918C0797FF03C091958195F1
:1043E000910990938C0780938B0786E797E020E0F4
:1043F00030E0FC01E20FF31F408141111DC02F5F2F
:104400003F4F25303105A9F70596F7E085389F071E
:1044100071F786E797E043E020E030E0FC01E20F2F
:10442000F31F40832F5F3F4F25303105B9F70596C5
:10443000E7E085389E0781F780918707909188078C
:1044400081309A430CF448C020918507309186074B
:1044500080915403909155030197880F991F582F0D
:1044600044272417350734F04796982F882782175A
:10447000930734F468EA7FEF86ED90E20E94B1245E
:104480008BEF9FEF2091540330915503821B930BC8
:10449000982F8827990F2091850730918607820FE2
:1044A000931F97FDCF96E6E095958795EA95E1F7FE
:1044B0002091890730918A07820F931F90938A0772
:1044C0008093890797FF03C0919581959109925038
:1044D00090938C0780938B0780918B0790918C072A
:1044E000892B59F580E099E390938807809387079B
:1044F00080915403909155039C012B5F3F4F220FF5
:10450000331F10928507209386072091530322239F
:10451000A1F0809763E0880F991F6A95E1F7909367
:104520008A078093890797FF03C091958195910928
:10453000925090938C0780938B070E943C2F06E744
:1045400017E033E047E0B42EB30ECC24CA94C30E78
:1045500056E0D52ED30E480194E07401F401808119
:10456000882361F02B2D43E1490F6C2D8FEF890FCC
:1045700039839A830E949F2E9A813981F401808128
:10458000823059F42D2D42E1490F632F892F398351
:104590009A830E94D12E9A813981FFEF8F1A9F0A48
:1045A000F7018081833059F42D2D42E1490F632FAB
:1045B000892F39839A830E94CD2F9A813981975E02
:1045C000913859F6365F0B5F1F4F313209F0BACF81
:1045D000609188078091860722E0260F42E0480F0D
:1045E0000E949F2E80915403880F45E1480F2FE3CE
:1045F0006CE30E949F2E0F900F90DF91CF911F913F
:104600000F91FF90EF90DF90CF90BF909F908F9091
:104610000C94C2290E9434310E947D58811106C039
:104620000E94D95360E080E00E946C570E948F5531
:1046300087E190E29093500380934F0360E070E035
:1046400088E00E94141D0E94521C68587341810921
:1046500091096093330370933403809335039093EF
:1046600036030895CF92DF92EF92FF920E94FA29CB
:10467000882309F464C10E94133182B382FB882726
:1046800080F991E089279091AE0E981759F090919A
:104690005210992321F091509093521006C08093AC
:1046A000AE0E03C088E28093521090914703809130
:1046B0004803992341F082508093480381110BC035
:1046C0001092470308C08E5F809348038E3719F419
:1046D00081E0809347030E947F7A882309F48FC08A
:1046E0000E943C2F69ED74E08AE00E94362D0E9402
:1046F000867A90E0FC013197EA30F10508F077C046
:10470000EC56FF4F0C94F8E56DEC74E084E10E94E8
:10471000362D46EC54E068E281E00E94B42B43EB76
:1047200054E061C063EA74E084E10E94362D4CE9F4
:1047300054E068E281E00E94B42B49E854E053C0A1
:104740006CE774E084E10E94362D45E754E068E2AE
:1047500081E00E94B42B42E654E045C063E574E07A
:1047600084E10E94362D4CE454E068E281E00E942E
:10477000B42B49E354E037C069E274E084E10E945D
:10478000362D42E254E068E281E00E94B42B4FE013
:1047900054E029C060E074E084E10E94362D49EFC6
:1047A00053E068E281E00E94B42B46EE53E01BC068
:1047B00061ED73E084E10E94362D4AEC53E068E23B
:1047C00081E00E94B42B47EB53E00DC063EA73E035
:1047D00084E10E94362D4CE953E068E281E00E94BA
:1047E000B42B49E853E062E381E00E94B42B80914E
:1047F000480360E8681B482F0E94FF2930C00E94D0
:10480000521CC0903303D0903403E0903503F090F5
:1048100036036C197D098E099F096838734181053B
:10482000910518F58091320381110AC00E943C2F36
:1048300064E773E084E10E94362D81E080933203C7
:104840008091B60B8350833050F40E94521C6093C9
:104850003303709334038093350390933603FF90B2
:10486000EF90DF90CF900C94C229109232032DEC80
:104870003CEC4CE45DE360912C1970912D19809112
:104880002E1990912F190E9494E46B017C0123E36F
:1048900033E343E75FE360910E0270910F02809172
:1048A0001002909111020E9494E49B01AC01C70197
:1048B000B6010E94E6E060930E0270930F028093AF
:1048C0001002909311022DEC3CEC4CE45DE36091FE
:1048D00026197091271980912819909129190E9401
:1048E00094E46B017C0123E333E343E75FE36091EE
:1048F0000A0270910B0280910C0290910D020E94AD
:1049000094E49B01AC01C701B6010E94E6E060930C
:104910000A0270930B0280930C0290930D02E091B7
:104920004F03F09150031995E0914B03F0914C0324
:10493000309729F0FF90EF90DF90CF901994FF907F
:10494000EF90DF90CF90089510923519109234199E
:10495000109233191092321910927A0E08950C9415
:10496000E1300F931F93CF93DF93EC018B011092F3
:10497000460310924703109248034CE360E380E340
:104980000E94FF290E94BE3080914F0390915003F6
:1049900090934E0380934D0380915403909155035F
:1049A00090934A0380934903D0935003C0934F03DD
:1049B0001093550300935403DF91CF911F910F91F2
:1049C0000895EF92FF920F931F93CF93DF938C0183
:1049D0007B01EA012091540330915503283A8FEF6F
:1049E0003807A1F037FF06C0285E3F4F30935503CC
:1049F000209354038091540390915503883191057D
:104A00002CF0489790935503809354030E943C2FB9
:104A10004DE265E080E40E944B2E40E36CE783E0CA
:104A20000E942E2E2091540330915503295F3F4F51
:104A30002F30310590F42BE24BE367E085E00E94D4
:104A40009F2E2AE24AE368E086E00E94CD2FA8016B
:104A500066E181E20E94C62D05C0A80166E181E2FF
:104A60000E945E2D809154039091550308970897FA
:104A700090F42BE24BE767E085E40E949F2E2AE248
:104A80004AE768E086E40E94CD2FA70166E181E64F
:104A90000E94C62D05C0A70166E181E60E945E2D39
:104AA000209739F1809154039091550340970897CE
:104AB000B0F42DE34BE763E385E00E949F2E2CE3E7
:104AC0004AE764E386E00E94CD2FBE0185E3DF91D3
:104AD000CF911F910F91FF90EF900C944A2DBE0142
:104AE00085E3DF91CF911F910F91FF90EF900C9490
:104AF000362DDF91CF911F910F91FF90EF90089588
:104B00000E943C2F40E36CE783E00C942E2E0F9321
:104B10001F93CF93DF931F921F92CDB7DEB78A0109
:104B20002091540330915503283A4FEF3407A9F0F0
:104B300037FF06C0205F3F4F309355032093540347
:104B400020915403309155032031310534F0205128
:104B500031093093550320935403209153032223AA
:104B6000C1F02091540330915503295F3F4F2F30FE
:104B7000310578F46115710531F089839A83FB0161
:104B800019959A818981009721F068EA7FEF0E9448
:104B9000B1240E9480250115110511F402E716E0E9
:104BA000809154039091550307960F97F0F42DE3ED
:104BB0004BE763E385E00E949F2E2CE34AE764E322
:104BC00086E00E94CD2FC8010E9442E9982F990FDC
:104BD000980FA80165E381E4891B0F900F90DF9186
:104BE000CF911F910F910C94702CC8010E9442E943
:104BF000982F990F980FA80165E381E4891B0F9006
:104C00000F90DF91CF911F910F910C94B42BAF9225
:104C1000BF92CF92DF92EF92FF920F931F93CF93A9
:104C2000DF936C01EA0159014091540350915503FF
:104C3000483A8FEF5807A1F057FF06C0405F5F4F1B
:104C4000509355034093540380915403909155031E
:104C5000803191052CF04097909355038093540335
:104C600080915303882331F180915403909155032F
:104C70009C01295F3F4F2F30310560F461157105AC
:104C800011F0FB011995C114D104A1F068EA7FEF7E
:104C9000C6010EC00897089768F40115110511F0B8
:104CA000F8011995A114B10429F068EA7FEFC50154
:104CB0000E94B1240E948025809154039091550355
:104CC00007960F97C8F42DE34EE363E385E00E9457
:104CD0009F2E2CE34DE364E386E00E94CD2FCE01AE
:104CE0000E9442E9982F990F980FAE0165E383E285
:104CF000891B0E94702C0CC0CE010E9442E9982FA3
:104D0000990F980FAE0165E383E2891B0E94B42BD3
:104D100080915403909155030897089710F52DE35F
:104D20004AE763E382E40E949F2E2CE349E764E3B1
:104D300083E40E94CD2FC7010E9442E9982F990F6A
:104D4000980FA70165E38FE5891BDF91CF911F9134
:104D50000F91FF90EF90DF90CF90BF90AF900C94A9
:104D6000702CC7010E9442E9982F990F980FA70154
:104D700065E38FE5891BDF91CF911F910F91FF9024
:104D8000EF90DF90CF90BF90AF900C94B42BDF9258
:104D9000EF92FF920F931F93CF93DF93D82E2EE2C3
:104DA0004CE766E283E00E949F2EC0E0D0E00D2D2C
:104DB00010E0015011098CE0E82EF12CEC2FCD15FC
:104DC000D0F4C937D105B9F0C8018C1B9D0BB701D0
:104DD0000E94A3E5482F853018F4485D68E205C0BD
:104DE0008A3038F463E2640F4CE284E08E0F0E9454
:104DF0004B2E2196E3CFDF91CF911F910F91FF9022
:104E0000EF90DF9008952F923F924F925F926F92B2
:104E10007F928F929F92AF92BF92CF92DF92EF924A
:104E2000FF920F931F93CF93DF935C017A01690187
:104E3000809153038111DBC08091540390915503FD
:104E4000883A9F4F21F410925503109254032091F9
:104E5000540330915503862E992487FC909437FF94
:104E60000BC0C401880F991F880F991F820F931FD1
:104E7000909355038093540380915403909155036C
:104E80009401220F331F220F331F821793074CF018
:104E9000E4E06E02801991091124909355038093E8
:104EA0005403009154031091550317FF02C00D5F86
:104EB0001F4F1595079515950795702E0E943C2F4D
:104EC0008091370390913803D801BB2773E0AA0F74
:104ED000BB1F7A95E1F71F97A81BB90BED01B7FD32
:104EE0002396D595C795D595C795C80FD91F1A167E
:104EF0001B0614F4219608C0AB2B29F4D093380379
:104F0000C093370309C02197D0933803C093370368
:104F10001092470310924803809137039091380311
:104F2000282F27703AE0632E43E0969587954A959F
:104F3000E1F7382E621AC0E0D0E02C2E230C222D8F
:104F400030E028153905DCF4822DF70119952C0184
:104F5000FC01148A27100EC027E0260D4CE76FEFE6
:104F6000660D83E00E94CD2FA201662D84E00E9491
:104F7000C82A05C0AC01662D84E00E94062A21964D
:104F8000F8E06F0EC630D105C1F628E04CE760E0CE
:104F900083E00E94CD2F2FE34CE76FE283E00E9475
:104FA000472F29E04CE769E083E00E94472F40E368
:104FB0006CE783E00E942E2EB50181E00E944A2D0D
:104FC000802FF6011995DF91CF911F910F91FF90DE
:104FD000EF90DF90CF90BF90AF909F908F907F9099
:104FE0006F905F904F903F902F900C94C229DF916B
:104FF000CF911F910F91FF90EF90DF90CF90BF90D6
:10500000AF909F908F907F906F905F904F903F9068
:105010002F9008950F931F93CF93DF93CDB7DEB7F3
:1050200060970FB6F894DEBF0FBECDBF80913D03F1
:1050300090913E032091540330915503281739076E
:1050400024F4909355038093540380913B039091F3
:105050003C0320915403309155038217930724F4A5
:10506000909355038093540380913F03813041F422
:10507000E0914003F09141038091540380838EC0FE
:10508000823059F4E0914003F09141038091540340
:10509000909155039183808381C08330A9F400915E
:1050A0004003109141036091540370915503882788
:1050B00077FD8095982F0E9461E220E030E048EC77
:1050C00052E40E94C6E165C0843089F4E091400357
:1050D000F09141038091540390915503AA2797FDC5
:1050E000A095BA2F80839183A283B38357C0853064
:1050F000A1F4E0914003F0914103209154033091D9
:1051000055034FEF429FC001439F900D112464E669
:1051100070E00E94A3E5608341C0863099F400915D
:105120004003109141036091540370915503882707
:1051300077FD8095982F0E9461E220E030E040E703
:1051400052E414C08730A9F4009140031091410348
:105150006091540370915503882777FD8095982FAF
:105160000E9461E220E030E048EC52E40E9494E4C6
:1051700010C0883099F40091400310914103609170
:10518000540370915503882777FD8095982F0E94CE
:1051900061E2F80160837183828393830E9480259A
:1051A000609144037091450384E10E94362D209163
:1051B0003F03809154039091550300914203109155
:1051C00043032330A1F4BC01882777FD8095982FF5
:1051D0000E9461E220E030E048EC52E40E94C6E127
:1051E0009801AE014F5F5F4F0E940B3306C0A801CC
:1051F000BE016F5F7F4F0E94FD31BE016F5F7F4F29
:105200008EE10E94942B6BE676E0CE0101960E941F
:105210003BE920913F0300914203109143038091A9
:10522000390390913A032330A1F4BC01882777FD1C
:105230008095982F0E9461E220E030E048EC52E433
:105240000E94C6E19801AE01495F5F4F0E940B3397
:1052500006C0A801BE01695F7F4F0E94FD31BE01FB
:105260006F5F7F4F85E30E94942B0E94C22980913B
:105270005303882351F06091490370914A03809150
:105280004D0390914E030E94B12460960FB6F8949E
:10529000DEBF0FBECDBFDF91CF911F910F9108955B
:1052A0009091BC0097FFFCCF8093BB0084E8809373
:1052B000BC0008958091BC0087FFFCCF84E98093F7
:1052C000BC0008951F93CF93DF931F92CDB7DEB735
:1052D000182F84EA8093BC0080EC69830E945029D7
:1052E000812F0E9450296981862F0E9450290F909A
:1052F000DF91CF911F910C945A291F920F920FB6F4
:105300000F9211240BB60F922F933F934F935F93FD
:105310006F937F938F939F93AF93BF93EF93FF937D
:105320008091570390915803811524E0920719F456
:105330000E945A2914C0FC01E45AFC4F80810E944B
:1053400050298091BC0081608093BC0080915703FC
:105350009091580301969093580380935703FF91BF
:10536000EF91BF91AF919F918F917F916F915F91DD
:105370004F913F912F910F900BBE0F900FBE0F904A
:105380001F90189560915B0382E00E9462296091F2
:105390005A0383E00E9462296091590384E00E94CD
:1053A000622984EA8093BC0088E70E94502980E04B
:1053B0000E94502980E00E94502980E10E945029DB
:1053C00080EB0E9450298091BC0087FFFCCF84EACB
:1053D0008093BC0088E70E94502980E40E945029F5
:1053E00010925803109257038091BC008160809303
:1053F000BC0008958091BC008095817008958093D1
:105400005B0360935A034093590308951F93CF930E
:10541000DF93962F969596959695C82FD0E080E8C5
:10542000989FC00DD11D1124DE01A45ABC4FC45257
:10543000DC4F677078E0761B15E0FA0120812223AB
:1054400009F4A2C030E020523109129FC001139F1D
:10545000900D11248057994FFC012491062E01C014
:10546000220F0A94EAF73C91232B2C933196E49176
:10547000062E01C0EE0F0A94EAF711962C911197AF
:10548000E22B1196EC931197FC013296E491062ED3
:1054900001C0EE0F0A94EAF712962C911297E22BB4
:1054A0001296EC931297FC013396E491062E01C0FC
:1054B000EE0F0A94EAF713962C911397E22B1396AA
:1054C000EC931397FC0134968491062E01C0880F4B
:1054D0000A94EAF714969C911497892B14968C934E
:1054E00014971696662309F44CC0FA01208130E027
:1054F00020523109129FC001139F900D1124805733
:10550000994FFC01249130E0072E02C03595279574
:105510000A94E2F73881322B38833196E491F0E037
:10552000072E02C0F595E7950A94E2F729812E2B04
:105530002983FC013296E491F0E0072E02C0F59534
:10554000E7950A94E2F72A812E2B2A83FC013396F1
:10555000E491F0E0072E02C0F595E7950A94E2F792
:105560002B812E2B2B83FC013496849190E0072E07
:1055700002C0959587950A94E2F79C81982B9C83AD
:1055800026964F5F5F4F59CFDF91CF911F910895BE
:105590001F93CF93DF93962F969596959695C82F48
:1055A000D0E080E8989FC00DD11D1124DE01A45ADF
:1055B000BC4FC452DC4F677078E0761B15E0FA01EF
:1055C0002081222309F4ACC030E020523109129F1F
:1055D000C001139F900D11248057994FFC01249115
:1055E000062E01C0220F0A94EAF720953C9132233F
:1055F0003C933196E491062E01C0EE0F0A94EAF72F
:10560000E09511962C9111972E2311962C931197BA
:10561000FC013296E491062E01C0EE0F0A94EAF7DF
:10562000E09512962C9112972E2312962C93129796
:10563000FC013396E491062E01C0EE0F0A94EAF7BE
:10564000E09513962C9113972E2313962C93139772
:10565000FC0134968491062E01C0880F0A94EAF763
:10566000809514969C911497982314969C93149764
:105670001696662309F451C0FA01208130E02052C9
:105680003109129FC001139F900D11248057994F2B
:10569000FC01249130E0072E02C0359527950A942D
:1056A000E2F720953881322338833196E491F0E097
:1056B000072E02C0F595E7950A94E2F7E095298157
:1056C0002E232983FC013296E491F0E0072E02C0DC
:1056D000F595E7950A94E2F7E0952A812E232A832F
:1056E000FC013396E491F0E0072E02C0F595E795B2
:1056F0000A94E2F7E0952B812E232B83FC0134964C
:10570000849190E0072E02C0959587950A94E2F760
:1057100080959C8198239C8326964F5F5F4F4FCF47
:10572000DF91CF911F910895AB01FB010190002003
:10573000E9F73197E61BF70B9E2F990F9E0F682F05
:1057400080E4891B0C94062AAB01FB010190002028
:10575000E9F73197E61BF70B9E2F990F9E0F682FE5
:1057600080E4891B0C94C82ABF92CF92DF92EF92FB
:10577000FF920F931F93CF93DF93962F9695969555
:105780009695C82FD0E080E8989FC00DD11D1124B8
:10579000DE01A45ABC4FC452DC4F677078E0761B20
:1057A000FA01249185E0B82E222309F48FC030E05D
:1057B00020523109B29EC001B39E900D1124805732
:1057C000994FFC01C490D12C9601062E01C0220FE6
:1057D0000A94EAF73C91322B3C933196E490F12CF9
:1057E0009701062E01C0220F0A94EAF711963C9108
:1057F0001197322B11963C931197FC01329604912C
:1058000010E09801062E01C0220F0A94EAF71296C2
:105810003C911297322B12963C931297FC013396CF
:10582000249130E0F901062E01C0EE0F0A94EAF748
:105830001396FC911397FE2B1396FC931397FC0180
:105840003496849190E0FC01062E01C0EE0F0A947C
:10585000EAF71496FC911497FE2B1496FC93149778
:105860001696662371F1072E02C0D594C7940A9448
:10587000E2F7E881EC29E883072E02C0F594E7946B
:105880000A94E2F7E981EE29E983072E02C0159513
:1058900007950A94E2F7EA81E02BEA83072E02C01B
:1058A000359527950A94E2F73B81322B3B83072EEF
:1058B00002C0959587950A94E2F79C81982B9C836A
:1058C00026964F5F5F4FFA0124916ECFDF91CF9103
:1058D0001F910F91FF90EF90DF90CF90BF900895B0
:1058E000BF92CF92DF92EF92FF920F931F93CF93CD
:1058F000DF93962F969596959695C82FD0E080E8E1
:10590000989FC00DD11D1124DE01A45ABC4FC45272
:10591000DC4F677078E0761BFA01249195E0B92E90
:10592000222309F499C030E020523109B29EC0010F
:10593000B39E900D11248057994FFC01C490D12C37
:105940009601062E01C0220F0A94EAF720953C9199
:1059500032233C933196E490F12C9701062E01C03E
:10596000220F0A94EAF7209511963C911197322361
:1059700011963C931197FC013296049110E0980126
:10598000062E01C0220F0A94EAF7209512963C9148
:105990001297322312963C931297FC01339624916E
:1059A00030E0F901062E01C0EE0F0A94EAF7E09507
:1059B0001396FC911397FE231396FC931397FC0107
:1059C0003496849190E0FC01062E01C0EE0F0A94FB
:1059D000EAF7E0951496FC911497FE231496FC9335
:1059E00014971696662399F1072E02C0D594C79492
:1059F0000A94E2F7C094E881EC21E883072E02C004
:105A0000F594E7940A94E2F7E094E981EE21E983C2
:105A1000072E02C0159507950A94E2F70095EA81D2
:105A2000E023EA83072E02C0359527950A94E2F712
:105A300020953B8132233B83072E02C095958795A5
:105A40000A94E2F780959C8198239C8326964F5F69
:105A50005F4FFA01249164CFDF91CF911F910F9195
:105A6000FF90EF90DF90CF90BF9008951F93CF935A
:105A7000DF93182FEB01CB010E9442E9982F990F79
:105A8000980FAE01612F80E4891BDF91CF911F91A8
:105A90000C94B42B1F93CF93DF93182FEB01CB0102
:105AA0000E9442E9982F990F980FAE01612F80E470
:105AB000891BDF91CF911F910C94702CAF92BF92F4
:105AC000CF92DF92EF92FF920F931F93CF93DF93CA
:105AD000CDB7DEB72A970FB6F894DEBF0FBECDBFA5
