:100000000C946E1C0C942B1F0C945C1F0C948D1F75
:100010000C94BE1F0C94EF1F0C9420200C945120C4
:100020000C9482200C949F1C0C949F1C0C949F1C7D
:100030000C949F1C0C948FEC0C949F1C0C949F1C94
:100040000C949F1C0C9485C60C949F1C0C949F1CB4
:100050000C949F1C0C949F1C0C949DD70C94A11C79
:100060000C949F1C0C9424A00C949F1C0C949F1C1B
:100070000C949F1C0C949F1C0C949F1C0C949F1C14
:100080000C949F1C0C949F1C0C949F1C0C949F1C04
:100090000C949F1C0C949F1C0C949F1C0C94FD2989
:1000A0000C949F1C0C949F1C0C949F1C0C949F1CE4
:1000B0000C949F1C0C949F1C0C949F1C0C949F1CD4
:1000C0000C949F1C0C949F1C0C949F1C0C949F1CC4
:1000D0000C949F1C0C949F1C0C949F1C0C949F1CB4
:1000E0000C949F1CD71DDC1DE11DEB1D641EF51D2E
:1000F000FD1D051E0F1E191E231E321E3C1E641EF2
:10010000461E501E5A1E841E871E7A1E7E1EBE1E4E
:100110008B1E8F1E951E991E9D1EA31EA71EAB1E15
:10012000BE1EB11EB51EB91E142414242224302470
:100130004C245A246824762487243E24EFEAF2EAE9
:10014000EFEBF1EBF3EBF5EBA5EBF7EBF9EBFCEBFE
:10015000A5EBFFEB03ECC2EB05EC07EC09ECA5EB20
:10016000CFEBE5EBE0EBA5EBEAEB07EB09EB17EBED
:1001700019EB1BEB1DEB23EB25EB27EB29EB33EB0B
:1001800035EB39EB3BEB41EB43EBA5EBA5EBA5EBFB
:10019000A5EBA5EBA5EBA5EBA5EBA5EBA5EBA5EBDF
:1001A000A5EBA5EBA5EBA5EBA5EBA5EBA5EBA5EBCF
:1001B000A5EBA5EBA5EBA5EBA5EBA5EBA5EBA5EBBF
:1001C000A5EBA5EBA5EBA5EBA5EBA5EBA5EBA5EBAF
:1001D000A5EBA5EBA5EBA5EBA5EBA5EBA5EBA5EB9F
:1001E000A5EBA5EBA5EBA5EBA5EBA5EBA5EBA5EB8F
:1001F000A5EBA5EBA5EBA5EBA5EBA5EBA5EBA5EB7F
:10020000A5EBA5EB4AEB6AEB084AD73B3BCE016E68
:1002100084BCBFFDC12F3D6C74319ABD56833DDA5D
:100220003D00C77F11BED9E4BB4C3E916BAAAABE6C
:10023000000000803F05A84CCDB2D44EB93836A995
:10024000020C50B9918688083CA6AAAA2ABE0000D2
:1002500000803F000C9449350C9436250C94D33B18
:100260000C94FD470C943E4A0C94DC350C947D4470
:100270000C9418510C94174F0C94B3540C94E33B0A
:100280000C9439EB0C94F51D0C9480420C944B4A61
:100290000C94AE520C943BEB0C943F580C9441EBF5
:1002A0000C94E0EB0C9405EC0C9472550C94B63D58
:1002B0000C94333F0C9421640C94D8630C947166B5
:1002C0000C94841E0C948F1E0C9468240C94F3EBF5
:1002D0000C94501E0C942B720C94EFEB0C94513F29
:1002E0000C940D500C9423EB0C940F1E0C9443EBC8
:1002F0000C9487240C9405520C94FCEB0C948C28E1
:100300000C94EF6B0C9430240C94CC6F0C9409EB90
:100310000C941DEB0C94094E0C94FD630C94DA556F
:100320000C9427380C94FD1D0C944E700C94A9511C
:100330000C9439770C941F6D0C9491510C947B6C38
:100340000C94BE1E0C94F2EA0C949A4F0C94C721A4
:100350000C940F430C9464380C94673F0C947342D4
:100360000C94B3200C947E1E0C94E5EB0C94A31E0D
:100370000C9404580C9414240C944E400C94F5EBFB
:100380000C94321E0C94871E0C9417EB0C9433675C
:100390000C94EC5D0C943C1E0C94FFEB0C94FE470B
:1003A0000C94CC440C94FF6E0C949B6F0C944D48B1
:1003B0000C94936C0C94923B0C94043B0C94674704
:1003C0000C9429EB0C94E5360C9488350C946F3D15
:1003D0000C94B91E0C94B5680C940D690C94B51E60
:1003E0000C94DA510C9439500C94B55F0C94641E43
:1003F0000C9473390C94AF4D0C946C3C0C94AC4938
:100400000C94C2EB0C94DC1D0C94231E0C94991ECE
:100410000C94553D0C943CAE0C945A240C94051E3F
:100420000C94346E0C946F3E0C94156D0C947D6599
:100430000C94F7EB0C9407EC0C94CB340C944C24F8
:100440000C945A1E0C94FC4C0C949C3B0C94A6559A
:100450000C94694E0C9418480C9446520C941E62ED
:100460000C9409EC0C940D3F0C94FC350C94FE4854
:100470000C94EAEB0C94DC3E0C9476240C9422242D
:100480000C944AEB0C9443650C94B11E0C944744B5
:100490000C94B2350C94EB1D0C94664A0C94C66C0B
:1004A0000C941D640C943F470C9437480C94293AE3
:1004B0000C94EFEA0C9427EB0C94AE3E0C947C3633
:1004C0000C94BD380C94E0370C949C3A0C948B1E21
:1004D0000C9484400C9419EB0C944E410C94A5EBB5
:1004E0000C94E11D0C94D71D0C94E7410C949D1EB7
:1004F0000C944E370C9499370C945E640C94A5467A
:100500000C94E09F0C94BC4D0C9433EB0C941A6546
:100510000C94F19F0C94F9EB0C94EC3C0C94CC48AB
:100520000C9425EB0C94A1690C94D54E0C9439369F
:100530000C941BEB0C943E240C9474210C94CFEB84
:100540000C94F1EB0C9435EB0C94EC640C94191EA8
:100550000C9403EC0C94C5340C94AB1E0C94461E06
:100560000C947A1E0C94A71E0C946AEB0C9407EB67
:100570000C942B4B0C94FD3D0C947E620C94951EB8
:100580000C945F480C940A354E414E494E495459DB
:10059000494E46CDCCCC3D0AD7233C17B7D138774E
:1005A000CC2B329595E6241FB14F0A000020410064
:1005B00000C84200401C4620BCBE4CCA1B0E5AAEAE
:1005C000C59D740000090A02080B0C0D0706030400
:1005D000010000000000000000000000000000001A
:1005E00000000000000000000000000000000011FA
:1005F000100F0000000000000000000000000000DC
:100600000000000000000000000102102020080887
:100610001020401020408002010201080402010164
:10062000020408102040808040201008040201804D
:1006300004020180402010080402010804020101A4
:1006400002040810204080010204081020408005A8
:10065000050505070508080808020202020A0A083B
:100660000804040404010101010101010103030361
:100670000303030303040707070C0C0C0C0C0C0CFE
:100680000C0202020206060606060606060B0B0B05
:100690000B0B0B0B0B00002200250028002B002E5B
:1006A000003100340002010000050108010B0100C7
:1006B000002100240027002A002D00300033000113
:1006C000010000040107010A015052494E54004D37
:1006D0004154455249414C004D41494E54454E41CB
:1006E0004E4345005072696E74696E672077697475
:1006F00068205553422E2E2E00756C74696D616B07
:1007000065722E636F6D2F4552303700476F20742E
:100710006F3A0058206F72205920737769746368AC
:1007200020737475636B00756C74696D616B6572B1
:100730002E636F6D2F4552303700476F20746F3A2C
:100740000058206F722059207377697463682062A3
:10075000726F6B656E00756C74696D616B65722E7E
:10076000636F6D2F4552303600476F20746F3A002B
:100770005A2073776974636820737475636B0075AE
:100780006C74696D616B65722E636F6D2F455230AD
:100790003500476F20746F3A005A2073776974638D
:1007A000682062726F6B656E00756C74696D616B49
:1007B00065722E636F6D2F4552303400476F207481
:1007C0006F3A005361666574792063697263756975
:1007D0007400756C74696D616B65722E636F6D2F3B
:1007E0004552303300476F20746F3A00486561749A
:1007F0006572206572726F7200756C74696D616BE1
:1008000065722E636F6D2F4552303200476F207432
:100810006F3A0054656D702073656E736F7220427D
:10082000454400756C74696D616B65722E636F6D04
:100830002F4552303100476F20746F3A0054656D78
:10084000702073656E736F72004552524F52202DA7
:100850002053544F5050454400801506060606FEAE
:10086000FEFEFEFC00000000000000FCFEFEFEFCA0
:100870000000000EFEFEFEFE0000E0FCFEFEFCE0BE
:10088000E0000000CECECE000000C0C0C0C0C0C09E
:100890008000000000000080C0C080000000000058
:1008A000008080C0C0C0C0C0C0C080800000000008
:1008B00006FEFEFEFE0000000080C0C0C00000007A
:1008C0000000008080C0C0C080808000000000C0A8
:1008D000C0C0C00080C0C0C0C08000000000007F59
:1008E000FFFFFFFF80000000000080FFFFFFFFFF11
:1008F00000000000FFFFFFFF000000FFFFFFFF0000
:1009000000000000FFFFFF00000081F1FFFF3F0F2C
:100910003FFFFCF0F0FCFF3F0F3FFFFEF8800000C0
:1009200000C1E1F1F17131010183FFFFFFFC000023
:1009300000FFFFFFFF000C3EFFFFF7C301000000B8
:10094000FCFEFF8703113131333F3F3F1E000001A2
:10095000FFFFFFFF0703010101010000000000008D
:10096000010307070F0F0F0F0F0F0F0707070F0FD9
:1009700006000000070F0F07000000070F0F070019
:10098000000000000F0F0F0000060F0F070100000E
:100990000001070F0F070100000001070F0F0600FD
:1009A0000003070F0F0E0E060703070F0F070000C7
:1009B00000070F0F0700000000030F0F0F060000D5
:1009C000000307070F0E0E0E0E0E0E0600000000AD
:1009D0000F0F0F0F00000000000000507265763A04
:1009E000200043414E43454C002073656300206D59
:1009F000696E0020686F75720020686F75727300F1
:100A0000000000000000005F000000070007001465
:100A10007F147F14242A7F2A122313086462364924
:100A20005522500005030000001C22410000412215
:100A30001C00082A1C2A0808083E0808005030003C
:100A40000008080808080060600000201008040280
:100A50003E5149453E00427F400042615149462196
:100A600041454B311814127F1027454545393C4A02
:100A70004949300171090503364949493606494952
:100A8000291E0036360000005636000000081422E9
:100A900041141414141441221408000201510906CF
:100AA000324979413E7E1111117E7F494949363ED6
:100AB000414141227F4141221C7F494949417F09EF
:100AC0000901013E414151327F0808087F00417F02
:100AD00041002040413F017F081422417F404040B7
:100AE000407F0204027F7F0408107F3E4141413E67
:100AF0007F090909063E4151215E7F0919294646B1
:100B00004949493101017F01013F4040403F1F20D9
:100B100040201F7F2018207F63140814630304788B
:100B20000403615149454300007F4141020408101C
:100B30002041417F00000402010204404040404047
:100B4000000102040020545454787F48444438384B
:100B500044444420384444487F3854545418087E50
:100B6000090102081454543C7F0804047800447DB1
:100B700040002040443D00007F10284400417F4059
:100B8000007C041804787C08040478384444443811
:100B90007C14141408081414187C7C0804040848F5
:100BA00054545420043F4440203C4040207C1C20AE
:100BB00040201C3C4030403C44281028440C5050FD
:100BC000503C4464544C44000836410000007F000F
:100BD00000004136080008082A1C08081C2A0808DA
:100BE000473120462569205A256920582569205912
:100BF000256900473238205A3020583020593000BB
:100C00006275696C64706C6174652E006F6620613A
:100C1000646A757374696E6720796F7572007468A1
:100C2000726F756768207468652070726F63657392
:100C30007300492077696C6C206775696465207959
:100C40006F7500434F4E54494E55450043414E4346
:100C5000454C00473238205A3000746F207072695A
:100C60006E742069742100616E6420707265737304
:100C70002074686520627574746F6E006F6E2074E6
:100C800068652053442D636172640053656C65632D
:100C9000742061207072696E742066696C65003220
:100CA000312F3231004C45542753205052494E5475
:100CB0000052656164696E6720636172642E2E2E36
:100CC0000032312F323100796F757220556C7469A2
:100CD0006D616B6572322E2E2E0074686174206314
:100CE000616D65207769746800506C65617365207B
:100CF000696E736572742053442D636172640032AF
:100D0000312F3231006D616B6520612033442050FA
:100D100072696E74210049276D20726561647920C3
:100D20006C657427730032302F32310041524520F8
:100D3000594F552052454144593F0066726F6D200E
:100D40006E6F7A7A6C652E2E2E006D6174657269F5
:100D5000616C2065786974730050757368206275E2
:100D600074746F6E207768656E0031392F323100F0
:100D7000434F4E54494E5545004C6F6164696E6750
:100D8000206D6174657269616C2E2E2E0031382FD2
:100D900032310061626F766520746865206172721D
:100DA0006F772E00796F757220556C74696D616B69
:100DB0006572322C0066726F6D20746865207265F2
:100DC0006172206F6600496E73657274206E65777C
:100DD000206D6174657269616C0031372F323100AA
:100DE000434F4E54494E5545006D617465726961BB
:100DF0006C206C6F6164696E67007072696E7468F4
:100E00006561642068656174696E6720666F720051
:100E1000506C6561736520776169742C0031362FE1
:100E200032310053656C65637420746865206D61B0
:100E300074657269616C00697420697320757369E7
:100E40006E672E006F66206D6174657269616C005B
:100E50006B6E6F77732077686174206B696E6400C6
:100E60004E6F7720796F757220556C74696D616B68
:100E70006572320031352F323100434F4E54494EA6
:100E800055450069732074686973207269676874D6
:100E90003F00596F7520686176652063686F7365E0
:100EA0006E0031342F323100594553004E4F00202F
:100EB0006173206D6174657269616C2C0031332F30
:100EC0003231004D4154455249414C00556C7469D2
:100ED0006D616B6572322E00696E73657274206984
:100EE0006E2074686973006D6174657269616C204D
:100EF000796F752077696C6C004E6578742C20735F
:100F0000656C656374207468650031322F3231007E
:100F10005245414459004D38340047312046313262
:100F200030303020583131302059313000746F204A
:100F3000696E73657274206D6174657269616C2E7F
:100F400000746865206E657874207374657020691C
:100F50007300746865206275696C64706C61746597
:100F6000004E6F772074686174207765206C657619
:100F7000656C65640031312F323100434F4E544966
:100F80004E55450074686520726967687420636F08
:100F9000726E65722E2E2E0052657065617420741B
:100FA00068697320666F720031302F323100434F11
:100FB0004E54494E554500444F4E450074686520D7
:100FC0006C65667420636F726E65722E2E2E0052F1
:100FD0006570656174207468697320666F7200398A
:100FE0002F323100434F4E54494E554500626974CB
:100FF00020726573697374616E63652E00756E741B
:10100000696C20796F75206665656C20610062757A
:10101000696C64706C61746520616E64206E6F7AB7
:101020007A6C6500536C696465206120706170653D
:1010300072206265747765656E00382F3231004327
:101040004F4E54494E554500434F4E54494E554519
:1010500000473120462569205A3000473120462577
:10106000692058256920592569004731204625699E
:10107000205A3500746865206275696C64706C6113
:101080007465206C6576656C2E00706170657220E9
:10109000746F2066696E652D74756E65006E6F776E
:1010A000207573652061207368656574206F660024
:1010B000526570656174207468697320737465701B
:1010C0002C2062757400372F323100434F4E544943
:1010D0004E55450066726F6D2074686520627569B3
:1010E0006C64706C6174652E0069732061206D6999
:1010F0006C6C696D657465722061776179007363EA
:101100007265772074696C6C20746865206E6F7AE4
:101110007A6C65005475726E20726967687420621B
:1011200075696C64706C61746500362F32310043F0
:101130004F4E54494E554500473120462569205AA7
:1011400030004731204625692058256920592569F6
:1011500000473120462569205A350066726F6D20A0
:10116000746865206275696C64706C6174652E00CA
:1011700069732061206D696C6C696D65746572209E
:10118000617761790073637265772074696C6C2094
:10119000746865206E6F7A7A6C65005475726E2083
:1011A0006C656674206275696C64706C617465004E
:1011B000352F323100434F4E54494E55450047318B
:1011C00020462569205A300047312046256920589D
:1011D00025692059256900473120462569205A355F
:1011E0000066726F6D20746865206275696C64704A
:1011F0006C6174652E0061206D696C6C696D65743D
:101200006572206177617900756E74696C2074680D
:1012100065206E6F7A7A6C6520697300526F746115
:1012200074652074686520627574746F6E00342F65
:10123000323100434F4E54494E554500434F4E54B2
:10124000494E554500473120462569205A256920D9
:1012500058256920592569004732382058302059CF
:101260003000676F696E6720746F20646F20746848
:101270006174206E6F772E0061646A7573746D659A
:101280006E74732C20776520617265007765206E1F
:1012900065656420746F20646F20736F6D65004115
:1012A00066746572207472616E73706F72746174AB
:1012B000696F6E00332F323100434F4E54494E5503
:1012C0004500473120462569205A256900473238B4
:1012D000205A3000612066697273742072756E2026
:1012E00077697A6172642E0077616C6B20796F7513
:1012F000207468726F756768006669727374207312
:1013000074617274757020492077696C6C00426555
:1013100063617573652074686973206973207468EC
:101320006500322F323100434F4E54494E5545002F
:10133000627574746F6E20746F20636F6E74696E63
:10134000756500556C74696D616B65722120507212
:1013500065737320746865007374617274757020AE
:101360006F6620796F75720057656C636F6D6520CD
:10137000746F2074686520666972737400312F324F
:101380003100434F4E54494E5545004300432F0012
:10139000436C69636B20746F2072657475726E00A4
:1013A0004275696C64706C6174652074656D702E33
:1013B0003A003F3F3F00466163746F727920726567
:1013C0007365740052756E74696D65207374617411
:1013D000730056657273696F6E004D6F74696F6E3E
:1013E0002073657474696E67730053657420666159
:1013F0006E207370656564004D6F7665206D617455
:10140000657269616C00496E73657274206D6174F8
:10141000657269616C005261697365206275696CFF
:1014200064706C617465004C6F77657220627569D9
:101430006C64706C61746500486F6D6520686561EF
:101440006400486561747570206275696C64706CC5
:1014500061746500486561747570206E6F7A7A6C8E
:1014600065004C45442073657474696E6773003C75
:101470002052455455524E00566572733A5F322ED3
:101480003465780025004300432F004300432F00BC
:1014900025003F3F3F0020476C6F77207768656EDF
:1014A00020646F6E6500204F6E207768696C652040
:1014B0007072696E74696E670020416C7761797330
:1014C000204F66660020416C77617973204F6E0073
:1014D0004272696768746E657373003C20524554AC
:1014E00055524E00250025004272696768746E658A
:1014F0007373004C4544004300432F00436C696301
:101500006B20746F2072657475726E004E6F7A7AFC
:101510006C652074656D70657261747572653A00F2
:10152000473238205830205930004300432F0043C1
:101530006C69636B20746F2072657475726E0052F3
:101540006F7461746520746F20657874727564655A
:10155000004E6F7A7A6C652074656D706572617487
:101560007572653A003F3F3F0043757272656E7455
:1015700020450043757272656E74205A004375727F
:1015800072656E7420582F59004D61782073706514
:101590006564205A004D6178207370656564205938
:1015A000004D6178207370656564205800582F598C
:1015B000204A65726B00416363656C657261746992
:1015C0006F6E003C2052455455524E006D41006DE7
:1015D00041006D41006D6D2F736563006D6D2F735C
:1015E0006563006D6D2F736563006D6D2F736563AB
:1015F000006D6D2F7365635E32006D41004375723F
:1016000072656E742045006D410043757272656E9F
:1016100074205A006D410043757272656E742058D3
:101620002F59006D6D2F736563004D6178207370C5
:10163000656564205A006D6D2F736563004D617898
:101640002073706565642059006D6D2F73656300AC
:101650004D61782073706565642058006D6D2F733F
:10166000656300582F59204A65726B0030306D6DEC
:101670002F7365635E3200416363656C65726174EC
:10168000696F6E004D4F54494F4E00566572733A64
:101690005F322E3465780044656320203820323074
:1016A00031362031333A35373A313300526574756B
:1016B000726E006D00204D61743A003A00507269FC
:1016C0006E74696E673A003A004D616368696E65D1
:1016D000206F6E20666F723A0052657475726E00EC
:1016E000746F2064656661756C743F005265736544
:1016F000742065766572797468696E670059455320
:10170000004E4F00250046616E20737065656400D1
:101710004731204625692058256920592569004709
:101720003238205830205930004731205A343000A8
:10173000473238205A3000473238205A300047327A
:101740003820583020593000473238205A30004174
:101750004456414E434544004255494C442D7C502B
:101760004C41544500414456414E43454400524586
:101770005455524E004350450041425300504C4195
:101780000054505520393541004350452B004E79C7
:101790006C6F6E005043004350450041425300506F
:1017A0004C4100250046616E3A200043004300256D
:1017B00000466C6F773A006D6D00636F6D65732046
:1017C0006F757420746865206E6F7A7A6C65005747
:1017D0006169742074696C6C206D617465726961F3
:1017E0006C0052454144590043414E43454C00462C
:1017F0006F7277617264696E67206D61746572697A
:10180000616C0061626F7665207468652061727238
:101810006F772E00796F7572206D616368696E65F0
:101820002C0066726F6D20746865206261636B7353
:10183000696465206F6600496E73657274206E6519
:1018400077206D6174657269616C0052454144593D
:101850000043414E43454C006D6174657269616C93
:1018600020696E73657274696F6E00436F6F6C6987
:101870006E67207072696E746865616420666F724D
:101880000048656174696E67207072696E7468657E
:10189000616420666F72004D4154455249414C00CD
:1018A00052656D6F7665206D6174657269616C005B
:1018B00052454144590043414E43454C00526576E0
:1018C000657273696E67206D6174657269616C0021
:1018D000666F72206D6174657269616C2072656DEE
:1018E0006F76616C0048656174696E67207072691B
:1018F0006E74686561640047323820583020593072
:1019000000496D706F72742066726F6D20534400D1
:101910004578706F727420746F2053440043757360
:10192000746F6D697A65003C2052455455524E00E3
:101930004C6F61647320616C6C206D6174657269B9
:10194000616C7300536176657320616C6C206D610E
:1019500074657269616C73004D6F64696679207497
:1019600068652073657474696E677300250046614D
:101970006E3A2000430043002500466C6F773A0022
:101980006D6D003F3F3F0053746F7265206173209F
:101990007072657365740052657472616374696F07
:1019A0006E00466C6F7720250046616E00446961C9
:1019B0006D6574657200486561746564206275695F
:1019C0006C64706C6174650054656D7065726174EF
:1019D000757265003C2052455455524E0025002535
:1019E000006D6D00430043200043200054656D707E
:1019F000657261747572653A20003C2052455455F9
:101A0000524E004300430054656D706572617475F9
:101A10007265004D4154455249414C005265747203
:101A2000616374696F6E3A20003C205245545552F0
:101A30004E006D6D2F73006D6D20003F3F3F0052D3
:101A400065747261637420737065656400526574B7
:101A500072616374206C656E677468003C20524547
:101A60005455524E006D6D2F736563006D6D006DA2
:101A70006D2F7365630052657472616374207370B7
:101A8000656564006D6D0052657472616374206CED
:101A9000656E6774680052455452414354494F4E35
:101AA000004D4154455249414C004E6577207072BB
:101AB00065736574003C2052455455524E00505297
:101AC00045534554530025004D6174657269616C3E
:101AD00020666C6F7700250046616E207370656527
:101AE00064006D6D004D6174657269616C204469BC
:101AF000616D657465720043004275696C64706C59
:101B00006174652054656D702E004D4154455249F5
:101B1000414C00696E204D4154455249414C2E5470
:101B2000585400746F2074686520534420636172B8
:101B300064005361766564206D6174657269616CDF
:101B400073004F6B000A006469616D657465723DD6
:101B5000000A00666C6F773D000A0066616E5F7375
:101B6000706565643D000A006265645F74656D7050
:101B7000657261747572653D000A003D007265749E
:101B800072616374696F6E5F73706565645F000A8C
:101B9000003D0072657472616374696F6E5F6C659D
:101BA0006E6774685F000A003D0074656D70657251
:101BB00061747572655F000A0074656D70657261AD
:101BC000747572653D000A006E616D653D005B6D68
:101BD0006174657269616C5D0A0052656164696E69
:101BE0006720636172642E2E2E00506C65617365F0
:101BF00020696E736572742063617264004E6F2099
:101C000053442D43415244210066726F6D20746825
:101C1000652053442063617264004C6F61646564A5
:101C2000206D6174657269616C73004F6B003D00DB
:101C300072657472616374696F6E5F7370656564F9
:101C40005F003D0072657472616374696F6E5F6CF2
:101C5000656E6774685F0074656D70657261747538
:101C600072655F006469616D6574657200666C6FB2
:101C7000770066616E5F7370656564006265645FBE
:101C800074656D70657261747572650074656D70F0
:101C900065726174757265006E616D65005B6D6182
:101CA00074657269616C5D00466F756E64206F6E5D
:101CB00020636172642E004E6F206578706F7274BD
:101CC0002066696C650052656164696E67206361B6
:101CD00072642E2E2E00506C6561736520696E73E0
:101CE0006572742063617264004E6F2053442D430B
:101CF000415244210053656C6563746564206D61D5
:101D000074657269616C3A004F4B004D4154455205
:101D100049414C0047312046256920582569205902
:101D20002569004732382058302059300043484157
:101D30004E47450053455454494E4753005245546D
:101D400055524E004300432F00436C69636B20746F
:101D50006F2072657475726E004E6F7A7A6C6520B2
:101D600074656D70657261747572653A0050726564
:101D7000706172696E6720746F207072696E743A58
:101D80000048656174696E672075702E2E2E0054B0
:101D9000554E450041424F52540025732076732022
:101DA0002573006D6174657269616C2E00666F72D7
:101DB000206120646966666572656E7400546869A6
:101DC000732066696C652069732063726561746550
:101DD0006400434F4E54494E55450043414E4345E0
:101DE0004C004C4544204272696768746E65737399
:101DF0000052657472616374696F6E004D61746541
:101E00007269616C20666C6F770046616E2073703A
:101E1000656564004275696C64706C6174652074FA
:101E2000656D702E0054656D7065726174757265B4
:101E30000053706565640041626F7274003C20520B
:101E4000455455524E00250025002500430043000F
:101E500043004300250041626F727420746865205E
:101E60007072696E743F00594553004E4F003F3FFA
:101E70003F0052657472616374207370656564001D
:101E800052657472616374206C656E677468003C9F
:101E90002052455455524E006D6D2F736563006D91
:101EA0006D006D6D2F7365630052657472616374AC
:101EB000207370656564006D6D00526574726163B6
:101EC00074206C656E6774680052455452414354E7
:101ED000494F4E0025004272696768746E657373DE
:101EE0000025004D6174657269616C20666C6F77C6
:101EF00000250046616E2073706565640025005002
:101F000072696E742073706565640054554E4500A7
:101F100054696D65206C6566740054696D65206C4C
:101F200065667420756E6B6E6F776E0043004300BC
:101F300048656174696E67206275696C64706C6174
:101F40007465004300430048656174696E67005022
:101F500072696E74696E673A0054554E450050417F
:101F600055534500524553554D457C5052494E54AA
:101F7000004348414E47457C4D4154455249414CF0
:101F80000054554E45004D38340047323800473232
:101F900038205A3000473238205830205930004716
:101FA00031204625692045300047393220452569D2
:101FB000004D343031004D36303120583520593500
:101FC000205A2569204C2569007468652070726963
:101FD0006E742E00596F752063616E2072656D6F8F
:101FE0007665005072696E742066696E6973686503
:101FF00064004241434B20544F204D454E55004311
:10200000004320005072696E74657220636F6F6CBC
:10201000696E6720646F776E004241434B20544FD6
:10202000204D454E55006F66207072696E74696E62
:10203000672061726561005472696564207072691D
:102040006E74696E67206F7574004552524F523A34
:102050000052455455524E20544F204D41494E0098
:10206000756C74696D616B65722E636F6D2F45526F
:10207000303800476F20746F3A0072656164696E92
:10208000672053442D6361726421004572726F7240
:10209000207768696C650052455455524E20544F64
:1020A000204D41494E0066726F6D20746865207343
:1020B0006C696365722E0073657474696E6720774E
:1020C0006974682073657474696E67006F766572F1
:1020D00072696465206D616368696E650054686942
:1020E000732066696C652077696C6C00434F4E54B1
:1020F000494E55450043414E43454C003C2042412A
:10210000434B003C2052455455524E00534420430B
:10211000415244004731204631323030302058356A
:102120002059313000473238003B464C41564F521F
:102130003A556C746947436F6465003B464C4156A1
:102140004F523A556C746947436F6465004E6F2077
:1021500066696C657320666F756E6421004F4B0075
:102160004F4B0052656164696E6720636172642E33
:102170002E2E00506C6561736520696E73657274F4
:102180002063617264004E6F2053442D43415244DA
:1021900021004E6F20696E666F20617661696C6107
:1021A000626C65004E6F7A7A6C653A20006D006D46
:1021B000004D6174657269616C3A200054696D6507
:1021C0003A20003B4D545950453A003B4E4F5A5A25
:1021D0004C455F4449414D455445523A003B4D41C1
:1021E00054455249414C3A003B54494D453A00460A
:1021F0006F6C646572004D32313820496E76616CC7
:10220000696420657874727564657220004D3130A0
:102210003920496E76616C696420657874727564E2
:10222000657220004D31303520496E76616C6964ED
:1022300020657874727564657220004D31303420E9
:10224000496E76616C696420657874727564657234
:1022500020005072696E7465722073746F707065BF
:10226000642064756520746F206572726F72732EBE
:102270002046697820746865206572726F722061EB
:102280006E6420757365204D39393920746F207262
:102290006573746172742E202854656D7065726167
:1022A000747572652069732072657365742E20538E
:1022B0006574206974206166746572207265737438
:1022C000617274696E6729005072696E746572205C
:1022D00068616C7465642E206B696C6C28292063BE
:1022E000616C6C656421006F6B00526573656E6490
:1022F0003A2000456E6473746F70207374696C6C5F
:102300002070726573736564206166746572206203
:1023100061636B696E67206F66662E20456E64731D
:10232000746F7020737475636B3F00456E647374D3
:102330006F70206E6F7420707265737365642061B6
:102340006674657220686F6D696E6720646F776E62
:102350002E20456E6473746F702062726F6B656EB1
:102360003F00456E6473746F70206E6F74207072DE
:10237000657373656420616674657220686F6D694A
:102380006E6720646F776E2E20456E6473746F7075
:102390002062726F6B656E3F002200556E6B6E6F30
:1023A000776E20636F6D6D616E643A202200456C1C
:1023B000656374726F6E6963735F746573740041F3
:1023C00063746976652045787472756465723A2025
:1023D00000496E76616C6964206578747275646515
:1023E0007200540020423A300020423A31006F6BB4
:1023F00020523A0020633A0020643A0020693A00F3
:1024000020703A006F6B002200556E6B6E6F776E16
:1024100020636F6D6D616E643A2022006F70656E8F
:1024200000545249474745524544007A5F6D6178F0
:102430003A20006F70656E00545249474745524537
:102440004400795F6D61783A20006F70656E0054CA
:10245000524947474552454400785F6D696E3A20BE
:10246000005265706F7274696E6720656E64737474
:102470006F7020737461747573005A3A00593A0092
:1024800020436F756E7420583A2000453A005A3A3E
:1024900000593A00583A004649524D574152455F5B
:1024A0004E414D453A4D61726C696E20556C7469B0
:1024B0006D616B6572323B20537072696E74657228
:1024C0002F6772626C206D617368757020666F7221
:1024D0002067656E36204649524D574152455F553B
:1024E000524C3A687474703A2F2F67697468756239
:1024F0002E636F6D2F556C74696D616B6572205022
:10250000524F544F434F4C5F56455253494F4E3AEA
:10251000312E30204D414348494E455F5459504576
:102520003A556C74696D616B65722045585452550B
:102530004445525F434F554E543A310A0020423AC7
:102540000020453A00543A003F0020573A00204509
:102550003A00543A002042403A0020403A00202FEE
:102560000020423A00202F006F6B20543A0025696A
:10257000206D696E2C2025692073656300456E64AB
:102580002066696C65206C69737400426567696ECA
:102590002066696C65206C69737400256920686F1A
:1025A000757273202569206D696E757465730044BA
:1025B0006F6E65207072696E74696E672066696CF3
:1025C00065005072696E7465722073746F70706507
:1025D000642064756520746F206572726F72732E4B
:1025E0002046697820746865206572726F72206178
:1025F0006E6420757365204D39393920746F2072EF
:102600006573746172742E202854656D70657261F3
:10261000747572652069732072657365742E20531A
:1026200065742069742061667465722072657374C4
:10263000617274696E6729006F6B004E6F204C6980
:102640006E65204E756D62657220776974682063CF
:102650006865636B73756D2C204C617374204C69D5
:102660006E653A20004E6F20436865636B73756D2D
:102670002077697468206C696E65206E756D62657F
:10268000722C204C617374204C696E653A20006393
:102690006865636B73756D206D69736D61746368D4
:1026A0002C204C617374204C696E653A20004C6993
:1026B0006E65204E756D626572206973206E6F7451
:1026C000204C617374204C696E65204E756D626597
:1026D000722B312C204C617374204C696E653A204A
:1026E000004D31313000446F6E6520736176696E44
:1026F000672066696C652E006F6B004D32390020D3
:1027000020506C616E6E65724275666665724279C4
:102710007465733A20002046726565204D656D6FC3
:1027200072793A20004465632020382032303136F7
:1027300000436F6D70696C65643A20005665727372
:102740003A5F322E34657800207C20417574686FC2
:10275000723A200044656320203820323031362020
:1027600031333A35373A313500204C617374205596
:102770007064617465643A2000312E302E30004D53
:1027800061726C696E200020536F667477617265A8
:1027900020526573657400205761746368646F67C5
:1027A000205265736574002042726F776E206F75DA
:1027B00074205265736574002045787465726E618B
:1027C0006C20526573657400506F776572557000A8
:1027D0007374617274002200656E717565696E674D
:1027E0002022002200656E717565696E67202200E7
:1027F000FF01010000E0400000E0400000E0400078
:10280000006643008060430080A243000000000097
:102810008060430080A24300006643008060430064
:1028200080A24300000000000000000000000065DE
:1028300063686F3A004572726F723A0000002110AF
:10284000422063308440A550C660E770088129911A
:102850004AA16BB18CC1ADD1CEE1EFF131121002C2
:1028600073325222B5529442F772D662399318836A
:102870007BB35AA3BDD39CC3FFF3DEE3622443348E
:1028800020040114E664C774A44485546AA54BB5BA
:1028900028850995EEE5CFF5ACC58DD55336722662
:1028A00011163006D776F6669556B4465BB77AA70A
:1028B00019973887DFF7FEE79DD7BCC7C448E558AE
:1028C0008668A7784008611802282338CCC9EDD95A
:1028D0008EE9AFF9488969990AA92BB9F55AD44A02
:1028E000B77A966A711A500A333A122AFDDBDCCBAA
:1028F000BFFB9EEB799B588B3BBB1AABA66C877CCE
:10290000E44CC55C222C033C600C411CAEED8FFDF9
:10291000ECCDCDDD2AAD0BBD688D499D977EB66EA1
:10292000D55EF44E133E322E511E700E9FFFBEEF49
:10293000DDDFFCCF1BBF3AAF599F788F8891A9810B
:10294000CAB1EBA10CD12DC14EF16FE18010A100F5
:10295000C230E3200450254046706760B9839893E5
:10296000FBA3DAB33DC31CD37FE35EF3B102901245
:10297000F322D2323542145277625672EAB5CBA5B1
:10298000A89589856EF54FE52CD50DC5E234C32495
:10299000A01481046674476424540544DBA7FAB785
:1029A0009987B8975FE77EF71DC73CD7D326F236E5
:1029B0009106B01657667676154634564CD96DC9D1
:1029C0000EF92FE9C899E9898AB9ABA94458654835
:1029D00006782768C018E1088238A3287DCB5CDB25
:1029E0003FEB1EFBF98BD89BBBAB9ABB754A545A85
:1029F000376A167AF10AD01AB32A923A2EFD0FEDF1
:102A00006CDD4DCDAABD8BADE89DC98D267C076CD4
:102A1000645C454CA23C832CE01CC10C1FEF3EFFC4
:102A20005DCF7CDF9BAFBABFD98FF89F176E367E24
:102A3000554E745E932EB23ED10EF01E7C3C3E5E2F
:102A40002B3D3F2F5B5D3B2C2A225C0020746F6F77
:102A5000206C6F6E6720657874727573696F6E2075
:102A600070726576656E7465640020636F6C6420B7
:102A7000657874727573696F6E2070726576656EB5
:102A8000746564006563686F3A00205A3A00205903
:102A90003A0020583A00656E6473746F7073206852
:102AA00069743A200024F4D43050C38E20C2A2406E
:102AB00017828B7011127A910D816CD90AA861E18D
:102AC00008C7586607615143061E4B5D05C145A7FF
:102AD000041A411104093D9803713931034036DB72
:102AE0000265339102D4305402802E1D02632CEE15
:102AF00001752AC501B028A001102781018F256426
:102B0000012B244B01E0223401AC211F018D200D4B
:102B100001801FFC00841EED00971DDF00B81CD251
:102B200000E61BC600201BBC00641AB200B219A844
:102B3000000A19A0006A189900D117910040178B5C
:102B400000B516840031167E00B31579003A15736E
:102B500000C7146F0058146A00EE136600881363F0
:102B60000025135E00C7125B006C1257001512544B
:102B700000C111510070114F0021114B00D61049B6
:102B8000008D1047004610440002104200C00F4064
:102B900000800F3E00420F3C00060F3B00CB0E387A
:102BA00000930E37005C0E3500270E3400F30D3213
:102BB00000C10D3100900D3000600D2E00320D2D42
:102BC00000050D2C00D90C2B00AE0C2900850C291A
:102BD000005C0C2700350C27000E0C2600E80B24A7
:102BE00000C40B2400A00B23007D0B23005A0B21F3
:102BF00000390B2100180B2000F80A1F00D90A1E0B
:102C000000BB0A1E009D0A1D00800A1D00630A1CED
:102C100000470A1B002C0A1B00110A1A00F7091AA8
:102C200000DD091900C4091900AB09190092091740
:102C3000007B091800630917004C091600360916B5
:102C400000200916000A091500F5081500E008140F
:102C500000CC081400B8081400A40814009008134D
:102C6000007D0812006B0813005808120046081275
:102C70000034081100230811001208110001081186
:102C800000F0071000E0071000D0071000C0071088
:102C900000B0070F00A107100091070E0083070F77
:102CA0000074070F0065070E0057070E0049070E56
:102CB000003B070D002E070E0020070D0013070D27
:102CC0000006070D00F9060C00ED060D00E0060CED
:102CD00000D4060C00C8060C00BC060C00B0060CA4
:102CE00000A4060B0099060C008D060B0082060B53
:102CF0000077060B006C060B0061060A0057060BF6
:102D0000004C060A0042060A0038060A002E060A8F
:102D10000024060A001A060A001006090007060A1F
:102D200000FD050900F4050900EB050900E20509AD
:102D300000D9050900D0050900C7050900BE05092D
:102D400000B5050800AD050800A50509009C0508AB
:102D500000940508008C050800840508007C05081F
:102D600000740508006C050700650508005D05078F
:102D700000560508004E05070047050700400508F6
:102D80000038050700310507002A0507002305075D
:102D9000001C050600160507000F050700080506BC
:102DA0000002050700FB040600F5040700EE040618
:102DB00000E8040600E2040700DB040600D5040670
:102DC00000CF040600C9040600C3040600BD0406C3
:102DD00000B7040600B1040500AC040600A6040612
:102DE00000A00405009B040600950405009004065D
:102DF000008A04050085040500800406007A0405A5
:102E00000075040500700405006B040500660405E8
:102E100000610405005C0405005704050052040528
:102E2000004D04050048040500430405003E040469
:102E3000003A04050035040500300404002C0405A4
:102E40000027040400230405001E0404001A0404DF
:102E50000016040500110404000D04040009040513
:102E6000000404040000040400FC030400F803044C
:102E700000F4030400F0030400EC030400E803047E
:102E800000E4030400E0030400DC030400D80304AE
:102E900000D4030400D0030400CC030400C80303DF
:102EA00000C503030024F404D9201BC40C5C0E9855
:102EB00004C4095F0265077101F405F900FB04B35E
:102EC0000048048700C10369005803550003034507
:102ED00000BE023A008402310053022A0029022572
:102EE0000004022000E4011C00C8011900AF011712
:102EF0000098011400840113007101100061011099
:102F00000051010E0043010D0036010B002B010B97
:102F10000020010B00150109000C01090003010844
:102F200000FB000800F3000800EB000700E40006C7
:102F300000DE000600D8000600D2000600CC000526
:102F400000C7000500C2000500BD000400B9000470
:102F500000B5000400B1000400AD000400A90004A5
:102F600000A5000300A20003009F0004009B0003D3
:102F700000980003009500020093000300900003F6
:102F8000008D0002008B0003008800020086000212
:102F90000084000300810002007F0002007D000227
:102FA000007B000200790002007700010076000239
:102FB000007400020072000100710002006F000244
:102FC000006D0001006C0002006A0001006900024F
:102FD0000067000100660001006500010064000256
:102FE000006200010061000100600001005F00025A
:102FF000005D0001005C0001005B0001005A00015F
:10300000005900010058000100570001005600015E
:10301000005500010054000100530000005300015E
:10302000005200010051000100500001004F00015A
:10303000004E0000004E0001004D0001004C000158
:10304000004B0000004B0001004A00010049000154
:103050000048000000480001004700010046000051
:103060000046000100450000004500010044000149
:103070000043000000430001004200000042000144
:10308000004100000041000100400001003F00003D
:10309000003F0001003E0000003E0001003D000036
:1030A000003D0001003C0000003C0000003C00012D
:1030B000003B0000003B0001003A0000003A000124
:1030C000003900000039000100380000003800001D
:1030D0000038000100370000003700010036000012
:1030E0000036000000360001003500000035000009
:1030F00000350001003400000034000000340001FD
:1031000000330000003300000033000100320000F3
:1031100000320000003200010031000000310000E8
:1031200000310001003000000030000000300001DC
:10313000002F0000002F0000002F0000002F0001D2
:10314000002E0000002E0000002E0001002D0000C7
:10315000002D0000002D0000002D0001002C0000BB
:10316000002C0000002C0000002C0001002B0000AF
:10317000002B0000002B0000002B0001002A0000A3
:10318000002A0000002A0000002A00010029000097
:10319000002900000029000000290000002900018A
:1031A000002800000028000000280000002800007F
:1031B0000028000100270000002700000027000071
:1031C0000027000000270001002600000026000064
:1031D0000026000000260000002600010025000057
:1031E000002500000025000000250000002500004B
:1031F000002500010024000000240000002400003D
:10320000002400000024000100230000002300002F
:103210000023000000230000002300000023000022
:103220000023000100220000002200000022000014
:103230000022000000220000002200010021000006
:1032400000210000002100000021000000210000FA
:1032500000210000002100010020000000200000EB
:1032600000200000002000000020000000200000DE
:103270000020000000200001001F0000001F0000CF
:10328000001F0000001F0000001F0000001F0000C2
:10329000001F0001001E0000001E0000001E0000B4
:1032A000001E0000006563686F3A003A204578749C
:1032B0007275646572207377697463686564206FE2
:1032C00066662E204D494E54454D502074726967F4
:1032D00067657265642021003A20457874727564D0
:1032E0006572207377697463686564206F66662E03
:1032F000204D415854454D5020747269676765727E
:10330000656420210054656D706572617475726525
:1033100020686561746564206265642073776974F0
:1033200063686564206F66662E204D415854454D94
:1033300050207472696767657265642021210020DE
:103340002D20496E76616C696420657874727564AD
:103350006572206E756D62657220210050494420AF
:103360004175746F74756E652066696E6973686502
:1033700064212050757420746865204B702C204B9C
:103380006920616E64204B6420636F6E7374616E9C
:10339000747320696E746F20436F6E66696775720F
:1033A0006174696F6E2E6800504944204175746FD6
:1033B00074756E65206661696C6564212074696D41
:1033C000656F75740020403A006F6B20543A006FAF
:1033D0006B20423A00504944204175746F74756EF9
:1033E00065206661696C6564212054656D70657245
:1033F000617475726520746F6F206869676800205A
:103400004B643A2000204B693A2000204B703A2050
:103410000020436C617369632050494420002054AC
:10342000753A2000204B753A2000206D61783A20D3
:1034300000206D696E3A200020643A200020626905
:1034400061733A2000504944204175746F74756E61
:103450006520737461727400504944204175746F23
:1034600074756E65206661696C65642E20426164C6
:10347000206578747275646572206E756D62657210
:103480002E004572726F723A0000000000180701AA
:1034900000A807140030082800B8083C003809507C
:1034A00000C0096400480A7800C80A8C00480BA0D4
:1034B00000C80BB400480CC800C80CDC00400DF07C
:1034C00000C00D0401380E1801B00E2C01280F4069
:1034D00001A00F54011810680188107C01001190A0
:1034E000013013F401481558024017BC0228192076
:1034F00003F01A8403A81CE803401E4C044D383422
:1035000020582059205A20450043616E6E6F742068
:10351000656E746572207375626469723A20004D3D
:103520003234004D3233202573006175746F256984
:103530002E67006572726F722077726974696E67A8
:1035400020746F2066696C65004361726420657247
:10355000726F723A004E6F74205344207072696E1D
:1035600074696E67002F005344207072696E74692D
:103570006E67206279746520002E0044656C657466
:10358000696F6E206661696C65642C2046696C65A4
:103590003A200046696C652064656C657465643A20
:1035A000002E006F70656E206661696C65642C206A
:1035B00046696C653A200057726974696E672074B9
:1035C0006F2066696C653A20002E006F70656E2072
:1035D0006661696C65642C2046696C653A20002E32
:1035E000006F70656E206661696C65642C204669A9
:1035F0006C653A200046696C652073656C65637480
:103600006564002053697A653A200046696C65203C
:103610006F70656E65643A20002E006F70656E20D5
:103620006661696C65642C2046696C653A200053BC
:10363000442063617264206F6B006F70656E526F1F
:103640006F74206661696C656400766F6C756D657A
:103650002E696E6974206661696C6564005344204C
:10366000696E6974206661696C0043616E6E6F7487
:10367000206F70656E20737562646972006563689F
:103680006F3A004572726F723A0048617264636FFC
:103690006465642044656661756C74205365747458
:1036A000696E6773204C6F61646564005630313019
:1036B0000053746F7265642073657474696E677308
:1036C0002072657472696576656400204400204943
:1036D000002020204D3330312050005049442073C9
:1036E000657474696E67733A00205A00205900208F
:1036F000204D323036205800486F6D65206F666669
:1037000073657420286D6D293A00204500205A0009
:1037100020580020420020540020204D3230352017
:103720005300416476616E636564207661726961FD
:10373000626C65733A20533D4D696E206665656421
:103740007261746520286D6D2F73292C20543D4DB6
:10375000696E2074726176656C206665656472615D
:10376000746520286D6D2F73292C20423D6D696E84
:10377000696D756D207365676D656E742074696D14
:103780006520286D73292C20583D6D6178696D7511
:103790006D205859206A65726B20286D6D2F732932
:1037A0002C20205A3D6D6178696D756D205A206A14
:1037B00065726B20286D6D2F73292C2020453D6D7F
:1037C0006178696D756D2045206A65726B20286D82
:1037D0006D2F73290020540020204D3230342053A7
:1037E00000416363656C65726174696F6E3A205362
:1037F0003D616363656C65726174696F6E2C205402
:103800003D7265747261637420616363656C657297
:103810006174696F6E00204500205A002059002015
:10382000204D3230312058004D6178696D756D2022
:10383000416363656C65726174696F6E20286D6D9C
:103840002F7332293A00204500205A0020590020C9
:10385000204D3230332058004D6178696D756D20F0
:1038600066656564726174657320286D6D2F7329B8
:103870003A00204500205A0020590020204D3932BE
:1038800020580053746570732070657220756E69DE
:10389000743A0053657474696E67732053746F7261
:1038A0006564006563686F3A00544553540D0A001F
:1038B0000D0A00556E6B6E6F776E20636F6D6D61D4
:1038C0006E643A20000D0A003F00566572733A5F3D
:1038D000322E346578000200E09FF19F11241FBE54
:1038E000CFEFD1E2DEBFCDBF00E00CBF13E0A0E020
:1038F000B2E0E6E9F3EF01E00BBF02C007900D92E2
:10390000A232B107D9F72AE1A2E2B3E001C01D92C9
:10391000A030B207E1F71CE1CDE6DCE100E006C033
:1039200021970109802FFE010E944BF2CC36D1076E
:1039300080E00807A9F70E94EFEC0C94B9F90C9409
:1039400000001F920F920FB60F9211242F933F93F6
:103950008F939F93AF93BF93809123039091240300
:10396000A0912503B09126033091220323E0230F79
:103970002D3720F40196A11DB11D05C026E8230FA7
:103980000296A11DB11D20932203809323039093DF
:103990002403A0932503B0932603809127039091DD
:1039A0002803A0912903B0912A030196A11DB11DFE
:1039B0008093270390932803A0932903B0932A03AD
:1039C000BF91AF919F918F913F912F910F900FBE1B
:1039D0000F901F9018952FB7F89460912303709162
:1039E000240380912503909126032FBF08953FB7AC
:1039F000F8948091270390912803A0912903B09116
:103A00002A0326B5A89B05C02F3F19F00196A11DDA
:103A1000B11D3FBFBA2FA92F982F8827820F911D64
:103A2000A11DB11DBC01CD0142E0660F771F881FAB
:103A3000991F4A95D1F70895CF92DF92EF92FF92A6
:103A4000CF93DF936B017C010E94F71CEB01C11443
:103A5000D104E104F10479F00E94F71C6C1B7D0B8A
:103A6000683E7340A0F381E0C81AD108E108F1086C
:103A7000C851DC4FECCFDF91CF91FF90EF90DF90FA
:103A8000CF900895019739F0880F991F880F991FDB
:103A900002970197F1F70895789484B5826084BD08
:103AA00084B5816084BD85B5826085BD85B5816042
:103AB00085BDEEE6F0E0808181608083E1E8F0E0A2
:103AC0001082808182608083808181608083E0E8D1
:103AD000F0E0808181608083E1EBF0E080818460B0
:103AE0008083E0EBF0E0808181608083E1E9F0E0B9
:103AF000808182608083808181608083E0E9F0E062
:103B0000808181608083E1EAF0E08081826080834F
:103B1000808181608083E0EAF0E080818160808341
:103B2000E1E2F1E080818260808380818160808336
:103B3000E0E2F1E0808181608083EAE7F0E080816B
:103B400084608083808182608083808181608083C3
:103B50008081806880831092C10008951F93CF9365
:103B6000DF93182FEB0161E00E94BF1E209711F434
:103B700060E004C0CF3FD10539F461E0812FDF91CF
:103B8000CF911F910C94FB1EE12FF0E0ED53FA4F03
:103B9000E4914E2F50E0FA013197E131F10508F040
:103BA00093C08827EE58FF4F8F4F0C944BF284B58B
:103BB000806884BDC7BD8DC084B5806284BDC8BD2A
:103BC00088C080918000806880938000D0938900B5
:103BD000C09388007EC080918000806280938000C6
:103BE000D0938B00C0938A0074C08091B00080682D
:103BF0008093B000C093B3006CC08091B00080622D
:103C00008093B000C093B40064C08091900080683D
:103C100080939000D0939900C09398005AC08091EF
:103C20009000806280939000D0939B00C0939A0094
:103C300050C080919000886080939000D0939D0048
:103C4000C0939C0046C08091A00080688093A00033
:103C50008091A0008F7B8093A000D093A900C09397
:103C6000A80037C08091A00080628093A000D0930C
:103C7000AB00C093AA002DC08091A0008860809303
:103C8000A000D093AD00C093AC0023C08091200170
:103C9000806880932001D0932901C093280119C026
:103CA00080912001806280932001D0932B01C093EA
:103CB0002A010FC080912001886080932001D09359
:103CC0002D01C0932C0105C0C038D1050CF055CF93
:103CD0004FCFDF91CF911F91089590E0FC01319774
:103CE000E131F10508F04AC08827ED57FF4F8F4FAB
:103CF0000C944BF2809180008F7703C080918000FC
:103D00008F7D80938000089584B58F7702C084B53D
:103D10008F7D84BD08958091B0008F7703C080911E
:103D2000B0008F7D8093B0000895809190008F77D0
:103D300007C0809190008F7D03C080919000877FA5
:103D40008093900008958091A0008F7707C08091A4
:103D5000A0008F7D03C08091A000877F8093A0008A
:103D60000895809120018F7707C0809120018F7D79
:103D700003C080912001877F809320010895CF9315
:103D8000DF9390E0FC01E75FF94F2491FC01E15BD8
:103D9000F94F8491882361F190E0880F991FFC010D
:103DA000E155F94FC591D491FC01EB56F94FA5911E
:103DB000B491611109C09FB7F8948881209582233E
:103DC0008883EC912E230BC0623061F49FB7F89486
:103DD0003881822F809583238883EC912E2B2C931E
:103DE0009FBF06C08FB7F894E8812E2B28838FBF22
:103DF000DF91CF9108951F93CF93DF93282F30E069
:103E0000F901ED53FA4F8491F901E75FF94FD4912D
:103E1000F901E15BF94FC491CC23C9F0162F811150
:103E20000E946D1EEC2FF0E0EE0FFF1FEB56F94FD6
:103E3000A591B4918FB7F894111105C09C91ED2F05
:103E4000E095E92302C0EC91ED2BEC938FBFDF915D
:103E5000CF911F9108951F920F920FB60F921124C8
:103E60000BB60F922F933F934F935F936F937F9374
:103E70008F939F93AF93BF93EF93FF9380912F0303
:103E800090913003892B29F0E0912F03F0913003BA
:103E90001995FF91EF91BF91AF919F918F917F9174
:103EA0006F915F914F913F912F910F900BBE0F90AB
:103EB0000FBE0F901F9018951F920F920FB60F9282
:103EC00011240BB60F922F933F934F935F936F93F1
:103ED0007F938F939F93AF93BF93EF93FF938091C3
:103EE000310390913203892B29F0E0913103F09155
:103EF00032031995FF91EF91BF91AF919F918F91EF
:103F00007F916F915F914F913F912F910F900BBED9
:103F10000F900FBE0F901F9018951F920F920FB623
:103F20000F9211240BB60F922F933F934F935F93F1
:103F30006F937F938F939F93AF93BF93EF93FF9371
:103F40008091330390913403892B29F0E09133035E
:103F5000F09134031995FF91EF91BF91AF919F912B
:103F60008F917F916F915F914F913F912F910F9022
:103F70000BBE0F900FBE0F901F9018951F920F92BF
:103F80000FB60F9211240BB60F922F933F934F93BE
:103F90005F936F937F938F939F93AF93BF93EF93B1
:103FA000FF938091350390913603892B29F0E0919E
:103FB0003503F09136031995FF91EF91BF91AF91C1
:103FC0009F918F917F916F915F914F913F912F9131
:103FD0000F900BBE0F900FBE0F901F9018951F9261
:103FE0000F920FB60F9211240BB60F922F933F939F
:103FF0004F935F936F937F938F939F93AF93BF93F1
:10400000EF93FF9380912B0390912C03892B29F040
:10401000E0912B03F0912C031995FF91EF91BF9143
:10402000AF919F918F917F916F915F914F913F9150
:104030002F910F900BBE0F900FBE0F901F901895F1
:104040001F920F920FB60F9211240BB60F922F935F
:104050003F934F935F936F937F938F939F93AF9310
:10406000BF93EF93FF9380912D0390912E03892BA3
:1040700029F0E0912D03F0912E031995FF91EF9116
:10408000BF91AF919F918F917F916F915F914F9170
:104090003F912F910F900BBE0F900FBE0F901F906E
:1040A00018951F920F920FB60F9211240BB60F9214
:1040B0002F933F934F935F936F937F938F939F9330
:1040C000AF93BF93EF93FF938091370390913803A1
:1040D000892B29F0E0913703F09138031995FF916E
:1040E000EF91BF91AF919F918F917F916F915F9170
:1040F0004F913F912F910F900BBE0F900FBE0F90DD
:104100001F9018951F920F920FB60F9211240BB6A5
:104110000F922F933F934F935F936F937F938F9360
:104120009F93AF93BF93EF93FF9380913903909147
:104130003A03892B29F0E0913903F0913A0319955C
:10414000FF91EF91BF91AF919F918F917F916F916F
:104150005F914F913F912F910F900BBE0F900FBE2B
:104160000F901F901895FF920F931F93CF93DF939B
:1041700088EA9FEF90935F0380935E034091520320
:1041800088E0840F405E682F0E947F2A0E94513091
:10419000809152038435D8F549E558E066E180E026
:1041A0000E945C31D7E1C6E100E010E0F02E4091C2
:1041B0005203842F90E0880F991F98012D5E3F4F86
:1041C0002817390744F4440F4451401B2D2F6C2FFE
:1041D00080E00E945C3080915203282F30E0220F53
:1041E000331F2017310734F0880F2D2F4FE76C2F26
:1041F0008F1904C02D2F4FE76C2F80E00E945C3098
:104200000F5F1F4FCE5FDE5FCA3281F609C081505B
:104210008093520349E558E066E180E00E945C31FA
:104220000E94422A80913B03811113C020915203C6
:1042300030E0220F331F40910802429FC001439F8C
:10424000900D112464E670E00E94F6F188E00E946F
:10425000AE1D80915103811104C080915D038823BC
:10426000E9F180913B0381110DC0809108022FEF8D
:10427000829FC001112464E670E00E94F6F188E09C
:104280000E94AE1D10925103109252034CE360E362
:1042900080E30E947F2A80915D0381110E94C731D3
:1042A00080E094E00E9480F9853579F420E030E0E8
:1042B000A90160914D0F70914E0F80914F0F909119
:1042C000500F0E94F2ED811103C08FE69EE302C001
:1042D00084E791E290935A0380935903DF91CF9141
:1042E0001F910F91FF90089548ED56E06FEC76E036
:1042F00089EC96E00E94732580915D03882349F143
:1043000080915E0390915F039C01295F3F4F2F30A6
:10431000310558F40E941D7287E69FE00E9493DCED
:1043200062E070E08BE292E712C09C0128503109F4
:104330002830310528F468EA7FEF84E098E507C06B
:104340004097089730F468EA7FEF8CED9EE30E9477
:10435000432580915C038823A1F080915E039091B6
:104360005F03883A9F4F69F4109251038091520382
:10437000893C58F068EA7FEF87EC91E20E94432580
:1043800004C010925103109252030C94422A9F923F
:10439000AF92BF92CF92DF92EF92FF920F931F9353
:1043A000CF93DF9380915E0390915F03883A9F4F94
:1043B00059F58AE190E090935F0380935E0327E2D2
:1043C00038E043E053E080E090E0F901E80FF91FA6
:1043D0005083019685309105C1F741502B5F3F4FC7
:1043E0004111F1CF109237081092360880E099E31E
:1043F000909339088093380810923B0810923A083D
:1044000010923D0810923C0880915E0390915F03EA
:1044100097FF04C010925F0310925E0380915E03C9
:1044200090915F03880F991F8B36910534F085E3D7
:1044300090E090935F0380935E0380913A0890919F
:104440003B084091360850913708480F591F509348
:1044500037084093360860913C0870913D082091E0
:10446000380830913908260F371F309339082093C8
:1044700038084F3F510509F01CF497FF0DC009C0E3
:104480004130ECE75E0764F097FF03C0919581959A
:10449000910991958195910990933B0880933A08F1
:1044A0002F3F310509F05CF4CB0177FF03C09195F4
:1044B0008195910990933D0880933C0805C0211592
:1044C000FEE13F070CF051C0952F990F990B852FF6
:1044D00069E170E00E94F6F1262F932F990F990B56
:1044E000832F6AE070E00E94F6F185E0689FF0019A
:1044F0001124E20FF11DE95DF74F80818823A9F1B6
:104500008150808380913C0890913D0897FF03C0C3
:1045100091958195910990933D0880933C0847E2DD
:1045200058E0BA0123E080E090E0FB01E80FF91FBA
:10453000308131111AC0019685309105B1F72150B3
:104540006B5F7F4F2111EFCF23E033E080E090E0FD
:10455000FA01E80FF91F3083019685309105C1F704
:1045600021504B5F5F4F2111F1CF8091380890911E
:10457000390881309A430CF448C0209136083091B4
:10458000370880915E0390915F030197880F991F10
:10459000582F44272417350734F04796982F88273B
:1045A0008217930734F468EA7FEF84E791E20E9470
:1045B000432520915E0330915F038BEF9FEF821BB9
:1045C000930B982F8827990F209136083091370840
:1045D000820F931F97FDCF9656E0959587955A9534
:1045E000E1F720913A0830913B08820F931F909396
:1045F0003B0880933A0897FF03C0919581959109F4
:10460000925090933D0880933C0880913C08909193
:104610003D08892B59F580E099E390933908809300
:10462000380880915E0390915F039C012B5F3F4FA0
:10463000220F331F109236082093370820915D0314
:104640002223A1F0809733E0880F991F3A95E1F774
:1046500090933B0880933A0897FF03C0919581950A
:104660009109925090933D0880933C080E945130EC
:1046700027E2E22E28E0F22ED3E087E0982E9D0E6E
:10468000CC24CA94CD0E96E0D92EDD0E8701C4E06D
:104690005801F8018081882341F0292D43E14C0F16
:1046A0006C2D8FEF8C0F0E94AE2FF801808182302D
:1046B00039F42D2D42E14C0F6D2F8C2F0E94E22FEB
:1046C0000F5F1F4FF5018081833039F42D2D42E1BA
:1046D0004C0F6D2F8C2F0E94DE30C75EC138C1F6A3
:1046E000D65FF5E0EF0EF11CD13239F66091390852
:1046F0008091370822E0260F42E0480F0E94AE2F3B
:1047000080915E03880F45E1480F2FE36CE30E9420
:10471000AE2FDF91CF911F910F91FF90EF90DF901F
:10472000CF90BF90AF909F900C94422A0E943E324F
:104730000E94A462811106C00E94C35860E080E01C
:104740000E94FC600E94625E83EB90E290935A03A9
:104750008093590360E070E088E00E94AE1D0E94E3
:10476000EB1CDC01CB0188589341A109B10980936E
:104770003D0390933E03A0933F03B09340030895FD
:10478000CF92DF92EF92FF920E947A2A882309F457
:1047900068C10E941D3282B382FB992790F981E0A3
:1047A000892790916B0F981759F090910F119923C9
:1047B00021F0915090930F1106C080936B0F03C0AE
:1047C00088E280930F1190915103809152039923B5
:1047D00041F082508093520381110BC0109251031B
:1047E00008C08E5F809352038E3719F481E0809366
:1047F00051030E94CD85882309F491C00E94513055
:1048000069E478E08AE00E944A2E0E94D48590E014
:10481000FC013197EA30F10508F079C08827EC56A1
:10482000FF4F8F4F0C944BF26DE378E084E10E94D0
:104830004A2E46E358E068E281E00E94762C43E28B
:1048400058E061C063E178E084E10E944A2E4CE0C8
:1048500058E068E281E00E94762C49EF57E053C0AF
:104860006CEE77E084E10E944A2E45EE57E068E264
:1048700081E00E94762C42ED57E045C063EC77E082
:1048800084E10E944A2E4CEB57E068E281E00E94EE
:10489000762C49EA57E037C069E977E084E10E9465
:1048A0004A2E42E957E068E281E00E94762C4FE709
:1048B00057E029C060E777E084E10E944A2E49E68C
:1048C00057E068E281E00E94762C46E557E01BC085
:1048D00061E477E084E10E944A2E4AE357E068E20F
:1048E00081E00E94762C47E257E00DC063E177E05B
:1048F00084E10E944A2E4CE057E068E281E00E9489
:10490000762C49EF56E062E381E00E94762C80919C
:10491000520360E8681B482F0E947F2A32C00E9421
:10492000EB1CC0903D03D0903E03E0903F03F0901D
:104930004003DC01CB018C199D09AE09BF09883801
:104940009341A105B10518F580913C0381110AC07E
:104950000E94513064EE76E084E10E944A2E81E0AC
:1049600080933C038091730C8350833050F40E94F9
:10497000EB1C60933D0370933E0380933F03909341
:104980004003FF90EF90DF90CF900C94422A10925A
:104990003C032DEC3CEC4CE45DE36091E919709133
:1049A000EA198091EB199091EC190E94FBF06B01D0
:1049B0007C0123E333E343E75FE3609104027091FA
:1049C000050280910602909107020E94FBF09B0174
:1049D000AC01C701B6010E94FDEC60930402709324
:1049E000050280930602909307022DEC3CEC4CE408
:1049F0005DE36091E3197091E4198091E51990915C
:104A0000E6190E94FBF06B017C0123E333E343E7EB
:104A10005FE3609100027091010280910202909127
:104A200003020E94FBF09B01AC01C701B6010E948A
:104A3000FDEC609300027093010280930202909358
:104A40000302E0915903F0915A031995E09155033F
:104A5000F0915603309729F0FF90EF90DF90CF90C0
:104A60001994FF90EF90DF90CF9008951092F21973
:104A70001092F1191092F0191092EF191092370F4D
:104A800008950C94EA310F931F93CF93DF938C0119
:104A9000EB011092500310925103109252034CE319
:104AA00060E380E30E947F2A0E94C731809159030E
:104AB00090915A03909358038093570380915E031B
:104AC00090915F03909354038093530310935A0380
:104AD00000935903D0935F03C0935E03DF91CF919E
:104AE0001F910F910895EF92FF920F931F93CF9311
:104AF000DF937C018B01EA0120915E0330915F031B
:104B0000283A8FEF3807A9F037FF06C0285E3F4FDD
:104B100030935F0320935E0320915E0330915F0327
:104B20002831310534F02851310930935F03209347
:104B30005E030E9451304DE265E080E40E945D2FEB
:104B400040E36CE783E00E94402F80915E039091E8
:104B50005F0307960F9790F42BE24BE367E085E045
:104B60000E94AE2F2AE24AE368E086E00E94DE302F
:104B7000A70166E181E20E94D92E05C0A70166E186
:104B800081E20E94722E80915E0390915F030897EC
:104B9000089790F42BE24BE767E085E40E94AE2F84
:104BA0002AE24AE768E086E40E94DE30A80166E176
:104BB00081E60E94D92E05C0A80166E181E60E9427
:104BC000722E209739F180915E0390915F03409798
:104BD0000897B0F42DE34BE763E385E00E94AE2F26
:104BE0002CE34AE764E386E00E94DE30BE0185E301
:104BF000DF91CF911F910F91FF90EF900C945E2E5B
:104C0000BE0185E3DF91CF911F910F91FF90EF904F
:104C10000C944A2EDF91CF911F910F91FF90EF904E
:104C200008950E94513040E36CE783E00C94402FDC
:104C30000F931F93CF93DF931F921F92CDB7DEB7D1
:104C40008A0120915E0330915F03283A4FEF3407C9
:104C5000A9F037FF06C0205F3F4F30935F032093DA
:104C60005E0320915E0330915F032031310534F003
:104C70002051310930935F0320935E0320915D033F
:104C80002223C1F020915E0330915F03295F3F4FE3
:104C90002F30310578F46115710531F089839A83DD
:104CA000FB0119959A818981009721F068EA7FEFCD
:104CB0000E9443250E9411260115110511F402EEF0
:104CC00019E080915E0390915F0307960F97F8F4C7
:104CD0002DE34BE763E385E00E94AE2F2CE34AE728
:104CE00064E386E00E94DE30C8010E94AAF5982F96
:104CF000990F890FA80165E391E4981B892F0F9004
:104D00000F90DF91CF911F910F910C94592DC801F5
:104D10000E94AAF5982F990F890FA80165E391E4E5
:104D2000981B892F0F900F90DF91CF911F910F91BA
:104D30000C94762CAF92BF92CF92DF92EF92FF92BB
:104D40000F931F93CF93DF936C01EA015901A09158
:104D50005E03B0915F03A83A8FEFB80799F0B7FFF1
:104D600005C05096B0935F03A0935E0380915E03ED
:104D700090915F03803191052CF0409790935F03F1
:104D800080935E0380915D03882331F180915E03FF
:104D900090915F039C01295F3F4F2F30310560F4F4
:104DA0006115710511F0FB011995C114D104A1F031
:104DB00068EA7FEFC6010EC00897089768F40115EE
:104DC000110511F0F8011995A114B10429F068EA50
:104DD0007FEFC5010E9443250E94112680915E034A
:104DE00090915F0307960F97D0F42DE34EE363E3B2
:104DF00085E00E94AE2F2CE34DE364E386E00E9441
:104E0000DE30CE010E94AAF5982F990F890FAE01CE
:104E100065E393E2981B892F0E94592D0CC0CE01A7
:104E20000E94AAF5982F880F980FAE0165E383E2E0
:104E3000891B0E94762C80915E0390915F030897F6
:104E4000089718F52DE34AE763E382E40E94AE2F4A
:104E50002CE349E764E383E40E94DE30C7010E944B
:104E6000AAF5982F990F890FA70165E39FE5981B75
:104E7000892FDF91CF911F910F91FF90EF90DF90DD
:104E8000CF90BF90AF900C94592DC7010E94AAF506
:104E9000982F880F980FA70165E38FE5891BDF9195
:104EA000CF911F910F91FF90EF90DF90CF90BF9027
:104EB000AF900C94762CEF92FF921F93CF93DF93D9
:104EC000C82F2EE24CE766E283E00E94AE2FD0E0CE
:104ED000219714E08CE0E82EF12CCF3F8FEFD8071C
:104EE000C1F01D37B1F0CE01B7010E94F6F1AC015F
:104EF000453051051CF4485D68E205C08A3030F445
:104F000063E2640F4CE2812F0E945D2F1F5F2197A7
:104F1000E4CFDF91CF911F91FF90EF9008954F92D2
:104F20005F926F927F928F929F92AF92BF92CF9239
:104F3000DF92EF92FF920F931F93CF93DF937091C5
:104F40005D037111D8C0E0915E03F0915F03E83A10
:104F5000FF4F21F410925F0310925E03A0915E0355
:104F6000B0915F03862E062E000C9908B7FF0BC088
:104F7000F401EE0FFF1FEE0FFF1FEA0FFB1FF09370
:104F80005F03E0935E03E0915E03F0915F03D40161
:104F9000AA0FBB1FAA0FBB1FEA17FB074CF074E058
:104FA0006702E019F1091124F0935F03E0935E03B7
:104FB00000915E0310915F0317FF02C00D5F1F4F4A
:104FC00079015A016C011595079515950795702E75
:104FD0000E945130A0914103B0914203C80199272A
:104FE00063E0880F991F6A95E1F70F978A1B9B0B67
:104FF000EC0197FD2396D595C795D595C795AC0F30
:10500000BD1F1816190614F4119608C0892B29F42F
:10501000B0934203A093410309C01197B093420398
:10502000A0934103109251031092520380914103C7
:1050300090914203282F277033E0969587953A95F3
:10504000E1F79AE3692E621ADAE0D21BC82F8C2F9F
:1050500090E088159905DCF48C2FF50119952C0149
:10506000FC01148AC7110EC027E02D0F4CE76FEF2B
:105070006D0F83E00E94DE30A2016D2F84E00E945C
:10508000682B05C0AC016D2F84E00E94862ACF5F9B
:10509000D85FD611DCCF28E04CE760E083E00E94C7
:1050A000DE302FE34CE76FE283E00E945C3029E0C2
:1050B0004CE769E083E00E945C3040E36CE783E00A
:1050C0000E94402FB60181E00E945E2E802FF701E2
:1050D0001995DF91CF911F910F91FF90EF90DF9085
:1050E000CF90BF90AF909F908F907F906F905F9088
:1050F0004F900C94422ADF91CF911F910F91FF9016
:10510000EF90DF90CF90BF90AF909F908F907F9067
:105110006F905F904F9008950F931F93CF93DF93FD
:10512000CDB7DEB766970FB6F894DEBF0FBECDBF22
:10513000809147039091480320915E0330915F0373
:105140002817390724F490935F0380935E038091BE
:1051500045039091460320915E0330915F038217CF
:10516000930724F490935F0380935E038091490337
:10517000813041F4E0914A03F0914B0380915E034A
:1051800080838EC0823059F4E0914A03F0914B0342
:1051900080915E0390915F039183808381C083300F
:1051A000A9F400914A0310914B0360915E03709142
:1051B0005F03072E000C880B990B0E94A6EE20E0DF
:1051C00030E048EC52E40E94FCED65C0843089F484
:1051D000E0914A03F0914B0380915E0390915F034D
:1051E000092E000CAA0BBB0B80839183A283B3838F
:1051F00057C08530A1F4E0914A03F0914B03209110
:105200005E0330915F034FEF429FC001439F900DBB
:10521000112464E670E00E94F6F1608341C086309C
:1052200099F400914A0310914B0360915E037091D1
:105230005F03072E000C880B990B0E94A6EE20E05E
:1052400030E040E752E414C08730A9F400914A03EB
:1052500010914B0360915E0370915F03072E000C69
:10526000880B990B0E94A6EE20E030E048EC52E457
:105270000E94FBF010C0883099F400914A0310910D
:105280004B0360915E0370915F03072E000C880B47
:10529000990B0E94A6EEF801608371838283938349
:1052A0000E94112660914E0370914F0384E10E9489
:1052B0004A2E2091490380915E0390915F030091F3
:1052C0004C0310914D03233099F4BC01990F880BC6
:1052D000990B0E94A6EE20E030E048EC52E40E94D8
:1052E000FCED9801AE014F5F5F4F0E941D3406C078
:1052F000A801BE016F5F7F4F0E940333BE016F5F45
:105300007F4F8EE10E94562C6BED79E0CE01019625
:105310000E94A3F52091490300914C0310914D0385
:105320008091430390914403233099F4BC01990F79
:10533000880B990B0E94A6EE20E030E048EC52E486
:105340000E94FCED9801AE01495F5F4F0E941D3441
:1053500006C0A801BE01695F7F4F0E940333BE01F2
:105360006F5F7F4F85E30E94562C0E94422A8091F6
:105370005D03882351F06091530370915403809131
:105380005703909158030E94432566960FB6F894F0
:10539000DEBF0FBECDBFDF91CF911F910F9108955A
:1053A0009091BC0097FFFCCF8093BB0084E8809372
:1053B000BC0008958091BC0087FFFCCF84E98093F6
:1053C000BC0008951F93CF93DF931F92CDB7DEB734
:1053D000182F84EA8093BC0080EC69830E94D02956
:1053E000812F0E94D0296981862F0E94D0290F9099
:1053F000DF91CF911F910C94DA291F920F920FB673
:105400000F9211240BB60F922F933F934F935F93FC
:105410006F937F938F939F93AF93BF93EF93FF937C
:105420008091610390916203811524E0920719F441
:105430000E94DA2914C0FC01EA59FC4F80810E94C5
:10544000D0298091BC0081608093BC008091610371
:105450009091620301969093620380936103FF91A0
:10546000EF91BF91AF919F918F917F916F915F91DC
:105470004F913F912F910F900BBE0F900FBE0F9049
:105480001F9018956091650382E00E94E229609167
:10549000640383E00E94E2296091630384E00E9438
:1054A000E22984EA8093BC0088E70E94D02980E04A
:1054B0000E94D02980E00E94D02980E10E94D0295A
:1054C00080EB0E94D0298091BC0087FFFCCF84EA4A
:1054D0008093BC0088E70E94D02980E40E94D029F4
:1054E00010926203109261038091BC0081608093EE
:1054F000BC0008958091BC008095817008958093D0
:10550000650360936403409363030895DF92EF9211
:10551000FF920F931F93CF93DF93962F96959695B7
:105520009695A82FB0E080E8989FA00DB11D11249A
:105530009D012A593C4FAA51BC4F677078E0761BF9
:10554000E901249615E0FA01E080EE2009F4B8C0E4
:10555000F12CE0E2EE1AF1081E9DC0011F9D900D96
:1055600011248050964FFC01F490062E01C0FF0CD0
:105570000A94EAF7F901E080FE28F0827E01F3E068
:10558000EF1AF108FC013196E4910E2F062E01C0AE
:10559000000F0A94EAF7F701D0800D2900837E01FD
:1055A000F2E0EF1AF108FC013296E4910E2F062E7C
:1055B00001C0000F0A94EAF7F701D0800D2900839B
:1055C000FC013396E4910E2F062E01C0000F0A94C1
:1055D000EAF7FE01D2900D290083FC013496E49194
:1055E000062E01C0EE0F0A94EAF78881E82BE883C3
:1055F0002A5F3F4F662309F45FC0FA01E080F12C77
:10560000F0E2EF1AF1081E9DC0011F9D900D1124BC
:105610008050964FFC010491E02FF0E0072E02C06D
:10562000F595E7950A94E2F7FC91EF2BEC93FC01DA
:105630003196E491F0E0072E02C0F595E7950A94C3
:10564000E2F71196FC911197EF2B1196EC931197BD
:10565000FC013296E491F0E0072E02C0F595E79543
:105660000A94E2F71296FC911297EF2B1296EC93A4
:105670001297FC013396E491F0E0072E02C0F595F5
:10568000E7950A94E2F71396FC911397EF2B139684
:10569000EC931397FC013496E491F0E0072E02C0DE
:1056A000F595E7950A94E2F714968C911497E82BF8
:1056B0001496EC93149716964F5F5F4F269643CF40
:1056C000DF91CF911F910F91FF90EF90DF900895A0
:1056D000DF92EF92FF920F931F93CF93DF93962F5A
:1056E000969596959695A82FB0E080E8989FA00D86
:1056F000B11D11249D012A593C4FAA51BC4F67701E
:1057000078E0761BE901249615E0FA01E080EE20AE
:1057100009F4C4C0F12CE0E2EE1AF1081E9DC001AC
:105720001F9D900D11248050964FFC01F490EF2D99
:10573000062E01C0EE0F0A94EAF7FE2EF094F9014E
:10574000E080FE20F0827E01F3E0EF1AF108FC0118
:105750003196E491062E01C0EE0F0A94EAF70E2F5F
:105760000095F701D0800D2100837E01F2E0EF1A51
:10577000F108FC013296E491062E01C0EE0F0A9466
:10578000EAF70E2F0095F701D0800D210083FC0170
:105790003396E491062E01C0EE0F0A94EAF70E2F1D
:1057A0000095FE01D2900D210083FC013496E49116
:1057B000062E01C0EE0F0A94EAF7E0958881E823EF
:1057C000E8832A5F3F4F662309F464C0FA01E08052
:1057D000F12CF0E2EF1AF1081E9DC0011F9D900D03
:1057E00011248050964FFC010491E02FF0E0072E29
:1057F00002C0F595E7950A94E2F7E095FC91EF2356
:10580000EC93FC013196E491F0E0072E02C0F5958F
:10581000E7950A94E2F7E0951196FC911197EF2332
:105820001196EC931197FC013296E491F0E0072E6B
:1058300002C0F595E7950A94E2F7E0951296FC917F
:105840001297EF231296EC931297FC013396E49192
:10585000F0E0072E02C0F595E7950A94E2F7E0958F
:105860001396FC911397EF231396EC931397FC0177
:105870003496E491F0E0072E02C0F595E7950A947E
:10588000E2F7E09514968C911497E8231496EC9324
:10589000149716964F5F5F4F269637CFDF91CF91C3
:1058A0001F910F91FF90EF90DF900895AB01FB01E6
:1058B00001900020E9F73197E61BF70B9E2F990F17
:1058C000E90F682F80E48E1B0C94862AAB01FB0144
:1058D00001900020E9F73197E61BF70B9E2F990FF7
:1058E000E90F682F80E48E1B0C94682B7F928F92B7
:1058F0009F92AF92BF92CF92DF92EF92FF920F935F
:105900001F93CF93DF93962F969596959695A82FF4
:10591000B0E020E8929FA00DB11D1124CD018A595D
:105920009C4F5C01AA51BC4F677078E0761BFA016E
:1059300024916C01F4E0CF0ED11C85E0982E222337
:1059400009F4A9C030E020523109929EC001939E13
:10595000900D11248050964FFC012491062E01C019
:10596000220F0A94EAF7F5013081232B2083E60108
:1059700023977C01FFEFEF1AFF0AF7012491062E0F
:1059800001C0220F0A94EAF73881232B288321963D
:105990008C010E5F1F4FF8012491062E01C0220FCB
:1059A0000A94EAF73881232B2883EC012396FE0121
:1059B0008490062E01C0880C0A94EAF7F6017290D2
:1059C000872880829C012C5F3F4FF9018490062E2E
:1059D00001C0880C0A94EAF7F6017080872880825B
:1059E000F6E0AF0EB11C662309F44DC0FC018491B2
:1059F00090E0072E02C0959587950A94E2F79C9156
:105A0000892B8C93F701E490F12C072E02C0F594BA
:105A1000E7940A94E2F711968C911197E82A11966F
:105A2000EC921197F801049110E0072E02C0159531
:105A300007950A94E2F712968C911297082B12960A
:105A40000C931297FE01C491D0E0072E02C0D595A9
:105A5000C7950A94E2F713968C911397C82B139667
:105A6000CC931397F901249130E0072E02C03595AD
:105A700027950A94E2F714968C911497282B149684
:105A80002C93149716964F5F5F4FFA012491F6E01E
:105A9000CF0ED11C54CFDF91CF911F910F91FF906A
:105AA000EF90DF90CF90BF90AF909F908F907F90BE
:105AB00008957F928F929F92AF92BF92CF92DF9282
:105AC000EF92FF920F931F93CF93DF93962F9695AC
:105AD00096959695A82FB0E020E8929FA00DB11D55
