:100000000C94420F0C94FE110C942F120C9460125D
:100010000C9491120C94C2120C94F3120C942413AD
:100020000C9455130C94730F0C94730F0C94730F62
:100030000C94730F0C942F850C94730F0C94730F06
:100040000C94730F0C94535C0C94730F0C94730FFB
:100050000C94730F0C94730F0C94E96D0C94750F42
:100060000C94730F0C94AB360C94730F0C94730FA9
:100070000C94730F0C94730F0C94730F0C94730FF8
:100080000C94730F0C94730F0C94730F0C94730FE8
:100090000C94730F0C94730F0C94730F0C94730FD8
:1000A0000C94730F0C94730F0C94730F0C94730FC8
:1000B0000C94730F0C94730F0C94730F0C94730FB8
:1000C0000C94730F0C94730F0C94730F0C94730FA8
:1000D0000C94730F0C94730F0C94730F0C94730F98
:1000E0000C94730FAB10B010B510BF103811C910BD
:1000F000D110D910E310ED10F710061110113811BE
:100100001A1124112E1158115B114E115211921116
:100110005F11631169116D11711177117B117F11DD
:100120009211851189118D11C01FC01FCB1FCB1FCC
:10013000CB1FD61FD61FD61FEB1FE11FE11FE11FEC
:10014000346E436E5F6E6E6E886E976EB16EB56E76
:10015000BD6E084AD73B3BCE016E84BCBFFDC12FAC
:100160003D6C74319ABD56833DDA3D00C77F11BEA8
:10017000D9E4BB4C3E916BAAAABE000000803F05AB
:10018000A84CCDB2D44EB93836A9020C50B99186DC
:1001900088083CA6AAAA2ABE000000803F000C9452
:1001A000346E0C94B48E0C94B68A0C9492110C9408
:1001B000D61F0C94AB100C94976E0C946D110C948C
:1001C0002E110C945F110C9469110C9489110C94EC
:1001D00035950C94789B0C946F5B0C949A8A0C94D4
:1001E00071110C94ED100C94B4B00C94436E0C94FB
:1001F000A88A0C94DEB40C94C9100C9485110C944C
:1002000098B30C94B6BA0C945EB20C944E110C9444
:1002100062B10C94D9100C94EB8B0C947F110C945C
:10022000F5B20C9458AF0C94B3AA0C94DEAE0C94B7
:10023000B5100C946E360C947B110C94B56E0C9426
:10024000D1100C94DC880C9452110C9486130C94ED
:100250006BB60C946A870C941A110C945F6E0C9414
:100260006C8B0C944D9D0C94B0100C94D9930C9401
:10027000BD6E0C94E3100C943BB40C94229F0C9430
:1002800024110C94886E0C9463110C94CB1F0C9465
:1002900058110C948D110C9406B00C94DEB10C9492
:1002A00038110C94EB1F0C943EB60C9410110C9466
:1002B000B16E0C94DF440C946A360C94BF100C940D
:1002C0008B960C9406110C94F7100C9491AE0C9430
:1002D00086B50C9477110C946E6E0C94808B0C94F4
:1002E000E11F0C948EA30C9461910C945B110C94FF
:1002F000C01F4E414E494E495459494E46CDCCCC73
:100300003D0AD7233C17B7D13877CC2B329595E6E9
:10031000241FB14F0A000020410000C84200401CC9
:100320004620BCBE4CCA1B0E5AAEC59D74000009C7
:100330000A02080B0C0D0706030401000000000070
:1003400000000000000000000000000000000000AD
:1003500000000000000000000011100F000000006D
:10036000000000000000000000000000000000008D
:10037000000000010210202008081020401020403A
:100380008002010201080402010102040810204059
:100390008080402010080402018004020180402077
:1003A00010080402010804020101020408102040A0
:1003B0008001020408102040800505050507050896
:1003C000080808020202020A0A08080404040401D8
:1003D00001010101010101030303030303030304FA
:1003E0000707070C0C0C0C0C0C0C0C02020202068A
:1003F000060606060606060B0B0B0B0B0B0B0B007B
:10040000002200250028002B002E003100340002BD
:10041000010000050108010B010000210024002754
:10042000002A002D00300033000101000004010704
:10043000010A0153544F505045442E200050726918
:100440006E7465722073746F707065642064756576
:1004500020746F206572726F72732E204669782047
:10046000746865206572726F7220616E64207573A6
:1004700065204D39393920746F207265737461724B
:10048000742E202854656D706572617475726520D4
:1004900069732072657365742E20536574206974C6
:1004A0002061667465722072657374617274696E1E
:1004B0006729004B494C4C45442E20005072696E10
:1004C0007465722068616C7465642E206B696C6C55
:1004D00028292063616C6C656421006F6B00526594
:1004E00073656E643A20002200556E6B6E6F776EF6
:1004F00020636F6D6D616E643A2022004368616E07
:1005000067652066696C616D656E74005A204F6680
:1005100066736574203A20007A5F6D61783A200036
:100520007A5F6D696E3A20005A204F666673657473
:10053000005A204F6666736574206F6B007A5F6D9A
:1005400061783A20007A5F6D696E3A2000795F6DBC
:1005500061783A2000795F6D696E3A2000785F6DAE
:1005600061783A2000785F6D696E3A2000205A3A2F
:100570000020593A0020436F756E7420583A2000CD
:1005800020453A00205A3A0020593A00583A00468D
:1005900049524D574152455F4E414D453A4D61726A
:1005A0006C696E2056313B20537072696E746572AF
:1005B0002F6772626C206D617368757020666F7250
:1005C0002067656E36204649524D574152455F556A
:1005D000524C3A687474703A2F2F6669726D776165
:1005E00072652E756C74696D616B65722E636F6DCB
:1005F0002050524F544F434F4C5F56455253494F32
:100600004E3A312E30204D414348494E455F5459B2
:1006100050453A556C74696D616B6572204558544C
:1006200052554445525F434F554E543A312055552B
:1006300049443A30303030303030302D3030303086
:100640002D303030302D303030302D3030303030B3
:10065000303030303030300A00556C74696D616B69
:100660006572204F66662E0042656420646F6E6579
:100670002E0020423A0020453A00543A0042656478
:100680002048656174696E672E0048656174696E03
:100690006720646F6E652E0020573A0020453A00AF
:1006A000543A0048656174696E672E2E2E00204210
:1006B000403A0020403A00202F003A002054002009
:1006C0002F0020423A00202F006F6B20543A002563
:1006D00069206D696E2C2025692073656300456E65
:1006E000642066696C65206C697374004265676993
:1006F0006E2066696C65206C697374004E6F206DA6
:100700006F76652E00526573756D696E6720707225
:10071000696E74005761697420666F722075736525
:10072000722E2E2E00536C6565702E2E2E002569BC
:1007300020686F757273202569206D696E75746508
:100740007300446F6E65207072696E74696E672005
:1007500066696C650053544F505045442E2000503C
:1007600072696E7465722073746F70706564206452
:10077000756520746F206572726F72732E204669E2
:100780007820746865206572726F7220616E6420D3
:10079000757365204D39393920746F207265737413
:1007A0006172742E202854656D7065726174757263
:1007B000652069732072657365742E2053657420FB
:1007C00069742061667465722072657374617274F5
:1007D000696E6729006F6B004E6F204C696E652053
:1007E0004E756D6265722077697468206368656311
:1007F0006B73756D2C204C617374204C696E653A77
:1008000020004E6F20436865636B73756D207769B8
:100810007468206C696E65206E756D6265722C203F
:100820004C617374204C696E653A2000636865639F
:100830006B73756D206D69736D617463682C204CEA
:10084000617374204C696E653A20004C696E6520B6
:100850004E756D626572206973206E6F74204C61F5
:100860007374204C696E65204E756D6265722B3114
:100870002C204C617374204C696E653A20004D3118
:10088000313000446F6E6520736176696E67206653
:10089000696C652E006F6B004D3239002020506C62
:1008A000616E6E65724275666665724279746573D3
:1008B0003A20002046726565204D656D6F72793A69
:1008C00020004D6172203135203230313800436FC5
:1008D0006D70696C65643A20002844617669642013
:1008E000427261616D2900207C20417574686F72CD
:1008F0003A20004D617220313520323031382031BC
:10090000333A30313A353100204C617374205570E0
:1009100064617465643A2000312E302E30004D61E0
:10092000726C696E0020536F667477617265205235
:100930006573657400205761746368646F67205243
:1009400065736574002042726F776E206F75742036
:100950005265736574002045787465726E616C2011
:10096000526573657400506F7765725570007374CB
:10097000617274002200656E717565696E67202270
:10098000002200656E717565696E67202200FFFFA9
:10099000FF0000A0400000A0400000004000005206
:1009A00043000052430000524300000000000000DA
:1009B00000000000000000524300005243000052BB
:1009C00043000000000000000000000000656368B4
:1009D0006F3A004572726F723A0041414141E14104
:1009E0004143454545454949494944EE4F4F4F4FDD
:1009F000EF784F555555F55954E261616161E161F8
:100A00006163656565656969696964EE6F6F6F6FDC
:100A1000EFFD6F757575F5797479007C3C3E5E2B42
:100A20003D3F2F5B5D3B2C2A225C0020746F6F20C2
:100A30006C6F6E6720657874727573696F6E207065
:100A4000726576656E7465640020636F6C64206502
:100A50007874727573696F6E2070726576656E74E6
:100A60006564006563686F3A00656E6473746F70E7
:100A700073206869743A205A00205A3A00656E64FF
:100A800073746F7073206869743A20590020593A62
:100A900000656E6473746F7073206869743A2058CF
:100AA0000020583A00656E6473746F707320686933
:100AB000743A200024F4D43050C38E20C2A24017D0
:100AC000828B7011127A910D816CD90AA861E108AC
:100AD000C7586607615143061E4B5D05C145A70413
:100AE0001A411104093D9803713931034036DB0284
:100AF00065339102D4305402802E1D02632CEE0126
:100B0000752AC501B028A001102781018F25640135
:100B10002B244B01E0223401AC211F018D200D015B
:100B2000801FFC00841EED00971DDF00B81CD20062
:100B3000E61BC600201BBC00641AB200B219A80054
:100B40000A19A0006A189900D117910040178B006C
:100B5000B516840031167E00B31579003A1573007E
:100B6000C7146F0058146A00EE1366008813630000
:100B700025135E00C7125B006C125700151254005B
:100B8000C111510070114F0021114B00D6104900C6
:100B90008D1047004610440002104200C00F400074
:100BA000800F3E00420F3C00060F3B00CB0E38008A
:100BB000930E37005C0E3500270E3400F30D320023
:100BC000C10D3100900D3000600D2E00320D2D0052
:100BD000050D2C00D90C2B00AE0C2900850C29002A
:100BE0005C0C2700350C27000E0C2600E80B2400B7
:100BF000C40B2400A00B23007D0B23005A0B210003
:100C0000390B2100180B2000F80A1F00D90A1E001A
:100C1000BB0A1E009D0A1D00800A1D00630A1C00FD
:100C2000470A1B002C0A1B00110A1A00F7091A00B8
:100C3000DD091900C4091900AB0919009209170050
:100C40007B091800630917004C09160036091600C5
:100C5000200916000A091500F5081500E00814001F
:100C6000CC081400B8081400A4081400900813005D
:100C70007D0812006B081300580812004608120085
:100C80003408110023081100120811000108110096
:100C9000F0071000E0071000D0071000C007100098
:100CA000B0070F00A107100091070E0083070F0087
:100CB00074070F0065070E0057070E0049070E0066
:100CC0003B070D002E070E0020070D0013070D0037
:100CD00006070D00F9060C00ED060D00E0060C00FD
:100CE000D4060C00C8060C00BC060C00B0060C00B4
:100CF000A4060B0099060C008D060B0082060B0063
:100D000077060B006C060B0061060A0057060B0005
:100D10004C060A0042060A0038060A002E060A009F
:100D200024060A001A060A001006090007060A002F
:100D3000FD050900F4050900EB050900E2050900BD
:100D4000D9050900D0050900C7050900BE0509003D
:100D5000B5050800AD050800A50509009C050800BB
:100D6000940508008C050800840508007C0508002F
:100D7000740508006C050700650508005D0507009F
:100D8000560508004E050700470507004005080006
:100D900038050700310507002A050700230507006D
:100DA0001C050600160507000F05070008050600CC
:100DB00002050700FB040600F5040700EE04060028
:100DC000E8040600E2040700DB040600D504060080
:100DD000CF040600C9040600C3040600BD040600D3
:100DE000B7040600B1040500AC040600A604060022
:100DF000A00405009B04060095040500900406006D
:100E00008A04050085040500800406007A040500B4
:100E100075040500700405006B04050066040500F8
:100E2000610405005C040500570405005204050038
:100E30004D04050048040500430405003E04040079
:100E40003A04050035040500300404002C040500B4
:100E500027040400230405001E0404001A040400EF
:100E600016040500110404000D0404000904050023
:100E70000404040000040400FC030400F80304005C
:100E8000F4030400F0030400EC030400E80304008E
:100E9000E4030400E0030400DC030400D8030400BE
:100EA000D4030400D0030400CC030400C8030300EF
:100EB000C503030024F404D9201BC40C5C0E980461
:100EC000C4095F0265077101F405F900FB04B30072
:100ED00048048700C1036900580355000303450017
:100EE000BE023A008402310053022A002902250082
:100EF00004022000E4011C00C8011900AF01170022
:100F000098011400840113007101100061011000A8
:100F100051010E0043010D0036010B002B010B00A7
:100F200020010B00150109000C0109000301080054
:100F3000FB000800F3000800EB000700E4000600D7
:100F4000DE000600D8000600D2000600CC00050036
:100F5000C7000500C2000500BD000400B900040080
:100F6000B5000400B1000400AD000400A9000400B5
:100F7000A5000300A20003009F0004009B000300E3
:100F80009800030095000200930003009000030006
:100F90008D0002008B000300880002008600020022
:100FA00084000300810002007F0002007D00020037
:100FB0007B00020079000200770001007600020049
:100FC0007400020072000100710002006F00020054
:100FD0006D0001006C0002006A000100690002005F
:100FE0006700010066000100650001006400020066
:100FF0006200010061000100600001005F0002006A
:101000005D0001005C0001005B0001005A0001006E
:10101000590001005800010057000100560001006E
:10102000550001005400010053000000530001006E
:101030005200010051000100500001004F0001006A
:101040004E0000004E0001004D0001004C00010068
:101050004B0000004B0001004A0001004900010064
:101060004800000048000100470001004600000061
:101070004600010045000000450001004400010059
:101080004300000043000100420000004200010054
:101090004100000041000100400001003F0000004D
:1010A0003F0001003E0000003E0001003D00000046
:1010B0003D0001003C0000003C0000003C0001003D
:1010C0003B0000003B0001003A0000003A00010034
:1010D000390000003900010038000000380000002D
:1010E0003800010037000000370001003600000022
:1010F0003600000036000100350000003500000019
:10110000350001003400000034000000340001000C
:101110003300000033000000330001003200000003
:1011200032000000320001003100000031000000F8
:1011300031000100300000003000000030000100EC
:101140002F0000002F0000002F0000002F000100E2
:101150002E0000002E0000002E0001002D000000D7
:101160002D0000002D0000002D0001002C000000CB
:101170002C0000002C0000002C0001002B000000BF
:101180002B0000002B0000002B0001002A000000B3
:101190002A0000002A0000002A00010029000000A7
:1011A000290000002900000029000000290001009A
:1011B000280000002800000028000000280000008F
:1011C0002800010027000000270000002700000081
:1011D0002700000027000100260000002600000074
:1011E0002600000026000000260001002500000067
:1011F000250000002500000025000000250000005B
:10120000250001002400000024000000240000004C
:10121000240000002400010023000000230000003F
:101220002300000023000000230000002300000032
:101230002300010022000000220000002200000024
:101240002200000022000000220001002100000016
:10125000210000002100000021000000210000000A
:1012600021000000210001002000000020000000FB
:1012700020000000200000002000000020000000EE
:1012800020000000200001001F0000001F000000DF
:101290001F0000001F0000001F0000001F000000D2
:1012A0001F0001001E0000001E0000001E000000C4
:1012B0001E0000006563686F3A004572723A204D67
:1012C000415854454D50204245440054656D706569
:1012D0007261747572652068656174656420626509
:1012E00064207377697463686564206F66662E2076
:1012F0004D415854454D5020747269676765726559
:1013000064202121004572723A204D494E54454DCA
:1013100050003A204578747275646572207377695D
:101320007463686564206F66662E204D494E54458F
:101330004D502074726967676572656420210045AD
:1013400072723A204D415854454D50003A2045782C
:10135000747275646572207377697463686564205C
:101360006F66662E204D415854454D502074726969
:1013700067676572656420210048656174696E67FE
:10138000206661696C656400202D20496E76616C71
:101390006964206578747275646572206E756D621B
:1013A0006572202100504944204175746F74756E38
:1013B000652066696E6973686564212050757420C4
:1013C000746865206C617374204B702C204B69200D
:1013D000616E64204B6420636F6E7374616E74730E
:1013E0002066726F6D2061626F766520696E746F22
:1013F00020436F6E66696775726174696F6E2E68DF
:1014000000504944204175746F74756E65206661A3
:10141000696C6564212074696D656F757400204086
:101420003A006F6B20543A006F6B20423A005049EB
:1014300044204175746F74756E65206661696C65D2
:1014400064212054656D70657261747572652074D5
:101450006F6F206869676800204B643A2000204B5A
:10146000693A2000204B703A200020436C6173736E
:1014700069632050494420002054753A2000204BD5
:10148000753A2000206D61783A2000206D696E3A2F
:10149000200020643A200020626961733A200065D0
:1014A00063686F3A004572726F723A000000000084
:1014B000300E0100C00E0A00500F1400D00F1E00A5
:1014C00060102800E010320070113C00F01146005E
:1014D0007012500000135A008013640000146E0054
:1014E000901478001015820090158C00101696004C
:1014F0009016A0001017AA009017B4001018BE0094
:101500009018C8001019D2009019DC00101AE600DB
:10151000801AF000001BFA00801B0401F01B0E0172
:10152000701C1801F01C2201601D2C01E01D360109
:10153000501E4001D01E4A01401F5401B01F5E01E1
:1015400030206801A020720110217C0190218601C9
:10155000002290016026F401902A5802802EBC02DD
:1015600050322003E03584035039E803803C4C04BA
:101570004D383420582059205A20450043616E6E62
:101580006F7420656E746572207375626469723A57
:1015900020004D3234004D323320257300617574C4
:1015A0006F25692E67006572726F72207772697499
:1015B000696E6720746F2066696C65004E6F7420D9
:1015C0005344207072696E74696E67002F00534433
:1015D000207072696E74696E67206279746520008C
:1015E0002E0044656C6574696F6E206661696C6578
:1015F000642C2046696C653A200046696C6520645D
:10160000656C657465643A002E006F70656E2066C7
:1016100061696C65642C2046696C653A20005772DC
:101620006974696E6720746F2066696C653A200082
:101630002E006F70656E206661696C65642C2046B3
:10164000696C653A20002E006F70656E20666169D6
:101650006C65642C2046696C653A200046696C65AF
:101660002073656C6563746564002053697A653A1C
:10167000200046696C65206F70656E65643A2000D5
:101680002E006F70656E206661696C65642C204663
:10169000696C653A20004E6F77206672657368202A
:1016A00066696C653A20004E6F7720646F696E67DB
:1016B0002066696C653A20002220706F730022203A
:1016C000706172656E743A2200535542524F555400
:1016D000494E452043414C4C207461726765743A11
:1016E0002200747279696E6720746F2063616C6C7C
:1016F000207375622D67636F64652066696C65731E
:10170000207769746820746F6F206D616E79206C2A
:101710006576656C732E204D4158206C6576656C3E
:101720002069733A0053442063617264206F6B0038
:101730006F70656E526F6F74206661696C656400CE
:10174000766F6C756D652E696E6974206661696C63
:10175000656400534420696E6974206661696C0099
:101760006563686F3A004572726F723A0048617241
:1017700064636F6465642044656661756C742053AE
:10178000657474696E6773204C6F6164656400539F
:10179000746F7265642073657474696E6773207208
:1017A00065747269657665640020440020490020F4
:1017B00020204D333031205000504944207365744F
:1017C00074696E67733A00205A0020590020204D3A
:1017D000323036205800486F6D65206F666673653D
:1017E0007420286D6D293A00204500205A002058A9
:1017F0000020420020540020204D3230352053007C
:10180000416476616E636564207661726961626CC1
:1018100065733A20533D4D696E206665656472615B
:10182000746520286D6D2F73292C20543D4D696EF1
:101830002074726176656C2066656564726174659A
:1018400020286D6D2F73292C20423D6D696E696DC6
:10185000756D207365676D656E742074696D6520A4
:10186000286D73292C20583D6D6178696D756D2048
:101870005859206A65726B20286D6D2F73292C20B2
:10188000205A3D6D6178696D756D205A206A6572C8
:101890006B20286D6D2F73292C2020453D6D6178BC
:1018A000696D756D2045206A65726B20286D6D2FFE
:1018B00073290020540020204D3230342053004141
:1018C0006363656C65726174696F6E3A20533D6144
:1018D0006363656C65726174696F6E2C20543D7230
:1018E00065747261637420616363656C65726174B1
:1018F000696F6E00204500205A0020590020204DBD
:101900003230312058004D6178696D756D2041632A
:1019100063656C65726174696F6E20286D6D2F73DD
:1019200032293A00204500205A0020590020204D3D
:101930003230332058004D6178696D756D206665D1
:101940006564726174657320286D6D2F73293A0088
:10195000204500205A0020590020204D39322058BF
:101960000053746570732070657220756E69743AE7
:101970000053657474696E67732053746F72656485
:10198000006563686F3A0002436172642072656D9E
:101990006F766564004361726420696E736572746A
:1019A0006564002D2D3A2D2D002D2D2D0053440062
:1019B0002059000120000120004D363030004368DE
:1019C000616E67652066696C616D656E7400466C5A
:1019D0006F7700466C6F770046616E2073706565A7
:1019E000640046616E207370656564004265640042
:1019F000426564004E6F7A7A6C65004E6F7A7A6C3D
:101A000065005370656564005370656564004D61E1
:101A1000696E004D38342058302059300047323834
:101A2000005A005072656865617420504C41204234
:101A30006564005072656865617420504C412031C6
:101A400000507265706172650050726568656174FE
:101A5000204142532042656400507265686561749C
:101A60002041425320310050726570617265005808
:101A70000059005A004578747275646572004578A3
:101A8000747275646572004D6F7665205A004D6FF3
:101A900076652059004D6F76652058004D6F76654C
:101AA0002061786973004D6F766520302E316D6D41
:101AB000004D6F766520316D6D004D6F766520317C
:101AC000306D6D0050726570617265004D6F7665A6
:101AD000206178697300436F6F6C646F776E00509C
:101AE0007265686561742041425300507265686593
:101AF000617420504C41004D6F7665205A0041754D
:101B0000746F20686F6D65004D38340044697361EF
:101B1000626C65207374657070657273004D6169E5
:101B20006E0053746F7265206D656D6F727900423F
:101B3000656400426564004E6F7A7A6C65004E6F92
:101B40007A7A6C650046616E207370656564004644
:101B5000616E2073706565640054656D70657261B7
:101B6000747572650053746F7265206D656D6F7268
:101B7000790042656400426564004E6F7A7A6C6554
:101B8000004E6F7A7A6C650046616E2073706565F1
:101B9000640046616E2073706565640054656D7005
:101BA0006572617475726500507265686561742054
:101BB00041425320636F6E660050726568656174C0
:101BC00020504C4120636F6E66005049442D430005
:101BD0005049442D43005049442D44005049442D60
:101BE00044005049442D49005049442D4900504972
:101BF000442D50005049442D500046616E207370B2
:101C00006565640046616E207370656564004265B9
:101C10006400426564004E6F7A7A6C65004E6F7A9C
:101C20007A6C6500436F6E74726F6C0045737465F7
:101C300070732F6D6D004573746570732F6D6D003B
:101C40005A73746570732F6D6D005A737465707379
:101C50002F6D6D005973746570732F6D6D0059731E
:101C6000746570732F6D6D005873746570732F6D8C
:101C70006D005873746570732F6D6D00412D726522
:101C8000747261637400412D7265747261637400D3
:101C9000416D6178206500416D6178206500416D7E
:101CA0006178207A00416D6178207A00416D617819
:101CB000207900416D6178207900416D617820784C
:101CC00000416D61782078005654726176206D690C
:101CD0006E005654726176206D696E00566D696EA5
:101CE00000566D696E00566D6178206500566D6115
:101CF00078206500566D6178207A00566D617820F5
:101D00007A00566D6178207900566D6178207900EF
:101D1000566D6178207800566D61782078005665A0
:101D20002D6A65726B0056652D6A65726B00567A76
:101D30002D6A65726B00567A2D6A65726B00567853
:101D4000792D6A65726B005678792D6A65726B0021
:101D5000416363656C00416363656C00436F6E743F
:101D6000726F6C004D617220313520323031382075
:101D700031333A30313A3533003235303030305F3C
:101D800073696E676C655F484200556C74696D617C
:101D90006B65723A5F332E332E30004669726D7771
:101DA0006172652076657273696F6E004669726D47
:101DB000776172652076657273696F6E0052657324
:101DC000746F7265206661696C73616665004C6F43
:101DD0006164206D656D6F72790053746F72652058
:101DE0006D656D6F7279004D6F74696F6E0054652B
:101DF0006D7065726174757265004D61696E004D3C
:101E0000383420582059205A2045004D3234004D96
:101E1000323320257300052E2E004D61696E004E71
:101E20006F2053442063617264005072696E7420A5
:101E300066726F6D2053440053746F702070726926
:101E40006E7400526573756D65207072696E7400F2
:101E50005061757365207072696E7400436F6E74A3
:101E6000726F6C00507265706172650054756E65BA
:101E700000496E666F2073637265656E00006A3696
:101E800091AE6E3611241FBECFEFD1E2DEBFCDBFC3
:101E900000E00CBF14E0A0E0B2E0E8E1FDE801E002
:101EA0000BBF02C007900D92A036B107D9F722E10F
:101EB000A0E6B4E001C01D92A531B207E1F71FE032
:101EC000C1E4DFE000E006C021970109802FFE0198
:101ED0000E941BC0CF33D10780E00807A9F70E94FA
:101EE000BCBA0C947AC60C9400001F920F920FB6E5
:101EF0000F9211242F933F938F939F93AF93BF9390
:101F00008091610490916204A0916304B091640493
:101F10003091600423E0230F2D3720F40196A11D9A
:101F2000B11D05C026E8230F0296A11DB11D209307
:101F300060048093610490936204A0936304B0935F
:101F400064048091650490916604A0916704B09147
:101F500068040196A11DB11D8093650490936604E9
:101F6000A0936704B0936804BF91AF919F918F9144
:101F70003F912F910F900FBE0F901F9018952FB784
:101F8000F89460916104709162048091630490916F
:101F900064042FBF08953FB7F89480916504909131
:101FA0006604A0916704B091680426B5A89B05C09B
:101FB0002F3F19F00196A11DB11D3FBFBA2FA92FC8
:101FC000982F8827820F911DA11DB11DBC01CD0145
:101FD00042E0660F771F881F991F4A95D1F7089531
:101FE000CF92DF92EF92FF92CF93DF936B017C0150
:101FF0000E94CB0FEB01C114D104E104F10479F08C
:102000000E94CB0F6C1B7D0B683E7340A0F381E0F8
:10201000C81AD108E108F108C851DC4FECCFDF91B4
:10202000CF91FF90EF90DF90CF900895019739F016
:10203000880F991F880F991F02970197F1F708954C
:10204000789484B5826084BD84B5816084BD85B593
:10205000826085BD85B5816085BDEEE6F0E080815A
:1020600081608083E1E8F0E010828081826080837B
:10207000808181608083E0E8F0E0808181608083FE
:10208000E1EBF0E0808184608083E0EBF0E0808130
:1020900081608083E1E9F0E08081826080838081DB
:1020A00081608083E0E9F0E0808181608083E1EA03
:1020B000F0E0808182608083808181608083E0EABB
:1020C000F0E0808181608083E1E2F1E080818260E4
:1020D0008083808181608083E0E2F1E080818160A3
:1020E0008083EAE7F0E08081846080838081826081
:1020F000808380818160808380818068808310926A
:10210000C10008951F93CF93DF93182FEB0161E077
:102110000E949311209711F460E004C0CF3FD105D5
:1021200039F461E0812FDF91CF911F910C94CF1191
:10213000E12FF0E0E35DFC4FE4918E2F90E0FC0195
:102140003197E131F10508F093C08827EE58FF4F31
:102150008F4F0C941BC084B5806884BDC7BD8DC0F3
:1021600084B5806284BDC8BD88C0809180008068CD
:1021700080938000D0938900C09388007EC08091B6
:102180008000806280938000D0938B00C0938A008F
:1021900074C08091B00080688093B000C093B30099
:1021A0006CC08091B00080628093B000C093B40096
:1021B00064C080919000806880939000D0939900D3
:1021C000C09398005AC080919000806280939000E4
:1021D000D0939B00C0939A0050C08091900088607B
:1021E00080939000D0939D00C0939C0046C0809146
:1021F000A00080688093A0008091A0008F7B8093D6
:10220000A000D093A900C093A80037C08091A0007F
:1022100080628093A000D093AB00C093AA002DC031
:102220008091A00088608093A000D093AD00C093FF
:10223000AC0023C080912001806880932001D0935E
:102240002901C093280119C08091200180628093E8
:102250002001D0932B01C0932A010FC0809120014F
:10226000886080932001D0932D01C0932C0105C07C
:10227000C038D1050CF055CF4FCFDF91CF911F91D2
:10228000089590E0FC013197E131F10508F04AC072
:102290008827ED57FF4F8F4F0C941BC08091800013
:1022A0008F7703C0809180008F7D80938000089598
:1022B00084B58F7702C084B58F7D84BD08958091E9
:1022C000B0008F7703C08091B0008F7D8093B00005
:1022D0000895809190008F7707C0809190008F7D46
:1022E00003C080919000877F809390000895809133
:1022F000A0008F7707C08091A0008F7D03C08091E0
:10230000A000877F8093A0000895809120018F779F
:1023100007C0809120018F7D03C080912001877FBD
:10232000809320010895CF93DF9390E0FC01ED5856
:10233000FC4F2491FC01E754FC4F8491882361F108
:1023400090E0880F991FFC01E75EFB4FC591D49187
:10235000FC01E150FC4FA591B491611109C09FB7F8
:10236000F8948881209582238883EC912E230BC0DA
:10237000623061F49FB7F8948881322F30958323BF
:102380008883EC912E2B2C939FBF06C08FB7F894B7
:10239000E8812E2B28838FBFDF91CF9108951F9363
:1023A000CF93DF93282F30E0F901E35DFC4F849158
:1023B000F901ED58FC4FD491F901E754FC4FC49159
:1023C000CC23C1F0162F81110E944111EC2FF0E0B7
:1023D000EE0FFF1FE150FC4FA591B4919FB7F89409
:1023E000111104C08C91D095D82302C0EC91DE2B42
:1023F000DC939FBFDF91CF911F9108951F920F92A1
:102400000FB60F9211240BB60F922F933F934F9359
:102410005F936F937F938F939F93AF93BF93EF934C
:10242000FF9380916D0490916E04892B29F0E091C7
:102430006D04F0916E041995FF91EF91BF91AF91EA
:102440009F918F917F916F915F914F913F912F91CC
:102450000F900BBE0F900FBE0F901F9018951F92FC
:102460000F920FB60F9211240BB60F922F933F933A
:102470004F935F936F937F938F939F93AF93BF938C
:10248000EF93FF9380916F0490917004892B29F052
:10249000E0916F04F09170041995FF91EF91BF9155
:1024A000AF919F918F917F916F915F914F913F91EC
:1024B0002F910F900BBE0F900FBE0F901F9018958D
:1024C0001F920F920FB60F9211240BB60F922F93FB
:1024D0003F934F935F936F937F938F939F93AF93AC
:1024E000BF93EF93FF938091710490917204892BB5
:1024F00029F0E0917104F09172041995FF91EF9128
:10250000BF91AF919F918F917F916F915F914F910B
:102510003F912F910F900BBE0F900FBE0F901F9009
:1025200018951F920F920FB60F9211240BB60F92AF
:102530002F933F934F935F936F937F938F939F93CB
:10254000AF93BF93EF93FF938091730490917404C2
:10255000892B29F0E0917304F09174041995FF918F
:10256000EF91BF91AF919F918F917F916F915F910B
:102570004F913F912F910F900BBE0F900FBE0F9078
:102580001F9018951F920F920FB60F9211240BB641
:102590000F922F933F934F935F936F937F938F93FC
:1025A0009F93AF93BF93EF93FF93809169049091B2
:1025B0006A04892B29F0E0916904F0916A04199565
:1025C000FF91EF91BF91AF919F918F917F916F910B
:1025D0005F914F913F912F910F900BBE0F900FBEC7
:1025E0000F901F9018951F920F920FB60F92112403
:1025F0000BB60F922F933F934F935F936F937F93FD
:102600008F939F93AF93BF93EF93FF9380916B044E
:1026100090916C04892B29F0E0916B04F0916C048B
:102620001995FF91EF91BF91AF919F918F917F91FC
:102630006F915F914F913F912F910F900BBE0F9033
:102640000FBE0F901F9018951F920F920FB60F920A
:1026500011240BB60F922F933F934F935F936F9379
:102660007F938F939F93AF93BF93EF93FF9380914B
:10267000750490917604892B29F0E0917504F0910E
:1026800076041995FF91EF91BF91AF919F918F9132
:102690007F916F915F914F913F912F910F900BBE62
:1026A0000F900FBE0F901F9018951F920F920FB6AC
:1026B0000F9211240BB60F922F933F934F935F937A
:1026C0006F937F938F939F93AF93BF93EF93FF93FA
:1026D0008091770490917804892B29F0E091770418
:1026E000F09178041995FF91EF91BF91AF919F916F
:1026F0008F917F916F915F914F913F912F910F90AB
:102700000BBE0F900FBE0F901F901895CF92DF92C7
:10271000EF92FF920F931F93CF93DF936C01EB0126
:102720007B01E40EF51E00E010E0CE15DF0561F040
:102730006991D601ED91FC910190F081E02DC601E7
:102740001995080F191FF1CFC801DF91CF911F9183
:102750000F91FF90EF90DF90CF9008956115710574
:1027600079F0FB0101900020E9F73197AF01461B9A
:10277000570BDC01ED91FC910280F381E02D19945F
:1027800080E090E008950C94AE13DC01ED91FC9193
:102790000190F081E02D1994FC016591759185916E
:1027A00094910895EF92FF920F931F93CF93DF932D
:1027B000EC01CC0FDD1FCC0FDD1FCE018755964FEE
:1027C0000E94CC139B01AC01CE018459994F7C012E
:1027D0008E01005A194FF8016081718182819381C5
:1027E0000E94CABAF7016083718382839383CE010A
:1027F0008F53964F0E94CC139B01AC01CE018C5A93
:10280000994F7C01F80160817181828193810E94DE
:10281000CABAF7016083718382839383CE018B549C
:10282000964F0E94CC139B01AC01C55FDD4FF801B0
:1028300060817181828193810E94CABA68837983A1
:102840008A839B83DF91CF911F910F91FF90EF902F
:1028500008952F923F924F925F926F927F928F9244
:102860009F92AF92BF92CF92DF92EF92FF920F931F
:102870001F93CF93DF9300D01F92CDB7DEB79C8319
:102880008B83FC01E257F64F94905C01AA0CBB1CB1
:10289000AA0CBB1CC5018459994F1C01FC01108274
:1028A00011821282138228E736E044E756E060E79F
:1028B00076E08CE696E00E94BB5AC5018356964F9F
:1028C0000E94CC136B017C01692D990C770B880B4E
:1028D000990B0E9473BC2B013C01C501865C994F8A
:1028E0004C0120E030E040EC5FE3C701B6010E94FC
:1028F000C8BEA30192010E94C8BEF4016083718327
:1029000082839383C5018F5D9D4F9A838983FC01E8
:1029100060817181828193816093050270930602C8
:10292000809307029093080220E030E040E752E4F1
:102930000E94C9BB2CE4C22E26E0D22E7B018C0162
:1029400026E436E042E456E06EE376E08AE396E081
:102950000E9497500E941A64F10110821182128223
:10296000138228E736E044E756E060E776E08CE63D
:1029700096E00E94BB5AC5018F56964F5C010E949B
:10298000CC139058A30192010E94C8BEF401608349
:1029900071838283938320E030E040E752E46091CA
:1029A00005027091060280910702909108020E9430
:1029B000C9BB7B018C0126E436E042E456E06EE3BD
:1029C00076E08AE396E00E9497500E941A64C5015F
:1029D0000E94CC139B01AC010E94CABAA3019201D0
:1029E0000E94C8BEF401608371838283938320E0D8
:1029F00030E040E05FE3E981FA81608171818281AA
:102A000093810E94C8BE6093050270930602809372
:102A100007029093080220E030E040E752E40E9471
:102A2000C9BB7B018C0126E436E042E456E06EE34C
:102A300076E08AE396E00E9497500E941A648B81A8
:102A40009C810E94D213F10180819181A281B38186
:102A5000F40180839183A283B383109205021092C4
:102A6000060210920702109208020E94435C8B81BA
:102A70009C818F5A994F9A83898381E0E981FA81F9
:102A800080830F900F900F900F90DF91CF911F9147
:102A90000F91FF90EF90DF90CF90BF90AF909F90FD
:102AA0008F907F906F905F904F903F902F90089500
:102AB000FC01238121110C943B400895FC012491D9
:102AC000222341F03091C00035FFFCCF2093C60097
:102AD0000196F4CF22E030E08FE099E00C94C33807
:102AE000FC012491222341F03091C00035FFFCCF3E
:102AF0002093C6000196F4CF2AE030E08FE099E001
:102B00000C941838CF93DF931F921F92CDB7DEB786
:102B100020910F1230911012CE010196211531052E
:102B200019F48551924102C0821B930B9A838983C9
:102B300089819A810F900F90DF91CF910895209114
:102B4000930430919404243031050CF069C0BC0129
:102B5000209195043091960440E6429FC001439F26
:102B6000900D112483569B4F0E9454C3EDECF9E065
:102B70008491882341F09091C00095FFFCCF809311
:102B8000C6003196F5CFE3E8F9E08491882341F05F
:102B90009091C00095FFFCCF8093C6003196F5CF91
:102BA000809195049091960420E6289FF001299F3A
:102BB000F00D1124E356FB4F8191882339F0909159
:102BC000C00095FFFCCF8093C600F6CFE1E8F9E0A6
:102BD0008491882341F09091C00095FFFCCF8093B1
:102BE000C6003196F5CF8091C00085FFFCCF8AE00A
:102BF0008093C6008091950490919604019664E0BC
:102C000070E00E94C6BF90939604809395048091D3
:102C10009304909194040196909394048093930468
:102C200008952091930430919404243031050CF0E0
:102C300069C0BC01209195043091960440E6429F02
:102C4000C001439F900D112483569B4F0E94E0C208
:102C5000EDECF9E08491882341F09091C00095FF5C
:102C6000FCCF8093C6003196F5CFE6E7F9E084917A
:102C7000882341F09091C00095FFFCCF8093C6005F
:102C80003196F5CF809195049091960420E6289F87
:102C9000F001299FF00D1124E356FB4F8191882309
:102CA00039F09091C00095FFFCCF8093C600F6CF1D
:102CB000E4E7F9E08491882341F09091C00095FF0A
:102CC000FCCF8093C6003196F5CF8091C00085FF80
:102CD000FCCF8AE08093C600809195049091960481
:102CE000019664E070E00E94C6BF909396048093C2
:102CF0009504809193049091940401969093940488
:102D0000809393040895809A889A0895809A889869
:102D100008950E94831640E950ED63E070E08FE073
:102D200099E00E94E436EEE6F9E08491882341F0D0
:102D30009091C00095FFFCCF8093C6003196F5CFEF
:102D40008091C00085FFFCCF8AE08093C6008DECA7
:102D500099E0FC012491222341F03091C00035FF1D
:102D6000FCCF2093C6003196F5CF24B720FF14C0C6
:102D7000E6E6F9E03491332341F04091C00045FF8D
:102D8000FCCF3093C6003196F5CF3091C00035FFAF
:102D9000FCCF3AE03093C60021FF14C0E6E5F9E02D
:102DA0003491332341F04091C00045FFFCCF309374
:102DB000C6003196F5CF3091C00035FFFCCF3AE028
:102DC0003093C60022FF14C0E5E4F9E034913323C8
:102DD00041F04091C00045FFFCCF3093C6003196D2
:102DE000F5CF3091C00035FFFCCF3AE03093C600FC
:102DF00023FF14C0E5E3F9E03491332341F040911F
:102E0000C00045FFFCCF3093C6003196F5CF30911E
:102E1000C00035FFFCCF3AE03093C60025FF14C058
:102E2000E5E2F9E02491222341F03091C00035FF22
:102E3000FCCF2093C6003196F5CF2091C00025FF2E
:102E4000FCCF2AE02093C60014BEEEE1F9E0249105
:102E5000222341F03091C00035FFFCCF2093C60003
:102E60003196F5CFE8E1F9E02491222341F0309149
:102E7000C00035FFFCCF2093C6003196F5CF2091DE
:102E8000C00025FFFCCF2AE02093C600FC0124915E
:102E9000EDECF9E0222349F03091C00035FFFCCF82
:102EA0002093C60031962491F5CFE8E0F9E0249113
:102EB000222341F03091C00035FFFCCF2093C600A3
:102EC0003196F5CFE3EFF8E02491222341F03091E1
:102ED000C00035FFFCCF2093C6003196F5CFE7EE5A
:102EE000F8E02491222341F03091C00035FFFCCF5F
:102EF0002093C6003196F5CFE9EDF8E02491222326
:102F000041F03091C00035FFFCCF2093C6003196D0
:102F1000F5CF2091C00025FFFCCF2AE02093C6000A
:102F2000EEECF8E02491222341F03091C00035FF0F
:102F3000FCCF2093C6003196F5CFE2ECF8E0249167
:102F4000222341F03091C00035FFFCCF2093C60012
:102F50003196F5CF2091C00025FFFCCF2AE02093C9
:102F6000C600FC018491EDECF9E0882349F09091D2
:102F7000C00095FFFCCF8093C60031968491F5CFB9
:102F8000E3EBF8E08491882341F09091C00095FF35
:102F9000FCCF8093C6003196F5CF0E9482154AE09F
:102FA00050E0BC018FE099E00E941138ECE9F8E0B4
:102FB0008491882341F09091C00095FFFCCF8093CD
:102FC000C6003196F5CF4AE050E060ED74E08FE046
:102FD00099E00E9411388091C00085FFFCCF8AE003
:102FE0008093C6001092990410929A0410929B0448
:102FF00010929C040E9465800E9408680E945550AF
:103000000E9468810E949D630E946499FFEF23EDF6
:1030100080E3F15020408040E1F700C000000895B7
:1030200080918D0490918E0460E070E001960C9484
:1030300045C080918D0490918E044AE050E060E09C
:1030400070E001960C94A1C1682F70E02091970464
:103050003091980440E6429FC001439F900D112497
:1030600083569B4F0E9449C39C0190938E0480938A
:103070008D0481E0232B09F480E008950E94BF0FA6
:103080006093890470938A0480938B0490938C04DA
:1030900008950E94BF0F6093890470938A048093FF
:1030A0008B0490938C04E0919704F0919804E75678
:1030B000FB4F8081811114C0EBEDF4E084918823F3
:1030C00041F09091C00095FFFCCF8093C6003196EF
:1030D000F5CF8091C00085FFFCCF8AE08093C600C9
:1030E00008958FE099E00E943637EEEDF4E0849188
:1030F000882341F09091C00095FFFCCF8093C600DB
:103100003196F5CF40912206509123066091240616
:10311000709125064F5F5F4F6F4F7F4F2AE030E081
:103120008FE099E00E94C3378091C00085FFFCCFFB
:103130008AE08093C6000C9449182F923F924F92D8
:103140005F926F927F928F929F92AF92BF92CF9237
:10315000DF92EF92FF920F931F93CF93DF93CDB740
:10316000DEB76E970FB6F894DEBF0FBECDBF10E688
:1031700034E0C32ED12C4FE5642E47E0742E0AE0D4
:1031800055EDA52E57E0B52E552453948091900906
:10319000909191092091920930919309821B930B90
:1031A0008F779927892B09F46BC1809193049091B3
:1031B000940404970CF064C18FE099E00E941A37E0
:1031C0008093920420919004309191048A3061F0B0
:1031D0008D3051F08A3321F490918F04992321F09E
:1031E0002F3531050CF42DC12115310519F410923C
:1031F0008F046AC38091950490919604189F4001B2
:10320000199F900C1124A40143565B4F7A01FA01D7
:10321000E20FF31F108220918F0421110DC1109233
:103220008F04FC01E756FB4F10826EE470E0CA0188
:103230000E9449C3009709F43FC090938E04809385
:103240008D048E199F09880D991D4AE050E060E0B9
:1032500070E082569B4F0E94A1C160932606709336
:103260002706809328069093290620912206309104
:10327000230640912406509125062F5F3F4F4F4F64
:103280005F4F8090950490909604621773078407AF
:10329000950709F4A1C1189DC001199D900D112435
:1032A0006EE778E083569B4F0E940EC3892B09F08E
:1032B00093C1E3EDF9E035C16AE270E0C7010E9415
:1032C00049C3892B09F444C0E3EDF9E084918823D4
:1032D00041F09091C00095FFFCCF8093C6003196DD
:1032E000F5CFE8EDF7E08491882341F09091C0009C
:1032F00095FFFCCF8093C6003196F5CF4091220612
:103300005091230660912406709125062AE030E052
:103310008FE099E00E94C3378091C00085FFFCCF09
:103320008AE08093C6001092910410929004CCC25F
:103330008091260690912706A0912806B091290633
:103340008093220690932306A0932406B09325062B
:103350008091950490919604189F7001199FF00C2C
:103360001124C70183569B4F4C0167E470E00E9413
:1033700049C3009709F44BC090938E0480938D0449
:10338000881999098E0D9F1D60E070E082569B4F51
:103390000E9445C00E943BBC6430710508F037C0F4
:1033A00080917B0481111AC08091820681112FC007
:1033B000F5018491E5EDF7E0882349F09091C00094
:1033C00095FFFCCF8093C60031968491F5CF809114
:1033D000C00085FFFCCF0093C60019C0F3018491A3
:1033E000EFE5F7E0882349F09091C00095FFFCCF0E
:1033F0008093C60031968491F5CF8091C00085FFFF
:10340000FCCF0093C60085E597E00E94F598809177
:103410009504909196040196B6010E94C6BF9093C0
:10342000960480939504809193049091940401965E
:1034300090939404809393041092910410929004BA
:10344000A5CE8B3311F450928F0490918F0491117B
:103450009DCE6091950470919604A9014F5F5F4FD6
:103460005093910440939004169FA001179F500D14
:10347000112443565B4FFA01E20FF31F808386CE7F
:1034800080918406882309F41FC280919004909152
:103490009104892B09F018C28091930490919404AF
:1034A000892B11F41092790400E611E084E0882E53
:1034B000912C90E8492E9EEE592E96E3692E712CA0
:1034C0002EE2222E27E0322E9E012F5F3F4F590120
:1034D000409105095091060960910709709108090A
:1034E0008091FD089091FE08A091FF08B09100091D
:1034F000481759076A077B0708F0E6C180919304D3
:103500009091940404970CF0DFC1809179048111AB
:10351000DBC1BCC09091C00095FFFCCF8093C6007A
:10352000319684918111F6CFEBE4F8E08491882301
:1035300041F09091C00095FFFCCF8093C60031967A
:10354000F5CF409122065091230660912406709198
:1035500025062AE030E08FE099E00E94C337809191
:10356000C00085FFFCCF32C090938E0480938D0401
:10357000881999098E0D9F1D60E070E082569B4F5F
:103580000E9445C00E943BBC242D30E0261737071F
:1035900009F4CECEE3EDF9E08491811167C0ECE24D
:1035A000F8E0849181116AC040912206509123066F
:1035B00060912406709125062AE030E08FE099E0C2
:1035C0000E94C3378091C00085FFFCCF8AE08093C2
:1035D000C6000E947118A7CE189D7001199DF00CAD
:1035E0001124A70143565B4F4A016AE270E0CA0109
:1035F0000E9449C3009769F5E3EDF9E084918823BF
:1036000041F09091C00095FFFCCF8093C6003196A9
:10361000F5CFE2E0F8E08491882341F09091C0007A
:1036200095FFFCCF8093C6003196F5CF40912206DE
:103630005091230660912406709125062AE030E01F
:103640008FE099E00E94C3378091C00085FFFCCFD6
:10365000BDCF40E0412C9401F901E40FF11D5081F0
:103660005A3209F481CF4F5F4526F6CF9091C000C2
:1036700095FFFCCF8093C60031968ECF9091C0000D
:1036800095FFFCCF8093C60031968BCF8091580870
:1036900090915908A0915A08B0915B088093050950
:1036A00090930609A0930709B093080980E598E074
:1036B0000E94CA3DAC01982F409392048A30B9F021
:1036C0009D30A9F0933229F480918F04882379F0FA
:1036D00002C09A33C9F320919004309191042F35A0
:1036E00031052CF44F3F8FEF580709F0CFC04091C0
:1036F00005095091060960910709709108098091A8
:10370000FD089091FE08A091FF08B09100094817AC
:1037100059076A077B0708F47FC0E2E4F7E0849169
:10372000882341F09091C00095FFFCCF8093C600A4
:103730003196F5CF8091C00085FFFCCFFAE0F09381
:10374000C6000E94BF0F60937D0470937E04809337
:103750007F0490938004C0908104D0908204E09014
:103760008304F09084049B01AC012C193D094E099F
:103770005F0969017A01CA01B90120E63AEE40E029
:1037800050E00E94DABFCA01B9012CE330E040E00A
:1037900050E00E94DABF7F936F93C701B601A30187
:1037A00092010E94DABF3F932F933F922F92BF92D4
:1037B000AF920E9478C3EDECF9E084910FB6F894D3
:1037C000DEBF0FBECDBF882349F09091C00095FFAA
:1037D000FCCF8093C60031968491F5CFF50181919D
:1037E000882339F09091C00095FFFCCF8093C600EC
:1037F000F6CF8091C00085FFFCCF3AE03093C60041
:10380000C5010E94E69882E896E00E94947A61E001
:1038100082E896E00E94077880919204833211F446
:103820001093790420919004309191042115310571
:1038300009F4DDCC8091950490919604089FA00135
:10384000099F500D112443565B4FFA01E20FF31FFD
:103850001082FC01E756FB4F1083209193043091B6
:1038600094042F5F3F4F3093940420939304019668
:10387000B4010E94C6BF9093960480939504109261
:103880008F04109291041092900422CE9B3311F475
:1038900010938F0480918F0481111ACE609195044A
:1038A00070919604C90101969093910480939004BD
:1038B000069FC001079F900D112483569B4FFC016A
:1038C000E20FF31F408304CE6E960FB6F894DEBF6E
:1038D0000FBECDBFDF91CF911F910F91FF90EF9061
:1038E000DF90CF90BF90AF909F908F907F906F9020
:1038F0005F904F903F902F9008958F929F92AF923C
:10390000BF92CF92DF92EF92FF920F931F93CF93CC
:10391000DF938FECE82E83E0F82E0CE616E0CAE386
:10392000D6E09EE7C92E96E0D92EF70181917F015E
:103930000E9424188823F9F00E9410184B015C01A2
:10394000F6016081611102C060911D0670E080E0A7
:1039500090E00E9473BCF801208131814281538143
:103960000E94C8BEA50194010E94CABA68837983E7
:103970008A839B8309C0F80180819181A281B381F0
:1039800088839983AA83BB830C5F1F4F2496FFEF24
:10399000CF1ADF0A83EDE81683E0F80631F686E4F5
:1039A0000E942418882399F00E9410186B017C0152
:1039B00020E030E0A9010E94E1BD181644F4C09255
:1039C0000502D0920602E0920702F0920802DF910F
:1039D000CF911F910F91FF90EF90DF90CF90BF900C
:1039E000AF909F908F9008950E947D1C89E40E9463
:1039F0002418882359F00E94101860932E067093A3
:103A00002F06809330069093310608C010922E0640
:103A100010922F0610923006109231068AE40E940E
:103A20002418882359F00E9410186093320670936E
:103A3000330680933406909335060895109232062B
:103A40001092330610923406109235060895CF92E4
:103A5000DF92EF92FF92CF93DF93EC01C090540678
:103A6000D0905506E0905606F0905706A7019601B3
:103A7000688179818A819B810E94BFBB87FF04C0D6
:103A8000C882D982EA82FB82C0905806D09059063B
:103A9000E0905A06F0905B06A70196016C817D814B
:103AA0008E819F810E94BFBB87FF04C0CC82DD82D4
:103AB000EE82FF82C0905C06D0905D06E0905E06CC
:103AC000F0905F06A7019601688579858A859B85B8
:103AD0000E94BFBB87FF04C0C886D986EA86FB86E2
:103AE000C0900B02D0900C02E0900D02F0900E02FC
:103AF000A7019601688179818A819B810E94E1BD3D
:103B0000181624F4C882D982EA82FB82C0900F0280
:103B1000D0901002E0901102F0901202A7019601DD
:103B20006C817D818E819F810E94E1BD181624F4F5
:103B3000CC82DD82EE82FF82C0901302D09014020C
:103B4000E0901502F0901602A7019601688579852C
:103B50008A859B850E94E1BD181624F4C886D98603
:103B6000EA86FB86DF91CF91FF90EF90DF90CF90B8
:103B70000895CF92DF92EF92FF920F931F938AE303
:103B800096E00E94271D0E94BF0F609389047093E6
:103B90008A0480938B0490938C0420913A06309190
:103BA0003B0640913C0650913D0660916C06709139
:103BB0006D0680916E0690916F060E94BFBB8111C9
:103BC00021C020913E0630913F0640914006509121
:103BD0004106609170067091710680917206909115
:103BE00073060E94BFBB81110DC020E030E040E7AA
:103BF00052E4609105027091060280910702909153
:103C000008021EC060911F0270912002072E000C56
:103C1000880B990B0E9473BC20910502309106021B
:103C200040910702509108020E94C8BE20E030E097
:103C300040E752E40E94C9BB20E030E048EC52E487
:103C40000E94C9BB2CE4C22E26E0D22E7B018C013F
:103C500026E436E042E456E06EE376E08AE396E05E
:103C60000E949750EAE3F6E0ACE6B6E0419151914C
:103C7000619171914D935D936D937D9386E0EA34EC
:103C8000F807A1F71F910F91FF90EF90DF90CF9071
:103C90000895AF92BF92CF92DF92EF92FF920F936F
:103CA0001F93CF93DF93F82E209132063091330685
:103CB000409134065091350660912E0670912F0682
:103CC00080913006909131060E94F4BDEB01182FCF
:103CD000092F60911F0270912002072E000C880BA3
:103CE000990B0E9473BC209105023091060240910D
:103CF0000702509108020E94C8BE20E030E040E771
:103D000052E40E94C9BB20E030E048EC52E40E943B
:103D1000C9BB20914C062F93FF920F931F93DF9303
:103D2000CF935B016C0182E0E82E01E020E04EE2DF
:103D300056E06AE376E08CE696E00E949649EAE374
:103D4000F6E0ACE6B6E00F900F900F900F900F905A
:103D50000F9041915191619171914D935D936D934C
:103D60007D9386E0EA34F807A1F70E94BF0F6093C5
:103D7000890470938A0480938B0490938C04DF9160
:103D8000CF911F910F91FF90EF90DF90CF90BF9058
:103D9000AF900895F8940E94E968159A1092510620
:103DA000179A10925206429A10925306A09AE3ED87
:103DB000F9E08491882341F09091C00095FFFCCFF9
:103DC0008093C6003196F5CFECEBF4E08491882324
:103DD00041F09091C00095FFFCCF8093C6003196D2
:103DE000F5CF8091C00085FFFCCF8AE08093C600AC
:103DF00083EB94E00E9404990E948616FFCFCF9235
:103E0000DF92EF92FF920F931F930E94BF0F0091DA
:103E10008504109186042091870430918804C09015
:103E20008904D0908A04E0908B04F0908C04DC012B
:103E3000CB018C199D09AE09BF09081719072A077C
:103E40003B0730F4012B022B032B11F00E94CA1EFA
:103E50008091010290910202A0910302B0910402AC
:103E6000892B8A2B8B2B19F10E94BF0F009189049B
:103E700010918A0420918B0430918C04DC01CB01D9
:103E8000801B910BA20BB30B009101021091020257
:103E90002091030230910402081719072A073B07F3
:103EA00030F49091A20B8091A10B981741F01F91D3
:103EB0000F91FF90EF90DF90CF900C947B50159A6C
:103EC00010925106179A10925206429A1092530677
:103ED000A09AEDCF0E94E96880917B04811138C0DF
:103EE00081E080937B048091220690912306A0912B
:103EF0002406B091250680931E0690931F06A0937A
:103F00002006B0932106E3EDF9E08491882341F087
:103F10009091C00095FFFCCF8093C6003196F5CFFD
:103F2000EDE3F4E08491882341F09091C00095FF87
:103F3000FCCF8093C6003196F5CF8091C00085FFFD
:103F4000FCCF8AE08093C60083E394E00C94F5985C
:103F5000089580917B04089567707727E82FF0E03B
:103F6000E35DFC4FE4918E2F90E0FC013697EC303E
:103F7000F10588F58827EC56FF4F8F4F0C941BC036
:103F80008091B100887F8093B1008091B100682B4F
:103F90006093B100089580919100887F8093910093
:103FA00080919100682B6093910008958091A10009
:103FB000887F8093A1008091A100682B6093A1006D
:103FC000089580912101887F8093210180912101B2
:103FD000682B6093210108951F93CF93DF93EC0129
:103FE00080914C0680937C0484E50E942418182F4D
:103FF000811102C010E072C00E9410180E9442BCE1
:1040000060937C046623B1F3EDECF9E0849188239E
:1040100041F09091C00095FFFCCF8093C60031968F
:10402000F5CFCD36D10551F154F4C836D10581F024
:10403000C936D10509F043C0EAEFF2E01BC0CA3D22
:10404000D10541F1CD3DD105D1F5EFE3F3E034C029
:10405000E3EEF2E08191882391F19091C00095FF09
:10406000FCCF8093C600F6CF9091C00095FFFCCFA7
:104070008093C60081918111F7CF21C0E1E1F3E087
:1040800081918823E1F09091C00095FFFCCF80934F
:10409000C600F6CFE8E2F3E08191882381F09091A9
:1040A000C00095FFFCCF8093C600F6CF9091C00072
:1040B00095FFFCCF8093C60081918111F7CF40E03E
:1040C00050E060917C048FE099E00E942438809158
:1040D000C00085FFFCCF8AE08093C600812FDF916E
:1040E000CF911F9108953F924F925F926F927F926E
:1040F0008F929F92AF92BF92CF92DF92EF92FF92F8
:104100000F931F93CF93DF93CDB7DEB7E0970FB632
:10411000F894DEBF0FBECDBF87E40E942418882329
:1041200009F470C30E9410180E943BBC64307105F2
:1041300009F46EC054F46230710509F456C00CF0F5
:104140005CC077FF48C00C942E346A35710509F4C1
:1041500002C3BCF56C31710511F00C942E348091C2
:10416000050290910602A0910702B0910802809387
:104170002A0690932B06A0932C06B0932D068091CF
:104180001F029091200290937D0680937C0684E626
:1041900090E09093200280931F020E94BF0F6093D3
:1041A000890470938A0480938B0490938C0481E03B
:1041B0000E944A5CECE6F6E0AAE3B6E08CE796E003
:1041C0006DC06B35710509F4CAC26C35710509F40F
:1041D000CBC20C942E3480917B04811106C00E94C6
:1041E0007D1C0E94B91D0C94CE3580917B048111F9
:1041F00004C00E94F41C81E007C080917B048111FF
:1042000007C00E94F41C80E00E94491E0C94CE3529
:1042100085E297E00E94F59880E50E9424188823A3
:1042200039F00E9410180E9442BC6B017C0103C04F
:10423000C12CD12C760183E50E942418882361F0DB
:104240000E94101820E030E04AE754E40E94C8BE03
:104250000E9442BC6B017C010E941A640E94BF0F45
:10426000C60ED71EE81EF91E0E94BF0F6093890478
:1042700070938A0480938B0490938C040E94BF0FE8
:104280006C157D058E059F0510F00C942E340E9450
:10429000D1650E94FF1E0E948D99F0CF41915191EE
:1042A000619171914D935D936D937D938E179F07EF
:1042B000A9F71092050210920602109207021092BE
:1042C000080288E50E942418882311F080E00AC0C3
:1042D00089E50E9424188111F9CF8AE50E942418EB
:1042E00091E089278093090281110CC088E50E9422
:1042F0002418882309F478C189E50E9424188823AA
:1043000009F472C110926C0610926D0610926E063E
:1043100010926F061092700610927106109272063B
:1043200010927306EEE8F9E0149128E736E044E7CE
:1043300056E060E776E08CE696E00E94BB5A8DE995
:1043400099E00E94CC1320E030E040EC5FE30E9453
:10435000C8BE6B017C01612F110F770B880B990B85
:104360000E9473BC9B01AC01C701B6010E94C8BE8C
:1043700060933A0670933B0680933C0690933D060B
:1043800081EA99E00E94CC13EFE8F9E0149120E073
:1043900030E040EC5FE30E94C8BE6B017C01612FFE
:1043A000110F770B880B990B0E9473BC9B01AC011A
:1043B000C701B6010E94C8BE60933E0670933F06D7
:1043C00080934006909341066091210270912202F1
:1043D000809123029091240260930502709306025B
:1043E0008093070290930802C0902502D090260285
:1043F000E0902702F0902802A70196010E94E1BDFB
:10440000181644F4C0920502D0920602E092070208
:10441000F09208028DE999E00E94CC136B017C01B7
:1044200081EA99E00E94CC13A70196010E94BFBBCC
:1044300087FD02C00C94313481EA99E00E94CC13CC
:104440006B017C018DE999E00E94CC139B01AC01CA
:10445000C701B6010E94C9BB9B01AC010E94C8BE46
:1044600020E030E040E85FE30E94CABA0E9443BF08
:104470009B01AC01609105027091060280910702D8
:10448000909108020E94C8BE6093050270930602D4
:10449000809307029093080220E030E040E752E466
:1044A00060910502709106028091070290910802C6
:1044B0000E94C9BBFCE4CF2EF6E0DF2E7B018C010D
:1044C00026E436E042E456E06EE376E08AE396E0E6
:1044D0000E9497500E941A6480E090E00E94D213DC
:1044E00081E090E00E94D21328E736E044E756E0EE
:1044F00060E776E08CE696E00E94BB5A80916C06FD
:1045000090916D06A0916E06B0916F0680933A0669
:1045100090933B06A0933C06B0933D0680917006B5
:1045200090917106A0917206B091730680933E0639
:1045300090933F06A0934006B093410620E030E000
:1045400040E752E4609105027091060280910702F3
:10455000909108020E94C9BB7B018C0126E436E0E1
:1045600042E456E06EE376E08AE396E00E949750DC
:104570001092050210920602109207021092080291
:104580000E941A640E94435C80913A0690913B0617
:10459000A0913C06B0913D0680936C0690936D0609
:1045A000A0936E06B0936F0680913E0690913F06F1
:1045B000A0914006B09141068093700690937106D9
:1045C000A0937206B09373068091420690914306C1
:1045D000A0914406B09145068093740690937506A9
:1045E000A0937606B09377068091090281110C940E
:1045F0003B3488E50E94241881110C943B3480914F
:10460000090281110C94413489E50E94241881111A
:104610000C94413488E50E9424188823E1F00E941C
:104620001918672B682B692BB1F00E9410189B0199
:10463000AC01609160067091610680916206909174
:1046400063060E94CABA60936C0670936D068093ED
:104650006E0690936F0689E50E9424188823E1F086
:104660000E941918672B682B692BB1F00E94101853
:104670009B01AC01609164067091650680916606AD
:10468000909167060E94CABA609370067093710693
:1046900080937206909373068091090281110C94A5
:1046A00047348AE50E94241881110C9447348AE526
:1046B0000E9424188823E1F00E941918672B682BA8
:1046C000692BB1F00E9410189B01AC016091680643
:1046D0007091690680916A0690916B060E94CABA31
:1046E00060937406709375068093760690937706B0
:1046F00028E736E044E756E060E776E08CE696E0AF
:104700000E94BB5A80E00E944A5C80912A069091E8
:104710002B06A0912C06B0912D0680930502909354
:104720000602A0930702B093080280917C06909144
:104730007D069093200280931F020E94BF0F60931A
:10474000890470938A0480938B0490938C040E9454
:10475000435C0C942E3410921D060C942E3481E090
:1047600080931D060C942E3485E40E942418811138
:1047700002C00E941A646FECA62E63E0B62E70E6AB
:10478000C72E76E0D72EECE6EE2EE6E0FE2E10E009
:10479000F50181915F010E942418882341F11330B3
:1047A00061F40E941018F701608371838283938300
:1047B00088E796E00E94425B1AC00E9410189B0195
:1047C000AC01F60160817181828193810E94CABA35
:1047D000F701608371838283938328E736E044E79F
:1047E00056E060E776E08CE696E00E94BB5A1F5FD9
:1047F000F4E0CF0ED11C24E0E20EF11C143041F69F
:104800000C942E348DE40E942418882311F40C9407
:1048100065330E9410180E943BBC6237710509F491
:10482000A0C70CF0BFC06E31710509F468C20CF06E
:1048300046C06631710509F4F3C1BCF461317105FC
:1048400009F4B0C134F46230710508F454C10C9419
:104850002E346431710509F4AFC10CF0DBC1623153
:10486000710509F49DC60C942E346931710509F463
:10487000F6C1CCF46731710509F4D8C1683171050E
:1048800011F00C942E3482E896E00E9491720E94FE
:10489000BF0F60938104709382048093830490938C
:1048A00084040C942E346B31710509F4ECC10CF4C2
:1048B000DCC16C31710509F4ECC10C942E34643503
:1048C000710509F46DC6CCF56A32710509F45DC352
:1048D00054F46F31710509F4EFC26032710509F4C7
:1048E0004DC20C942E346235710509F450C60CF09B
:1048F00052C66135710511F00C942E340E94E9689E
:104900000E941A64A09A0E94796410924B06109239
:104910004A0668EE73E080E090E00E94F00F0E948B
:104920001A640E94861610920A0289E596E00E9497
:10493000F5980E948D990C942E346936710509F40E
:1049400071C324F56C35710509F462C668367105CA
:1049500009F439C36535710511F00C942E3483E5E3
:104960000E9424180E94101820E030E04AE754E426
:104970000E94C8BE0E9442BC609385047093860466
:1049800080938704909388040C942E346B367105C1
:1049900009F4F7C50CF4C5C56D36710509F44FC4AB
:1049A0000C942E346D3D710511F40C94DF2E0CF037
:1049B00048C06E3B710509F4B0C4ECF4673771056B
:1049C00009F496C054F46337710509F4A6C6653737
:1049D000710509F4B1C60C942E346937710511F4D0
:1049E0000C94952C14F40C94912C6C38710509F4EA
:1049F00008C30C942E346C3C710511F40C94342EC5
:104A00008CF4693C710511F40C94F42D6B3C710528
:104A100011F40C94162E683C710511F00C942E3490
:104A20000C94882D6E3C710511F40C94B22E14F484
:104A30000C94542E6C3D710511F40C94D02E0C94F2
:104A40002E34643F31E0730711F40C9456302CF58A
:104A50006D3291E0790711F40C944A2F64F4623EB0
:104A6000710511F40C94052F6C32714011F40C9403
:104A7000162F0C942E346F3221E0720711F40C942F
:104A80001E3014F40C9410306039714011F00C9405
:104A90002E340E941A640C942E34683592E0790703
:104AA00011F40C94343194F4663FF1E07F0711F473
:104AB0000C945C3014F40C945930673F714011F041
:104AC0000C942E340E94357C0C942E34603A83E092
:104AD000780709F4BDC1673E93E0790711F40C949F
:104AE0004E336335734011F00C942E340C945F30C8
:104AF000E5E6F3E024C784E197E00E94F59880E5BD
:104B00000E942418882339F00E9410180E9442BC89
:104B10006B017C0103C0C12CD12C760183E50E947E
:104B20002418882361F00E94101820E030E04AE742
:104B300054E40E94C8BE0E9442BC6B017C010E94EA
:104B40001A640E94BF0F6093890470938A04809353
:104B50008B0490938C04C114D104E104F104B1F0EE
:104B60000E94BF0FC60ED71EE81EF91E0E94BF0F7F
:104B70006C157D058E059F0510F00C944D340E9438
:104B8000539A81110C944D340C9452340E94539AD0
:104B900081110C944D340E94D1650E94FF1E0E9429
:104BA0008D99F4CF8CEF96E00E94F59815981798A0
:104BB0004298A0980C942E34ECEEF6E08491882371
:104BC00041F09091C00095FFFCCF8093C6003196D4
:104BD000F5CF8091C00085FFFCCF8AE08093C600AE
:104BE00082E896E00E947271EEEDF6E084918823EF
:104BF00041F09091C00095FFFCCF8093C6003196A4
:104C0000F5CF8091C00085FFFCCF8AE08093C6007D
:104C10000C942E3482E896E00E94C6710C942E34D7
:104C200082E896E00E948D720C942E3400918D04DF
:104C300010918E040C5F1F4F6AE270E0C8010E9461
:104C400049C3009719F0FC013197108221E041E03F
:104C5000B80182E896E00E94EF720C942E3482E84C
:104C600096E00E9498720C942E34809185068823D9
:104C700011F40C942E3483E50E94241881110C94B5
:104C80005A340C942E3482E896E00E9441770C94BA
:104C90002E3480918D0490918E046AE270E0049627
:104CA0000E9449C38C01892BE1F020919704309137
:104CB000980440E6429FC001439F900D11246EE48A
:104CC00070E083569B4F0E9449C360E270E00E94EF
:104CD00049C3019690938E0480938D04F801319717
:104CE000108260918D0470918E046C5F7F4F21E083
:104CF00040E082E896E00E94EF720C942E3480919E
:104D00008506882311F40C942E3460E082E896E046
:104D10000E94F77880918D0490918E046AE270E091
:104D200004960E9449C38C01892BE1F020919704DD
:104D30003091980440E6429FC001439F900D11249A
:104D40006EE470E083569B4F0E9449C360E270E0BE
:104D50000E9449C3019690938E0480938D04F801BC
:104D60003197108260918D0470918E046C5F7F4F3B
:104D700082E896E00E9407760C942E348091840697
:104D800081110E941A6400918D0410918E040C5FB1
:104D90001F4F6AE270E0C8010E9449C37C0161E2D2
:104DA00070E0C8010E9449C3009719F08C010F5FA1
:104DB0001F4FE114F10419F0F7013197108280E5DB
:104DC0000E942418F82E80918D0490918E0408176B
:104DD000190708F4F12C80918506882311F40C94AE
:104DE0002E3421E02F2541E0B80182E896E00E94B0
:104DF000EF7283E50E9424188823B9F080918D0416
:104E000090918E048017910780F40E941918AB01CD
:104E1000BC014093050950930609609307097093FC
:104E2000080980E598E00E94533F82E896E00E94DE
:104E30009172F1100C942E340E94BF0F6093810484
:104E40007093820480938304909384040C942E3492
:104E500080918D0490918E046AE270E005960E9424
:104E600049C38C01892BE1F020919704309198047B
:104E700040E6429FC001439F900D11246EE470E014
:104E800083569B4F0E9449C360E270E00E9449C371
:104E9000019690938E0480938D04F80131971082CF
:104EA00060918D0470918E046B5F7F4F82E896E075
:104EB0000E9401760C942E340E94BF0F60937D04F3
:104EC00070937E0480937F0490938004009181040A
:104ED0001091820420918304309184046B017C0141
:104EE000C01AD10AE20AF30AC701B60128EE33E07C
:104EF00040E050E00E94DABFCA01B9012CE330E083
:104F000040E050E00E94DABF7F936F93C701B60183
:104F100020E63AEE40E050E00E94DABF3F932F9344
:104F20008FEC96E09F938F938E010F5F1F4F1F931F
:104F30000F930E9478C3EDECF9E084910FB6F894DA
:104F4000DEBF0FBECDBF811102C0F8010FC090912E
:104F5000C00095FFFCCF8093C60031968491F3CFBB
:104F60009091C00095FFFCCF8093C6008191811184
:104F7000F7CF8091C00085FFFCCF8AE08093C60008
:104F8000C8010E94E6980C942E3483E50E942418F0
:104F9000882311F40C942E340E9410186B017C01AC
:104FA00080E50E942418882311F40C942E34C70144
:104FB000B6010E943BBC6F3F710509F010F40C94E0
:104FC0006B340C942E3488E690E00E94EC1F811123
:104FD0000C942E3483E50E942418882371F00091EC
:104FE0007C040E94101810E0000F111F0B571E4E7A
:104FF0000E943BBCF801718360830E94AE680C94F0
:105000002E3483E50E942418882311F40C942E3446
:105010000E9410180E943BBC70938411609383110E
:105020000C942E3489E690E00E94EC1F81110C94C0
:105030002E34E9ECF6E08491882341F09091C00091
:1050400095FFFCCF8093C6003196F5CFE0917C04AC
:1050500024E0E29FF0011124E358FE4E408151818B
:105060006281738121E030E08FE099E00E94C338D3
:10507000E6ECF6E08491882341F09091C00095FF22
:10508000FCCF8093C6003196F5CFE0917C04F0E030
:10509000EE0FFF1FEB57FE4E60817181072E000C53
:1050A000880B990B0E9473BCAB01BC0121E030E07E
:1050B0008FE099E00E94C338E2ECF6E08491882307
:1050C00041F09091C00095FFFCCF8093C6003196CF
:1050D000F5CF4091771150917811609179117091CD
:1050E0007A1121E030E08FE099E00E94C338EFEBC5
:1050F000F6E08491882341F09091C00095FFFCCFA9
:105100008093C6003196F5CF609183117091841120
:10511000072E000C880B990B0E9473BCAB01BC01DD
:1051200021E030E08FE099E00E94C338ECEBF6E03C
:105130008491882341F09091C00095FFFCCF80932B
:10514000C6003196F5CF4AE050E060E070E08FE0B5
:1051500099E00E941138EAEBF6E08491882341F04F
:105160009091C00095FFFCCF8093C6003196F5CF9B
:1051700040917D1150917E1160917F11709180114D
:1051800021E030E08FE099E00E94C338E7EBF6E0E1
:105190008491882341F09091C00095FFFCCF8093CB
:1051A000C6003196F5CF6091851170918611072E5A
:1051B000000C880B990B0E9473BCAB01BC0121E071
:1051C00030E08FE099E00E94C338E3EBF6E0849191
:1051D000882341F09091C00095FFFCCF8093C600DA
:1051E0003196F5CF80917C0490E00E94C6654AE03C
:1051F00050E0BC018FE099E00E941138EEEAF6E041
:105200008491882341F09091C00095FFFCCF80935A
:10521000C6003196F5CF8FEF9FEF0E94C6654AE03A
:1052200050E0BC018FE099E00E9411388091C000ED
:1052300085FFFCCF8AE08093C6000C94CE358DE6C6
:1052400090E00E94EC1F81110C942E3483EA96E0CA
:105250000E94F59883E50E942418882391F000911C
:105260007C040E94101810E0000F111F0B571E4EF7
:105270000E943BBCF8017183608381E0809300024F
:1052800015C082E50E942418882381F000917C04D7
:105290000E94101810E0000F111F0B571E4E0E94A5
:1052A0003BBCF80171836083109200020E94AE68DB
:1052B0000E94BF0F4B015C0100917C0410E0F801DB
:1052C000EE0FFF1FEB57FE4E60817181072E000C21
:1052D000880B990B0E9473BC000F111F000F111F48
:1052E000F801E358FE4E11E0208131814281538163
:1052F0000E94E1BD18160CF010E010937A04CC2443
:10530000CA94DC2C760178EE472E73E0572E612C80
:10531000712CEAE03E2E0C94DE348DE796E00E947C
:10532000F59883E50E942418882361F00E941018E4
:105330000E943BBC709384116093831181E0809341
:1053400000020FC082E50E942418882351F00E94B9
:1053500010180E943BBC70938411609383111092CB
:1053600000020E94BF0F4B015C016091831170919C
:105370008411072E000C880B990B0E9473BC11E05E
:1053800020917711309178114091791150917A11D3
:105390000E94E1BD18160CF010E010937A040AE7A1
:1053A00016E0E6E7EE2EE6E0FE2EF2E7CF2EF6E080
:1053B000DF2EAAE07A2E80917A0460918311709199
:1053C0008411882399F0072E000C880B990B0E94FA
:1053D00073BC2091771130917811409179115091DF
:1053E0007A110E94E1BD1816BCF08BC0072E000C8C
:1053F000880B990B0E9473BC209177113091781122
:105400004091791150917A110E94BFBB87FF79C0FA
:1054100080910002811175C00E94BF0FDC01CB0199
:1054200088199909AA09BB09893E9340A105B105CC
:1054300008F460C0E0914C0624E0E29FF0011124E2
:10544000E358FE4E4081518162817381F80184915D
:10545000EAE7F6E0882349F09091C00095FFFCCF81
:105460008093C60031968491F5CF22E030E08FE042
:1054700099E00E94C338F7018491E6E7F6E08823BB
:1054800049F09091C00095FFFCCF8093C600319603
:105490008491F5CF60914C0670E04AE050E08FE0D7
:1054A00099E00E941138F6018491E2E7F6E0882342
:1054B00049F09091C00095FFFCCF8093C6003196D3
:1054C0008491F5CF409177115091781160917911C5
:1054D00070917A1121E030E08FE099E00E94C338AA
:1054E0008091C00085FFFCCF7092C6000E94BF0F64
:1054F0004B015C010E94D1650E94FF1E0E948D99A4
:105500005ACF88E696E00E94F5980E94BF0F6093FC
:10551000890470938A0480938B0490938C040C9478
:105520002E3483E50E942418882319F10E94101854
:1055300020E030E0A9010E94BFBB87FD0FC00E94A0
:10554000101820E030E04FE753E40E94E1BD181648
:1055500044F00E9410180E943BBC05C060E070E05F
:1055600002C06FEF70E070934B0660934A060C9494
:105570002E348FEF90E090934B0680934A060C9464
:105580002E3410924B0610924A060C942E34109230
:1055900081060C942E3481E0809381060C942E3485
:1055A00083E50E9424188823A1F00E94101820E0AF
:1055B00030E04AE754E40E94C8BE0E9442BC6093B7
:1055C00001027093020280930302909304020C94F0
:1055D0002E3488E50E94241881110C94AC3589E59D
:1055E0000E94241881110C94AC358AE50E9424187D
:1055F00081110C94AC3585E40E94241881110C941F
:10560000AC350E941A64A09A0E9479640C942E34DE
:105610006FEC862E63E0962E03ED10E173EEA72E5D
:1056200070E1B72E27E930E138AB2FA7312CF40118
:1056300081914F010E942418882309F45DC0F3E092
:105640003F1253C00E9410182B013C0120E030E0B3
:1056500040EA51E40E94BFBB87FF41C0A301920111
:10566000F80160817181828193810E94C9BB6B01C5
:105670007C019B01AC016091AB107091AC108091EA
:10568000AD109091AE100E94C8BE6093AB107093A5
:10569000AC108093AD109093AE10A7019601F50168
:1056A00060817181828193810E94C8BEF50160830F
:1056B000718382839383EFA5F8A9608171818281D0
:1056C00093810E9471BCA70196010E94C8BE0E94EE
:1056D00042BCEFA5F8A96083718382839383F801AC
:1056E000408251826282738207C00E941018F801C2
:1056F000608371838283938333940C5F1F4FF4E044
:10570000AF0EB11C2FA538A92C5F3F4F38AB2FA788
:1057100034E033128CCF0C942E34EFE8F5E0849112
:10572000882311F40C942E349091C00095FFFCCF87
:105730008093C6003196F3CF00918D0410918E04B2
:105740000B5F1F4F6AE270E0C8010E9449C30097D7
:1057500019F0FC0131971082C8010E94E6980C9460
:105760002E34ECE8F5E08491882341F09091C0005C
:1057700095FFFCCF8093C6003196F5CF40916C0623
:1057800050916D0660916E0670916F0622E030E0D8
:105790008FE099E00E94C338E8E8F5E0849188231F
:1057A00041F09091C00095FFFCCF8093C6003196E8
:1057B000F5CF40917006509171066091720670911C
:1057C000730622E030E08FE099E00E94C338E4E8FD
:1057D000F5E08491882341F09091C00095FFFCCFC3
:1057E0008093C6003196F5CF4091740650917506AE
:1057F000609176067091770622E030E08FE099E0C4
:105800000E94C338E0E8F5E08491882341F090914C
:10581000C00095FFFCCF8093C6003196F5CF409134
:1058200078065091790660917A0670917B0622E0A5
:1058300030E08FE099E00E94C338E5E7F5E084911D
:10584000882341F09091C00095FFFCCF8093C60063
:105850003196F5CF80E00E946B640E9473BC20916A
:10586000D3103091D4104091D5105091D6100E9491
:10587000C9BBAB01BC0122E030E08FE099E00E949F
:10588000C338E1E7F5E08491882341F09091C000AE
:1058900095FFFCCF8093C6003196F5CF81E00E9442
:1058A0006B640E9473BC2091D7103091D810409146
:1058B000D9105091DA100E94C9BBAB01BC0122E0A3
:1058C00030E08FE099E00E94C338EDE6F5E0849186
:1058D000882341F09091C00095FFFCCF8093C600D3
:1058E0003196F5CF82E00E946B640E9473BC2091D8
:1058F000DB103091DC104091DD105091DE100E94E1
:10590000C9BBAB01BC0122E030E08FE099E00E940E
:10591000C3388091C00085FFFCCF8AE08093C60029
:105920009DC780E00E944A5C99C781E00E944A5C62
:1059300095C79091C00095FFFCCF8093C6008191E0
:105940008111F7CF8091C00085FFFCCF8AE0809362
:10595000C600E5E6F5E08491882341F09091C0000F
:1059600095FFFCCF8093C6003196F5CF009903C018
:10597000E6E5F3E002C0E0E6F3E08191882339F048
:105980009091C00095FFFCCF8093C600F6CF809128
:10599000C00085FFFCCF8AE08093C600EDE5F5E00E
:1059A0008491882341F09091C00095FFFCCF8093B3
:1059B000C6003196F5CF029903C0E6E5F3E002C0D8
:1059C000E0E6F3E08191882339F09091C00095FFE3
:1059D000FCCF8093C600F6CF8091C00085FFFCCF3E
:1059E0008AE08093C600E5E5F5E08491882341F0E4
:1059F0009091C00095FFFCCF8093C6003196F5CF03
:105A0000049903C0E6E5F3E002C0E0E6F3E081912B
:105A1000882339F09091C00095FFFCCF8093C60099
:105A2000F6CF8091C00085FFFCCF8AE08093C6004E
:105A3000EDE4F5E08491882341F09091C00095FF5A
:105A4000FCCF8093C6003196F5CF069903C0E6E5FA
:105A5000F3E002C0E0E6F3E08191882339F0909111
:105A6000C00095FFFCCF8093C600F6CF8091C000A8
:105A700085FFFCCF8AE08093C600E5E4F5E08491E1
:105A8000882341F09091C00095FFFCCF8093C60021
:105A90003196F5CF379903C0E6E5F3E002C0E0E6C2
:105AA000F3E08191882339F09091C00095FFFCCFFD
:105AB0008093C600F6CF8091C00085FFFCCF8AE0BE
:105AC0008093C600EDE3F5E08491882341F0909146
:105AD000C00095FFFCCF8093C6003196F5CF359975
