:100000000C94711C0C942B1F0C945C1F0C948D1F72
:100010000C94BE1F0C94EF1F0C9420200C945120C4
:100020000C9482200C94A21C0C94A21C0C94A21C74
:100030000C94A21C0C94ADE80C94A21C0C94A21C71
:100040000C94A21C0C94B1C00C94A21C0C94A21C85
:100050000C94A21C0C94A21C0C94AAD30C94A41C67
:100060000C94A21C0C943B9B0C94A21C0C94A21C00
:100070000C94A21C0C94A21C0C94A21C0C94A21C08
:100080000C94A21C0C94A21C0C94A21C0C94A21CF8
:100090000C94A21C0C94A21C0C94A21C0C944D2A2F
:1000A0000C94A21C0C94A21C0C94A21C0C94A21CD8
:1000B0000C94A21C0C94A21C0C94A21C0C94A21CC8
:1000C0000C94A21C0C94A21C0C94A21C0C94A21CB8
:1000D0000C94A21C0C94A21C0C94A21C0C94A21CA8
:1000E0000C94A21CD61DDB1DE01DEA1D631EF41D31
:1000F000FC1D041E0E1E181E221E311E3B1E631EFA
:10010000451E4F1E591E811E841E771E7B1EBB1E60
:10011000881E8C1E921E961E9A1EA01EA41EA81E2D
:10012000BB1EAE1EB21EB61E24242424322440243C
:100130005C246A247824862497244E240BE70EE757
:1001400015E71CE723E72AE70FE831E738E740E740
:100150000FE848E751E758E761E768E76FE70FE81E
:1001600076E77DE786E70FE88FE798E79AE79CE771
:100170009EE7A0E7A2E7A4E7A6E7A8E7AAE7ACE71F
:10018000AEE7B0E7B2E7B4E7B6E70FE80FE80FE88D
:100190000FE80FE80FE80FE80FE80FE80FE80FE8A7
:1001A0000FE80FE80FE80FE80FE80FE80FE80FE897
:1001B0000FE80FE80FE80FE80FE80FE80FE80FE887
:1001C0000FE80FE80FE80FE80FE80FE80FE80FE877
:1001D0000FE80FE80FE80FE80FE80FE80FE80FE867
:1001E0000FE80FE80FE80FE80FE80FE80FE80FE857
:1001F0000FE80FE80FE80FE80FE80FE80FE80FE847
:100200000FE80FE8BAE7D3E7084AD73B3BCE016EC9
:1002100084BCBFFDC12F3D6C74319ABD56833DDA5D
:100220003D00C77F11BED9E4BB4C3E916BAAAABE6C
:10023000000000803F05A84CCDB2D44EB93836A995
:10024000020C50B9918688083CA6AAAA2ABE0000D2
:1002500000803F0000090A02080B0C0D070603048A
:10026000010000000000000000000000000000008D
:10027000000000000000000000000000000000116D
:10028000100F00000000000000000000000000004F
:1002900000000000000000000001021020200808FB
:1002A00010204010204080020102010804020101D8
:1002B00002040810204080804020100804020180C1
:1002C0000402018040201008040201080402010118
:1002D000020408102040800102040810204080051C
:1002E000050505070508080808020202020A0A08AF
:1002F00008040404040101010101010101030303D5
:100300000303030303040707070C0C0C0C0C0C0C71
:100310000C0202020206060606060606060B0B0B78
:100320000B0B0B0B0B00002200250028002B002ECE
:10033000003100340002010000050108010B01003A
:10034000002100240027002A002D00300033000186
:10035000010000040107010A015052494E54004DAA
:100360004154455249414C004D41494E54454E413E
:100370004E4345005072696E74696E6720776974E8
:1003800068205553422E2E2E00756C74696D616B7A
:1003900065722E636F6D2F4552303700476F2074A2
:1003A0006F3A0058206F7220592073776974636820
:1003B00020737475636B00756C74696D616B657225
:1003C0002E636F6D2F4552303700476F20746F3AA0
:1003D0000058206F72205920737769746368206217
:1003E000726F6B656E00756C74696D616B65722EF2
:1003F000636F6D2F4552303600476F20746F3A009F
:100400005A2073776974636820737475636B007521
:100410006C74696D616B65722E636F6D2F45523020
:100420003500476F20746F3A005A20737769746300
:10043000682062726F6B656E00756C74696D616BBC
:1004400065722E636F6D2F4552303400476F2074F4
:100450006F3A0053616665747920636972637569E8
:100460007400756C74696D616B65722E636F6D2FAE
:100470004552303300476F20746F3A00486561740D
:100480006572206572726F7200756C74696D616B54
:1004900065722E636F6D2F4552303200476F2074A6
:1004A0006F3A0054656D702073656E736F722042F1
:1004B000454400756C74696D616B65722E636F6D78
:1004C0002F4552303100476F20746F3A0054656DEC
:1004D000702073656E736F72004552524F52202D1B
:1004E0002053544F5050454400801506060606FE22
:1004F000FEFEFEFC00000000000000FCFEFEFEFC14
:100500000000000EFEFEFEFE0000E0FCFEFEFCE031
:10051000E0000000CECECE000000C0C0C0C0C0C011
:100520008000000000000080C0C0800000000000CB
:10053000008080C0C0C0C0C0C0C08080000000007B
:1005400006FEFEFEFE0000000080C0C0C0000000ED
:100550000000008080C0C0C080808000000000C01B
:10056000C0C0C00080C0C0C0C08000000000007FCC
:10057000FFFFFFFF80000000000080FFFFFFFFFF84
:1005800000000000FFFFFFFF000000FFFFFFFF0073
:1005900000000000FFFFFF00000081F1FFFF3F0FA0
:1005A0003FFFFCF0F0FCFF3F0F3FFFFEF880000034
:1005B00000C1E1F1F17131010183FFFFFFFC000097
:1005C00000FFFFFFFF000C3EFFFFF7C3010000002C
:1005D000FCFEFF8703113131333F3F3F1E00000116
:1005E000FFFFFFFF07030101010100000000000001
:1005F000010307070F0F0F0F0F0F0F0707070F0F4D
:1006000006000000070F0F07000000070F0F07008C
:10061000000000000F0F0F0000060F0F0701000081
:100620000001070F0F070100000001070F0F060070
:100630000003070F0F0E0E060703070F0F0700003A
:1006400000070F0F0700000000030F0F0F06000048
:10065000000307070F0E0E0E0E0E0E060000000020
:100660000F0F0F0F00000000000000507265763A77
:10067000200043414E43454C002073656300206DCC
:10068000696E0020686F75720020686F7572730064
:10069000000000000000005F0000000700070014D9
:1006A0007F147F14242A7F2A122313086462364998
:1006B0005522500005030000001C22410000412289
:1006C0001C00082A1C2A0808083E080800503000B0
:1006D00000080808080800606000002010080402F4
:1006E0003E5149453E00427F40004261514946210A
:1006F00041454B311814127F1027454545393C4A76
:1007000049493001710905033649494936064949C5
:10071000291E00363600000056360000000814225C
:100720004114141414144122140800020151090642
:10073000324979413E7E1111117E7F494949363E49
:10074000414141227F4141221C7F494949417F0962
:100750000901013E414151327F0808087F00417F75
:1007600041002040413F017F081422417F4040402A
:10077000407F0204027F7F0408107F3E4141413EDA
:100780007F090909063E4151215E7F091929464624
:100790004949493101017F01013F4040403F1F204D
:1007A00040201F7F2018207F6314081463030478FF
:1007B0000403615149454300007F41410204081090
:1007C0002041417F000004020102044040404040BB
:1007D000000102040020545454787F4844443838BF
:1007E00044444420384444487F3854545418087EC4
:1007F000090102081454543C7F0804047800447D25
:1008000040002040443D00007F10284400417F40CC
:10081000007C041804787C08040478384444443884
:100820007C14141408081414187C7C080404084868
:1008300054545420043F4440203C4040207C1C2021
:1008400040201C3C4030403C44281028440C505070
:10085000503C4464544C44000836410000007F0082
:1008600000004136080008082A1C08081C2A08084D
:10087000473120462569205A256920582569205985
:10088000256900473238205A30205830205930002E
:100890006275696C64706C6174652E006F662061AE
:1008A000646A757374696E6720796F757200746815
:1008B000726F756768207468652070726F63657306
:1008C0007300492077696C6C2067756964652079CD
:1008D0006F7500434F4E54494E55450043414E43BA
:1008E000454C00473238205A3000746F20707269CE
:1008F0006E742069742100616E6420707265737378
:100900002074686520627574746F6E006F6E207459
:1009100068652053442D636172640053656C6563A0
:10092000742061207072696E742066696C65003293
:10093000312F3231004C45542753205052494E54E8
:100940000052656164696E6720636172642E2E2EA9
:100950000032312F323100796F757220556C746915
:100960006D616B6572322E2E2E0074686174206387
:10097000616D65207769746800506C6561736520EE
:10098000696E736572742053442D63617264003222
:10099000312F3231006D616B65206120334420506E
:1009A00072696E74210049276D2072656164792037
:1009B0006C657427730032302F323100415245206C
:1009C000594F552052454144593F0066726F6D2082
:1009D0006E6F7A7A6C652E2E2E006D617465726969
:1009E000616C206578697473005075736820627556
:1009F00074746F6E207768656E0031392F32310064
:100A0000434F4E54494E5545004C6F6164696E67C3
:100A1000206D6174657269616C2E2E2E0031382F45
:100A200032310061626F7665207468652061727290
:100A30006F772E00796F757220556C74696D616BDC
:100A40006572322C0066726F6D2074686520726565
:100A50006172206F6600496E73657274206E6577EF
:100A6000206D6174657269616C0031372F3231001D
:100A7000434F4E54494E5545006D6174657269612E
:100A80006C206C6F6164696E67007072696E746867
:100A90006561642068656174696E6720666F7200C5
:100AA000506C6561736520776169742C0031362F55
:100AB00032310053656C65637420746865206D6124
:100AC00074657269616C006974206973207573695B
:100AD0006E672E006F66206D6174657269616C00CF
:100AE0006B6E6F77732077686174206B696E64003A
:100AF0004E6F7720796F757220556C74696D616BDC
:100B00006572320031352F323100434F4E54494E19
:100B10005545006973207468697320726967687449
:100B20003F00596F7520686176652063686F736553
:100B30006E0031342F323100594553004E4F0020A2
:100B40006173206D6174657269616C2C0031332FA3
:100B50003231004D4154455249414C00556C746945
:100B60006D616B6572322E00696E736572742069F7
:100B70006E2074686973006D6174657269616C20C0
:100B8000796F752077696C6C004E6578742C2073D2
:100B9000656C656374207468650031322F323100F2
:100BA0005245414459004D383400473120463132D6
:100BB00030303020583131302059313000746F20BE
:100BC000696E73657274206D6174657269616C2EF3
:100BD00000746865206E6578742073746570206990
:100BE0007300746865206275696C64706C6174650B
:100BF000004E6F772074686174207765206C65768D
:100C0000656C65640031312F323100434F4E5449D9
:100C10004E55450074686520726967687420636F7B
:100C2000726E65722E2E2E0052657065617420748E
:100C300068697320666F720031302F323100434F84
:100C40004E54494E554500444F4E4500746865204A
:100C50006C65667420636F726E65722E2E2E005264
:100C60006570656174207468697320666F720039FD
:100C70002F323100434F4E54494E5545006269743E
:100C800020726573697374616E63652E00756E748E
:100C9000696C20796F75206665656C2061006275EE
:100CA000696C64706C61746520616E64206E6F7A2B
:100CB0007A6C6500536C69646520612070617065B1
:100CC00072206265747765656E00382F323100439B
:100CD0004F4E54494E554500434F4E54494E55458D
:100CE00000473120462569205A30004731204625EB
:100CF0006920582569205925690047312046256912
:100D0000205A3500746865206275696C64706C6186
:100D10007465206C6576656C2E007061706572205C
:100D2000746F2066696E652D74756E65006E6F77E1
:100D3000207573652061207368656574206F660097
:100D4000526570656174207468697320737465708E
:100D50002C2062757400372F323100434F4E5449B6
:100D60004E55450066726F6D207468652062756926
:100D70006C64706C6174652E0069732061206D690C
:100D80006C6C696D6574657220617761790073635D
:100D90007265772074696C6C20746865206E6F7A58
:100DA0007A6C65005475726E20726967687420628F
:100DB00075696C64706C61746500362F3231004364
:100DC0004F4E54494E554500473120462569205A1B
:100DD000300047312046256920582569205925696A
:100DE00000473120462569205A350066726F6D2014
:100DF000746865206275696C64706C6174652E003E
:100E000069732061206D696C6C696D657465722011
:100E1000617761790073637265772074696C6C2007
:100E2000746865206E6F7A7A6C65005475726E20F6
:100E30006C656674206275696C64706C61746500C1
:100E4000352F323100434F4E54494E5545004731FE
:100E500020462569205A3000473120462569205810
:100E600025692059256900473120462569205A35D2
:100E70000066726F6D20746865206275696C6470BD
:100E80006C6174652E0061206D696C6C696D6574B0
:100E90006572206177617900756E74696C20746881
:100EA00065206E6F7A7A6C6520697300526F746189
:100EB00074652074686520627574746F6E00342FD9
:100EC000323100434F4E54494E554500434F4E5426
:100ED000494E554500473120462569205A2569204D
:100EE0005825692059256900473238205830205943
:100EF0003000676F696E6720746F20646F207468BC
:100F00006174206E6F772E0061646A7573746D650D
:100F10006E74732C20776520617265007765206E92
:100F200065656420746F20646F20736F6D65004188
:100F300066746572207472616E73706F727461741E
:100F4000696F6E00332F323100434F4E54494E5576
:100F50004500473120462569205A25690047323827
:100F6000205A3000612066697273742072756E2099
:100F700077697A6172642E0077616C6B20796F7586
:100F8000207468726F756768006669727374207385
:100F900074617274757020492077696C6C004265C9
:100FA0006361757365207468697320697320746860
:100FB0006500322F323100434F4E54494E554500A3
:100FC000627574746F6E20746F20636F6E74696ED7
:100FD000756500556C74696D616B65722120507286
:100FE0006573732074686500737461727475702022
:100FF0006F6620796F75720057656C636F6D652041
:10100000746F2074686520666972737400312F32C2
:101010003100434F4E54494E5545004300432F0085
:10102000436C69636B20746F2072657475726E0017
:101030004275696C64706C6174652074656D702EA6
:101040003A003F3F3F00466163746F7279207265DA
:101050007365740052756E74696D65207374617484
:10106000730056657273696F6E004D6F74696F6EB1
:101070002073657474696E6773005265747261637E
:1010800074696F6E2073657474696E67730053655D
:10109000742066616E207370656564004D6F7665BF
:1010A000206D6174657269616C20283229004D6F72
:1010B0007665206D6174657269616C202831290044
:1010C000496E73657274206D6174657269616C003C
:1010D0005261697365206275696C64706C617465D6
:1010E000004C6F776572206275696C64706C617416
:1010F0006500486F6D6520686561640048656174CE
:101100007570206275696C64706C61746500486507
:1011100061747570207365636F6E64206E6F7A7A88
:101120006C6500486561747570206669727374201F
:101130006E6F7A7A6C65004C4544207365747469EF
:101140006E6773003C2052455455524E00566572EE
:10115000733A5F31352E30342E372D524335657852
:101160000025004300432F004300432F004300436A
:101170002F0025003F3F3F0020476C6F77207768A6
:10118000656E20646F6E6500204F6E207768696C15
:1011900065207072696E74696E670020416C7761BA
:1011A0007973204F66660020416C77617973204F18
:1011B0006E004272696768746E657373003C2052FA
:1011C000455455524E0025002500427269676874E7
:1011D0006E657373004C4544004300432F00436C1D
:1011E00069636B20746F2072657475726E004E6F48
:1011F0007A7A6C652074656D70657261747572655C
:101200003A00473238205830205930004300432FED
:1012100000436C69636B20746F2072657475726E25
:1012200000526F7461746520746F206578747275F4
:101230006465004E6F7A7A6C652074656D706572B6
:1012400061747572653A003F3F3F00526574726188
:1012500063742073706565640052657472616374B1
:10126000206C656E677468003C2052455455524EA0
:10127000006D6D2F736563006D6D006D6D2F73656F
:1012800063005265747261637420737065656400F5
:101290006D6D0052657472616374206C656E677465
:1012A000680052455452414354494F4E003F3F3F1E
:1012B0000043757272656E742045004375727265E5
:1012C0006E74205A0043757272656E7420582F59DF
:1012D000004D6178207370656564205A004D617817
:1012E0002073706565642059004D617820737065C6
:1012F0006564205800582F59204A65726B0041637D
:1013000063656C65726174696F6E003C2052455470
:1013100055524E006D41006D41006D41006D6D2FC5
:10132000736563006D6D2F736563006D6D2F73655D
:1013300063006D6D2F736563006D6D2F7365635E64
:1013400032006D410043757272656E742045006D08
:10135000410043757272656E74205A006D410043FE
:10136000757272656E7420582F59006D6D2F7365FC
:1013700063004D6178207370656564205A006D6D5F
:101380002F736563004D6178207370656564205923
:10139000006D6D2F736563004D6178207370656516
:1013A000642058006D6D2F73656300582F59204AD3
:1013B00065726B0030306D6D2F7365635E32004176
:1013C0006363656C65726174696F6E004D4F54495B
:1013D0004F4E00566572733A5F31352E30342E37DA
:1013E0002D5243356578004A756E203137203230F2
:1013F00031362031333A31323A333900526574751F
:10140000726E006D00204D61743A003A00507269AE
:101410006E74696E673A003A004D616368696E6583
:10142000206F6E20666F723A0052657475726E009E
:10143000746F2064656661756C743F0052657365F6
:10144000742065766572797468696E6700594553D2
:10145000004E4F00250046616E2073706565640084
:1014600047312046256920582569205925690047BC
:101470003238205830205930004731205A3430005B
:10148000473238205A3000473238205A300047322D
:101490003820583020593000473238205A30004127
:1014A0004456414E434544004255494C442D7C50DE
:1014B0004C41544500414456414E43454400524539
:1014C0005455524E0043504500435045004350454B
:1014D0000055504554004350450041425300504C84
:1014E0004100250046616E3A20004300430025007C
:1014F000466C6F773A006D6D00636F6D6573206F9A
:10150000757420746865206E6F7A7A6C6500576117
:1015100069742074696C6C206D6174657269616CAA
:101520000052454144590043414E43454C00466FEB
:101530007277617264696E67206D6174657269614A
:101540006C0061626F766520746865206172726FED
:10155000772E00796F7572206D616368696E652CF6
:101560000066726F6D20746865206261636B7369D9
:101570006465206F6600496E73657274206E6577CE
:10158000206D6174657269616C0052454144590077
:1015900043414E43454C006D6174657269616C2036
:1015A000696E73657274696F6E00436F6F6C696EFC
:1015B00067207072696E746865616420666F72007E
:1015C00048656174696E67207072696E74686561E0
:1015D0006420666F72004D4154455249414C00529F
:1015E000656D6F7665206D6174657269616C00521E
:1015F000454144590043414E43454C005265766590
:101600007273696E67206D6174657269616C0066E2
:101610006F72206D6174657269616C2072656D6FA7
:1016200076616C0048656174696E67207072696EDE
:1016300074686561640047323820583020593000A2
:10164000496D706F72742066726F6D20534400454F
:1016500078706F727420746F2053440043757374F4
:101660006F6D697A65003C2052455455524E004CCE
:101670006F61647320616C6C206D61746572696167
:101680006C7300536176657320616C6C206D6174BE
:10169000657269616C73004D6F6469667920746866
:1016A000652073657474696E677300250046616E0A
:1016B0003A2000430043002500466C6F773A006DE6
:1016C0006D003F3F3F0053746F726520617320705F
:1016D000726573657400466C6F7720250046616EF5
:1016E000004469616D657465720048656174656484
:1016F000206275696C64706C6174650054656D700E
:1017000065726174757265003C2052455455524EA5
:1017100000250025006D6D00430043004E657720D5
:10172000707265736574003C2052455455524E00EA
:10173000505245534554530025004D6174657269FC
:10174000616C20666C6F7700250046616E207370B7
:10175000656564006D6D004D6174657269616C2032
:101760004469616D657465720043004275696C641B
:10177000706C6174652054656D702E004300546573
:101780006D7065726174757265004D4154455249C2
:10179000414C00696E204D4154455249414C2E54F4
:1017A000585400746F20746865205344206361723C
:1017B00064005361766564206D6174657269616C63
:1017C00073004F6B000A0A006469616D657465728D
:1017D0003D000A00666C6F773D000A0066616E5F2F
:1017E00073706565643D000A006265645F74656DD1
:1017F00070657261747572653D000A0074656D7084
:10180000657261747572653D000A006E616D653DBB
:10181000005B6D6174657269616C5D0A005265619F
:1018200064696E6720636172642E2E2E00506C65B1
:1018300061736520696E7365727420636172640000
:101840004E6F2053442D43415244210066726F6D08
:10185000207468652053442063617264004C6F619A
:10186000646564206D6174657269616C73004F6BAF
:10187000006469616D6574657200666C6F770066FF
:10188000616E5F7370656564006265645F74656D49
:1018900070657261747572650074656D70657261F2
:1018A00074757265006E616D65005B6D6174657263
:1018B00069616C5D00466F756E64206F6E206361B8
:1018C00072642E004E6F206578706F7274206669A6
:1018D0006C650052656164696E6720636172642E95
:1018E0002E2E00506C6561736520696E736572748D
:1018F0002063617264004E6F2053442D4341524473
:101900002100666F72207365636F6E646172792067
:101910006E6F7A7A6C6500666F72207072696D61A5
:101920007279206E6F7A7A6C650053656C656374AA
:101930006564206D6174657269616C3A004F4B009B
:101940004D4154455249414C0047312046256920BC
:1019500058256920592569004732382058302059C8
:1019600030004348414E47450053455454494E4783
:10197000530052455455524E005052494D41525910
:101980007C4E4F5A5A4C45005345434F4E444152AA
:10199000597C4E4F5A5A4C450052455455524E00B0
:1019A0004300432F00436C69636B20746F207265A2
:1019B0007475726E004E6F7A7A6C65322074656D44
:1019C00070657261747572653A004300432F00437D
:1019D0006C69636B20746F2072657475726E004E53
:1019E0006F7A7A6C652074656D706572617475725A
:1019F000653A00507265706172696E6720746F207D
:101A00007072696E743A0048656174696E6720751A
:101A1000702E2E2E0054554E450041424F52540018
:101A20004C4544204272696768746E657373005256
:101A3000657472616374696F6E004D61746572697B
:101A4000616C20666C6F772032004D61746572693D
:101A5000616C20666C6F770046616E2073706565FF
:101A600064004275696C64706C6174652074656DA6
:101A7000702E0054656D70657261747572652032E8
:101A80000054656D706572617475726500537065A0
:101A900065640041626F7274003C20524554555297
:101AA0004E0025002500250025004300430043008B
:101AB000430043004300250041626F727420746844
:101AC00065207072696E743F00594553004E4F0097
:101AD0003F3F3F00457874727564657220636861AA
:101AE0006E6765206C656E00526574726163742068
:101AF00073706565640052657472616374206C650F
:101B00006E677468003C2052455455524E006D6D0E
:101B1000006D6D2F736563006D6D006D6D00457810
:101B2000747275646572206368616E6765006D6DBF
:101B30002F736563005265747261637420737065FE
:101B40006564006D6D0052657472616374206C652C
:101B50006E6774680052455452414354494F4E00D9
:101B600025004272696768746E6573730025004DC5
:101B70006174657269616C20666C6F772032002534
:101B8000004D6174657269616C20666C6F77002529
:101B90000046616E207370656564002500507269AF
:101BA0006E742073706565640054554E4500546929
:101BB0006D65206C6566740054696D65206C6566A2
:101BC0007420756E6B6E6F776E004300430048653E
:101BD0006174696E67206275696C64706C617465AC
:101BE000004300430048656174696E670050726984
:101BF0006E74696E673A0054554E45005041555316
:101C00004500524553554D457C5052494E54004372
:101C100048414E47457C4D4154455249414C005442
:101C2000554E45004D383400473238004732382091
:101C30005A30004732382058302059300047312080
:101C40004625692045300047393220452569004D39
:101C5000343031004D363031205835205935205A36
:101C60002569204C256900746865207072696E745E
:101C70002E00596F752063616E2072656D6F7665F9
:101C8000005072696E742066696E697368656400DD
:101C90004241434B20544F204D454E550043004395
:101CA00020005072696E74657220636F6F6C696E8C
:101CB0006720646F776E004241434B20544F204DA4
:101CC000454E55006F66207072696E74696E6720AC
:101CD00061726561005472696564207072696E7426
:101CE000696E67206F7574004552524F523A005228
:101CF000455455524E20544F204D41494E00756C6D
:101D000074696D616B65722E636F6D2F455230384B
:101D100000476F20746F3A0072656164696E6720D6
:101D200053442D6361726421004572726F72207793
:101D300068696C650052455455524E20544F204DF1
:101D400041494E0066726F6D2074686520736C693E
:101D50006365722E0073657474696E6720776974A9
:101D6000682073657474696E67006F766572726956
:101D70006465206D616368696E65005468697320ED
:101D800066696C652077696C6C00434F4E54494E10
:101D900055450043414E43454C003C204241434B96
:101DA000003C2052455455524E005344204341526A
:101DB00044004731204631323030302058352059E8
:101DC000313000473238003B464C41564F523A556D
:101DD0006C746947436F6465003B464C41564F52F3
:101DE0003A556C746947436F6465004E6F206669AD
:101DF0006C657320666F756E6421004F4B004F4B0E
:101E00000052656164696E6720636172642E2E2ED4
:101E100000506C6561736520696E73657274206330
:101E2000617264004E6F2053442D4341524421009F
:101E30004E6F20696E666F20617661696C61626CBD
:101E400065006D006D006D006D004D617465726917
:101E5000616C3A200054696D653A20003B4D415455
:101E6000455249414C323A003B4D4154455249415B
:101E70004C3A003B54494D453A00466F6C646572DC
:101E8000004D32313820496E76616C696420657886
:101E900074727564657220004D31303920496E7658
:101EA000616C696420657874727564657220004D98
:101EB00031303520496E76616C69642065787472C2
:101EC0007564657220004D31303420496E76616C46
:101ED0006964206578747275646572200050726957
:101EE0006E7465722073746F7070656420647565BC
:101EF00020746F206572726F72732E20466978208D
:101F0000746865206572726F7220616E64207573EB
:101F100065204D39393920746F2072657374617290
:101F2000742E202854656D70657261747572652019
:101F300069732072657365742E205365742069740B
:101F40002061667465722072657374617274696E63
:101F50006729005072696E7465722068616C7465DF
:101F6000642E206B696C6C28292063616C6C65643D
:101F700021006F6B00526573656E643A2000456EF8
:101F80006473746F70207374696C6C207072657305
:101F9000736564206166746572206261636B696E4B
:101FA00067206F66662E20456E6473746F702073B1
:101FB0007475636B3F00456E6473746F70206E6F51
:101FC0007420707265737365642061667465722035
:101FD000686F6D696E6720646F776E2E20456E6442
:101FE00073746F702062726F6B656E3F00456E6434
:101FF00073746F70206E6F74207072657373656494
:1020000020616674657220686F6D696E6720646F09
:10201000776E2E20456E6473746F702062726F6BE2
:10202000656E3F002200556E6B6E6F776E20636F9A
:102030006D6D616E643A202200456C656374726F49
:102040006E6963735F746573740041637469766568
:102050002045787472756465723A2000496E766125
:102060006C69642065787472756465720054002030
:10207000423A300020423A31006F6B20523A002041
:10208000633A0020643A0020693A0020703A006FF9
:102090006B002C002000486F74656E64206F6666CC
:1020A000736574733A002200556E6B6E6F776E2005
:1020B000636F6D6D616E643A2022006F70656E0013
:1020C000545249474745524544007A5F6D61783A1A
:1020D00020006F70656E0054524947474552454491
:1020E00000795F6D61783A20006F70656E00545220
:1020F0004947474552454400785F6D696E3A200074
:102100005265706F7274696E6720656E6473746F68
:102110007020737461747573005A3A00593A002044
:10212000436F756E7420583A2000453A005A3A00C1
:10213000593A00583A004649524D574152455F4E70
:10214000414D453A4D61726C696E20556C74696DF4
:10215000616B6572323B20537072696E7465722FC9
:102160006772626C206D617368757020666F722093
:1021700067656E36204649524D574152455F55526C
:102180004C3A687474703A2F2F6769746875622EC0
:10219000636F6D2F556C74696D616B657220505261
:1021A0004F544F434F4C5F56455253494F4E3A316F
:1021B0002E30204D414348494E455F545950453AD1
:1021C000556C74696D616B65722045585452554465
:1021D00045525F434F554E543A320A0020423A006E
:1021E00020453A00543A003F0020573A0020453A33
:1021F00000543A002042403A0020403A00202F008C
:1022000020423A00202F006F6B20543A00256920AD
:102210006D696E2C2025692073656300456E64200E
:1022200066696C65206C69737400426567696E202D
:1022300066696C65206C69737400256920686F7528
:102240007273202569206D696E7574657300446F23
:102250006E65207072696E74696E672066696C6560
:10226000005072696E7465722073746F707065646B
:102270002064756520746F206572726F72732E20F2
:1022800046697820746865206572726F7220616E8D
:102290006420757365204D39393920746F2072655B
:1022A00073746172742E202854656D706572617448
:1022B0007572652069732072657365742E2053658D
:1022C000742069742061667465722072657374612C
:1022D0007274696E6729006F6B004E6F204C696ED7
:1022E00065204E756D626572207769746820636839
:1022F00065636B73756D2C204C617374204C696E33
:10230000653A20004E6F20436865636B73756D20DE
:1023100077697468206C696E65206E756D62657290
:102320002C204C617374204C696E653A2000636800
:1023300065636B73756D206D69736D617463682C73
:10234000204C617374204C696E653A20004C696EB4
:1023500065204E756D626572206973206E6F742002
:102360004C617374204C696E65204E756D626572A8
:102370002B312C204C617374204C696E653A20001F
:102380004D31313000446F6E6520736176696E6740
:102390002066696C652E006F6B004D32390020207D
:1023A000506C616E6E6572427566666572427974D4
:1023B00065733A20002046726565204D656D6F7229
:1023C000793A20004A756E2031372032303136009C
:1023D000436F6D70696C65643A2000566572733A9C
:1023E0005F31352E30342E372D524335657800203D
:1023F0007C20417574686F723A20004A756E2031F6
:102400003720323031362031333A31323A343000ED
:10241000204C61737420557064617465643A2000C7
:10242000312E302E30004D61726C696E20002053C9
:102430006F6674776172652052657365740020570A
:1024400061746368646F672052657365740020422D
:10245000726F776E206F75742052657365740020FB
:1024600045787465726E616C2052657365740050B6
:102470006F77657255700073746172740022006525
:102480006E717565696E672022002200656E717538
:1024900065696E67202200FF01010000E040000036
:1024A000E0400000E040000066430000664300009A
:1024B000A54300000000000066430000A5430000A3
:1024C0006643000066430000A543000000000000D2
:1024D0000000000000006563686F3A004572726F8B
:1024E000723A0000002110422063308440A550C69B
:1024F00060E770088129914AA16BB18CC1ADD1CE42
:10250000E1EFF13112100273325222B5529442F7C8
:1025100072D662399318837BB35AA3BDD39CC3FF91
:10252000F3DEE36224433420040114E664C774A498
:102530004485546AA54BB528850995EEE5CFF5ACE1
:10254000C58DD55336722611163006D776F66695A8
:1025500056B4465BB77AA719973887DFF7FEE79D31
:10256000D7BCC7C448E5588668A7784008611802F8
:10257000282338CCC9EDD98EE9AFF9488969990A81
:10258000A92BB9F55AD44AB77A966A711A500A3308
:102590003A122AFDDBDCCBBFFB9EEB799B588B3BD1
:1025A000BB1AABA66C877CE44CC55C222C033C6058
:1025B0000C411CAEED8FFDECCDCDDD2AAD0BBD6821
:1025C0008D499D977EB66ED55EF44E133E322E51E8
:1025D0001E700E9FFFBEEFDDDFFCCF1BBF3AAF5971
:1025E0009F788F8891A981CAB1EBA10CD12DC14EE2
:1025F000F16FE18010A100C230E320045025404675
:10260000706760B9839893FBA3DAB33DC31CD37F93
:10261000E35EF3B1029012F322D2323542145277C4
:10262000625672EAB5CBA5A89589856EF54FE52C63
:10263000D50DC5E234C324A0148104667447642414
:10264000540544DBA7FAB79987B8975FE77EF71D73
:10265000C73CD7D326F2369106B016576676761564
:102660004634564CD96DC90EF92FE9C899E9898AC3
:10267000B9ABA94458654806782768C018E10882B4
:1026800038A3287DCB5CDB3FEB1EFBF98BD89BBBD3
:10269000AB9ABB754A545A376A167AF10AD01AB304
:1026A0002A923A2EFD0FED6CDD4DCDAABD8BADE823
:1026B0009DC98D267C076C645C454CA23C832CE054
:1026C0001CC10C1FEF3EFF5DCF7CDF9BAFBABFD9B3
:1026D0008FF89F176E367E554E745E932EB23ED1A4
:1026E0000EF01E7C3C3E5E2B3D3F2F5B5D3B2C2A5B
:1026F000225C0020746F6F206C6F6E6720657874A9
:10270000727573696F6E2070726576656E7465643C
:102710000020636F6C6420657874727573696F6EE6
:102720002070726576656E746564006563686F3AE3
:1027300000205A3A0020593A0020583A00656E6449
:1027400073746F7073206869743A200024F4D43075
:1027500050C38E20C2A24017828B7011127A910D45
:10276000816CD90AA861E108C75866076151430620
:102770001E4B5D05C145A7041A411104093D98038C
:10278000713931034036DB0265339102D430540293
:10279000802E1D02632CEE01752AC501B028A00110
:1027A000102781018F2564012B244B01E022340185
:1027B000AC211F018D200D01801FFC00841EED0047
:1027C000971DDF00B81CD200E61BC600201BBC0012
:1027D000641AB200B219A8000A19A0006A18990078
:1027E000D117910040178B00B516840031167E007A
:1027F000B31579003A157300C7146F0058146A00B6
:10280000EE1366008813630025135E00C7125B0099
:102810006C12570015125400C111510070114F0075
:1028200021114B00D61049008D104700461044007E
:1028300002104200C00F4000800F3E00420F3C00DB
:10284000060F3B00CB0E3800930E37005C0E3500B0
:10285000270E3400F30D3200C10D3100900D300011
:10286000600D2E00320D2D00050D2C00D90C2B0013
:10287000AE0C2900850C29005C0C2700350C2700C4
:102880000E0C2600E80B2400C40B2400A00B230030
:102890007D0B23005A0B2100390B2100180B20005F
:1028A000F80A1F00D90A1E00BB0A1E009D0A1D005F
:1028B000800A1D00630A1C00470A1B002C0A1B002B
:1028C000110A1A00F7091A00DD091900C4091900D4
:1028D000AB091900920917007B091800630917005A
:1028E0004C09160036091600200916000A091500C1
:1028F000F5081500E0081400CC081400B80814000E
:10290000A4081400900813007D0812006B0813003F
:10291000580812004608120034081100230811005C
:102920001208110001081100F0071000E007100064
:10293000D0071000C0071000B0070F00A10710005B
:1029400091070E0083070F0074070F0065070E0044
:1029500057070E0049070E003B070D002E070E001B
:1029600020070D0013070D0006070D00F9060C00E7
:10297000ED060D00E0060C00D4060C00C8060C00A5
:10298000BC060C00B0060C00A4060B0099060C0057
:102990008D060B0082060B0077060B006C060B0001
:1029A00061060A0057060B004C060A0042060A00A0
:1029B00038060A002E060A0024060A001A060A0033
:1029C0001006090007060A00FD050900F4050900C4
:1029D000EB050900E2050900D9050900D005090049
:1029E000C7050900BE050900B5050800AD050800CA
:1029F000A50509009C050800940508008C05080041
:102A0000840508007C050800740508006C050700B3
:102A1000650508005D050700560508004E0507001E
:102A20004705070040050800380507003105070085
:102A30002A050700230507001C05060016050700E8
:102A40000F0507000805060002050700FB04060045
:102A5000F5040700EE040600E8040600E20407009F
:102A6000DB040600D5040600CF040600C9040600F6
:102A7000C3040600BD040600B7040600B104050047
:102A8000AC040600A6040600A00405009B04060092
:102A900095040500900406008A04050085040500DD
:102AA000800406007A040500750405007004050022
:102AB0006B04050066040500610405005C04050064
:102AC00057040500520405004D04050048040500A4
:102AD000430405003E0404003A04050035040500E3
:102AE000300404002C04050027040400230405001E
:102AF0001E0404001A040400160405001104040056
:102B00000D0404000904050004040400000404008A
:102B1000FC030400F8030400F4030400F0030400C1
:102B2000EC030400E8030400E4030400E0030400F1
:102B3000DC030400D8030400D4030400D003040021
:102B4000CC030400C8030300C503030024F404D924
:102B5000201BC40C5C0E9804C4095F026507710158
:102B6000F405F900FB04B30048048700C1036900C1
:102B70005803550003034500BE023A0084023100A9
:102B800053022A002902250004022000E4011C004F
:102B9000C8011900AF011700980114008401130047
:102BA000710110006101100051010E0043010D0080
:102BB00036010B002B010B0020010B001501090051
:102BC0000C01090003010800FB000800F3000800E5
:102BD000EB000700E4000600DE000600D800060057
:102BE000D2000600CC000500C7000500C2000500A9
:102BF000BD000400B9000400B5000400B1000400E9
:102C0000AD000400A9000400A5000300A200030019
:102C10009F0004009B000300980003009500020041
:102C200093000300900003008D0002008B0003005E
:102C30008800020086000200840003008100020078
:102C40007F0002007D0002007B000200790002008C
:102C5000770001007600020074000200720001009B
:102C6000710002006F0002006D0001006C000200A4
:102C70006A000100690002006700010066000100AF
:102C800065000100640002006200010061000100B3
:102C9000600001005F0002005D0001005C000100B7
:102CA0005B0001005A0001005900010058000100BA
:102CB00057000100560001005500010054000100BA
:102CC00053000000530001005200010051000100B8
:102CD000500001004F0001004E0000004E000100B6
:102CE0004D0001004C0001004B0000004B000100B2
:102CF0004A000100490001004800000048000100AE
:102D000047000100460000004600010045000000A9
:102D100045000100440001004300000043000100A1
:102D2000420000004200010041000000410001009B
:102D3000400001003F0000003F0001003E00000095
:102D40003E0001003D0000003D0001003C0000008D
:102D50003C0000003C0001003B0000003B00010083
:102D60003A0000003A00010039000000390001007B
:102D70003800000038000000380001003700000073
:102D80003700010036000000360000003600010068
:102D9000350000003500000035000100340000005F
:102DA0003400000034000100330000003300000054
:102DB0003300010032000000320000003200010048
:102DC000310000003100000031000100300000003F
:102DD00030000000300001002F0000002F00000034
:102DE0002F0000002F0001002E0000002E00000028
:102DF0002E0001002D0000002D0000002D0000001D
:102E00002D0001002C0000002C0000002C00000010
:102E10002C0001002B0000002B0000002B00000004
:102E20002B0001002A0000002A0000002A000000F8
:102E30002A000100290000002900000029000000EC
:102E400029000000290001002800000028000000DF
:102E500028000000280000002800010027000000D2
:102E600027000000270000002700000027000100C5
:102E700026000000260000002600000026000000BA
:102E800026000100250000002500000025000000AC
:102E9000250000002500000025000100240000009E
:102EA0002400000024000000240000002400010091
:102EB0002300000023000000230000002300000086
:102EC0002300000023000000230001002200000076
:102ED000220000002200000022000000220000006A
:102EE000220001002100000021000000210000005C
:102EF000210000002100000021000000210001004D
:102F00002000000020000000200000002000000041
:102F10002000000020000000200000002000010030
:102F20001F0000001F0000001F0000001F00000025
:102F30001F0000001F0000001F0001001E00000015
:102F40001E0000001E0000001E0000006563686F88
:102F50003A003A2045787472756465722073776917
:102F60007463686564206F66662E204D494E544533
:102F70004D50207472696767657265642021003A5C
:102F8000204578747275646572207377697463681C
:102F90006564206F66662E204D415854454D502083
:102FA00074726967676572656420210054656D708D
:102FB000657261747572652068656174656420620C
:102FC0006564207377697463686564206F66662E34
:102FD000204D415854454D502074726967676572A1
:102FE000656420212100202D20496E76616C696482
:102FF000206578747275646572206E756D62657295
:10300000202100504944204175746F74756E65200D
:1030100066696E69736865642120507574207468F0
:1030200065204B702C204B6920616E64204B64201E
:10303000636F6E7374616E747320696E746F204376
:103040006F6E66696775726174696F6E2E68005085
:103050004944204175746F74756E65206661696CB2
:103060006564212074696D656F75740020403A00B5
:103070006F6B20543A006F6B20423A005049442055
:103080004175746F74756E65206661696C65642145
:103090002054656D706572617475726520746F6F10
:1030A000206869676800204B643A2000204B693A29
:1030B0002000204B703A200020436C61736963202C
:1030C00050494420002054753A2000204B753A2086
:1030D00000206D61783A2000206D696E3A20002052
:1030E000643A200020626961733A2000504944200C
:1030F0004175746F74756E652073746172740050DD
:103100004944204175746F74756E65206661696C01
:1031100065642E20426164206578747275646572FE
:10312000206E756D6265722E004572726F723A0084
:103130000000000018070100A8071400300828004C
:10314000B8083C0038095000C0096400480A7800FB
:10315000C80A8C00480BA000C80BB400480CC8007B
:10316000C80CDC00400DF000C00D0401380E180141
:10317000B00E2C01280F4001A00F54011810680157
:1031800088107C01001190013013F4014815580299
:103190004017BC0228192003F01A8403A81CE80376
:1031A000401E4C044D383420582059205A204500E8
:1031B00043616E6E6F7420656E7465722073756204
:1031C0006469723A20004D3234004D323320257349
:1031D000006175746F25692E67006572726F7220C9
:1031E00077726974696E6720746F2066696C650018
:1031F00043617264206572726F723A004E6F742080
:103200005344207072696E74696E67002F005344D6
:10321000207072696E74696E67206279746520002F
:103220002E0044656C6574696F6E206661696C651B
:10323000642C2046696C653A200046696C65206400
:10324000656C657465643A002E006F70656E20666B
:1032500061696C65642C2046696C653A2000577280
:103260006974696E6720746F2066696C653A200026
:103270002E006F70656E206661696C65642C204657
:10328000696C653A20002E006F70656E206661697A
:103290006C65642C2046696C653A200046696C6553
:1032A0002073656C6563746564002053697A653AC0
:1032B000200046696C65206F70656E65643A200079
:1032C0002E006F70656E206661696C65642C204607
:1032D000696C653A200053442063617264206F6B0F
:1032E000006F70656E526F6F74206661696C656403
:1032F00000766F6C756D652E696E69742066616904
:103300006C656400534420696E6974206661696C61
:103310000043616E6E6F74206F70656E207375620E
:10332000646972006563686F3A004572726F723A41
:103330000048617264636F6465642044656661750A
:103340006C742053657474696E6773204C6F61648C
:10335000656400563031300053746F7265642073B9
:10336000657474696E6773207265747269657665D9
:1033700064002044002049002020204D33303120BB
:1033800050005049442073657474696E67733A0045
:10339000205A0020590020204D3230362058004855
:1033A0006F6D65206F666673657420286D6D293AB0
:1033B00000204500205A00205800204200205400E0
:1033C00020204D323035205300416476616E6365B4
:1033D00064207661726961626C65733A20533D4D79
:1033E000696E20666565647261746520286D6D2F55
:1033F00073292C20543D4D696E2074726176656C82
:1034000020666565647261746520286D6D2F73296F
:103410002C20423D6D696E696D756D207365676D19
:10342000656E742074696D6520286D73292C205891
:103430003D6D6178696D756D205859206A65726BB4
:1034400020286D6D2F73292C20205A3D6D617869DD
:103450006D756D205A206A65726B20286D6D2F7313
:10346000292C2020453D6D6178696D756D204520C2
:103470006A65726B20286D6D2F732900205400201F
:10348000204D323034205300416363656C657261B6
:1034900074696F6E3A20533D616363656C65726158
:1034A00074696F6E2C20543D726574726163742070
:1034B000616363656C65726174696F6E00204500BD
:1034C000205A0020590020204D3230312058004D24
:1034D0006178696D756D20416363656C65726174B7
:1034E000696F6E20286D6D2F7332293A00204500D8
:1034F000205A0020590020204D3230332058004DF2
:103500006178696D756D2066656564726174657357
:1035100020286D6D2F73293A00204500205A002085
:10352000590020204D3932205800537465707320A3
:1035300070657220756E69743A0053657474696EB3
:1035400067732053746F726564006563686F3A0037
:10355000544553540D0A000D0A00556E6B6E6F777B
:103560006E20636F6D6D616E643A20000D0A003F3E
:1035700000566572733A5F31352E30342E372D5236
:103580004335657800024E414E494E495459494EE3
:1035900046CDCCCC3D0AD7233C17B7D13877CC2BBE
:1035A000329595E6241FB14F0A000020410000C863
:1035B0004200401C4620BCBE4CCA1B0E5AAEC59DE4
:1035C00074000C94A4370C94379B0C94595E0C94A3
:1035D0008D490C94DB640C9461420C9481380C94FA
:1035E000A8E70C94C3630C94221E0C94454F0C94D2
:1035F000174E0C9451E70C94CD510C94EA1D0C9489
:103600001CE70C94AC490C945E700C94D3E70C94BA
:10361000323F0C94F8640C944F640C94DA280C94A8
:1036200023530C94AC680C94AF440C944F1E0C9430
:10363000BA350C94DF670C94C7440C94714E0C940B
:10364000041E0C940E1E0C94B6E70C94E95C0C94CA
:10365000A9500C949CE70C940E580C94F41D0C94F7
:1036600096650C942C690C94BD3E0C94591E0C94D8
:10367000154B0C94AA3B0C9446350C9415510C94A4
:10368000BB1E0C940A500C94631E0C94921E0C9456
:10369000874F0C947D5B0C9435650C9472210C94CF
:1036A000D61D0C948FE70C9432240C94C5210C94F5
:1036B0006A240C9458E70C94244E0C943B6B0C94A5
:1036C000A2E70C943D3C0C9425450C94A81E0C9448
:1036D000143F0C94DC480C9470250C94E6660C9412
:1036E00097240C94A41E0C94BAE70C94D9540C940F
:1036F0002D5F0C94FE460C940BE70C94881E0C94E2
:103700002F400C942F410C94AE1E0C94A25B0C9491
:1037100023E70C94125D0C9498E70C94503E0C94A3
:10372000C65B0C94DE3D0C94C83A0C94EB370C94B9
:1037300054420C94811E0C944E240C947D500C9495
:10374000D94E0C949AE70C94F3590C9478240C9469
:10375000253D0C94B3200C94ED4A0C94771E0C94E8
:1037600073490C94C8340C94A01E0C94B2E70C94CA
:103770003A360C94269B0C9477610C9407350C9484
:10378000545A0C9412370C94181E0C9468E70C943D
:103790005F4A0C948F3E0C9475540C94AB4B0C9474
:1037A0005C240C94A6E70C94B61E0C94D4500C9494
:1037B0009EE70C94483F0C9415E70C9479440C94C4
:1037C00037390C9472490C949A560C9414430C9407
:1037D000365D0C94E3600C94ACE70C9486E70C9493
:1037E00028380C948C1E0C9440240C94D0490C94D2
:1037F0000EE70C947B1E0C941BA90C943F3D0C947B
:103800009A350C94C8410C94A0E70C94DB1D0C94E1
:10381000AEE70C94603A0C94BC3C0C949A3B0C942C
:103820000FE80C948A3D0C94CB470C9461E70C9400
:10383000841E0C9465480C948D480C94A4E70C9459
:10384000593B0C94C25B0C94FC1D0C94633B0C9490
:10385000FA4A0C94961E0C949A1E0C9424240C94F0
:10386000F7350C94B21E0C9440E70C94A0650C94B0
:10387000EE3E0C947DE70C9431E70C943B1E0C94C7
:10388000554D0C94ED390C942AE70C94E01D0C94E2
:1038900083340C9489340C94BB5C0C94B0E70C9486
:1038A00070350C94451E0C947B680C9476E70C9450
:1038B0006FE70C94A6360C94311E0C9438E70C94E8
:1038C000AAE70C94035C0C9486240C94E2490C94B3
:1038D00065400C94B4E70C9448E70C945D37269B44
:1038E000379B11241FBECFEFD1E2DEBFCDBF00E07A
:1038F0000CBF13E0A0E0B2E0EAEEFAEE01E00BBF8D
:1039000002C007900D92A433B107D9F719E1A4E3DF
:10391000B3E001C01D92A43EB107E1F718E3C0EE89
:10392000D8E300E006C022970109FE010BBF0E9408
:1039300047EECE3DD10780E00807A9F70E940DE9C8
:103940000C9463F50C9400001F920F920FB60F9227
:1039500011242F933F938F939F93AF93BF938091A5
:10396000350390913603A0913703B091380330911D
:10397000340323E0230F2D3720F40196A11DB11D40
:1039800005C026E8230F0296A11DB11D2093340324
:103990008093350390933603A0933703B093380395
:1039A0008091390390913A03A0913B03B0913C037D
:1039B0000196A11DB11D8093390390933A03A09302
:1039C0003B03B0933C03BF91AF919F918F913F9187
:1039D0002F910F900FBE0F901F9018952FB7F8944E
:1039E00060913503709136038091370390913803CD
:1039F0002FBF08953FB7F8948091390390913A030F
:103A0000A0913B03B0913C0326B5A89B05C02F3F76
:103A100019F00196A11DB11D3FBF6627782F892F90
:103A20009A2F620F711D811D911D42E0660F771F55
:103A3000881F991F4A95D1F70895CF92DF92EF9290
:103A4000FF92CF93DF936B017C010E94FA1CEB0184
:103A5000C114D104E104F10479F00E94FA1C6C1B3A
:103A60007D0B683E7340A0F381E0C81AD108E108DD
:103A7000F108C851DC4FECCFDF91CF91FF90EF9070
:103A8000DF90CF9008950197009739F0880F991F24
:103A9000880F991F02970197F1F70895789484B5DC
:103AA000826084BD84B5816084BD85B5826085BD3A
:103AB00085B5816085BDEEE6F0E080818160808320
:103AC000E1E8F0E010828081826080838081816003
:103AD0008083E0E8F0E0808181608083E1EBF0E0CA
:103AE000808184608083E0EBF0E08081816080836E
:103AF000E1E9F0E080818260808380818160808361
:103B0000E0E9F0E0808181608083E1EAF0E080819B
:103B100082608083808181608083E0EAF0E0808140
:103B200081608083E1E2F1E0808182608083808136
:103B300081608083E0E2F1E0808181608083EAE758
:103B4000F0E08081846080838081826080838081D6
:103B5000816080838081806880831092C100089595
:103B60001F93CF93DF93182FEB0161E00E94BC1EDF
:103B7000209711F460E004C0CF3FD10539F461E033
:103B8000812FDF91CF911F910C94F51EE12FF0E072
:103B9000ED5AFD4F449150E0FA013197E131F105C2
:103BA00008F091C0EE58FF4F0C942DEE84B580685C
:103BB00084BDC7BD8DC084B5806284BDC8BD88C0CA
:103BC00080918000806880938000D0938900C093AA
:103BD00088007EC080918000806280938000D093B6
:103BE0008B00C0938A0074C08091B000806880937D
:103BF000B000C093B3006CC08091B000806280932D
:103C0000B000C093B40064C080919000806880933D
:103C10009000D0939900C09398005AC08091900072
:103C2000806280939000D0939B00C0939A0050C014
:103C300080919000886080939000D0939D00C09305
:103C40009C0046C08091A00080688093A000809175
:103C5000A0008F7B8093A000D093A900C093A80000
:103C600037C08091A00080628093A000D093AB0009
:103C7000C093AA002DC08091A00088608093A0000E
:103C8000D093AD00C093AC0023C080912001806828
:103C900080932001D0932901C093280119C08091FD
:103CA0002001806280932001D0932B01C0932A01D0
:103CB0000FC080912001886080932001D0932D0156
:103CC000C0932C0105C0C038D1050CF058CF52CF9D
:103CD000DF91CF911F91089590E0FC013197E13180
:103CE000F10508F048C0ED57FF4F0C942DEE809180
:103CF00080008F7703C0809180008F7D809380004B
:103D0000089584B58F7702C084B58F7D84BD0895F2
:103D10008091B0008F7703C08091B0008F7D809339
:103D2000B0000895809190008F7707C08091900037
:103D30008F7D03C080919000877F809390000895CD
:103D40008091A0008F7707C08091A0008F7D03C075
:103D50008091A000877F8093A0000895809120012A
:103D60008F7707C0809120018F7D03C08091200153
:103D7000877F809320010895CF93DF9390E0FC012B
:103D8000E756FD4F2491FC01E152FD4F84918823B9
:103D900049F190E0880F991FFC01E15CFC4FA5916F
:103DA000B4918B5D9C4FFC01C591D4919FB761117B
:103DB00008C0F8948C91209582238C93888182236B
:103DC0000AC0623051F4F8948C91322F30958323DD
:103DD0008C938881822B888304C0F8948C91822BE9
:103DE0008C939FBFDF91CF9108950F931F93CF9333
:103DF000DF931F92CDB7DEB7282F30E0F901ED5ADF
:103E0000FD4F8491F901E756FD4F1491F901E152FC
:103E1000FD4F04910023C9F0882321F069830E949B
:103E20006C1E6981E02FF0E0EE0FFF1FEB5DFC4F91
:103E3000A591B4919FB7F8948C91611103C010952E
:103E4000812301C0812B8C939FBF0F90DF91CF9175
:103E50001F910F9108951F920F920FB60F92112488
:103E60000BB60F922F933F934F935F936F937F9374
:103E70008F939F93AF93BF93EF93FF9380914103F1
:103E800090914203892B29F0E0914103F091420384
:103E90001995FF91EF91BF91AF919F918F917F9174
:103EA0006F915F914F913F912F910F900BBE0F90AB
:103EB0000FBE0F901F9018951F920F920FB60F9282
:103EC00011240BB60F922F933F934F935F936F93F1
:103ED0007F938F939F93AF93BF93EF93FF938091C3
:103EE000430390914403892B29F0E0914303F0911F
:103EF00044031995FF91EF91BF91AF919F918F91DD
:103F00007F916F915F914F913F912F910F900BBED9
:103F10000F900FBE0F901F9018951F920F920FB623
:103F20000F9211240BB60F922F933F934F935F93F1
:103F30006F937F938F939F93AF93BF93EF93FF9371
:103F40008091450390914603892B29F0E091450328
:103F5000F09146031995FF91EF91BF91AF919F9119
:103F60008F917F916F915F914F913F912F910F9022
:103F70000BBE0F900FBE0F901F9018951F920F92BF
:103F80000FB60F9211240BB60F922F933F934F93BE
:103F90005F936F937F938F939F93AF93BF93EF93B1
:103FA000FF938091470390914803892B29F0E0917A
:103FB0004703F09148031995FF91EF91BF91AF919D
:103FC0009F918F917F916F915F914F913F912F9131
:103FD0000F900BBE0F900FBE0F901F9018951F9261
:103FE0000F920FB60F9211240BB60F922F933F939F
:103FF0004F935F936F937F938F939F93AF93BF93F1
:10400000EF93FF9380913D0390913E03892B29F01C
:10401000E0913D03F0913E031995FF91EF91BF911F
:10402000AF919F918F917F916F915F914F913F9150
:104030002F910F900BBE0F900FBE0F901F901895F1
:104040001F920F920FB60F9211240BB60F922F935F
:104050003F934F935F936F937F938F939F93AF9310
:10406000BF93EF93FF9380913F0390914003892B7F
:1040700029F0E0913F03F09140031995FF91EF91F2
:10408000BF91AF919F918F917F916F915F914F9170
:104090003F912F910F900BBE0F900FBE0F901F906E
:1040A00018951F920F920FB60F9211240BB60F9214
:1040B0002F933F934F935F936F937F938F939F9330
:1040C000AF93BF93EF93FF938091490390914A037D
:1040D000892B29F0E0914903F0914A031995FF914A
:1040E000EF91BF91AF919F918F917F916F915F9170
:1040F0004F913F912F910F900BBE0F900FBE0F90DD
:104100001F9018951F920F920FB60F9211240BB6A5
:104110000F922F933F934F935F936F937F938F9360
:104120009F93AF93BF93EF93FF9380914B03909135
:104130004C03892B29F0E0914B03F0914C03199526
:10414000FF91EF91BF91AF919F918F917F916F916F
:104150005F914F913F912F910F900BBE0F900FBE2B
:104160000F901F901895FF920F931F93CF93DF939B
:1041700088EA9FEF909371038093700340916403EA
:1041800088E0840F405E682F0E94CF2A0E940C3086
:10419000809164038435C8F549EE54E066E180E01F
:1041A0000E941B3107E116E1C0E0D0E0FC2E4091F7
:1041B0006403842F90E0880F991FFE017396E8171F
:1041C000F90744F4440F44514C1B202F612F80E029
:1041D0000E94173080916403482F50E0440F551F10
:1041E0004C175D0734F0880F202F4FE7612F8F1990
:1041F00004C0202F4FE7612F80E00E9417302196E6
:104200001E5F0E5F1A3291F609C0815080936403DD
:1042100049EE54E066E180E00E941B310E94922A40
:1042200080914D03811113C02091640330E0220F6F
:10423000331F40911602429FC001439F900D1124ED
:1042400064E670E00E94D8ED88E00E94B01D809185
:104250006303811104C080916F038823E9F1809189
:104260004D0381110DC0809116022FEF829FC00176
:10427000112464E670E00E94D8ED88E00E94B01D31
:1042800010926303109264034CE360E380E30E94A6
:10429000CF2A80916F0381110E948E3180E094E0DB
:1042A0000E9481F4853579F420E030E0A901609125
:1042B000F60E7091F70E8091F80E9091F90E0E9413
:1042C000F4E9811103C080E59EE302C082E791E238
:1042D00090936C0380936B03DF91CF911F910F91AB
:1042E000FF90089548E653E06FE573E089E593E0B9
:1042F0000E94B12580916F03882349F1809170035A
:10430000909171039C01295F3F4F2F30310558F484
:104310000E94296B80E19FE00E9487D862E070E0F4
:104320008BE39BE612C09C012850310928303105EF
:1043300028F468EA7FEF85E794E507C0409708977F
:1043400030F468EA7FEF8DEB9EE30E948125809137
:104350006E038823A1F08091700390917103883AD5
:104360009F4F69F41092630380916403893C58F075
:1043700068EA7FEF85EC91E20E94812504C01092EB
:104380006303109264030C94922A8F929F92BF92BF
:10439000CF92DF92EF92FF920F931F93CF93DF9311
:1043A0001F921F92CDB7DEB7809170039091710379
:1043B000883A9F4F59F58AE190E09093710380937A
:1043C000700320EA37E043E080E090E0F901E80F75
:1043D000F91F4083019685309105C1F72B5F3F4F50
:1043E00087E02F3A380781F71092B0071092AF0795
:1043F00080E099E39093B2078093B1071092B407DD
:104400001092B3071092B6071092B507809170030F
:104410009091710397FF04C0109271031092700382
:104420008091700390917103880F991F8B369105CD
:1044300034F085E390E09093710380937003609172
:10444000B3077091B4078091AF079091B007860FC2
:10445000971F9093B0078093AF074091B507509195
:10446000B6072091B1073091B207240F351F309362
:10447000B2072093B1078F3F910509F01CF477FF35
:104480000DC009C08130ECE79E0764F077FF03C0E0
:104490007195619571097195619571097093B40772
:1044A0006093B3072F3F310509F054F457FF03C061
:1044B0005195419551095093B6074093B50705C0F2
:1044C0002115FEE13F070CF053C0292F220F220BCC
:1044D000892F922F69E170E00E94D8ED262F932F4B
:1044E000990F990B832F6AE070E00E94D8ED45E0A8
:1044F000649FF0011124E20FF11DE056F84F808116
:104500008823B1F1815080838091B5079091B607DF
:1045100097FF03C09195819591099093B607809379
:10452000B50780EA97E020E030E0FC01E20FF31FDE
:10453000408141111DC02F5F3F4F25303105A9F744
:104540000596F7E08F3A9F0771F780EA97E043E01E
:1045500020E030E0FC01E20FF31F40832F5F3F4F6C
:1045600025303105B9F70596E7E08F3A9E0781F7C8
:104570008091B1079091B20781309A430CF448C002
:104580002091AF073091B007809170039091710333
:104590000197880F991F582F44272417350734F0A7
:1045A0004796982F88278217930734F468EA7FEF9D
:1045B00082E791E20E9481258BEF9FEF20917003AB
:1045C00030917103821B930B982F8827990F2091AC
:1045D000AF073091B007820F931F97FDCF96E6E0AB
:1045E00095958795EA95E1F72091B3073091B40747
:1045F000820F931F9093B4078093B30797FF03C074
:1046000091958195910992509093B6078093B50743
:104610008091B5079091B607892B59F580E099E311
:104620009093B2078093B1078091700390917103CA
:104630009C012B5F3F4F220F331F1092AF07209337
:10464000B00720916F032223A1F0809763E0880FC9
:10465000991F6A95E1F79093B4078093B30797FF8A
:1046600003C091958195910992509093B6078093DC
:10467000B5070E940C3000EA17E033E047E0B42EA3
:10468000B30ECC24CA94C30E56E0D52ED30E4801E7
:1046900094E07401F4018081882361F02B2D43E1C3
:1046A000490F6C2D8FEF890F39839A830E946F2FEA
:1046B0009A813981F4018081823059F42D2D42E1B3
:1046C000490F632F892F39839A830E94A12F9A81E2
:1046D0003981FFEF8F1A9F0AF7018081833059F4E7
:1046E0002D2D42E1490F632F892F39839A830E9430
:1046F0009D309A813981975E913859F6365F0B5F0C
:104700001F4F313209F0BACF6091B2078091B007E4
:1047100022E0260F42E0480F0E946F2F8091700325
:10472000880F45E1480F2FE36CE30E946F2F0F9035
:104730000F90DF91CF911F910F91FF90EF90DF903D
:10474000CF90BF909F908F900C94922A0E94043239
:104750000E947A5A81110AC00E945D5560E080E093
:104760000E94695961E080E00E9469590E941357D4
:1047700083EB90E290936C0380936B0360E070E0B6
:1047800088E00E94B01D0E94EE1C685873418109A8
:10479000910960934F03709350038093510390935A
:1047A00052030895CF92DF92EF92FF920E94CA2A9D
:1047B000882309F490C10E94E33182B382FB8827E9
:1047C00080F991E089279091140F981759F09091F2
:1047D000B810992321F091509093B81006C080939F
:1047E000140F03C088E28093B81090916303809106
:1047F0006403992341F082508093640381110BC0BC
:104800001092630308C08E5F809364038E3719F49F
:1048100081E0809363030E94367F882309F48FC070
:104820000E940C3069ED74E08AE00E94062E0E941E
:104830003D7F90E0FC013197EA30F10508F077C048
:10484000EC56FF4F0C942DEE6DEC74E084E10E9469
:10485000062E46EC54E068E281E00E94842C43EB93
:1048600054E061C063EA74E084E10E94062E4CE9E2
:1048700054E068E281E00E94842C49E854E053C08F
:104880006CE774E084E10E94062E45E754E068E29C
:1048900081E00E94842C42E654E045C063E574E068
:1048A00084E10E94062E4CE454E068E281E00E941C
:1048B000842C49E354E037C069E274E084E10E944B
:1048C000062E42E254E068E281E00E94842C4FE030
:1048D00054E029C060E074E084E10E94062E49EFB4
:1048E00053E068E281E00E94842C46EE53E01BC056
:1048F00061ED73E084E10E94062E4AEC53E068E229
:1049000081E00E94842C47EB53E00DC063EA73E022
:1049100084E10E94062E4CE953E068E281E00E94A7
:10492000842C49E853E062E381E00E94842C80916A
:10493000640360E8681B482F0E94CF2A30C00E94A1
:10494000EE1CC0904F03D0905003E0905103F090C4
:1049500052036C197D098E099F09683873418105DE
:10496000910518F580914E0381110AC00E940C3008
:1049700064E773E084E10E94062E81E080934E0399
:104980008091E40B8350833050F40E94EE1C6093BE
:104990004F03709350038093510390935203FF9001
:1049A000EF90DF90CF900C94922A10924E032DEC52
:1049B0003CEC4CE45DE36091C5197091C61980919F
:1049C000C7199091C8190E94C9EC6B017C0123E3BF
:1049D00033E343E75FE360910E0270910F02809131
:1049E0001002909111020E94C9EC9B01AC01C70119
:1049F000B6010E941BE960930E0270930F02809330
:104A00001002909311022DEC3CEC4CE45DE36091BC
:104A1000C9197091CA198091CB199091CC190E9433
:104A2000C9EC6B017C0123E333E343E75FE360916F
:104A300012027091130280911402909115020E944B
:104A4000C9EC9B01AC01C701B6010E941BE9609350
:104A500012027093130280931402909315022DECAE
:104A60003CEC4CE45DE36091BF197091C0198091FA
:104A7000C1199091C2190E94C9EC6B017C0123E31A
:104A800033E343E75FE360910A0270910B02809188
:104A90000C0290910D020E94C9EC9B01AC01C70170
:104AA000B6010E941BE960930A0270930B02809387
:104AB0000C0290930D02E0916B03F0916C03199539
:104AC000E0916703F0916803309729F0FF90EF9031
:104AD000DF90CF901994FF90EF90DF90CF900895E2
:104AE0001092D4191092D3191092D6191092D51988
:104AF0001092D2191092D1191092D00E08950C94E0
:104B0000B1310F931F93CF93DF93EC018B01109280
:104B1000620310926303109264034CE360E380E34A
:104B20000E94CF2A0E948E3180916B0390916C037A
:104B300090936A038093690380917003909171034D
:104B40009093660380936503D0936C03C0936B03CB
:104B50001093710300937003DF91CF911F910F9118
:104B60000895EF92FF920F931F93CF93DF938C01E1
:104B70007B01EA012091700330917103283A8FEF95
:104B80003807A1F037FF06C0285E3F4F309371030E
:104B90002093700380917003909171038831910587
:104BA0002CF0489790937103809370030E940C300F
:104BB0004DE265E080E40E941B2F40E36CE783E058
:104BC0000E94FE2E2091700330917103295F3F4FA8
:104BD0002F30310590F42BE24BE367E085E00E9433
:104BE0006F2F2AE24AE368E086E00E949D30A80128
:104BF00066E181E20E94962E05C0A80166E181E28D
:104C00000E942E2E8091700390917103089708974F
:104C100090F42BE24BE767E085E40E946F2F2AE2D5
:104C20004AE768E086E40E949D30A70166E181E6DC
:104C30000E94962E05C0A70166E181E60E942E2EF5
:104C4000209739F1809170039091710340970897F4
:104C5000B0F42DE34BE763E385E00E946F2F2CE374
:104C60004AE764E386E00E949D30BE0185E3DF9160
:104C7000CF911F910F91FF90EF900C941A2EBE01CF
:104C800085E3DF91CF911F910F91FF90EF900C94EE
:104C9000062EDF91CF911F910F91FF90EF90089515
:104CA0000E940C3040E36CE783E00C94FE2E0F93DF
:104CB0001F93CF93DF931F921F92CDB7DEB78A0168
:104CC0002091700330917103283A4FEF3407A9F017
:104CD00037FF06C0205F3F4F30937103209370036E
:104CE00020917003309171032031310534F020514F
:104CF0003109309371032093700320916F032223B5
:104D0000C1F02091700330917103295F3F4F2F3024
:104D1000310578F46115710531F089839A83FB01BF
:104D200019959A818981009721F068EA7FEF0E94A6
:104D300081250E9450260115110511F402E716E0A5
:104D4000809170039091710307960F97F0F42DE313
:104D50004BE763E385E00E946F2F2CE34AE764E3AF
:104D600086E00E949D30C8010E9477F1982F990F2C
:104D7000980FA80165E381E4891B0F900F90DF91E4
:104D8000CF911F910F910C94402DC8010E9477F193
:104D9000982F990F980FA80165E381E4891B0F9064
:104DA0000F90DF91CF911F910F910C94842CAF92B3
:104DB000BF92CF92DF92EF92FF920F931F93CF9308
:104DC000DF936C01EA015901409170035091710326
:104DD000483A8FEF5807A1F057FF06C0405F5F4F7A
:104DE000509371034093700380917003909171030D
:104DF000803191052CF0409790937103809370035C
:104E000080916F03882331F1809170039091710339
:104E10009C01295F3F4F2F30310560F4611571050A
:104E200011F0FB011995C114D104A1F068EA7FEFDC
:104E3000C6010EC00897089768F40115110511F016
:104E4000F8011995A114B10429F068EA7FEFC501B2
:104E50000E9481250E9450268091700390917103D9
:104E600007960F97C8F42DE34EE363E385E00E94B5
:104E70006F2F2CE34DE364E386E00E949D30CE016A
:104E80000E9477F1982F990F980FAE0165E383E2A6
:104E9000891B0E94402D0CC0CE010E9477F1982FF3
:104EA000990F980FAE0165E383E2891B0E94842C61
:104EB00080917003909171030897089710F52DE386
:104EC0004AE763E382E40E946F2F2CE349E764E33F
:104ED00083E40E949D30C7010E9477F1982F990FBB
:104EE000980FA70165E38FE5891BDF91CF911F9193
:104EF0000F91FF90EF90DF90CF90BF90AF900C9408
:104F0000402DC7010E9477F1982F990F980FA701A4
:104F100065E38FE5891BDF91CF911F910F91FF9082
:104F2000EF90DF90CF90BF90AF900C94842CDF92E5
:104F3000EF92FF920F931F93CF93DF93D82E2EE221
:104F40004CE766E283E00E946F2FC0E0D0E00D2DB9
:104F500010E0015011098CE0E82EF12CEC2FCD155A
:104F6000D0F4C937D105B9F0C8018C1B9D0BB7012E
:104F70000E94D8ED482F853018F4485D68E205C0DE
:104F80008A3038F463E2640F4CE284E08E0F0E94B2
:104F90001B2F2196E3CFDF91CF911F910F91FF90AF
:104FA000EF90DF9008952F923F924F925F926F9211
:104FB0007F928F929F92AF92BF92CF92DF92EF92A9
:104FC000FF920F931F93CF93DF935C017A016901E6
:104FD00080916F038111DBC0809170039091710308
:104FE000883A9F4F21F41092710310927003209120
:104FF000700330917103862E992487FC909437FFBB
:105000000BC0C401880F991F880F991F820F931F2F
:10501000909371038093700380917003909171035A
:105020009401220F331F220F331F821793074CF076
:10503000E4E06E028019910911249093710380932A
:105040007003009170031091710317FF02C00D5F90
:105050001F4F1595079515950795702E0E940C30DA
:105060008091530390915403D801BB2773E0AA0F9A
:10507000BB1F7A95E1F71F97A81BB90BED01B7FD90
:105080002396D595C795D595C795C80FD91F1A16DC
:105090001B0614F4219608C0AB2B29F4D0935403BB
:1050A000C093530309C02197D0935403C093530373
:1050B0001092630310926403809153039091540300
:1050C000282F27703AE0632E43E0969587954A95FE
:1050D000E1F7382E621AC0E0D0E02C2E230C222DEE
:1050E00030E028153905DCF4822DF70119952C01E3
:1050F000FC01148A27100EC027E0260D4CE76FEF45
:10510000660D83E00E949D30A201662D84E00E941E
:10511000982B05C0AC01662D84E00E94D62A21960A
:10512000F8E06F0EC630D105C1F628E04CE760E02C
:1051300083E00E949D302FE34CE76FE283E00E9402
:10514000173029E04CE769E083E00E94173040E324
:105150006CE783E00E94FE2EB50181E00E941A2ECA
:10516000802FF6011995DF91CF911F910F91FF903C
:10517000EF90DF90CF90BF90AF909F908F907F90F7
:105180006F905F904F903F902F900C94922ADF91F8
:10519000CF911F910F91FF90EF90DF90CF90BF9034
:1051A000AF909F908F907F906F905F904F903F90C7
:1051B0002F9008950F931F93CF93DF93CDB7DEB752
:1051C00060970FB6F894DEBF0FBECDBF8091590334
:1051D00090915A0320917003309171032817390779
:1051E00024F49093710380937003809157039091FE
:1051F000580320917003309171038217930724F4B0
:10520000909371038093700380915B03813041F42C
:10521000E0915C03F0915D038091700380838EC008
:10522000823059F4E0915C03F0915D03809170034A
:10523000909171039183808381C08330A9F40091A0
:105240005C0310915D036091700370917103882776
:1052500077FD8095982F0E9496EA20E030E048EC98
:1052600052E40E94FBE965C0843089F4E0915C035C
:10527000F0915D038091700390917103AA2797FDCF
:10528000A095BA2F80839183A283B38357C08530C2
:10529000A1F4E0915C03F0915D03209170033091E3
:1052A00071034FEF429FC001439F900D112464E6AC
:1052B00070E00E94D8ED608341C0863099F400917F
:1052C0005C0310915D0360917003709171038827F6
:1052D00077FD8095982F0E9496EA20E030E040E725
:1052E00052E414C08730A9F400915C0310915D036F
:1052F0006091700370917103882777FD8095982FD6
:105300000E9496EA20E030E048EC52E40E94C9ECAA
:1053100010C0883099F400915C0310915D03609196
:10532000700370917103882777FD8095982F0E94F4
:1053300096EAF80160837183828393830E945026EA
:10534000609160037091610384E10E94062E2091B8
:105350005B03809170039091710300915E03109143
:105360005F032330A1F4BC01882777FD8095982F37
:105370000E9496EA20E030E048EC52E40E94FBE90B
:105380009801AE014F5F5F4F0E94DB3306C0A8015A
:10539000BE016F5F7F4F0E94CD32BE016F5F7F4FB6
:1053A0008EE10E94642C6BE676E0CE0101960E94AD
:1053B00070F120915B0300915E0310915F03809177
:1053C0005503909156032330A1F4BC01882777FD43
:1053D0008095982F0E9496EA20E030E048EC52E455
:1053E0000E94FBE99801AE01495F5F4F0E94DB33E9
:1053F00006C0A801BE01695F7F4F0E94CD32BE0189
:105400006F5F7F4F85E30E94642C0E94922A8091F7
:105410006F03882351F0609165037091660380915A
:10542000690390916A030E94812560960FB6F894F3
:10543000DEBF0FBECDBFDF91CF911F910F910895B9
:105440009091BC0097FFFCCF8093BB0084E88093D1
:10545000BC0008958091BC0087FFFCCF84E9809355
:10546000BC0008951F93CF93DF931F92CDB7DEB793
:10547000182F84EA8093BC0080EC69830E94202A64
:10548000812F0E94202A6981862F0E94202A0F9056
:10549000DF91CF911F910C942A2A1F920F920FB681
:1054A0000F9211240BB60F922F933F934F935F935C
:1054B0006F937F938F939F93AF93BF93EF93FF93DC
:1054C0008091730390917403811524E0920719F47D
:1054D0000E942A2A14C0FC01E858FC4F80810E94D7
:1054E000202A8091BC0081608093BC00809173036E
:1054F0009091740301969093740380937303FF91CA
:10550000EF91BF91AF919F918F917F916F915F913B
:105510004F913F912F910F900BBE0F900FBE0F90A8
:105520001F9018956091770382E00E94322A609163
:10553000760383E00E94322A6091750384E00E9422
:10554000322A84EA8093BC0088E70E94202A80E007
:105550000E94202A80E00E94202A80E10E94202AC6
:1055600080EB0E94202A8091BC0087FFFCCF84EA58
:105570008093BC0088E70E94202A80E40E94202AB1
:1055800010927403109273038091BC008160809329
:10559000BC0008958091BC0080958170089580932F
:1055A0007703609376034093750308951F93CF9319
:1055B000DF93962F969596959695C82FD0E080E824
:1055C000989FC00DD11D1124DE01A858BC4FC850B2
:1055D000DC4F677078E0761B15E0FA01208122230A
:1055E00009F4A2C030E020523109129FC001139F7C
:1055F000900D11248057994FFC012491062E01C073
:10560000220F0A94EAF73C91232B2C933196E491D4
:10561000062E01C0EE0F0A94EAF711962C9111970D
:10562000E22B1196EC931197FC013296E491062E31
:1056300001C0EE0F0A94EAF712962C911297E22B12
:105640001296EC931297FC013396E491062E01C05A
:10565000EE0F0A94EAF713962C911397E22B139608
:10566000EC931397FC0134968491062E01C0880FA9
:105670000A94EAF714969C911497892B14968C93AC
:1056800014971696662309F44CC0FA01208130E085
:1056900020523109129FC001139F900D1124805791
:1056A000994FFC01249130E0072E02C035952795D3
:1056B0000A94E2F73881322B38833196E491F0E096
:1056C000072E02C0F595E7950A94E2F729812E2B63
:1056D0002983FC013296E491F0E0072E02C0F59593
:1056E000E7950A94E2F72A812E2B2A83FC01339650
:1056F000E491F0E0072E02C0F595E7950A94E2F7F1
:105700002B812E2B2B83FC013496849190E0072E65
:1057100002C0959587950A94E2F79C81982B9C830B
:1057200026964F5F5F4F59CFDF91CF911F9108951C
:105730001F93CF93DF93962F969596959695C82FA6
:10574000D0E080E8989FC00DD11D1124DE01A8583B
:10575000BC4FC850DC4F677078E0761B15E0FA014B
:105760002081222309F4ACC030E020523109129F7D
:10577000C001139F900D11248057994FFC01249173
:10578000062E01C0220F0A94EAF720953C9132239D
:105790003C933196E491062E01C0EE0F0A94EAF78D
:1057A000E09511962C9111972E2311962C93119719
:1057B000FC013296E491062E01C0EE0F0A94EAF73E
:1057C000E09512962C9112972E2312962C931297F5
:1057D000FC013396E491062E01C0EE0F0A94EAF71D
:1057E000E09513962C9113972E2313962C931397D1
:1057F000FC0134968491062E01C0880F0A94EAF7C2
:10580000809514969C911497982314969C931497C2
:105810001696662309F451C0FA01208130E0205227
:105820003109129FC001139F900D11248057994F89
:10583000FC01249130E0072E02C0359527950A948B
:10584000E2F720953881322338833196E491F0E0F5
:10585000072E02C0F595E7950A94E2F7E0952981B5
:105860002E232983FC013296E491F0E0072E02C03A
:10587000F595E7950A94E2F7E0952A812E232A838D
:10588000FC013396E491F0E0072E02C0F595E79510
:105890000A94E2F7E0952B812E232B83FC013496AA
:1058A000849190E0072E02C0959587950A94E2F7BF
:1058B00080959C8198239C8326964F5F5F4F4FCFA6
:1058C000DF91CF911F910895AB01FB010190002062
:1058D000E9F73197E61BF70B9E2F990F9E0F682F64
:1058E00080E4891B0C94D62AAB01FB0101900020B7
:1058F000E9F73197E61BF70B9E2F990F9E0F682F44
:1059000080E4891B0C94982BBF92CF92DF92EF9288
:10591000FF920F931F93CF93DF93962F96959695B3
:105920009695C82FD0E080E8989FC00DD11D112416
:10593000DE01A858BC4FC850DC4F677078E0761B7A
:10594000FA01249185E0B82E222309F48FC030E0BB
:1059500020523109B29EC001B39E900D1124805790
:10596000994FFC01C490D12C9601062E01C0220F44
:105970000A94EAF73C91322B3C933196E490F12C57
:105980009701062E01C0220F0A94EAF711963C9166
:105990001197322B11963C931197FC01329604918A
:1059A00010E09801062E01C0220F0A94EAF7129621
:1059B0003C911297322B12963C931297FC0133962E
:1059C000249130E0F901062E01C0EE0F0A94EAF7A7
:1059D0001396FC911397FE2B1396FC931397FC01DF
:1059E0003496849190E0FC01062E01C0EE0F0A94DB
:1059F000EAF71496FC911497FE2B1496FC931497D7
:105A00001696662371F1072E02C0D594C7940A94A6
:105A1000E2F7E881EC29E883072E02C0F594E794C9
:105A20000A94E2F7E981EE29E983072E02C0159571
:105A300007950A94E2F7EA81E02BEA83072E02C079
:105A4000359527950A94E2F73B81322B3B83072E4D
:105A500002C0959587950A94E2F79C81982B9C83C8
:105A600026964F5F5F4FFA0124916ECFDF91CF9161
:105A70001F910F91FF90EF90DF90CF90BF9008950E
:105A8000BF92CF92DF92EF92FF920F931F93CF932B
:105A9000DF93962F969596959695C82FD0E080E83F
:105AA000989FC00DD11D1124DE01A858BC4FC850CD
:105AB000DC4F677078E0761BFA01249195E0B92EEF
:105AC000222309F499C030E020523109B29EC0016E
:105AD000B39E900D11248057994FFC01C490D12C96
