:100000000C945D1C0C94171F0C94481F0C94791FC2
:100010000C94AA1F0C94DB1F0C940C200C943D2014
:100020000C946E200C948E1C0C948E1C0C948E1CC4
:100030000C948E1C0C948EE80C948E1C0C948E1CCC
:100040000C948E1C0C949DC00C948E1C0C948E1CD5
:100050000C948E1C0C948E1C0C9494D30C94901CB9
:100060000C948E1C0C94279B0C948E1C0C948E1C50
:100070000C948E1C0C948E1C0C948E1C0C948E1C58
:100080000C948E1C0C948E1C0C948E1C0C948E1C48
:100090000C948E1C0C948E1C0C948E1C0C94392A7F
:1000A0000C948E1C0C948E1C0C948E1C0C948E1C28
:1000B0000C948E1C0C948E1C0C948E1C0C948E1C18
:1000C0000C948E1C0C948E1C0C948E1C0C948E1C08
:1000D0000C948E1C0C948E1C0C948E1C0C948E1CF8
:1000E0000C948E1CC21DC71DCC1DD61D4F1EE01DBD
:1000F000E81DF01DFA1D041E0E1E1D1E271E4F1E9C
:10010000311E3B1E451E6D1E701E631E671EA71E00
:10011000741E781E7E1E821E861E8C1E901E941ECD
:10012000A71E9A1E9E1EA21E102410241E242C24DC
:10013000482456246424722483243A24F0E6F3E607
:10014000FAE601E708E70FE7F0E716E71DE725E71E
:10015000F0E72DE736E73DE746E74DE754E7F0E700
:100160005BE762E76BE7F0E774E77DE77FE781E74E
:1001700083E785E787E789E78BE78DE78FE791E7F7
:1001800093E795E797E799E79BE7F0E7F0E7F0E774
:10019000F0E7F0E7F0E7F0E7F0E7F0E7F0E7F0E7A7
:1001A000F0E7F0E7F0E7F0E7F0E7F0E7F0E7F0E797
:1001B000F0E7F0E7F0E7F0E7F0E7F0E7F0E7F0E787
:1001C000F0E7F0E7F0E7F0E7F0E7F0E7F0E7F0E777
:1001D000F0E7F0E7F0E7F0E7F0E7F0E7F0E7F0E767
:1001E000F0E7F0E7F0E7F0E7F0E7F0E7F0E7F0E757
:1001F000F0E7F0E7F0E7F0E7F0E7F0E7F0E7F0E747
:10020000F0E7F0E79FE7B8E7084AD73B3BCE016E3F
:1002100084BCBFFDC12F3D6C74319ABD56833DDA5D
:100220003D00C77F11BED9E4BB4C3E916BAAAABE6C
:10023000000000803F05A84CCDB2D44EB93836A995
:10024000020C50B9918688083CA6AAAA2ABE0000D2
:1002500000803F000C943C380C9404610C94E449F9
:100260000C9456650C94023F0C948D440C94013A06
:100270000C94FC640C941D500C94F0E70C94844E88
:100280000C9488540C94F6490C94781E0C94271EF8
:100290000C94129B0C9436530C9443400C94B76509
:1002A0000C9419650C9462E70C9483240C943945E2
:1002B0000C944E360C94901E0C94CC1D0C94A71EDE
:1002C0000C94CD680C9491E70C9412470C94584F01
:1002D0000C94B8E70C94575D0C9428510C94145A64
:1002E0000C94E01D0C9495E70C9407670C945C6BE0
:1002F0000C94283F0C941DE70C94F3E60C945C25B9
:100300000C94684D0C945E210C94D03C0C94AE354A
:100310000C94E0510C949FE70C94BC500C949050BA
:100320000C94E35B0C9464240C940E1E0C94861EB7
:100330000C94C1650C942C240C9497340C94EC4EC2
:100340000C940FE70C94741E0C949A1E0C94393D77
:100350000C94DF470C944F1E0C94C35B0C945C3FD1
:100360000C949F200C949C680C9446E70C949E1E61
:100370000C9425E70C9498610C9479480C945BE7F5
:100380000C947FE70C94311E0C9443410C9468420A
:100390000C9481E70C94941E0C9472240C94E75BEB
:1003A0000C942DE70C947A5E0C94FA1D0C94DC5C92
:1003B0000C94A33E0C94773B0C9495380C942843F2
:1003C0000C9407A90C949BE70C947E1E0C94E750A8
:1003D0000C949A4F0C94631E0C949E5B0C949E3D5F
:1003E0000C94B1210C94294B0C941D1E0C94C04903
:1003F0000C945A350C94821E0C948FE70C9436E7BB
:100400000C9426370C9470640C94755A0C948435B3
:100410000C9416E70C94E81D0C94B8370C94D61D78
:100420000C940E4B0C94EC540C94F01D0C942A4E2E
:100430000C9448240C9479400C94DB440C94743A4A
:100440000C94C21D0C94A1490C94C3440C942158E3
:100450000C944E5F0C94E4630C9401E70C944B39BC
:100460000C94041E0C94734A0C94AD560C945624B0
:100470000C946BE70C94F23D0C947F700C94239BCE
:100480000C940B360C9475420C94C6280C9499E786
:100490000C948DE70C948C1E0C94FAE60C94A21E1E
:1004A0000C94533D0C946D3B0C94513C0C94643E65
:1004B0000C949D340C94A1480C94C71D0C94F048E6
:1004C0000C9410240C9497E70C94451E0C9483E72D
:1004D0000C9474E70C943DE70C9493E70C94AE3BBA
:1004E0000C94245C0C94BE3B0C94BF4B0C946D1E7E
:1004F0000C94BA360C9487490C94F0E60C9400687E
:100500000C94463F0C94374E0C94DC3A0C94701EBD
:100510000C94DC340C944DE70C9489E70C941B3557
:100520000C94335D0C94CE350C941E240C944D69C0
:100530000C94D13E0C9471370C9485E70C943A24BA
:100540000C940A5D0C94014B0C94DC410C9454E720
:100550000C9486490C9408E70C943B1E0C9487E796
:100560000C948BE70C94FF370C94671E0C947DE77A
:100570000000090A02080B0C0D0706030401000025
:10058000000000000000000000000000000000006B
:1005900000000000000000000000000011100F002B
:1005A000000000000000000000000000000000004B
:1005B0000000000000000102102020080810204068
:1005C0001020408002010201080402010102040817
:1005D00010204080804020100804020180040201A5
:1005E00080402010080402010804020101020408EE
:1005F00010204080010204081020408005050505F8
:10060000070508080808020202020A0A080804048A
:1006100004040101010101010101030303030303B8
:100620000303040707070C0C0C0C0C0C0C0C020247
:10063000020206060606060606060B0B0B0B0B0B44
:100640000B0B00002200250028002B002E0031009B
:10065000340002010000050108010B010000210027
:10066000240027002A002D00300033000101000083
:10067000040107010A015052494E54004D415445AE
:100680005249414C004D41494E54454E414E43451F
:10069000005072696E74696E6720776974682055BE
:1006A00053422E2E2E00756C74696D616B65722E2F
:1006B000636F6D2F4552303700476F20746F3A00DB
:1006C00058206F722059207377697463682073749F
:1006D00075636B00756C74696D616B65722E636F09
:1006E0006D2F4552303700476F20746F3A00582005
:1006F0006F722059207377697463682062726F6B20
:10070000656E00756C74696D616B65722E636F6DDB
:100710002F4552303600476F20746F3A005A2073CD
:10072000776974636820737475636B00756C7469A2
:100730006D616B65722E636F6D2F455230350047CA
:100740006F20746F3A005A2073776974636820626F
:10075000726F6B656E00756C74696D616B65722E7E
:10076000636F6D2F4552303400476F20746F3A002D
:100770005361666574792063697263756974007585
:100780006C74696D616B65722E636F6D2F455230AD
:100790003300476F20746F3A0048656174657220BA
:1007A0006572726F7200756C74696D616B65722E23
:1007B000636F6D2F4552303200476F20746F3A00DF
:1007C00054656D702073656E736F722042454400EE
:1007D000756C74696D616B65722E636F6D2F455218
:1007E000303100476F20746F3A0054656D7020738C
:1007F000656E736F72004552524F52202D20535434
:100800004F5050454400801506060606FEFEFEFECB
:10081000FC00000000000000FCFEFEFEFC000000EA
:100820000EFEFEFEFE0000E0FCFEFEFCE0E000002E
:1008300000CECECE000000C0C0C0C0C0C08000004E
:100840000000000080C0C080000000000000808028
:10085000C0C0C0C0C0C0C080800000000006FEFE56
:10086000FEFE0000000080C0C0C0000000000000CC
:100870008080C0C0C080808000000000C0C0C0C0B8
:100880000080C0C0C0C08000000000007FFFFFFFEC
:10089000FF80000000000080FFFFFFFFFF0000005E
:1008A00000FFFFFFFF000000FFFFFFFF0000000050
:1008B00000FFFFFF00000081F1FFFF3F0F3FFFFC43
:1008C000F0F0FCFF3F0F3FFFFEF880000000C1E1A9
:1008D000F1F17131010183FFFFFFFC000000FFFF18
:1008E000FFFF000C3EFFFFF7C301000000FCFEFF0E
:1008F0008703113131333F3F3F1E000001FFFFFFEF
:10090000FF070301010101000000000000010307CF
:10091000070F0F0F0F0F0F0F0707070F0F0600002E
:1009200000070F0F07000000070F0F07000000006F
:10093000000F0F0F0000060F0F0701000000010756
:100940000F0F070100000001070F0F06000003074B
:100950000F0F0E0E060703070F0F07000000070F0B
:100960000F0700000000030F0F0F06000000030731
:10097000070F0E0E0E0E0E0E06000000000F0F0FDA
:100980000F00000000000000507265763A2000431E
:10099000414E43454C002073656300206D696E0035
:1009A00020686F75720020686F7572730000000018
:1009B000000000005F00000007000700147F147FA4
:1009C00014242A7F2A1223130864623649552250C0
:1009D0000005030000001C2241000041221C000809
:1009E0002A1C2A0808083E080800503000000808A1
:1009F000080808006060000020100804023E514909
:100A0000453E00427F400042615149462141454BED
:100A1000311814127F1027454545393C4A49493061
:100A200001710905033649494936064949291E001D
:100A30003636000000563600000008142241141417
:100A40001414144122140800020151090632497994
:100A5000413E7E1111117E7F494949363E41414157
:100A6000227F4141221C7F494949417F09090101F7
:100A70003E414151327F0808087F00417F410020FC
:100A800040413F017F081422417F404040407F02A7
:100A900004027F7F0408107F3E4141413E7F0909E7
:100AA00009063E4151215E7F0919294646494949B7
:100AB0003101017F01013F4040403F1F2040201F86
:100AC0007F2018207F6314081463030478040361F3
:100AD0005149454300007F41410204081020414133
:100AE0007F00000402010204404040404000010237
:100AF000040020545454787F4844443838444444D3
:100B000020384444487F3854545418087E09010260
:100B1000081454543C7F0804047800447D400020AD
:100B200040443D00007F10284400417F40007C0489
:100B30001804787C0804047838444444387C14143D
:100B40001408081414187C7C0804040848545454ED
:100B500020043F4440203C4040207C1C2040201C7E
:100B60003C4030403C44281028440C5050503C44F9
:100B700064544C44000836410000007F00000041EE
:100B800036080008082A1C08081C2A0808473120D3
:100B9000462569205A25692058256920592569006C
:100BA000473238205A302058302059300062756959
:100BB0006C64706C6174652E006F662061646A7588
:100BC0007374696E6720796F7572007468726F75DF
:100BD0006768207468652070726F6365737300497D
:100BE0002077696C6C20677569646520796F750082
:100BF000434F4E54494E55450043414E43454C00EA
:100C0000473238205A3000746F207072696E742039
:100C100069742100616E642070726573732074685A
:100C20006520627574746F6E006F6E207468652045
:100C300053442D636172640053656C656374206175
:100C4000207072696E742066696C650032312F32D3
:100C500031004C45542753205052494E54005265A0
:100C60006164696E6720636172642E2E2E003231DA
:100C70002F323100796F757220556C74696D616B1C
:100C80006572322E2E2E00746861742063616D656A
:100C9000207769746800506C6561736520696E73B4
:100CA0006572742053442D636172640032312F32B7
:100CB00031006D616B652061203344205072696E94
:100CC00074210049276D207265616479206C657418
:100CD00027730032302F32310041524520594F5591
:100CE0002052454144593F0066726F6D206E6F7A05
:100CF0007A6C652E2E2E006D6174657269616C20B0
:100D00006578697473005075736820627574746FC8
:100D10006E207768656E0031392F323100434F4EB7
:100D200054494E5545004C6F6164696E67206D6192
:100D300074657269616C2E2E2E0031382F323100AD
:100D400061626F766520746865206172726F772EBC
:100D500000796F757220556C74696D616B657232C4
:100D60002C0066726F6D2074686520726561722058
:100D70006F6600496E73657274206E6577206D61D1
:100D800074657269616C0031372F323100434F4E08
:100D900054494E5545006D6174657269616C206CF3
:100DA0006F6164696E67007072696E746865616412
:100DB0002068656174696E6720666F7200506C65AB
:100DC00061736520776169742C0031362F323100F0
:100DD00053656C65637420746865206D6174657219
:100DE00069616C006974206973207573696E672E80
:100DF000006F66206D6174657269616C006B6E6F67
:100E000077732077686174206B696E64004E6F772A
:100E100020796F757220556C74696D616B657232E3
:100E20000031352F323100434F4E54494E55450065
:100E3000697320746869732072696768743F005928
:100E40006F7520686176652063686F73656E003129
:100E5000342F323100594553004E4F00206173202A
:100E60006D6174657269616C2C0031332F32310011
:100E70004D4154455249414C00556C74696D616B4C
:100E80006572322E00696E7365727420696E20740B
:100E9000686973006D6174657269616C20796F7542
:100EA0002077696C6C004E6578742C2073656C65D6
:100EB0006374207468650031322F3231005245412D
:100EC0004459004D383400473120463132303030FB
:100ED00020583131302059313000746F20696E73E1
:100EE000657274206D6174657269616C2E0074683E
:100EF00065206E6578742073746570206973007462
:100F00006865206275696C64706C617465004E6F11
:100F1000772074686174207765206C6576656C65F0
:100F2000640031312F323100434F4E54494E554504
:100F30000074686520726967687420636F726E65FB
:100F4000722E2E2E0052657065617420746869736C
:100F500020666F720031302F323100434F4E5449BA
:100F60004E554500444F4E4500746865206C6566DB
:100F70007420636F726E65722E2E2E00526570653E
:100F80006174207468697320666F7200392F323182
:100F900000434F4E54494E554500626974207265B6
:100FA00073697374616E63652E00756E74696C206D
:100FB000796F75206665656C2061006275696C6487
:100FC000706C61746520616E64206E6F7A7A6C65F6
:100FD00000536C69646520612070617065722062E5
:100FE00065747765656E00382F323100434F4E547B
:100FF000494E554500434F4E54494E5545004731E3
:1010000020462569205A300047312046256920585E
:1010100025692059256900473120462569205A3520
:1010200000746865206275696C64706C6174652019
:101030006C6576656C2E00706170657220746F202F
:1010400066696E652D74756E65006E6F77207573B9
:10105000652061207368656574206F660052657055
:10106000656174207468697320737465702C2062E4
:10107000757400372F323100434F4E54494E554559
:101080000066726F6D20746865206275696C6470AB
:101090006C6174652E0069732061206D696C6C69E8
:1010A0006D6574657220617761790073637265772D
:1010B0002074696C6C20746865206E6F7A7A6C6538
:1010C000005475726E207269676874206275696C6D
:1010D00064706C61746500362F323100434F4E549A
:1010E000494E554500473120462569205A30004772
:1010F0003120462569205825692059256900473146
:1011000020462569205A350066726F6D2074686527
:10111000206275696C64706C6174652E006973205F
:1011200061206D696C6C696D6574657220617761B1
:10113000790073637265772074696C6C20746865DC
:10114000206E6F7A7A6C65005475726E206C6566DD
:1011500074206275696C64706C61746500352F323F
:101160003100434F4E54494E5545004731204625E6
:1011700069205A30004731204625692058256920CA
:1011800059256900473120462569205A3500667285
:101190006F6D20746865206275696C64706C617431
:1011A000652E0061206D696C6C696D6574657220D7
:1011B0006177617900756E74696C20746865206E62
:1011C0006F7A7A6C6520697300526F746174652060
:1011D00074686520627574746F6E00342F3231004C
:1011E000434F4E54494E554500434F4E54494E557A
:1011F0004500473120462569205A25692058256930
:10120000205925690047323820583020593000676E
:101210006F696E6720746F20646F2074686174203A
:101220006E6F772E0061646A7573746D656E74738A
:101230002C20776520617265007765206E65656496
:1012400020746F20646F20736F6D65004166746554
:1012500072207472616E73706F72746174696F6EF4
:1012600000332F323100434F4E54494E554500470D
:101270003120462569205A256900473238205A30E6
:1012800000612066697273742072756E2077697AC6
:101290006172642E0077616C6B20796F75207468C1
:1012A000726F756768006669727374207374617217
:1012B00074757020492077696C6C004265636175B4
:1012C00073652074686973206973207468650032DF
:1012D0002F323100434F4E54494E554500627574CC
:1012E000746F6E20746F20636F6E74696E75650025
:1012F000556C74696D616B657221205072657373F2
:10130000207468650073746172747570206F662054
:10131000796F75720057656C636F6D6520746F200F
:1013200074686520666972737400312F323100432E
:101330004F4E54494E5545004300432F00436C69BE
:10134000636B20746F2072657475726E00427569EC
:101350006C64706C6174652074656D702E3A003F2A
:101360003F3F00466163746F7279207265736574E4
:101370000052756E74696D652073746174730056E4
:10138000657273696F6E004D6F74696F6E2073655F
:101390007474696E67730052657472616374696F07
:1013A0006E2073657474696E67730053657420668C
:1013B000616E207370656564004D6F7665206D61A8
:1013C00074657269616C20283229004D6F76652042
:1013D0006D6174657269616C2028312900496E73F2
:1013E000657274206D6174657269616C0052616927
:1013F0007365206275696C64706C617465004C6F14
:10140000776572206275696C64706C617465004800
:101410006F6D652068656164004865617475702052
:101420006275696C64706C6174650048656174759F
:1014300070207365636F6E64206E6F7A7A6C6500DE
:10144000486561747570206669727374206E6F7A76
:101450007A6C65004C45442073657474696E6773DB
:10146000003C2052455455524E00566572733A5F07
:10147000322E310025004300432F004300432F004C
:101480004300432F0025003F3F3F0020476C6F770C
:10149000207768656E20646F6E6500204F6E207740
:1014A00068696C65207072696E74696E67002041AE
:1014B0006C77617973204F66660020416C776179A3
:1014C00073204F6E004272696768746E65737300B3
:1014D0003C2052455455524E002500250042726969
:1014E0006768746E657373004C4544004300432F76
:1014F00000436C69636B20746F2072657475726E43
:10150000004E6F7A7A6C652074656D7065726174D7
:101510007572653A00473238205830205930004300
:1015200000432F00436C69636B20746F20726574F5
:1015300075726E00526F7461746520746F206578E7
:101540007472756465004E6F7A7A6C652074656D8F
:1015500070657261747572653A003F3F3F00526575
:10156000747261637420737065656400526574728F
:10157000616374206C656E677468003C205245544A
:1015800055524E006D6D2F736563006D6D006D6D6E
:101590002F736563005265747261637420737065A4
:1015A0006564006D6D0052657472616374206C65D2
:1015B0006E6774680052455452414354494F4E007F
:1015C0003F3F3F0043757272656E7420450043755E
:1015D0007272656E74205A0043757272656E742063
:1015E000582F59004D6178207370656564205A004A
:1015F0004D61782073706565642059004D617820D5
:101600007370656564205800582F59204A65726BC5
:1016100000416363656C65726174696F6E003C20A4
:1016200052455455524E006D41006D41006D4100D0
:101630006D6D2F736563006D6D2F736563006D6D48
:101640002F736563006D6D2F736563006D6D2F7370
:1016500065635E32006D410043757272656E742081
:1016600045006D410043757272656E74205A006DBD
:10167000410043757272656E7420582F59006D6D6C
:101680002F736563004D6178207370656564205A1F
:10169000006D6D2F736563004D6178207370656513
:1016A000642059006D6D2F736563004D6178207360
:1016B000706565642058006D6D2F73656300582F49
:1016C00059204A65726B0030306D6D2F7365635E13
:1016D0003200416363656C65726174696F6E004DC1
:1016E0004F54494F4E00566572733A5F322E3100A7
:1016F0004A756E20323320323031362031333A325F
:10170000353A34360052657475726E006D00204DA6
:1017100061743A003A005072696E74696E673A00FB
:101720003A004D616368696E65206F6E20666F7266
:101730003A0052657475726E00746F20646566615C
:10174000756C743F005265736574206576657279B7
:101750007468696E6700594553004E4F0025004676
:10176000616E2073706565640047312046256920ED
:1017700058256920592569004732382058302059AA
:1017800030004731205A343000473238205A300078
:10179000473238205A3000473238205830205930EC
:1017A00000473238205A3000414456414E434544A8
:1017B000004255494C442D7C504C41544500414415
:1017C00056414E4345440052455455524E004350F5
:1017D0004500435045004350450055504554004393
:1017E00050450041425300504C4100250046616E77
:1017F0003A2000430043002500466C6F773A006DA5
:101800006D00636F6D6573206F757420746865205B
:101810006E6F7A7A6C6500576169742074696C6CBC
:10182000206D6174657269616C00524541445900D4
:1018300043414E43454C00466F7277617264696E56
:1018400067206D6174657269616C0061626F7665B5
:1018500020746865206172726F772E00796F7572DF
:10186000206D616368696E652C0066726F6D20740F
:101870006865206261636B73696465206F66004907
:101880006E73657274206E6577206D617465726920
:10189000616C0052454144590043414E43454C0060
:1018A0006D6174657269616C20696E7365727469CB
:1018B0006F6E00436F6F6C696E67207072696E7433
:1018C0006865616420666F720048656174696E675F
:1018D000207072696E746865616420666F72004D75
:1018E0004154455249414C0052656D6F7665206DFB
:1018F0006174657269616C0052454144590043410D
:101900004E43454C00526576657273696E67206D73
:101910006174657269616C00666F72206D617465D7
:101920007269616C2072656D6F76616C00486561EB
:1019300074696E67207072696E74686561640047CF
:10194000323820583020593000496D706F72742041
:1019500066726F6D205344004578706F7274207406
:101960006F20534400437573746F6D697A65003C52
:101970002052455455524E004C6F61647320616C87
:101980006C206D6174657269616C7300536176657A
:101990007320616C6C206D6174657269616C730099
:1019A0004D6F646966792074686520736574746925
:1019B0006E677300250046616E3A200043004300C5
:1019C0002500466C6F773A006D6D003F3F3F005336
:1019D000746F726520617320707265736574004660
:1019E0006C6F7720250046616E004469616D6574F7
:1019F000657200486561746564206275696C647025
:101A00006C6174650054656D7065726174757265A2
:101A1000003C2052455455524E00250025006D6D66
:101A200000430043004E6577207072657365740053
:101A30003C2052455455524E005052455345545344
:101A40000025004D6174657269616C20666C6F776A
:101A500000250046616E207370656564006D6D0041
:101A60004D6174657269616C204469616D6574656E
:101A7000720043004275696C64706C617465205437
:101A8000656D702E00430054656D706572617475EC
:101A90007265004D4154455249414C00696E204DDC
:101AA0004154455249414C2E54585400746F20748F
:101AB00068652053442063617264005361766564F5
:101AC000206D6174657269616C73004F6B000A0A66
:101AD000006469616D657465723D000A00666C6F33
:101AE000773D000A0066616E5F73706565643D0056
:101AF0000A006265645F74656D7065726174757209
:101B0000653D000A0074656D70657261747572657B
:101B10003D000A006E616D653D005B6D617465722C
:101B200069616C5D0A0052656164696E672063617A
:101B300072642E2E2E00506C6561736520696E7381
:101B40006572742063617264004E6F2053442D43AC
:101B5000415244210066726F6D20746865205344C1
:101B60002063617264004C6F61646564206D617410
:101B7000657269616C73004F6B006469616D6574B7
:101B8000657200666C6F770066616E5F7370656585
:101B900064006265645F74656D706572617475720E
:101BA000650074656D7065726174757265006E6153
:101BB0006D65005B6D6174657269616C5D00466F97
:101BC000756E64206F6E20636172642E004E6F200C
:101BD0006578706F72742066696C65005265616427
:101BE000696E6720636172642E2E2E00506C6561F1
:101BF000736520696E736572742063617264004E50
:101C00006F2053442D434152442100666F7220736C
:101C100065636F6E64617279206E6F7A7A6C6500AD
:101C2000666F72207072696D617279206E6F7A7A58
:101C30006C650053656C6563746564206D617465E3
:101C40007269616C3A004F4B004D41544552494115
:101C50004C004731204625692058256920592569BF
:101C600000473238205830205930004348414E4711
:101C7000450053455454494E47530052455455521C
:101C80004E005052494D4152597C4E4F5A5A4C4584
:101C9000005345434F4E444152597C4E4F5A5A4C83
:101CA000450052455455524E004300432F00436CAB
:101CB00069636B20746F2072657475726E004E6F6D
:101CC0007A7A6C65322074656D70657261747572B4
:101CD000653A004300432F00436C69636B20746FC7
:101CE0002072657475726E004E6F7A7A6C6520741E
:101CF000656D70657261747572653A0050726570D9
:101D00006172696E6720746F207072696E743A0038
:101D100048656174696E672075702E2E2E005455CB
:101D20004E450041424F5254004C45442042726996
:101D30006768746E65737300526574726163746969
:101D40006F6E004D6174657269616C20666C6F77AF
:101D50002032004D6174657269616C20666C6F772A
:101D60000046616E207370656564004275696C643D
:101D7000706C6174652074656D702E0054656D70B3
:101D80006572617475726520320054656D7065729C
:101D900061747572650053706565640041626F72AD
:101DA00074003C2052455455524E00250025002514
:101DB0000025004300430043004300430043002547
:101DC0000041626F727420746865207072696E746D
:101DD0003F00594553004E4F003F3F3F0045787448
:101DE0007275646572206368616E6765206C656EEC
:101DF000005265747261637420737065656400528B
:101E0000657472616374206C656E677468003C2051
:101E100052455455524E006D6D006D6D2F736563C4
:101E2000006D6D006D6D004578747275646572208B
:101E30006368616E6765006D6D2F73656300526541
:101E40007472616374207370656564006D6D005217
:101E5000657472616374206C656E677468005245C6
:101E60005452414354494F4E0025004272696768FD
:101E7000746E6573730025004D6174657269616CE1
:101E800020666C6F7720320025004D6174657269A1
:101E9000616C20666C6F7700250046616E20737060
:101EA0006565640025005072696E74207370656505
:101EB000640054554E450054696D65206C65667428
:101EC0000054696D65206C65667420756E6B6E6F6D
:101ED000776E004300430048656174696E67206255
:101EE00075696C64706C61746500430043004865FB
:101EF0006174696E67005072696E74696E673A004A
:101F000054554E4500504155534500524553554D8B
:101F1000457C5052494E54004348414E47457C4D04
:101F20004154455249414C0054554E45004D3834BA
:101F30000047323800473238205A300047323820C4
:101F4000583020593000473120462569204530005F
:101F500047393220452569004D343031004D363047
:101F600031205835205935205A2569204C256900E3
:101F7000746865207072696E742E00596F752063E5
:101F8000616E2072656D6F7665005072696E7420A7
:101F900066696E6973686564004241434B20544F23
:101FA000204D454E550043004320005072696E7429
:101FB000657220636F6F6C696E6720646F776E0067
:101FC0004241434B20544F204D454E55006F6620F3
:101FD0007072696E74696E67206172656100547217
:101FE000696564207072696E74696E67206F7574BC
:101FF000004552524F523A0052455455524E2054C9
:102000004F204D41494E00756C74696D616B65726E
:102010002E636F6D2F4552303800476F20746F3A32
:102020000072656164696E672053442D6361726458
:1020300021004572726F72207768696C65005245A5
:102040005455524E20544F204D41494E0066726FF8
:102050006D2074686520736C696365722E0073650A
:102060007474696E67207769746820736574746925
:102070006E67006F76657272696465206D61636872
:10208000696E6500546869732066696C65207769BC
:102090006C6C00434F4E54494E55450043414E43EE
:1020A000454C003C204241434B003C205245545596
:1020B000524E0053442043415244004731204631A0
:1020C0003230303020583520593130004732380016
:1020D0003B464C41564F523A556C746947436F64C6
:1020E00065003B464C41564F523A556C7469474324
:1020F0006F6465004E6F2066696C657320666F754E
:102100006E6421004F4B004F4B0052656164696E55
:102110006720636172642E2E2E00506C65617365BA
:1021200020696E736572742063617264004E6F2063
:1021300053442D4341524421004E6F20696E666F17
:1021400020617661696C61626C65006D006D006D87
:10215000006D004D6174657269616C3A20005469CC
:102160006D653A20003B4D4154455249414C323A4D
:10217000003B4D4154455249414C3A003B54494D76
:10218000453A00466F6C646572004D323138204923
:102190006E76616C6964206578747275646572200E
:1021A000004D31303920496E76616C696420657864
:1021B00074727564657220004D31303520496E7639
:1021C000616C696420657874727564657220004D75
:1021D00031303420496E76616C69642065787472A0
:1021E0007564657220005072696E74657220737434
:1021F0006F707065642064756520746F20657272FD
:102200006F72732E2046697820746865206572723B
:102210006F7220616E6420757365204D39393920E5
:10222000746F20726573746172742E202854656D0A
:10223000706572617475726520697320726573656B
:10224000742E205365742069742061667465722051
:1022500072657374617274696E6729005072696E79
:102260007465722068616C7465642E206B696C6C97
:1022700028292063616C6C656421006F6B005265D6
:1022800073656E643A2000456E6473746F702073DA
:1022900074696C6C20707265737365642061667418
:1022A0006572206261636B696E67206F66662E20BF
:1022B000456E6473746F7020737475636B3F004573
:1022C0006E6473746F70206E6F74207072657373B8
:1022D000656420616674657220686F6D696E672041
:1022E000646F776E2E20456E6473746F7020627217
:1022F0006F6B656E3F00456E6473746F70206E6F18
:1023000074207072657373656420616674657220F1
:10231000686F6D696E6720646F776E2E20456E64FE
:1023200073746F702062726F6B656E3F0022005590
:102330006E6B6E6F776E20636F6D6D616E643A20A9
:102340002200456C656374726F6E6963735F7465B8
:10235000737400416374697665204578747275649E
:1023600065723A2000496E76616C69642065787404
:10237000727564657200540020423A300020423A7F
:1023800031006F6B20523A0020633A0020643A001B
:1023900020693A0020703A006F6B002C0020004842
:1023A0006F74656E64206F6666736574733A00229D
:1023B00000556E6B6E6F776E20636F6D6D616E642E
:1023C0003A2022006F70656E0054524947474552CB
:1023D0004544007A5F6D61783A20006F70656E0049
:1023E00054524947474552454400795F6D61783AF8
:1023F00020006F70656E005452494747455245446E
:1024000000785F6D696E3A20005265706F72746972
:102410006E6720656E6473746F7020737461747579
:1024200073005A3A00593A0020436F756E74205871
:102430003A2000453A005A3A00593A00583A0046C4
:1024400049524D574152455F4E414D453A4D61729B
:102450006C696E20556C74696D616B6572323B20DE
:10246000537072696E7465722F6772626C206D6151
:102470007368757020666F722067656E36204649F6
:10248000524D574152455F55524C3A687474703AF8
:102490002F2F6769746875622E636F6D2F556C748A
:1024A000696D616B65722050524F544F434F4C5FC2
:1024B00056455253494F4E3A312E30204D414348F4
:1024C000494E455F545950453A556C74696D616B7E
:1024D00065722045585452554445525F434F554EFE
:1024E000543A320A0020423A0020453A00543A0059
:1024F0003F0020573A0020453A00543A002042401D
:102500003A0020403A00202F0020423A00202F00BD
:102510006F6B20543A002569206D696E2C20256967
:102520002073656300456E642066696C65206C6984
:10253000737400426567696E2066696C65206C691A
:10254000737400256920686F757273202569206D8A
:10255000696E7574657300446F6E65207072696E84
:1025600074696E672066696C65005072696E746587
:10257000722073746F707065642064756520746F69
:10258000206572726F72732E2046697820746865B8
:10259000206572726F7220616E6420757365204DC4
:1025A00039393920746F20726573746172742E200A
:1025B0002854656D70657261747572652069732049
:1025C00072657365742E205365742069742061668A
:1025D0007465722072657374617274696E67290024
:1025E0006F6B004E6F204C696E65204E756D626595
:1025F00072207769746820636865636B73756D2CEE
:10260000204C617374204C696E653A20004E6F2037
:10261000436865636B73756D2077697468206C69B6
:102620006E65206E756D6265722C204C617374202E
:102630004C696E653A2000636865636B73756D2045
:102640006D69736D617463682C204C617374204CE8
:10265000696E653A20004C696E65204E756D626545
:1026600072206973206E6F74204C617374204C6902
:102670006E65204E756D6265722B312C204C617336
:1026800074204C696E653A20004D31313000446F42
:102690006E6520736176696E672066696C652E00D1
:1026A0006F6B004D3239002020506C616E6E657288
:1026B00042756666657242797465733A20002046F9
:1026C000726565204D656D6F72793A20004A756EAE
:1026D000203233203230313600436F6D70696C65C3
:1026E000643A2000566572733A5F322E3100207CC6
:1026F00020417574686F723A20004A756E2032333B
:1027000020323031362031333A32353A34360020F7
:102710004C61737420557064617465643A200031B3
:102720002E302E30004D61726C696E200020536F88
:102730006674776172652052657365740020576115
:10274000746368646F672052657365740020427219
:102750006F776E206F757420526573657400204525
:10276000787465726E616C20526573657400506F89
:102770007765725570007374617274002200656E23
:10278000717565696E672022002200656E7175653E
:10279000696E67202200FF01010000E0400000E0B8
:1027A000400000E040000066430000664300006611
:1027B000430000000000006643000066430000661E
:1027C0004300006643000066430000000000000074
:1027D00000000000006563686F3A004572726F7216
:1027E0003A0000002110422063308440A550C660AA
:1027F000E770088129914AA16BB18CC1ADD1CEE1BE
:10280000EFF13112100273325222B5529442F77234
:10281000D662399318837BB35AA3BDD39CC3FFF30D
:10282000DEE36224433420040114E664C774A44444
:1028300085546AA54BB528850995EEE5CFF5ACC55D
:102840008DD55336722611163006D776F666955614
:10285000B4465BB77AA719973887DFF7FEE79DD7AD
:10286000BCC7C448E5588668A778400861180228A4
:102870002338CCC9EDD98EE9AFF9488969990AA9FD
:102880002BB9F55AD44AB77A966A711A500A333A74
:10289000122AFDDBDCCBBFFB9EEB799B588B3BBB4D
:1028A0001AABA66C877CE44CC55C222C033C600C04
:1028B000411CAEED8FFDECCDCDDD2AAD0BBD688D9D
:1028C000499D977EB66ED55EF44E133E322E511E54
:1028D000700E9FFFBEEFDDDFFCCF1BBF3AAF599FED
:1028E000788F8891A981CAB1EBA10CD12DC14EF18D
:1028F0006FE18010A100C230E320045025404670F3
:102900006760B9839893FBA3DAB33DC31CD37FE31D
:102910005EF3B1029012F322D23235421452776242
:102920005672EAB5CBA5A89589856EF54FE52CD5ED
:102930000DC5E234C324A014810466744764245492
:102940000544DBA7FAB79987B8975FE77EF71DC7FD
:102950003CD7D326F2369106B016576676761546E2
:1029600034564CD96DC90EF92FE9C899E9898AB94D
:10297000ABA94458654806782768C018E108823832
:10298000A3287DCB5CDB3FEB1EFBF98BD89BBBAB5D
:102990009ABB754A545A376A167AF10AD01AB32A82
:1029A000923A2EFD0FED6CDD4DCDAABD8BADE89DAD
:1029B000C98D267C076C645C454CA23C832CE01CD2
:1029C000C10C1FEF3EFF5DCF7CDF9BAFBABFD98F3D
:1029D000F89F176E367E554E745E932EB23ED10E22
:1029E000F01E7C3C3E5E2B3D3F2F5B5D3B2C2A2244
:1029F0005C0020746F6F206C6F6E67206578747256
:102A00007573696F6E2070726576656E74656400AB
:102A100020636F6C6420657874727573696F6E20C3
:102A200070726576656E746564006563686F3A0000
:102A3000205A3A0020593A0020583A00656E6473D3
:102A4000746F7073206869743A200024F4D4305095
:102A5000C38E20C2A24017828B7011127A910D8111
:102A60006CD90AA861E108C7586607615143061E80
:102A70004B5D05C145A7041A411104093D98037136
:102A80003931034036DB0265339102D43054028081
:102A90002E1D02632CEE01752AC501B028A001107D
:102AA0002781018F2564012B244B01E0223401ACE6
:102AB000211F018D200D01801FFC00841EED009759
:102AC0001DDF00B81CD200E61BC600201BBC006442
:102AD0001AB200B219A8000A19A0006A189900D108
:102AE00017910040178B00B516840031167E00B395
:102AF0001579003A157300C7146F0058146A00EE78
:102B00001366008813630025135E00C7125B006C18
:102B100012570015125400C111510070114F0021BD
:102B2000114B00D61049008D10470046104400029A
:102B3000104200C00F4000800F3E00420F3C0006D4
:102B40000F3B00CB0E3800930E37005C0E3500278C
:102B50000E3400F30D3200C10D3100900D300060D5
:102B60000D2E00320D2D00050D2C00D90C2B00AEC2
:102B70000C2900850C29005C0C2700350C27000E61
:102B80000C2600E80B2400C40B2400A00B23007DBE
:102B90000B23005A0B2100390B2100180B2000F8E1
:102BA0000A1F00D90A1E00BB0A1E009D0A1D0080D4
:102BB0000A1D00630A1C00470A1B002C0A1B001197
:102BC0000A1A00F7091A00DD091900C4091900AB37
:102BD000091900920917007B091800630917004CB6
:102BE00009160036091600200916000A091500F515
:102BF000081500E0081400CC081400B8081400A45C
:102C0000081400900813007D0812006B0813005888
:102C1000081200460812003408110023081100129F
:102C200008110001081100F0071000E0071000D0A3
:102C3000071000C0071000B0070F00A10710009197
:102C4000070E0083070F0074070F0065070E00577B
:102C5000070E0049070E003B070D002E070E00204F
:102C6000070D0013070D0006070D00F9060C00ED17
:102C7000060D00E0060C00D4060C00C8060C00BCD3
:102C8000060C00B0060C00A4060B0099060C008D83
:102C9000060B0082060B0077060B006C060B00612A
:102CA000060A0057060B004C060A0042060A0038C6
:102CB000060A002E060A0024060A001A060A001058
:102CC00006090007060A00FD050900F4050900EBE6
:102CD000050900E2050900D9050900D0050900C76A
:102CE000050900BE050900B5050800AD050800A5E9
:102CF0000509009C050800940508008C050800845F
:102D00000508007C050800740508006C05070065CF
:102D10000508005D050700560508004E0507004739
:102D20000507004005080038050700310507002A9F
:102D3000050700230507001C050600160507000F00
:102D40000507000805060002050700FB040600F55C
:102D5000040700EE040600E8040600E2040700DBB6
:102D6000040600D5040600CF040600C9040600C30B
:102D7000040600BD040600B7040600B1040500AC5B
:102D8000040600A6040600A00405009B04060095A6
:102D9000040500900406008A0405008504050080EF
:102DA0000406007A04050075040500700405006B34
:102DB00004050066040500610405005C0405005775
:102DC000040500520405004D0405004804050043B5
:102DD0000405003E0404003A0405003504050030F3
:102DE0000404002C04050027040400230405001E2D
:102DF0000404001A04040016040500110404000D64
:102E0000040400090405000404040000040400FC98
:102E1000030400F8030400F4030400F0030400ECCE
:102E2000030400E8030400E4030400E0030400DCFE
:102E3000030400D8030400D4030400D0030400CC2E
:102E4000030400C8030300C503030024F404D920CD
:102E50001BC40C5C0E9804C4095F0265077101F481
:102E600005F900FB04B30048048700C1036900585A
:102E700003550003034500BE023A008402310053AB
:102E8000022A002902250004022000E4011C00C8D7
:102E9000011900AF0117009801140084011300719B
:102EA0000110006101100051010E0043010D0036B8
:102EB000010B002B010B0020010B00150109000C78
:102EC00001090003010800FB000800F3000800EB03
:102ED000000700E4000600DE000600D8000600D26D
:102EE000000600CC000500C7000500C2000500BDBB
:102EF000000400B9000400B5000400B1000400ADF6
:102F0000000400A9000400A5000300A20003009F24
:102F10000004009B0003009800030095000200934A
:102F2000000300900003008D0002008B0003008866
:102F30000002008600020084000300810002007F7E
:102F40000002007D0002007B000200790002007791
:102F5000000100760002007400020072000100719E
:102F60000002006F0002006D0001006C0002006AA8
:102F700000010069000200670001006600010065B1
:102F800000010064000200620001006100010060B5
:102F90000001005F0002005D0001005C0001005BB9
:102FA0000001005A000100590001005800010057BB
:102FB00000010056000100550001005400010053BB
:102FC00000000053000100520001005100010050B8
:102FD0000001004F0001004E0000004E0001004DB6
:102FE0000001004C0001004B0000004B0001004AB2
:102FF00000010049000100480000004800010047AE
:1030000000010046000000460001004500000045A8
:1030100000010044000100430000004300010042A1
:10302000000000420001004100000041000100409A
:103030000001003F0000003F0001003E0000003E94
:103040000001003D0000003D0001003C0000003C8C
:103050000000003C0001003B0000003B0001003A82
:103060000000003A0001003900000039000100387A
:103070000000003800000038000100370000003771
:103080000001003600000036000000360001003567
:10309000000000350000003500010034000000345D
:1030A0000000003400010033000000330000003352
:1030B0000001003200000032000000320001003147
:1030C000000000310000003100010030000000303D
:1030D000000000300001002F0000002F0000002F32
:1030E0000000002F0001002E0000002E0000002E26
:1030F0000001002D0000002D0000002D0000002D1B
:103100000001002C0000002C0000002C0000002C0E
:103110000001002B0000002B0000002B0000002B02
:103120000001002A0000002A0000002A0000002AF6
:1031300000010029000000290000002900000029EA
:1031400000000029000100280000002800000028DD
:1031500000000028000000280001002700000027D0
:1031600000000027000000270000002700010026C3
:1031700000000026000000260000002600000026B7
:1031800000010025000000250000002500000025AA
:10319000000000250000002500010024000000249C
:1031A000000000240000002400000024000100238F
:1031B0000000002300000023000000230000002383
:1031C0000000002300000023000100220000002274
:1031D0000000002200000022000000220000002267
:1031E000000100210000002100000021000000215A
:1031F000000000210000002100000021000100204B
:10320000000000200000002000000020000000203E
:103210000000002000000020000000200001001F2E
:103220000000001F0000001F0000001F0000001F22
:103230000000001F0000001F0001001E0000001E13
:103240000000001E0000001E0000006563686F3A69
:10325000003A2045787472756465722073776974DA
:1032600063686564206F66662E204D494E54454D57
:1032700050207472696767657265642021003A2086
:1032800045787472756465722073776974636865D4
:1032900064206F66662E204D415854454D50207471
:1032A000726967676572656420210054656D706599
:1032B0007261747572652068656174656420626509
:1032C00064207377697463686564206F66662E2076
:1032D0004D415854454D5020747269676765726559
:1032E0006420212100202D20496E76616C696420C4
:1032F0006578747275646572206E756D6265722092
:103300002100504944204175746F74756E652066C4
:10331000696E6973686564212050757420746865EE
:10332000204B702C204B6920616E64204B6420631D
:103330006F6E7374616E747320696E746F20436F67
:103340006E66696775726174696F6E2E68005049A8
:1033500044204175746F74756E65206661696C6593
:1033600064212074696D656F75740020403A006FA8
:103370006B20543A006F6B20423A00504944204180
:1033800075746F74756E65206661696C6564212063
:1033900054656D706572617475726520746F6F200D
:1033A0006869676800204B643A2000204B693A2026
:1033B00000204B703A200020436C617369632050F9
:1033C000494420002054753A2000204B753A2000D3
:1033D000206D61783A2000206D696E3A20002064EB
:1033E0003A200020626961733A200050494420412C
:1033F00075746F74756E65207374617274005049D2
:1034000044204175746F74756E65206661696C65E2
:10341000642E204261642065787472756465722040
:103420006E756D6265722E004572726F723A0000A1
:1034300000000018070100A807140030082800B891
:10344000083C0038095000C0096400480A7800C8E8
:103450000A8C00480BA000C80BB400480CC800C878
:103460000CDC00400DF000C00D0401380E1801B056
:103470000E2C01280F4001A00F540118106801887C
:10348000107C01001190013013F4014815580240DE
:1034900017BC0228192003F01A8403A81CE8034073
:1034A0001E4C044D383420582059205A20450043E2
:1034B000616E6E6F7420656E7465722073756264E0
:1034C00069723A20004D3234004D323320257300AA
:1034D0006175746F25692E67006572726F7220774F
:1034E000726974696E6720746F2066696C65004349
:1034F000617264206572726F723A004E6F7420536D
:1035000044207072696E74696E67002F0053442006
:103510007072696E74696E67206279746520002E1E
:103520000044656C6574696F6E206661696C6564E2
:103530002C2046696C653A200046696C65206465FC
:103540006C657465643A002E006F70656E2066616C
:10355000696C65642C2046696C653A200057726975
:1035600074696E6720746F2066696C653A20002E5E
:10357000006F70656E206661696C65642C20466919
:103580006C653A20002E006F70656E206661696C74
:1035900065642C2046696C653A200046696C65209C
:1035A00073656C6563746564002053697A653A20BD
:1035B0000046696C65206F70656E65643A20002E68
:1035C000006F70656E206661696C65642C204669C9
:1035D0006C653A200053442063617264206F6B0075
:1035E0006F70656E526F6F74206661696C65640000
:1035F000766F6C756D652E696E6974206661696C95
:10360000656400534420696E6974206661696C00CA
:1036100043616E6E6F74206F70656E2073756264A7
:103620006972006563686F3A004572726F723A00A2
:1036300048617264636F6465642044656661756C9B
:10364000742053657474696E6773204C6F61646590
:103650006400563031300053746F726564207365B6
:103660007474696E677320726574726965766564D7
:10367000002044002049002020204D3330312050CC
:10368000005049442073657474696E67733A002072
:103690005A0020590020204D323036205800486F03
:1036A0006D65206F666673657420286D6D293A001C
:1036B000204500205A0020580020420020540020BD
:1036C000204D323035205300416476616E6365646D
:1036D000207661726961626C65733A20533D4D6971
:1036E0006E20666565647261746520286D6D2F7348
:1036F000292C20543D4D696E2074726176656C20D2
:10370000666565647261746520286D6D2F73292C60
:1037100020423D6D696E696D756D207365676D65DD
:103720006E742074696D6520286D73292C20583DB6
:103730006D6178696D756D205859206A65726B20CE
:10374000286D6D2F73292C20205A3D6D6178696D8D
:10375000756D205A206A65726B20286D6D2F732954
:103760002C2020453D6D6178696D756D2045206A7E
:1037700065726B20286D6D2F732900205400202066
:103780004D323034205300416363656C657261745F
:10379000696F6E3A20533D616363656C6572617455
:1037A000696F6E2C20543D72657472616374206180
:1037B0006363656C65726174696F6E0020450020FB
:1037C0005A0020590020204D3230312058004D61E0
:1037D00078696D756D20416363656C6572617469AC
:1037E0006F6E20286D6D2F7332293A00204500201E
:1037F0005A0020590020204D3230332058004D61AE
:1038000078696D756D206665656472617465732095
:10381000286D6D2F73293A00204500205A00205949
:103820000020204D39322058005374657073207089
:10383000657220756E69743A0053657474696E67B9
:10384000732053746F726564006563686F3A005447
:103850004553540D0A000D0A00556E6B6E6F776E5E
:1038600020636F6D6D616E643A20000D0A003F00A9
:10387000566572733A5F322E3100024E414E494E08
:10388000495459494E46CDCCCC3D0AD7233C17B7B5
:10389000D13877CC2B329595E6241FB14F0A000022
:1038A00020410000C84200401C4620BCBE4CCA1B40
:1038B0000E5AAEC59D74129B239B11241FBECFEFE1
:1038C000D1E2DEBFCDBF00E00CBF13E0A0E0B2E06C
:1038D000E4E9FAEE01E00BBF02C007900D92A433B9
:1038E000B107D9F729E1A4E3B3E001C01D92A43EDA
:1038F000B207E1F718E3C8EBD8E300E006C022976F
:103900000109FE010BBF0E9414EEC63BD10780E007
:103910000807A9F70E94EEE80C9438F50C94000013
:103920001F920F920FB60F9211242F933F938F93F4
:103930009F93AF93BF938091350390913603A091ED
:103940003703B09138033091340323E0230F2D3730
:1039500020F40196A11DB11D05C026E8230F029693
:10396000A11DB11D2093340380933503909336033A
:10397000A0933703B09338038091390390913A03B1
:10398000A0913B03B0913C030196A11DB11D809312
:10399000390390933A03A0933B03B0933C03BF9148
:1039A000AF919F918F913F912F910F900FBE0F90EC
:1039B0001F9018952FB7F8946091350370913603D6
:1039C00080913703909138032FBF08953FB7F89443
:1039D0008091390390913A03A0913B03B0913C034D
:1039E00026B5A89B05C02F3F19F00196A11DB11D5A
:1039F0003FBF6627782F892F9A2F620F711D811D77
:103A0000911D42E0660F771F881F991F4A95D1F7D5
:103A10000895CF92DF92EF92FF92CF93DF936B01E5
:103A20007C010E94E61CEB01C114D104E104F10405
:103A300079F00E94E61C6C1B7D0B683E7340A0F37E
:103A400081E0C81AD108E108F108C851DC4FECCF79
:103A5000DF91CF91FF90EF90DF90CF900895019785
:103A6000009739F0880F991F880F991F02970197C7
:103A7000F1F70895789484B5826084BD84B581603F
:103A800084BD85B5826085BD85B5816085BDEEE666
:103A9000F0E0808181608083E1E8F0E01082808145
:103AA00082608083808181608083E0E8F0E08081B3
:103AB00081608083E1EBF0E0808184608083E0EBD3
:103AC000F0E0808181608083E1E9F0E080818260C4
:103AD0008083808181608083E0E9F0E08081816083
:103AE0008083E1EAF0E08081826080838081816070
:103AF0008083E0EAF0E0808181608083E1E2F1E0B0
:103B0000808182608083808181608083E0E2F1E057
:103B1000808181608083EAE7F0E080818460808337
:103B200080818260808380818160808380818068E1
:103B300080831092C10008951F93CF93DF93182FB5
:103B4000EB0161E00E94A81E209711F460E004C020
:103B5000CF3FD10539F461E0812FDF91CF911F91E3
:103B60000C94E11EE12FF0E0E059FA4F449150E04F
:103B7000FA013197E131F10508F091C0EE58FF4F9D
:103B80000C94E5ED84B5806884BDC7BD8DC084B557
:103B9000806284BDC8BD88C08091800080688093A9
:103BA0008000D0938900C09388007EC080918000FF
:103BB000806280938000D0938B00C0938A0074C091
:103BC0008091B00080688093B000C093B3006CC057
:103BD0008091B00080628093B000C093B40064C054
:103BE00080919000806880939000D0939900C0935A
:103BF00098005AC080919000806280939000D0938A
:103C00009B00C0939A0050C0809190008860809380
:103C10009000D0939D00C0939C0046C08091A0006E
:103C200080688093A0008091A0008F7B8093A0008B
:103C3000D093A900C093A80037C08091A0008062F3
:103C40008093A000D093AB00C093AA002DC08091B8
:103C5000A00088608093A000D093AD00C093AC001A
:103C600023C080912001806880932001D093290196
:103C7000C093280119C080912001806280932001A7
:103C8000D0932B01C0932A010FC08091200188603E
:103C900080932001D0932D01C0932C0105C0C03822
:103CA000D1050CF058CF52CFDF91CF911F910895DD
:103CB00090E0FC013197E131F10508F048C0ED5783
:103CC000FF4F0C94E5ED809180008F7703C08091C9
:103CD00080008F7D80938000089584B58F7702C027
:103CE00084B58F7D84BD08958091B0008F7703C027
:103CF0008091B0008F7D8093B000089580919000F6
:103D00008F7707C0809190008F7D03C080919000D5
:103D1000877F8093900008958091A0008F7707C0DF
:103D20008091A0008F7D03C08091A000877F809349
:103D3000A0000895809120018F7707C08091200115
:103D40008F7D03C080912001877F8093200108959B
:103D5000CF93DF9390E0FC01EA54FA4F2491FC01E9
:103D6000E450FA4F8491882349F190E0880F991F1D
:103D7000FC01E45AF94FA591B4918E5B994FFC0177
:103D8000C591D4919FB7611108C0F8948C9120958A
:103D900082238C93888182230AC0623051F4F89484
:103DA0008C91322F309583238C938881822B88834A
:103DB00004C0F8948C91822B8C939FBFDF91CF919C
:103DC00008950F931F93CF93DF931F92CDB7DEB764
:103DD000282F30E0F901E059FA4F8491F901EA54B3
:103DE000FA4F1491F901E450FA4F04910023C9F0FD
:103DF000882321F069830E94581E6981E02FF0E03A
:103E0000EE0FFF1FEE5BF94FA591B4919FB7F894A9
:103E10008C91611103C01095812301C0812B8C937B
:103E20009FBF0F90DF91CF911F910F9108951F9227
:103E30000F920FB60F9211240BB60F922F933F9350
:103E40004F935F936F937F938F939F93AF93BF93A2
:103E5000EF93FF938091410390914203892B29F0C6
:103E6000E0914103F09142031995FF91EF91BF91C9
:103E7000AF919F918F917F916F915F914F913F9102
:103E80002F910F900BBE0F900FBE0F901F901895A3
:103E90001F920F920FB60F9211240BB60F922F9311
:103EA0003F934F935F936F937F938F939F93AF93C2
:103EB000BF93EF93FF938091430390914403892B29
:103EC00029F0E0914303F09144031995FF91EF919C
:103ED000BF91AF919F918F917F916F915F914F9122
:103EE0003F912F910F900BBE0F900FBE0F901F9020
:103EF00018951F920F920FB60F9211240BB60F92C6
:103F00002F933F934F935F936F937F938F939F93E1
:103F1000AF93BF93EF93FF93809145039091460336
:103F2000892B29F0E0914503F09146031995FF9103
:103F3000EF91BF91AF919F918F917F916F915F9121
:103F40004F913F912F910F900BBE0F900FBE0F908E
:103F50001F9018951F920F920FB60F9211240BB657
:103F60000F922F933F934F935F936F937F938F9312
:103F70009F93AF93BF93EF93FF93809147039091EB
:103F80004803892B29F0E0914703F09148031995E4
:103F9000FF91EF91BF91AF919F918F917F916F9121
:103FA0005F914F913F912F910F900BBE0F900FBEDD
:103FB0000F901F9018951F920F920FB60F92112419
:103FC0000BB60F922F933F934F935F936F937F9313
:103FD0008F939F93AF93BF93EF93FF9380913D0394
:103FE00090913E03892B29F0E0913D03F0913E032F
:103FF0001995FF91EF91BF91AF919F918F917F9113
:104000006F915F914F913F912F910F900BBE0F9049
:104010000FBE0F901F9018951F920F920FB60F9220
:1040200011240BB60F922F933F934F935F936F938F
:104030007F938F939F93AF93BF93EF93FF93809161
:104040003F0390914003892B29F0E0913F03F091C9
:1040500040031995FF91EF91BF91AF919F918F917F
:104060007F916F915F914F913F912F910F900BBE78
:104070000F900FBE0F901F9018951F920F920FB6C2
:104080000F9211240BB60F922F933F934F935F9390
:104090006F937F938F939F93AF93BF93EF93FF9310
:1040A0008091490390914A03892B29F0E0914903BB
:1040B000F0914A031995FF91EF91BF91AF919F91B4
:1040C0008F917F916F915F914F913F912F910F90C1
:1040D0000BBE0F900FBE0F901F9018951F920F925E
:1040E0000FB60F9211240BB60F922F933F934F935D
:1040F0005F936F937F938F939F93AF93BF93EF9350
:10410000FF9380914B0390914C03892B29F0E09110
:104110004B03F0914C031995FF91EF91BF91AF9133
:104120009F918F917F916F915F914F913F912F91CF
:104130000F900BBE0F900FBE0F901F901895FF921F
:104140000F931F93CF93DF9388EA9FEF90937103B0
:10415000809370034091640388E0840F405E682F71
:104160000E94BB2A0E942030809164038435C8F5E8
:1041700046E058E066E180E00E942F3107E116E159
:10418000C0E0D0E0FC2E40916403842F90E0880FC3
:10419000991FFE017396E817F90744F4440F445140
:1041A0004C1B202F612F80E00E942B3080916403F4
:1041B000482F50E0440F551F4C175D0734F0880F0F
:1041C000202F4FE7612F8F1904C0202F4FE7612F59
:1041D00080E00E942B3021961E5F0E5F1A3291F60E
:1041E00009C081508093640346E058E066E180E0B6
:1041F0000E942F310E947E2A80914D03811113C0AD
:104200002091640330E0220F331F40911602429F39
:10421000C001439F900D112464E670E00E9490ED70
:1042200088E00E949C1D80916303811104C08091ED
:104230006F038823E9F180914D0381110DC08091B6
:1042400016022FEF829FC001112464E670E00E94E5
:1042500090ED88E00E949C1D10926303109264030D
:104260004CE360E380E30E94BB2A80916F038111DD
:104270000E94A23180E094E00E9456F4853579F4E2
:1042800020E030E0A9016091F60E7091F70E809168
:10429000F80E9091F90E0E94D5E9811103C084E6D1
:1042A0009EE302C08EE591E290936C0380936B03D2
:1042B000DF91CF911F910F91FF90089545E856E04F
:1042C0006CE776E086E796E00E949D2580916F037B
:1042D000882349F180917003909171039C01295FBB
:1042E0003F4F2F30310558F40E944A6B80E19FE028
:1042F0000E946ED862E070E08CE59BE612C09C01E3
:10430000285031092830310528F468EA7FEF88E821
:1043100094E507C04097089730F468EA7FEF81ED95
:104320009EE30E946D2580916E038823A1F0809109
:10433000700390917103883A9F4F69F41092630360
:1043400080916403893C58F068EA7FEF81EB91E249
:104350000E946D2504C010926303109264030C94B4
:104360007E2A8F929F92BF92CF92DF92EF92FF921E
:104370000F931F93CF93DF931F921F92CDB7DEB79A
:104380008091700390917103883A9F4F59F58AE1AB
:1043900090E0909371038093700320EA37E043E04C
:1043A00080E090E0F901E80FF91F40830196853025
:1043B0009105C1F72B5F3F4F87E02F3A380781F710
:1043C0001092B0071092AF0780E099E39093B20784
:1043D0008093B1071092B4071092B3071092B607FA
:1043E0001092B507809170039091710397FF04C0FC
:1043F0001092710310927003809170039091710379
:10440000880F991F8B36910534F085E390E09093E7
:104410007103809370036091B3077091B40780912A
:10442000AF079091B007860F971F9093B0078093C6
:10443000AF074091B5075091B6072091B107309171
:10444000B207240F351F3093B2072093B1078F3F77
:10445000910509F01CF477FF0DC009C08130ECE72D
:104460009E0764F077FF03C071956195710971959E
:10447000619571097093B4076093B3072F3F3105BD
:1044800009F054F457FF03C05195419551095093D9
:10449000B6074093B50705C02115FEE13F070CF0B4
:1044A00053C0292F220F220B892F922F69E170E030
:1044B0000E9490ED262F932F990F990B832F6AE07E
:1044C00070E00E9490ED45E0649FF0011124E20F3E
:1044D000F11DE056F84F80818823B1F1815080832F
:1044E0008091B5079091B60797FF03C0919581958C
:1044F00091099093B6078093B50780EA97E020E092
:1045000030E0FC01E20FF31F408141111DC02F5F1D
:104510003F4F25303105A9F70596F7E08F3A9F0701
:1045200071F780EA97E043E020E030E0FC01E20F21
:10453000F31F40832F5F3F4F25303105B9F70596B4
:10454000E7E08F3A9E0781F78091B1079091B2071B
:1045500081309A430CF448C02091AF073091B007E6
:1045600080917003909171030197880F991F582FC4
:1045700044272417350734F04796982F8827821749
:10458000930734F468EA7FEF8EE591E20E946D258F
:104590008BEF9FEF2091700330917103821B930B7F
:1045A000982F8827990F2091AF073091B007820F7D
:1045B000931F97FDCF96E6E095958795EA95E1F7ED
:1045C0002091B3073091B407820F931F9093B407E3
:1045D0008093B30797FF03C09195819591099250FD
:1045E0009093B6078093B5078091B5079091B60771
:1045F000892B59F580E099E39093B2078093B10736
:1046000080917003909171039C012B5F3F4F220FAB
:10461000331F1092AF072093B00720916F0322231E
:10462000A1F0809763E0880F991F6A95E1F7909356
:10463000B4078093B30797FF03C0919581959109C3
:1046400092509093B6078093B5070E94203000EAFD
:1046500017E033E047E0B42EB30ECC24CA94C30E67
:1046600056E0D52ED30E480194E07401F401808108
:10467000882361F02B2D43E1490F6C2D8FEF890FBB
:1046800039839A830E94832F9A813981F401808132
:10469000823059F42D2D42E1490F632F892F398340
:1046A0009A830E94B52F9A813981FFEF8F1A9F0A52
:1046B000F7018081833059F42D2D42E1490F632F9A
:1046C000892F39839A830E94B1309A813981975E0C
:1046D000913859F6365F0B5F1F4F313209F0BACF70
:1046E0006091B2078091B00722E0260F42E0480FA8
:1046F0000E94832F80917003880F45E1480F2FE3BC
:104700006CE30E94832F0F900F90DF91CF911F9148
:104710000F91FF90EF90DF90CF90BF909F908F9080
:104720000C947E2A0E9418320E949B5A81110AC062
:104730000E94705560E080E00E948A5961E080E04C
:104740000E948A590E9426578FE990E290936C0349
:1047500080936B0360E070E088E00E949C1D0E94E3
:10476000DA1C685873418109910960934F03709373
:10477000500380935103909352030895CF92DF9298
:10478000EF92FF920E94B62A882309F490C10E94FA
:10479000F73182B382FB882780F991E089279091D5
:1047A000140F981759F09091B810992321F0915057
:1047B0009093B81006C08093140F03C088E28093D2
:1047C000B8109091630380916403992341F0825063
:1047D0008093640381110BC01092630308C08E5F45
:1047E000809364038E3719F481E0809363030E9401
:1047F000377F882309F48FC00E94203066EF77E06E
:104800008AE00E941A2E0E943E7F90E0FC013197C0
:10481000EA30F10508F077C0EC56FF4F0C94E5ED57
:104820006AEE77E084E10E941A2E43EE57E068E2D8
:1048300081E00E94702C40ED57E061C060EC77E0B1
:1048400084E10E941A2E49EB57E068E281E00E9461
:10485000702C46EA57E053C069E977E084E10E9492
:104860001A2E42E957E068E281E00E94702C4FE77F
:1048700057E045C060E777E084E10E941A2E49E6E0
:1048800057E068E281E00E94702C46E557E037C0AF
:1048900066E477E084E10E941A2E4FE357E068E275
:1048A00081E00E94702C4CE257E029C06DE177E076
:1048B00084E10E941A2E46E157E068E281E00E94FE
:1048C000702C43E057E01BC06EEE76E084E10E945E
:1048D0001A2E47EE56E068E281E00E94702C44ED0B
:1048E00056E00DC060EC76E084E10E941A2E49EBA0
:1048F00056E068E281E00E94702C46EA56E062E3EE
:1049000081E00E94702C8091640360E8681B482F4E
:104910000E94BB2A30C00E94DA1CC0904F03D09086
:104920005003E0905103F09052036C197D098E09F9
:104930009F09683873418105910518F580914E03F0
:1049400081110AC00E94203061E976E084E10E9472
:104950001A2E81E080934E038091E40B83508330C4
:1049600050F40E94DA1C60934F03709350038093BD
:10497000510390935203FF90EF90DF90CF900C94EF
:104980007E2A10924E032DEC3CEC4CE45DE36091EA
:10499000C5197091C6198091C7199091C8190E94C4
:1049A000AAEC6B017C0123E333E343E75FE360910F
:1049B0000E0270910F0280911002909111020E94DC
:1049C000AAEC9B01AC01C701B6010E94FCE8609310
:1049D0000E0270930F0280931002909311022DEC3F
:1049E0003CEC4CE45DE36091C9197091CA19809167
:1049F000CB199091CC190E94AAEC6B017C0123E3A6
:104A000033E343E75FE360911202709113028091F8
:104A10001402909115020E94AAEC9B01AC01C701FF
:104A2000B6010E94FCE86093120270931302809317
:104A30001402909315022DEC3CEC4CE45DE3609184
:104A4000BF197091C0198091C1199091C2190E942B
:104A5000AAEC6B017C0123E333E343E75FE360915E
:104A60000A0270910B0280910C0290910D020E943B
:104A7000AAEC9B01AC01C701B6010E94FCE860935F
:104A80000A0270930B0280930C0290930D02E09146
:104A90006B03F0916C031995E0916703F091680343
:104AA000309729F0FF90EF90DF90CF901994FF900E
:104AB000EF90DF90CF9008951092D4191092D319EF
:104AC0001092D6191092D5191092D2191092D119AC
:104AD0001092D00E08950C94C5310F931F93CF936D
:104AE000DF93EC018B01109262031092630310922A
:104AF00064034CE360E380E30E94BB2A0E94A2317E
:104B000080916B0390916C0390936A038093690387
:104B10008091700390917103909366038093650375
:104B2000D0936C03C0936B031093710300937003D5
:104B3000DF91CF911F910F910895EF92FF920F9304
:104B40001F93CF93DF938C017B01EA0120917003C7
:104B500030917103283A8FEF3807A1F037FF06C074
:104B6000285E3F4F30937103209370038091700350
:104B700090917103883191052CF0489790937103BF
:104B8000809370030E9420304DE265E080E40E9433
:104B90002F2F40E36CE783E00E94122F20917003D7
:104BA00030917103295F3F4F2F30310590F42BE294
:104BB0004BE367E085E00E94832F2AE24AE368E046
:104BC00086E00E94B130A80166E181E20E94AA2E2F
:104BD00005C0A80166E181E20E94422E8091700327
:104BE000909171030897089790F42BE24BE767E0E8
:104BF00085E40E94832F2AE24AE768E086E40E9467
:104C0000B130A70166E181E60E94AA2E05C0A70186
:104C100066E181E60E94422E209739F1809170036F
:104C20009091710340970897B0F42DE34BE763E34D
:104C300085E00E94832F2CE34AE764E386E00E942C
:104C4000B130BE0185E3DF91CF911F910F91FF90AD
:104C5000EF900C942E2EBE0185E3DF91CF911F9132
:104C60000F91FF90EF900C941A2EDF91CF911F912E
:104C70000F91FF90EF9008950E94203040E36CE781
:104C800083E00C94122F0F931F93CF93DF931F9207
:104C90001F92CDB7DEB78A01209170033091710366
:104CA000283A4FEF3407A9F037FF06C0205F3F4F87
:104CB000309371032093700320917003309171033E
:104CC0002031310534F020513109309371032093A4
:104CD000700320916F032223C1F020917003309163
:104CE0007103295F3F4F2F30310578F4611571054D
:104CF00031F089839A83FB0119959A818981009704
:104D000021F068EA7FEF0E946D250E943C26011584
:104D1000110511F40FE819E080917003909171036F
:104D200007960F97F0F42DE34BE763E385E00E94CD
:104D3000832F2CE34AE764E386E00E94B130C80188
:104D40000E944CF1982F990F980FA80165E381E418
:104D5000891B0F900F90DF91CF911F910F910C94B1
:104D6000402DC8010E944CF1982F990F980FA8016F
:104D700065E381E4891B0F900F90DF91CF911F9124
:104D80000F910C94702CAF92BF92CF92DF92EF9262
:104D9000FF920F931F93CF93DF936C01EA015901A8
:104DA0004091700350917103483A8FEF5807A1F07A
:104DB00057FF06C0405F5F4F5093710340937003ED
:104DC0008091700390917103803191052CF0409790
:104DD000909371038093700380916F03882331F166
:104DE00080917003909171039C01295F3F4F2F3098
:104DF000310560F46115710511F0FB011995C114BD
:104E0000D104A1F068EA7FEFC6010EC008970897A9
:104E100068F40115110511F0F8011995A114B104F8
:104E200029F068EA7FEFC5010E946D250E943C26AB
:104E3000809170039091710307960F97C8F42DE34A
:104E40004EE363E385E00E94832F2CE34DE364E3AC
:104E500086E00E94B130CE010E944CF1982F990F4C
:104E6000980FAE0165E383E2891B0E94402D0CC0C0
:104E7000CE010E944CF1982F990F980FAE0165E377
:104E800083E2891B0E94702C8091700390917103C2
:104E90000897089710F52DE34AE763E382E40E9440
:104EA000832F2CE349E764E383E40E94B130C70118
:104EB0000E944CF1982F990F980FA70165E38FE599
:104EC000891BDF91CF911F910F91FF90EF90DF90A1
:104ED000CF90BF90AF900C94402DC7010E944CF131
:104EE000982F990F980FA70165E38FE5891BDF9134
:104EF000CF911F910F91FF90EF90DF90CF90BF90D7
:104F0000AF900C94702CDF92EF92FF920F931F934F
:104F1000CF93DF93D82E2EE24CE766E283E00E9427
:104F2000832FC0E0D0E00D2D10E0015011098CE07E
:104F3000E82EF12CEC2FCD15D0F4C937D105B9F0FE
:104F4000C8018C1B9D0BB7010E9490ED482F853046
:104F500018F4485D68E205C08A3038F463E2640FF3
:104F60004CE284E08E0F0E942F2F2196E3CFDF9139
:104F7000CF911F910F91FF90EF90DF9008952F92A6
:104F80003F924F925F926F927F928F929F92AF92D9
:104F9000BF92CF92DF92EF92FF920F931F93CF9326
:104FA000DF935C017A01690180916F038111DBC09D
:104FB0008091700390917103883A9F4F21F4109271
:104FC0007103109270032091700330917103862E4B
:104FD000992487FC909437FF0BC0C401880F991F58
:104FE000880F991F820F931F909371038093700312
:104FF00080917003909171039401220F331F220F4F
:10500000331F821793074CF0E4E06E028019910978
:105010001124909371038093700300917003109199
:10502000710317FF02C00D5F1F4F1595079515956A
:105030000795702E0E942030809153039091540365
:10504000D801BB2773E0AA0FBB1F7A95E1F71F9722
:10505000A81BB90BED01B7FD2396D595C795D5953E
:10506000C795C80FD91F1A161B0614F4219608C03D
:10507000AB2B29F4D0935403C093530309C0219759
:10508000D0935403C09353031092630310926403AC
:105090008091530390915403282F27703AE0632E98
:1050A00043E0969587954A95E1F7382E621AC0E05D
:1050B000D0E02C2E230C222D30E028153905DCF40D
:1050C000822DF70119952C01FC01148A27100EC0BE
:1050D00027E0260D4CE76FEF660D83E00E94B130AC
:1050E000A201662D84E00E94842B05C0AC01662DD0
:1050F00084E00E94C22A2196F8E06F0EC630D105E6
:10510000C1F628E04CE760E083E00E94B1302FE375
:105110004CE76FE283E00E942B3029E04CE769E026
:1051200083E00E942B3040E36CE783E00E94122F63
:10513000B50181E00E942E2E802FF6011995DF9196
:10514000CF911F910F91FF90EF90DF90CF90BF9084
:10515000AF909F908F907F906F905F904F903F9017
:105160002F900C947E2ADF91CF911F910F91FF9089
:10517000EF90DF90CF90BF90AF909F908F907F90F7
:105180006F905F904F903F902F9008950F931F93D3
:10519000CF93DF93CDB7DEB760970FB6F894DEBF3D
:1051A0000FBECDBF8091590390915A032091700397
:1051B000309171032817390724F490937103809379
:1051C00070038091570390915803209170033091A0
:1051D00071038217930724F49093710380937003F3
:1051E00080915B03813041F4E0915C03F0915D03B9
:1051F0008091700380838EC0823059F4E0915C030B
:10520000F0915D038091700390917103918380838D
:1052100081C08330A9F400915C0310915D0360911B
:10522000700370917103882777FD8095982F0E94F5
:1052300077EA20E030E048EC52E40E94DCE965C007
:10524000843089F4E0915C03F0915D0380917003F8
:1052500090917103AA2797FDA095BA2F808391831F
:10526000A283B38357C08530A1F4E0915C03F09131
:105270005D0320917003309171034FEF429FC00195
:10528000439F900D112464E670E00E9490ED6083CE
:1052900041C0863099F400915C0310915D036091E8
:1052A000700370917103882777FD8095982F0E9475
:1052B00077EA20E030E040E752E414C08730A9F4F8
:1052C00000915C0310915D03609170037091710314
:1052D000882777FD8095982F0E9477EA20E030E0BC
:1052E00048EC52E40E94AAEC10C0883099F4009176
:1052F0005C0310915D0360917003709171038827C6
:1053000077FD8095982F0E9477EAF801608371837A
:10531000828393830E943C266091600370916103B5
:1053200084E10E941A2E20915B038091700390917A
:10533000710300915E0310915F032330A1F4BC015F
:10534000882777FD8095982F0E9477EA20E030E04B
:1053500048EC52E40E94DCE99801AE014F5F5F4FD8
:105360000E94EF3306C0A801BE016F5F7F4F0E940D
:10537000E132BE016F5F7F4F8EE10E94502C68E8E2
:1053800079E0CE0101960E9445F120915B030091E6
:105390005E0310915F038091550390915603233073
:1053A000A1F4BC01882777FD8095982F0E9477EAA9
:1053B00020E030E048EC52E40E94DCE99801AE01C4
:1053C000495F5F4F0E94EF3306C0A801BE01695FCD
:1053D0007F4F0E94E132BE016F5F7F4F85E30E94E5
:1053E000502C0E947E2A80916F03882351F0609197
:1053F0006503709166038091690390916A030E942E
:105400006D2560960FB6F894DEBF0FBECDBFDF915D
:10541000CF911F910F9108959091BC0097FFFCCF01
:105420008093BB0084E88093BC0008958091BC0009
:1054300087FFFCCF84E98093BC0008951F93CF932E
:10544000DF931F92CDB7DEB7182F84EA8093BC009C
:1054500080EC69830E940C2A812F0E940C2A6981AA
:10546000862F0E940C2A0F90DF91CF911F910C94F0
:10547000162A1F920F920FB60F9211240BB60F929D
:105480002F933F934F935F936F937F938F939F934C
:10549000AF93BF93EF93FF93809173039091740345
:1054A000811524E0920719F40E94162A14C0FC0109
:1054B000E858FC4F80810E940C2A8091BC008160DA
:1054C0008093BC0080917303909174030196909334
:1054D000740380937303FF91EF91BF91AF919F91FC
:1054E0008F917F916F915F914F913F912F910F908D
:1054F0000BBE0F900FBE0F901F9018956091770311
:1055000082E00E941E2A6091760383E00E941E2A98
:105510006091750384E00E941E2A84EA8093BC0097
:1055200088E70E940C2A80E00E940C2A80E00E94FA
:105530000C2A80E10E940C2A80EB0E940C2A8091A8
:10554000BC0087FFFCCF84EA8093BC0088E70E9400
:105550000C2A80E40E940C2A1092740310927303A8
:105560008091BC0081608093BC0008958091BC0054
:1055700080958170089580937703609376034093BC
:10558000750308951F93CF93DF93962F9695969565
:105590009695C82FD0E080E8989FC00DD11D1124AA
:1055A000DE01A858BC4FC850DC4F677078E0761B0E
:1055B00015E0FA012081222309F4A2C030E0205234
:1055C0003109129FC001139F900D11248355964FEE
:1055D000FC012491062E01C0220F0A94EAF73C91A7
:1055E000232B2C933196E491062E01C0EE0F0A94E2
:1055F000EAF711962C911197E22B1196EC931197E3
:10560000FC013296E491062E01C0EE0F0A94EAF7EF
:1056100012962C911297E22B1296EC931297FC01A2
:105620003396E491062E01C0EE0F0A94EAF7139622
:105630002C911397E22B1396EC931397FC0134965D
:105640008491062E01C0880F0A94EAF714969C9163
:105650001497892B14968C9314971696662309F445
:105660004CC0FA01208130E020523109129FC00164
:10567000139F900D11248355964FFC01249130E027
:10568000072E02C0359527950A94E2F73881322B10
:1056900038833196E491F0E0072E02C0F595E79546
:1056A0000A94E2F729812E2B2983FC013296E4919A
:1056B000F0E0072E02C0F595E7950A94E2F72A81FB
:1056C0002E2B2A83FC013396E491F0E0072E02C0D2
:1056D000F595E7950A94E2F72B812E2B2B83FC019D
:1056E0003496849190E0072E02C0959587950A9490
:1056F000E2F79C81982B9C8326964F5F5F4F59CF92
:10570000DF91CF911F9108951F93CF93DF93962F31
:10571000969596959695C82FD0E080E8989FC00DF5
:10572000D11D1124DE01A858BC4FC850DC4F677052
:1057300078E0761B15E0FA012081222309F4ACC041
:1057400030E020523109129FC001139F900D1124A7
:105750008355964FFC012491062E01C0220F0A9416
:10576000EAF720953C9132233C933196E491062E42
:1057700001C0EE0F0A94EAF7E09511962C9111976B
:105780002E2311962C931197FC013296E491062E4C
:1057900001C0EE0F0A94EAF7E09512962C91129749
:1057A0002E2312962C931297FC013396E491062E29
:1057B00001C0EE0F0A94EAF7E09513962C91139727
:1057C0002E2313962C931397FC0134968491062E66
:1057D00001C0880F0A94EAF7809514969C9114975B
:1057E000982314969C9314971696662309F451C037
:1057F000FA01208130E020523109129FC001139F2D
:10580000900D11248355964FFC01249130E0072E12
:1058100002C0359527950A94E2F720953881322306
:1058200038833196E491F0E0072E02C0F595E795B4
:105830000A94E2F7E09529812E232983FC01329610
:10584000E491F0E0072E02C0F595E7950A94E2F79F
:10585000E0952A812E232A83FC013396E491F0E01F
:10586000072E02C0F595E7950A94E2F7E0952B81A3
:105870002E232B83FC013496849190E0072E02C0E6
:10588000959587950A94E2F780959C8198239C834F
:1058900026964F5F5F4F4FCFDF91CF911F910895B5
:1058A000AB01FB0101900020E9F73197E61BF70BF4
:1058B0009E2F990F9E0F682F80E4891B0C94C22A9B
:1058C000AB01FB0101900020E9F73197E61BF70BD4
:1058D0009E2F990F9E0F682F80E4891B0C94842BB8
:1058E000AF92BF92CF92DF92EF92FF920F931F93EE
:1058F000CF93DF93962F969596959695C82FD0E0E7
:1059000080E8989FC00DD11D1124DE01A858BC4F1E
:10591000C850DC4F677078E0761BFA01249185E06F
:10592000B82E222309F4A1C030E020523109B29EE2
:10593000C001B39E900D11248355964FFC01249114
:10594000062E01C0220F0A94EAF73C91232B2C93D8
:105950008C010F5F1F4FF8012491062E01C0220F0A
:105960000A94EAF711963C911197232B11962C93E8
:1059700011979C012E5F3F4FF901F490062E01C054
:10598000FF0C0A94EAF71296FC911297FF2A1296DE
:10599000FC9212976C01F3E0CF0ED11CF601F4904B
:1059A000062E01C0FF0C0A94EAF71396FC91139798
:1059B000FF2A1396FC9213977C01F4E0EF0EF11C82
:1059C000F701A490062E01C0AA0C0A94EAF71496D7
:1059D000FC911497AF2A1496AC92149716966623EE
:1059E00009F43EC0FC01849190E0072E02C0959519
:1059F00087950A94E2F79881982B9883F80104918F
:105A000010E0072E02C0159507950A94E2F78981E8
:105A1000802B8983F901249130E0072E02C035954F
:105A200027950A94E2F78A81822B8A83F601849172
:105A300090E0072E02C0959587950A94E2F79B8126
:105A4000982B9B83F701E490EE2DF0E0072E02C027
:105A5000F595E7950A94E2F78C818E2B8C83269638
:105A60004F5F5F4FFA0124915CCFDF91CF911F917F
:105A70000F91FF90EF90DF90CF90BF90AF9008957F
:105A8000AF92BF92CF92DF92EF92FF920F931F934C
:105A9000CF93DF93962F969596959695C82FD0E045
:105AA00080E8989FC00DD11D1124DE01A858BC4F7D
:105AB000C850DC4F677078E0761BFA01249195E0BE
:105AC000B92E222309F4ABC030E020523109B29E36
:105AD000C001B39E900D11248355964FFC01249173
