:100000000C94F00E0C94AA110C94DB110C940C12AD
:100010000C943D120C946E120C949F120C94D012FE
:100020000C9401130C94210F0C94210F0C94210FAC
:100030000C94210F0C9402870C94210F0C94210F27
:100040000C94210F0C94755D0C94210F0C94210FCE
:100050000C94210F0C94210F0C940C700C94230F12
:100060000C94210F0C9410380C94210F0C94210F38
:100070000C94210F0C94210F0C94210F0C94210F40
:100080000C94210F0C94210F0C94210F0C94210F30
:100090000C94210F0C94210F0C94210F0C94210F20
:1000A0000C94210F0C94210F0C94210F0C94210F10
:1000B0000C94210F0C94210F0C94210F0C94210F00
:1000C0000C94210F0C94210F0C94210F0C94210FF0
:1000D0000C94210F0C94210F0C94210F0C94210FE0
:1000E0000C94210F55105A105F106910E210731014
:1000F0007B1083108D109710A110B010BA10E21071
:10010000C410CE10D81000110311F610FA103A11D5
:1001100007110B111111151119111F11231127119D
:100120003A112D1131113511561F561F611F611FD4
:10013000611F6C1F6C1F6C1F811F771F771F771F3C
:100140006570747090709F70B970C870E270E670DE
:10015000EE70084AD73B3BCE016E84BCBFFDC12F79
:100160003D6C74319ABD56833DDA3D00C77F11BEA8
:10017000D9E4BB4C3E916BAAAABE000000803F05AB
:10018000A84CCDB2D44EB93836A9020C50B99186DC
:1001900088083CA6AAAA2ABE000000803F000009E9
:1001A0000A02080B0C0D0706030401000000000002
:1001B000000000000000000000000000000000003F
:1001C00000000000000000000011100F00000000FF
:1001D000000000000000000000000000000000001F
:1001E00000000001021020200808102040102040CC
:1001F00080020102010804020101020408102040EB
:100200008080402010080402018004020180402008
:100210001008040201080402010102040810204031
:100220008001020408102040800505050507050827
:10023000080808020202020A0A0808040404040169
:10024000010101010101010303030303030303048B
:100250000707070C0C0C0C0C0C0C0C02020202061B
:10026000060606060606060B0B0B0B0B0B0B0B000C
:10027000002200250028002B002E0031003400024F
:10028000010000050108010B0100002100240027E6
:10029000002A002D00300033000101000004010796
:1002A000010A0153544F505045442E2000507269AA
:1002B0006E7465722073746F707065642064756508
:1002C00020746F206572726F72732E2046697820D9
:1002D000746865206572726F7220616E6420757338
:1002E00065204D39393920746F20726573746172DD
:1002F000742E202854656D70657261747572652066
:1003000069732072657365742E2053657420697457
:100310002061667465722072657374617274696EAF
:100320006729004B494C4C45442E20005072696EA1
:100330007465722068616C7465642E206B696C6CE6
:1003400028292063616C6C656421006F6B00526525
:1003500073656E643A20002200556E6B6E6F776E87
:1003600020636F6D6D616E643A2022004368616E98
:1003700067652066696C616D656E74005A204F6612
:1003800066736574203A20007A5F6D61783A2000C8
:100390007A5F6D696E3A20005A204F666673657405
:1003A000005A204F6666736574206F6B00486F7447
:1003B000656E64206F6666736574733A007A5F6D6C
:1003C00061783A20007A5F6D696E3A2000795F6D3E
:1003D00061783A2000795F6D696E3A2000785F6D30
:1003E00061783A2000785F6D696E3A2000205A3AB1
:1003F0000020593A0020436F756E7420583A20004F
:1004000020453A00205A3A0020593A00583A00460E
:1004100049524D574152455F4E414D453A4D6172EB
:100420006C696E2056313B20537072696E74657230
:100430002F6772626C206D617368757020666F72D1
:100440002067656E36204649524D574152455F55EB
:10045000524C3A687474703A2F2F6669726D7761E6
:1004600072652E756C74696D616B65722E636F6D4C
:100470002050524F544F434F4C5F56455253494FB3
:100480004E3A312E30204D414348494E455F545934
:1004900050453A556C74696D616B657220455854CE
:1004A00052554445525F434F554E543A32205555AC
:1004B00049443A30303030303030302D3030303008
:1004C0002D303030302D303030302D303030303035
:1004D000303030303030300A00556C74696D616BEB
:1004E0006572204F66662E00556C74696D616B6590
:1004F000722072656164792E0042656420646F6EBB
:10050000652E0020423A0020453A00543A004265E8
:10051000642048656174696E672E0048656174697E
:100520006E6720646F6E652E0020573A0020453AB2
:1005300000543A0048656174696E672E2E2E0020C3
:1005400042403A0020403A00202F003A0020540058
:10055000202F0020423A00202F006F6B20543A00D9
:100560002569206D696E2C2025692073656300451F
:100570006E642066696C65206C69737400426567FF
:10058000696E2066696C65206C697374004E6F201B
:100590006D6F76652E00526573756D696E6720709C
:1005A00072696E74005761697420666F722075738A
:1005B00065722E2E2E00536C6565702E2E2E002532
:1005C0006920686F757273202569206D696E757476
:1005D000657300446F6E65207072696E74696E6732
:1005E0002066696C650053544F505045442E2000DE
:1005F0005072696E7465722073746F7070656420D8
:1006000064756520746F206572726F72732E204658
:10061000697820746865206572726F7220616E64FB
:1006200020757365204D39393920746F20726573D8
:10063000746172742E202854656D706572617475D2
:1006400072652069732072657365742E205365741A
:1006500020697420616674657220726573746172BA
:1006600074696E6729006F6B004E6F204C696E6570
:10067000204E756D626572207769746820636865C5
:10068000636B73756D2C204C617374204C696E65BF
:100690003A20004E6F20436865636B73756D207759
:1006A000697468206C696E65206E756D6265722C68
:1006B000204C617374204C696E653A200063686554
:1006C000636B73756D206D69736D617463682C2045
:1006D0004C617374204C696E653A20004C696E65FC
:1006E000204E756D626572206973206E6F74204CA8
:1006F000617374204C696E65204E756D6265722B56
:10070000312C204C617374204C696E653A20004D89
:1007100031313000446F6E6520736176696E6720F9
:1007200066696C652E006F6B004D323900202050D9
:100730006C616E6E6572427566666572427974654B
:10074000733A20002046726565204D656D6F7279A1
:100750003A20004A756E203137203230313600435E
:100760006F6D70696C65643A200028446176696435
:1007700020427261616D2900207C20417574686F90
:10078000723A20004A756E203137203230313620DF
:1007900031333A31313A303700204C61737420558F
:1007A0007064617465643A2000312E302E30004D43
:1007B00061726C696E0020536F6674776172652098
:1007C000526573657400205761746368646F6720B5
:1007D0005265736574002042726F776E206F757476
:1007E000205265736574002045787465726E616C83
:1007F00020526573657400506F7765725570007391
:1008000074617274002200656E717565696E67208F
:1008100022002200656E717565696E67202200FFF7
:10082000FFFF0000A0400000A040000000400000CA
:100830004D4300004D43000048430000000000000D
:1008400000000000000000004D4300004D43000088
:100850004843000000000000000000000000656345
:10086000686F3A004572726F723A0041414141E14E
:10087000414143454545454949494944EE4F4F4F5C
:100880004FEF784F555555F55954E261616161E17B
:10089000616163656565656969696964EE6F6F6F5C
:1008A0006FEFFD6F757575F5797479007C3C3E5E70
:1008B0002B3D3F2F5B5D3B2C2A225C0020746F6F29
:1008C000206C6F6E6720657874727573696F6E2027
:1008D00070726576656E7465640020636F6C642069
:1008E000657874727573696F6E2070726576656E67
:1008F000746564006563686F3A00656E6473746F55
:100900007073206869743A205A00205A3A00656E64
:100910006473746F7073206869743A2059002059A9
:100920003A00656E6473746F7073206869743A205E
:10093000580020583A00656E6473746F70732068B5
:1009400069743A200024F4D43050C38E20C2A240EF
:1009500017828B7011127A910D816CD90AA861E10E
:1009600008C7586607615143061E4B5D05C145A780
:10097000041A411104093D9803713931034036DBF3
:100980000265339102D4305402802E1D02632CEE96
:1009900001752AC501B028A001102781018F2564A7
:1009A000012B244B01E0223401AC211F018D200DCD
:1009B00001801FFC00841EED00971DDF00B81CD2D3
:1009C00000E61BC600201BBC00641AB200B219A8C6
:1009D000000A19A0006A189900D117910040178BDE
:1009E00000B516840031167E00B31579003A1573F0
:1009F00000C7146F0058146A00EE13660088136372
:100A00000025135E00C7125B006C125700151254CC
:100A100000C111510070114F0021114B00D6104937
:100A2000008D1047004610440002104200C00F40E5
:100A300000800F3E00420F3C00060F3B00CB0E38FB
:100A400000930E37005C0E3500270E3400F30D3294
:100A500000C10D3100900D3000600D2E00320D2DC3
:100A600000050D2C00D90C2B00AE0C2900850C299B
:100A7000005C0C2700350C27000E0C2600E80B2428
:100A800000C40B2400A00B23007D0B23005A0B2174
:100A900000390B2100180B2000F80A1F00D90A1E8C
:100AA00000BB0A1E009D0A1D00800A1D00630A1C6F
:100AB00000470A1B002C0A1B00110A1A00F7091A2A
:100AC00000DD091900C4091900AB091900920917C2
:100AD000007B091800630917004C09160036091637
:100AE00000200916000A091500F5081500E0081491
:100AF00000CC081400B8081400A4081400900813CF
:100B0000007D0812006B08130058081200460812F6
:100B10000034081100230811001208110001081107
:100B200000F0071000E0071000D0071000C0071009
:100B300000B0070F00A107100091070E0083070FF8
:100B40000074070F0065070E0057070E0049070ED7
:100B5000003B070D002E070E0020070D0013070DA8
:100B60000006070D00F9060C00ED060D00E0060C6E
:100B700000D4060C00C8060C00BC060C00B0060C25
:100B800000A4060B0099060C008D060B0082060BD4
:100B90000077060B006C060B0061060A0057060B77
:100BA000004C060A0042060A0038060A002E060A11
:100BB0000024060A001A060A001006090007060AA1
:100BC00000FD050900F4050900EB050900E205092F
:100BD00000D9050900D0050900C7050900BE0509AF
:100BE00000B5050800AD050800A50509009C05082D
:100BF00000940508008C050800840508007C0508A1
:100C000000740508006C050700650508005D050710
:100C100000560508004E0507004705070040050877
:100C20000038050700310507002A050700230507DE
:100C3000001C050600160507000F0507000805063D
:100C40000002050700FB040600F5040700EE040699
:100C500000E8040600E2040700DB040600D50406F1
:100C600000CF040600C9040600C3040600BD040644
:100C700000B7040600B1040500AC040600A6040693
:100C800000A00405009B04060095040500900406DE
:100C9000008A04050085040500800406007A040526
:100CA0000075040500700405006B0405006604056A
:100CB00000610405005C04050057040500520405AA
:100CC000004D04050048040500430405003E0404EB
:100CD000003A04050035040500300404002C040526
:100CE0000027040400230405001E0404001A040461
:100CF0000016040500110404000D04040009040595
:100D0000000404040000040400FC030400F80304CD
:100D100000F4030400F0030400EC030400E80304FF
:100D200000E4030400E0030400DC030400D803042F
:100D300000D4030400D0030400CC030400C8030360
:100D400000C503030024F404D9201BC40C5C0E98D6
:100D500004C4095F0265077101F405F900FB04B3DF
:100D60000048048700C10369005803550003034588
:100D700000BE023A008402310053022A00290225F3
:100D80000004022000E4011C00C8011900AF011793
:100D9000009801140084011300710110006101101A
:100DA0000051010E0043010D0036010B002B010B19
:100DB0000020010B00150109000C010900030108C6
:100DC00000FB000800F3000800EB000700E4000649
:100DD00000DE000600D8000600D2000600CC0005A8
:100DE00000C7000500C2000500BD000400B90004F2
:100DF00000B5000400B1000400AD000400A9000427
:100E000000A5000300A20003009F0004009B000354
:100E10000098000300950002009300030090000377
:100E2000008D0002008B0003008800020086000293
:100E30000084000300810002007F0002007D0002A8
:100E4000007B0002007900020077000100760002BA
:100E5000007400020072000100710002006F0002C5
:100E6000006D0001006C0002006A000100690002D0
:100E700000670001006600010065000100640002D7
:100E8000006200010061000100600001005F0002DB
:100E9000005D0001005C0001005B0001005A0001E0
:100EA00000590001005800010057000100560001E0
:100EB00000550001005400010053000000530001E0
:100EC000005200010051000100500001004F0001DC
:100ED000004E0000004E0001004D0001004C0001DA
:100EE000004B0000004B0001004A000100490001D6
:100EF00000480000004800010047000100460000D3
:100F000000460001004500000045000100440001CA
:100F100000430000004300010042000000420001C5
:100F2000004100000041000100400001003F0000BE
:100F3000003F0001003E0000003E0001003D0000B7
:100F4000003D0001003C0000003C0000003C0001AE
:100F5000003B0000003B0001003A0000003A0001A5
:100F6000003900000039000100380000003800009E
:100F70000038000100370000003700010036000093
:100F8000003600000036000100350000003500008A
:100F9000003500010034000000340000003400017E
:100FA0000033000000330000003300010032000075
:100FB000003200000032000100310000003100006A
:100FC000003100010030000000300000003000015E
:100FD000002F0000002F0000002F0000002F000154
:100FE000002E0000002E0000002E0001002D000049
:100FF000002D0000002D0000002D0001002C00003D
:10100000002C0000002C0000002C0001002B000030
:10101000002B0000002B0000002B0001002A000024
:10102000002A0000002A0000002A00010029000018
:10103000002900000029000000290000002900010B
:101040000028000000280000002800000028000000
:1010500000280001002700000027000000270000F2
:1010600000270000002700010026000000260000E5
:1010700000260000002600000026000100250000D8
:1010800000250000002500000025000000250000CC
:1010900000250001002400000024000000240000BE
:1010A00000240000002400010023000000230000B1
:1010B00000230000002300000023000000230000A4
:1010C0000023000100220000002200000022000096
:1010D0000022000000220000002200010021000088
:1010E000002100000021000000210000002100007C
:1010F000002100000021000100200000002000006D
:10110000002000000020000000200000002000005F
:101110000020000000200001001F0000001F000050
:10112000001F0000001F0000001F0000001F000043
:10113000001F0001001E0000001E0000001E000035
:10114000001E0000006563686F3A004572723A2025
:101150004D494E54454D50003A204578747275649F
:101160006572207377697463686564206F66662EA4
:10117000204D494E54454D50207472696767657221
:1011800065642021004572723A204D415854454D06
:1011900050003A20457874727564657220737769DF
:1011A0007463686564206F66662E204D415854450F
:1011B0004D5020747269676765726564202100482C
:1011C000656174696E67206661696C656400202DD5
:1011D00020496E76616C6964206578747275646507
:1011E00072206E756D626572202100504944204165
:1011F00075746F74756E652066696E697368656471
:10120000212050757420746865206C617374204BC4
:10121000702C204B6920616E64204B6420636F6EDC
:101220007374616E74732066726F6D2061626F7685
:101230006520696E746F20436F6E666967757261B1
:1012400074696F6E2E6800504944204175746F7444
:10125000756E65206661696C6564212074696D65D1
:101260006F75740020403A006F6B20543A006F6B2A
:1012700020423A00504944204175746F74756E6580
:10128000206661696C6564212054656D70657261CA
:101290007475726520746F6F206869676800204BF1
:1012A000643A2000204B693A2000204B703A20001D
:1012B00020436C61737369632050494420002054BB
:1012C000753A2000204B753A2000206D61783A2055
:1012D00000206D696E3A200020643A200020626987
:1012E00061733A20006563686F3A004572726F72ED
:1012F0003A004D383420582059205A204500436187
:101300006E6E6F7420656E746572207375626469A9
:10131000723A20004D3234004D3233202573006183
:1013200075746F25692E67006572726F722077720F
:101330006974696E6720746F2066696C65004E6F12
:1013400074205344207072696E74696E67002F00B8
:101350005344207072696E74696E67206279746597
:1013600020002E0044656C6574696F6E20666169AB
:101370006C65642C2046696C653A200046696C6592
:101380002064656C657465643A002E006F70656E4C
:10139000206661696C65642C2046696C653A2000A2
:1013A00057726974696E6720746F2066696C653A5C
:1013B00020002E006F70656E206661696C65642C7C
:1013C0002046696C653A20002E006F70656E2066BD
:1013D00061696C65642C2046696C653A2000466939
:1013E0006C652073656C6563746564002053697A6D
:1013F000653A200046696C65206F70656E65643AD9
:1014000020002E006F70656E206661696C65642C2B
:101410002046696C653A20004E6F772066726573CE
:10142000682066696C653A20004E6F7720646F69AA
:101430006E672066696C653A20002220706F730029
:101440002220706172656E743A2200535542524FE9
:101450005554494E452043414C4C20746172676598
:10146000743A2200747279696E6720746F20636128
:101470006C6C207375622D67636F64652066696CA0
:101480006573207769746820746F6F206D616E7961
:10149000206C6576656C732E204D4158206C657606
:1014A000656C2069733A0053442063617264206F55
:1014B0006B006F70656E526F6F74206661696C654A
:1014C0006400766F6C756D652E696E697420666157
:1014D000696C656400534420696E697420666169B3
:1014E0006C006563686F3A004572726F723A00482B
:1014F000617264636F6465642044656661756C74D1
:101500002053657474696E6773204C6F6164656401
:101510000053746F7265642073657474696E6773C9
:101520002072657472696576656400204400204904
:10153000002020204D33303120500050494420738A
:10154000657474696E67733A00205A002059002050
:10155000204D323036205800486F6D65206F66662A
:1015600073657420286D6D293A00204500205A00CB
:1015700020580020420020540020204D32303520D9
:101580005300416476616E636564207661726961BF
:10159000626C65733A20533D4D696E2066656564E3
:1015A0007261746520286D6D2F73292C20543D4D78
:1015B000696E2074726176656C206665656472611F
:1015C000746520286D6D2F73292C20423D6D696E46
:1015D000696D756D207365676D656E742074696DD6
:1015E0006520286D73292C20583D6D6178696D75D3
:1015F0006D205859206A65726B20286D6D2F7329F4
:101600002C20205A3D6D6178696D756D205A206AD5
:1016100065726B20286D6D2F73292C2020453D6D40
:101620006178696D756D2045206A65726B20286D43
:101630006D2F73290020540020204D323034205368
:1016400000416363656C65726174696F6E3A205323
:101650003D616363656C65726174696F6E2C2054C3
:101660003D7265747261637420616363656C657259
:101670006174696F6E00204500205A0020590020D7
:10168000204D3230312058004D6178696D756D20E4
:10169000416363656C65726174696F6E20286D6D5E
:1016A0002F7332293A00204500205A00205900208B
:1016B000204D3230332058004D6178696D756D20B2
:1016C00066656564726174657320286D6D2F73297A
:1016D0003A00204500205A0020590020204D393280
:1016E00020580053746570732070657220756E69A0
:1016F000743A0053657474696E67732053746F7223
:101700006564006563686F3A000243617264207229
:10171000656D6F766564004361726420696E736500
:1017200072746564002D2D3A2D2D002D2D2D005342
:1017300044002059000120000120004D36303000C7
:101740004368616E67652066696C616D656E7400E3
:10175000466C6F77203100466C6F77203100466C05
:101760006F77203000466C6F77203000466C6F77C3
:1017700000466C6F770046616E207370656564008B
:1017800046616E207370656564004E6F7A7A6C6591
:1017900032004E6F7A7A6C6532004E6F7A7A6C65E1
:1017A000004E6F7A7A6C6500537065656400537003
:1017B000656564004D61696E0050726568656174AD
:1017C00020504C4120416C6C00507265686561741A
:1017D00020504C4120320050726568656174205081
:1017E0004C41203100507265706172650050726525
:1017F000686561742041425320416C6C00507265F1
:1018000068656174204142532032005072656865FA
:1018100061742041425320310050726570617265DD
:1018200000580059005A004578747275646572005A
:101830004578747275646572004D6F7665205A0044
:101840004D6F76652059004D6F76652058004D6FBD
:1018500076652061786973004D6F766520302E3192
:101860006D6D004D6F766520316D6D004D6F766545
:101870002031306D6D0050726570617265004D6F82
:1018800076652061786973004D383000537769744C
:10189000636820706F776572206F6E004D3831007D
:1018A00053776974636820706F776572206F66661E
:1018B00000436F6F6C646F776E005072656865618E
:1018C0007420414253005072656865617420504C29
:1018D0004100473238004175746F20686F6D6500B4
:1018E0004D38340044697361626C652073746570AF
:1018F00070657273004D61696E0053746F7265207C
:101900006D656D6F7279004E6F7A7A6C65004E6FFF
:101910007A7A6C650046616E207370656564004676
:10192000616E2073706565640054656D70657261E9
:10193000747572650053746F7265206D656D6F729A
:1019400079004E6F7A7A6C65004E6F7A7A6C65001A
:1019500046616E2073706565640046616E20737029
:101960006565640054656D706572617475726500BB
:10197000507265686561742041425320636F6E66E2
:10198000005072656865617420504C4120636F6E31
:1019900066005049442D43005049442D43005049AE
:1019A000442D44005049442D44005049442D4900E1
:1019B0005049442D49005049442D50005049442D70
:1019C000500046616E2073706565640046616E204C
:1019D0007370656564004E6F7A7A6C6532004E6F85
:1019E0007A7A6C6532004E6F7A7A6C65004E6F7A47
:1019F0007A6C6500436F6E74726F6C00457374652A
:101A000070732F6D6D004573746570732F6D6D006D
:101A10005A73746570732F6D6D005A7374657073AB
:101A20002F6D6D005973746570732F6D6D00597350
:101A3000746570732F6D6D005873746570732F6DBE
:101A40006D005873746570732F6D6D00412D726554
:101A5000747261637400412D726574726163740005
:101A6000416D6178206500416D6178206500416DB0
:101A70006178207A00416D6178207A00416D61784B
:101A8000207900416D6178207900416D617820787E
:101A900000416D61782078005654726176206D693E
:101AA0006E005654726176206D696E00566D696ED7
:101AB00000566D696E00566D6178206500566D6147
:101AC00078206500566D6178207A00566D61782027
:101AD0007A00566D6178207900566D617820790022
:101AE000566D6178207800566D61782078005665D3
:101AF0002D6A65726B0056652D6A65726B00567AA9
:101B00002D6A65726B00567A2D6A65726B00567885
:101B1000792D6A65726B005678792D6A65726B0053
:101B2000416363656C00416363656C00436F6E7471
:101B3000726F6C004A756E2031372032303136209A
:101B400031333A31313A3131003235303030305F73
:101B50006475616C00556C74696D616B65723A5F98
:101B600031352E30342E372D524335004669726D93
:101B7000776172652076657273696F6E004669726F
:101B80006D776172652076657273696F6E0052655C
:101B900073746F7265206661696C73616665004C71
:101BA0006F6164206D656D6F72790053746F72653B
:101BB000206D656D6F7279004D6F74696F6E0054A2
:101BC000656D7065726174757265004D61696E0056
:101BD0004D383420582059205A2045004D323400C9
:101BE0004D323320257300052E2E004D61696E00A5
:101BF0004E6F2053442063617264005072696E74AA
:101C00002066726F6D2053440053746F70207072A1
:101C1000696E7400526573756D65207072696E74BB
:101C2000005061757365207072696E7400436F6E49
:101C300074726F6C00507265706172650054756EDD
:101C40006500496E666F2073637265656E004E4174
:101C50004E494E495459494E46CDCCCC3D0AD72326
:101C60003C17B7D13877CC2B329595E6241FB14F6E
:101C70000A000020410000C84200401C4620BCBEB3
:101C80004CCA1B0E5AAEC59D74000C94E6700C94A1
:101C9000811F0C94A1100C945EBC0C9469100C94E0
:101CA00082B30C94E2700C94DFB50C94CE100C94BB
:101CB00000B30C9483100C948D100C94FB8D0C9439
:101CC00073100C9465700C94D8100C9431940C948F
:101CD00032130C943A110C945A890C94E2100C941F
:101CE00011110C946C1F0C9455100C9427110C942A
:101CF00023110C9407110C94611F0C94561F0C9423
:101D00007EB20C9460AD0C942D110C940F8E0C943B
:101D100035460C94A7A10C94878C0C9400110C945C
:101D200074700C9410A00C94C8700C94F6100C9461
:101D30001F110C943CB50C9432B10C9497100C9478
:101D400035110C94825C0C9402B40C9408380C94F9
:101D50007FB10C9490700C94B9700C940FB80C94E3
:101D60000B110C94FA100C94958C0C9482B60C9474
:101D700099B40C945A100C94C08A0C940C380C949E
:101D800051960C9403110C947B100C94EE700C94EF
:101D900015110C94771F0C9419110C94C98E0C9486
:101DA00031110C94D9980C949F700C94BA100C9427
:101DB00096A60C945F100C94E2B70C9497910C9437
:101DC000C4100C942AB70C94B0100C94798C0C9419
:101DD000FCB10C94799E0C94609A083832B10C389E
:101DE00011241FBECFEFD1E2DEBFCDBF00E00CBF9C
:101DF00014E0A0E0B2E0EEEBFFE801E00BBF02C0B0
:101E000007900D92A23BB107D9F712E1A2EBB4E023
:101E100001C01D92A03CB107E1F71DE1CEEDDDE16F
:101E200000E006C022970109FE010BBF0E9487C196
:101E3000CA3DD10780E00807A9F70E9464BC0C9452
:101E4000CDC70C9400001F920F920FB60F92112471
:101E50002F933F938F939F93AF93BF938091B3043E
:101E60009091B404A091B504B091B6043091B2043D
:101E700023E0230F2D3720F40196A11DB11D05C0CD
:101E800026E8230F0296A11DB11D2093B204809372
:101E9000B3049093B404A093B504B093B6048091B6
:101EA000B7049091B804A091B904B091BA04019616
:101EB000A11DB11D8093B7049093B804A093B904F9
:101EC000B093BA04BF91AF919F918F913F912F91A1
:101ED0000F900FBE0F901F9018952FB7F894609138
:101EE000B3047091B4048091B5049091B6042FBFEF
:101EF00008953FB7F8948091B7049091B804A091E9
:101F0000B904B091BA0426B5A89B05C02F3F19F0BB
:101F10000196A11DB11D3FBF6627782F892F9A2FEB
:101F2000620F711D811D911D42E0660F771F881F92
:101F3000991F4A95D1F70895CF92DF92EF92FF92C1
:101F4000CF93DF936B017C010E94790FEB01C114E9
:101F5000D104E104F10479F00E94790F6C1B7D0B30
:101F6000683E7340A0F381E0C81AD108E108F10887
:101F7000C851DC4FECCFDF91CF91FF90EF90DF9015
:101F8000CF9008950197009739F0880F991F880F17
:101F9000991F02970197F1F70895789484B58260AC
:101FA00084BD84B5816084BD85B5826085BD85B5FD
:101FB000816085BDEEE6F0E0808181608083E1E8AC
:101FC000F0E01082808182608083808181608083E4
:101FD000E0E8F0E0808181608083E1EBF0E08081E7
:101FE00084608083E0EBF0E0808181608083E1E9C0
:101FF000F0E0808182608083808181608083E0E97D
:10200000F0E0808181608083E1EAF0E0808182609D
:102010008083808181608083E0EAF0E0808181605C
:102020008083E1E2F1E08081826080838081816051
:102030008083E0E2F1E0808181608083EAE7F0E084
:1020400080818460808380818260808380818160E0
:1020500080838081806880831092C10008951F93DF
:10206000CF93DF93182FEB0161E00E943B11209783
:1020700011F460E004C0CF3FD10539F461E0812F55
:10208000DF91CF911F910C947411E12FF0E0E35692
:10209000FE4F449150E0FA013197E131F10508F02B
:1020A00091C0EE58FF4F0C9472C184B5806884BD16
:1020B000C7BD8DC084B5806284BDC8BD88C0809115
:1020C0008000806880938000D0938900C09388004E
:1020D0007EC080918000806280938000D0938B00CE
:1020E000C0938A0074C08091B00080688093B00073
:1020F000C093B3006CC08091B00080628093B00048
:10210000C093B40064C08091900080688093900078
:10211000D0939900C09398005AC08091900080623B
:1021200080939000D0939B00C0939A0050C0809100
:102130009000886080939000D0939D00C0939C0095
:1021400046C08091A00080688093A0008091A0008C
:102150008F7B8093A000D093A900C093A80037C0C4
:102160008091A00080628093A000D093AB00C093C8
:10217000AA002DC08091A00088608093A000D09319
:10218000AD00C093AC0023C0809120018068809393
:102190002001D0932901C093280119C0809120010A
:1021A000806280932001D0932B01C0932A010FC03D
:1021B00080912001886080932001D0932D01C093ED
:1021C0002C0105C0C038D1050CF058CF52CFDF919B
:1021D000CF911F91089590E0FC013197E131F10515
:1021E00008F048C0ED57FF4F0C9472C180918000F9
:1021F0008F7703C0809180008F7D80938000089549
:1022000084B58F7702C084B58F7D84BD0895809199
:10221000B0008F7703C08091B0008F7D8093B000B5
:102220000895809190008F7707C0809190008F7DF6
:1022300003C080919000877F8093900008958091E3
:10224000A0008F7707C08091A0008F7D03C0809190
:10225000A000877F8093A0000895809120018F7750
:1022600007C0809120018F7D03C080912001877F6E
:10227000809320010895CF93DF9390E0FC01ED510E
:10228000FE4F2491FC01E75DFD4F8491882349F1C5
:1022900090E0880F991FFC01E757FD4FA591B4917D
:1022A00081599D4FFC01C591D4919FB7611108C020
:1022B000F8948C91209582238C93888182230AC084
:1022C000623051F4F8948C91322F309583238C93A3
:1022D0008881822B888304C0F8948C91822B8C9304
:1022E0009FBFDF91CF9108950F931F93CF93DF93FB
:1022F0001F92CDB7DEB7282F30E0F901E356FE4F2D
:102300008491F901ED51FE4F1491F901E75DFD4F04
:1023100004910023C9F0882321F069830E94EB1007
:102320006981E02FF0E0EE0FFF1FE159FD4FA5910D
:10233000B4919FB7F8948C91611103C010958123DB
:1023400001C0812B8C939FBF0F90DF91CF911F9184
:102350000F9108951F920F920FB60F9211240BB692
:102360000F922F933F934F935F936F937F938F932E
:102370009F93AF93BF93EF93FF938091BF0490918E
:10238000C004892B29F0E091BF04F091C004199595
:10239000FF91EF91BF91AF919F918F917F916F913D
:1023A0005F914F913F912F910F900BBE0F900FBEF9
:1023B0000F901F9018951F920F920FB60F92112435
:1023C0000BB60F922F933F934F935F936F937F932F
:1023D0008F939F93AF93BF93EF93FF938091C1042B
:1023E0009091C204892B29F0E091C104F091C204BC
:1023F0001995FF91EF91BF91AF919F918F917F912F
:102400006F915F914F913F912F910F900BBE0F9065
:102410000FBE0F901F9018951F920F920FB60F923C
:1024200011240BB60F922F933F934F935F936F93AB
:102430007F938F939F93AF93BF93EF93FF9380917D
:10244000C3049091C404892B29F0E091C304F09156
:10245000C4041995FF91EF91BF91AF919F918F9116
:102460007F916F915F914F913F912F910F900BBE94
:102470000F900FBE0F901F9018951F920F920FB6DE
:102480000F9211240BB60F922F933F934F935F93AC
:102490006F937F938F939F93AF93BF93EF93FF932C
:1024A0008091C5049091C604892B29F0E091C50460
:1024B000F091C6041995FF91EF91BF91AF919F9153
:1024C0008F917F916F915F914F913F912F910F90DD
:1024D0000BBE0F900FBE0F901F9018951F920F927A
:1024E0000FB60F9211240BB60F922F933F934F9379
:1024F0005F936F937F938F939F93AF93BF93EF936C
:10250000FF938091BB049091BC04892B29F0E0914A
:10251000BB04F091BC041995FF91EF91BF91AF916D
:102520009F918F917F916F915F914F913F912F91EB
:102530000F900BBE0F900FBE0F901F9018951F921B
:102540000F920FB60F9211240BB60F922F933F9359
:102550004F935F936F937F938F939F93AF93BF93AB
:10256000EF93FF938091BD049091BE04892B29F0D5
:10257000E091BD04F091BE041995FF91EF91BF91D8
:10258000AF919F918F917F916F915F914F913F910B
:102590002F910F900BBE0F900FBE0F901F901895AC
:1025A0001F920F920FB60F9211240BB60F922F931A
:1025B0003F934F935F936F937F938F939F93AF93CB
:1025C000BF93EF93FF938091C7049091C804892B28
:1025D00029F0E091C704F091C8041995FF91EF919B
:1025E000BF91AF919F918F917F916F915F914F912B
:1025F0003F912F910F900BBE0F900FBE0F901F9029
:1026000018951F920F920FB60F9211240BB60F92CE
:102610002F933F934F935F936F937F938F939F93EA
:10262000AF93BF93EF93FF938091C9049091CA0435
:10263000892B29F0E091C904F091CA041995FF9102
:10264000EF91BF91AF919F918F917F916F915F912A
:102650004F913F912F910F900BBE0F900FBE0F9097
:102660001F901895CF92DF92EF92FF920F931F93D6
:10267000CF93DF936C017A01EB01E60EF71E00E0C9
:1026800010E0CE15DF0561F06991D601ED91FC9166
:102690000190F081E02DC6011995080F191FF1CFA7
:1026A000C801DF91CF911F910F91FF90EF90DF90C4
:1026B000CF9008956115710581F0DB010D90002028
:1026C000E9F7AD0141505109461B570BDC01ED9173
:1026D000FC910280F381E02D199480E090E0089550
:1026E0000C945A13DC01ED91FC910190F081E02DE6
:1026F0001994FC0165917591859194910895CF92FB
:10270000DF92EF92FF920F931F93CF93DF93EC0131
:10271000CC0FDD1FCC0FDD1FCE01865C974F0E94D2
:102720007913FE01EA53F94FC080D180E280F38033
:102730008E010E52194FA70196010E9472BCF8013A
:102740006083718382839383CE018E5A974F0E9458
:1027500079138E010654194FA70196010E9472BC8D
:10276000F8016083718382839383CE018A5B974FE4
:102770000E947913CB5EDD4FA70196010E9472BCC7
:10278000688379838A839B83DF91CF911F910F9117
:10279000FF90EF90DF90CF9008952F923F924F924D
:1027A0005F926F927F928F929F92AF92BF92CF92E1
:1027B000DF92EF92FF920F931F93CF93DF9300D09E
:1027C00000D0CDB7DEB79A838983FC01E15EF74F75
:1027D00094905C01AA0CBB1CAA0CBB1CC5018E52B8
:1027E000994F1C01DC011D921D921D921C921397A2
:1027F0002EED36E04AED56E066ED76E082ED96E0AD
:102800000E94B05BC501825D974F0E9479136B01F6
:102810007C01692D772767FD7095872F972F0E9480
:10282000EDBD2B013C01F501E057F94FFC83EB8333
:1028300020E030E040EC5FE3C701B6010E9420C019
:10284000A30192010E9420C0AB81BC816D937D9356
:102850008D939C931397F501EF5CFD4FFE83ED8301
:10286000608171818281938160930F027093100265
:10287000809311029093120220E030E040E752E48E
:102880000E9452BD22EAC22E26E0D22E7B018C018C
:102890002CE936E048E956E064E976E080E996E024
:1028A0000E9406520E945765D1011D921D921D92F1
:1028B0001C9213972EED36E04AED56E066ED76E079
:1028C00082ED96E00E94B05BC5018E5D974F0E943D
:1028D00079134B015C019058A30192010E9420C022
:1028E000EB81FC81608371838283938320E030E0FD
:1028F00040E752E460910F02709110028091110242
:10290000909112020E9452BD7B018C012CE936E0AD
:1029100048E956E064E976E080E996E00E940652D4
:102920000E945765A5019401C501B4010E9472BCC3
:10293000A30192010E9420C0AB81BC816D937D9365
:102940008D939C93139720E030E040E05FE3ED81AE
:10295000FE8160817181828193810E9420C0609399
:102960000F0270931002809311029093120220E0E4
:1029700030E040E752E40E9452BD7B018C012CE91B
:1029800036E048E956E064E976E080E996E00E94A6
:1029900006520E94576589819A810E947F13F10136
:1029A00080819181A281B381EB81FC8180839183BD
:1029B000A283B38310920F021092100210921102A0
:1029C000109212020E94655DE981FA81E954F94F83
:1029D00081E0808326960FB6F894DEBF0FBECDBF90
:1029E000DF91CF911F910F91FF90EF90DF90CF90EB
:1029F000BF90AF909F908F907F906F905F904F901F
:102A00003F902F900895FC012491222341F03091B2
:102A1000C00035FFFCCF2093C6000196F4CF22E022
:102A200030E085E799E00C94413AFC01249122239F
:102A300041F03091C00035FFFCCF2093C6000196D5
:102A4000F4CF2AE030E085E799E00C949039CF93F9
:102A5000DF931F921F92CDB7DEB78091BA1290918B
:102A6000BB129E012F5F3F4F009719F4205C32414B
:102A700002C0281B390B3A83298389819A810F90E0
:102A80000F90DF91CF9108952091E5043091E604F5
:102A9000243031050CF06AC04091E7045091E804FD
:102AA00060E6649F9001659F300D1124BC01C9014F
:102AB00081519B4F0E94C0C4EEE5F8E084918823C9
:102AC00041F09091C00095FFFCCF8093C6003196F5
:102AD000F5CFE4E1F8E08491882341F09091C000C3
:102AE00095FFFCCF8093C6003196F5CF8091E70427
:102AF0009091E80420E6289FF001299FF00D112411
:102B0000E151FB4F8191882339F09091C00095FFEE
:102B1000FCCF8093C600F6CFE2E1F8E084918823F1
:102B200041F09091C00095FFFCCF8093C600319694
:102B3000F5CF8091C00085FFFCCF8AE08093C6006E
:102B40008091E7049091E804019664E070E00E94AF
:102B50001DC19093E8048093E7048091E50490916F
:102B6000E60401969093E6048093E504089520918D
:102B7000E5043091E604243031050CF06AC0409140
:102B8000E7045091E80460E6649F9001659F300D72
:102B90001124BC01C90181519B4F0E944CC4EEE538
:102BA000F8E08491882341F09091C00095FFFCCF1C
:102BB0008093C6003196F5CFE7E0F8E08491882352
:102BC00041F09091C00095FFFCCF8093C6003196F4
:102BD000F5CF8091E7049091E80420E6289FF0016A
:102BE000299FF00D1124E151FB4F8191882339F089
:102BF0009091C00095FFFCCF8093C600F6CFE5E032
:102C0000F8E08491882341F09091C00095FFFCCFBB
:102C10008093C6003196F5CF8091C00085FFFCCF30
:102C20008AE08093C6008091E7049091E8040196C1
:102C300064E070E00E941DC19093E8048093E70473
:102C40008091E5049091E60401969093E6048093C8
:102C5000E5040895809A889A269A2E980895809A75
:102C6000889808950E942A1640E950ED63E070E0CC
:102C700085E799E00E944938EFEFF7E084918823D7
:102C800041F09091C00095FFFCCF8093C600319633
:102C9000F5CF8091C00085FFFCCF8AE08093C6000D
:102CA0008EE598E0FC012491222341F03091C00090
:102CB00035FFFCCF2093C6003196F5CF24B720FF17
:102CC00014C0E7EFF7E03491332341F04091C000A6
:102CD00045FFFCCF3093C6003196F5CF3091C00050
:102CE00035FFFCCF3AE03093C60021FF14C0E7EE79
:102CF000F7E03491332341F04091C00045FFFCCF11
:102D00003093C6003196F5CF3091C00035FFFCCF2F
:102D10003AE03093C60022FF14C0E6EDF7E03491AC
:102D2000332341F04091C00045FFFCCF3093C600F3
:102D30003196F5CF3091C00035FFFCCF3AE03093AB
:102D4000C60023FF14C0E6ECF7E03491332341F0D2
:102D50004091C00045FFFCCF3093C6003196F5CFBF
:102D60003091C00035FFFCCF3AE03093C60025FF1C
:102D700014C0E6EBF7E02491222341F03091C0002B
:102D800035FFFCCF2093C6003196F5CF2091C000CF
:102D900025FFFCCF2AE02093C60014BEEFEAF7E03F
:102DA0002491222341F03091C00035FFFCCF2093C5
:102DB000C6003196F5CFE9EAF7E02491222341F0ED
:102DC0003091C00035FFFCCF2093C6003196F5CF7F
:102DD0002091C00025FFFCCF2AE02093C600FC0113
:102DE0002491EEE5F8E0222349F03091C00035FF50
:102DF000FCCF2093C60031962491F5CFE9E9F7E0A6
:102E00002491222341F03091C00035FFFCCF209364
:102E1000C6003196F5CFE4E8F7E02491222341F093
:102E20003091C00035FFFCCF2093C6003196F5CF1E
:102E3000E8E7F7E02491222341F03091C00035FF0C
:102E4000FCCF2093C6003196F5CFEAE6F7E0249157
:102E5000222341F03091C00035FFFCCF2093C60003
:102E60003196F5CF2091C00025FFFCCF2AE02093BA
:102E7000C600EFE5F7E02491222341F03091C00035
:102E800035FFFCCF2093C6003196F5CFE3E5F7E0A0
:102E90002491222341F03091C00035FFFCCF2093D4
:102EA000C6003196F5CF2091C00025FFFCCF2AE067
:102EB0002093C600FC018491EEE5F8E0882349F0F8
:102EC0009091C00095FFFCCF8093C600319684910D
:102ED000F5CFE4E4F7E08491882341F09091C000BD
:102EE00095FFFCCF8093C6003196F5CF0E94271541
:102EF0004AE050E0BC0185E799E00E946139EDE2CB
:102F0000F7E08491882341F09091C00095FFFCCFB9
:102F10008093C6003196F5CF4AE050E060ED74E052
:102F200085E799E00E9461398091C00085FFFCCF60
:102F30008AE08093C6001092EB041092EC04109289
:102F4000ED041092EE040E94C4820E94D2690E9495
:102F5000B6510E94C3830E94CD640E94699CFFEF1A
:102F600023ED80E3F15020408040E1F700C00000F5
:102F700008958091DF049091E00460E070E0019694
:102F80000C948BC18091DF049091E0044AE050E002
:102F900060E070E001960C9408C3682F70E0209107
:102FA000E9043091EA0440E6429FC001439F900D3E
:102FB000112481519B4F0E94B5C49093E0048093EB
:102FC000DF0421E0892B09F420E0822F08950E947C
:102FD0006D0F6093DB047093DC048093DD049093A9
:102FE000DE0408950E946D0F6093DB047093DC048F
:102FF0008093DD049093DE04E091E904F091EA040B
:10300000E551FB4F8081811114C0EBE4F3E0849122
:10301000882341F09091C00095FFFCCF8093C600BB
:103020003196F5CF8091C00085FFFCCF8AE0809378
:10303000C600089585E799E00E949B38EEE4F3E02E
:103040008491882341F09091C00095FFFCCF80933C
:10305000C6003196F5CF4091740650917506609187
:103060007606709177064F5F5F4F6F4F7F4F2AE074
:1030700030E085E799E00E943A398091C00085FFF1
:10308000FCCF8AE08093C6000C94F2172F923F92F7
:103090004F925F926F927F928F929F92AF92BF9268
:1030A000CF92DF92EF92FF920F931F93CF93DF9314
:1030B000CDB7DEB76F970FB6F894DEBF0FBECDBFAA
:1030C00060E6D62E74E0E72EF12CE0EFF5E0B49048
:1030D000EAE0CE2EE6E6F6E0A4909924939480915F
:1030E000F6099091F7092091F8093091F909821BAE
:1030F000930B8F779927892B39F08091E504909174
:10310000E60404970CF44DC08091EA06882309F484
:103110008CC38091E2049091E304892B09F085C36C
:103120008091E5049091E604892B11F41092CB0470
:10313000E3EDF5E024904CE3C42ED12CE12CF12CEE
:1031400050E1452E5EE0552E612C712C8E010F5FF3
:103150001F4F30E6332EEEE5F8E094919F8F4091BB
:103160006B0950916C0960916D0970916E098091A5
:10317000630990916409A0916509B09166094817A7
:1031800059076A077B0708F050C38091E5049091C6
:10319000E60404970CF049C38091CB04811145C328
:1031A00021C285E799E00E947F388093E404209152
:1031B000E2043091E3048A3061F08D3051F08A33BB
:1031C00021F49091E104992321F02F3531050CF47D
:1031D0008DC12115310509F4A7C18091E7049091B3
:1031E000E804D89E8001D99E100D1124F801E20F49
:1031F000F31FE151FB4F10822091E104211171C1B5
:103200001092E104FC01E551FB4F1082980121511D
:103210003B4F39016EE470E0C9010E94B5C40097CC
:1032200009F4A2C09093E0048093DF048619970903
:10323000800F911F4AE050E060E070E080519B4FAA
:103240000E9408C3609378067093790680937A068B
:1032500090937B06409074065090750660907606B9
:10326000709077063FEF431A530A630A730A00917E
:10327000E7041091E804641575058605970509F4BF
:1032800056C1D09EC001D19E900D11246FE077E011
:1032900081519B4F0E947AC4892B09F048C1E4E612
:1032A000F8E08491882341F09091C00095FFFCCF15
:1032B0008093C6003196F5CFECEDF6E0849188233B
:1032C00041F09091C00095FFFCCF8093C6003196ED
:1032D000F5CF409174065091750660917606709115
:1032E00077062AE030E085E799E00E943A3980913C
:1032F000C00085FFFCCF32C09093E0048093DF04D0
:1033000084199509860D971D60E070E080519B4FF0
:103310000E948BC10E94BABD212F30E026173707CB
:1033200009F45EC0E4E6F8E0849181114BC1EDEB55
:10333000F6E0849181114EC140917406509175065A
:1033400060917606709177062AE030E085E799E093
:103350000E943A398091C00085FFFCCF8AE08093BB
:10336000C6000E941A1837C06AE270E0C3010E94CA
:10337000B5C4892B09F444C0E4E6F8E084918823BD
:1033800041F09091C00095FFFCCF8093C60031962C
:10339000F5CFE9E6F6E08491882341F09091C000F2
:1033A00095FFFCCF8093C6003196F5CF409174060F
:1033B0005091750660917606709177062AE030E0AC
:1033C00085E799E00E943A398091C00085FFFCCFE3
:1033D0008AE08093C6001092E3041092E20425C2B2
:1033E0008091780690917906A0917A06B0917B063B
:1033F0008093740690937506A0937606B093770633
:103400008091E7049091E804D89E8001D99E100D28
:103410001124C80181519B4F3C0167E470E00E9478
:10342000B5C4009709F448C09093E0048093DF048A
:1034300086199709800F911F60E070E080519B4FC3
:103440000E948BC10E94BABD64307105A8F58091BD
:10345000CD04811119C08091E80681112DC08A2DFB
:10346000E6E6F6E0882349F09091C00095FFFCCF96
:103470008093C60031968491F5CF8091C00085FF7E
:10348000FCCFC092C60018C08B2DE0EFF5E088237A
:1034900049F09091C00095FFFCCF8093C600319613
:1034A0008491F5CF8091C00085FFFCCFC092C6000B
:1034B00086EE95E00E94F69B8091E7049091E804E7
:1034C0000196B7010E941DC19093E8048093E70420
:1034D0008091E5049091E60401969093E604809330
:1034E000E5041092E3041092E204F9CD8B3311F459
:1034F0009092E1049091E1049111F1CD4091E704A3
:103500005091E804B9016F5F7F4F7093E3046093BB
:10351000E204D49EF001D59EF00D1124E20FF31FBA
:10352000E151FB4F8083DBCD1092E1047EC1D09E40
:103530003001D19E700C1124930121513B4F290180
:103540006AE270E0C9010E94B5C4009769F5E4E63B
:10355000F8E08491882341F09091C00095FFFCCF62
:103560008093C6003196F5CFE3E9F6E08491882395
:1035700041F09091C00095FFFCCF8093C60031963A
:10358000F5CF409174065091750660917606709162
:1035900077062AE030E085E799E00E943A39809189
:1035A000C00085FFFCCFDACE20E010E0F301E20F8F
:1035B000F11DE151FB4F30813A3209F49DCE2F5F6E
:1035C0001327F4CF9091C00095FFFCCF8093C600E5
:1035D0003196AACE9091C00095FFFCCF8093C60093
:1035E0003196A7CE8091BE089091BF08A091C008E7
:1035F000B091C10880936B0990936C09A0936D09F9
:10360000B0936E0986EB98E00E94313F482F80937B
:10361000E4048A30B9F04D30A9F0433229F4209106
:10362000E104222379F002C04A33C9F32091E20475
:103630003091E3042F3531052CF48F3FAFEF9A071B
:1036400009F0D4C040916B0950916C0960916D09EB
:1036500070916E098091630990916409A091650948
:10366000B0916609481759076A077B0708F482C0BA
:10367000822DE3EDF5E0882349F09091C00095FF9D
:10368000FCCF8093C60031968491F5CF8091C00025
:1036900085FFFCCF8AE08093C6000E946D0F609387
:1036A000CF047093D0048093D1049093D20480907F
:1036B000D3049090D404A090D504B090D604681997
:1036C00079098A099B0928EE33E040E050E00E9426
:1036D00031C149015A01CA01B901A70196010E94ED
:1036E00031C1CA01B901A70196010E9431C17F937E
:1036F0006F93C501B401A30192010E9431C13F93B0
:103700002F93AFEBB5E0BF93AF931F930F930E943E
:10371000E4C48F8D0FB6F894DEBF0FBECDBFEEE5CB
:10372000F8E0882349F09091C00095FFFCCF80938A
:10373000C60031968491F5CFF8018191882339F044
:103740009091C00095FFFCCF8093C600F6CF80918A
:10375000C00085FFFCCF8AE08093C600C8010E94AC
:10376000E79B88EE96E00E94E27C61E088EE96E0BE
:103770000E94457A8091E404833219F481E08093B9
:10378000CB042091E2043091E3042115310509F4C2
:10379000CBCE8091E7049091E804389EF001399EE9
:1037A000F00D1124E20FF31FE151FB4F1082FC01D9
:1037B000E551FB4F21E020832091E5043091E604A0
:1037C0002F5F3F4F3093E6042093E504019664E0B9
:1037D00070E00E941DC19093E8048093E70410926A
:1037E000E1041092E3041092E204B9CC4B3319F4D3
:1037F00041E04093E1044091E1044111AACC4091A1
:10380000E7045091E804B9016F5F7F4F7093E304C0
:103810006093E204349EF001359EF00D1124E20F16
:10382000F31FE151FB4F80839ACC6F960FB6F8944B
:10383000DEBF0FBECDBFDF91CF911F910F91FF90E3
:10384000EF90DF90CF90BF90AF909F908F907F9040
:103850006F905F904F903F902F9008958F929F921E
:10386000AF92BF92CF92DF92EF92FF920F931F938E
:10387000CF93DF93F3E2EF2EF4E0FF2E02ED16E09C
:10388000C0E9D6E0A4EECA2EA6E0DA2EF7018191B7
:103890007F010E94CD17882319F10E94B9174B01AF
:1038A0005C01F6018081811103C060916F0601C047
:1038B00061E070E080E090E00E94EDBDF8012081C1
:1038C0003181428153810E9420C09B01AC01C5011E
:1038D000B4010E9472BC688379838A839B8309C088
:1038E000F80180819181A281B38188839983AA8321
:1038F000BB830C5F1F4F2496FFEFCF1ADF0A87E2CE
:10390000E81684E0F80611F686E40E94CD178823B5
:10391000D9F00E94B9176B017C0160938006709307
:103920008106809382069093830620E030E0A9010F
:103930000E944EBF181644F4C0920F02D09210029B
:10394000E0921102F0921202DF91CF911F910F913C
:10395000FF90EF90DF90CF90BF90AF909F908F90AF
:1039600008950E942E1C89E40E94CD17882359F0E7
:103970000E94B9176093840670938506809386062B
:103980009093870608C010928406109285061092C4
:103990008606109287068AE40E94CD17882359F084
:1039A0000E94B917609388067093890680938A06EF
:1039B00090938B06089510928806109289061092B3
:1039C0008A0610928B0608950895CF92DF92EF92A7
:1039D000FF920F931F930E946D0F6093DB0470930F
:1039E000DC048093DD049093DE04209190063091F6
:1039F000910640919206509193066091D206709183
:103A0000D3068091D4069091D5060E944BBD8111BA
:103A100079C0209194063091950640919606509178
:103A200097066091D6067091D7068091D80690913E
:103A3000D9060E944BBD811165C020E030E040E70F
:103A400052E460910F0270911002809111029091E6
:103A500012020E9452BDB2EACB2EB6E0DB2E7B01F1
:103A60008C012CE936E048E956E064E976E080E92B
:103A700096E00E9406528091900690919106A09146
:103A80009206B09193068093D2069093D306A093AA
:103A9000D406B093D5068091940690919506A09196
:103AA0009606B09197068093D6069093D706A0937A
:103AB000D806B093D9068091980690919906A09166
:103AC0009A06B0919B068093DA069093DB06A0934A
:103AD000DC06B093DD0680919C0690919D06A09136
:103AE0009E06B0919F068093DE069093DF06A0931A
:103AF000E006B093E1061F910F91FF90EF90DF90E9
:103B0000CF90089560912F0270913002882777FD41
:103B10008095982F0E94EDBD20910F0230911002E8
:103B200040911102509112020E9420C020E030E02A
:103B300040E752E40E9452BD20E030E048EC52E4FD
:103B400088CFAF92BF92CF92DF92EF92FF920F9306
:103B50001F93CF93DF93D82F209188063091890649
:103B600040918A0650918B0660918406709185067B
:103B700080918606909187060E945BBFC62F172F03
:103B8000082FF92E60912F0270913002882777FD5F
:103B90008095982F0E94EDBD20910F023091100268
:103BA00040911102509112020E9420C020E030E0AA
:103BB00040E752E40E9452BD20E030E048EC52E47D
:103BC0000E9452BD2091A2062F93DF93FF920F9384
:103BD0001F93CF935B016C01C2E0EC2E01E020E06B
:103BE00044E856E060E976E082ED96E00E94E54A1E
:103BF0008091900690919106A0919206B0919306C3
:103C00008093D2069093D306A093D406B093D506A2
:103C10008091940690919506A0919606B091970692
:103C20008093D6069093D706A093D806B093D90672
:103C30008091980690919906A0919A06B0919B0662
:103C40008093DA069093DB06A093DC06B093DD0642
:103C500080919C0690919D06A0919E06B0919F0632
:103C60008093DE069093DF06A093E006B093E10612
:103C70000E946D0F6093DB047093DC048093DD047D
:103C80009093DE040F900F900F900F900F900F9075
:103C9000DF91CF911F910F91FF90EF90DF90CF9028
:103CA000BF90AF900895F8940E94266B159A1092D9
:103CB000B706179A1092B806429A1092B906A09ABF
:103CC0009FB7F89480910B01826080930B019FBF96
:103CD00060E08CE00E943B11E4E6F8E084918823E8
:103CE00041F09091C00095FFFCCF8093C6003196C3
:103CF000F5CFECE2F3E08491882341F09091C0008D
:103D000095FFFCCF8093C6003196F5CF8091C0001F
:103D100085FFFCCF8AE08093C60083E293E00E9497
:103D2000059C0E942F16FFCFCF92DF92EF92FF9259
:103D30000F931F930E946D0F0091D7041091D80428
:103D40002091D9043091DA04C090DB04D090DC04D7
:103D5000E090DD04F090DE046C197D098E099F0966
:103D6000061717072807390730F4012B022B032BFE
:103D700011F00E94531E80910B0290910C02A091B1
:103D80000D02B0910E02892B8A2B8B2B09F10E9418
:103D90006D0F0091DB041091DC042091DD04309163
:103DA000DE04601B710B820B930B00910B021091D0
:103DB0000C0220910D0230910E02061717072807FA
:103DC000390730F49091080C8091070C981741F056
:103DD0001F910F91FF90EF90DF90CF900C94EA51DC
:103DE000159A1092B706179A1092B806429A109236
:103DF000B906A09A9FB7F89480910B0182608093D6
:103E00000B019FBFE5CF0E94266B8091CD048111ED
:103E100038C081E08093CD0480917406909175063E
:103E2000A0917606B0917706809370069093710604
:103E3000A0937206B0937306E4E6F8E084918823B9
:103E400041F09091C00095FFFCCF8093C600319661
:103E5000F5CFEDEAF2E08491882341F09091C00023
:103E600095FFFCCF8093C6003196F5CF8091C000BE
:103E700085FFFCCF8AE08093C60083EA92E00C9431
:103E8000F69B08958091CD04089567707727E82FF9
:103E9000F0E0E356FE4F849190E0FC013697EC3061
:103EA000F10578F5EC56FF4F0C9472C18091B1008A
:103EB000887F8093B1008091B100862B8093B10000
:103EC000089580919100887F809391008091910066
:103ED000862B8093910008958091A100887F809324
:103EE000A1008091A100862B8093A100089580916C
:103EF0002101887F8093210180912101862B80936D
:103F000021010895CF93DF93EC018091A206809365
:103F1000CE0484E50E94CD17811102C080E075C0F7
:103F20000E94B9170E94BFBD6093CE046230B0F307
:103F3000EEE5F8E08491882341F09091C00095FF70
:103F4000FCCF8093C6003196F5CFCD36D105B9F0C0
:103F500054F4C836D105B1F0C936D10509F045C0D1
:103F6000EAE3F3E021C0CA3DD10531F0CD3DD105F2
:103F7000E1F5E5EFF2E036C0ECE0F3E029C0E3E282
:103F8000F3E01CC0E1E5F3E08191882371F19091A9
:103F9000C00095FFFCCF8093C600F6CF9091C00083
:103FA00095FFFCCF8093C60081918111F7CF1DC092
:103FB0009091C00095FFFCCF8093C6008191811144
:103FC000F7CF13C09091C00095FFFCCF8093C6003F
:103FD00081918111F7CF09C09091C00095FFFCCF6E
:103FE0008093C60081918111F7CF40E050E060914D
:103FF000CE0485E799E00E949C398091C00085FF3E
:10400000FCCF8AE08093C60081E0DF91CF910895D4
:104010002F923F924F925F926F927F928F929F92D8
:10402000AF92BF92CF92DF92EF92FF920F931F93C6
:10403000CF93DF93CDB7DEB7E5970FB6F894DEBF29
:104040000FBECDBF87E40E94CD17882309F486C335
:104050000E94B9170E94BABD64307105D9F144F4C9
:104060006230710521F15CF577FF17C00C94733550
:104070006A35710509F41EC334F46C31710509F415
:1040800071C00C9473356B35710509F417C36C3529
:10409000710509F418C30C9473358091CD04811116
:1040A00006C00E942E1C0E94E51C0C9410378091C3
:1040B000CD04811104C00E94B11C81E007C0809131
:1040C000CD04811107C00E94B11C80E00E94A11D97
:1040D0000C94103786EB95E00E94F69B80E50E94D9
:1040E000CD17882339F00E94B9170E94BFBD4B013C
:1040F0005C0103C0812C912C540183E50E94CD17F3
:10410000882361F00E94B91720E030E04AE754E4C8
:104110000E9420C00E94BFBD4B015C010E945765F8
:104120000E946D0F6B017C01C80CD91CEA1CFB1CA2
:104130000E946D0F6093DB047093DC048093DD04B8
:104140009093DE040E946D0F6C157D058E059F0512
:1041500010F00C9473350E9466670E94941E0E94B2
:10416000929CF0CF80910F0290911002A0911102C9
:10417000B091120280937C0690937D06A0937E06F8
:10418000B0937F0680912F02909130029093E306C6
:104190008093E20684E690E09093300280932F02B1
:1041A0000E946D0F6093DB047093DC048093DD0448
:1041B0009093DE0481E00E946C5D8091D206909124
:1041C000D306A091D406B091D50680939006909323
:1041D0009106A0939206B09393068091D606909193
:1041E000D706A091D806B091D906809394069093F3
:1041F0009506A0939606B09397068091DA06909163
:10420000DB06A091DC06B091DD06809398069093C2
:104210009906A0939A06B0939B068091DE06909132
:10422000DF06A091E006B091E10680939C06909392
:104230009D06A0939E06B0939F0610920F021092C7
:104240001002109211021092120288E50E94CD17FE
:10425000882311F090E00AC089E50E94CD178111F2
:10426000F9CF8AE50E94CD1791E098279093130229
:1042700091110CC088E50E94CD17882309F46CC108
:1042800089E50E94CD17882309F466C11092D206F1
:104290001092D3061092D4061092D5061092D6062C
:1042A0001092D7061092D8061092D906EFE1F8E0E6
:1042B00014912EED36E04AED56E066ED76E082EDA3
:1042C00096E00E94B05B8EE298E00E9479136B0149
:1042D0007C0120E030E040EC5FE30E9420C04B0115
:1042E0005C01612F772767FD7095872F972F0E94BC
:1042F000EDBD9B01AC01C501B4010E9420C06093DB
:10430000900670939106809392069093930682E3B1
:1043100098E00E9479134B015C01E0E2F8E014910F
:1043200020E030E040EC5FE30E9420C02B013C0124
:10433000612F772767FD7095872F972F0E94EDBD1E
:104340009B01AC01C301B2010E9420C0609394069E
:10435000709395068093960690939706209131026C
:1043600030913202409133025091340220930F0277
:104370003093100240931102509312024090350284
:10438000509036026090370270903802C301B2013B
:104390000E944BBD87FF08C040920F02509210024E
:1043A0006092110270921202A5019401C701B60138
:1043B0000E944EBF181614F00C947635A701960192
:1043C000C501B4010E9452BD9B01AC010E9420C0F6
:1043D00020E030E040E85FE30E9472BC0E948DC0A4
:1043E0009B01AC0160910F0270911002809111024B
:1043F000909112020E9420C060930F0270931002ED
:10440000809311029093120220E030E040E752E4E2
:1044100060910F027091100280911102909112022E
:104420000E9452BDB2EACB2EB6E0DB2E7B018C019E
:104430002CE936E048E956E064E976E080E996E068
:104440000E9406520E94576580E090E00E947F1310
:1044500081E090E00E947F132EED36E04AED56E0B9
:1044600066ED76E082ED96E00E94B05B8091D20628
:104470009091D306A091D406B091D5068093900672
:1044800090939106A0939206B09393068091D606DE
:104490009091D706A091D806B091D9068093940642
:1044A00090939506A0939606B093970620E030E08F
:1044B00040E752E460910F02709110028091110266
:1044C000909112020E9452BD7B018C012CE936E0D2
:1044D00048E956E064E976E080E996E00E940652F9
:1044E00010920F02109210021092110210921202FA
:1044F0000E9457650E94655D80919006909191069B
:10450000A0919206B09193068093D2069093D30621
:10451000A093D406B093D506809194069091950609
:10452000A0919606B09197068093D6069093D706F1
:10453000A093D806B093D9068091980690919906D9
:10454000A0919A06B0919B068093DA069093DB06C1
:10455000A093DC06B093DD068091130281110C94C8
:104560007C3588E50E94CD1781110C947C358091B3
:10457000130281110C94823589E50E94CD178111B7
:104580000C94823588E50E94CD178823D1F00E94D3
:10459000C217672B682B692BA1F00E94B9172091D5
:1045A000C6063091C7064091C8065091C9060E94C0
:1045B00072BC6093D2067093D3068093D406909316
:1045C000D50689E50E94CD178823D1F00E94C21735
:1045D000672B682B692BA1F00E94B9172091CA069E
:1045E0003091CB064091CC065091CD060E9472BC12
:1045F0006093D6067093D7068093D8069093D90619
:104600008091130281110C9488358AE50E94CD17A0
:1046100081110C9488358AE50E94CD178823D1F04A
:104620000E94C217672B682B692BA1F00E94B91753
:104630002091CE063091CF064091D0065091D10600
:104640000E9472BC6093DA067093DB068093DC06EE
:104650009093DD062EED36E04AED56E066ED76E00D
:1046600082ED96E00E94B05B80917C0690917D0681
:10467000A0917E06B0917F0680930F029093100266
:10468000A0931102B09312028091E2069091E3068A
:104690009093300280932F020E946D0F6093DB0491
:1046A0007093DC048093DD049093DE040E94655DCA
:1046B0000C94733510926F060C94733581E08093DF
:1046C0006F060C94733585E40E94CD17811102C0EA
:1046D0000E945765F3E2CF2EF4E0DF2EA6ECEA2E1F
:1046E000A6E0FA2E02ED16E0B12CF60181916F01E1
:1046F0000E94CD17882339F1F3E0BF120CC00E944D
:10470000B917F80160837183828393838EED96E0FD
:104710000E94555C18C00E94B917F70120813181B1
:10472000428153810E9472BCF8016083718382834D
:1047300093832EED36E04AED56E066ED76E082EDAD
:1047400096E00E94B05BB394F4E0EF0EF11C0C5FB6
:104750001F4F24E0B212C9CF0C9473358DE40E9430
:10476000CD17882311F40C9422340E94B9170E94AB
:10477000BABD6237710511F40C94A52B0CF0AFC0D3
:104780006F31710509F457C3A4F56631710509F459
:10479000F6C1BCF46131710509F4ABC134F4623087
:1047A000710508F44BC10C9473356431710509F43B
:1047B000B2C10CF0DEC16231710509F4E0C60C949F
:1047C00073356A31710509F40FC23CF46831710523
:1047D00009F4F4C10CF4D9C101C26C31710509F4BA
:1047E00017C20CF40FC26E31710509F447C20C9464
:1047F00073356435710509F4C2C6E4F56035710599
:1048000009F4A5C654F46032710509F476C26A321F
:10481000710509F46DC30C9473356235710509F4A3
:10482000A5C60CF0A7C60E94266B0E945765A09AE9
:104830009FB7F89480910B01826080930B019FBF1A
:104840000E94C0651092A1061092A00668EE73E067
:1048500080E090E00E949C0F0E9457650E942F16F6
:104860001092140289ED94E00E94F69B0E94929CA3
:104870000C9473356936710509F494C324F56C35CD
:10488000710509F4BCC66836710509F45CC3653569
:10489000710511F00C94733583E50E94CD170E94C9
:1048A000B91720E030E04AE754E40E9420C00E949B
:1048B000BFBD6093D7047093D8048093D9049093BC
:1048C000DA040C9473356B36710509F43AC60CF4AE
:1048D00008C66D36710509F48BC40C9473356C3DB4
:1048E000710511F40C94692F0CF048C06E3B7105F2
:1048F00009F4F7C4ECF46737710509F49CC054F46B
:104900006337710509F4FDC66537710509F408C7F9
:104910000C9473356937710511F40C948A2C14F4D6
:104920000C94852C6C38710509F42BC30C947335E9
:104930006C3C710511F40C94342E8CF4693C7105B7
:1049400011F40C94F82D6B3C710511F40C94182E95
:10495000683C710511F00C9473350C947F2D6E3CFE
:10496000710511F40C94B22E14F40C94542E6A3D7B
:10497000710511F40C94CE2E0C947335643F31E024
:10498000730711F40C940B315CF56D3291E07907EB
:1049900011F40C94FF2F94F4623E710511F40C9401
:1049A0009E2F6C32F1E07F0711F40C94C92F6D3DFE
:1049B000710511F00C9473350C94782F6F3221E04F
:1049C000720711F40C94D33014F40C94C530603990
:1049D000714011F00C9473350E9457650C94733537
:1049E000683592E0790711F40C94E93194F4663F4C
:1049F000F1E07F0711F40C94113114F40C940E3192
:104A0000673F714011F00C9473350E948B7E0C94BB
:104A10007335603A83E0780709F4D9C1673E93E0C3
:104A2000790711F40C940B346335734011F00C9436
:104A300073350C941431E7E7F3E077C785EA95E026
:104A40000E94F69B80E50E94CD17882339F00E94D2
:104A5000B9170E94BFBD6B017C0103C0C12CD12CD2
:104A6000760183E50E94CD17882361F00E94B91773
:104A700020E030E04AE754E40E9420C00E94BFBD1D
:104A80006B017C010E9457650E946D0F6093DB04EF
:104A90007093DC048093DD049093DE04C114D10490
:104AA000E104F104A9F00E946D0F4B015C018C0C34
:104AB0009D1CAE1CBF1C0E946D0F681579058A05F0
:104AC0009B0588F40E94569D81110DC00C948E3573
:104AD0000E94569D811107C00E9466670E94941E25
:104AE0000E94929CF5CF86E995E00E94F69B0C947B
:104AF00073358DE895E00E94F69B159817984298BB
:104B0000A0989FB7F89480910B018D7F80930B0143
:104B10009FBF0C947335EDE7F5E08491882341F055
:104B20009091C00095FFFCCF8093C6003196F5CFE1
:104B30008091C00085FFFCCF8AE08093C60088EE9C
:104B400096E00E94A373EFE6F5E08491882341F09C
:104B50009091C00095FFFCCF8093C6003196F5CFB1
:104B60008091C00085FFFCCF8AE08093C6000C9442
:104B7000733588EE96E00E94FA730C94733588EED4
:104B800096E00E94C1740C9473350091DF0410917B
:104B9000E0040C5F1F4F6AE270E0C8010E94B5C4D8
:104BA000009719F0FC013197108221E041E0B80133
:104BB00088EE96E00E9430750C94733588EE96E08E
:104BC0000E94C5740E946D0F6093D3047093D40447
:104BD0008093D5049093D6040C94733588EE96E0B8
:104BE0000E94CC740C9473358091EB06882311F4E9
:104BF0000C94733583E50E94CD1781110C94963582
:104C00000C94733588EE96E00E947F790C9473358E
:104C10008091DF049091E0046AE270E004960E94C3
:104C2000B5C48C010097E1F02091E9043091EA04C9
:104C300040E6429FC001439F900D11246EE470E056
:104C400081519B4F0E94B5C460E270E00E94B5C4E0
:104C500001969093E0048093DF04F801319710826D
:104C60006091DF047091E0046C5F7F4F21E040E0D1
:104C700088EE96E00E9430750C9473358091EB06B7
:104C8000882311F40C94733560E088EE96E00E945E
:104C9000387B8091DF049091E0046AE270E0049632
:104CA0000E94B5C48C010097E1F02091E904309195
:104CB000EA0440E6429FC001439F900D11246EE438
:104CC00070E081519B4F0E94B5C460E270E00E9489
:104CD000B5C401969093E0048093DF04F801319706
:104CE00010826091DF047091E0046C5F7F4F88EE6A
:104CF00096E00E9445780C9473358091EA06811104
:104D00000E9457650091DF041091E0040C5F1F4F73
:104D10006AE270E0C8010E94B5C47C0161E270E003
:104D2000C8010E94B5C4009719F08C010F5F1F4F96
:104D3000E114F10419F0F7013197108280E50E9427
:104D4000CD17F82E2091DF043091E00402171307ED
:104D500008F4F12C8091EB06882311F40C94733540
:104D600021E02F2541E0B80188EE96E00E943075E1
:104D700083E50E94CD178823B9F02091DF0430919C
:104D8000E0042017310780F40E94C217AB01BC0178
:104D900040936B0950936C0960936D0970936E0991
:104DA00086EB98E00E94A94088EE96E00E94C574C8
:104DB000F1100C9473350E946D0F6093D3047093BF
:104DC000D4048093D5049093D6040C9473358091C9
:104DD000DF049091E0046AE270E005960E94B5C499
:104DE0008C010097E1F02091E9043091EA0440E65B
:104DF000429FC001439F900D11246EE470E08151E9
:104E00009B4F0E94B5C460E270E00E94B5C4019659
:104E10009093E0048093DF04F80131971082609151
:104E2000DF047091E0046B5F7F4F88EE96E00E9494
:104E30003F780C9473350E946D0F6093CF0470938C
:104E4000D0048093D1049093D2040091D3041091A4
:104E5000D4042091D5043091D604601B710B820BD1
:104E6000930B28EE33E040E050E00E9431C1CA01CC
:104E7000B9012CE330E040E050E00E9431C17F9363
:104E80006F933F932F9380E695E09F938F938E01CE
:104E90000F5F1F4F1F930F930E94E4C4EEE5F8E0ED
:104EA00084910FB6F894DEBF0FBECDBF882349F0C2
:104EB0009091C00095FFFCCF8093C60031968491FD
:104EC000F5CFF8018191882339F09091C00095FFCA
:104ED000FCCF8093C600F6CF8091C00085FFFCCF49
:104EE0008AE08093C600C8010E94E79B0C9473354A
:104EF00083E50E94CD17882311F40C9473350E942A
:104F0000B9176B017C0180E50E94CD17882351F011
:104F1000C701B6010E94BABD6F3F710509F010F4D8
:104F20000C94A7356DE070E020E0E22FEE0FFF0B50
:104F3000ED51FC4F808191818617970711F40C94F5
:104F400073352F5FF2CF88E690E00E94821F8111B7
:104F50000C94733583E50E94CD17882371F000917E
:104F6000CE040E94B91710E0000F111F025D1D4E04
:104F70000E94BABDF801718360830E94B96A0C94E3
:104F8000733583E50E94CD17882311F40C94733593
:104F90000E94B9170E94BABD70932D1260932C1213
:104FA0000C94733589E690E00E94821F81110C9465
:104FB0007335EAE5F5E08491882341F09091C000D3
:104FC00095FFFCCF8093C6003196F5CFE091CE04DB
:104FD00024E0E29FF0011124E05EFD4E408151810A
:104FE0006281738121E030E085E799E00E94413AD7
:104FF000E7E5F5E08491882341F09091C00095FFAA
:10500000FCCF8093C6003196F5CFE091CE04F0E05E
:10501000EE0FFF1FE25DFD4E60817181882777FDF5
:105020008095982F0E94EDBDAB01BC0121E030E0DE
:1050300085E799E00E94413AE3E5F5E08491882311
:1050400041F09091C00095FFFCCF8093C60031964F
:10505000F5CF40911A1250911B1260911C12709161
:105060001D1221E030E085E799E00E94413AE0E539
:10507000F5E08491882341F09091C00095FFFCCF2A
:105080008093C6003196F5CF60912C1270912D124D
:10509000882777FD8095982F0E94EDBDAB01BC015C
:1050A00021E030E085E799E00E94413A3EE2E32EBC
:1050B00032E1F32E40E2C42E42E1D42E00E010E0B3
:1050C000EDE4F5E0B490EBE4F5E0A490E8E4F5E07D
:1050D00094908B2DEDE4F5E0882349F09091C00089
:1050E00095FFFCCF8093C60031968491F5CF4AE0BE
:1050F00050E0B80185E799E00E9461398A2DEBE420
:10510000F5E0882349F09091C00095FFFCCF809393
:10511000C60031968491F5CFF6014191519161918C
:1051200071916F0121E030E085E799E00E94413AFA
:10513000892DE8E4F5E0882349F09091C00095FFBF
:10514000FCCF8093C60031968491F5CFF701619131
:1051500071917F01882777FD8095982F0E94EDBD82
:10516000AB01BC0121E030E085E799E00E94413AC3
:105170000F5F1F4F0230110509F0ABCFE4E4F5E0FB
:105180008491882341F09091C00095FFFCCF8093DB
:10519000C6003196F5CF8091CE0490E00E945B6707
:1051A0004AE050E0BC0185E799E00E946139EFE3F5
:1051B000F5E08491882341F09091C00095FFFCCFE9
:1051C0008093C6003196F5CF8FEF9FEF0E945B670B
:1051D0004AE050E0BC0185E799E00E946139809186
:1051E000C00085FFFCCF8AE08093C6000C94103786
:1051F0008DE690E00E94821F81110C94733584E348
:1052000095E00E94F69B83E50E94CD17882391F0DC
:105210000091CE040E94B91710E0000F111F025D2B
:105220001D4E0E94BABDF8017183608381E08093B6
:105230000A0215C082E50E94CD17882381F00091F3
:10524000CE040E94B91710E0000F111F025D1D4E21
:105250000E94BABDF8017183608310920A020E9415
:10526000B96A0E946D0F4B015C010091CE0410E001
:10527000F801EE0FFF1FE25DFD4E6081718188270E
:1052800077FD8095982F0E94EDBDF801EE0FFF1F6E
:10529000EE0FFF1FE05EFD4E11E020813181428163
:1052A00053810E944EBF18160CF010E01093CC04EE
:1052B000CC24CA94DC2C7601E1E3F5E024912FA7FD
:1052C000EDE2F5E0349139ABE9E2F5E0249048EE07
:1052D000442E43E0542E612C712C5AE0352E0C9450
:1052E0000A368EE095E00E94F69B83E50E94CD177A
:1052F000882361F00E94B9170E94BABD70932D12E5
:1053000060932C1281E080930A020FC082E50E9414
:10531000CD17882351F00E94B9170E94BABD70932F
:105320002D1260932C1210920A020E946D0F6B01D5
:105330007C0160912C1270912D12882777FD809549
:10534000982F0E94EDBD11E020911A1230911B128E
:1053500040911C1250911D120E944EBF18160CF065
:1053600010E01093CC04EBE0F5E01491E7E0F5E0F9
:105370000491E3E0F5E0B490AAE0AA2E8091CC0479
:1053800060912C1270912D12882309F483C0882714
:1053900077FD8095982F0E94EDBD20911A123091D3
:1053A0001B1240911C1250911D120E944EBF1816E4
:1053B0000CF087C00E946D0F6C197D098E099F0942
:1053C000693E73408105910508F45DC0E091A20635
:1053D00034E0E39FF0011124E05EFD4E40815181F5
:1053E00062817381812FEBE0F5E0882349F0909191
:1053F000C00095FFFCCF8093C60031968491F5CF15
:1054000022E030E085E799E00E94413A802FE7E012
:10541000F5E0882349F09091C00095FFFCCF809380
:10542000C60031968491F5CF6091A20670E04AE003
:1054300050E085E799E00E9461398B2DE3E0F5E0CB
:10544000882349F09091C00095FFFCCF8093C6005F
:1054500031968491F5CF40911A1250911B126091B0
:105460001C1270911D1221E030E085E799E00E9446
:10547000413A8091C00085FFFCCFA092C6000E94F7
:105480006D0F6B017C010E9466670E94941E0E9452
:10549000929C74CF882777FD8095982F0E94EDBD50
:1054A00020911A1230911B1240911C1250911D1222
:1054B0000E944BBD87FF05C080910A02882309F432
:1054C00079CF89EF94E00E94F69B0E946D0F609364
:1054D000DB047093DC048093DD049093DE040C9471
:1054E000733583E50E94CD17882319F10E94B917FF
:1054F00020E030E0A9010E944BBD87FD0FC00E9453
:10550000B91720E030E04FE753E40E944EBF181671
:1055100044F00E94B9170E94BABD05C060E070E077
:1055200002C06FEF70E07093A1066093A0060C9428
:1055300073358FEF90E09093A1068093A0060C94B2
:1055400073351092A1061092A0060C947335269A1A
:105550002E98809A889A81E08093140288EE94E0D5
:105560000E94F69B0E94929C0C9473351092E70661
:105570000C94733581E08093E7060C94733583E5D2
:105580000E94CD178823A1F00E94B91720E030E0D7
:105590004AE754E40E9420C00E94BFBD60930B0202
:1055A00070930C0280930D0290930E020C9473354D
:1055B00088E50E94CD1781110C94E63689E50E949A
:1055C000CD1781110C94E6368AE50E94CD17811122
:1055D0000C94E63685E40E94CD1781110C94E636D2
:1055E0000E945765A09A9FB7F89480910B01826042
:1055F00080930B019FBF0E94C0650C94733583E2BA
:1056000094E098AB8FA709E311E1E9E48E2EE1E184
:105610009E2EFDEFAF2EF0E1BF2E312CEFA5F8A9A5
:105620008191F8ABEFA70E94CD17882309F45BC0E6
:10563000F3E03F1251C00E94B9176B017C0120E0DA
:1056400030E040EA51E40E944BBD87FF3FC0A70114
:105650009601F80160817181828193810E9452BD1F
:105660002B013C019B01AC01609111117091121151
:1056700080911311909114110E9420C06093111118
:10568000709312118093131190931411A30192013E
:10569000F40160817181828193810E9420C0F401B4
:1056A0006083718382839383F5016081718182813C
:1056B00093810E94EBBDA30192010E9420C00E9431
:1056C000BFBDF5016083718382839383F801C0823B
:1056D000D182E282F38207C00E94B917F801608389
:1056E00071838283938333940C5F1F4FF4E08F0E9A
:1056F000911C24E0A20EB11C34E033128FCF0C9425
:105700007335EFE0F4E08491882311F40C94733541
:105710009091C00095FFFCCF8093C6003196F3CFE7
:105720000091DF041091E0040B5F1F4F6AE270E00C
:10573000C8010E94B5C4009719F0FC01319710828E
:10574000C8010E94E79B0C947335ECE0F4E084916F
:10575000882341F09091C00095FFFCCF8093C60054
:105760003196F5CF4091D2065091D3066091D40680
:105770007091D50622E030E085E799E00E94413A39
:10578000E8E0F4E08491882341F09091C00095FF17
:10579000FCCF8093C6003196F5CF4091D60650914C
:1057A000D7066091D8067091D90622E030E085E7EF
:1057B00099E00E94413AE4E0F4E08491882341F0CA
:1057C0009091C00095FFFCCF8093C6003196F5CF35
:1057D0004091DA065091DB066091DC067091DD069F
:1057E00022E030E085E799E00E94413AE0E0F4E011
:1057F0008491882341F09091C00095FFFCCF809365
:10580000C6003196F5CF4091DE065091DF066091DB
:10581000E0067091E10622E030E085E799E00E9421
:10582000413AE5EFF3E08491882341F09091C00084
:1058300095FFFCCF8093C6003196F5CF0E94B265EC
:105840000E94EDBD2091391130913A1140913B11E8
:1058500050913C110E9452BDAB01BC0122E030E0EE
:1058600085E799E00E94413AE1EFF3E084918823D3
:1058700041F09091C00095FFFCCF8093C600319617
:10588000F5CF81E00E94B2650E94EDBD20913D11EF
:1058900030913E1140913F11509140110E9452BDF4
:1058A000AB01BC0122E030E085E799E00E94413A7B
:1058B000EDEEF3E08491882341F09091C00095FFD4
:1058C000FCCF8093C6003196F5CF82E00E94B2658E
:1058D0000E94EDBD20914111309142114091431140
:1058E000509144110E9452BDAB01BC0122E030E056
:1058F00085E799E00E94413A8091C00085FFFCCF86
:105900008AE08093C6000C94733580E00E946C5D41
:105910000C94733581E00E946C5D0C94733590910A
:10592000C00095FFFCCF8093C60081918111F7CF15
:105930008091C00085FFFCCF8AE08093C600E5EE31
:10594000F3E08491882341F09091C00095FFFCCF53
:105950008093C6003196F5CF009903C0E8E6F3E0E6
:1059600009C0E2E7F3E006C09091C00095FFFCCFCC
:105970008093C60081918111F7CF8091C00085FF8F
:10598000FCCF8AE08093C600EDEDF3E0849188239C
:1059900041F09091C00095FFFCCF8093C6003196F6
:1059A000F5CF029903C0E8E6F3E009C0E2E7F3E0CF
:1059B00006C09091C00095FFFCCF8093C6008191F6
:1059C0008111F7CF8091C00085FFFCCF8AE08093E2
:1059D000C600E5EDF3E08491882341F09091C0008A
:1059E00095FFFCCF8093C6003196F5CF049903C094
:1059F000E8E6F3E009C0E2E7F3E006C09091C000FA
:105A000095FFFCCF8093C60081918111F7CF8091E3
:105A1000C00085FFFCCF8AE08093C600EDECF3E088
:105A20008491882341F09091C00095FFFCCF809332
:105A3000C6003196F5CF069903C0E8E6F3E009C049
:105A4000E2E7F3E006C09091C00095FFFCCF8093A1
:105A5000C60081918111F7CF8091C00085FFFCCFF6
:105A60008AE08093C600E5ECF3E08491882341F05E
:105A70009091C00095FFFCCF8093C6003196F5CF82
:105A8000379903C0E8E6F3E009C0E2E7F3E006C0B7
:105A90009091C00095FFFCCF8093C6008191811149
:105AA000F7CF8091C00085FFFCCF8AE08093C600CD
:105AB000EDEBF3E08491882341F09091C00095FFD5
:105AC000FCCF8093C6003196F5CF359903C0E8E648
:105AD000F3E009C0E2E7F3E006C09091C00095FF53
