:100000000C94011B0C94BB1D0C94EC1D0C941D1E38
:100010000C944E1E0C947F1E0C94B01E0C94E11E8A
:100020000C94121F0C94321B0C94321B0C94321B38
:100030000C94321B0C941DDA0C94321B0C94321B62
:100040000C94321B0C94BEB50C94321B0C94321BD6
:100050000C94321B0C94321B0C94ADC50C94341BC5
:100060000C94321B0C9456900C94321B0C94321B43
:100070000C94321B0C94321B0C94321B0C94321BCC
:100080000C94321B0C94321B0C94321B0C94321BBC
:100090000C94321B0C94321B0C94321B0C94A92828
:1000A0000C94321B0C94321B0C94321B0C94321B9C
:1000B0000C94321B0C94321B0C94321B0C94321B8C
:1000C0000C94321B0C94321B0C94321B0C94321B7C
:1000D0000C94321B0C94321B0C94321B0C94321B6C
:1000E0000C94321B661C6B1C701C7A1CF31C841C49
:1000F0008C1C941C9E1CA81CB21CC11CCB1CF31C89
:10010000D51CDF1CE91C111D141D071D0B1D4B1DEB
:10011000181D1C1D221D261D2A1D301D341D381DB5
:100120004B1D3E1D421D461DB022B022BE22CC22D8
:10013000E822F622042312232323DA22D0D8D3D8AC
:10014000DAD8E1D8E8D8EFD87FD9F6D8FDD805D9E4
:100150007FD90DD916D91DD926D92DD934D97FD912
:100160003BD942D94BD97FD954D95DD95FD961D90F
:1001700063D965D967D969D96BD96DD96FD971D967
:1001800073D975D977D979D97BD9084AD73B3BCE72
:10019000016E84BCBFFDC12F3D6C74319ABD568386
:1001A0003DDA3D00C77F11BED9E4BB4C3E916BAA3E
:1001B000AABE000000803F05A84CCDB2D44EB9388D
:1001C00036A9020C50B9918688083CA6AAAA2ABE74
:1001D000000000803F000C94AC360C94FDD80C94C9
:1001E000F6470C94644C0C942F3D0C94EB410C940A
:1001F00071380C9413570C94FE5C0C9401470C94CA
:1002000086550C94D3D80C94E74C0C94E1D80C94FC
:100210001C1D0C94CB1C0C9454D90C9416D90C9422
:10022000D05D0C9425550C94703E0C9467D90C94B9
:10023000369E0C9423230C942B440C940DD90C94CF
:10024000BE340C946A570C94341D0C94B25A0C941E
:10025000701C0C944B1D0C942E590C945DD90C946D
:10026000F8440C94C1620C94D0D80C944BD90C94E3
:1002700069D90C94841C0C94553D0C9479D90C9438
:100280002DD90C94D0230C94954E0C9402200C94F0
:10029000673B0C941E340C949B520C9461D90C94C3
:1002A0008E570C946F670C9404230C94B21C0C941E
:1002B0002A1D0C9475D90C9434D90C94CC220C942E
:1002C00007330C9458510C94181D0C9463560C94DD
:1002D0003E1D0C94773B0C9492450C94F31C0C94AB
:1002E000893D0C94431F0C9452900C94E8D80C94C4
:1002F0001DD90C946C470C94421D0C94295E0C94EF
:10030000BA450C94C1600C94D51C0C94703F0C94AD
:1003100016400C94381D0C9411480C9490600C9469
:1003200012230C94FC4A0C949E1C0C94D03C0C940C
:1003300073D90C94E7390C9405370C94B5410C949F
:10034000EFD80C94221D0C94071D0C94D83B0C94F0
:1003500055200C94EE4D0C94C11C0C94224C0C9422
:10036000CA330C94261D0C9496350C94F4330C94DB
:1003700071D90C948C1C0C9428360C947A1C0C9417
:10038000AD4D0C9467560C94941C0C94EB4F0C944C
:10039000E8220C94A7480C946DD90C9486530C94C5
:1003A000A63E0C9452420C9426D90C94E4380C943A
:1003B000661C0C94B64B0C943BD90C9403420C94E1
:1003C000F6D80C9441610C94BB370C94A81C0C9487
:1003D000D9460C945B4D0C9442D90C946BD90C9477
:1003E0009F460C9477D90C94F6220C94A25D0C9441
:1003F000504A0C941F3C0C947B340C9481400C9418
:1004000036270C9405D90C94301D0C94EF460C94AF
:10041000461D0C94913B0C94DD390C94303B0C94AC
:10042000913C0C940D330C9409460C9441900C941F
:100430006B1C0C941F5E0C94B0220C9463D90C942A
:100440006FD90C94E91C0C947FD90C94DAD80C94D5
:10045000335F0C94483A0C94C73A0C9443560C946E
:10046000E9470C94111D0C94A0460C942A350C9469
:10047000564B0C945FD90C941E5A0C9465D90C946D
:10048000733D0C94FE5F0C94BA460C941F510C946F
:1004900041570C944C390C94141D0C9482580C94B4
:1004A0004C330C948B330C943E340C94BE220C943D
:1004B000FE3C0C94E1350C94DA220C947BD90C941C
:1004C000A4560C941E560C94824D0C9409400C9426
:1004D0008A5D0C94094B0C94DF1C0C946F360C94C1
:1004E0000B1D0000090A02080B0C0D07060304018E
:1004F00000000000000000000000000000000000FC
:1005000000000000000000000000000000001110CA
:100510000F000000000000000000000000000000CC
:100520000000000000000000010210202008081058
:100530002040102040800201020108040201010253
:10054000040810204080804020100804020180042C
:100550000201804020100804020108040201010287
:100560000408102040800102040810204080050586
:100570000505070508080808020202020A0A080819
:100580000404040401010101010101010303030347
:1005900003030303040707070C0C0C0C0C0C0C0CD6
:1005A0000202020206060606060606060B0B0B0BE7
:1005B0000B0B0B0B00002200250028002B002E0047
:1005C0003100340002010000050108010B010000A8
:1005D0002100240027002A002D00300033000101F3
:1005E0000000040107010A015052494E54004D41D8
:1005F00054455249414C004D41494E54454E414E9F
:100600004345005072696E74696E6720776974683B
:10061000205553422E2E2E00756C74696D616B65EA
:10062000722E636F6D2F4552303700476F20746F05
:100630003A0058206F7220592073776974636820DC
:10064000737475636B00756C74696D616B65722E84
:10065000636F6D2F4552303700476F20746F3A003B
:1006600058206F7220592073776974636820627212
:100670006F6B656E00756C74696D616B65722E636E
:100680006F6D2F4552303600476F20746F3A005A15
:100690002073776974636820737475636B00756C7D
:1006A00074696D616B65722E636F6D2F45523035C5
:1006B00000476F20746F3A005A207377697463683B
:1006C0002062726F6B656E00756C74696D616B652D
:1006D000722E636F6D2F4552303400476F20746F58
:1006E0003A00536166657479206369726375697451
:1006F00000756C74696D616B65722E636F6D2F454B
:1007000052303300476F20746F3A0048656174655A
:1007100072206572726F7200756C74696D616B65C1
:10072000722E636F6D2F4552303200476F20746F09
:100730003A0054656D702073656E736F7220424588
:100740004400756C74696D616B65722E636F6D2FFB
:100750004552303100476F20746F3A0054656D7018
:100760002073656E736F72004552524F52202D20D8
:1007700053544F5050454400801506060606FEFEB1
:10078000FEFEFC00000000000000FCFEFEFEFC007F
:1007900000000EFEFEFEFE0000E0FCFEFEFCE0E0BF
:1007A000000000CECECE000000C0C0C0C0C0C080DF
:1007B00000000000000080C0C080000000000000B9
:1007C0008080C0C0C0C0C0C0C080800000000006E3
:1007D000FEFEFEFE0000000080C0C0C00000000061
:1007E00000008080C0C0C080808000000000C0C0C9
:1007F000C0C00080C0C0C0C08000000000007FFFFB
:10080000FFFFFF80000000000080FFFFFFFFFF00F0
:10081000000000FFFFFFFF000000FFFFFFFF0000E0
:10082000000000FFFFFF00000081F1FFFF3F0F3FCE
:10083000FFFCF0F0FCFF3F0F3FFFFEF880000000E0
:10084000C1E1F1F17131010183FFFFFFFC00000004
:10085000FFFFFFFF000C3EFFFFF7C301000000FC9D
:10086000FEFF8703113131333F3F3F1E000001FF80
:10087000FFFFFF070301010101000000000000016C
:100880000307070F0F0F0F0F0F0F0707070F0F06B5
:10089000000000070F0F07000000070F0F07000000
:1008A0000000000F0F0F0000060F0F0701000000EF
:1008B00001070F0F070100000001070F0F060000DE
:1008C00003070F0F0E0E060703070F0F07000000A8
:1008D000070F0F0700000000030F0F0F06000000B6
:1008E0000307070F0E0E0E0E0E0E06000000000F7F
:1008F0000F0F0F00000000000000507265763A20D4
:100900000043414E43454C002073656300206D69F0
:100910006E0020686F75720020686F75727300003A
:100920000000000000005F00000007000700147FC7
:10093000147F14242A7F2A1223130864623649552F
:1009400022500005030000001C2241000041221C2F
:1009500000082A1C2A0808083E0808005030000039
:100960000808080808006060000020100804023E23
:100970005149453E00427F40004261514946214174
:10098000454B311814127F1027454545393C4A49DB
:100990004930017109050336494949360649492953
:1009A0001E003636000000563600000008142241B2
:1009B00014141414144122140800020151090632BF
:1009C0004979413E7E1111117E7F494949363E41A8
:1009D0004141227F4141221C7F494949417F090908
:1009E00001013E414151327F0808087F00417F41AB
:1009F000002040413F017F081422417F4040404099
:100A00007F0204027F7F0408107F3E4141413E7F08
:100A1000090909063E4151215E7F091929464649C7
:100A200049493101017F01013F4040403F1F2040C3
:100A3000201F7F2018207F631408146303047804A8
:100A400003615149454300007F41410204081020E1
:100A500041417F0000040201020440404040400048
:100A60000102040020545454787F484444383844E8
:100A7000444420384444487F3854545418087E096C
:100A80000102081454543C7F0804047800447D405B
:100A9000002040443D00007F10284400417F40007A
:100AA0007C041804787C0804047838444444387C76
:100AB00014141408081414187C7C080404084854FE
:100AC000545420043F4440203C4040207C1C2040A3
:100AD000201C3C4030403C44281028440C505050CE
:100AE0003C4464544C44000836410000007F000040
:100AF000004136080008082A1C08081C2A08084774
:100B00003120462569205A25692058256920592514
:100B10006900473238205A3020583020593000625E
:100B200075696C64706C6174652E006F6620616419
:100B30006A757374696E6720796F75720074687274
:100B40006F756768207468652070726F6365737372
:100B500000492077696C6C20677569646520796F3E
:100B60007500434F4E54494E55450043414E434551
:100B70004C00473238205A3000746F207072696E12
:100B8000742069742100616E642070726573732033
:100B900074686520627574746F6E006F6E2074687F
:100BA000652053442D636172640053656C65637402
:100BB0002061207072696E742066696C6500323144
:100BC0002F3231004C45542753205052494E540087
:100BD00052656164696E6720636172642E2E2E0017
:100BE00032312F323100796F757220556C74696D16
:100BF000616B6572322E2E2E007468617420636101
:100C00006D65207769746800506C65617365206953
:100C10006E736572742053442D63617264003231C7
:100C20002F3231006D616B6520612033442050729A
:100C3000696E74210049276D207265616479206CAA
:100C4000657427730032302F3231004152452059EC
:100C50004F552052454144593F0053656C656374BC
:100C600020746865206D6174657269616C006974D7
:100C7000206973207573696E672E006F66206D6141
:100C800074657269616C006B6E6F77732077686151
:100C900074206B696E64004E6F7720796F757220D7
:100CA000556C74696D616B6572320031392F323168
:100CB00000434F4E54494E5545006973207468698E
:100CC000732072696768743F00596F752068617698
:100CD000652063686F73656E0031382F32310059BB
:100CE0004553004E4F00206173206D617465726939
:100CF000616C2C0031372F3231004D41544552493F
:100D0000414C00556C74696D616B6572322E0069DF
:100D10006E73657274656420696E2074686973000F
:100D20006D6174657269616C20796F752068617698
:100D300065004E6578742C2073656C65637420744F
:100D400068650031362F3231005245414459006602
:100D5000726F6D206E6F7A7A6C652E2E2E006D612B
:100D600074657269616C206578697473005075737D
:100D70006820627574746F6E207768656E00313517
:100D80002F323100434F4E54494E5545004C6F6150
:100D900064696E67206D6174657269616C2E2E2EB8
:100DA0000031342F32310061626F766520746865DE
:100DB000206172726F772E00796F757220556C7496
:100DC000696D616B6572322C0066726F6D2074689C
:100DD000652072656172206F6600496E736572747A
:100DE000206E6577206D6174657269616C003133C6
:100DF0002F323100434F4E54494E5545006D6174BA
:100E0000657269616C206C6F6164696E67007072F5
:100E1000696E74686561642068656174696E6720D5
:100E2000666F7200506C6561736520776169742C20
:100E30000031322F3231004D3834004731204631F5
:100E40003230303020583131302059313000746F19
:100E500020696E73657274206D6174657269616C6E
:100E60002E00746865206E65787420737465702038
:100E7000697300746865206275696C64706C617474
:100E800065004E6F772074686174207765206C650B
:100E900076656C65640031312F323100434F4E541A
:100EA000494E55450074686520726967687420630F
:100EB0006F726E65722E2E2E005265706561742001
:100EC0007468697320666F720031302F32310043CD
:100ED0004F4E54494E554500444F4E450074686589
:100EE000206C65667420636F726E65722E2E2E0004
:100EF000526570656174207468697320666F720052
:100F0000392F323100434F4E54494E5545006269E6
:100F10007420726573697374616E63652E00756EFB
:100F200074696C20796F75206665656C206100625C
:100F300075696C64706C61746520616E64206E6F9D
:100F40007A7A6C6500536C69646520612070617009
:100F50006572206265747765656E00382F323100E6
:100F6000434F4E54494E554500434F4E54494E55FC
:100F70004500473120462569205A30004731204638
:100F800025692058256920592569004731204625C3
:100F900069205A3500746865206275696C64706CEC
:100FA000617465206C6576656C2E00706170657289
:100FB00020746F2066696E652D74756E65006E6FA6
:100FC00077207573652061207368656574206F668E
:100FD000005265706561742074686973207374656C
:100FE000702C2062757400372F323100434F4E54FD
:100FF000494E55450066726F6D20746865206275B4
:10100000696C64706C6174652E0069732061206D79
:10101000696C6C696D6574657220617761790073C4
:10102000637265772074696C6C20746865206E6FDC
:101030007A7A6C65005475726E20726967687420E4
:101040006275696C64706C61746500362F323100B2
:10105000434F4E54494E554500473120462569209F
:101060005A300047312046256920582569205925E6
:101070006900473120462569205A350066726F6D38
:1010800020746865206275696C64706C6174652E8B
:101090000069732061206D696C6C696D657465729F
:1010A00020617761790073637265772074696C6C75
:1010B00020746865206E6F7A7A6C65005475726E64
:1010C000206C656674206275696C64706C6174650F
:1010D00000352F323100434F4E54494E554500479D
:1010E0003120462569205A300047312046256920A5
:1010F0005825692059256900473120462569205A1D
:10110000350066726F6D20746865206275696C6465
:10111000706C6174652E0061206D696C6C696D6521
:10112000746572206177617900756E74696C2074E2
:101130006865206E6F7A7A6C6520697300526F74EF
:101140006174652074686520627574746F6E003414
:101150002F323100434F4E54494E554500434F4EB8
:1011600054494E554500473120462569205A256986
:1011700020582569205925690047323820583020E9
:10118000593000676F696E6720746F20646F207438
:10119000686174206E6F772E0061646A7573746D78
:1011A000656E74732C207765206172650077652009
:1011B0006E65656420746F20646F20736F6D6500C9
:1011C0004166746572207472616E73706F727461BF
:1011D00074696F6E00332F323100434F4E54494EC5
:1011E000554500473120462569205A256900473278
:1011F00038205A3000612066697273742072756EEF
:101200002077697A6172642E0077616C6B20796F48
:1012100075207468726F75676800666972737420F0
:101220007374617274757020492077696C6C004228
:1012300065636175736520746869732069732074D0
:10124000686500322F323100434F4E54494E5545A8
:1012500000627574746F6E20746F20636F6E7469B2
:101260006E756500556C74696D616B6572212050F7
:10127000726573732074686500737461727475703D
:10128000206F6620796F75720057656C636F6D65AE
:1012900020746F2074686520666972737400312F42
:1012A000323100434F4E54494E5545003F3F3F00B9
:1012B000466163746F72792072657365740052754C
:1012C0006E74696D65207374617473005665727312
:1012D000696F6E004D6F74696F6E20736574746909
:1012E0006E67730052657472616374696F6E207308
:1012F000657474696E6773005365742066616E204F
:101300007370656564004D6F7665206D61746572FC
:1013100069616C00496E73657274206D61746572E9
:1013200069616C005261697365206275696C6470F3
:101330006C617465004C6F776572206275696C64CE
:10134000706C61746500486F6D652068656164004C
:10135000486561747570206E6F7A7A6C65004C45D3
:10136000442073657474696E6773003C2052455461
:1013700055524E00566572733A5F322E31676F00D8
:1013800025004300432F0025003F3F3F0020476CCE
:101390006F77207768656E20646F6E6500204F6EF2
:1013A000207768696C65207072696E74696E670079
:1013B00020416C77617973204F66660020416C771D
:1013C000617973204F6E004272696768746E65734D
:1013D00073003C2052455455524E002500250042D2
:1013E00072696768746E657373004C45440043000E
:1013F000432F00436C69636B20746F2072657475B2
:10140000726E004E6F7A7A6C652074656D706572CD
:1014100061747572653A004732382058302059306F
:10142000004300432F00436C69636B20746F20728C
:10143000657475726E00526F7461746520746F20EC
:1014400065787472756465004E6F7A7A6C65207485
:10145000656D70657261747572653A003F3F3F005B
:1014600052657472616374207370656564005265BF
:101470007472616374206C656E677468003C2052FE
:10148000455455524E006D6D2F736563006D6D00B0
:101490006D6D2F73656300526574726163742073A0
:1014A00070656564006D6D005265747261637420CF
:1014B0006C656E6774680052455452414354494FFD
:1014C0004E003F3F3F0043757272656E74204500C9
:1014D00043757272656E74205A0043757272656E40
:1014E0007420582F59004D61782073706565642011
:1014F0005A004D61782073706565642059004D6114
:1015000078207370656564205800582F59204A650B
:10151000726B00416363656C65726174696F6E0024
:101520003C2052455455524E006D41006D41006DB6
:1015300041006D6D2F736563006D6D2F73656300E2
:101540006D6D2F736563006D6D2F736563006D6D39
:101550002F7365635E32006D410043757272656E74
:10156000742045006D410043757272656E74205A97
:10157000006D410043757272656E7420582F5900DA
:101580006D6D2F736563004D6178207370656564C0
:10159000205A006D6D2F736563004D617820737064
:1015A0006565642059006D6D2F736563004D61782A
:1015B0002073706565642058006D6D2F736563003E
:1015C000582F59204A65726B0030306D6D2F73654E
:1015D000635E3200416363656C65726174696F6E4E
:1015E000004D4F54494F4E00566572733A5F322E8C
:1015F00031676F004D617920313120323031362032
:1016000031303A35313A32350052657475726E00B8
:101610006D00204D61743A003A005072696E746931
:101620006E673A003A004D616368696E65206F6EBF
:1016300020666F723A0052657475726E00746F2086
:1016400064656661756C743F0052657365742065EE
:10165000766572797468696E6700594553004E4F1C
:1016600000250046616E2073706565640047312077
:1016700046256920582569205925690047323820B8
:101680005830205930004731205A34300047323822
:10169000205A3000473238205A300047323820581C
:1016A0003020593000414456414E43454400425594
:1016B000494C442D7C504C41544500414456414EC8
:1016C0004345440052455455524E00504C41006D24
:1016D0006174657269616C20696E73657274696F9B
:1016E0006E0048656174696E67207072696E746817
:1016F00065616420666F7200250046616E3A2000C5
:1017000043002500466C6F773A006D6D004D4154E3
:10171000455249414C00636F6D6573206F757420AD
:10172000746865206E6F7A7A6C6500576169742001
:1017300074696C6C206D6174657269616C005245EE
:101740004144590043414E43454C00466F72776116
:101750007264696E67206D6174657269616C0061A5
:10176000626F766520746865206172726F772E00F3
:10177000796F7572206D616368696E652C006672A1
:101780006F6D20746865206261636B7369646520A6
:101790006F6600496E73657274206E6577206D61A7
:1017A00074657269616C0052454144590043414E71
:1017B00043454C0052656D6F7665206D61746572AE
:1017C00069616C0052454144590043414E43454CC8
:1017D00000526576657273696E67206D617465721B
:1017E00069616C00666F72206D6174657269616C0D
:1017F0002072656D6F76616C0048656174696E6713
:10180000207072696E7468656164004732382058D0
:101810003020593000496D706F72742066726F6DA0
:10182000205344004578706F727420746F205344C5
:1018300000437573746F6D697A65003C205245549E
:1018400055524E004C6F61647320616C6C206D6169
:1018500074657269616C7300536176657320616CA5
:101860006C206D6174657269616C73004D6F6469A1
:101870006679207468652073657474696E67730097
:10188000250046616E3A200043002500466C6F77C4
:101890003A006D6D003F3F3F0053746F72652061E9
:1018A000732070726573657400466C6F7720250035
:1018B00046616E004469616D657465720054656DC2
:1018C0007065726174757265003C205245545552C2
:1018D0004E00250025006D6D0043004E6577207099
:1018E0007265736574003C2052455455524E005049
:1018F0005245534554530025004D6174657269612A
:101900006C20666C6F7700250046616E20737065F1
:101910006564006D6D004D6174657269616C204491
:1019200069616D6574657200430054656D70657220
:101930006174757265004D4154455249414C0069CE
:101940006E204D4154455249414C2E545854007418
:101950006F20746865205344206361726400536192
:10196000766564206D6174657269616C73004F6B9C
:10197000000A0A006469616D657465723D000A00C1
:10198000666C6F773D000A0066616E5F7370656517
:10199000643D000A0074656D7065726174757265EE
:1019A0003D000A006E616D653D005B6D617465729E
:1019B00069616C5D0A0052656164696E67206361EC
:1019C00072642E2E2E00506C6561736520696E73F3
:1019D0006572742063617264004E6F2053442D431E
:1019E000415244210066726F6D2074686520534433
:1019F0002063617264004C6F61646564206D617482
:101A0000657269616C73004F6B006469616D657428
:101A1000657200666C6F770066616E5F73706565F6
:101A200064006265645F74656D706572617475727F
:101A3000650074656D7065726174757265006E61C4
:101A40006D65005B6D6174657269616C5D00466F08
:101A5000756E64206F6E20636172642E004E6F207D
:101A60006578706F72742066696C65005265616498
:101A7000696E6720636172642E2E2E00506C656162
:101A8000736520696E736572742063617264004EC1
:101A90006F2053442D43415244210053656C6563CC
:101AA000746564206D6174657269616C3A004F4BB6
:101AB000004D4154455249414C004731204625696B
:101AC0002058256920592569004732382058302090
:101AD0005930004348414E47450053455454494E00
:101AE00047530052455455524E004300432F004384
:101AF0006C69636B20746F2072657475726E004E32
:101B00006F7A7A6C652074656D7065726174757238
:101B1000653A00507265706172696E6720746F205B
:101B20007072696E743A0048656174696E672075F9
:101B3000702E2E2E0054554E450041424F525400F7
:101B40004C4544204272696768746E657373005235
:101B5000657472616374696F6E004D61746572695A
:101B6000616C20666C6F770046616E2073706565EE
:101B7000640054656D7065726174757265005370B0
:101B80006565640041626F7274003C205245545593
:101B9000524E00250025002500430043002500414A
:101BA000626F727420746865207072696E743F0091
:101BB000594553004E4F003F3F3F005265747261DC
:101BC0006374207370656564005265747261637438
:101BD000206C656E677468003C2052455455524E27
:101BE000006D6D2F736563006D6D006D6D2F7365F6
:101BF000630052657472616374207370656564007C
:101C00006D6D0052657472616374206C656E6774EB
:101C1000680052455452414354494F4E00250042FA
:101C200072696768746E6573730025004D61746531
:101C30007269616C20666C6F7700250046616E20CA
:101C400073706565640025005072696E742073704E
:101C50006565640054554E450054696D65206C659A
:101C600066740054696D65206C65667420756E6BD2
:101C70006E6F776E004300430048656174696E675C
:101C8000206275696C64706C617465004300430088
:101C900048656174696E67005072696E74696E6739
:101CA0003A0054554E450050415553450052455356
:101CB000554D457C5052494E54004348414E47458E
:101CC0007C4D4154455249414C0054554E45004DC0
:101CD00038340047323800473238205A3000473213
:101CE000382058302059300047312046256920459A
:101CF000300047393220452569004D343031004DE0
:101D0000363031205835205935205A2569204C2548
:101D10006900746865207072696E742E00596F7561
:101D20002063616E2072656D6F7665005072696E1A
:101D3000742066696E6973686564004241434B2094
:101D4000544F204D454E55004320005072696E742B
:101D5000657220636F6F6C696E6720646F776E00C9
:101D60004241434B20544F204D454E55006F662055
:101D70007072696E74696E67206172656100547279
:101D8000696564207072696E74696E67206F75741E
:101D9000004552524F523A0052455455524E20542B
:101DA0004F204D41494E00756C74696D616B6572D1
:101DB0002E636F6D2F4552303800476F20746F3A95
:101DC0000072656164696E672053442D63617264BB
:101DD00021004572726F72207768696C6500524508
:101DE0005455524E20544F204D41494E0066726F5B
:101DF0006D2074686520736C696365722E0073656D
:101E00007474696E67207769746820736574746987
:101E10006E67006F76657272696465206D616368D4
:101E2000696E6500546869732066696C652077691E
:101E30006C6C00434F4E54494E55450043414E4350
:101E4000454C003C204241434B003C2052455455F8
:101E5000524E005344204341524400473120463102
:101E60003230303020582D31302059313000473257
:101E700038003B464C41564F523A556C74694743C3
:101E80006F6465003B464C41564F523A556C74693D
:101E900047436F6465004E6F2066696C657320660A
:101EA0006F756E6421004F4B004F4B0052656164AB
:101EB000696E6720636172642E2E2E00506C65611E
:101EC000736520696E736572742063617264004E7D
:101ED0006F2053442D4341524421004E6F20696EC0
:101EE000666F20617661696C61626C65006D006D82
:101EF000004D6174657269616C3A200054696D65CA
:101F00003A20003B4D4154455249414C3A003B5424
:101F1000494D453A00466F6C646572004D32313868
:101F200020496E76616C69642065787472756465A9
:101F30007220004D31303920496E76616C69642021
:101F4000657874727564657220004D3130352049B2
:101F50006E76616C69642065787472756465722050
:101F6000004D31303420496E76616C6964206578AB
:101F700074727564657220005072696E74657220A7
:101F800073746F707065642064756520746F20656C
:101F900072726F72732E20466978207468652065AE
:101FA00072726F7220616E6420757365204D3939CD
:101FB0003920746F20726573746172742E202854F6
:101FC000656D7065726174757265206973207265E4
:101FD0007365742E2053657420697420616674657E
:101FE000722072657374617274696E672900507231
:101FF000696E7465722068616C7465642E206B690B
:102000006C6C28292063616C6C656421006F6B0027
:10201000526573656E643A2000456E6473746F7028
:10202000207374696C6C20707265737365642061D1
:1020300066746572206261636B696E67206F6666A5
:102040002E20456E6473746F7020737475636B3FDC
:1020500000456E6473746F70206E6F7420707265CB
:102060007373656420616674657220686F6D696E54
:102070006720646F776E2E20456E6473746F7020D6
:1020800062726F6B656E3F00456E6473746F702093
:102090006E6F742070726573736564206166746519
:1020A0007220686F6D696E6720646F776E2E2045B1
:1020B0006E6473746F702062726F6B656E3F002286
:1020C00000556E6B6E6F776E20636F6D6D616E6421
:1020D0003A202200456C656374726F6E6963735FAA
:1020E0007465737400416374697665204578747211
:1020F000756465723A2000496E76616C696420658A
:102100007874727564657200540020423A30002081
:10211000423A31006F6B20523A0020633A0020644B
:102120003A0020693A0020703A006F6B0022005597
:102130006E6B6E6F776E20636F6D6D616E643A20AB
:1021400022006F70656E005452494747455245441E
:10215000007A5F6D61783A20006F70656E005452AE
:102160004947474552454400795F6D61783A200000
:102170006F70656E00545249474745524544007898
:102180005F6D696E3A20005265706F7274696E6798
:1021900020656E6473746F7020737461747573005E
:1021A0005A3A00593A0020436F756E7420583A200D
:1021B00000453A005A3A00593A00583A0046495206
:1021C0004D574152455F4E414D453A4D61726C69E4
:1021D0006E20556C74696D616B6572323B20537073
:1021E00072696E7465722F6772626C206D617368BC
:1021F000757020666F722067656E36204649524DB5
:10220000574152455F55524C3A687474703A2F2FBB
:102210006769746875622E636F6D2F556C74696D94
:10222000616B65722050524F544F434F4C5F56457F
:102230005253494F4E3A312E30204D414348494E7A
:10224000455F545950453A556C74696D616B6572C0
:102250002045585452554445525F434F554E543AC9
:10226000310A0020423A0020453A00543A003F002B
:1022700020573A0020453A00543A002042403A00A4
:1022800020403A00202F0020423A00202F006F6BA0
:1022900020543A002569206D696E2C202569207331
:1022A000656300456E642066696C65206C697374B3
:1022B00000426567696E2066696C65206C6973749D
:1022C00000256920686F757273202569206D696E1D
:1022D0007574657300446F6E65207072696E746901
:1022E0006E672066696C65005072696E7465722055
:1022F00073746F707065642064756520746F2065F9
:1023000072726F72732E204669782074686520653A
:1023100072726F7220616E6420757365204D393959
:102320003920746F20726573746172742E20285482
:10233000656D706572617475726520697320726570
:102340007365742E2053657420697420616674650A
:10235000722072657374617274696E6729006F6BA5
:10236000004E6F204C696E65204E756D626572205F
:102370007769746820636865636B73756D2C204C96
:10238000617374204C696E653A20004E6F2043687B
:1023900065636B73756D2077697468206C696E6511
:1023A000206E756D6265722C204C617374204C69CF
:1023B0006E653A2000636865636B73756D206D69A7
:1023C000736D617463682C204C617374204C696E6A
:1023D000653A20004C696E65204E756D626572200D
:1023E0006973206E6F74204C617374204C696E6544
:1023F000204E756D6265722B312C204C61737420F8
:102400004C696E653A20004D31313000446F6E6585
:1024100020736176696E672066696C652E006F6B4C
:10242000004D3239002020506C616E6E657242752D
:102430006666657242797465733A2000204672655B
:1024400065204D656D6F72793A20004D61792031BC
:1024500031203230313600436F6D70696C65643AFB
:102460002000566572733A5F322E31676F00207C10
:1024700020417574686F723A20004D6179203131C6
:1024800020323031362031303A35313A3236002080
:102490004C61737420557064617465643A20003136
:1024A0002E302E30004D61726C696E200020536F0B
:1024B0006674776172652052657365740020576198
:1024C000746368646F67205265736574002042729C
:1024D0006F776E206F7574205265736574002045A8
:1024E000787465726E616C20526573657400506F0C
:1024F0007765725570007374617274002200656EA6
:10250000717565696E672022002200656E717565C0
:10251000696E67202200FF01010000E0400000E03A
:10252000400000E040000008430000F842000002C4
:1025300043000060C10000F842000002430000F4C4
:10254000420000F84200000243000060C1000000A9
:1025500000000000006563686F3A004572726F7298
:102560003A0000002110422063308440A550C6602C
:10257000E770088129914AA16BB18CC1ADD1CEE140
:10258000EFF13112100273325222B5529442F772B7
:10259000D662399318837BB35AA3BDD39CC3FFF390
:1025A000DEE36224433420040114E664C774A444C7
:1025B00085546AA54BB528850995EEE5CFF5ACC5E0
:1025C0008DD55336722611163006D776F666955697
:1025D000B4465BB77AA719973887DFF7FEE79DD730
:1025E000BCC7C448E5588668A77840086118022827
:1025F0002338CCC9EDD98EE9AFF9488969990AA980
:102600002BB9F55AD44AB77A966A711A500A333AF6
:10261000122AFDDBDCCBBFFB9EEB799B588B3BBBCF
:102620001AABA66C877CE44CC55C222C033C600C86
:10263000411CAEED8FFDECCDCDDD2AAD0BBD688D1F
:10264000499D977EB66ED55EF44E133E322E511ED6
:10265000700E9FFFBEEFDDDFFCCF1BBF3AAF599F6F
:10266000788F8891A981CAB1EBA10CD12DC14EF10F
:102670006FE18010A100C230E32004502540467075
:102680006760B9839893FBA3DAB33DC31CD37FE3A0
:102690005EF3B1029012F322D232354214527762C5
:1026A0005672EAB5CBA5A89589856EF54FE52CD570
:1026B0000DC5E234C324A014810466744764245415
:1026C0000544DBA7FAB79987B8975FE77EF71DC780
:1026D0003CD7D326F2369106B01657667676154665
:1026E00034564CD96DC90EF92FE9C899E9898AB9D0
:1026F000ABA94458654806782768C018E1088238B5
:10270000A3287DCB5CDB3FEB1EFBF98BD89BBBABDF
:102710009ABB754A545A376A167AF10AD01AB32A04
:10272000923A2EFD0FED6CDD4DCDAABD8BADE89D2F
:10273000C98D267C076C645C454CA23C832CE01C54
:10274000C10C1FEF3EFF5DCF7CDF9BAFBABFD98FBF
:10275000F89F176E367E554E745E932EB23ED10EA4
:10276000F01E7C3C3E5E2B3D3F2F5B5D3B2C2A22C6
:102770005C0020746F6F206C6F6E672065787472D8
:102780007573696F6E2070726576656E746564002E
:1027900020636F6C6420657874727573696F6E2046
:1027A00070726576656E746564006563686F3A0083
:1027B000205A3A0020593A0020583A00656E647356
:1027C000746F7073206869743A200024F4D4305018
:1027D000C38E20C2A24017828B7011127A910D8194
:1027E0006CD90AA861E108C7586607615143061E03
:1027F0004B5D05C145A7041A411104093D980371B9
:102800003931034036DB0265339102D43054028003
:102810002E1D02632CEE01752AC501B028A00110FF
:102820002781018F2564012B244B01E0223401AC68
:10283000211F018D200D01801FFC00841EED0097DB
:102840001DDF00B81CD200E61BC600201BBC0064C4
:102850001AB200B219A8000A19A0006A189900D18A
:1028600017910040178B00B516840031167E00B317
:102870001579003A157300C7146F0058146A00EEFA
:102880001366008813630025135E00C7125B006C9B
:1028900012570015125400C111510070114F002140
:1028A000114B00D61049008D10470046104400021D
:1028B000104200C00F4000800F3E00420F3C000657
:1028C0000F3B00CB0E3800930E37005C0E3500270F
:1028D0000E3400F30D3200C10D3100900D30006058
:1028E0000D2E00320D2D00050D2C00D90C2B00AE45
:1028F0000C2900850C29005C0C2700350C27000EE4
:102900000C2600E80B2400C40B2400A00B23007D40
:102910000B23005A0B2100390B2100180B2000F863
:102920000A1F00D90A1E00BB0A1E009D0A1D008056
:102930000A1D00630A1C00470A1B002C0A1B001119
:102940000A1A00F7091A00DD091900C4091900ABB9
:10295000091900920917007B091800630917004C38
:1029600009160036091600200916000A091500F597
:10297000081500E0081400CC081400B8081400A4DE
:10298000081400900813007D0812006B081300580B
:102990000812004608120034081100230811001222
:1029A00008110001081100F0071000E0071000D026
:1029B000071000C0071000B0070F00A1071000911A
:1029C000070E0083070F0074070F0065070E0057FE
:1029D000070E0049070E003B070D002E070E0020D2
:1029E000070D0013070D0006070D00F9060C00ED9A
:1029F000060D00E0060C00D4060C00C8060C00BC56
:102A0000060C00B0060C00A4060B0099060C008D05
:102A1000060B0082060B0077060B006C060B0061AC
:102A2000060A0057060B004C060A0042060A003848
:102A3000060A002E060A0024060A001A060A0010DA
:102A400006090007060A00FD050900F4050900EB68
:102A5000050900E2050900D9050900D0050900C7EC
:102A6000050900BE050900B5050800AD050800A56B
:102A70000509009C050800940508008C05080084E1
:102A80000508007C050800740508006C0507006552
:102A90000508005D050700560508004E05070047BC
:102AA0000507004005080038050700310507002A22
:102AB000050700230507001C050600160507000F83
:102AC0000507000805060002050700FB040600F5DF
:102AD000040700EE040600E8040600E2040700DB39
:102AE000040600D5040600CF040600C9040600C38E
:102AF000040600BD040600B7040600B1040500ACDE
:102B0000040600A6040600A00405009B0406009528
:102B1000040500900406008A040500850405008071
:102B20000406007A04050075040500700405006BB6
:102B300004050066040500610405005C04050057F7
:102B4000040500520405004D040500480405004337
:102B50000405003E0404003A040500350405003075
:102B60000404002C04050027040400230405001EAF
:102B70000404001A04040016040500110404000DE6
:102B8000040400090405000404040000040400FC1B
:102B9000030400F8030400F4030400F0030400EC51
:102BA000030400E8030400E4030400E0030400DC81
:102BB000030400D8030400D4030400D0030400CCB1
:102BC000030400C8030300C503030024F404D92050
:102BD0001BC40C5C0E9804C4095F0265077101F404
:102BE00005F900FB04B30048048700C103690058DD
:102BF00003550003034500BE023A0084023100532E
:102C0000022A002902250004022000E4011C00C859
:102C1000011900AF0117009801140084011300711D
:102C20000110006101100051010E0043010D00363A
:102C3000010B002B010B0020010B00150109000CFA
:102C400001090003010800FB000800F3000800EB85
:102C5000000700E4000600DE000600D8000600D2EF
:102C6000000600CC000500C7000500C2000500BD3D
:102C7000000400B9000400B5000400B1000400AD78
:102C8000000400A9000400A5000300A20003009FA7
:102C90000004009B000300980003009500020093CD
:102CA000000300900003008D0002008B00030088E9
:102CB0000002008600020084000300810002007F01
:102CC0000002007D0002007B000200790002007714
:102CD0000001007600020074000200720001007121
:102CE0000002006F0002006D0001006C0002006A2B
:102CF0000001006900020067000100660001006534
:102D00000001006400020062000100610001006037
:102D10000001005F0002005D0001005C0001005B3B
:102D20000001005A0001005900010058000100573D
:102D3000000100560001005500010054000100533D
:102D4000000000530001005200010051000100503A
:102D50000001004F0001004E0000004E0001004D38
:102D60000001004C0001004B0000004B0001004A34
:102D70000001004900010048000000480001004730
:102D8000000100460000004600010045000000452B
:102D90000001004400010043000000430001004224
:102DA000000000420001004100000041000100401D
:102DB0000001003F0000003F0001003E0000003E17
:102DC0000001003D0000003D0001003C0000003C0F
:102DD0000000003C0001003B0000003B0001003A05
:102DE0000000003A000100390000003900010038FD
:102DF00000000038000000380001003700000037F4
:102E000000010036000000360000003600010035E9
:102E100000000035000000350001003400000034DF
:102E200000000034000100330000003300000033D4
:102E300000010032000000320000003200010031C9
:102E400000000031000000310001003000000030BF
:102E5000000000300001002F0000002F0000002FB4
:102E60000000002F0001002E0000002E0000002EA8
:102E70000001002D0000002D0000002D0000002D9D
:102E80000001002C0000002C0000002C0000002C91
:102E90000001002B0000002B0000002B0000002B85
:102EA0000001002A0000002A0000002A0000002A79
:102EB000000100290000002900000029000000296D
:102EC0000000002900010028000000280000002860
:102ED0000000002800000028000100270000002753
:102EE0000000002700000027000000270001002646
:102EF000000000260000002600000026000000263A
:102F0000000100250000002500000025000000252C
:102F1000000000250000002500010024000000241E
:102F20000000002400000024000000240001002311
:102F30000000002300000023000000230000002305
:102F400000000023000000230001002200000022F6
:102F500000000022000000220000002200000022E9
:102F600000010021000000210000002100000021DC
:102F700000000021000000210000002100010020CD
:102F800000000020000000200000002000000020C1
:102F90000000002000000020000000200001001FB1
:102FA0000000001F0000001F0000001F0000001FA5
:102FB0000000001F0000001F0001001E0000001E96
:102FC0000000001E0000001E0000006563686F3AEC
:102FD000003A20457874727564657220737769745D
:102FE00063686564206F66662E204D494E54454DDA
:102FF00050207472696767657265642021003A2009
:103000004578747275646572207377697463686556
:1030100064206F66662E204D415854454D502074F3
:103020007269676765726564202100202D20496EF2
:1030300076616C6964206578747275646572206E5F
:10304000756D626572202100504944204175746F8E
:1030500074756E652066696E6973686564212050B9
:10306000757420746865204B702C204B6920616E4C
:1030700064204B6420636F6E7374616E7473206997
:103080006E746F20436F6E66696775726174696FE5
:103090006E2E6800504944204175746F74756E65DA
:1030A000206661696C6564212074696D656F757453
:1030B0000020403A006F6B20543A006F6B20423A78
:1030C00000504944204175746F74756E65206661C7
:1030D000696C6564212054656D70657261747572E8
:1030E0006520746F6F206869676800204B643A2020
:1030F00000204B693A2000204B703A200020436C9E
:10310000617369632050494420002054753A2000BF
:10311000204B753A2000206D61783A2000206D69BF
:103120006E3A200020643A200020626961733A20E0
:1031300000504944204175746F74756E6520737436
:1031400061727400504944204175746F74756E65E6
:10315000206661696C65642E204261642065787424
:103160007275646572206E756D6265722E004572AF
:10317000726F723A000000000018070100A80714DF
:103180000030082800B8083C0038095000C0096425
:1031900000480A7800C80A8C00480BA000C80BB48D
:1031A00000480CC800C80CDC00400DF000C00D0445
:1031B00001380E1801B00E2C01280F4001A00F5449
:1031C000011810680188107C01001190013013F47F
:1031D00001481558024017BC0228192003F01A8430
:1031E00003A81CE803401E4C044D383420582059D5
:1031F000205A20450043616E6E6F7420656E7465C1
:1032000072207375626469723A20004D3234004D49
:103210003233202573006175746F25692E67006550
:1032200072726F722077726974696E6720746F2092
:1032300066696C650043617264206572726F723AF0
:10324000004E6F74205344207072696E74696E670B
:10325000002F005344207072696E74696E6720629B
:1032600079746520002E0044656C6574696F6E206A
:103270006661696C65642C2046696C653A2000467D
:10328000696C652064656C657465643A002E006F36
:1032900070656E206661696C65642C2046696C659A
:1032A0003A200057726974696E6720746F206669EE
:1032B0006C653A20002E006F70656E206661696C47
:1032C00065642C2046696C653A20002E006F70659D
:1032D0006E206661696C65642C2046696C653A20D5
:1032E0000046696C652073656C65637465640020D5
:1032F00053697A653A200046696C65206F70656E87
:1033000065643A20002E006F70656E206661696CFE
:1033100065642C2046696C653A2000534420636143
:103320007264206F6B006F70656E526F6F742066F1
:1033300061696C656400766F6C756D652E696E6988
:1033400074206661696C656400534420696E697419
:10335000206661696C0043616E6E6F74206F7065EA
:103360006E20737562646972006563686F3A004528
:1033700072726F723A0048617264636F64656420B0
:1033800044656661756C742053657474696E677307
:10339000204C6F6164656400563031300053746FA7
:1033A0007265642073657474696E677320726574E6
:1033B0007269657665640020440020490020202061
:1033C0004D33303120500050494420736574746986
:1033D0006E67733A00205A0020590020204D323089
:1033E00036205800486F6D65206F666673657420DF
:1033F000286D6D293A00204500205A0020580020F1
:10340000420020540020204D3230352053004164CA
:1034100076616E636564207661726961626C657362
:103420003A20533D4D696E2066656564726174652E
:1034300020286D6D2F73292C20543D4D696E20740A
:10344000726176656C2066656564726174652028BA
:103450006D6D2F73292C20423D6D696E696D756D00
:10346000207365676D656E742074696D6520286DC5
:1034700073292C20583D6D6178696D756D20585900
:10348000206A65726B20286D6D2F73292C20205ABD
:103490003D6D6178696D756D205A206A65726B208B
:1034A000286D6D2F73292C2020453D6D6178696D45
:1034B000756D2045206A65726B20286D6D2F73290C
:1034C0000020540020204D323034205300416363EB
:1034D000656C65726174696F6E3A20533D61636318
:1034E000656C65726174696F6E2C20543D726574F1
:1034F0007261637420616363656C65726174696F86
:103500006E00204500205A0020590020204D323006
:10351000312058004D6178696D756D204163636598
:103520006C65726174696F6E20286D6D2F7332291E
:103530003A00204500205A0020590020204D32300A
:10354000332058004D6178696D756D20666565643E
:10355000726174657320286D6D2F73293A002045C0
:1035600000205A0020590020204D393220580053A5
:10357000746570732070657220756E69743A0053BB
:10358000657474696E67732053746F726564006547
:1035900063686F3A00544553540D0A000D0A0055F4
:1035A0006E6B6E6F776E20636F6D6D616E643A2027
:1035B000000D0A003F00566572733A5F322E316784
:1035C0006F00024E414E494E495459494E46CDCCAA
:1035D000CC3D0AD7233C17B7D13877CC2B32959501
:1035E000E6241FB14F0A000020410000C8420040FD
:1035F0001C4620BCBE4CCA1B0E5AAEC59D744190E1
:10360000529011241FBECFEFD1E2DEBFCDBF00E04C
:103610000CBF13E0A0E0B2E0E2EBFDEC01E00BBF79
:1036200002C007900D92A232B107D9F729E1A2E2B8
:10363000B3E001C01D92AF33B207E1F715E3C0E07C
:10364000D6E300E006C022970109FE010BBF0E94ED
:10365000A3DFCE3FD10780E00807A9F70E947DDAFB
:103660000C94C7E60C9400001F920F920FB60F92B5
:1036700011242F933F938F939F93AF93BF93809188
:10368000230390912403A0912503B0912603309148
:10369000220323E0230F2D3720F40196A11DB11D35
:1036A00005C026E8230F0296A11DB11D2093220319
:1036B0008093230390932403A0932503B0932603C0
:1036C0008091270390912803A0912903B0912A03A8
:1036D0000196A11DB11D8093270390932803A09309
:1036E0002903B0932A03BF91AF919F918F913F918E
:1036F0002F910F900FBE0F901F9018952FB7F89431
:1037000060912303709124038091250390912603F7
:103710002FBF08953FB7F894809127039091280315
:10372000A0912903B0912A0326B5A89B05C02F3F7D
:1037300019F00196A11DB11D3FBF6627782F892F73
:103740009A2F620F711D811D911D42E0660F771F38
:10375000881F991F4A95D1F70895CF92DF92EF9273
:10376000FF92CF93DF936B017C010E948A1BEB01D8
:10377000C114D104E104F10479F00E948A1B6C1B8E
:103780007D0B683E7340A0F381E0C81AD108E108C0
:10379000F108C851DC4FECCFDF91CF91FF90EF9053
:1037A000DF90CF9008950197009739F0880F991F07
:1037B000880F991F02970197F1F70895789484B5BF
:1037C000826084BD84B5816084BD85B5826085BD1D
:1037D00085B5816085BDEEE6F0E080818160808303
:1037E000E1E8F0E0108280818260808380818160E6
:1037F0008083E0E8F0E0808181608083E1EBF0E0AD
:10380000808184608083E0EBF0E080818160808350
:10381000E1E9F0E080818260808380818160808343
:10382000E0E9F0E0808181608083E1EAF0E080817E
:1038300082608083808181608083E0EAF0E0808123
:1038400081608083E1E2F1E0808182608083808119
:1038500081608083E0E2F1E0808181608083EAE73B
:10386000F0E08081846080838081826080838081B9
:10387000816080838081806880831092C100089578
:103880001F93CF93DF93182FEB0161E00E944C1D33
:10389000209711F460E004C0CF3FD10539F461E016
:1038A000812FDF91CF911F910C94851DE12FF0E0C6
:1038B000EE51FB4F449150E0FA013197E131F105AF
:1038C00008F091C0EE58FF4F0C9474DF84B5806807
:1038D00084BDC7BD8DC084B5806284BDC8BD88C0AD
:1038E00080918000806880938000D0938900C0938D
:1038F00088007EC080918000806280938000D09399
:103900008B00C0938A0074C08091B000806880935F
:10391000B000C093B3006CC08091B000806280930F
:10392000B000C093B40064C0809190008068809320
:103930009000D0939900C09398005AC08091900055
:10394000806280939000D0939B00C0939A0050C0F7
:1039500080919000886080939000D0939D00C093E8
:103960009C0046C08091A00080688093A000809158
:10397000A0008F7B8093A000D093A900C093A800E3
:1039800037C08091A00080628093A000D093AB00EC
:10399000C093AA002DC08091A00088608093A000F1
:1039A000D093AD00C093AC0023C08091200180680B
:1039B00080932001D0932901C093280119C08091E0
:1039C0002001806280932001D0932B01C0932A01B3
:1039D0000FC080912001886080932001D0932D0139
:1039E000C0932C0105C0C038D1050CF058CF52CF80
:1039F000DF91CF911F91089590E0FC013197E13163
:103A0000F10508F048C0ED57FF4F0C9474DF80912A
:103A100080008F7703C0809180008F7D809380002D
:103A2000089584B58F7702C084B58F7D84BD0895D5
:103A30008091B0008F7703C08091B0008F7D80931C
:103A4000B0000895809190008F7707C0809190001A
:103A50008F7D03C080919000877F809390000895B0
:103A60008091A0008F7707C08091A0008F7D03C058
:103A70008091A000877F8093A0000895809120010D
:103A80008F7707C0809120018F7D03C08091200136
:103A9000877F809320010895CF93DF9390E0FC010E
:103AA000E85DFA4F2491FC01E259FA4F8491882392
:103AB00049F190E0880F991FFC01E253FA4FA5915C
:103AC000B4918C549A4FFC01C591D4919FB7611168
:103AD00008C0F8948C91209582238C93888182234E
:103AE0000AC0623051F4F8948C91322F30958323C0
:103AF0008C938881822B888304C0F8948C91822BCC
:103B00008C939FBFDF91CF9108950F931F93CF9315
:103B1000DF931F92CDB7DEB7282F30E0F901EE51C9
:103B2000FB4F8491F901E85DFA4F1491F901E259D4
:103B3000FA4F04910023C9F0882321F069830E9481
:103B4000FC1C6981E02FF0E0EE0FFF1FEC54FA4FF0
:103B5000A591B4919FB7F8948C91611103C0109511
:103B6000812301C0812B8C939FBF0F90DF91CF9158
:103B70001F910F9108951F920F920FB60F9211246B
:103B80000BB60F922F933F934F935F936F937F9357
:103B90008F939F93AF93BF93EF93FF9380912F03E6
:103BA00090913003892B29F0E0912F03F09130039D
:103BB0001995FF91EF91BF91AF919F918F917F9157
:103BC0006F915F914F913F912F910F900BBE0F908E
:103BD0000FBE0F901F9018951F920F920FB60F9265
:103BE00011240BB60F922F933F934F935F936F93D4
:103BF0007F938F939F93AF93BF93EF93FF938091A6
:103C0000310390913203892B29F0E0913103F09137
:103C100032031995FF91EF91BF91AF919F918F91D1
:103C20007F916F915F914F913F912F910F900BBEBC
:103C30000F900FBE0F901F9018951F920F920FB606
:103C40000F9211240BB60F922F933F934F935F93D4
:103C50006F937F938F939F93AF93BF93EF93FF9354
:103C60008091330390913403892B29F0E091330341
:103C7000F09134031995FF91EF91BF91AF919F910E
:103C80008F917F916F915F914F913F912F910F9005
:103C90000BBE0F900FBE0F901F9018951F920F92A2
:103CA0000FB60F9211240BB60F922F933F934F93A1
:103CB0005F936F937F938F939F93AF93BF93EF9394
:103CC000FF938091350390913603892B29F0E09181
:103CD0003503F09136031995FF91EF91BF91AF91A4
:103CE0009F918F917F916F915F914F913F912F9114
:103CF0000F900BBE0F900FBE0F901F9018951F9244
:103D00000F920FB60F9211240BB60F922F933F9381
:103D10004F935F936F937F938F939F93AF93BF93D3
:103D2000EF93FF9380912B0390912C03892B29F023
:103D3000E0912B03F0912C031995FF91EF91BF9126
:103D4000AF919F918F917F916F915F914F913F9133
:103D50002F910F900BBE0F900FBE0F901F901895D4
:103D60001F920F920FB60F9211240BB60F922F9342
:103D70003F934F935F936F937F938F939F93AF93F3
:103D8000BF93EF93FF9380912D0390912E03892B86
:103D900029F0E0912D03F0912E031995FF91EF91F9
:103DA000BF91AF919F918F917F916F915F914F9153
:103DB0003F912F910F900BBE0F900FBE0F901F9051
:103DC00018951F920F920FB60F9211240BB60F92F7
:103DD0002F933F934F935F936F937F938F939F9313
:103DE000AF93BF93EF93FF93809137039091380384
:103DF000892B29F0E0913703F09138031995FF9151
:103E0000EF91BF91AF919F918F917F916F915F9152
:103E10004F913F912F910F900BBE0F900FBE0F90BF
:103E20001F9018951F920F920FB60F9211240BB688
:103E30000F922F933F934F935F936F937F938F9343
:103E40009F93AF93BF93EF93FF938091390390912A
:103E50003A03892B29F0E0913903F0913A0319953F
:103E6000FF91EF91BF91AF919F918F917F916F9152
:103E70005F914F913F912F910F900BBE0F900FBE0E
:103E80000F901F901895FF920F931F93CF93DF937E
:103E900088EA9FEF90935F0380935E034091520303
:103EA00088E0840F405E682F0E942B290E94902E8C
:103EB000809152038435C8F548E757E066E180E019
:103EC0000E949F2F07E116E1C0E0D0E0FC2E409158
:103ED0005203842F90E0880F991FFE017396E81714
:103EE000F90744F4440F44514C1B202F612F80E00C
:103EF0000E949B2E80915203482F50E0440F551F83
:103F00004C175D0734F0880F202F4FE7612F8F1972
:103F100004C0202F4FE7612F80E00E949B2E219646
:103F20001E5F0E5F1A3291F609C0815080935203D2
:103F300048E757E066E180E00E949F2F0E94EE284C
:103F400080913B03811113C02091520330E0220F76
:103F5000331F40911202429FC001439F900D1124D4
:103F600064E670E00E941FDF88E00E94401C8091A0
:103F70005103811104C080915D038823E9F1809190
:103F80003B0381110DC0809112022FEF829FC0016F
:103F9000112464E670E00E941FDF88E00E94401C4C
:103FA00010925103109252034CE360E380E30E94AD
:103FB0002B2980915D0381110E94123080E094E0F2
:103FC0000E94E5E5853579F420E030E0A9016091B3
:103FD0008C0E70918D0E80918E0E90918F0E0E949E
:103FE00064DB811103C081E99CE302C082E090E2BE
:103FF00090935A0380935903DF91CF911F910F91B2
:10400000FF90089547EF55E06EEE75E088EE95E07D
:104010000E940D2480915D03882349F180915E0305
:1040200090915F039C01295F3F4F2F30310558F479
:104030000E94AF6286EA9EE00E948ECA62E070E053
:1040400081EC92E612C09C012850310928303105DC
:1040500028F468EA7FEF8FE191E507C04097089761
:1040600030F468EA7FEF8EEF9CE30E94DD238091BD
:104070005C038823A1F080915E0390915F03883AEE
:104080009F4F69F41092510380915203893C58F07C
:1040900068EA7FEF85E590E20E94DD2304C010927C
:1040A0005103109252030C94EE288F929F92BF926C
:1040B000CF92DF92EF92FF920F931F93CF93DF93F4
:1040C0001F921F92CDB7DEB780915E0390915F0380
:1040D000883A9F4F59F58AE190E090935F0380936F
:1040E0005E032EE737E043E080E090E0F901E80F5F
:1040F000F91F4083019685309105C1F72B5F3F4F33
:1041000087E02D38380781F710928E0710928D07BF
:1041100080E099E39093900780938F071092920725
:1041200010929107109294071092930780915E036A
:1041300090915F0397FF04C010925F0310925E039B
:1041400080915E0390915F03880F991F8B369105D4
:1041500034F085E390E090935F0380935E03609179
:1041600091077091920780918D0790918E07860F2D
:10417000971F90938E0780938D07409193075091DE
:10418000940720918F0730919007240F351F3093AB
:10419000900720938F078F3F910509F01CF477FF5C
:1041A0000DC009C08130ECE79E0764F077FF03C0C3
:1041B0007195619571097195619571097093920777
:1041C000609391072F3F310509F054F457FF03C066
:1041D000519541955109509394074093930705C019
:1041E0002115FEE13F070CF053C0292F220F220BAF
:1041F000892F922F69E170E00E941FDF262F932FF5
:10420000990F990B832F6AE070E00E941FDF45E051
:10421000649FF0011124E20FF11DE258F84F8081F4
:104220008823B1F181508083809193079091940706
:1042300097FF03C09195819591099093940780937E
:1042400093078EE797E020E030E0FC01E20FF31FD8
:10425000408141111DC02F5F3F4F25303105A9F727
:104260000596F7E08D389F0771F78EE797E043E0FA
:1042700020E030E0FC01E20FF31F40832F5F3F4F4F
:1042800025303105B9F70596E7E08D389E0781F7AF
:1042900080918F079091900781309A430CF448C029
:1042A00020918D0730918E0780915E0390915F037E
:1042B0000197880F991F582F44272417350734F08A
:1042C0004796982F88278217930734F468EA7FEF80
:1042D00082E090E20E94DD238BEF9FEF20915E034E
:1042E00030915F03821B930B982F8827990F2091A1
:1042F0008D0730918E07820F931F97FDCF96E6E0D2
:1043000095958795EA95E1F720919107309192076D
:10431000820F931F909392078093910797FF03C09A
:10432000919581959109925090939407809393076A
:104330008091930790919407892B59F580E099E338
:104340009093900780938F0780915E0390915F0315
:104350009C012B5F3F4F220F331F10928D0720933C
:104360008E0720915D032223A1F0809763E0880FE0
:10437000991F6A95E1F7909392078093910797FFB1
:1043800003C09195819591099250909394078093E1
:1043900093070E94902E0EE717E033E047E0B42E1B
:1043A000B30ECC24CA94C30E56E0D52ED30E4801CA
:1043B00094E07401F4018081882361F02B2D43E1A6
:1043C000490F6C2D8FEF890F39839A830E94F32D4B
:1043D0009A813981F4018081823059F42D2D42E196
:1043E000490F632F892F39839A830E94252E9A8142
:1043F0003981FFEF8F1A9F0AF7018081833059F4CA
:104400002D2D42E1490F632F892F39839A830E9412
:10441000212F9A813981975E913859F6365F0B5F6B
:104420001F4F313209F0BACF6091900780918E070B
:1044300022E0260F42E0480F0E94F32D80915E0398
:10444000880F45E1480F2FE36CE30E94F32D0F9096
:104450000F90DF91CF911F910F91FF90EF90DF9020
:10446000CF90BF909F908F900C94EE280E94883040
:104470000E94AC55811106C00E94DC5160E080E0D2
:104480000E94B3540E94145383E49FE190935A0313
:104490008093590360E070E088E00E94401C0E9415
:1044A0007E1B685873418109910960933D037093A5
:1044B0003E0380933F03909340030895CF92DF9291
:1044C000EF92FF920E942629882309F464C10E947A
:1044D000673082B382FB882780F991E08927909129
:1044E000AA0E981759F090914E10992321F09150EF
:1044F00090934E1006C08093AA0E03C088E280936A
:104500004E109091510380915203992341F08250B3
:104510008093520381110BC01092510308C08E5F2B
:10452000809352038E3719F481E0809351030E94E7
:104530001F76882309F48FC00E94902E68E677E0EA
:104540008AE00E948A2C0E94267690E0FC01319736
:10455000EA30F10508F077C0EC56FF4F0C9474DF99
:104560006CE577E084E10E948A2C45E557E068E23B
:1045700081E00E94E02A42E457E061C062E377E014
:1045800084E10E948A2C4BE257E068E281E00E94BD
:10459000E02A48E157E053C06BE077E084E10E94F5
:1045A0008A2C44E057E068E281E00E94E02A41EF73
:1045B00056E045C062EE76E084E10E948A2C4BED25
:1045C00056E068E281E00E94E02A48EC56E037C0FD
:1045D00068EB76E084E10E948A2C41EB56E068E2C9
:1045E00081E00E94E02A4EE956E029C06FE876E0BB
:1045F00084E10E948A2C48E856E068E281E00E944B
:10460000E02A45E756E01BC060E676E084E10E94C0
:104610008A2C49E556E068E281E00E94E02A46E4FF
:1046200056E00DC062E376E084E10E948A2C4BE202
:1046300056E068E281E00E94E02A48E156E062E349
:1046400081E00E94E02A8091520360E8681B482FB5
:104650000E942B2930C00E947E1BC0903D03D09049
:104660003E03E0903F03F09040036C197D098E09F2
:104670009F09683873418105910518F580913C03C5
:1046800081110AC00E94902E63E076E084E10E94CE
:104690008A2C81E080933C038091BE0B8350833051
:1046A00050F40E947E1B60933D0370933E03809301
:1046B0003F0390934003FF90EF90DF90CF900C94D6
:1046C000EE2810923C032DEC3CEC4CE45DE3609151
:1046D00028197091291980912A1990912B190E94FB
:1046E00039DE6B017C0123E333E343E75FE3609151
:1046F0000E0270910F0280911002909111020E949F
:1047000039DE9B01AC01C701B6010E948BDA6093D0
:104710000E0270930F0280931002909311022DEC01
:104720003CEC4CE45DE36091221970912319809177
:104730002419909125190E9439DE6B017C0123E335
:1047400033E343E75FE360910A0270910B028091CB
:104750000C0290910D020E9439DE9B01AC01C70151
:10476000B6010E948BDA60930A0270930B02809369
:104770000C0290930D02E0915903F0915A031995A0
:10478000E0915503F0915603309729F0FF90EF9098
:10479000DF90CF901994FF90EF90DF90CF90089525
:1047A000109231191092301910922F1910922E195F
:1047B0001092820E08950C9435300F931F93CF936F
:1047C000DF93EC018B011092500310925103109271
:1047D00052034CE360E380E30E942B290E941230D5
:1047E0008091590390915A039093580380935703F3
:1047F00080915E0390915F039093540380935303E1
:10480000D0935A03C093590310935F0300935E0340
:10481000DF91CF911F910F910895EF92FF920F9327
:104820001F93CF93DF938C017B01EA0120915E03FC
:1048300030915F03283A8FEF3807A1F037FF06C0A9
:10484000285E3F4F30935F0320935E0380915E03A9
:1048500090915F03883191052CF0489790935F0306
:1048600080935E030E94902E4DE265E080E40E94FA
:104870009F2D40E36CE783E00E94822D20915E0330
:1048800030915F03295F3F4F2F30310590F42BE2C9
:104890004BE367E085E00E94F32D2AE24AE368E0FB
:1048A00086E00E94212FA80166E181E20E941A2D74
:1048B00005C0A80166E181E20E94B22C80915E03EE
:1048C00090915F030897089790F42BE24BE767E01D
:1048D00085E40E94F32D2AE24AE768E086E40E941C
:1048E000212FA70166E181E60E941A2D05C0A701CC
:1048F00066E181E60E94B22C209739F180915E0337
:1049000090915F0340970897B0F42DE34BE763E382
:1049100085E00E94F32D2CE34AE764E386E00E94E1
:10492000212FBE0185E3DF91CF911F910F91FF9061
:10493000EF900C949E2CBE0185E3DF91CF911F91E7
:104940000F91FF90EF900C948A2CDF91CF911F91E3
:104950000F91FF90EF9008950E94902E40E36CE736
:1049600083E00C94822D0F931F93CF93DF931F92BC
:104970001F92CDB7DEB78A0120915E0330915F03AD
:10498000283A4FEF3407A9F037FF06C0205F3F4FAA
:1049900030935F0320935E0320915E0330915F03A9
:1049A0002031310534F02051310930935F032093D9
:1049B0005E0320915D032223C1F020915E033091BC
:1049C0005F03295F3F4F2F30310578F46115710582
:1049D00031F089839A83FB0119959A818981009727
:1049E00021F068EA7FEF0E94DD230E94AC240115CC
:1049F000110511F401E019E080915E0390915F03CD
:104A000007960F97F0F42DE34BE763E385E00E94F0
:104A1000F32D2CE34AE764E386E00E94212FC801CE
:104A20000E94DBE2982F990F980FA80165E381E4BB
:104A3000891B0F900F90DF91CF911F910F910C94D4
:104A4000B02BC8010E94DBE2982F990F980FA801A4
:104A500065E381E4891B0F900F90DF91CF911F9147
:104A60000F910C94E02AAF92BF92CF92DF92EF9217
:104A7000FF920F931F93CF93DF936C01EA015901CB
:104A800040915E0350915F03483A8FEF5807A1F0C1
:104A900057FF06C0405F5F4F50935F0340935E0334
:104AA00080915E0390915F03803191052CF04097D7
:104AB00090935F0380935E0380915D03882331F1BF
:104AC00080915E0390915F039C01295F3F4F2F30DF
:104AD000310560F46115710511F0FB011995C114E0
:104AE000D104A1F068EA7FEFC6010EC008970897CD
:104AF00068F40115110511F0F8011995A114B1041C
:104B000029F068EA7FEFC5010E94DD230E94AC24F2
:104B100080915E0390915F0307960F97C8F42DE391
:104B20004EE363E385E00E94F32D2CE34DE364E361
:104B300086E00E94212FCE010E94DBE2982F990F80
:104B4000980FAE0165E383E2891B0E94B02B0CC075
:104B5000CE010E94DBE2982F990F980FAE0165E31A
:104B600083E2891B0E94E02A80915E0390915F039B
:104B70000897089710F52DE34AE763E382E40E9463
:104B8000F32D2CE349E764E383E40E94212FC7015E
:104B90000E94DBE2982F990F980FA70165E38FE53C
:104BA000891BDF91CF911F910F91FF90EF90DF90C4
:104BB000CF90BF90AF900C94B02BC7010E94DBE266
:104BC000982F990F980FA70165E38FE5891BDF9157
:104BD000CF911F910F91FF90EF90DF90CF90BF90FA
:104BE000AF900C94E02ADF92EF92FF920F931F9305
:104BF000CF93DF93D82E2EE24CE766E283E00E944B
:104C0000F32DC0E0D0E00D2D10E0015011098CE033
:104C1000E82EF12CEC2FCD15D0F4C937D105B9F021
:104C2000C8018C1B9D0BB7010E941FDF482F8530E8
:104C300018F4485D68E205C08A3038F463E2640F16
:104C40004CE284E08E0F0E949F2D2196E3CFDF91EE
:104C5000CF911F910F91FF90EF90DF9008952F92C9
:104C60003F924F925F926F927F928F929F92AF92FC
:104C7000BF92CF92DF92EF92FF920F931F93CF9349
:104C8000DF935C017A01690180915D038111DBC0D2
:104C900080915E0390915F03883A9F4F21F41092B8
:104CA0005F0310925E0320915E0330915F03862EB6
:104CB000992487FC909437FF0BC0C401880F991F7B
:104CC000880F991F820F931F90935F0380935E0359
:104CD00080915E0390915F039401220F331F220F96
:104CE000331F821793074CF0E4E06E02801991099C
:104CF000112490935F0380935E0300915E031091F3
:104D00005F0317FF02C00D5F1F4F1595079515959F
:104D10000795702E0E94902E80914103909142033E
:104D2000D801BB2773E0AA0FBB1F7A95E1F71F9745
:104D3000A81BB90BED01B7FD2396D595C795D59561
:104D4000C795C80FD91F1A161B0614F4219608C060
:104D5000AB2B29F4D0934203C093410309C02197A0
:104D6000D0934203C0934103109251031092520317
:104D70008091410390914203282F27703AE0632EDF
:104D800043E0969587954A95E1F7382E621AC0E080
:104D9000D0E02C2E230C222D30E028153905DCF430
:104DA000822DF70119952C01FC01148A27100EC0E1
:104DB00027E0260D4CE76FEF660D83E00E94212F60
:104DC000A201662D84E00E94F42905C0AC01662D85
:104DD00084E00E9432292196F8E06F0EC630D1059A
:104DE000C1F628E04CE760E083E00E94212F2FE32A
:104DF0004CE76FE283E00E949B2E29E04CE769E0DC
:104E000083E00E949B2E40E36CE783E00E94822DAA
:104E1000B50181E00E949E2C802FF6011995DF914B
:104E2000CF911F910F91FF90EF90DF90CF90BF90A7
:104E3000AF909F908F907F906F905F904F903F903A
:104E40002F900C94EE28DF91CF911F910F91FF903E
:104E5000EF90DF90CF90BF90AF909F908F907F901A
:104E60006F905F904F903F902F9008950F931F93F6
:104E7000CF93DF93CDB7DEB760970FB6F894DEBF60
:104E80000FBECDBF809147039091480320915E03F0
:104E900030915F032817390724F490935F038093C0
:104EA0005E03809145039091460320915E0330910B
:104EB0005F038217930724F490935F0380935E034C
:104EC00080914903813041F4E0914A03F0914B0312
:104ED00080915E0380838EC0823059F4E0914A0352
:104EE000F0914B0380915E0390915F0391838083E7
:104EF00081C08330A9F400914A0310914B03609163
:104F00005E0370915F03882777FD8095982F0E943C
:104F100006DC20E030E048EC52E40E946BDB65C028
:104F2000843089F4E0914A03F0914B0380915E0351
:104F300090915F03AA2797FDA095BA2F8083918354
:104F4000A283B38357C08530A1F4E0914A03F09166
:104F50004B0320915E0330915F034FEF429FC001EE
:104F6000439F900D112464E670E00E941FDF608370
:104F700041C0863099F400914A0310914B0360912F
:104F80005E0370915F03882777FD8095982F0E94BC
:104F900006DC20E030E040E752E414C08730A9F49A
:104FA00000914A0310914B0360915E0370915F037F
:104FB000882777FD8095982F0E9406DC20E030E05E
:104FC00048EC52E40E9439DE10C0883099F4009118
:104FD0004A0310914B0360915E0370915F03882731
:104FE00077FD8095982F0E9406DCF801608371831D
:104FF000828393830E94AC2460914E0370914F038F
:1050000084E10E948A2C2091490380915E03909153
:105010005F0300914C0310914D032330A1F4BC01B8
:10502000882777FD8095982F0E9406DC20E030E0ED
:1050300048EC52E40E946BDB9801AE014F5F5F4F7A
:105040000E945F3206C0A801BE016F5F7F4F0E94C1
:105050005131BE016F5F7F4F8EE10E94C02A6AEF1F
:1050600078E0CE0101960E94D4E22091490300919C
:105070004C0310914D0380914303909144032330DE
:10508000A1F4BC01882777FD8095982F0E9406DC4B
:1050900020E030E048EC52E40E946BDB9801AE0166
:1050A000495F5F4F0E945F3206C0A801BE01695F81
:1050B0007F4F0E945131BE016F5F7F4F85E30E9499
:1050C000C02A0E94EE2880915D03882351F06091F0
:1050D00053037091540380915703909158030E9499
:1050E000DD2360960FB6F894DEBF0FBECDBFDF9113
:1050F000CF911F910F9108959091BC0097FFFCCF25
:105100008093BB0084E88093BC0008958091BC002C
:1051100087FFFCCF84E98093BC0008951F93CF9351
:10512000DF931F92CDB7DEB7182F84EA8093BC00BF
:1051300080EC69830E947C28812F0E947C286981F1
:10514000862F0E947C280F90DF91CF911F910C94A5
:1051500086281F920F920FB60F9211240BB60F9252
:105160002F933F934F935F936F937F938F939F936F
:10517000AF93BF93EF93FF9380916103909162038C
:10518000811524E0920719F40E94862814C0FC01BE
:10519000EA59FC4F80810E947C288091BC0081608C
:1051A0008093BC008091610390916203019690937B
:1051B000620380936103FF91EF91BF91AF919F9143
:1051C0008F917F916F915F914F913F912F910F90B0
:1051D0000BBE0F900FBE0F901F9018956091650346
:1051E00082E00E948E286091640383E00E948E28F2
:1051F0006091630384E00E948E2884EA8093BC005F
:1052000088E70E947C2880E00E947C2880E00E9441
:105210007C2880E10E947C2880EB0E947C28809181
:10522000BC0087FFFCCF84EA8093BC0088E70E9423
:105230007C2880E40E947C28109262031092610313
:105240008091BC0081608093BC0008958091BC0077
:105250008095817008958093650360936403409303
:10526000630308951F93CF93DF93962F969596959A
:105270009695C82FD0E080E8989FC00DD11D1124CD
:10528000DE01AA59BC4FCA51DC4F677078E0761B2B
:1052900015E0FA012081222309F4A2C030E0205257
:1052A0003109129FC001139F900D1124815E964F0A
:1052B000FC012491062E01C0220F0A94EAF73C91CA
:1052C000232B2C933196E491062E01C0EE0F0A9405
:1052D000EAF711962C911197E22B1196EC93119706
:1052E000FC013296E491062E01C0EE0F0A94EAF713
:1052F00012962C911297E22B1296EC931297FC01C6
:105300003396E491062E01C0EE0F0A94EAF7139645
:105310002C911397E22B1396EC931397FC01349680
:105320008491062E01C0880F0A94EAF714969C9186
:105330001497892B14968C9314971696662309F468
:105340004CC0FA01208130E020523109129FC00187
:10535000139F900D1124815E964FFC01249130E043
:10536000072E02C0359527950A94E2F73881322B33
:1053700038833196E491F0E0072E02C0F595E79569
:105380000A94E2F729812E2B2983FC013296E491BD
:10539000F0E0072E02C0F595E7950A94E2F72A811E
:1053A0002E2B2A83FC013396E491F0E0072E02C0F5
:1053B000F595E7950A94E2F72B812E2B2B83FC01C0
:1053C0003496849190E0072E02C0959587950A94B3
:1053D000E2F79C81982B9C8326964F5F5F4F59CFB5
:1053E000DF91CF911F9108951F93CF93DF93962F55
:1053F000969596959695C82FD0E080E8989FC00D19
:10540000D11D1124DE01AA59BC4FCA51DC4F67706F
:1054100078E0761B15E0FA012081222309F4ACC064
:1054200030E020523109129FC001139F900D1124CA
:10543000815E964FFC012491062E01C0220F0A9432
:10544000EAF720953C9132233C933196E491062E65
:1054500001C0EE0F0A94EAF7E09511962C9111978E
:105460002E2311962C931197FC013296E491062E6F
:1054700001C0EE0F0A94EAF7E09512962C9112976C
:105480002E2312962C931297FC013396E491062E4C
:1054900001C0EE0F0A94EAF7E09513962C9113974A
:1054A0002E2313962C931397FC0134968491062E89
:1054B00001C0880F0A94EAF7809514969C9114977E
:1054C000982314969C9314971696662309F451C05A
:1054D000FA01208130E020523109129FC001139F50
:1054E000900D1124815E964FFC01249130E0072E2F
:1054F00002C0359527950A94E2F72095388132232A
:1055000038833196E491F0E0072E02C0F595E795D7
:105510000A94E2F7E09529812E232983FC01329633
:10552000E491F0E0072E02C0F595E7950A94E2F7C2
:10553000E0952A812E232A83FC013396E491F0E042
:10554000072E02C0F595E7950A94E2F7E0952B81C6
:105550002E232B83FC013496849190E0072E02C009
:10556000959587950A94E2F780959C8198239C8372
:1055700026964F5F5F4F4FCFDF91CF911F910895D8
:10558000AB01FB0101900020E9F73197E61BF70B17
:105590009E2F990F9E0F682F80E4891B0C9432294F
:1055A000AB01FB0101900020E9F73197E61BF70BF7
:1055B0009E2F990F9E0F682F80E4891B0C94F4296D
:1055C000AF92BF92CF92DF92EF92FF920F931F9311
:1055D000CF93DF93962F969596959695C82FD0E00A
:1055E00080E8989FC00DD11D1124DE01AA59BC4F3F
:1055F000CA51DC4F677078E0761BFA01249185E090
:10560000B82E222309F4A1C030E020523109B29E05
:10561000C001B39E900D1124815E964FFC01249130
:10562000062E01C0220F0A94EAF73C91232B2C93FB
:105630008C010F5F1F4FF8012491062E01C0220F2D
:105640000A94EAF711963C911197232B11962C930B
:1056500011979C012E5F3F4FF901F490062E01C077
:10566000FF0C0A94EAF71296FC911297FF2A129601
:10567000FC9212976C01F3E0CF0ED11CF601F4906E
:10568000062E01C0FF0C0A94EAF71396FC911397BB
:10569000FF2A1396FC9213977C01F4E0EF0EF11CA5
:1056A000F701A490062E01C0AA0C0A94EAF71496FA
:1056B000FC911497AF2A1496AC9214971696662311
:1056C00009F43EC0FC01849190E0072E02C095953C
:1056D00087950A94E2F79881982B9883F8010491B2
:1056E00010E0072E02C0159507950A94E2F789810C
:1056F000802B8983F901249130E0072E02C0359573
:1057000027950A94E2F78A81822B8A83F601849195
:1057100090E0072E02C0959587950A94E2F79B8149
:10572000982B9B83F701E490EE2DF0E0072E02C04A
:10573000F595E7950A94E2F78C818E2B8C8326965B
:105740004F5F5F4FFA0124915CCFDF91CF911F91A2
:105750000F91FF90EF90DF90CF90BF90AF900895A2
:10576000AF92BF92CF92DF92EF92FF920F931F936F
:10577000CF93DF93962F969596959695C82FD0E068
:1057800080E8989FC00DD11D1124DE01AA59BC4F9D
:10579000CA51DC4F677078E0761BFA01249195E0DE
:1057A000B92E222309F4ABC030E020523109B29E59
:1057B000C001B39E900D1124815E964FFC0124918F
:1057C000062E01C0220F0A94EAF720953C9132235D
:1057D0003C938C010F5F1F4FF8012491062E01C0EE
:1057E000220F0A94EAF7209511963C9111973223E3
:1057F00011963C9311979C012E5F3F4FF901F49055
:10580000062E01C0FF0C0A94EAF7F0941296FC9160
:105810001297FF211296FC9312976C01F3E0CF0EC2
:10582000D11CF601F490062E01C0FF0C0A94EAF791
:10583000F0941396FC911397FF211396FC93139702
:105840007C01F4E0EF0EF11CF701A490062E01C0DC
:10585000AA0C0A94EAF7A0941496FC911497FA21E2
:105860001496FC9314971696662309F443C0FC0122
:10587000849190E0072E02C0959587950A94E2F7EF
:105880008095988198239883F801049110E0072E61
:1058900002C0159507950A94E2F700958981802347
:1058A0008983F901249130E0072E02C035952795B0
:1058B0000A94E2F720958A8182238A83F6018491F3
:1058C00090E0072E02C0959587950A94E2F780959F
:1058D0009B8198239B83F701E490EE2DF0E0072E47
:1058E00002C0F595E7950A94E2F7E0958C818E2346
:1058F0008C8326964F5F5F4FFA01249152CFDF9140
:10590000CF911F910F91FF90EF90DF90CF90BF90BC
:10591000AF9008951F93CF93DF93182FEB01CB0126
:105920000E94DBE2982F990F980FAE01612F80E45F
:10593000891BDF91CF911F910C94E02A1F93CF9385
:10594000DF93182FEB01CB010E94DBE2982F990F18
:10595000980FAE01612F80E4891BDF91CF911F91D9
:105960000C94B02BAF92BF92CF92DF92EF92FF9246
:105970000F931F93CF93DF93CDB7DEB72A970FB660
:10598000F894DEBF0FBECDBFB82EA62E8A016CE7FD
:1059900070E0CA010E94C0E27C01009771F16C01C5
:1059A000C01AD10AA601B8018E010F5F1F4FC801AE
:1059B0000E940AE3F801EC0DFD1D1082F801019030
:1059C0000020E9F73197E01BF10B6BEF6A0D8E2F8A
:1059D000880F8E0FA8019B2D981B892F0E943229BA
:1059E0008FEFE81AF80AC7010E94DBE265E06A0D52
:1059F000982F990F980FA70108C0C8010E94DBE2F9
:105A0000982F990F980FA8016A2D8B2D891B0E9442
:105A1000E02A2A960FB6F894DEBF0FBECDBFDF9105
:105A2000CF911F910F91FF90EF90DF90CF90BF909B
:105A3000AF900895AF92BF92CF92DF92EF92FF9214
:105A40000F931F93CF93DF93CDB7DEB72A970FB68F
:105A5000F894DEBF0FBECDBFB82EA62E8A016CE72C
:105A600070E0CA010E94C0E27C01009771F16C01F4
:105A7000C01AD10AA601B8018E010F5F1F4FC801DD
:105A80000E940AE3F801EC0DFD1D1082F80101905F
:105A90000020E9F73197E01BF10B6BEF6A0D8E2FB9
:105AA000880F8E0FA8019B2D981B892F0E94F42927
:105AB0008FEFE81AF80AC7010E94DBE265E06A0D81
:105AC000982F990F980FA70108C0C8010E94DBE228
:105AD000982F990F980FA8016A2D8B2D891B0E9472
