:100000000C949C0E0C94A4170C94D5170C94061801
:100010000C9437180C9468180C9499180C94CA18FE
:100020000C94FB180C94C90E0C94C90E0C94C90EB8
:100030000C94C90E0C94AF970C94C90E0C94C90E75
:100040000C94C90E0C94A16B0C94C90E0C94C90E9F
:100050000C94C90E0C94C90E0C9448750C9493140E
:100060000C94C90E0C949A410C94C90E0C94C90EB0
:100070000C94C90E0C94C90E0C94C90E0C94C90EA4
:100080000C94C90E0C94C90E0C94C90E0C94C90E94
:100090000C94C90E0C94C90E0C94C90E0C94C90E84
:1000A0000C94C90E0C94C90E0C94C90E0C94C90E74
:1000B0000C94C90E0C94C90E0C94C90E0C94C90E64
:1000C0000C94C90E0C94C90E0C94C90E0C94C90E54
:1000D0000C94C90E0C94C90E0C94C90E0C94C90E44
:1000E0000C94C90E084AD73B3BCE016E84BCBFFDC1
:1000F000C12F3D6C74319ABD56833DDA3D00C77FF8
:1001000011BED9E4BB4C3E916BAAAABE0000008090
:100110003F05A84CCDB2D44EB93836A9020C50B91F
:10012000918688083CA6AAAA2ABE000000803F004B
:10013000002100240027002A002D00300033000198
:10014000010000040107010A010000220025002827
:10015000002B002E003100340002010000050108D0
:10016000010B01000020002300260029002C002F95
:100170000032000001000003010601090105050528
:1001800005070508080808020202020A0A0808040E
:10019000040404010101010101010103030303033C
:1001A000030303040707070C0C0C0C0C0C0C0C02CB
:1001B00002020206060606060606060B0B0B0B0BD2
:1001C0000B0B0B01021020200808102040102040CB
:1001D000800201020108040201010204081020400B
:1001E0008080402010080402018004020180402029
:1001F0001008040201080402010102040810204052
:100200008001020408102040800000090A02080B47
:100210000C0D0706030401000000000000000000B0
:1002200000000000000000000000000000000000CE
:10023000000000000011100F00000000000000008E
:100240000000000000000000000000000000006549
:1002500063686F3A004572726F723A0053544F50A0
:100260005045442E20005072696E7465722073747C
:100270006F707065642064756520746F206572729C
:100280006F72732E204669782074686520657272DB
:100290006F7220616E6420757365204D3939392085
:1002A000746F20726573746172742E202854656DAA
:1002B000706572617475726520697320726573650B
:1002C000742E2053657420697420616674657220F1
:1002D00072657374617274696E6729004B494C4C86
:1002E00045442E20005072696E7465722068616CFE
:1002F0007465642E206B696C6C28292063616C6CBA
:10030000656421006F6B00526573656E643A20006E
:100310002200556E6B6E6F776E20636F6D6D616E30
:10032000643A2022004368616E67652066696C61EB
:100330006D656E74005A204F6666736574203A20AE
:10034000007A5F6D61783A20007A5F6D696E3A20BD
:10035000005A204F6666736574005A204F666673B4
:100360006574206F6B00486F74656E64206F6666FD
:10037000736574733A007A5F6D61783A20007A5F32
:100380006D696E3A2000795F6D61783A2000795F7F
:100390006D696E3A2000785F6D61783A2000785F71
:1003A0006D696E3A2000205A3A0020593A002043E5
:1003B0006F756E7420583A200020453A00205A3A52
:1003C0000020593A00583A004649524D574152458B
:1003D0005F4E414D453A4D61726C696E2056313B1E
:1003E00020537072696E7465722F6772626C206D33
:1003F000617368757020666F722067656E3620467F
:1004000049524D574152455F55524C3A6874747089
:100410003A2F2F6669726D776172652E756C7469FB
:100420006D616B65722E636F6D2050524F544F4358
:100430004F4C5F56455253494F4E3A312E30204D66
:10044000414348494E455F545950453A556C74698B
:100450006D616B65722045585452554445525F4357
:100460004F554E543A3220555549443A3030303089
:10047000303030302D303030302D303030302D3085
:100480003030302D3030303030303030303030306F
:100490000A00556C74696D616B6572204F66662E3B
:1004A0000042656420646F6E652E0020423A002091
:1004B000453A00543A004265642048656174696EAB
:1004C000672E0048656174696E6720646F6E652EE3
:1004D0000020573A0020453A00543A0048656174BC
:1004E000696E672E2E2E002042403A0020403A00CE
:1004F000202F003A00205400202F0020423A0020F4
:100500002F006F6B20543A002569206D696E2C20F6
:1005100025692073656300456E642066696C6520FB
:100520006C69737400426567696E2066696C65204A
:100530006C697374004E6F206D6F76652E00526586
:1005400073756D696E67207072696E7400576169AA
:100550007420666F7220757365722E2E2E00536C98
:100560006565702E2E2E00FFFFFF00005243000035
:100570005243000052430000000000000000000051
:10058000000000000000000000000000000000006B
:10059000524300005243000052430000A0400000BC
:1005A000A04000000040256920686F757273202507
:1005B00069206D696E7574657300446F6E65207097
:1005C00072696E74696E672066696C650053544F7A
:1005D000505045442E20005072696E74657220732D
:1005E000746F707065642064756520746F20657227
:1005F000726F72732E204669782074686520657268
:10060000726F7220616E6420757365204D393939BF
:1006100020746F20726573746172742E2028546583
:100620006D7065726174757265206973207265738F
:1006300065742E2053657420697420616674657238
:100640002072657374617274696E6729006F6B0044
:100650004E6F204C696E65204E756D626572207715
:1006600069746820636865636B73756D2C204C61D9
:100670007374204C696E653A20004E6F20436865A4
:10068000636B73756D2077697468206C696E652083
:100690006E756D6265722C204C617374204C696EAE
:1006A000653A2000636865636B73756D206D6973CF
:1006B0006D617463682C204C617374204C696E65A5
:1006C0003A20004C696E65204E756D626572206936
:1006D00073206E6F74204C617374204C696E6520BA
:1006E0004E756D6265722B312C204C617374204CF9
:1006F000696E653A20004D31313000446F6E6520DF
:10070000736176696E672066696C652E006F6B0099
:100710004D3239002020506C616E6E6572427566F4
:1007200066657242797465733A2000204672656589
:10073000204D656D6F72793A20004A756C20323316
:10074000203230313500436F6D70696C65643A203A
:100750000028446176696420427261616D2900203D
:100760007C20417574686F723A20004A756C2032A3
:100770003320323031352031303A32323A353000A0
:10078000204C61737420557064617465643A200074
:10079000312E302E30004D61726C696E0020536F27
:1007A00066747761726520526573657400205761C5
:1007B000746368646F6720526573657400204272C9
:1007C0006F776E206F7574205265736574002045D5
:1007D000787465726E616C20526573657400506F39
:1007E0007765725570007374617274002200656ED3
:1007F000717565696E672022002200656E717565EE
:10080000696E672022007C3C3E5E2B3D3F2F5B5D86
:100810003B2C2A225C006563686F3A0020746F6F7E
:10082000206C6F6E6720657874727573696F6E20C7
:1008300070726576656E7465640020636F6C642009
:10084000657874727573696F6E2070726576656E07
:100850007465640045303A20005A3A2000593A2025
:1008600000583A20004D53312C4D53322050696EC0
:10087000730A0024F404D9201BC40C5C0E9804C431
:10088000095F0265077101F405F900FB04B3004834
:10089000048700C10369005803550003034500BEE7
:1008A000023A008402310053022A00290225000482
:1008B000022000E4011C00C8011900AF01170098D4
:1008C0000114008401130071011000610110005136
:1008D000010E0043010D0036010B002B010B00201F
:1008E000010B00150109000C01090003010800FBC0
:1008F000000800F3000800EB000700E4000600DE3B
:10090000000600D8000600D2000600CC000500C793
:10091000000500C2000500BD000400B9000400B5D8
:10092000000400B1000400AD000400A9000400A50B
:10093000000300A20003009F0004009B0003009836
:100940000003009500020093000300900003008D57
:100950000002008B00030088000200860002008471
:10096000000300810002007F0002007D0002007B86
:100970000002007900020077000100760002007496
:1009800000020072000100710002006F0002006DA1
:100990000001006C0002006A0001006900020067AB
:1009A00000010066000100650001006400020062B1
:1009B00000010061000100600001005F0002005DB5
:1009C0000001005C0001005B0001005A00010059B9
:1009D00000010058000100570001005600010055B9
:1009E00000010054000100530000005300010052B8
:1009F00000010051000100500001004F0001004EB5
:100A00000000004E0001004D0001004C0001004BB1
:100A10000000004B0001004A0001004900010048AD
:100A200000000048000100470001004600000046A9
:100A300000010045000000450001004400010043A2
:100A4000000000430001004200000042000100419C
:100A500000000041000100400001003F0000003F95
:100A60000001003E0000003E0001003D0000003D8E
:100A70000001003C0000003C0000003C0001003B85
:100A80000000003B0001003A0000003A000100397C
:100A90000000003900010038000000380000003874
:100AA000000100370000003700010036000000366A
:100AB0000000003600010035000000350000003560
:100AC0000001003400000034000000340001003355
:100AD000000000330000003300010032000000324B
:100AE0000000003200010031000000310000003140
:100AF0000001003000000030000000300001002F35
:100B00000000002F0000002F0000002F0001002E29
:100B10000000002E0000002E0001002D0000002D1E
:100B20000000002D0000002D0001002C0000002C12
:100B30000000002C0000002C0001002B0000002B06
:100B40000000002B0000002B0001002A0000002AFA
:100B50000000002A0000002A0001002900000029EE
:100B600000000029000000290000002900010028E1
:100B700000000028000000280000002800000028D5
:100B800000010027000000270000002700000027C8
:100B900000000027000100260000002600000026BB
:100BA00000000026000000260001002500000025AE
:100BB00000000025000000250000002500000025A1
:100BC0000001002400000024000000240000002494
:100BD0000000002400010023000000230000002387
:100BE0000000002300000023000000230000002379
:100BF000000100220000002200000022000000226C
:100C0000000000220000002200010021000000215D
:100C10000000002100000021000000210000002150
:100C20000000002100010020000000200000002042
:100C30000000002000000020000000200000002034
:100C4000000000200001001F0000001F0000001F26
:100C50000000001F0000001F0000001F0000001F18
:100C60000001001E0000001E0000001E0000001E0B
:100C700000000024F4D43050C38E20C2A24017825A
:100C80008B7011127A910D816CD90AA861E108C7A5
:100C9000586607615143061E4B5D05C145A7041AFE
:100CA000411104093D9803713931034036DB026577
:100CB000339102D4305402802E1D02632CEE017554
:100CC0002AC501B028A001102781018F2564012BBE
:100CD000244B01E0223401AC211F018D200D018045
:100CE0001FFC00841EED00971DDF00B81CD200E63B
:100CF0001BC600201BBC00641AB200B219A8000A6F
:100D000019A0006A189900D117910040178B00B5FF
:100D100016840031167E00B31579003A157300C7AA
:100D2000146F0058146A00EE1366008813630025E0
:100D3000135E00C7125B006C12570015125400C1FD
:100D400011510070114F0021114B00D61049008D38
:100D50001047004610440002104200C00F400080BF
:100D60000F3E00420F3C00060F3B00CB0E380093B5
:100D70000E37005C0E3500270E3400F30D3200C133
:100D80000D3100900D3000600D2E00320D2D00054C
:100D90000D2C00D90C2B00AE0C2900850C29005C11
:100DA0000C2700350C27000E0C2600E80B2400C48D
:100DB0000B2400A00B23007D0B23005A0B210039CC
:100DC0000B2100180B2000F80A1F00D90A1E00BBD7
:100DD0000A1E009D0A1D00800A1D00630A1C0047B0
:100DE0000A1B002C0A1B00110A1A00F7091A00DD61
:100DF000091900C4091900AB091900920917007BF1
:100E0000091800630917004C09160036091600205E
:100E10000916000A091500F5081500E0081400CCB1
:100E2000081400B8081400A4081400900813007DEA
:100E30000812006B0813005808120046081200340C
:100E4000081100230811001208110001081100F018
:100E5000071000E0071000D0071000C0071000B016
:100E6000070F00A107100091070E0083070F007401
:100E7000070F0065070E0057070E0049070E003BDD
:100E8000070D002E070E0020070D0013070D0006AA
:100E9000070D00F9060C00ED060D00E0060C00D46D
:100EA000060C00C8060C00BC060C00B0060C00A422
:100EB000060B0099060C008D060B0082060B0077CE
:100EC000060B006C060B0061060A0057060B004C6F
:100ED000060A0042060A0038060A002E060A002406
:100EE000060A001A060A001006090007060A00FD95
:100EF000050900F4050900EB050900E2050900D920
:100F0000050900D0050900C7050900BE050900B59F
:100F1000050800AD050800A50509009C050800941A
:100F20000508008C050800840508007C050800748D
:100F30000508006C050700650508005D05070056FB
:100F40000508004E05070047050700400508003862
:100F5000050700310507002A050700230507001CC7
:100F6000050600160507000F050700080506000224
:100F7000050700FB040600F5040700EE040600E880
:100F8000040600E2040700DB040600D5040600CFD7
:100F9000040600C9040600C3040600BD040600B729
:100FA000040600B1040500AC040600A6040600A077
:100FB0000405009B04060095040500900406008AC1
:100FC00004050085040500800406007A0405007508
:100FD000040500700405006B04050066040500614B
:100FE0000405005C04050057040500520405004D8B
:100FF00004050048040500430405003E0404003ACB
:1010000004050035040500300404002C0405002705
:10101000040400230405001E0404001A040400163E
:10102000040500110404000D040400090405000473
:1010300004040000040400FC030400F8030400F4AA
:10104000030400F0030400EC030400E8030400E4DC
:10105000030400E0030400DC030400D8030400D40C
:10106000030400D0030400CC030400C8030300C53C
:101070000303006563686F3A00656E6473746F7094
:1010800073206869743A205A00205A3A00656E64E9
:1010900073746F7073206869743A20590020593A4C
:1010A00000656E6473746F7073206869743A2058B9
:1010B0000020583A00656E6473746F70732068691D
:1010C000743A20004572726F723A004572723A208B
:1010D0004D415854454D50204245440054656D7073
:1010E00065726174757265206865617465642062FB
:1010F0006564207377697463686564206F66662E23
:10110000204D415854454D5020747269676765728F
:101110006564202121004572723A204D494E5445A4
:101120004D50003A2045787472756465722073776B
:10113000697463686564206F66662E204D494E545D
:10114000454D50207472696767657265642021009F
:101150004572723A204D415854454D50003A204551
:1011600078747275646572207377697463686564F6
:10117000206F66662E204D415854454D50207472A4
:1011800069676765726564202100202D20496E76AD
:10119000616C6964206578747275646572206E751F
:1011A0006D62657220210000000000300E0100C059
:1011B0000E0A00500F1400D00F1E0060102800E02F
:1011C00010320070113C00F0114600701250000007
:1011D000135A008013640000146E009014780010FD
:1011E00015820090158C00101696009016A0001025
:1011F00017AA009017B4001018BE009018C800106D
:1012000019D2009019DC00101AE600801AF00000D4
:101210001BFA00801B0401F01B0E01701C1801F06A
:101220001C2201601D2C01E01D3601501E4001D022
:101230001E4A01401F5401B01F5E0130206801A00A
:1012400020720110217C0190218601002290016012
:1012500026F401902A5802802EBC0250322003E06E
:101260003584035039E803803C4C046563686F3A69
:101270000048656174696E67206661696C65640029
:10128000504944204175746F74756E652066696EAF
:101290006973686564212050757420746865206CDA
:1012A000617374204B702C204B6920616E64204B5D
:1012B0006420636F6E7374616E74732066726F6DF9
:1012C0002061626F766520696E746F20436F6E6671
:1012D000696775726174696F6E2E680050494420A9
:1012E0004175746F74756E65206661696C65642103
:1012F0002074696D656F75740020403A006F6B2033
:10130000543A006F6B20423A0050494420417574B2
:101310006F74756E65206661696C65642120546523
:101320006D706572617475726520746F6F20686985
:10133000676800204B643A2000204B693A20002067
:101340004B703A200020436C6173736963205049ED
:101350004420002054753A2000204B753A2000208C
:101360006D61783A2000206D696E3A200020643A61
:10137000200020626961733A20004D3834205820E3
:1013800059205A2045006563686F3A0043616E6ECC
:101390006F7420656E746572207375626469723A49
:1013A00020004D3234004D323320257300617574B6
:1013B0006F25692E67004572726F723A006572720E
:1013C0006F722077726974696E6720746F20666926
:1013D0006C65004E6F74205344207072696E74699E
:1013E0006E67002F005344207072696E74696E67D7
:1013F000206279746520002E0044656C6574696F05
:101400006E206661696C65642C2046696C653A20C3
:101410000046696C652064656C657465643A002EED
:10142000006F70656E206661696C65642C2046698A
:101430006C653A200057726974696E6720746F207A
:1014400066696C653A20002E006F70656E206661DB
:10145000696C65642C2046696C653A20002E006F2B
:1014600070656E206661696C65642C2046696C65E8
:101470003A200046696C652073656C656374656429
:10148000002053697A653A200046696C65206F70C8
:10149000656E65643A20002E006F70656E2066618F
:1014A000696C65642C2046696C653A20004E6F7744
:1014B0002066726573682066696C653A20004E6F1D
:1014C0007720646F696E672066696C653A20002238
:1014D00020706F73002220706172656E743A220072
:1014E000535542524F5554494E452043414C4C2090
:1014F0007461726765743A2200747279696E67204C
:10150000746F2063616C6C207375622D67636F6408
:10151000652066696C6573207769746820746F6FE5
:10152000206D616E79206C6576656C732E204D415F
:1015300058206C6576656C2069733A0053442063CB
:10154000617264206F6B006F70656E526F6F7420F4
:101550006661696C656400766F6C756D652E696E89
:101560006974206661696C656400534420696E6922
:1015700074206661696C006563686F3A0048617247
:1015800064636F6465642044656661756C742053A0
:10159000657474696E6773204C6F61646564005391
:1015A000746F7265642073657474696E67732072FA
:1015B00065747269657665640020440020490020E6
:1015C00020204D3330312050005049442073657441
:1015D00074696E67733A00205A0020590020204D2C
:1015E000323036205800486F6D65206F666673652F
:1015F0007420286D6D293A00204500205A0020589B
:101600000020420020540020204D3230352053006D
:10161000416476616E636564207661726961626CB3
:1016200065733A20533D4D696E206665656472614D
:10163000746520286D6D2F73292C20543D4D696EE3
:101640002074726176656C2066656564726174658C
:1016500020286D6D2F73292C20423D6D696E696DB8
:10166000756D207365676D656E742074696D652096
:10167000286D73292C20583D6D6178696D756D203A
:101680005859206A65726B20286D6D2F73292C20A4
:10169000205A3D6D6178696D756D205A206A6572BA
:1016A0006B20286D6D2F73292C2020453D6D6178AE
:1016B000696D756D2045206A65726B20286D6D2FF0
:1016C00073290020540020204D3230342053004133
:1016D0006363656C65726174696F6E3A20533D6136
:1016E0006363656C65726174696F6E2C20543D7222
:1016F00065747261637420616363656C65726174A3
:10170000696F6E00204500205A0020590020204DAE
:101710003230312058004D6178696D756D2041631C
:1017200063656C65726174696F6E20286D6D2F73CF
:1017300032293A00204500205A0020590020204D2F
:101740003230332058004D6178696D756D206665C3
:101750006564726174657320286D6D2F73293A007A
:10176000204500205A0020590020204D39322058B1
:101770000053746570732070657220756E69743AD9
:101780000053657474696E67732053746F72656477
:1017900000022D2D3A2D2D002D2D2D00534400013A
:1017A00020000120000120004E6F2053442063617F
:1017B0007264005072696E742066726F6D205344BB
:1017C0000053746F70207072696E74005265737587
:1017D0006D65207072696E7400506175736520705C
:1017E00072696E7400436F6E74726F6C0050726534
:1017F000706172650054756E6500496E666F207386
:10180000637265656E00052E2E004D61696E004D98
:101810003234004D3233202573004D3834205820A7
:1018200059205A2045004669726D776172652076AD
:10183000657273696F6E00526573746F72652066AE
:1018400061696C73616665004C6F6164206D656DE4
:101850006F72790053746F7265206D656D6F727968
:10186000004D6F74696F6E0054656D7065726174C0
:10187000757265004D61696E004A756C20323320C7
:10188000323031352031303A32323A35310032356A
:10189000303030305F6475616C5F484200556C7465
:1018A000696D616B65723A5F31352E30342E3200CE
:1018B0004669726D776172652076657273696F6EC5
:1018C000004573746570732F6D6D0045737465709A
:1018D000732F6D6D005A73746570732F6D6D005AA0
:1018E00073746570732F6D6D005973746570732F09
:1018F0006D6D005973746570732F6D6D005873743E
:101900006570732F6D6D005873746570732F6D6DF6
:1019100000412D7265747261637400412D726574AB
:101920007261637400416D6178206500416D61787A
:10193000206500416D6178207A00416D6178207AE0
:1019400000416D6178207900416D61782079004116
:101950006D6178207800416D61782078005654726E
:101960006176206D696E005654726176206D696EE5
:1019700000566D696E00566D696E00566D61782077
:101980006500566D6178206500566D6178207A009B
:10199000566D6178207A00566D6178207900566D19
:1019A0006178207900566D6178207800566D6178F5
:1019B00020780056652D6A65726B0056652D6A6544
:1019C000726B00567A2D6A65726B00567A2D6A65C5
:1019D000726B005678792D6A65726B005678792D96
:1019E0006A65726B00416363656C00416363656C9B
:1019F00000436F6E74726F6C00507265686561743D
:101A00002041425320636F6E6600507265686561C5
:101A10007420504C4120636F6E66005049442D4342
:101A2000005049442D43005049442D44005049443E
:101A30002D44005049442D49005049442D4900503F
:101A400049442D50005049442D500046616E20738A
:101A5000706565640046616E207370656564004260
:101A6000656400426564004E6F7A7A6C6532004EA0
:101A70006F7A7A6C6532004E6F7A7A6C65004E6FC1
:101A80007A7A6C6500436F6E74726F6C0053746F7A
:101A90007265206D656D6F72790042656400426504
:101AA00064004E6F7A7A6C65004E6F7A7A6C6500CE
:101AB00046616E2073706565640046616E207370C8
:101AC0006565640054656D7065726174757265005A
:101AD00053746F7265206D656D6F72790042656435
:101AE00000426564004E6F7A7A6C65004E6F7A7AB8
:101AF0006C650046616E2073706565640046616EBA
:101B00002073706565640054656D706572617475ED
:101B10007265004D6F7665206178697300436F6F61
:101B20006C646F776E005072656865617420414225
:101B300053005072656865617420504C41004D6FD0
:101B40007665205A004175746F20686F6D65004D91
:101B500038340044697361626C6520737465707019
:101B6000657273004D61696E004D6F766520302E91
:101B7000316D6D004D6F766520316D6D004D6F7666
:101B8000652031306D6D0050726570617265004581
:101B900078747275646572004D6F7665205A004DD9
:101BA0006F76652059004D6F76652058004D6F7631
:101BB0006520617869730045787472756465720098
:101BC0005A0059005800507265686561742041429E
:101BD000532042656400507265686561742041421B
:101BE0005320416C6C0050726568656174204142FD
:101BF0005320320050726568656174204142532061
:101C0000310050726570617265005072656865617F
:101C10007420504C412042656400507265686561D3
:101C20007420504C4120416C6C00507265686561B5
:101C30007420504C412032005072656865617420F8
:101C4000504C4120310050726570617265005A003D
:101C50004D383420583020593000473238004D3646
:101C60003030004368616E67652066696C616D6540
:101C70006E7400466C6F77203100466C6F772031B0
:101C800000466C6F77203000466C6F77203000463E
:101C9000616E2073706565640046616E20737065C7
:101CA00065640042656400426564004E6F7A7A6C38
:101CB0006532004E6F7A7A6C6532004E6F7A7A6CBC
:101CC00065004E6F7A7A6C650053706565640053E9
:101CD00070656564004D61696E00436172642072D5
:101CE000656D6F766564004361726420696E73652B
:101CF0007274656400494E46494E4954594E414EEE
:101D0000CDCCCC3D0AD7233C17B7D13877CC2B327A
:101D10009595E6241FB14F0A000020410000C842FB
:101D200000401C4620BCBE4CCA1B0E5AAEC59D745A
:101D3000AF1A2E4216D3A81A11241FBECFEFD1E23C
:101D4000DEBFCDBF00E00CBF14E0A0E0B2E0EEE4E7
:101D5000F8EC01E00BBF02C007900D92AA3BB1075F
:101D6000D9F71BBE12E1AAEBB4E001C01D92A83C5A
:101D7000B107E1F71DE1C6E3DDE104C02297FE01F2
:101D80000E94CCE3C033D107C9F70E94AADE0C94AD
:101D90001AE40C940000A0E0B0E0E1EDFEE00C9449
:101DA000E9E3EC015B016115710519F0FB01918319
:101DB0008083F9908F2D90E00E94D0E3892BC9F7A2
:101DC000FDE2FF1621F4F990EE24E39405C02BE226
:101DD000F21609F4F990EE248E0101501040C8016A
:101DE00065EF7CE143E050E00E946111892B01F531
:101DF0008E010E5F1F4FC80168EF7CE145E050E0A7
:101E00000E946111892B19F48E01095F1F4FA114E3
:101E1000B10419F0F50111830083E0FC04C070E007
:101E200090E080E814C070E090E080E86FEF08C1B7
:101E3000C8016DEF7CE143E050E00E946111892B05
:101E400069F4A114B10429F470E090E080EC6FE72C
:101E5000F7C02296F501D183C083F6CF8824992458
:101E600040E050E060E070E0EF2DE053EA30A0F594
:101E7000F2E0EF2A8E2D90E09C0128703070E2FE97
:101E800006C0232B79F50894811C911C2BC0232BB1
:101E900019F0089481089108DB01CA0112E0880F4B
:101EA000991FAA1FBB1F1A95D1F7480F591F6A1F08
:101EB0007B1F440F551F661F771F4E0F511D611D5D
:101EC000711D483929E9520729E9620729E172079A
:101ED00048F084E0E82A06C0EE3F31F4E3FC39C064
:101EE00098E0E92AF990C0CFE53311F0E53189F5A2
:101EF00029912D3219F4E0E1EE2A05C02B3219F0B8
:101F000081E090E003C0299182E090E0E22FE0536D
:101F1000EA3018F0C81BD90B1CC020E030E0FCE010
:101F200020383F075CF4C901880F991F880F991F5B
:101F3000280F391F220F331F2E0F311DE991E05357
:101F4000EA3068F3E4FE03C0309521953F4F820EDE
:101F5000931ECE2CDD24E1FE07C0A114B10421F0B4
:101F60002197F501D183C083CB01BA010E9435E0EE
:101F70007B018C01F3E0CF22DD2423E0C216D104E3
:101F800021F417FB109517F9109557016801C80146
:101F9000B70120E030E040E050E00E9495DF882368
:101FA00009F44AC097FE0DC024E1E22E2DE1F22E85
:101FB0009094819491089394C0E2D0E000E010E006
:101FC00012C09CE2E92E9DE1F92EF6CFF701259192
:101FD000359145915491C601B5010E9475E25B01AE
:101FE0006C018C1A9D0A8C169D0684F7D595C795B1
:101FF0000F5F1F4F0630110529F08CEF9FEFE80EA1
:10200000F91EF1CFC501D6017C018D018C2D880F01
:102010008D2D881F8F3F51F0C601B50120E030E0C3
:1020200040E050E00E9495DF882331F482E290E0A6
:102030009093C7128093C6127E2D9F2D802F612F03
:10204000272F392F482F562FB901CA01CDB7DEB738
:10205000ECE00C9405E42F923F925F926F927F9296
:102060008F929F92AF92BF92CF92DF92EF92FF92A8
:102070000F931F93CF93DF938C011B01EA0161152E
:10208000710519F0FB0191838083209749F0CE01FF
:102090000297839728F020E030E040E050E0F6C05F
:1020A000F801A1908F018A2D90E00E94D0E3892B46
:1020B000B9F7FDE2AF1631F4F801A1908F01552474
:1020C000539407C0FBE2AF1619F4F801A1908F01F9
:1020D0005524209719F0C031D105C1F4F0E3AF16B3
:1020E00079F4F8018081883711F0883549F4F801D6
:1020F000A1800E5F1F4FF2E05F2AC0E1D0E006C072
:10210000209721F480E3A816E9F427C0C830D10550
:1021100031F1C930D10524F4C230D10531F50CC0FC
:10212000CA30D10589F0C031D105F9F4C12CD12CC8
:10213000E12CB8E0FB2E28C0C12CD12CE12CA0E46E
:10214000FA2E22C0CAE0D0E0FCECCF2EFCECDF2E51
:10215000FCECEF2EFCE0FF2E17C0C8E0D0E0C12C55
:10216000D12CE12CE0E1FE2E0FC09E01442737FD6B
:102170004095542F60E070E080E090E80E948DE38D
:10218000C901DA016C017D0120E030E040E050E05F
:1021900060E03E01882477FC8094982C70EDB72E87
:1021A000BA0CE9E0EB1570F48A2D81548A3118F4E9
:1021B00099ECB92E06C08A2D81568A3150F589EAEC
:1021C000B82EBA0C8B2D90E08C179D0714F56F3F3D
:1021D000E1F0C216D306E406F506B0F0CA01B90173
:1021E000A40193010E9447E39B01AC012B0D311D1B
:1021F000411D511D2130F0E03F07F0E04F07F0E8AE
:102200005F0710F461E001C06FEFF801A1908F014A
:10221000C5CF2114310481F0662331F00150104004
:10222000F1011183008308C051FE1AC00250104012
:10223000F1011183008314C067FF12C050FC05C078
:102240002FEF3FEF4FEF5FE704C020E030E040E0CA
:1022500050E882E290E09093C7128093C61216C0B5
:1022600050FE08C050954095309521953F4F4F4FF7
:102270005F4F0CC057FF0AC082E290E09093C712F4
:102280008093C6122FEF3FEF4FEF5FE7B901CA010E
:10229000DF91CF911F910F91FF90EF90DF90CF9042
:1022A000BF90AF909F908F907F906F905F903F9086
:1022B0002F900895FB01DC0105900D920020E1F7BD
:1022C0000895FB01DC014150504088F08D9181342C
:1022D0001CF08B350CF4805E659161341CF06B351D
:1022E0000CF4605E861B611171F3990B0895881BD5
:1022F000FCCFFB01DC014150504048F005900D92AD
:102300000020C9F701C01D9241505040E0F70895E8
:10231000FB0155915523A9F0BF01DC014D914517F3
:102320004111E1F759F4CD010590002049F04D919C
:1023300040154111C9F3FB014111EFCF81E090E05D
:1023400001970895FB01DC0104C08D910190801973
:1023500021F441505040C8F7881B990B0895FB01A8
:10236000DC0102C001900D9241505040D8F7089511
:10237000FB01DC010D900020E9F7119701900D920F
:102380000020E1F70895FC018191861721F0882350
:10239000D9F7992708953197CF010895FB01DC0102
:1023A00001900D920020E1F70895FB01DC014150FE
:1023B000504030F08D910190801919F40020B9F748
:1023C000881B990B0895FB01DC014150504048F0F7
:1023D00001900D920020C9F701C01D92415050405C
:1023E000E0F70895AEE0B0E0E8EFF1E10C94F1E33E
:1023F0000E891F898EE08C831A8309838FEF9FE7F4
:102400009E838D839E01265E3F4FCE010196688D8F
:10241000798DA9010E9416122F813885020F131F92
:10242000F80110822E96E4E00C940DE4ABE0B0E0ED
:10243000ECE1F2E10C94E3E33C012B015A01FC01D5
:1024400017821682838181FD03C06FEF7FEFC6C1C3
:102450009AE0892E1E010894211C311CF30123816E
:10246000F20123FD859123FF81912F01882309F437
:10247000B2C1853239F423FD859123FF81912F016B
:10248000853229F490E0B3010E940914E7CF982F18
:10249000FF24EE249924FFE1FF15D0F09B3269F070
:1024A0009C3228F4903259F0933291F40EC09D3250
:1024B00049F0903369F441E024C052E0F52A84E009
:1024C000F82A28C098E0F92A25C0E0E1FE2A22C0B7
:1024D000F7FC29C0892F80538A3070F4F6FE05C0BE
:1024E000989C902C1124980E15C0E89CE02C112487
:1024F000E80EF0E2FF2A0EC09E3229F4F6FC6BC112
:1025000040E4F42A07C09C3619F450E8F52A02C0CA
:10251000983649F4F20123FD959123FF91912F0103
:10252000992309F0B8CF892F8554833018F0805251
:10253000833038F444E050E0A40EB51E5FE35983C5
:102540000FC0933631F0933779F0933509F056C0C8
:1025500020C0F5018081898342E050E0A40EB51EC1
:10256000610101E010E012C0F501C080D180F6FCED
:1025700003C06FEF7FEF02C0692D70E042E050E0D2
:10258000A40EB51EC6010E94FE138C015FE7F52262
:1025900014C0F501C080D180F6FC03C06FEF7FEF5F
:1025A00002C0692D70E042E050E0A40EB51EC601E5
:1025B0000E94F3138C0150E8F52AF3FE07C01AC0FD
:1025C00080E290E0B3010E940914EA948E2D90E01D
:1025D00008171907A8F30EC0F601F7FC8591F7FE5E
:1025E00081916F0190E0B3010E940914E110EA9417
:1025F000015010400115110579F7EAC0943611F029
:10260000993669F5F7FE08C0F501208131814281D4
:10261000538184E090E00AC0F501808191819C01A2
:10262000442737FD4095542F82E090E0A80EB91E54
:102630009FE6F92257FF09C05095409530952195A6
:102640003F4F4F4F5F4FE0E8FE2ACA01B901A10199
:102650002AE030E00E943514D82ED21840C09537B9
:1026600029F41F2D1F7E2AE030E01DC01F2D197F89
:102670009F3661F0903720F4983509F0ACC00FC058
:10268000903739F0983709F0A6C004C028E030E050
:102690000AC0106114FD146020E130E004C014FD94
:1026A000166020E132E017FF08C0F50160817181FA
:1026B0008281938144E050E008C0F50180819181DE
:1026C000BC0180E090E042E050E0A40EB51EA10104
:1026D0000E943514D82ED2188FE7F82EF122F6FE7C
:1026E0000BC05EEFF522D91438F4F4FE07C0F2FCFB
:1026F00005C08FEEF82202C01D2D01C0192DF4FE79
:102700000DC0FE01ED0DF11D8081803319F499EEAD
:10271000F92208C01F5FF2FE05C003C08F2D867826
:1027200009F01F5F0F2DF3FC14C0F0FE0FC01E1543
:1027300010F09D2C0BC09D2C9E0C911A1E2D06C0D6
:1027400080E290E0B3010E9409141F5F1E15C0F3E0
:1027500004C01E1510F4E11A01C0EE2404FF0FC0DE
:1027600080E390E0B3010E94091402FF1DC001FD47
:1027700003C088E790E00EC088E590E00BC0802F92
:10278000867891F001FF02C08BE201C080E2F7FC85
:102790008DE290E0B3010E94091406C080E390E04E
:1027A000B3010E9409149A94D914C0F3DA94F10188
:1027B000ED0DF11D808190E0B3010E940914DD2030
:1027C000A9F706C080E290E0B3010E940914EA94E0
:1027D000EE20C1F743CEF30166817781CB012B96C2
:1027E000E2E10C94FFE3FC010590615070400110A0
:1027F000D8F7809590958E0F9F1F0895FC0161502A
:10280000704001900110D8F7809590958E0F9F1F12
:1028100008950F931F93CF93DF938C01EB018B816E
:1028200081FF1BC082FF0DC02E813F818C819D8165
:102830002817390764F4E881F9810193F983E88363
:1028400006C0E885F985802F1995892B31F48E8192
:102850009F8101969F838E8302C00FEF1FEFC801F7
:10286000DF91CF911F910F910895FA01AA27283087
:1028700051F1203181F1E8946F936E7F6E5F7F4F4D
:102880008F4F9F4FAF4FB1E03ED0B4E03CD0670FC9
:10289000781F891F9A1FA11D680F791F8A1F911D1C
:1028A000A11D6A0F711D811D911DA11D20D009F46C
:1028B00068943F912AE0269F11243019305D3193AE
:1028C000DEF6CF010895462F4770405D4193B3E097
:1028D0000FD0C9F7F6CF462F4F70405D4A3318F03E
:1028E000495D31FD4052419302D0A9F7EACFB4E0EF
:1028F000A6959795879577956795BA95C9F70097A7
:102900006105710508959B01AC010A2E0694579547
:10291000479537952795BA95C9F7620F731F841F9E
:10292000951FA01D08951F920F920FB60F921124AC
:102930002F933F938F939F93AF93BF938091BE0448
:102940009091BF04A091C004B091C1043091C20421
:102950000196A11DB11D232F2D5F2D3720F02D577E
:102960000196A11DB11D2093C2048093BE049093D3
:10297000BF04A093C004B093C1048091BA049091A5
:10298000BB04A091BC04B091BD040196A11DB11D72
:102990008093BA049093BB04A093BC04B093BD048D
:1029A000BF91AF919F918F913F912F910F900FBE4B
:1029B0000F901F9018958FB7F8942091BE04309116
:1029C000BF044091C0045091C1048FBFB901CA0136
:1029D00008959B01AC017FB7F8948091BA0490915F
:1029E000BB04A091BC04B091BD0466B5A89B05C012
:1029F0006F3F19F00196A11DB11D7FBFBA2FA92FFE
:102A0000982F8827860F911DA11DB11D62E0880FA8
:102A1000991FAA1FBB1F6A95D1F7BC012DC0FFB734
:102A2000F8948091BA049091BB04A091BC04B09139
:102A3000BD04E6B5A89B05C0EF3F19F00196A11DA6
:102A4000B11DFFBFBA2FA92F982F88278E0F911D78
:102A5000A11DB11DE2E0880F991FAA1FBB1FEA95B7
:102A6000D1F7861B970B885E9340C8F22150304007
:102A70004040504068517C4F2115310541055105BA
:102A800071F60895019739F0880F991F880F991FE3
:102A900002970197F1F70895789484B5826084BD18
:102AA00084B5816084BD85B5826085BD85B5816052
:102AB00085BDEEE6F0E0808181608083E1E8F0E0B2
:102AC0001082808182608083808181608083E0E8E1
:102AD000F0E0808181608083E1EBF0E080818460C0
:102AE0008083E0EBF0E0808181608083E1E9F0E0C9
:102AF000808182608083808181608083E0E9F0E072
:102B0000808181608083E1EAF0E08081826080835F
:102B1000808181608083E0EAF0E080818160808351
:102B2000E1E2F1E080818260808380818160808346
:102B3000E0E2F1E0808181608083EAE7F0E080817B
:102B400084608083808182608083808181608083D3
:102B50008081806880831092C10008951F93CF9375
:102B6000DF93182FEB0161E00E948E16209709F485
:102B7000CAC0CF3FD10509F4C9C0E12FF0E0E75F3B
:102B8000FD4F8491893009F466C08A30B0F48430F6
:102B9000F1F1853040F4823059F1833070F58130A5
:102BA00009F0AEC020C0873009F443C0883008F077
:102BB00048C0863009F0A4C034C08D3009F478C014
:102BC0008E3038F48B3009F45AC08C3008F066C06F
:102BD0004CC0803109F480C0813109F487C08F3046
:102BE00009F08EC06FC084B5806884BDC7BD92C037
:102BF00084B5806284BDC8BD8DC08091800080682E
:102C000080938000D0938900C093880083C0809116
:102C10008000806280938000D0938B00C0938A00F4
:102C200079C08091B00080688093B000C093B300F9
:102C300071C08091B00080628093B000C093B400F6
:102C400069C080919000806880939000D093990033
:102C5000C09398005FC08091900080628093900044
:102C6000D0939B00C0939A0055C0809190008860DB
:102C700080939000D0939D00C0939C004BC08091A6
:102C8000A00080688093A0008091A0008F7B80933B
:102C9000A000D093A900C093A8003CC08091A000E0
:102CA00080628093A000D093AB00C093AA0032C092
:102CB0008091A00088608093A000D093AD00C09365
:102CC000AC0028C080912001806880932001D093BF
:102CD0002901C09328011EC0809120018062809349
:102CE0002001D0932B01C0932A0114C080912001B0
:102CF000886080932001D0932D01C0932C010AC0DD
:102D0000C038D1051CF4812F60E002C0812F61E042
:102D10000E944117DF91CF911F910895CF93DF93C8
:102D2000482F50E0CA018D539E4FFC013491435807
:102D30005E4FFA018491882369F190E0880F991F12
:102D4000FC01E15DFE4FA591B491FC01E75BFE4FF4
:102D5000C591D491662351F42FB7F8948C91932F99
:102D6000909589238C93888189230BC0623061F40C
:102D70002FB7F8948C91932F909589238C93888109
:102D8000832B88832FBF06C09FB7F8948C91832B29
:102D90008C939FBFDF91CF910895893009F449C08A
:102DA0008A30A0F4843051F1853040F4823079F1DA
:102DB000833000F5813009F063C026C0873079F197
:102DC000883098F5863009F05BC025C08D3009F455
:102DD00042C08E3028F48B30B1F18C30C0F52DC05C
:102DE000803109F442C0813109F445C08F3009F0C7
:102DF00047C037C0809180008F7703C080918000EA
:102E00008F7D80938000089584B58F7702C084B54C
:102E10008F7D84BD08958091B0008F7703C080912D
:102E2000B0008F7D8093B0000895809190008F77DF
:102E300007C0809190008F7D03C080919000877FB4
:102E40008093900008958091A0008F7707C08091B3
:102E5000A0008F7D03C08091A000877F8093A00099
:102E60000895809120018F7703C0809120018F7D8C
:102E700080932001089580912001877F8093200115
:102E80000895FF920F931F93F62E482F50E0CA012A
:102E9000875F9D4FFC012491CA018D539E4FFC0119
:102EA000149143585E4FFA0104910023C9F0222384
:102EB00019F0822F0E94CD16E02FF0E0EE0FFF1FD9
:102EC000E75BFE4FA591B4919FB7F894FF2021F4E2
:102ED0008C911095812302C08C91812B8C939FBF84
:102EE0001F910F91FF9008950F931F93482F50E06B
:102EF000CA01875F9D4FFC012491CA018D539E4FEB
:102F0000FC01049143585E4FFA011491112319F406
:102F100020E030E015C0222319F0822F0E94CD1648
:102F2000812F90E0880F991F8D599E4FFC01A5912C
:102F3000B4918C9120E030E0802311F021E030E06A
:102F4000C9011F910F9108951F920F920FB60F9212
:102F50000BB60F9211242F933F934F935F936F9370
:102F60007F938F939F93AF93BF93EF93FF93809142
:102F7000C7049091C804892B29F0E091C704F0910F
:102F8000C8041995FF91EF91BF91AF919F918F91D7
:102F90007F916F915F914F913F912F910F900BBE59
:102FA0000F900FBE0F901F9018951F920F920FB6A3
:102FB0000F920BB60F9211242F933F934F935F9371
:102FC0006F937F938F939F93AF93BF93EF93FF93F1
:102FD0008091C9049091CA04892B29F0E091C90419
:102FE000F091CA041995FF91EF91BF91AF919F9114
:102FF0008F917F916F915F914F913F912F910F90A2
:103000000BBE0F900FBE0F901F9018951F920F923E
:103010000FB60F920BB60F9211242F933F934F933D
:103020005F936F937F938F939F93AF93BF93EF9330
:10303000FF938091CB049091CC04892B29F0E091EF
:10304000CB04F091CC041995FF91EF91BF91AF9112
:103050009F918F917F916F915F914F913F912F91B0
:103060000F900BBE0F900FBE0F901F9018951F92E0
:103070000F920FB60F920BB60F9211242F933F931E
:103080004F935F936F937F938F939F93AF93BF9370
:10309000EF93FF938091CD049091CE04892B29F07A
:1030A000E091CD04F091CE041995FF91EF91BF917D
:1030B000AF919F918F917F916F915F914F913F91D0
:1030C0002F910F900BBE0F900FBE0F901F90189571
:1030D0001F920F920FB60F920BB60F9211242F93DF
:1030E0003F934F935F936F937F938F939F93AF9390
:1030F000BF93EF93FF938091C3049091C404892BF5
:1031000029F0E091C304F091C4041995FF91EF9167
:10311000BF91AF919F918F917F916F915F914F91EF
:103120003F912F910F900BBE0F900FBE0F901F90ED
:1031300018951F920F920FB60F920BB60F92112493
:103140002F933F934F935F936F937F938F939F93AF
:10315000AF93BF93EF93FF938091C5049091C60402
:10316000892B29F0E091C504F091C6041995FF91CF
:10317000EF91BF91AF919F918F917F916F915F91EF
:103180004F913F912F910F900BBE0F900FBE0F905C
:103190001F9018951F920F920FB60F920BB60F92B9
:1031A00011242F933F934F935F936F937F938F934C
:1031B0009F93AF93BF93EF93FF938091CF04909130
:1031C000D004892B29F0E091CF04F091D004199517
:1031D000FF91EF91BF91AF919F918F917F916F91EF
:1031E0005F914F913F912F910F900BBE0F900FBEAB
:1031F0000F901F9018951F920F920FB60F920BB65B
:103200000F9211242F933F934F935F936F937F936C
:103210008F939F93AF93BF93EF93FF938091D104CC
:103220009091D204892B29F0E091D104F091D2043D
:103230001995FF91EF91BF91AF919F918F917F91E0
:103240006F915F914F913F912F910F900BBE0F9017
:103250000FBE0F901F901895CF92DF92EF92FF92C2
:103260000F931F93CF93DF937C016B018A01C0E022
:10327000D0E00FC0D6016D916D01D701ED91FC91A9
:103280000190F081E02DC7011995C80FD91F015099
:1032900010400115110571F7CE01DF91CF911F91FB
:1032A0000F91FF90EF90DF90CF900895DC01ED91AA
:1032B000FC910190F081E02D19950895CF93DF9353
:1032C000EC016115710519F420E030E00FC0DB015D
:1032D0000D900020E9F71197A61BB70BE881F98143
:1032E0000280F381E02DAD0119959C01C901DF91A8
:1032F000CF9108950E945E190895EF92FF920F9367
:103300001F93CF93DF93EC01E0908207F090830747
:103310000091840710918507688179818A819B815A
:10332000A80197010E9495DF882324F4E882F9829E
:103330000A831B83E0908607F09087070091880737
:10334000109189076C817D818E819F81A8019701F1
:103350000E9495DF882324F4EC82FD820E831F8374
:10336000E0908A07F0908B0700918C0710918D07F1
:10337000688579858A859B85A80197010E9495DFDC
:10338000882324F4E886F9860A871B87E090930354
:10339000F0909403009195031091960368817981D0
:1033A0008A819B81A80197010E94A3E1181624F449
:1033B000E882F9820A831B83E0909703F0909803D8
:1033C0000091990310919A036C817D818E819F8178
:1033D000A80197010E94A3E1181624F4EC82FD8253
:1033E0000E831F83E0909B03F0909C0300919D034C
:1033F00010919E03688579858A859B85A801970130
:103400000E94A3E1181624F4E886F9860A871B8730
:10341000DF91CF911F910F91FF90EF9008958091D0
:10342000B007089567707070E82FF0E0E75FFD4F18
:1034300084918B3028F48830A0F4863090F106C057
:103440008E30D0F08F50833060F521C08091B10074
:10345000887F8093B1008091B100862B8093B1006A
:10346000089580919100887F8093910080919100D0
:10347000862B8093910008958091A100887F80938E
:10348000A1008091A100862B8093A10008958091D6
:103490002101887F8093210180912101862B8093D7
:1034A000210108950F931F93CF93DF9381309105EE
:1034B00049F46F5F7F4F09F046C083ED94E00E94AE
:1034C000998D41C0892B09F03EC06F5F7F4FD9F5C0
:1034D00080E394E090939E0680939D068091A406DD
:1034E000882321F081EA96E00E941148C9E5D6E0E0
:1034F00000E314E005C06F9785E0C332D80751F0B0
:10350000198308838F818823B1F3CE0104960E942A
:103510001148F1CF80E394E0998388838F818823D9
:1035200021F0CE0104960E94114880E394E090932C
:1035300003058093020580910905882321F086E028
:1035400095E00E941148DF91CF911F910F9108954E
:1035500080E090E06FEF7FEF0E94521A089581E0C3
:1035600090E06FEF7FEF0E94521A08950E946174FD
:103570008091B007882309F03AC081E08093B007BA
:103580008091B3079091B407A091B507B091B607A9
:103590008093B7079093B807A093B907B093BA0781
:1035A000E5E5F2E0949108C08091C00085FFFCCF72
:1035B0009093C600319694919923B1F7E6E6F2E034
:1035C000949108C08091C00085FFFCCF9093C60005
:1035D000319694919923B1F78091C00085FFFCCF7B
:1035E0008AE08093C6008CE592E00E9453D3089550
:1035F000F8940E946174159A10928E07179A10928F
:103600008F07429A10929007A09A8FB7F8949091E2
:103610000B01926090930B018FBFE5E5F2E094916E
:1036200008C08091C00085FFFCCF9093C600319602
:1036300094919923B1F7E5EEF2E0949108C080915E
:10364000C00085FFFCCF9093C600319694919923DA
:10365000B1F78091C00085FFFCCF8AE08093C6005F
:103660008CED92E00E9462D3809A8898FFCF0E94EE
:10367000DB146093BB077093BC078093BD079093E6
:10368000BE07E091E407F091E507EA51F84F808129
:103690008823A9F4E4E0F3E0949108C08091C0008D
:1036A00085FFFCCF9093C600319694919923B1F792
:1036B0008091C00085FFFCCF8AE08093C60008950A
:1036C0000E94DB146093BB077093BC078093BD0717
:1036D0009093BE070895EF92FF920F931F930E945D
:1036E000DB14E090BF07F090C0070091C107109174
:1036F000C2072091BB073091BC074091BD07509194
:10370000BE07621B730B840B950BE616F7060807C2
:10371000190738F4E114F1040105110511F00E94B4
:10372000F81A8091A1039091A203A091A303B091F4
:10373000A4030097A105B10599F10E94DB14209123
:10374000BB073091BC074091BD075091BE07621B7B
:10375000730B840B950B2091A1033091A203409130
:10376000A3035091A4032617370748075907C0F44D
:1037700090914F1180915011981791F4159A1092D1
:103780008E07179A10928F07429A10929007A09A6C
:103790009FB7F89480910B01826080930B019FBFCB
:1037A0000E94F25A1F910F91FF90EF9008956F922F
:1037B0007F928F929F92AF92BF92CF92DF92EF92C1
:1037C000FF920F931F93F82E6091C3077091C40767
:1037D0008091C5079091C6072091C7073091C8070F
:1037E0004091C9075091CA070E94B0E13B014C01CA
:1037F00000D000D00DB71EB70F5F1F4F609183033D
:1038000070918403882777FD8095982F0E9437E078
:103810002091A5033091A6034091A7035091A803DE
:103820000E9475E220E030E040E752E40E949CDF15
:1038300020E030E048EC52E40E949CDF5B016C0128
:10384000F8016082718282829382F4828091A5075E
:10385000858386E697E06FEC77E043EC57E020E065
:1038600001E032E0E32E0E94F2548091CF07909164
:10387000D007A091D107B091D207809366079093AB
:103880006707A0936807B09369078091D307909169
:10389000D407A091D507B091D60780936A0790937B
:1038A0006B07A0936C07B0936D078091D707909139
:1038B000D807A091D907B091DA0780936E0790934B
:1038C0006F07A0937007B09371078091DB07909109
:1038D000DC07A091DD07B091DE078093720790931B
:1038E0007307A0937407B09375078DB79EB70696BC
:1038F0000FB6F8949EBF0FBE8DBF0E94DB1460937D
:10390000BB077093BC078093BD079093BE071F91C0
:103910000F91FF90EF90DF90CF90BF90AF909F906E
:103920008F907F906F900895CF92DF92EF92FF92E9
:103930000F931F938FEC97E00E947D190E94DB1478
:103940006093BB077093BC078093BD079093BE073D
:103950006091660770916707809168079091690789
:103960002091CF073091D0074091D1075091D207D5
:103970000E9495DF882309F07AC060916A077091F0
:103980006B0780916C0790916D072091D307309160
:10399000D4074091D5075091D6070E9495DF882320
:1039A00009F065C06091A5037091A6038091A703FB
:1039B0009091A80320E030E040E752E40E949CDFB1
:1039C0007B018C018FEC97E063ED77E047ED57E0EA
:1039D0002BED37E0E5EACE2EE7E0DE2E0E94D95D42
:1039E0008091CF079091D007A091D107B091D207D5
:1039F0008093660790936707A0936807B093690761
:103A00008091D3079091D407A091D507B091D607A4
:103A100080936A0790936B07A0936C07B0936D0730
:103A20008091D7079091D807A091D907B091DA0774
:103A300080936E0790936F07A0937007B093710700
:103A40008091DB079091DC07A091DD07B091DE0744
:103A50008093720790937307A0937407B0937507D0
:103A60001F910F91FF90EF90DF90CF90089560919C
:103A7000830370918403882777FD8095982F0E9497
:103A800037E02091A5033091A6034091A703509100
:103A9000A8030E9475E220E030E040E752E40E9473
:103AA0009CDF20E030E048EC52E488CF81E09AE0EF
:103AB0000E942542E7E0F3E0949108C08091C000A5
:103AC00085FFFCCF9093C600319694919923B1F76E
:103AD0004091B3075091B4076091B5077091B60754
:103AE0004F5F5F4F6F4F7F4F81E09AE02AE030E0F9
:103AF0000E94E6428091C00085FFFCCF8AE080935F
:103B0000C6000E94371B08952F923F924F925F92FA
:103B10006F927F928F929F92AF92BF92CF92DF92DD
:103B2000EF92FF920F931F93DF93CF93CDB7DEB742
:103B300028970FB6F894DEBF0FBECDBF98878F834E
:103B40008330910508F056C1FC01E959FA4FD49031
:103B50003C01660C771C660C771C93012A59384F80
:103B60003A83298380E090E0A0E0B0E0F90180830F
:103B70009183A283B38386E697E06AE677E04EE618
:103B800057E022E737E00E94CA58F301E659FA4F9E
:103B9000E590F590059114916D2D772767FD70954F
:103BA000882777FD8095982F0E9437E01B012C0114
:103BB00093012153384F3C832B83C801B70120E088
:103BC00030E040EC5FE30E9475E2A20191010E94A7
:103BD00075E2AB81BC816D937D938D939C9313971C
:103BE000F301ED58FC4FFE83ED836081718182818A
:103BF00093816093A5037093A6038093A70390938A
:103C0000A80320E030E040E752E40E949CDF7B0103
:103C10008C018FEC97E063ED77E047ED57E02BEDFB
:103C200037E0A5EACA2EA7E0DA2E0E94D95D0E94ED
:103C30007E6B80E090E0A0E0B0E0E981FA818083D3
:103C40009183A283B38386E697E06AE677E04EE647
:103C500057E022E737E00E94CA58F301E656FA4FD0
:103C600085909590A590B490C501B4019058A2019B
:103C700091010E9475E2AB81BC816D937D938D9320
:103C80009C9313976091A5037091A6038091A7035D
:103C90009091A80320E030E040E752E40E949CDFCE
:103CA0007B018C018FEC97E063ED77E047ED57E007
:103CB0002BED37E00E94D95D0E947E6BC501B401F7
:103CC000A50194010E94BCDEA20191010E9475E24F
:103CD000EB81FC816083718382839383AD81BE819C
:103CE0006D917D918D919C9120E030E040E05FE30B
:103CF0000E9475E26093A5037093A6038093A703C7
:103D00009093A80320E030E040E752E40E949CDF5B
:103D10007B018C018FEC97E063ED77E047ED57E096
:103D20002BED37E00E94D95D0E947E6BF301EA58CB
:103D3000FA4F6591759185919491F301EA58F84F86
:103D4000A080B180C280D380A60195010E94BCDE14
:103D50007B018C01CB01D801E981FA8180839183B9
:103D6000A283B383F301EE57FA4F65917591859164
:103D70009491F2E88F2EF7E09F2E860C971CA601F7
:103D800095010E94BCDED4016D937D938D939C932D
:103D90001397F301E257FA4F6591759185919491CC
:103DA000E3E9F3E06E0E7F1EA60195010E94BCDEE2
:103DB000D3016D937D938D939C931397C701D80185
:103DC000EB81FC8180839183A283B38380E090E0C8
:103DD000A0E0B0E08093A5039093A603A093A7036F
:103DE000B093A8030E94646AAF81B885A257B84F08
:103DF00081E08C9328960FB6F894DEBF0FBECDBF3E
:103E0000CF91DF911F910F91FF90EF90DF90CF90B6
:103E1000BF90AF909F908F907F906F905F904F90EA
:103E20003F902F900895682F2091E4073091E50787
:103E300080E690E0AC01249FC001259F900D349F47
:103E4000900D11248051984F70E00E94C3119C0185
:103E50009093EF078093EE0780E0232B09F081E039
:103E60000895FC01949108C08091C00085FFFCCFAB
:103E70009093C600319694919923B1F781E09AE02E
:103E800022E030E00E94F6430895FC01949108C0BE
:103E90008091C00085FFFCCF9093C600319694912D
:103EA0009923B1F781E09AE02AE030E00E94C7420E
:103EB00008958091EE079091EF07019660E070E021
:103EC0004AE050E00E942B1008958091EE079091F7
:103ED000EF07019660E070E00E94CB0E0895CF934B
:103EE000DF93EC018091A5078093B20784E50E94DF
:103EF000131F882309F482C00E94651F0E9409E0F5
:103F0000262F6093B207623008F478C0EFE4F2E045
:103F1000949108C08091C00085FFFCCF9093C600AB
:103F2000319694919923B1F7CD36D105C1F0CE36B3
:103F3000D10544F4C836D105C1F0C936D10509F020
:103F40004DC010C0CA3DD10539F0CD3DD10509F0B5
:103F500045C0E0E0F2E03FC0E7E1F2E031C0EEE270
:103F6000F2E023C0E5E4F2E015C0ECE5F2E007C0C2
:103F70008091C00085FFFCCF31969093C600908160
:103F80009923B1F72BC08091C00085FFFCCF3196FB
:103F90009093C60090819923B1F720C08091C00012
:103FA00085FFFCCF31969093C60090819923B1F79D
:103FB00015C08091C00085FFFCCF31969093C6005C
:103FC00090819923B1F70AC08091C00085FFFCCF92
:103FD00031969093C60090819923B1F781E09AE0E1
:103FE000622F40E050E00E94D4428091C00085FFE3
:103FF000FCCF8AE08093C60081E001C080E0DF91C1
:10400000CF910895AF92BF92CF92DF92EF92FF923D
:104010000F931F93CF93DF9316E6E12E17E0F12E57
:10402000CFECD7E000E010E0F801E851FC4F8081D0
:104030000E94131F882339F10E94651F5B016C01E8
:10404000F801E05AF84F8081882311F061E002C046
:104050006091DF0770E0882777FD8095982F0E9498
:1040600037E0F70120813181428153810E9475E25E
:104070009B01AC01C601B5010E94BCDE6883798357
:104080008A839B8309C0F70180819181A281B381DA
:1040900088839983AA83BB830F5F1F4F84E090E0DE
:1040A000E80EF91E24960430110509F0BDCF86E410
:1040B0000E94131F8823E1F00E94651F7B018C0181
:1040C0006093E0077093E1078093E2079093E30722
:1040D00020E030E040E050E00E94A3E1181644F4F4
:1040E000E092A503F092A6030093A7031093A80300
:1040F000DF91CF911F910F91FF90EF90DF90CF90C4
:10410000BF90AF9008950E94022089E40E94131F7F
:10411000882359F00E94651F6093C3077093C407FA
:104120008093C5079093C6070CC080E090E0A0E0A4
:10413000B0E08093C3079093C407A093C507B093E2
:10414000C6078AE40E94131F882359F00E94651F46
:104150006093C7077093C8078093C9079093CA07F5
:10416000089580E090E0A0E0B0E08093C7079093CE
:10417000C807A093C907B093CA0708952F923F922A
:104180004F925F926F927F928F929F92AF92BF9267
:10419000CF92DF92EF92FF920F931F93DF93CF9313
:1041A000CDB7DEB7EE970FB6F894DEBF0FBECDBF2A
:1041B00087E40E94131F882309F44EC40E94651FE0
:1041C0000E9404E06430710509F441C06530710556
:1041D00054F46230710541F1633071056CF5772359
:1041E000CCF40C94083A6A35710509F4E0C36B35D8
:1041F000710534F46C31710511F00C94083A6FC0FC
:104200006B35710509F4D7C36C35710511F00C9449
:10421000083AD6C38091B007882331F40E94022067
:104220000E94941C0C942F3A8091B007882321F4AB
:104230000E94832081E007C08091B007882339F471
:104240000E94832080E00E94D71B0C942F3A8EE5B9
:1042500095E00E9453D380E50E94131F882321F428
:10426000EE24FF24870106C00E94651F0E9409E01A
:104270007B018C0183E50E94131F882361F00E945B
:10428000651F20E030E04AE754E40E9475E20E9496
:1042900009E07B018C010E947E6B0E94DB145B01B4
:1042A0006C01AE0CBF1CC01ED11E0E94DB146093BB
:1042B000BB077093BC078093BD079093BE0706C0F1
:1042C0000E94C4790E946B1B0E9485D30E94DB145C
:1042D0006A157B058C059D0598F30C94083A80912E
:1042E000A5039091A603A091A703B091A803809382
:1042F000EA079093EB07A093EC07B093ED0780914A
:10430000830390918403909365078093640784E608
:1043100090E090938403809383030E94DB14609366
:10432000BB077093BC078093BD079093BE0781E0E5
:104330000E946B6A8091660790916707A091680759
:10434000B09169078093CF079093D007A093D107CE
:10435000B093D20780916A0790916B07A0916C0788
:10436000B0916D078093D3079093D407A093D5079E
:10437000B093D60780916E0790916F07A091700758
:10438000B09171078093D7079093D807A093D9076E
:10439000B093DA078091720790917307A091740728
:1043A000B09175078093DB079093DC07A093DD073E
:1043B000B093DE0780E090E0A0E0B0E08093A5033A
:1043C0009093A603A093A703B093A80388E50E9447
:1043D000131F882361F489E50E94131F882339F491
:1043E0008AE50E94131F882311F481E001C080E058
:1043F0008093A903882361F488E50E94131F882312
:1044000009F41BC289E50E94131F882309F415C211
:1044100080E090E0A0E0B0E08093660790936707AB
:10442000A0936807B093690780936A0790936B071E
:10443000A0936C07B0936D07B7E68B2EB5E09B2E6B
:10444000F401E49086E697E06AE677E04EE657E00E
:1044500022E737E00E94CA58AAE66A2EA5E07A2E23
:10446000F301659175918591949120E030E040ECE5
:104470005FE30E9475E25B016C01FF24E7FCF094AE
:104480000027F7FC0095102FC801B7010E9437E004
:104490009B01AC01C601B5010E9475E26093CF0794
:1044A0007093D0078093D1079093D207F4E04F2EFA
:1044B000512C460C571CF201659175918591949190
:1044C0000894811C911CF401D49020E030E040EC71
:1044D0005FE30E9475E27B018C016D2D772767FDFC
:1044E0007095872F972F0E9437E09B01AC01C80180
:1044F000B7010E9475E26093D3077093D40780934D
:10450000D5079093D607209173033091740340919F
:104510007503509176032093A5033093A60340932F
:10452000A7035093A803E0907703F09078030091DD
:10453000790310917A03C801B7010E9495DF88239F
:1045400044F4E092A503F092A6030093A70310930E
:10455000A803F301A590B590C590D490F201E59021
:10456000F59005911491C601B501A80197010E942B
:10457000A3E118162CF4C801B701A601950104C0E7
:10458000C601B501A80197010E949CDF9B01AC0107
:104590000E9475E29B01AC01CA0120E030E040E8D6
:1045A0005FE30E94BCDE0E94E2E29B01AC016091ED
:1045B000A5037091A6038091A7039091A8030E9480
:1045C00075E26093A5037093A6038093A70390936D
:1045D000A8036091A5037091A6038091A703909111
:1045E000A80320E030E040E752E40E949CDF7B011A
:1045F0008C018FEC97E063ED77E047ED57E02BED12
:1046000037E0E5EACE2EE7E0DE2E0E94D95D0E947B
:104610007E6BE6E7F5E06591759185919491209127
:1046200076073091770740917807509179070E947B
:10463000BCDE60936607709367078093680790936A
:104640006907E2E8F5E06591759185919491209173
:1046500076073091770740917807509179070E944B
:10466000BCDE6093820770938307809384079093E6
:104670008507EEE8F5E0659175918591949120911B
:1046800076073091770740917807509179070E941B
:10469000BCDE60939303709394038093950390938F
:1046A0009603EAE7F5E065917591859194912091E3
:1046B0007A0730917B0740917C0750917D070E94DB
:1046C000BCDE60936A0770936B0780936C079093CE
:1046D0006D07E6E8F5E065917591859194912091DB
:1046E0007A0730917B0740917C0750917D070E94AB
:1046F000BCDE60938607709387078093880790934A
:104700008907E2E9F5E06591759185919491209191
:104710007A0730917B0740917C0750917D070E947A
:10472000BCDE6093970370939803809399039093F2
:104730009A0386E697E06AE677E04EE657E022E7DE
:1047400037E00E94CA588091660790916707A09150
:104750006807B09169078093CF079093D007A09323
:10476000D107B093D20780916A0790916B07A0910F
:104770006C07B0916D078093D3079093D407A093F3
:10478000D507B093D6076091A5037091A6038091D9
:10479000A7039091A80320E030E040E752E40E9494
:1047A0009CDF7B018C018FEC97E063ED77E047EDB8
:1047B00057E02BED37E00E94D95D80E090E0A0E06B
:1047C000B0E08093A5039093A603A093A703B093B2
:1047D000A8030E947E6B0E94646A8091CF0790912B
:1047E000D007A091D107B091D2078093660790932C
:1047F0006707A0936807B09369078091D3079091EA
:10480000D407A091D507B091D60780936A079093FB
:104810006B07A0936C07B0936D078091D7079091B9
:10482000D807A091D907B091DA0780936E079093CB
:104830006F07A0937007B09371078091A903882335
:1048400029F488E50E94131F882321F080E090E07E
:104850000E94841D8091A903882329F489E50E9480
:10486000131F882321F081E090E00E94841D88E5D9
:104870000E94131F8823D9F00E94591F61157105EA
:1048800081059105A1F00E94651F20917607309166
:10489000770740917807509179070E94BCDE6093BA
:1048A000660770936707809368079093690789E5A7
:1048B0000E94131F8823D9F00E94591F61157105AA
:1048C00081059105A1F00E94651F20917A07309122
:1048D0007B0740917C0750917D070E94BCDE60936E
:1048E0006A0770936B0780936C0790936D078091B4
:1048F000A903882329F48AE50E94131F882321F045
:1049000082E090E00E94841D8AE50E94131F8823A4
:10491000D9F00E94591F6115710581059105A1F01B
:104920000E94651F20917E0730917F07409180078C
:10493000509181070E94BCDE60936E0770936F07F1
:10494000809370079093710786E697E06AE677E0B8
:104950004EE657E022E737E00E94CA5880E00E9406
:104960006B6A8091EA079091EB07A091EC07B091F8
:10497000ED078093A5039093A603A093A703B0939C
:10498000A8038091640790916507909384038093B6
:1049900083030E94DB146093BB077093BC07809372
:1049A000BD079093BE070E94646A0C94083A109267
:1049B000DF070C94083A81E08093DF070C94083AF3
:1049C00085E40E94131F882311F40E947E6B46E643
:1049D000E42E47E0F42E36E7C32E37E0D32E00E076
:1049E00010E0F801E851FC4F80810E94131F8823DA
:1049F00031F1033061F40E94651FF7016083718318
:104A00008283938382E797E00E94AC5818C00E948B
:104A1000651FF60120813181428153810E94BCDEF5
:104A2000F701608371838283938386E697E06AE669
:104A300077E04EE657E022E737E00E94CA580F5F62
:104A40001F4F24E030E0E20EF31EC20ED31E0430EE
:104A5000110539F60C94083A8DE40E94131F88233F
:104A600011F40C94AC380E94651F0E9404E0633777
:104A7000710511F40C94382F643771050CF096C051
:104A80006F31710509F487C3603271050CF041C0C4
:104A90006631710509F4F4C167317105E4F46131DF
:104AA000710509F4A5C16231710534F462307105F4
:104AB00010F00C94083A3DC16431710509F4AAC1A3
:104AC000653171050CF0D6C16231710511F00C949D
:104AD000083A0C94322E6A31710509F409C26B311F
:104AE00071054CF46831710509F4ECC16931710547
:104AF0000CF0F8C1CBC16C31710509F41EC26C31E8
:104B000071050CF414C26E31710511F00C94083A61
:104B100051C26535710511F40C949B2E66357105F3
:104B2000F4F46135710511F40C94022E62357105AF
:104B300054F46032710509F483C26A32710511F0D0
:104B40000C94083AADC36335710511F40C942D2E05
:104B50006435710514F00C94322E0C94292E6A36AB
:104B6000710511F40C94CB2D6B3671057CF468360D
:104B7000710509F4DFC3693671050CF00CC46C359E
:104B8000710511F00C94083A0C94B22E6D36710533
:104B900009F43EC56237710511F40C945F2F6B3632
:104BA000710511F00C94083A0C94FC2D6D3D7105C3
:104BB00011F40C9472336E3D71050CF054C0683CD6
:104BC000710511F40C945B31693C710514F568377B
:104BD000710511F40C945430693771055CF4653734
:104BE000710511F40C94482F6737710511F00C947E
:104BF000083A9BC06C38710509F4BCC36E3B710563
:104C000009F4B6C66937710511F00C94083A0C9492
:104C100059306D3C710511F40C9439326E3C7105BC
:104C20008CF46B3C710511F40C94F8316C3C7105FB
:104C300014F00C941732693C710511F00C94083A89
:104C40000C94D5316A3D710511F40C94B5326C3D6C
:104C5000710511F40C9463336E3C710511F00C94E2
:104C6000083A0C94973231E0643F730711F40C94C6
:104C7000523541E0653F74074CF551E06D327507E0
:104C800011F40C94283481E06E32780764F4623EAB
:104C9000710511F40C9499336C52714011F00C941D
:104CA000083A0C94F133E1E06F327E0711F40C9472
:104CB0000F35F1E06F327F0714F40C940035605922
:104CC000714011F00C94083A0C944F3532E068357D
:104CD000730711F40C94633642E0693574079CF451
:104CE00051E0663F750711F40C94583581E0663F3A
:104CF000780714F40C945535675F714011F00C94EB
:104D0000083A0C945B35E3E0603A7E0709F408C288
:104D1000F3E0673E7F0711F40C94953863557340B8
:104D200011F00C94083A0C945E35E3E7F2E00C9431
:104D300065308DE495E00E9453D380E50E94131FF7
:104D4000882321F4EE24FF24870106C00E94651FFA
:104D50000E9409E07B018C0183E50E94131F8823D8
:104D600061F00E94651F20E030E04AE754E40E94B1
:104D700075E20E9409E07B018C010E947E6B0E941B
:104D8000DB146093BB077093BC078093BD079093BF
:104D9000BE07E114F1040105110501F10E94DB14C5
:104DA0005B016C01AE0CBF1CC01ED11E0E94DB1447
:104DB0006A157B058C059D05A8F40E940C9B882331
:104DC00089F40E94C4790E946B1B0E9485D3EECFA8
:104DD0000E94C4790E946B1B0E9485D30E940C9B89
:104DE0008823B1F38EE395E00E9453D30C94083AE4
:104DF00085E395E00E9453D3159817984298A098A0
:104E00009FB7F89480910B018D7F80930B019FBF1A
:104E10000C94083AE5E2F5E0949108C08091C00056
:104E200085FFFCCF9093C600319694919923B1F7FA
:104E30008091C00085FFFCCF8AE08093C60083ED9F
:104E400094E00E944C8DE7E1F5E0949108C08091D8
:104E5000C00085FFFCCF9093C600319694919923B2
:104E6000B1F78091C00085FFFCCF8AE08093C60037
:104E70000C94083A83ED94E00E94AB880C94083AB5
:104E800083ED94E00E94E3800C94083A8091EE0751
:104E90009091EF0704966AE270E00E94C311FC0152
:104EA000009711F0319710826091EE077091EF0733
:104EB0006C5F7F4F83ED94E041E021E00E94C1846C
:104EC0000C94083A83ED94E00E94E7800E94DB1482
:104ED0006093A8077093A9078093AA079093AB07E4
:104EE0000C94083A83ED94E00E94EE800C94083A0A
:104EF0008091D604882311F40C94083A83E50E942B
:104F0000131F882311F40C94083A0E94591FAB0117
:104F1000BC014093560750935707809358077093EE
:104F2000590781EA96E00E94F7460C94083A83ED0F
:104F300094E00E94AC820C94083A8091EE07909124
:104F4000EF0704966AE270E00E94C3118C0100979B
:104F500019F12091E4073091E50780E690E0AC017B
:104F6000249FC001259F900D349F900D11248051E6
:104F7000984F6EE470E00E94C31160E270E00E94FE
:104F8000C3119C012F5F3F4F3093EF072093EE0733
:104F900001501040F80110826091EE077091EF0708
:104FA0006C5F7F4F83ED94E040E021E00E94C1847C
:104FB0000C94083A8091D604882311F40C94083A92
:104FC00083ED94E060E00E941B828091EE07909157
:104FD000EF0704966AE270E00E94C3118C0100970B
:104FE00019F12091E4073091E50780E690E0AC01EB
:104FF000249FC001259F900D349F900D1124805156
:10500000984F6EE470E00E94C31160E270E00E946D
:10501000C3119C012F5F3F4F3093EF072093EE07A2
:1050200001501040F80110826091EE077091EF0777
:105030006C5F7F4F83ED94E00E9406830C94083AE6
:105040008091D504882311F00E947E6BE090EE07DA
:10505000F090EF0724E030E0E20EF31EC7016AE2B1
:1050600070E00E94C3118C01C70161E270E00E94F0
:10507000C311009721F07C010894E11CF11C01157B
:10508000110521F001501040F801108280E50E94C6
:10509000131F182F8091EE079091EF07E816F9067D
:1050A00008F410E08091D604882311F40C94083A97
:1050B00021E0212783ED94E0B70141E00E94C18403
:1050C00083E50E94131F8823B9F08091EE07909129
:1050D000EF078E159F0580F40E94591FAB01BC019C
:1050E000409356075093570780935807709359077A
:1050F00081EA96E00E94F74683ED94E00E94E78003
:10510000112311F00C94083A0E94DB146093A80755
:105110007093A9078093AA079093AB070C94083A61
:105120008091EE079091EF0705966AE270E00E9489
:10513000C3118C01009719F12091E4073091E50724
:1051400080E690E0AC01249FC001259F900D349F24
:10515000900D11248051984F6EE470E00E94C311AD
:1051600060E270E00E94C3119C012F5F3F4F3093BB
:10517000EF072093EE0701501040F8011082609174
:10518000EE077091EF076B5F7F4F83ED94E00E9415
:10519000A2880C94083A0E94DB146093AC077093C9
:1051A000AD078093AE079093AF072091A807309189
:1051B000A9074091AA075091AB07621B730B840BA0
:1051C000950B28EE33E040E050E00E948DE3F22E94
:1051D000E32ED42EC52E2DB73EB7285030400FB643
:1051E000F8943EBF0FBE2DBF0DB71EB70F5F1F4F08
:1051F000CE018196EDB7FEB79283818388E095E07A
:10520000F801938382836F2D7E2D842F952F2CE3BD
:1052100030E040E050E00E948DE3F80135832483C4
:105220006F2D7E2D8D2D9C2D2CE330E040E050E045
:105230000E948DE3F801778366830E94F211EFE408
:10524000F2E094912DB73EB7285F3F4F0FB6F89428
:105250003EBF0FBE2DBF08C08091C00085FFFCCFB0
:105260009093C600319694919923B1F7FE01B196BF
:1052700007C08091C00085FFFCCF31969093C60097
:1052800090819923B1F78091C00085FFFCCF8AE01F
:105290008093C600CE0181960E9476D30C94083A82
:1052A00083E50E94131F882311F40C94083A0E948E
:1052B000651F0E9404E07B018C016B0180E50E9468
:1052C000131F882369F0F7FC0BC03FEFE316F104CE
:1052D00009F034F40E94651F0E9404E08B0102C0B3
:1052E0000DE010E0ECEEF3E08081918180179107F2
:1052F00011F40C94083A329644E0EC36F407A1F726
:105300000730110529F4D092A707C092A60704C060
:1053100017FF02C00C94083A802F61E00E948E169D
:10532000802F6C2D0E944117802FB6010E94AE1570
:105330000C94083A88E690E00E946F1F882311F0D1
:105340000C94083A83E50E94131F882379F00E9489
:10535000651F2091B207022F10E0000F111F0055AA
:105360001E4E0E9404E0F801718360830E94DE7685
:105370000C94083A83E50E94131F882311F40C94BF
:10538000083A0E94651F0E9404E07093B511609373
:10539000B4110C94083A89E690E00E946F1F8823AC
:1053A00011F00C94083AE2E0F5E0949108C0809185
:1053B000C00085FFFCCF9093C6003196949199234D
:1053C000B1F7E091B207F0E0EE0FFF1FEE0FFF1F05
:1053D000E654FE4E408151816281738181E09AE002
:1053E00021E030E00E94F643EFEFF4E0949108C032
:1053F0008091C00085FFFCCF9093C60031969491B8
:105400009923B1F7E091B207F0E0EE0FFF1FE055EE
:10541000FE4E60817181882777FD8095982F0E94CC
:1054200037E0AB01BC0181E09AE021E030E00E946E
:10543000F643EBEFF4E0949108C08091C00085FF43
:10544000FCCF9093C600319694919923B1F7409187
:10545000C4115091C5116091C6117091C71181E0BE
:105460009AE021E030E00E94F643E8EFF4E0949106
:1054700008C08091C00085FFFCCF9093C600319694
:1054800094919923B1F76091B4117091B511882767
:1054900077FD8095982F0E9437E0AB01BC0181E039
:1054A0009AE021E030E00E94F64300EBC02E01E1DB
:1054B000D02E1AEBE12E11E1F12E00E010E0E5EF25
:1054C000F4E09490E3EFF4E0A490E0EFF4E0B49023
:1054D000992DE5EFF4E008C08091C00085FFFCCF76
:1054E0009093C600319694919923B1F781E09AE0A8
:1054F000B8014AE050E00E941B439A2DE3EFF4E02C
:1055000008C08091C00085FFFCCF9093C600319603
:1055100094919923B1F7F7014081518162817381A0
:1055200081E09AE021E030E00E94F6439B2DE0EF1D
:10553000F4E008C08091C00085FFFCCF9093C600C6
:10554000319694919923B1F7F601619171916F01B0
:10555000882777FD8095982F0E9437E0AB01BC012A
:1055600081E09AE021E030E00E94F6430F5F1F4F98
:1055700024E030E0E20EF31E0230110509F0A8CF5E
:10558000ECEEF4E0949108C08091C00085FFFCCF60
:105590009093C600319694919923B1F78091B20708
:1055A0000E94A673BC0181E09AE04AE050E00E94AC
:1055B0001B43E7EEF4E0949108C08091C00085FFA2
:1055C000FCCF9093C600319694919923B1F78FEF59
:1055D0009FEF0E94A673BC0181E09AE04AE050E090
:1055E0000E941B43ECE8F2E007C08091C00085FFF9
:1055F000FCCF31969093C60090819923B1F78091AA
:10560000C00085FFFCCF8AE08093C6000C942F3A3F
:105610008DE690E00E946F1F882311F00C94083AE9
:105620008CED94E00E9453D383E50E94131F8823DE
:1056300099F00E94651F2091B207022F10E0000F21
:10564000111F00551E4E0E9404E0F8017183608313
:1056500081E08093A00316C082E50E94131F882377
:1056600089F00E94651F2091B207022F10E0000F01
:10567000111F00551E4E0E9404E0F80171836083E3
:105680001092A0030E94DE760E94DB144B015C01A5
:105690002091B207022F10E01092B107000F111FE6
:1056A000F801E055FE4E60817181882777FD809575
:1056B000982F0E9437E0000F111F06541E4EF8016C
:1056C00020813181428153810E94A3E118161CF48C
:1056D00081E08093B107CC24CA94DC2C7601E9EDFB
:1056E000F4E05490E5EDF4E06490E1EDF4E07490C2
:1056F0007AE0472E30C1952DE9EDF4E008C08091A5
:10570000C00085FFFCCF9093C600319694919923F9
:10571000B1F7E091B207F0E0EE0FFF1FEE0FFF1FB1
:10572000E654FE4E408151816281738181E09AE0AE
:1057300021E030E00E94F643962DE5EDF4E008C04C
:105740008091C00085FFFCCF9093C6003196949164
:105750009923B1F76091B20781E09AE070E04AE0E6
:1057600050E00E941B43972DE1EDF4E008C08091CA
:10577000C00085FFFCCF9093C60031969491992389
:10578000B1F7F7FE03C0EDE8F2E028C00E94DB1499
:10579000A70196012854344F4F4F5F4F261B370BFC
:1057A000480B590BCA01B90128EE33E040E050E044
:1057B0000E948DE381E09AE0BA01A9012AE030E07D
:1057C0000E94C7428091C00085FFFCCF0EC080912F
:1057D000C00085FFFCCF31969093C600908199233D
:1057E000B1F78091C00085FFFCCF4092C6000E94B7
:1057F000DB144B015C010E94C4790E946B1B0E9468
:1058000085D3FFEFCF16FFEFDF06FFEFEF06FFEFC9
:10581000FF0609F052C08091B107E091B2078823DA
:1058200031F1F0E08F01000F111F000F111F06541E
:105830001E4EEE0FFF1FE055FE4E608171818827DE
:1058400077FD8095982F0E9437E020E030E040E817
:105850005FE30E94BBDE9B01AC01F80160817181B6
:10586000828193810E94A3E187FF58C05EC0F0E06F
:105870008F01000F111F000F111F06541E4EEE0F57
:10588000FF1FE055FE4E60817181882777FD80956E
:10589000982F0E9437E020E030E040E85FE30E946C
:1058A000BCDE9B01AC01F801608171818281938132
:1058B0000E9495DF181694F538C0F7FC36C0E091C9
:1058C000B207F0E08F01000F111F000F111F0654E7
:1058D0001E4EEE0FFF1FE055FE4E6081718188273E
:1058E00077FD8095982F0E9437E09B01AC01F8016D
:1058F00060817181828193810E94BBDE0E9404E0FD
:1059000097FF07C090958095709561957F4F8F4F59
:105910009F4F64307105810591053CF00E94DB14B6
:10592000AC01CB01DA016C017D01FFEFCF16FFEF77
:10593000DF06FFEFEF06FFEFFF0669F0F7FE02C09C
:105940000C940B3A0E94DB146C197D09685B7B4058
:1059500010F00C940B3A0E94DB14681979098A093B
:105960009B09695E73408040904008F0C4CE43CFED
:1059700086EB94E00E9453D383E50E94131F882393
:1059800061F00E94651F0E9404E07093B51160935E
:10599000B41181E08093A0030FC082E50E94131F21
:1059A000882351F00E94651F0E9404E07093B51196
:1059B0006093B4111092A0030E94DB147B018C0150
:1059C0001092B1076091B4117091B511882777FDDD
:1059D0008095982F0E9437E02091C4113091C51115
:1059E0004091C6115091C7110E94A3E118160CF006
:1059F00082C081E08093B1077EC00E94DB146E19E3
:105A00007F09800B910B695E73408040904008F4E1
:105A10006BC0E091A507F0E0EE0FFF1FEE0FFF1F38
:105A2000E654FE4E40815181628173819B2DE3EBF0
:105A3000F4E008C08091C00085FFFCCF9093C600C1
:105A4000319694919923B1F781E09AE022E030E019
:105A50000E94F6439C2DEFEAF4E008C08091C0005C
:105A600085FFFCCF9093C600319694919923B1F7AE
:105A70006091A50781E09AE070E04AE050E00E9462
:105A80001B439D2DEBEAF4E008C08091C00085FF28
:105A9000FCCF9093C600319694919923B1F7409131
:105AA000C4115091C5116091C6117091C71181E068
:105AB0009AE021E030E00E94F643ECE8F2E007C013
:105AC0008091C00085FFFCCF31969093C6009081F5
:105AD0009923B1F78091C00085FFFCCFA092C6004A
