:100000000C94601B0C9478240C94A9240C94DA248E
:100010000C940B250C943C250C946D250C949E257A
:100020000C94CF250C948D1B0C948D1B0C948D1B64
:100030000C948D1B0C94BDA60C948D1B0C948D1BE5
:100040000C948D1B0C94A07C0C948D1B0C948D1B1C
:100050000C948D1B0C948D1B0C944B850C94FA21E5
:100060000C948D1B0C948D510C948D1B0C948D1B3A
:100070000C948D1B0C948D1B0C948D1B0C948D1B60
:100080000C948D1B0C948D1B0C948D1B0C948D1B50
:100090000C948D1B0C948D1B0C948D1B0C94F1AF48
:1000A0000C948D1B0C948D1B0C948D1B0C948D1B30
:1000B0000C948D1B0C948D1B0C948D1B0C948D1B20
:1000C0000C948D1B0C948D1B0C948D1B0C948D1B10
:1000D0000C948D1B0C948D1B0C948D1B0C948D1B00
:1000E0000C948D1B09A517A51EA525A52CA533A528
:1000F00006A53AA541A549A506A551A55AA565A5F8
:1001000070A57BA586A506A591A59CA5A9A506A574
:10011000B6A5C5A5C7A5C9A5CBA5CDA5CFA5D1A574
:10012000D3A5D5A5D7A5D9A5DBA5DDA5DFA5E1A5D7
:10013000E3A5084AD73B3BCE016E84BCBFFDC12F6F
:100140003D6C74319ABD56833DDA3D00C77F11BEC8
:10015000D9E4BB4C3E916BAAAABE000000803F05CB
:10016000A84CCDB2D44EB93836A9020C50B99186FC
:1001700088083CA6AAAA2ABE000000803F000021F1
:1001800000240027002A002D003000330001010068
:1001900000040107010A0100002200250028002BAD
:1001A000002E003100340002010000050108010B9F
:1001B00001000020002300260029002C002F00321F
:1001C00000000100000301060109010505050507FE
:1001D0000508080808020202020A0A0808040404C2
:1001E00004010101010101010103030303030303EE
:1001F00003040707070C0C0C0C0C0C0C0C0202027D
:100200000206060606060606060B0B0B0B0B0B0B6F
:100210000B0102102020080810204010204080020E
:10022000010201080402010102040810204080803C
:1002300040201008040201800402018040201008C0
:100240000402010804020101020408102040800198
:10025000020408102040800000090A02080B0C0D5F
:100260000706030401000000000000000000000079
:10027000000000000000000000000000000000007E
:1002800000000011100F000000000000000000003E
:10029000000000000000000000000000006563682E
:1002A0006F3A004572726F723A005072696E7465EF
:1002B000722073746F707065642064756520746F4C
:1002C000206572726F72732E20466978207468659B
:1002D000206572726F7220616E6420757365204DA7
:1002E00039393920746F20726573746172742E20ED
:1002F0002854656D7065726174757265206973202C
:1003000072657365742E205365742069742061666C
:100310007465722072657374617274696E67290006
:100320005072696E7465722068616C7465642E2009
:100330006B696C6C28292063616C6C656421006FAB
:100340006B00526573656E643A20002200556E6B37
:100350006E6F776E20636F6D6D616E643A20220060
:10036000456C656374726F6E6963735F74657374F3
:100370000020423A300020423A31006F6B20523A5E
:10038000002200556E6B6E6F776E20636F6D6D612E
:100390006E643A2022007A5F6D61783A2000795FBE
:1003A0006D61783A2000785F6D696E3A20005A3AA4
:1003B00000593A0020436F756E7420583A2000456A
:1003C0003A005A3A00593A00583A004649524D57B5
:1003D0004152455F4E414D453A4D61726C696E2008
:1003E000556C74696D616B6572323B205370726934
:1003F0006E7465722F6772626C206D6173687570C0
:1004000020666F722067656E36204649524D57410F
:1004100052455F55524C3A687474703A2F2F676991
:10042000746875622E636F6D2F556C74696D616BA6
:1004300065722050524F544F434F4C5F56455253B4
:10044000494F4E3A312E30204D414348494E455F89
:10045000545950453A556C74696D616B657220450D
:10046000585452554445525F434F554E543A310A01
:100470000020423A0020453A00543A0020573A0002
:1004800020453A00543A002042403A0020403A00C9
:10049000202F0020423A00202F006F6B20543A009A
:1004A0002569206D696E2C202569207365630045E0
:1004B0006E642066696C65206C69737400426567C0
:1004C000696E2066696C65206C69737400000000B9
:1004D00000000066430000664300000000000000CA
:1004E0000000000000000066430000664300006654
:1004F00043456E6473746F70207374696C6C207004
:1005000072657373656420616674657220626163ED
:100510006B696E67206F66662E20456E6473746F1C
:100520007020737475636B3F00456E6473746F70F5
:10053000206E6F74207072657373656420616674D9
:10054000657220686F6D696E6720646F776E2E200C
:10055000456E6473746F702062726F6B656E3F00DE
:10056000456E6473746F70206E6F74207072657363
:1005700073656420616674657220686F6D696E676B
:1005800020646F776E2E20456E6473746F702062E6
:10059000726F6B656E3F00000066430000664300AB
:1005A0000066430000E0400000E0400000E040FF43
:1005B0000101256920686F757273202569206D69B6
:1005C0006E7574657300446F6E65207072696E7429
:1005D000696E672066696C65005072696E74657239
:1005E0002073746F707065642064756520746F206B
:1005F0006572726F72732E20466978207468652068
:100600006572726F7220616E6420757365204D395A
:10061000393920746F20726573746172742E2028CA
:1006200054656D70657261747572652069732072AE
:10063000657365742E205365742069742061667437
:1006400065722072657374617274696E6729006FD8
:100650006B004E6F204C696E65204E756D62657241
:10066000207769746820636865636B73756D2C20EF
:100670004C617374204C696E653A20004E6F2043C4
:100680006865636B73756D2077697468206C696E3B
:1006900065206E756D6265722C204C617374204C00
:1006A000696E653A2000636865636B73756D206DD4
:1006B00069736D617463682C204C617374204C699C
:1006C0006E653A20004C696E65204E756D626572EC
:1006D000206973206E6F74204C617374204C696EB6
:1006E00065204E756D6265722B312C204C617374E0
:1006F000204C696E653A20004D31313000446F6EF8
:100700006520736176696E672066696C652E006F7F
:100710006B004D3239002020506C616E6E65724264
:10072000756666657242797465733A200020467278
:100730006565204D656D6F72793A20004A756C20B1
:100740003233203230313500436F6D70696C65642F
:100750003A200056657273696F6E3A5F31352E30FC
:10076000342E3200207C20417574686F723A20006C
:100770004A756C20323320323031352031303A32F4
:10078000333A313100204C617374205570646174C8
:1007900065643A2000312E302E30004D61726C6954
:1007A0006E200020536F6674776172652052657306
:1007B000657400205761746368646F6720526573C5
:1007C0006574002042726F776E206F7574205265D9
:1007D000736574002045787465726E616C20526593
:1007E00073657400506F7765725570007374617231
:1007F00074002200656E717565696E6720220022A3
:1008000000656E717565696E672022000000211019
:10081000422063308440A550C660E770088129916A
:100820004AA16BB18CC1ADD1CEE1EFF13112100212
:1008300073325222B5529442F772D66239931883BA
:100840007BB35AA3BDD39CC3FFF3DEE362244334DE
:1008500020040114E664C774A44485546AA54BB50A
:1008600028850995EEE5CFF5ACC58DD553367226B2
:1008700011163006D776F6669556B4465BB77AA75A
:1008800019973887DFF7FEE79DD7BCC7C448E558FE
:100890008668A7784008611802282338CCC9EDD9AA
:1008A0008EE9AFF9488969990AA92BB9F55AD44A52
:1008B000B77A966A711A500A333A122AFDDBDCCBFA
:1008C000BFFB9EEB799B588B3BBB1AABA66C877C1E
:1008D000E44CC55C222C033C600C411CAEED8FFD4A
:1008E000ECCDCDDD2AAD0BBD688D499D977EB66EF2
:1008F000D55EF44E133E322E511E700E9FFFBEEF9A
:10090000DDDFFCCF1BBF3AAF599F788F8891A9815B
:10091000CAB1EBA10CD12DC14EF16FE18010A10045
:10092000C230E3200450254046706760B983989335
:10093000FBA3DAB33DC31CD37FE35EF3B102901295
:10094000F322D2323542145277625672EAB5CBA501
:10095000A89589856EF54FE52CD50DC5E234C324E5
:10096000A01481046674476424540544DBA7FAB7D5
:100970009987B8975FE77EF71DC73CD7D326F23635
:100980009106B01657667676154634564CD96DC921
:100990000EF92FE9C899E9898AB9ABA94458654885
:1009A00006782768C018E1088238A3287DCB5CDB75
:1009B0003FEB1EFBF98BD89BBBAB9ABB754A545AD5
:1009C000376A167AF10AD01AB32A923A2EFD0FED41
:1009D0006CDD4DCDAABD8BADE89DC98D267C076C25
:1009E000645C454CA23C832CE01CC10C1FEF3EFF15
:1009F0005DCF7CDF9BAFBABFD98FF89F176E367E75
:100A0000554E745E932EB23ED10EF01E7C3C3E5E7F
:100A10002B3D3F2F5B5D3B2C2A225C006563686F9A
:100A20003A0020746F6F206C6F6E67206578747267
:100A30007573696F6E2070726576656E746564009B
:100A400020636F6C6420657874727573696F6E20B3
:100A500070726576656E7465640045313A200045B4
:100A6000303A20005A3A2000593A2000583A2000E3
:100A70004D53312C4D53322050696E730A0024F4CB
:100A800004D9201BC40C5C0E9804C4095F026507DE
:100A90007101F405F900FB04B30048048700C103A9
:100AA00069005803550003034500BE023A00840262
:100AB000310053022A002902250004022000E4012B
:100AC0001C00C8011900AF0117009801140084012F
:100AD0001300710110006101100051010E0043016B
:100AE0000D0036010B002B010B0020010B0015013E
:100AF00009000C01090003010800FB000800F300D5
:100B00000800EB000700E4000600DE000600D80045
:100B10000600D2000600CC000500C7000500C20098
:100B20000500BD000400B9000400B5000400B100D8
:100B30000400AD000400A9000400A5000300A20009
:100B400003009F0004009B00030098000300950031
:100B5000020093000300900003008D0002008B0050
:100B60000300880002008600020084000300810068
:100B700002007F0002007D0002007B00020079007D
:100B8000020077000100760002007400020072008B
:100B90000100710002006F0002006D0001006C0096
:100BA00002006A000100690002006700010066009F
:100BB00001006500010064000200620001006100A4
:100BC0000100600001005F0002005D0001005C00A8
:100BD00001005B0001005A000100590001005800AB
:100BE00001005700010056000100550001005400AB
:100BF00001005300000053000100520001005100A9
:100C00000100500001004F0001004E0000004E00A6
:100C100001004D0001004C0001004B0000004B00A2
:100C200001004A000100490001004800000048009E
:100C30000100470001004600000046000100450099
:100C40000000450001004400010043000000430093
:100C5000010042000000420001004100000041008C
:100C60000100400001003F0000003F0001003E0085
:100C700000003E0001003D0000003D0001003C007E
:100C800000003C0000003C0001003B0000003B0075
:100C900001003A0000003A0001003900000039006C
:100CA0000100380000003800000038000100370063
:100CB000000037000100360000003600000036005A
:100CC000010035000000350000003500010034004F
:100CD0000000340000003400010033000000330045
:100CE000000033000100320000003200000032003A
:100CF000010031000000310000003100010030002F
:100D0000000030000000300001002F0000002F0024
:100D100000002F0000002F0001002E0000002E0018
:100D200000002E0001002D0000002D0000002D000D
:100D300000002D0001002C0000002C0000002C0001
:100D400000002C0001002B0000002B0000002B00F5
:100D500000002B0001002A0000002A0000002A00E9
:100D600000002A00010029000000290000002900DD
:100D700000002900000029000100280000002800D0
:100D800000002800000028000000280001002700C3
:100D900000002700000027000000270000002700B7
:100DA00001002600000026000000260000002600AA
:100DB000000026000100250000002500000025009D
:100DC000000025000000250000002500010024008F
:100DD0000000240000002400000024000000240083
:100DE0000100230000002300000023000000230076
:100DF0000000230000002300000023000100220067
:100E0000000022000000220000002200000022005A
:100E1000000022000100210000002100000021004C
:100E2000000021000000210000002100000021003E
:100E30000100200000002000000020000000200031
:100E40000000200000002000000020000000200022
:100E500001001F0000001F0000001F0000001F0015
:100E600000001F0000001F0000001F0001001E0006
:100E700000001E0000001E0000001E00000024F400
:100E8000D43050C38E20C2A24017828B7011127AC8
:100E9000910D816CD90AA861E108C75866076151B4
:100EA00043061E4B5D05C145A7041A411104093DC7
:100EB0009803713931034036DB0265339102D43037
:100EC0005402802E1D02632CEE01752AC501B02844
:100ED000A001102781018F2564012B244B01E02202
:100EE0003401AC211F018D200D01801FFC00841EE8
:100EF000ED00971DDF00B81CD200E61BC600201BCA
:100F0000BC00641AB200B219A8000A19A0006A183D
:100F10009900D117910040178B00B5168400311647
:100F20007E00B31579003A157300C7146F0058148A
:100F30006A00EE1366008813630025135E00C71273
:100F40005B006C12570015125400C1115100701152
:100F50004F0021114B00D61049008D10470046105C
:100F6000440002104200C00F4000800F3E00420FBC
:100F70003C00060F3B00CB0E3800930E37005C0E92
:100F80003500270E3400F30D3200C10D3100900DF5
:100F90003000600D2E00320D2D00050D2C00D90CF7
:100FA0002B00AE0C2900850C29005C0C2700350CA9
:100FB00027000E0C2600E80B2400C40B2400A00B15
:100FC00023007D0B23005A0B2100390B2100180B45
:100FD0002000F80A1F00D90A1E00BB0A1E009D0A45
:100FE0001D00800A1D00630A1C00470A1B002C0A12
:100FF0001B00110A1A00F7091A00DD091900C409BB
:101000001900AB091900920917007B091800630940
:1010100017004C09160036091600200916000A09A7
:101020001500F5081500E0081400CC081400B808F5
:101030001400A4081400900813007D0812006B0827
:101040001300580812004608120034081100230843
:1010500011001208110001081100F0071000E0074C
:101060001000D0071000C0071000B0070F00A10744
:10107000100091070E0083070F0074070F0065072B
:101080000E0057070E0049070E003B070D002E0704
:101090000E0020070D0013070D0006070D00F906CE
:1010A0000C00ED060D00E0060C00D4060C00C8068E
:1010B0000C00BC060C00B0060C00A4060B00990640
:1010C0000C008D060B0082060B0077060B006C06E9
:1010D0000B0061060A0057060B004C060A00420688
:1010E0000A0038060A002E060A0024060A001A061C
:1010F0000A001006090007060A00FD050900F405AC
:101100000900EB050900E2050900D9050900D00531
:101110000900C7050900BE050900B5050800AD05B1
:101120000800A50509009C050800940508008C0529
:101130000800840508007C050800740508006C059B
:101140000700650508005D050700560508004E0507
:10115000070047050700400508003805070031056E
:1011600007002A050700230507001C0506001605D1
:1011700007000F0507000805060002050700FB042D
:101180000600F5040700EE040600E8040600E20489
:101190000700DB040600D5040600CF040600C904DE
:1011A0000600C3040600BD040600B7040600B1042F
:1011B0000500AC040600A6040600A00405009B047C
:1011C000060095040500900406008A0405008504C5
:1011D0000500800406007A0405007504050070040B
:1011E00005006B04050066040500610405005C044D
:1011F000050057040500520405004D04050048048D
:101200000500430405003E0404003A0405003504CB
:101210000500300404002C04050027040400230406
:1012200005001E0404001A0404001604050011043D
:1012300004000D0404000904050004040400000473
:101240000400FC030400F8030400F4030400F003AA
:101250000400EC030400E8030400E4030400E003DA
:101260000400DC030400D8030400D4030400D0030A
:101270000400CC030400C8030300C5030300656336
:10128000686F3A00205A3A0020593A0020583A0034
:10129000656E6473746F7073206869743A200045DA
:1012A00072726F723A003A20457874727564657292
:1012B000207377697463686564206F66662E204DBD
:1012C000415854454D502074726967676572656472
:1012D0002021003A20457874727564657220737716
:1012E000697463686564206F66662E204D494E54AC
:1012F000454D5020747269676765726564202100EE
:1013000054656D706572617475726520686561748D
:10131000656420626564207377697463686564201E
:101320006F66662E204D415854454D5020747269A9
:1013300067676572656420212100202D20496E7643
:10134000616C6964206578747275646572206E756D
:101350006D6265722021000000000018070100A8DE
:1013600007140030082800B8083C0038095000C0B5
:10137000096400480A7800C80A8C00480BA000C81D
:101380000BB400480CC800C80CDC00400DF000C0D5
:101390000D0401380E1801B00E2C01280F4001A0D9
:1013A0000F54011810680188107C01001190013061
:1013B00013F401481558024017BC0228192003F005
:1013C0001A8403A81CE803401E4C045049442041E1
:1013D00075746F74756E652066696E69736865648F
:1013E000212050757420746865204B702C204B6947
:1013F00020616E64204B6420636F6E7374616E7441
:101400007320696E746F20436F6E666967757261D1
:1014100074696F6E2E6800504944204175746F7472
:10142000756E65206661696C6564212074696D65FF
:101430006F75740020403A006F6B20543A006F6B58
:1014400020423A00504944204175746F74756E65AE
:10145000206661696C6564212054656D70657261F8
:101460007475726520746F6F206869676800204B1F
:10147000643A2000204B693A2000204B703A20004B
:1014800020436C61736963205049442000205475E7
:101490003A2000204B753A2000206D61783A2000F8
:1014A000206D696E3A200020643A20002062696154
:1014B000733A20004D383420582059205A204500D6
:1014C0006563686F3A0043616E6E6F7420656E7479
:1014D0006572207375626469723A20004D3234007F
:1014E0004D3233202573006175746F25692E6700B6
:1014F0004572726F723A006572726F72207772690C
:1015000074696E6720746F2066696C650043617250
:1015100064206572726F723A004E6F7420534420DB
:101520007072696E74696E67002F00534420707288
:10153000696E74696E67206279746520002E0044BC
:10154000656C6574696F6E206661696C65642C20DA
:1015500046696C653A200046696C652064656C6577
:101560007465643A002E006F70656E206661696C68
:1015700065642C2046696C653A200057726974696D
:101580006E6720746F2066696C653A20002E006FCC
:1015900070656E206661696C65642C2046696C65B7
:1015A0003A20002E006F70656E206661696C65647C
:1015B0002C2046696C653A200046696C652073658D
:1015C0006C6563746564002053697A653A2000464F
:1015D000696C65206F70656E65643A20002E006F3F
:1015E00070656E206661696C65642C2046696C6567
:1015F0003A200053442063617264206F6B006F7067
:10160000656E526F6F74206661696C656400766FF9
:101610006C756D652E696E6974206661696C6564B0
:1016200000534420696E6974206661696C006563CB
:10163000686F3A0048617264636F64656420446552
:101640006661756C742053657474696E6773204CA1
:101650006F6164656400563031300053746F726599
:10166000642073657474696E67732072657472693F
:1016700065766564002044002049002020204D3319
:1016800030312050005049442073657474696E678E
:10169000733A00205A0020590020204D3230362065
:1016A0005800486F6D65206F666673657420286DFD
:1016B0006D293A00204500205A00205800204200A1
:1016C00020540020204D3230352053004164766193
:1016D0006E636564207661726961626C65733A203D
:1016E000533D4D696E20666565647261746520289E
:1016F0006D6D2F73292C20543D4D696E20747261DD
:1017000076656C20666565647261746520286D6D10
:101710002F73292C20423D6D696E696D756D2073A4
:1017200065676D656E742074696D6520286D732919
:101730002C20583D6D6178696D756D205859206A6F
:1017400065726B20286D6D2F73292C20205A3D6DFA
:101750006178696D756D205A206A65726B20286DFD
:101760006D2F73292C2020453D6D6178696D756D55
:101770002045206A65726B20286D6D2F732900202B
:10178000540020204D323034205300416363656C97
:1017900065726174696F6E3A20533D616363656C75
:1017A00065726174696F6E2C20543D72657472614C
:1017B000637420616363656C65726174696F6E0048
:1017C000204500205A0020590020204D3230312081
:1017D00058004D6178696D756D20416363656C6576
:1017E000726174696F6E20286D6D2F7332293A0013
:1017F000204500205A0020590020204D323033204F
:1018000058004D6178696D756D206665656472611B
:1018100074657320286D6D2F73293A0020450020D0
:101820005A0020590020204D393220580053746549
:1018300070732070657220756E69743A0053657418
:1018400074696E67732053746F72656400544553F6
:10185000540D0A000D0A00556E6B6E6F776E206393
:101860006F6D6D616E643A20000D0A003F00566591
:101870007273696F6E3A5F31352E30342E3200024A
:101880004D41494E54454E414E4345004D4154450E
:101890005249414C005052494E54005072696E7486
:1018A000696E672077697468205553422E2E2E008A
:1018B000756C74696D616B65722E636F6D2F7375D6
:1018C00070706F727400476F20746F3A0058206F09
:1018D0007220592073776974636820737475636B21
:1018E0000058206F722059207377697463682062F2
:1018F000726F6B656E005A2073776974636820732A
:101900007475636B005A2073776974636820627220
:101910006F6B656E005361666574792063697263ED
:1019200075697400486561746572206572726F72C2
:101930000054656D702073656E736F72204245446C
:101940000054656D702073656E736F72004552525E
:101950004F52202D2053544F5050454400801506BF
:10196000060606FEFEFEFEFC00000000000000FC75
:10197000FEFEFEFC0000000EFEFEFEFE0000E0FC8F
:10198000FEFEFCE0E0000000CECECE000000C0C0B5
:10199000C0C0C0C08000000000000080C0C0800047
:1019A00000000000008080C0C0C0C0C0C0C08080F7
:1019B0000000000006FEFEFEFE0000000080C0C029
:1019C000C00000000000008080C0C0C08080800097
:1019D000000000C0C0C0C00080C0C0C0C080000007
:1019E0000000007FFFFFFFFF80000000000080FF7D
:1019F000FFFFFFFF00000000FFFFFFFF000000FFF0
:101A0000FFFFFF0000000000FFFFFF00000081F16A
:101A1000FFFF3F0F3FFFFCF0F0FCFF3F0F3FFFFEDB
:101A2000F880000000C1E1F1F17131010183FFFF95
:101A3000FFFC000000FFFFFFFF000C3EFFFFF7C3AD
:101A400001000000FCFEFF8703113131333F3F3FAF
:101A50001E000001FFFFFFFF07030101010100005D
:101A600000000000010307070F0F0F0F0F0F0F07F4
:101A700007070F0F06000000070F0F070000000701
:101A80000F0F0700000000000F0F0F0000060F0FE0
:101A9000070100000001070F0F0701000000010708
:101AA0000F0F06000003070F0F0E0E060703070FA8
:101AB0000F07000000070F0F0700000000030F0FC3
:101AC0000F060000000307070F0E0E0E0E0E0E0687
:101AD000000000000F0F0F0F00000000000000804A
:101AE00015090909F90101010103FE0000000000C8
:101AF000FE0301010103FE001FF101010101FFF0DE
:101B00001E030101031E10F000FF313131FF00E020
:101B100020202020202060C080000080C060202085
:101B200060C000000000C040602020202020202055
:101B30006040C080000FF901010101FF0080C0601A
:101B4000202020E000000080C04060202020604075
:101B500040C08000E020202020E060202020206085
:101B6000C0000000FF80000000007FC0808080C0B7
:101B70007F0000000000FF0000FF00000000FF01E8
:101B8000FF00000000FF010100FF000000FF00C394
:101B90007A0E0000C070C000030E0E0300C070C0BB
:101BA0000001077CC000E3321A0A0A8ACAFAC67C1E
:101BB00000000003FE00FF00000000FF73C10000F2
:101BC000083CE68300FE03010078FCEE4A4E4C40E0
:101BD0004040613F03FE00000000F80C06020202D4
:101BE000030000000003060C08181010101010105D
:101BF000101808181010190F000F181010180F00E7
:101C00000F181010180F0000001F1010101F0F19D0
:101C10001010180E0300030E181010180E03000306
:101C20000E181010190F070C181010111119080CAC
:101C3000181010180F000F181010180F0001071CB3
:101C4000101010190F01070C0818101111111111A3
:101C500011190F00001F101010101F0000000000CD
:101C6000002F400000000000000000000000008085
:101C70008080C0E0FEFF191E989898181818181850
:101C8000189E9F991E38F0E0000000000000000040
:101C900000000000000000000000003CFEFFFF9973
:101CA000F1E1C3FFFF000063636360606060606038
:101CB0006363630000FFFF7C380000000000000049
:101CC0000000000080C060B0D8D81CFCFF3F0F8F20
:101CD000CFC7C7C7C6C6C6C6C6C6C6C6C6C6C6C698
:101CE000C6C6C6C6C7C7C4CC0C1CF8F870C0000076
:101CF000000EFFF92A2B2B2828FCFFFF0000FFFF16
:101D0000FFFFFFFFFFBFB717B5BDB500B5B5F717AC
:101D1000FFBFBFFFFFFFFF0000FFFFFCFF0700C08A
:101D2000F0FFFFFDDD1D19193FFFFF0000FFFFFF62
:101D3000FFFFFFFFFBF1FBFBEAEEC0EEEAFAF0FA71
:101D4000FAFFFFFFFFFF0000FFFF0F1FF8E0000397
:101D5000070F0F1B1819FBFEFFFFF0E0C0C1E1F1F8
:101D6000F1F1F1F1F1F1F1F1F1F1F9F9F9F9F9F933
:101D7000797979F1F010181F0706030300000000BD
:101D800000000000F8FFEFDFBF7FFFFFFF4041438F
:101D9000437F212020217FFFFFFF3FB091D1DFD083
:101DA00050581F1FF0F0000000000000000000006D
:101DB000000003070F1E3D7B77EED1DEDECF4B4BDD
:101DC0006969686868603F3F3737373534301010CD
:101DD00018181A1B0F060000000000100FFC0E0F51
:101DE000CFCFCFCECCCCCCCCCCCCDCC0C007707E9F
:101DF0007F7F7F7F7F7F7F7F7F7F7F0F017120FFCE
:101E0000FFFFFFFFFFFFFFFFFFFCE00000000000FF
:101E10000000000000E0FCFFFFFFFFFFFFFFFFFFEF
:101E2000FF000000000000000000000000000000B3
:101E30000000000000000000000000FFFFFFFFFFA7
:101E4000FFFF000000000000000000000000000094
:101E50000000000000000000000000000000000082
:101E60000000000000000000000000000000000072
:101E7000FFFFFFFFFFFFFF7FFFFFFFFFFFF8800077
:101E800000000080F0FFFFFFFFFF3FFFFFFFFFFFAD
:101E9000FFFF00000030F8F8FCFC7E7E7E3E3E3EF8
:101EA0003E7E7EFEFEFCFCF8E0800000FFFFFFFFB0
:101EB000FFFFFF000080C0E0F0F8FCFEFE7E3E1E4B
:101EC0000E06C0E0F0F8FCFCFE7E3E3E3E3E3E7E4E
:101ED000FEFCFCF8F0C0800000FEFEFEFEFEFEFEF2
:101EE000FEFFFFFFFFFFFFFF00031FFFFFFFFFFFDE
:101EF000FCE0E0FCFFFFFFFFFF1F0100FFFFFFFF13
:101F0000FFFFFF0000C0E0F0F0F8F8FC7C7C3C3CF8
:101F10003E1E1E1EFFFFFFFFFFFFFF0000FFFFFF33
:101F2000FFFFFFFFFEFFFFFFFFFFFFFFF1C080008D
:101F30000000FFFFFFFFFFFFFF3C3C3C3C3C3C3C04
:101F40003C3C3F3F3F3F3F3F00000000000000009F
:101F50000000FFFFFFFFFFFFFF00000000073FFF43
:101F6000FFFFFFFFFFFFFF3F0700000000FFFFFF35
:101F7000FFFFFFFF00003F7FFFFFFFFFFCFCF8F8C3
:101F8000F87C7C3C3EFFFFFFFFFFFFFF0000FFFFF0
:101F9000FFFFFFFFFF0301000003071F7FFFFFFF9D
:101FA000FEFCF0E38F1F3F3F7F7FFEFCF8F8F0F070
:101FB000F0F8F8FCFC7E7E3C300000FEFEFEFEFEEB
:101FC000FEFEFE43414E43454C00207365630020F6
:101FD0006D696E0020686F75720020686F7572738E
:101FE00000000000000000005F0000000700070084
:101FF000147F147F14242A7F2A1223130864623664
:10200000495522500005030000001C2241000041F8
:10201000221C00082A1C2A0808083E080800503024
:10202000000008080808080060600000201008048C
:10203000023E5149453E00427F40004261514946BF
:102040002141454B311814127F1027454545393C35
:102050004A4949300171090503364949493606495B
:1020600049291E00363600000056360000000814CC
:1020700022411414141414412214080002015109BD
:1020800006324979413E7E1111117E7F4949493618
:102090003E414141227F4141221C7F494949417FC4
:1020A000090901013E414151327F0808087F004182
:1020B0007F41002040413F017F081422417F404082
:1020C00040407F0204027F7F0408107F3E4141416F
:1020D0003E7F090909063E4151215E7F09192946C3
:1020E000464949493101017F01013F4040403F1FBE
:1020F0002040201F7F2018207F63140814630304EE
:10210000780403615149454300007F4141020408BE
:10211000102041417F000004020102044040404081
:1021200040000102040020545454787F484444384D
:102130003844444420384444487F385454541808A0
:102140007E090102081454543C7F080404780044BA
:102150007D40002040443D00007F10284400417F26
:1021600040007C041804787C080404783844444413
:10217000387C14141408081414187C7C080404080F
:102180004854545420043F4440203C4040207C1C90
:102190002040201C3C4030403C44281028440C5037
:1021A00050503C4464544C44000836410000007FC9
:1021B0000000004136080008082A1C08081C2A08EC
:1021C000086275696C64706C6174652E006F6620BE
:1021D00061646A757374696E6720796F75720074D3
:1021E00068726F756768207468652070726F6365C8
:1021F000737300492077696C6C206775696465208A
:10220000796F750043414E43454C00434F4E54494E
:102210004E554500473120462569205A25692058EA
:1022200025692059256900473238205A3020583016
:102230002059300066726F6D207468652062756980
:102240006C64706C6174652E0061206D696C6C69E2
:102250006D65746572206177617900756E74696C63
:1022600020746865206E6F7A7A6C652069730052FD
:102270006F746174652074686520627574746F6E24
:1022800000342F323100434F4E54494E55450043E0
:102290004F4E54494E554500473120462569205A36
:1022A0003000473120462569205825692059256985
:1022B00000473120462569205A350066726F6D202F
:1022C000746865206275696C64706C6174652E0059
:1022D00069732061206D696C6C696D65746572202D
:1022E000617761790073637265772074696C6C2023
:1022F000746865206E6F7A7A6C65005475726E2012
:102300006C656674206275696C64706C61746500DC
:10231000352F323100434F4E54494E554500473119
:1023200020462569205A300047312046256920582B
:1023300025692059256900473120462569205A35ED
:102340000066726F6D20746865206275696C6470D8
:102350006C6174652E0069732061206D696C6C6915
:102360006D6574657220617761790073637265775A
:102370002074696C6C20746865206E6F7A7A6C6565
:10238000005475726E207269676874206275696C9A
:1023900064706C61746500362F323100434F4E54C7
:1023A000494E554500746865206275696C64706CAF
:1023B000617465206C6576656C2E00706170657265
:1023C00020746F2066696E652D74756E65006E6F82
:1023D00077207573652061207368656574206F666A
:1023E0000052657065617420746869732073746548
:1023F000702C2062757400372F323100434F4E54D9
:10240000494E554500473120462569205A3000473E
:102410003120462569205825692059256900473112
:1024200020462569205A35006269742072657369F7
:102430007374616E63652E00756E74696C20796FBC
:1024400075206665656C2061006275696C64706CEE
:1024500061746520616E64206E6F7A7A6C650053DA
:102460006C696465206120706170657220626574BA
:102470007765656E00382F323100434F4E54494E18
:10248000554500434F4E54494E55450074686520EC
:102490006C65667420636F726E65722E2E2E00520C
:1024A0006570656174207468697320666F720039A5
:1024B0002F323100434F4E54494E554500746865E4
:1024C00020726967687420636F726E65722E2E2E9B
:1024D00000526570656174207468697320666F725C
:1024E0000031302F323100434F4E54494E55450094
:1024F000444F4E4500746F20696E73657274206D91
:102500006174657269616C2E00746865206E65780F
:102510007420737465702069730074686520627537
:10252000696C64706C617465004E6F7720746861CB
:1025300074207765206C6576656C65640031312F99
:10254000323100434F4E54494E5545004D3834000A
:102550004731204631323030302058313130205927
:102560003130006D6174657269616C206C6F6164FB
:10257000696E67007072696E746865616420686571
:102580006174696E6720666F7200506C6561736577
:1025900020776169742C0031322F32310061626F13
:1025A000766520746865206172726F772E00796F8E
:1025B000757220556C74696D616B6572322C0066A2
:1025C000726F6D207468652072656172206F66009D
:1025D000496E73657274206E6577206D61746572E3
:1025E00069616C0031332F323100434F4E54494EF4
:1025F0005545004C6F6164696E67206D617465724A
:1026000069616C2E2E2E0031342F32310066726FCC
:102610006D206E6F7A7A6C652E2E2E006D6174655A
:102620007269616C206578697473005075736820F5
:10263000627574746F6E207768656E0031352F3265
:102640003100434F4E54494E554500556C74696DE9
:10265000616B6572322E00696E73657274656420F9
:10266000696E2074686973006D6174657269616C6C
:1026700020796F752068617665004E6578742C202E
:1026800073656C656374207468650031362F323170
:1026900000524541445900206173206D6174657298
:1026A00069616C2C0031372F3231004D4154455255
:1026B00049414C00697320746869732072696768C6
:1026C000743F00596F7520686176652063686F7389
:1026D000656E0031382F3231004E4F00594553009E
:1026E0006974206973207573696E672E006F6620A8
:1026F0006D6174657269616C006B6E6F77732077C2
:10270000686174206B696E64004E6F7720796F7515
:102710007220556C74696D616B6572320031392FAE
:10272000323100434F4E54494E55450053656C6558
:10273000637420746865206D6174657269616C00F2
:102740006D616B652061203344205072696E742185
:102750000049276D207265616479206C6574277368
:102760000032302F32310041524520594F5520520E
:10277000454144593F00746F207072696E7420693E
:10278000742100616E6420707265737320746865D3
:1027900020627574746F6E006F6E207468652053CC
:1027A000442D636172640053656C6563742061201D
:1027B0007072696E742066696C650032312F323137
:1027C000004C45542753205052494E5400526561E5
:1027D00064696E6720636172642E2E2E0032312F81
:1027E000323100796F757220556C74696D616B655B
:1027F00072322E2E2E00746861742063616D652024
:102800007769746800506C6561736520696E7365E3
:1028100072742053442D636172640032312F32315F
:1028200000473238205A3000627574746F6E20741D
:102830006F20636F6E74696E756500556C74696D99
:10284000616B657221205072657373207468650036
:1028500073746172747570206F6620796F75720081
:1028600057656C636F6D6520746F207468652066B2
:102870006972737400312F323100434F4E54494E08
:10288000554500612066697273742072756E2077F9
:10289000697A6172642E0077616C6B20796F7520A4
:1028A0007468726F756768006669727374207374F8
:1028B000617274757020492077696C6C00426563A1
:1028C0006175736520746869732069732074686525
:1028D00000322F323100434F4E54494E5545004788
:1028E0003120462569205A256900473238205A3060
:1028F00000676F696E6720746F20646F2074686171
:1029000074206E6F772E0061646A7573746D656EE6
:1029100074732C20776520617265007765206E6581
:10292000656420746F20646F20736F6D650041666D
:10293000746572207472616E73706F727461746901
:102940006F6E00332F323100434F4E54494E554580
:1029500000473120462569205A25692058256920DD
:10296000592569004732382058302059300043003B
:10297000432F00436C69636B20746F20726574751C
:10298000726E004275696C64706C61746520746568
:102990006D702E3A0052455455524E0041445641F6
:1029A0004E434544004255494C442D7C504C4154C3
:1029B0004500250046616E207370656564004731EF
:1029C0002046256920582569205925690047323855
:1029D000205830205930004731205A3430004732D7
:1029E00038205A3000473238205A300047323820D9
:1029F000583020593000414456414E4345440074FC
:102A00006F2064656661756C743F00526573657410
:102A10002065766572797468696E67004E4F00595B
:102A20004553006D00204D61743A003A00507269C0
:102A30006E74696E673A003A004D616368696E654D
:102A4000206F6E20666F723A0052657475726E0068
:102A500056657273696F6E3A5F31352E30342E329F
:102A6000004A756C20323320323031352031303A13
:102A700032333A31330052657475726E006D410025
:102A800043757272656E742045006D410043757226
:102A900072656E74205A006D410043757272656EE6
:102AA0007420582F59006D6D2F736563004D617848
:102AB000207370656564205A006D6D2F7365630027
:102AC0004D61782073706565642059006D6D2F73BA
:102AD0006563004D61782073706565642058006DF2
:102AE0006D2F73656300582F59204A65726B003053
:102AF000306D6D2F7365635E3200416363656C6595
:102B0000726174696F6E004D4F54494F4E006D41B4
:102B1000006D41006D41006D6D2F736563006D6D3B
:102B20002F736563006D6D2F736563006D6D2F737B
:102B30006563006D6D2F7365635E32003F3F3F003C
:102B400043757272656E7420450043757272656ECE
:102B500074205A0043757272656E7420582F5900A4
:102B60004D6178207370656564205A004D6178204E
:102B700073706565642059004D61782073706565D8
:102B800064205800582F59204A65726B00416363D6
:102B9000656C65726174696F6E003C2052455455D6
:102BA000524E006D6D2F73656300526574726163E0
:102BB00074207370656564006D6D00526574726198
:102BC0006374206C656E67746800524554524143CB
:102BD00054494F4E006D6D2F736563006D6D003F5E
:102BE0003F3F005265747261637420737065656461
:102BF0000052657472616374206C656E677468005E
:102C00003C2052455455524E004300432F00436C24
:102C100069636B20746F2072657475726E00526FF9
:102C20007461746520746F206578747275646500D2
:102C30004E6F7A7A6C652074656D7065726174751B
:102C400072653A004732382058302059300043002E
:102C5000432F00436C69636B20746F207265747539
:102C6000726E004E6F7A7A6C652074656D70657255
:102C700061747572653A0025004272696768746E06
:102C8000657373004C45440025003F3F3F002047DB
:102C90006C6F77207768656E20646F6E6500204FDB
:102CA0006E207768696C65207072696E74696E67F2
:102CB0000020416C77617973204F66660020416C7B
:102CC00077617973204F6E004272696768746E6530
:102CD0007373003C2052455455524E005665727332
:102CE000696F6E3A5F31352E30342E320025004345
:102CF00000432F004300432F0025003F3F3F004685
:102D00006163746F72792072657365740052756EB9
:102D100074696D65207374617473005665727369AC
:102D20006F6E004D6F74696F6E2073657474696E99
:102D300067730052657472616374696F6E207365A6
:102D40007474696E6773005365742066616E2073D6
:102D500070656564004D6F7665206D61746572699C
:102D6000616C00496E73657274206D61746572697F
:102D7000616C005261697365206275696C64706C86
:102D8000617465004C6F776572206275696C647060
:102D90006C61746500486F6D65206865616400480A
:102DA0006561747570206275696C64706C617465BE
:102DB00000486561747570206E6F7A7A6C65004C9E
:102DC00045442073657474696E6773003C205245F6
:102DD0005455524E00435045004350450043504522
:102DE0000055504554004350450041425300504C5B
:102DF00041006D6174657269616C20696E73657202
:102E000074696F6E0048656174696E6720707269DD
:102E10006E746865616420666F720061626F7665CA
:102E200020746865206172726F772E00796F7572F9
:102E3000206D616368696E652C0066726F6D207429
:102E40006865206261636B73696465206F66004921
:102E50006E73657274206E6577206D61746572693A
:102E6000616C0043414E43454C005245414459007A
:102E7000466F7277617264696E67206D6174657206
:102E800069616C00636F6D6573206F757420746881
:102E900065206E6F7A7A6C65005761697420746979
:102EA0006C6C206D6174657269616C0043414E43C6
:102EB000454C005245414459004D41544552494109
:102EC0004C0053656C6563746564206D6174657254
:102ED00069616C3A004F4B00250046616E3A200054
:102EE000430043002500466C6F773A006D6D006625
:102EF0006F72206D6174657269616C2072656D6FAF
:102F000076616C0048656174696E67207072696EE5
:102F1000746865616400526576657273696E6720D6
:102F20006D6174657269616C0052656D6F766520C4
:102F30006D6174657269616C0043414E43454C009C
:102F4000524541445900473120462569205825699A
:102F50002059256900473238205830205930005216
:102F6000455455524E0053455454494E475300431F
:102F700048414E4745004D4154455249414C00643B
:102F800069616D6574657200666C6F770066616E6D
:102F90005F7370656564006265645F74656D70651C
:102FA0007261747572650074656D706572617475B7
:102FB0007265006E616D65005B6D6174657269615B
:102FC0006C5D00466F756E64206F6E206361726485
:102FD0002E004E6F206578706F72742066696C6584
:102FE0000052656164696E6720636172642E2E2EE3
:102FF00000506C6561736520696E7365727420633F
:10300000617264004E6F2053442D434152442100AD
:1030100066726F6D2074686520534420636172642A
:10302000004C6F61646564206D6174657269616CE8
:1030300073004F6B000A0A006469616D6574657204
:103040003D000A00666C6F773D000A0066616E5FA6
:1030500073706565643D000A006265645F74656D48
:1030600070657261747572653D000A0074656D70FB
:10307000657261747572653D000A006E616D653D33
:10308000005B6D6174657269616C5D0A0052656117
:1030900064696E6720636172642E2E2E00506C6529
:1030A00061736520696E7365727420636172640078
:1030B0004E6F2053442D434152442100696E204DF0
:1030C0004154455249414C2E54585400746F207459
:1030D00068652053442063617264005361766564BF
:1030E000206D6174657269616C73004F6B0025001F
:1030F0004D6174657269616C20666C6F77002500A4
:1031000046616E207370656564006D6D004D61747D
:10311000657269616C204469616D65746572004314
:10312000004275696C64706C6174652054656D70E3
:103130002E00430054656D70657261747572650090
:103140004D4154455249414C00505245534554530A
:10315000004E657720707265736574003C2052459F
:103160005455524E00250025006D6D00430043006C
:103170003F3F3F0053746F7265206173207072652A
:1031800073657400466C6F7720250046616E0044BD
:1031900069616D657465720048656174656420627B
:1031A00075696C64706C6174650054656D706572EE
:1031B0006174757265003C2052455455524E004C66
:1031C0006F61647320616C6C206D617465726961FC
:1031D0006C7300536176657320616C6C206D617453
:1031E000657269616C73004D6F64696679207468FB
:1031F000652073657474696E677300250046616E9F
:103200003A2000430043002500466C6F773A006D7A
:103210006D00496D706F72742066726F6D2053443B
:10322000004578706F727420746F205344004375AA
:1032300073746F6D697A65003C2052455455524E47
:1032400000473238205830205930004300432F00C7
:10325000436C69636B20746F2072657475726E00C5
:103260004E6F7A7A6C652074656D706572617475E5
:1032700072653A005344204341524400473120468E
:103280003132303030205835205931300047323813
:10329000003B464C41564F523A556C746947436F58
:1032A0006465003B464C41564F523A556C74694731
:1032B000436F6465004E6F2066696C657320666FAE
:1032C000756E6421004F4B004F4B0052656164697D
:1032D0006E6720636172642E2E2E00506C656173E0
:1032E0006520696E736572742063617264004E6F4D
:1032F0002053442D4341524421003C204241434B42
:10330000003C2052455455524E0066726F6D207439
:10331000686520736C696365722E007365747469E7
:103320006E6720776974682073657474696E6700CE
:103330006F76657272696465206D616368696E6538
:1033400000546869732066696C652077696C6C004D
:1033500043414E43454C00434F4E54494E55450062
:103360004D363031205835205935205A2569204CAA
:103370002569004D38340047323800473238205A2A
:10338000300047323820583020593000473120462D
:1033900025692045300047393220452569004D34E4
:1033A000303100436F64653A0053442D63617264A9
:1033B000210072656164696E67004572726F7220E8
:1033C0007768696C650052455455524E20544F2021
:1033D0004D41494E006F66207072696E74696E6768
:1033E0002061726561005472696564207072696E53
:1033F00074696E67206F7574004552524F523A00DF
:1034000052455455524E20544F204D41494E004391
:10341000004320005072696E74657220636F6F6C98
:10342000696E6720646F776E004241434B20544FB2
:10343000204D454E5500746865207072696E742E7B
:1034400000596F752063616E2072656D6F7665003F
:103450005072696E742066696E69736865640042B3
:1034600041434B20544F204D454E550054696D65E6
:10347000206C6566740054696D65206C6566742007
:10348000756E6B6E6F776E00430043004865617424
:10349000696E67206275696C64706C617465004365
:1034A00000430048656174696E67005072696E740C
:1034B000696E673A0050415553450054554E4500DA
:1034C00054554E45004348414E47457C4D41544577
:1034D0005249414C00524553554D457C5052494E3E
:1034E000540025004272696768746E657373002525
:1034F000004D6174657269616C20666C6F770025A0
:103500000046616E20737065656400250050726925
:103510006E742073706565640054554E45006D6D82
:103520002F736563005265747261637420737065F4
:103530006564006D6D0052657472616374206C6522
:103540006E6774680052455452414354494F4E00CF
:103550006D6D2F736563006D6D003F3F3F005265D9
:10356000747261637420737065656400526574726F
:10357000616374206C656E677468003C205245542A
:1035800055524E0041626F727420746865207072EB
:10359000696E743F004E4F005945530025002500C9
:1035A0002500430043004300430025004C454420D0
:1035B0004272696768746E657373005265747261F4
:1035C0006374696F6E004D6174657269616C206629
:1035D0006C6F770046616E2073706565640042759C
:1035E000696C64706C6174652074656D702E005434
:1035F000656D7065726174757265005370656564A0
:103600000041626F7274003C2052455455524E0086
:10361000507265706172696E6720746F2070726994
:103620006E743A0048656174696E672075702E2E5D
:103630002E0041424F52540054554E45004E6F20CB
:10364000696E666F20617661696C61626C65006DA0
:10365000006D004D6174657269616C3A20005469B7
:103660006D653A20003B4D4154455249414C3A006A
:103670003B54494D453A00466F6C64657200494EB3
:1036800046494E4954594E414ECDCCCC3D0AD723E4
:103690003C17B7D13877CC2B329595E6241FB14F24
:1036A0000A000020410000C84200401C4620BCBE69
:1036B0004CCA1B0E5AAEC59D7400652721525E2769
:1036C00011241FBECFEFD1E2DEBFCDBF00E00CBFA3
:1036D00014E0A0E0B2E0E8E5FEEF01E00BBF02C0BD
:1036E00007900D92AA32B107D9F71BBE1AE1AAE2E0
:1036F000B4E001C01D92AC34B107E1F716E3CEEBA4
:10370000D6E304C02297FE010E94D1FECA3BD10736
:10371000C9F70E949FF90C941FFF0C940000A0E0D1
:10372000B0E0E5E9FBE10C94EEFEEC015B01611514
:10373000710519F0FB0191838083F9908F2D90E042
:103740000E94D5FE892BC9F7FDE2FF1621F4F990FE
:10375000EE24E39405C02BE2F21609F4F990EE246E
:103760008E0101501040C8016EE776E343E050E05F
:103770000E94921E892B01F58E010E5F1F4FC8011A
:1037800061E876E345E050E00E94921E892B19F42F
:103790008E01095F1F4FA114B10419F0F5011183C7
:1037A0000083E0FC04C070E090E080E814C070E0AA
:1037B00090E080E86FEF08C1C80166E876E343E077
:1037C00050E00E94921E892B69F4A114B10429F4DF
:1037D00070E090E080EC6FE7F7C02296F501D183AE
:1037E000C083F6CF8824992440E050E060E070E088
:1037F000EF2DE053EA30A0F5F2E0EF2A8E2D90E0B5
:103800009C0128703070E2FE06C0232B79F50894E5
:10381000811C911C2BC0232B19F00894810891085E
:10382000DB01CA0112E0880F991FAA1FBB1F1A955E
:10383000D1F7480F591F6A1F7B1F440F551F661F82
:10384000771F4E0F511D611D711D483929E952071F
:1038500029E9620729E1720748F084E0E82A06C0F6
:10386000EE3F31F4E3FC39C098E0E92AF990C0CF8B
:10387000E53311F0E53189F529912D3219F4E0E1B4
:10388000EE2A05C02B3219F081E090E003C02991A7
:1038900082E090E0E22FE053EA3018F0C81BD90B29
:1038A0001CC020E030E0FCE020383F075CF4C90198
:1038B000880F991F880F991F280F391F220F331F58
:1038C0002E0F311DE991E053EA3068F3E4FE03C0A6
:1038D000309521953F4F820E931ECE2CDD24E1FEC4
:1038E00007C0A114B10421F02197F501D183C08351
:1038F000CB01BA010E942AFB7B018C01F3E0CF22AD
:10390000DD2423E0C216D10421F417FB109517F92A
:10391000109557016801C801B70120E030E040E090
:1039200050E00E948AFA882309F44AC097FE0DC02D
:103930002DE9E22E26E3F22E90948194910893943F
:10394000C0E2D0E000E010E012C095EBE92E96E373
:10395000F92EF6CFF7012591359145915491C60185
:10396000B5010E946AFD5B016C018C1A9D0A8C16E0
:103970009D0684F7D595C7950F5F1F4F063011053B
:1039800029F08CEF9FEFE80EF91EF1CFC501D601AB
:103990007C018D018C2D880F8D2D881F8F3F51F05C
:1039A000C601B50120E030E040E050E00E948AFA14
:1039B000882331F482E290E090934B1A80934A1A64
:1039C0007E2D9F2D802F612F272F392F482F562F87
:1039D000B901CA01CDB7DEB7ECE00C940AFF2F9213
:1039E0003F925F926F927F928F929F92AF92BF921F
:1039F000CF92DF92EF92FF920F931F93CF93DF93BB
:103A00008C011B01EA016115710519F0FB0191831D
:103A10008083209749F0CE010297839728F020E019
:103A200030E040E050E0F6C0F801A1908F018A2D0F
:103A300090E00E94D5FE892BB9F7FDE2AF1631F474
:103A4000F801A1908F015524539407C0FBE2AF16F3
:103A500019F4F801A1908F015524209719F0C03175
:103A6000D105C1F4F0E3AF1679F4F801808188370D
:103A700011F0883549F4F801A1800E5F1F4FF2E084
:103A80005F2AC0E1D0E006C0209721F480E3A816A9
:103A9000E9F427C0C830D10531F1C930D10524F48B
:103AA000C230D10531F50CC0CA30D10589F0C03122
:103AB000D105F9F4C12CD12CE12CB8E0FB2E28C0A3
:103AC000C12CD12CE12CA0E4FA2E22C0CAE0D0E017
:103AD000FCECCF2EFCECDF2EFCECEF2EFCE0FF2EFE
:103AE00017C0C8E0D0E0C12CD12CE12CE0E1FE2EC3
:103AF0000FC09E01442737FD4095542F60E070E0D1
:103B000080E090E80E947EFEC901DA016C017D012F
:103B100020E030E040E050E060E03E01882477FCA7
:103B20008094982C70EDB72EBA0CE9E0EB1570F488
:103B30008A2D81548A3118F499ECB92E06C08A2D49
:103B400081568A3150F589EAB82EBA0C8B2D90E057
:103B50008C179D0714F56F3FE1F0C216D306E406FB
:103B6000F506B0F0CA01B901A40193010E9440FE1C
:103B70009B01AC012B0D311D411D511D2130F0E089
:103B80003F07F0E04F07F0E85F0710F461E001C085
:103B90006FEFF801A1908F01C5CF2114310481F09E
:103BA000662331F001501040F1011183008308C0F9
:103BB00051FE1AC002501040F1011183008314C05D
:103BC00067FF12C050FC05C02FEF3FEF4FEF5FE7DC
:103BD00004C020E030E040E050E882E290E09093C2
:103BE0004B1A80934A1A16C050FE08C05095409553
:103BF000309521953F4F4F4F5F4F0CC057FF0AC084
:103C000082E290E090934B1A80934A1A2FEF3FEF95
:103C10004FEF5FE7B901CA01DF91CF911F910F917B
:103C2000FF90EF90DF90CF90BF90AF909F908F90DC
:103C30007F906F905F903F902F900895FC018827B0
:103C40009927E89421912032E9F3293010F02E30A1
:103C5000C8F32B3241F02D3239F4689404C00E942D
:103C6000511F820F911D219120532A30C0F31EF461
:103C7000909581959F4F08951F93FC019927882760
:103C8000BC01E89411911032E9F3193010F01E30A4
:103C9000C8F31B3251F01D3249F4689406C00E94EB
:103CA0003C1F610F711D811D911D119110531A3020
:103CB000B0F33EF490958095709561957F4F8F4F4E
:103CC0009F4F1F910895FB01DC010D900020E9F743
:103CD000119705900D920020E1F70895FC010590E1
:103CE000061621F00020D9F7C00108953197CF01C1
:103CF0000895FB01DC018D91059080190110D9F325
:103D0000990B0895FB01DC0105900D920020E1F76D
:103D10000895FC0105900020E9F7809590958E0F9D
:103D20009F1F0895FB01DC014150504088F08D91A8
:103D300081341CF08B350CF4805E659161341CF08D
:103D40006B350CF4605E861B611171F3990B08955D
:103D5000881BFCCFFB01DC014150504030F08D91BD
:103D60000590801919F40020B9F7881B990B089564
:103D7000FB01DC014150504048F005900D920020BD
:103D8000C9F701C01D9241505040E0F70895FB0172
:103D900055915523A9F0BF01DC014D914517411103
:103DA000E1F759F4CD010590002049F04D914015FF
:103DB0004111C9F3FB014111EFCF81E090E0019780
:103DC0000895FB01DC0104C08D910190801921F45C
:103DD00041505040C8F7881B990B0895FB01DC0146
:103DE00002C001900D9241505040D8F70895FB0158
:103DF000DC010D900020E9F7119701900D92002051
:103E0000E1F70895FC018191861721F08823D9F705
:103E1000992708953197CF010895FB01DC010190A6
:103E20000D920020E1F70895FB01DC014150504064
:103E300030F08D910190801919F40020B9F7881B9A
:103E4000990B0895FB01DC014150504048F001906E
:103E50000D920020C9F701C01D9241505040E0F77B
:103E60000895FC0181E090E00190061609F4CF016D
:103E70000020D1F701970895592F482F372F262F6B
:103E8000660F771F881F991F660F771F881F991F5E
:103E9000620F731F841F951F660F771F881F991F5E
:103EA00008957AE0979F902D879F802D910D112482
:103EB0000895AEE0B0E0EFE5FFE10C94F6FE0E8968
:103EC0001F898EE08C831A8309838FEF9FE79E837F
:103ED0008D839E01265E3F4FCE010196688D798DC0
:103EE000A9010E947D1F2F813885020F131FF80141
:103EF00010822E96E4E00C9412FFABE0B0E0E3E811
:103F0000FFE10C94E8FE3C012B015A01FC011782F1
:103F10001682838181FD03C06FEF7FEFC6C19AE0F7
:103F2000892E1E010894211C311CF3012381F2010A
:103F300023FD859123FF81912F01882309F4B2C1CC
:103F4000853239F423FD859123FF81912F0185323C
:103F500029F490E0B3010E947021E7CF982FFF244D
:103F6000EE249924FFE1FF15D0F09B3269F09C32DA
:103F700028F4903259F0933291F40EC09D3249F0FA
:103F8000903369F441E024C052E0F52A84E0F82A35
:103F900028C098E0F92A25C0E0E1FE2A22C0F7FCFB
:103FA00029C0892F80538A3070F4F6FE05C0989C92
:103FB000902C1124980E15C0E89CE02C1124E80EDA
:103FC000F0E2FF2A0EC09E3229F4F6FC6BC140E4F9
:103FD000F42A07C09C3619F450E8F52A02C0983636
:103FE00049F4F20123FD959123FF91912F0199232B
:103FF00009F0B8CF892F8554833018F08052833070
:1040000038F444E050E0A40EB51E5FE359830FC0BE
:10401000933631F0933779F0933509F056C020C0CC
:10402000F5018081898342E050E0A40EB51E610154
:1040300001E010E012C0F501C080D180F6FC03C0A1
:104040006FEF7FEF02C0692D70E042E050E0A40EF8
:10405000B51EC6010E9465218C015FE7F52214C0E0
:10406000F501C080D180F6FC03C06FEF7FEF02C086
:10407000692D70E042E050E0A40EB51EC6010E941A
:104080005A218C0150E8F52AF3FE07C01AC080E2DD
:1040900090E0B3010E947021EA948E2D90E0081701
:1040A0001907A8F30EC0F601F7FC8591F7FE819180
:1040B0006F0190E0B3010E947021E110EA94015079
:1040C00010400115110579F7EAC0943611F09936C0
:1040D00069F5F7FE08C0F5012081318142815381E5
:1040E00084E090E00AC0F501808191819C01442721
:1040F00037FD4095542F82E090E0A80EB91E9FE650
:10410000F92257FF09C050954095309521953F4FB2
:104110004F4F5F4FE0E8FE2ACA01B901A1012AE032
:1041200030E00E949C21D82ED21840C0953729F447
:104130001F2D1F7E2AE030E01DC01F2D197F9F36E6
:1041400061F0903720F4983509F0ACC00FC090377B
:1041500039F0983709F0A6C004C028E030E00AC062
:10416000106114FD146020E130E004C014FD1660FD
:1041700020E132E017FF08C0F50160817181828182
:10418000938144E050E008C0F50180819181BC0139
:1041900080E090E042E050E0A40EB51EA1010E9434
:1041A0009C21D82ED2188FE7F82EF122F6FE0BC0F4
:1041B0005EEFF522D91438F4F4FE07C0F2FC05C016
:1041C0008FEEF82202C01D2D01C0192DF4FE0DC086
:1041D000FE01ED0DF11D8081803319F499EEF92275
:1041E00008C01F5FF2FE05C003C08F2D867809F05E
:1041F0001F5F0F2DF3FC14C0F0FE0FC01E1510F052
:104200009D2C0BC09D2C9E0C911A1E2D06C080E289
:1042100090E0B3010E9470211F5F1E15C0F304C01F
:104220001E1510F4E11A01C0EE2404FF0FC080E354
:1042300090E0B3010E94702102FF1DC001FD03C088
:1042400088E790E00EC088E590E00BC0802F86786C
:1042500091F001FF02C08BE201C080E2F7FC8DE229
:1042600090E0B3010E94702106C080E390E0B301AA
:104270000E9470219A94D914C0F3DA94F101ED0DE3
:10428000F11D808190E0B3010E947021DD20A9F72B
:1042900006C080E290E0B3010E947021EA94EE2013
:1042A000C1F743CEF30166817781CB012B96E2E122
:1042B0000C9404FFFC010590615070400110D8F788
:1042C000809590958E0F9F1F0895FC01615070405E
:1042D00001900110D8F7809590958E0F9F1F08953B
:1042E0000F931F93CF93DF938C01EB018B8181FFA1
:1042F0001BC082FF0DC02E813F818C819D812817BC
:10430000390764F4E881F9810193F983E88306C0F1
:10431000E885F985802F1995892B31F48E819F814D
:1043200001969F838E8302C00FEF1FEFC801DF91BC
:10433000CF911F910F910895FA01AA27283051F1CA
:10434000203181F1E8946F936E7F6E5F7F4F8F4FC6
:104350009F4FAF4FB1E03ED0B4E03CD0670F781F25
:10436000891F9A1FA11D680F791F8A1F911DA11D0A
:104370006A0F711D811D911DA11D20D009F4689443
:104380003F912AE0269F11243019305D3193DEF6EB
:10439000CF010895462F4770405D4193B3E00FD0A1
:1043A000C9F7F6CF462F4F70405D4A3318F0495D8C
:1043B00031FD4052419302D0A9F7EACFB4E0A6956F
:1043C0009795879577956795BA95C9F70097610591
:1043D000710508959B01AC010A2E069457954795E7
:1043E00037952795BA95C9F7620F731F841F951FDC
:1043F000A01D08951F920F920FB60F9211242F93B4
:104400003F938F939F93AF93BF9380912E0490918E
:104410002F04A0913004B091310430913204019600
:10442000A11DB11D232F2D5F2D3720F02D57019693
:10443000A11DB11D2093320480932E0490932F046C
:10444000A0933004B093310480912A0490912B04FE
:10445000A0912C04B0912D040196A11DB11D809353
:104460002A0490932B04A0932C04B0932D04BF91A5
:10447000AF919F918F913F912F910F900FBE0F9011
:104480001F9018958FB7F89420912E0430912F0427
:1044900040913004509131048FBFB901CA01089591
:1044A000789484B5826084BD84B5816084BD85B50F
:1044B000826085BD85B5816085BDEEE6F0E08081D6
:1044C00081608083E1E8F0E01082808182608083F7
:1044D000808181608083E0E8F0E08081816080837A
:1044E000E1EBF0E0808184608083E0EBF0E08081AC
:1044F00081608083E1E9F0E0808182608083808157
:1045000081608083E0E9F0E0808181608083E1EA7E
:10451000F0E0808182608083808181608083E0EA36
:10452000F0E0808181608083E1E2F1E0808182605F
:104530008083808181608083E0E2F1E0808181601E
:104540008083EAE7F0E080818460808380818260FC
:1045500080838081816080838081806880831092E5
:10456000C10008951F93CF93DF93182FEB0161E0F3
:104570000E949223209709F4CAC0CF3FD10509F4C5
:10458000C9C0E12FF0E0E95AFD4F8491893009F468
:1045900066C08A30B0F48430F1F1853040F4823066
:1045A00059F1833070F5813009F0AEC020C08730FA
:1045B00009F443C0883008F048C0863009F0A4C030
:1045C00034C08D3009F478C08E3038F48B3009F463
:1045D0005AC08C3008F066C04CC0803109F480C0ED
:1045E000813109F487C08F3009F08EC06FC084B567
:1045F000806884BDC7BD92C084B5806284BDC8BDDB
:104600008DC080918000806880938000D093890065
:10461000C093880083C08091800080628093800076
:10462000D0938B00C0938A0079C08091B0008068DD
:104630008093B000C093B30071C08091B0008062DD
:104640008093B000C093B40069C0809190008068EE
:1046500080939000D0939900C09398005FC08091A0
:104660009000806280939000D0939B00C0939A004A
:1046700055C080919000886080939000D0939D00F9
:10468000C0939C004BC08091A00080688093A000E4
:104690008091A0008F7B8093A000D093A900C0934D
:1046A000A8003CC08091A00080628093A000D093BD
:1046B000AB00C093AA0032C08091A00088608093B4
:1046C000A000D093AD00C093AC0028C08091200121
:1046D000806880932001D0932901C09328011EC0D7
:1046E00080912001806280932001D0932B01C093A0
:1046F0002A0114C080912001886080932001D0930A
:104700002D01C0932C010AC0C038D1051CF4812FA3
:1047100060E002C0812F61E00E944524DF91CF91CB
:104720001F910895CF93DF93482F50E0CA018F5E09
:104730009D4FFC01349145535E4FFA0184918823CB
:1047400069F190E0880F991FFC01E358FE4FA59195
:10475000B491FC01E956FE4FC591D491662351F402
:104760002FB7F8948C91932F909589238C938881FF
:1047700089230BC0623061F42FB7F8948C91932F8A
:10478000909589238C938881832B88832FBF06C0C3
:104790009FB7F8948C91832B8C939FBFDF91CF911F
:1047A0000895893009F449C08A30A0F4843051F169
:1047B000853040F4823079F1833000F5813009F0A2
:1047C00063C026C0873079F1883098F5863009F0CB
:1047D0005BC025C08D3009F442C08E3028F48B3088
:1047E000B1F18C30C0F52DC0803109F442C0813167
:1047F00009F445C08F3009F047C037C08091800070
:104800008F7703C0809180008F7D80938000089512
:1048100084B58F7702C084B58F7D84BD0895809163
:10482000B0008F7703C08091B0008F7D8093B0007F
:104830000895809190008F7707C0809190008F7DC0
:1048400003C080919000877F8093900008958091AD
:10485000A0008F7707C08091A0008F7D03C080915A
:10486000A000877F8093A0000895809120018F771A
:1048700003C0809120018F7D809320010895809155
:104880002001877F809320010895FF920F931F934B
:10489000F62E482F50E0CA01895A9D4FFC01249101
:1048A000CA018F5E9D4FFC01149145535E4FFA0182
:1048B00004910023C9F0222319F0822F0E94D123F2
:1048C000E02FF0E0EE0FFF1FE956FE4FA591B491E7
:1048D0009FB7F894FF2021F48C911095812302C09A
:1048E0008C91812B8C939FBF1F910F91FF90089506
:1048F0001F920F920FB60F920BB60F9211242F93A7
:104900003F934F935F936F937F938F939F93AF9357
:10491000BF93EF93FF938091370490913804892BD4
:1049200029F0E0913704F09138041995FF91EF9147
:10493000BF91AF919F918F917F916F915F914F91B7
:104940003F912F910F900BBE0F900FBE0F901F90B5
:1049500018951F920F920FB60F920BB60F9211245B
:104960002F933F934F935F936F937F938F939F9377
:10497000AF93BF93EF93FF938091390490913A04E2
:10498000892B29F0E0913904F0913A041995FF91AF
:10499000EF91BF91AF919F918F917F916F915F91B7
:1049A0004F913F912F910F900BBE0F900FBE0F9024
:1049B0001F9018951F920F920FB60F920BB60F9281
:1049C00011242F933F934F935F936F937F938F9314
:1049D0009F93AF93BF93EF93FF9380913B0490918C
:1049E0003C04892B29F0E0913B04F0913C0419959B
:1049F000FF91EF91BF91AF919F918F917F916F91B7
:104A00005F914F913F912F910F900BBE0F900FBE72
:104A10000F901F9018951F920F920FB60F920BB622
:104A20000F9211242F933F934F935F936F937F9334
:104A30008F939F93AF93BF93EF93FF9380913D0428
:104A400090913E04892B29F0E0913D04F0913E04C1
:104A50001995FF91EF91BF91AF919F918F917F91A8
:104A60006F915F914F913F912F910F900BBE0F90DF
:104A70000FBE0F901F9018951F920F920FB60F92B6
:104A80000BB60F9211242F933F934F935F936F9325
:104A90007F938F939F93AF93BF93EF93FF938091F7
:104AA000330490913404892B29F0E0913304F09180
:104AB00034041995FF91EF91BF91AF919F918F9120
:104AC0007F916F915F914F913F912F910F900BBE0E
:104AD0000F900FBE0F901F9018951F920F920FB658
:104AE0000F920BB60F9211242F933F934F935F9326
:104AF0006F937F938F939F93AF93BF93EF93FF93A6
:104B00008091350490913604892B29F0E091350489
:104B1000F09136041995FF91EF91BF91AF919F915C
:104B20008F917F916F915F914F913F912F910F9056
:104B30000BBE0F900FBE0F901F9018951F920F92F3
:104B40000FB60F920BB60F9211242F933F934F93F2
:104B50005F936F937F938F939F93AF93BF93EF93E5
:104B6000FF9380913F0490914004892B29F0E091BC
:104B70003F04F09140041995FF91EF91BF91AF91DF
:104B80009F918F917F916F915F914F913F912F9165
:104B90000F900BBE0F900FBE0F901F9018951F9295
:104BA0000F920FB60F920BB60F9211242F933F93D3
:104BB0004F935F936F937F938F939F93AF93BF9325
:104BC000EF93FF938091410490914204892B29F047
:104BD000E0914104F09142041995FF91EF91BF914A
:104BE000AF919F918F917F916F915F914F913F9185
:104BF0002F910F900BBE0F900FBE0F901F90189526
:104C0000CF92DF92EF92FF920F931F93CF93DF9398
:104C10007C016B018A01C0E0D0E00FC0D6016D912C
:104C20006D01D701ED91FC910190F081E02DC7015C
:104C30001995C80FD91F015010400115110571F7C2
:104C4000CE01DF91CF911F910F91FF90EF90DF90F8
:104C5000CF9008958091890C90918A0C18161906AE
:104C60009CF480916F0990917009019668E070E062
:104C70000E946BFE9093840C8093830C81E090E003
:104C800090938A0C8093890C089520E08091890C80
:104C900090918A0C181619060CF421E0822F0895C1
:104CA0008091890C0895EF92FF920F931F93CF93F9
:104CB000DF93EC01E0906206F090630600916406D9
:104CC00010916506688179818A819B81A80197018D
:104CD0000E948AFA88233CF4E882F9820A831B83C3
:104CE00081E080932C09E0906606F09067060091C1
:104CF0006806109169066C817D818E819F81A80173
:104D000097010E948AFA88233CF4EC82FD820E838C
:104D10001F8381E080932C09E0906A06F0906B0677
:104D200000916C0610916D06688579858A859B8552
:104D3000A80197010E948AFA88233CF4E886F98644
:104D40000A871B8781E080932C09E0905C03F09038
:104D50005D0300915E0310915F03688179818A8110
:104D60009B81A80197010E9498FC18163CF4E882E8
:104D7000F9820A831B8381E080932C09E090600311
:104D8000F090610300916203109163036C817D8157
:104D90008E819F81A80197010E9498FC18163CF40F
:104DA000EC82FD820E831F8381E080932C09E090CA
:104DB0006403F090650300916603109167036885B2
:104DC00079858A859B85A80197010E9498FC181611
:104DD0003CF4E886F9860A871B8781E080932C09DA
:104DE000DF91CF911F910F91FF90EF9008958091E7
:104DF0003C09811181E0089580913C0908950F9349
:104E00001F93CF93DF938130910591F46F5F7F4FB4
:104E100009F04FC083E494E00E94659AE5EBF6E068
:104E20001082EA5BFF4F89E0E137F807C9F741C01C
:104E3000892B09F03EC06F5F7F4FD9F583EF93E078
:104E40009093100680930F0680911606882321F018
:104E500083E196E00E942758CBECD5E003EF13E006
:104E600005C06F9784E0C539D80751F019830883CE
:104E70008F818823B1F3CE0104960E942758F1CF89
:104E800083EF93E0998388838F81882321F0CE017B
:104E900004960E94275883EF93E0909375048093C3
:104EA000740480917B04882321F088E794E00E94B9
:104EB0002758DF91CF911F910F91089580E090E0E6
:104EC0006FEF7FEF0E94FF26089581E090E06FEF83
:104ED0007FEF0E94FF2608951F93182F0E9476846B
:104EE00080913C09882309F035C010933C098091DA
:104EF0003E0990913F09A0914009B09141098093EA
:104F0000420990934309A0934409B0934509E3EA09
:104F1000F2E0949108C08091C00085FFFCCF90938F
:104F2000C600319694919923B1F7EAEAF2E09491A0
:104F300008C08091C00085FFFCCF9093C6003196D9
:104F400094919923B1F78091C00085FFFCCF8AE04E
:104F50008093C6001F910895F8940E947684159A54
:104F6000469A439A409A88E160E00E949223E3EADD
:104F7000F2E0949108C08091C00085FFFCCF90932F
:104F8000C600319694919923B1F7E0E2F3E0949151
:104F900008C08091C00085FFFCCF9093C600319679
:104FA00094919923B1F78091C00085FFFCCF8AE0EE
:104FB0008093C600FFCF0E944222609346097093FF
:104FC00047098093480990934909E0916F09F0914E
:104FD0007009EF58F64F80818823A9F4EFE3F3E0DE
:104FE000949108C08091C00085FFFCCF9093C600CB
:104FF000319694919923B1F78091C00085FFFCCF41
:105000008AE08093C6000895EF92FF920F931F935A
:105010000E944222E0904A09F0904B0900914C090D
:1050200010914D0920914609309147094091480956
:1050300050914909621B730B840B950BE616F7061A
:105040000807190738F4E114F1040105110511F0FE
:105050000E94AC278091790390917A03A0917B0301
:10506000B0917C030097A105B105F9F00E9442229E
:1050700020914609309147094091480950914909CA
:10508000621B730B840B950B2091790330917A038B
:1050900040917B0350917C03261737074807590737
:1050A00020F48091651480916614069B03C08AE009
:1050B0000E946C270E947D6B1F910F91FF90EF90D3
:1050C00008956F927F928F929F92AF92BF92CF92EC
:1050D000DF92EF92FF920F931F93F82E60914E098B
:1050E00070914F0980915009909151092091520976
:1050F0003091530940915409509155090E94A5FCE3
:105100003B014C0100D000D00DB71EB70F5F1F4F01
:105110006091580370915903882777FD8095982FE7
:105120000E942CFB20917D0330917E0340917F03F0
:10513000509180030E946AFD20E030E040E752E495
:105140000E9491FA20E030E048EC52E40E9491FA8B
:105150005B016C01F8016082718282829382F48229
:1051600080916E06858386E496E06AE579E04EE4F8
:1051700059E020E001E032E0E32E0E945F6580917B
:105180005A0990915B09A0915C09B0915D098093E7
:10519000460690934706A0934806B093490680912F
:1051A0005E0990915F09A0916009B09161098093B7
:1051B0004A0690934B06A0934C06B0934D068091FF
:1051C000620990916309A0916409B0916509809387
:1051D0004E0690934F06A0935006B09351068091CF
:1051E000660990916709A0916809B0916909809357
:1051F000520690935306A0935406B09355068DB76C
:105200009EB706960FB6F8949EBF0FBE8DBF0E9444
:10521000422260934609709347098093480990930E
:1052200049091F910F91FF90EF90DF90CF90BF90B1
:10523000AF909F908F907F906F900895CF92DF9264
:10524000EF92FF920F931F938AE599E00E945326F5
:105250000E9442226093460970934709809348094F
:1052600090934909609146067091470680914806DF
:105270009091490620915A0930915B0940915C094F
:1052800050915D090E948AFA882309F07AC06091E2
:105290004A0670914B0680914C0690914D062091E4
:1052A0005E0930915F0940916009509161090E9447
:1052B0008AFA882309F065C060917D0370917E03AE
:1052C00080917F039091800320E030E040E752E43A
:1052D0000E9491FA7B018C018AE599E06EE579E004
:1052E00042E659E026E639E0EEE6CE2EE6E0DE2E96
:1052F0000E94AC6E80915A0990915B09A0915C0963
:10530000B0915D098093460690934706A0934806A6
:10531000B093490680915E0990915F09A091600960
:10532000B091610980934A0690934B06A0934C0676
:10533000B0934D068091620990916309A091640930
:10534000B091650980934E0690934F06A093500646
:10535000B09351068091660990916709A091680900
:10536000B09169098093520690935306A093540616
:10537000B09355061F910F91FF90EF90DF90CF9063
:1053800008956091580370915903882777FD80959F
:10539000982F0E942CFB20917D0330917E03409139
:1053A0007F03509180030E946AFD20E030E040E7D7
:1053B00052E40E9491FA20E030E048EC52E488CFB9
:1053C00083E19DE00E941852E2E4F3E0949108C06A
:1053D0008091C00085FFFCCF9093C60031969491D8
:1053E0009923B1F740913E0950913F0960914009DE
:1053F000709141094F5F5F4F6F4F7F4F83E19DE099
:105400002AE030E00E94D9528091C00085FFFCCF95
:105410008AE08093C6000E94DB270895682F2091C0
:105420006F093091700980E690E0AC01249FC001C3
:10543000259F900D349F900D11248158964F70E058
:105440000E94021F9C0190937E0980937D0980E059
:10545000232B09F081E00895FC01949108C080910C
:10546000C00085FFFCCF9093C6003196949199239C
:10547000B1F783E19DE022E030E00E94E953089516
:10548000FC01949108C08091C00085FFFCCF9093EF
:10549000C600319694919923B1F783E19DE02AE00B
:1054A00030E00E94BA5208952F923F924F925F923D
:1054B0006F927F928F929F92AF92BF92CF92DF9224
:1054C000EF92FF920F931F93DF93CF9300D000D002
:1054D000CDB7DEB79E838D838330910508F053C22C
:1054E0002C01440C551C440C551CB6E42B2EB6E084
:1054F0003B2E240C351C80E090E0A0E0B0E0F101F0
:1055000080839183A283B38386E496E06AE476E0A5
:105510004EE456E022E536E00E944669F201E95683
:10552000FA4F65917591859194912D813E81215518
:105530003A4F3A832983F901E4909201265A364F73
:105540003C832B8320E030E040EC5FE30E946AFD67
:105550005B016C01FF24E7FCF0940F2D1F2DC801A7
:10556000B7010E942CFB3B014C01C601B501A4010F
:1055700093010E946AFDAB81BC816D937D938D93F5
:105580009C931397F201E85BFC4F608171818281EB
:10559000938160937D0370937E0380937F03909348
:1055A000800320E030E040E752E40E9491FA7B0162
:1055B0008C018AE599E06EE579E042E659E026E65D
:1055C00039E0AEE6CA2EA6E0DA2E0E94AC6E0E944A
:1055D000897C0E94067B882309F09EC0F3EA4F2E47
:1055E000F2E05F2EED81FE81329709F06FC080E01E
:1055F00090E0A0E0B0E080934E0690934F06A09319
:105600005006B093510686E496E06AE476E04EE4F4
:1056100056E022E536E00E944669EBEAF5E0659146
:105620007591859194919058A40193010E946AFD0F
:1056300020E030E040E251E40E946AFD609362099C
:1056400070936309809364099093650960917D0369
:1056500070917E0380917F039091800320E030E081
:1056600040E752E40E9491FA7B018C018AE599E0BF
:105670006EE579E042E659E026E639E00E94AC6E3C
:105680000E94897CF201949108C08091C00085FF3E
:10569000FCCF9093C600319694919923B1F7E0E640
:1056A000F5E0949108C08091C00085FFFCCF9093F5
:1056B000C600319694919923B1F78091C00085FF7F
:1056C000FCCF8AE08093C60085E023C0F20194916C
:1056D00008C08091C00085FFFCCF9093C600319632
:1056E00094919923B1F7E9E2F5E0949108C0809193
:1056F000C00085FFFCCF9093C6003196949199230A
:10570000B1F78091C00085FFFCCF8AE08093C6008E
:1057100087E00E946C2737C180E090E0A0E0B0E015
:10572000F10180839183A283B38386E496E06AE4E7
:1057300076E04EE456E022E536E00E94466923EA30
:1057400035E0420E531EF201659175918591949159
:105750009058A40193010E946AFDAB81BC816D93B6
:105760007D938D939C93139760917D0370917E033D
:1057700080917F039091800320E030E040E752E485
:105780000E9491FA7B018C018AE599E06EE579E04F
:1057900042E659E026E639E0EEE6CE2EE6E0DE2EE1
:1057A0000E94AC6E0E94897CED81FE81E130F105A2
:1057B00049F0E230F105A1F0EF2B09F03EC080B1D5
:1057C00080950BC080B190E014E0969587951A956E
:1057D000E1F72D813E8182279327817019F42DC036
:1057E00007992BC08D819E81029739F5E3EAF2E09B
:1057F000949108C08091C00085FFFCCF9093C600B3
:10580000319694919923B1F7E1EFF4E0949108C0B7
:105810008091C00085FFFCCF9093C6003196949193
:105820009923B1F78091C00085FFFCCF8AE0809377
:10583000C60086E00E946C27A4C0F2012591359134
:1058400045915491E981FA81E4908D809E80880C85
:10585000991C880C991CAAE56A2EA9E07A2E680C7E
:10586000791CCA01B9010E94B1F95B016C01FF24E6
:10587000E7FCF0940F2D1F2DC801B7010E942CFBEF
:105880009B01AC01C601B5010E946AFDD3016D9375
:105890007D938D939C931397F401E85BFC4F60819B
:1058A00071818281938120E030E040E450E40E94E5
:1058B00091FA60937D0370937E0380937F039093AE
:1058C000800320E030E040E752E40E9491FA7B013F
:1058D0008C018AE599E06EE579E042E659E026E63A
:1058E00039E0FEE6CF2EF6E0DF2E0E94AC6E0E947D
:1058F000897CF401E353FB4F6591759185919491F7
:1059000084010A5B194FF401EA5AF94F2081318171
:10591000428153810E94B1F9F801608371838283CF
:105920009383F401E752FB4F2591359145915491B2
:10593000F401EE59F94F2083318342835383F401FC
:10594000EB51FB4F2591359145915491ACE5B3E076
:105950008A0E9B1EF4012083318342835383D3013B
:105960006D937D938D939C93139780E090E0A0E0DE
:10597000B0E080937D0390937E03A0937F03B09368
:1059800080030E94137B26960FB6F894DEBF0FBEED
:10599000CDBFCF91DF911F910F91FF90EF90DF90DE
:1059A000CF90BF90AF909F908F907F906F905F90BF
:1059B0004F903F902F90089580917D0990917E099E
:1059C000019660E070E04AE050E00E94EF1C08950C
:1059D00080917D0990917E09019660E070E00E94BF
:1059E0008F1B0895CF93DF93EC0180916E06809317
:1059F0003D0984E50E940E2A882309F46FC00E94A5
:105A0000E82C0E94FEFA262F60933D09662309F4D4
:105A100065C0EDE9F2E0949108C08091C00085FF77
:105A2000FCCF9093C600319694919923B1F7C93673
:105A3000D10599F0CA36D10524F4C836D105F1F55F
:105A40000FC0CD36D10531F0CA3DD105B9F5E0E042
:105A5000F2E031C0E7E1F2E023C0EEE2F2E015C08F
:105A6000E5E4F2E007C08091C00085FFFCCF3196ED
:105A70009093C60090819923B1F720C08091C00017
:105A800085FFFCCF31969093C60090819923B1F7A2
:105A900015C08091C00085FFFCCF31969093C60061
:105AA00090819923B1F70AC08091C00085FFFCCF97
:105AB00031969093C60090819923B1F783E19DE0E0
:105AC000622F40E050E00E94C7528091C00085FFE5
:105AD000FCCF8AE08093C60081E001C080E0DF91C6
