:100000000C944E1B0C940B1E0C943C1E0C946D1EF9
:100010000C949E1E0C94CF1E0C94001F0C94311F48
:100020000C94621F0C947F1B0C947F1B0C947F1B01
:100030000C947F1B0C9432DC0C947F1B0C947F1B64
:100040000C947F1B0C9459B70C947F1B0C947F1B52
:100050000C947F1B0C947F1B0C9451C70C94811B38
:100060000C947F1B0C94F8900C947F1B0C947F1BBA
:100070000C947F1B0C947F1B0C947F1B0C947F1B98
:100080000C947F1B0C947F1B0C947F1B0C947F1B88
:100090000C947F1B0C947F1B0C947F1B0C94DD280D
:1000A0000C947F1B0C947F1B0C947F1B0C947F1B68
:1000B0000C947F1B0C947F1B0C947F1B0C947F1B58
:1000C0000C947F1B0C947F1B0C947F1B0C947F1B48
:1000D0000C947F1B0C947F1B0C947F1B0C947F1B38
:1000E0000C947F1BB71CBC1CC11CCB1C441DD51C15
:1000F000DD1CE51CEF1CF91C031D121D1C1D441DFD
:10010000261D301D3A1D641D671D5A1D5E1D9E1D56
:100110006B1D6F1D751D791D7D1D831D871D8B1D1D
:100120009E1D911D951D991DF422F422022310237A
:100130002C233A234823562367231E2392DA95DA89
:1001400092DB94DB96DB98DB48DB9ADB9CDB9FDB66
:1001500048DBA2DBA6DB65DBA8DBAADBACDB48DB8C
:1001600072DB88DB83DB48DB8DDBAADAACDABADA58
:10017000BCDABEDAC0DAC6DAC8DACADACCDAD6DA7B
:10018000D8DADCDADEDAE4DAE6DA48DB48DB48DB68
:1001900048DB48DB48DB48DB48DB48DB48DB48DB47
:1001A00048DB48DB48DB48DB48DB48DB48DB48DB37
:1001B00048DB48DB48DB48DB48DB48DB48DB48DB27
:1001C00048DB48DB48DB48DB48DB48DB48DB48DB17
:1001D00048DB48DB48DB48DB48DB48DB48DB48DB07
:1001E00048DB48DB48DB48DB48DB48DB48DB48DBF7
:1001F00048DB48DB48DB48DB48DB48DB48DB48DBE7
:1002000048DB48DBEDDA0DDB084AD73B3BCE016E1D
:1002100084BCBFFDC12F3D6C74319ABD56833DDA5D
:100220003D00C77F11BED9E4BB4C3E916BAAAABE6C
:10023000000000803F05A84CCDB2D44EB93836A995
:10024000020C50B9918688083CA6AAAA2ABE0000D2
:1002500000803F000C9429340C9416240C94B33A7B
:100260000C949FDB0C9497470C94BC340C94C142C3
:100270000C942D4D0C94D24B0C948A500C94C33A90
:100280000C94D51C0C943F410C94EDDA0C94AD47C2
:100290000C9498DB0C94DC560C94E34F0C940DDB1F
:1002A0000C944C580C94E1510C949ADB0C94963CB1
:1002B0000C94133E0C94641D0C946F1D0C944823F5
:1002C0000C9472DB0C94301D0C94495E0C94313EFE
:1002D0000C947F4C0C9440590C94A8DB0C94EF1CAC
:1002E0000C9467230C9421680C9476630C94754EDF
:1002F0000C94DB5A0C9494DB0C948F5E0C946C275A
:100300000C9410230C9465490C941C520C94CADA7A
:100310000C9407370C94B64E0C94D6DA0C94B49027
:100320000C94DD1C0C94234E0C94BADA0C94B04D52
:100330000C94F25F0C946F5B0C949E1D0C947846A9
:100340000C941F4C0C94A7200C9473420C94BD5D2C
:100350000C94E6DA0C9444370C94473E0C94E85E17
:100360000C94D4400C9483DB0C94931F0C945E1D6E
:100370000C94831D0C9421570C94F4220C942E3F62
:100380000C94FF570C94121D0C94671D0C94395457
:100390000C941C1D0C94ACDB0C94D1570C941043A2
:1003A0000C94BD600C94615E0C94723A0C94806164
:1003B0000C94E4390C9450460C94C5350C94C0DA76
:1003C0000C9468340C944F3C0C94991D0C94951D1E
:1003D0000C944A4E0C94EB4C0C9441560C94441DD6
:1003E0000C94DE5E0C94AADB0C9453380C94B44845
:1003F0000C944C3B0C9478470C94BC1C0C94031D3F
:100400000C94791D0C94353C0C94BCDA0C943A2372
:100410000C94CCDA0C94E1550C94E51C0C944F3DF3
:100420000C94AB330C942C230C943A1D0C94A748D9
:100430000C94A2DB0C947C3A0C94124B0C94ED3D82
:100440000C94DC340C945E470C9495DA0C94BC3D0F
:100450000C94DEDA0C9456230C9402230C94911D18
:100460000C94A9420C9428580C9492340C9488DB78
:100470000C94CB1C0C9457530C94BF470C94E4DAA7
:100480000C9492DB0C94B6450C948DDB0C94109F6D
:100490000C9409390C94EC590C948E3D0C94C6DAEA
:1004A0000C9492DA0C945C350C949D370C94C03605
:1004B0000C947C390C9496DB0C946B1D0C94643F6B
:1004C0000C94C5900C9401570C942E400C94C11CB4
:1004D0000C94C8DA0C94B71C0C94C7400C942557A4
:1004E0000C947D1D0C942E360C944F610C9479362F
:1004F0000C94E9440C94CF480C94CC3B0C945D478D
:100500000C94C7460C9462570C9465DB0C94C54B55
:100510000C9419350C941E230C949CDB0C945420E1
:100520000C94A6DB0C94F91C0C94D8DA0C94BEDA6B
:100530000C94DCDA0C94A5330C94AADA0C948B1D81
:100540000C94261D0C945A1D0C94871D0C9448DBAA
:100550000C9402620C942A480C94DD3C0C94751D9A
:100560000C94ACDA0C94EA334E414E494E4954593E
:10057000494E46CDCCCC3D0AD7233C17B7D138776E
:10058000CC2B329595E6241FB14F0A000020410084
:1005900000C84200401C4620BCBE4CCA1B0E5AAECE
:1005A000C59D740000090A02080B0C0D0706030420
:1005B000010000000000000000000000000000003A
:1005C000000000000000000000000000000000111A
:1005D000100F0000000000000000000000000000FC
:1005E00000000000000000000001021020200808A8
:1005F0001020401020408002010201080402010185
:10060000020408102040808040201008040201806D
:1006100004020180402010080402010804020101C4
:1006200002040810204080010204081020408005C8
:10063000050505070508080808020202020A0A085B
:100640000804040404010101010101010103030381
:100650000303030303040707070C0C0C0C0C0C0C1E
:100660000C0202020206060606060606060B0B0B25
:100670000B0B0B0B0B00002200250028002B002E7B
:10068000003100340002010000050108010B0100E7
:10069000002100240027002A002D00300033000133
:1006A000010000040107010A015052494E54004D57
:1006B0004154455249414C004D41494E54454E41EB
:1006C0004E4345005072696E74696E672077697495
:1006D00068205553422E2E2E00756C74696D616B27
:1006E00065722E636F6D2F4552303700476F20744F
:1006F0006F3A0058206F72205920737769746368CD
:1007000020737475636B00756C74696D616B6572D1
:100710002E636F6D2F4552303700476F20746F3A4C
:100720000058206F722059207377697463682062C3
:10073000726F6B656E00756C74696D616B65722E9E
:10074000636F6D2F4552303600476F20746F3A004B
:100750005A2073776974636820737475636B0075CE
:100760006C74696D616B65722E636F6D2F455230CD
:100770003500476F20746F3A005A207377697463AD
:10078000682062726F6B656E00756C74696D616B69
:1007900065722E636F6D2F4552303400476F2074A1
:1007A0006F3A005361666574792063697263756995
:1007B0007400756C74696D616B65722E636F6D2F5B
:1007C0004552303300476F20746F3A0048656174BA
:1007D0006572206572726F7200756C74696D616B01
:1007E00065722E636F6D2F4552303200476F207453
:1007F0006F3A0054656D702073656E736F7220429E
:10080000454400756C74696D616B65722E636F6D24
:100810002F4552303100476F20746F3A0054656D98
:10082000702073656E736F72004552524F52202DC7
:100830002053544F5050454400801506060606FECE
:10084000FEFEFEFC00000000000000FCFEFEFEFCC0
:100850000000000EFEFEFEFE0000E0FCFEFEFCE0DE
:10086000E0000000CECECE000000C0C0C0C0C0C0BE
:100870008000000000000080C0C080000000000078
:10088000008080C0C0C0C0C0C0C080800000000028
:1008900006FEFEFEFE0000000080C0C0C00000009A
:1008A0000000008080C0C0C080808000000000C0C8
:1008B000C0C0C00080C0C0C0C08000000000007F79
:1008C000FFFFFFFF80000000000080FFFFFFFFFF31
:1008D00000000000FFFFFFFF000000FFFFFFFF0020
:1008E00000000000FFFFFF00000081F1FFFF3F0F4D
:1008F0003FFFFCF0F0FCFF3F0F3FFFFEF8800000E1
:1009000000C1E1F1F17131010183FFFFFFFC000043
:1009100000FFFFFFFF000C3EFFFFF7C301000000D8
:10092000FCFEFF8703113131333F3F3F1E000001C2
:10093000FFFFFFFF070301010101000000000000AD
:10094000010307070F0F0F0F0F0F0F0707070F0FF9
:1009500006000000070F0F07000000070F0F070039
:10096000000000000F0F0F0000060F0F070100002E
:100970000001070F0F070100000001070F0F06001D
:100980000003070F0F0E0E060703070F0F070000E7
:1009900000070F0F0700000000030F0F0F060000F5
:1009A000000307070F0E0E0E0E0E0E0600000000CD
:1009B0000F0F0F0F00000000000000507265763A24
:1009C000200043414E43454C002073656300206D79
:1009D000696E0020686F75720020686F7572730011
:1009E000000000000000005F000000070007001486
:1009F0007F147F14242A7F2A122313086462364945
:100A00005522500005030000001C22410000412235
:100A10001C00082A1C2A0808083E0808005030005C
:100A200000080808080800606000002010080402A0
:100A30003E5149453E00427F4000426151494621B6
:100A400041454B311814127F1027454545393C4A22
:100A50004949300171090503364949493606494972
:100A6000291E003636000000563600000008142209
:100A700041141414141441221408000201510906EF
:100A8000324979413E7E1111117E7F494949363EF6
:100A9000414141227F4141221C7F494949417F090F
:100AA0000901013E414151327F0808087F00417F22
:100AB00041002040413F017F081422417F404040D7
:100AC000407F0204027F7F0408107F3E4141413E87
:100AD0007F090909063E4151215E7F0919294646D1
:100AE0004949493101017F01013F4040403F1F20FA
:100AF00040201F7F2018207F6314081463030478AC
:100B00000403615149454300007F4141020408103C
:100B10002041417F00000402010204404040404067
:100B2000000102040020545454787F48444438386B
:100B300044444420384444487F3854545418087E70
:100B4000090102081454543C7F0804047800447DD1
:100B500040002040443D00007F10284400417F4079
:100B6000007C041804787C08040478384444443831
:100B70007C14141408081414187C7C080404084815
:100B800054545420043F4440203C4040207C1C20CE
:100B900040201C3C4030403C44281028440C50501D
:100BA000503C4464544C44000836410000007F002F
:100BB00000004136080008082A1C08081C2A0808FA
:100BC000473120462569205A256920582569205932
:100BD000256900473238205A3020583020593000DB
:100BE0006275696C64706C6174652E006F6620615B
:100BF000646A757374696E6720796F7572007468C2
:100C0000726F756768207468652070726F636573B2
:100C10007300492077696C6C206775696465207979
:100C20006F7500434F4E54494E55450043414E4366
:100C3000454C00473238205A3000746F207072697A
:100C40006E742069742100616E6420707265737324
:100C50002074686520627574746F6E006F6E207406
:100C600068652053442D636172640053656C65634D
:100C7000742061207072696E742066696C65003240
:100C8000312F3231004C45542753205052494E5495
:100C90000052656164696E6720636172642E2E2E56
:100CA0000032312F323100796F757220556C7469C2
:100CB0006D616B6572322E2E2E0074686174206334
:100CC000616D65207769746800506C65617365209B
:100CD000696E736572742053442D636172640032CF
:100CE000312F3231006D616B65206120334420501B
:100CF00072696E74210049276D20726561647920E4
:100D00006C657427730032302F3231004152452018
:100D1000594F552052454144593F0066726F6D202E
:100D20006E6F7A7A6C652E2E2E006D617465726915
:100D3000616C206578697473005075736820627502
:100D400074746F6E207768656E0031392F32310010
:100D5000434F4E54494E5545004C6F6164696E6770
:100D6000206D6174657269616C2E2E2E0031382FF2
:100D700032310061626F766520746865206172723D
:100D80006F772E00796F757220556C74696D616B89
:100D90006572322C0066726F6D2074686520726512
:100DA0006172206F6600496E73657274206E65779C
:100DB000206D6174657269616C0031372F323100CA
:100DC000434F4E54494E5545006D617465726961DB
:100DD0006C206C6F6164696E67007072696E746814
:100DE0006561642068656174696E6720666F720072
:100DF000506C6561736520776169742C0031362F02
:100E000032310053656C65637420746865206D61D0
:100E100074657269616C0069742069732075736907
:100E20006E672E006F66206D6174657269616C007B
:100E30006B6E6F77732077686174206B696E6400E6
:100E40004E6F7720796F757220556C74696D616B88
:100E50006572320031352F323100434F4E54494EC6
:100E600055450069732074686973207269676874F6
:100E70003F00596F7520686176652063686F736500
:100E80006E0031342F323100594553004E4F00204F
:100E90006173206D6174657269616C2C0031332F50
:100EA0003231004D4154455249414C00556C7469F2
:100EB0006D616B6572322E00696E736572742069A4
:100EC0006E2074686973006D6174657269616C206D
:100ED000796F752077696C6C004E6578742C20737F
:100EE000656C656374207468650031322F3231009F
:100EF0005245414459004D38340047312046313283
:100F000030303020583131302059313000746F206A
:100F1000696E73657274206D6174657269616C2E9F
:100F200000746865206E657874207374657020693C
:100F30007300746865206275696C64706C617465B7
:100F4000004E6F772074686174207765206C657639
:100F5000656C65640031312F323100434F4E544986
:100F60004E55450074686520726967687420636F28
:100F7000726E65722E2E2E0052657065617420743B
:100F800068697320666F720031302F323100434F31
:100F90004E54494E554500444F4E450074686520F7
:100FA0006C65667420636F726E65722E2E2E005211
:100FB0006570656174207468697320666F720039AA
:100FC0002F323100434F4E54494E554500626974EB
:100FD00020726573697374616E63652E00756E743B
:100FE000696C20796F75206665656C20610062759B
:100FF000696C64706C61746520616E64206E6F7AD8
:101000007A6C6500536C696465206120706170655D
:1010100072206265747765656E00382F3231004347
:101020004F4E54494E554500434F4E54494E554539
:1010300000473120462569205A3000473120462597
:1010400069205825692059256900473120462569BE
:10105000205A3500746865206275696C64706C6133
:101060007465206C6576656C2E0070617065722009
:10107000746F2066696E652D74756E65006E6F778E
:10108000207573652061207368656574206F660044
:10109000526570656174207468697320737465703B
:1010A0002C2062757400372F323100434F4E544963
:1010B0004E55450066726F6D2074686520627569D3
:1010C0006C64706C6174652E0069732061206D69B9
:1010D0006C6C696D6574657220617761790073630A
:1010E0007265772074696C6C20746865206E6F7A05
:1010F0007A6C65005475726E20726967687420623C
:1011000075696C64706C61746500362F3231004310
:101110004F4E54494E554500473120462569205AC7
:101120003000473120462569205825692059256916
:1011300000473120462569205A350066726F6D20C0
:10114000746865206275696C64706C6174652E00EA
:1011500069732061206D696C6C696D6574657220BE
:10116000617761790073637265772074696C6C20B4
:10117000746865206E6F7A7A6C65005475726E20A3
:101180006C656674206275696C64706C617465006E
:10119000352F323100434F4E54494E5545004731AB
:1011A00020462569205A30004731204625692058BD
:1011B00025692059256900473120462569205A357F
:1011C0000066726F6D20746865206275696C64706A
:1011D0006C6174652E0061206D696C6C696D65745D
:1011E0006572206177617900756E74696C2074682E
:1011F00065206E6F7A7A6C6520697300526F746136
:1012000074652074686520627574746F6E00342F85
:10121000323100434F4E54494E554500434F4E54D2
:10122000494E554500473120462569205A256920F9
:1012300058256920592569004732382058302059EF
:101240003000676F696E6720746F20646F20746868
:101250006174206E6F772E0061646A7573746D65BA
:101260006E74732C20776520617265007765206E3F
:1012700065656420746F20646F20736F6D65004135
:1012800066746572207472616E73706F72746174CB
:10129000696F6E00332F323100434F4E54494E5523
:1012A0004500473120462569205A256900473238D4
:1012B000205A3000612066697273742072756E2046
:1012C00077697A6172642E0077616C6B20796F7533
:1012D000207468726F756768006669727374207332
:1012E00074617274757020492077696C6C00426576
:1012F000636175736520746869732069732074680D
:101300006500322F323100434F4E54494E5545004F
:10131000627574746F6E20746F20636F6E74696E83
:10132000756500556C74696D616B65722120507232
:1013300065737320746865007374617274757020CE
:101340006F6620796F75720057656C636F6D6520ED
:10135000746F2074686520666972737400312F326F
:101360003100434F4E54494E5545003F3F3F0046E4
:101370006163746F72792072657365740052756E63
:1013800074696D6520737461747300566572736956
:101390006F6E004D6F74696F6E2073657474696E43
:1013A00067730052657472616374696F6E20736550
:1013B0007474696E6773005365742066616E207380
:1013C00070656564004D6F7665206D617465726946
:1013D000616C00496E73657274206D617465726929
:1013E000616C005261697365206275696C64706C30
:1013F000617465004C6F776572206275696C64700A
:101400006C61746500486F6D6520686561640048B3
:101410006561747570206E6F7A7A6C65004C454416
:101420002073657474696E6773003C20524554558F
:10143000524E00566572733A5F322E34676F002544
:10144000004300432F0025003F3F3F0020476C6FC3
:1014500077207768656E20646F6E6500204F6E2080
:101460007768696C65207072696E74696E670020B8
:10147000416C77617973204F66660020416C77611B
:101480007973204F6E004272696768746E6573737A
:10149000003C2052455455524E0025002500427212
:1014A000696768746E657373004C4544004300437C
:1014B0002F00436C69636B20746F207265747572C2
:1014C0006E004E6F7A7A6C652074656D706572611E
:1014D000747572653A004732382058302059300010
:1014E0004300432F00436C69636B20746F20726567
:1014F0007475726E00526F7461746520746F20652C
:10150000787472756465004E6F7A7A6C65207465C4
:101510006D70657261747572653A003F3F3F0052AD
:1015200065747261637420737065656400526574DC
:1015300072616374206C656E677468003C2052456C
:101540005455524E006D6D2F736563006D6D006DC7
:101550006D2F7365630052657472616374207370DC
:10156000656564006D6D0052657472616374206C12
:10157000656E6774680052455452414354494F4E5A
:10158000003F3F3F0043757272656E742045004313
:10159000757272656E74205A0043757272656E744E
:1015A00020582F59004D6178207370656564205A6A
:1015B000004D61782073706565642059004D617835
:1015C000207370656564205800582F59204A657251
:1015D0006B00416363656C65726174696F6E003C9A
:1015E0002052455455524E006D41006D41006D41F1
:1015F000006D6D2F736563006D6D2F736563006DF6
:101600006D2F736563006D6D2F736563006D6D2FB6
:101610007365635E32006D410043757272656E746E
:101620002045006D410043757272656E74205A004A
:101630006D410043757272656E7420582F59006DAC
:101640006D2F736563004D6178207370656564204C
:101650005A006D6D2F736563004D6178207370655E
:1016600065642059006D6D2F736563004D617820AE
:1016700073706565642058006D6D2F736563005845
:101680002F59204A65726B0030306D6D2F73656382
:101690005E3200416363656C65726174696F6E00F0
:1016A0004D4F54494F4E00566572733A5F322E3497
:1016B000676F004D61722031302032303137203178
:1016C000303A33343A31370052657475726E006DBA
:1016D00000204D61743A003A005072696E74696E70
:1016E000673A003A004D616368696E65206F6E204D
:1016F000666F723A0052657475726E00746F206482
:10170000656661756C743F0052657365742065761B
:101710006572797468696E6700594553004E4F00D1
:10172000250046616E207370656564004731204670
:1017300025692058256920592569004732382058E5
:1017400030205930004731205A3430004732382099
:101750005A3000473238205A30004732382058304B
:1017600020593000414456414E43454400425549BA
:101770004C442D7C504C41544500414456414E430D
:1017800045440052455455524E00504C41002500EE
:1017900046616E3A200043002500466C6F773A00A0
:1017A0006D6D00636F6D6573206F7574207468656F
:1017B000206E6F7A7A6C6500576169742074696C69
:1017C0006C206D6174657269616C005245414459C9
:1017D0000043414E43454C00466F72776172646925
:1017E0006E67206D6174657269616C0061626F760D
:1017F0006520746865206172726F772E00796F754D
:1018000072206D616368696E652C0066726F6D2071
:10181000746865206261636B73696465206F66003C
:10182000496E73657274206E6577206D61746572A0
:1018300069616C0052454144590043414E43454C57
:10184000006D6174657269616C20696E7365727494
:10185000696F6E00436F6F6C696E67207072696E9E
:10186000746865616420666F720048656174696EB2
:1018700067207072696E746865616420666F7200BB
:101880004D4154455249414C0052656D6F7665207B
:101890006D6174657269616C005245414459004341
:1018A000414E43454C00526576657273696E672000
:1018B0006D6174657269616C00666F72206D617430
:1018C000657269616C2072656D6F76616C00486548
:1018D0006174696E67207072696E74686561640016
:1018E00047323820583020593000496D706F72747B
:1018F0002066726F6D205344004578706F727420BB
:10190000746F20534400437573746F6D697A65007A
:101910003C2052455455524E004C6F616473206117
:101920006C6C206D6174657269616C7300536176D3
:10193000657320616C6C206D6174657269616C7394
:10194000004D6F64696679207468652073657474EE
:10195000696E677300250046616E3A2000430025DA
:1019600000466C6F773A006D6D003F3F3F00537447
:101970006F72652061732070726573657400466CC8
:101980006F7720250046616E004469616D6574655E
:10199000720054656D7065726174757265003C20EB
:1019A00052455455524E00250025006D6D004300F0
:1019B0004E657720707265736574003C2052455403
:1019C00055524E00505245534554530025004D6129
:1019D00074657269616C20666C6F770025004661E2
:1019E0006E207370656564006D6D004D6174657285
:1019F00069616C204469616D6574657200430054CF
:101A0000656D7065726174757265004D4154455223
:101A100049414C00696E204D4154455249414C2E7C
:101A200054585400746F20746865205344206361D7
:101A30007264005361766564206D617465726961DA
:101A40006C73004F6B000A0A006469616D65746510
:101A5000723D000A00666C6F773D000A0066616E99
:101A60005F73706565643D000A0074656D70657232
:101A700061747572653D000A006E616D653D005BC5
:101A80006D6174657269616C5D0A005265616469BB
:101A90006E6720636172642E2E2E00506C65617338
:101AA0006520696E736572742063617264004E6FA5
:101AB0002053442D43415244210066726F6D2074BF
:101AC00068652053442063617264004C6F616465F3
:101AD00064206D6174657269616C73004F6B0064A2
:101AE00069616D6574657200666C6F770066616E22
:101AF0005F7370656564006265645F74656D7065D1
:101B00007261747572650074656D7065726174756B
:101B10007265006E616D65005B6D6174657269610F
:101B20006C5D00466F756E64206F6E206361726439
:101B30002E004E6F206578706F72742066696C6538
:101B40000052656164696E6720636172642E2E2E97
:101B500000506C6561736520696E736572742063F3
:101B6000617264004E6F2053442D43415244210062
:101B700053656C6563746564206D61746572696139
:101B80006C3A004F4B004D4154455249414C00477F
:101B9000312046256920582569205925690047329A
:101BA00038205830205930004348414E47450053B3
:101BB000455454494E47530052455455524E0043E4
:101BC00000432F00436C69636B20746F207265744F
:101BD00075726E004E6F7A7A6C652074656D7065F3
:101BE0007261747572653A00507265706172696EE7
:101BF0006720746F207072696E743A004865617472
:101C0000696E672075702E2E2E0054554E4500418A
:101C1000424F5254004C4544204272696768746ECA
:101C20006573730052657472616374696F6E004D01
:101C30006174657269616C20666C6F770046616ED5
:101C40002073706565640054656D706572617475AC
:101C500072650053706565640041626F7274003C88
:101C60002052455455524E002500250025004300C2
:101C70004300250041626F727420746865207072A1
:101C8000696E743F00594553004E4F003F3F3F007F
:101C90005265747261637420737065656400526587
:101CA0007472616374206C656E677468003C2052C6
:101CB000455455524E006D6D2F736563006D6D0078
:101CC0006D6D2F7365630052657472616374207368
:101CD00070656564006D6D00526574726163742097
:101CE0006C656E6774680052455452414354494FC5
:101CF0004E0025004272696768746E657373002533
:101D0000004D6174657269616C20666C6F770025A7
:101D10000046616E2073706565640025005072692D
:101D20006E742073706565640054554E45005469A7
:101D30006D65206C6566740054696D65206C656620
:101D40007420756E6B6E6F776E00430043004865BC
:101D50006174696E67206275696C64706C6174652A
:101D6000004300430048656174696E670050726902
:101D70006E74696E673A0054554E45005041555394
:101D80004500524553554D457C5052494E540043F1
:101D900048414E47457C4D4154455249414C0054C1
:101DA000554E45004D383400473238004732382010
:101DB0005A300047323820583020593000473120FF
:101DC0004625692045300047393220452569004DB8
:101DD000343031004D363031205835205935205AB5
:101DE0002569204C256900746865207072696E74DD
:101DF0002E00596F752063616E2072656D6F766578
:101E0000005072696E742066696E6973686564005B
:101E10004241434B20544F204D454E550043200036
:101E20005072696E74657220636F6F6C696E6720A3
:101E3000646F776E004241434B20544F204D454E16
:101E400055006F66207072696E74696E67206172EA
:101E50006561005472696564207072696E74696EA0
:101E600067206F7574004552524F523A00524554E4
:101E700055524E20544F204D41494E00756C7469A7
:101E80006D616B65722E636F6D2F45523038004760
:101E90006F20746F3A0072656164696E6720534405
:101EA0002D6361726421004572726F7220776869D8
:101EB0006C650052455455524E20544F204D4149B7
:101EC0004E0066726F6D2074686520736C6963657F
:101ED000722E0073657474696E6720776974682068
:101EE00073657474696E67006F7665727269646594
:101EF000206D616368696E65005468697320666966
:101F00006C652077696C6C00434F4E54494E5545C3
:101F10000043414E43454C003C204241434B003C72
:101F20002052455455524E005344204341524400E0
:101F300047312046313230303020582D3130205951
:101F4000313000473238003B464C41564F523A55EB
:101F50006C746947436F6465003B464C41564F5271
:101F60003A556C746947436F6465004E6F2066692B
:101F70006C657320666F756E6421004F4B004F4B8C
:101F80000052656164696E6720636172642E2E2E53
:101F900000506C6561736520696E736572742063AF
:101FA000617264004E6F2053442D4341524421001E
:101FB0004E6F20696E666F20617661696C61626C3C
:101FC00065006D006D004D6174657269616C3A2049
:101FD0000054696D653A20003B4D415445524941DA
:101FE0004C3A003B54494D453A00466F6C6465726B
:101FF000004D32313820496E76616C696420657815
:1020000074727564657220004D31303920496E76E6
:10201000616C696420657874727564657220004D26
:1020200031303520496E76616C6964206578747250
:102030007564657220004D31303420496E76616CD4
:1020400069642065787472756465722000507269E5
:102050006E7465722073746F70706564206475654A
:1020600020746F206572726F72732E20466978201B
:10207000746865206572726F7220616E642075737A
:1020800065204D39393920746F207265737461721F
:10209000742E202854656D706572617475726520A8
:1020A00069732072657365742E205365742069749A
:1020B0002061667465722072657374617274696EF2
:1020C0006729005072696E7465722068616C74656E
:1020D000642E206B696C6C28292063616C6C6564CC
:1020E00021006F6B00526573656E643A2000456E87
:1020F0006473746F70207374696C6C207072657394
:10210000736564206166746572206261636B696ED9
:1021100067206F66662E20456E6473746F7020733F
:102120007475636B3F00456E6473746F70206E6FDF
:1021300074207072657373656420616674657220C3
:10214000686F6D696E6720646F776E2E20456E64D0
:1021500073746F702062726F6B656E3F00456E64C2
:1021600073746F70206E6F74207072657373656422
:1021700020616674657220686F6D696E6720646F98
:10218000776E2E20456E6473746F702062726F6B71
:10219000656E3F002200556E6B6E6F776E20636F29
:1021A0006D6D616E643A202200456C656374726FD8
:1021B0006E6963735F7465737400416374697665F7
:1021C0002045787472756465723A2000496E7661B4
:1021D0006C696420657874727564657200540020BF
:1021E000423A300020423A31006F6B20523A0020D0
:1021F000633A0020643A0020693A0020703A006F88
:102200006B002200556E6B6E6F776E20636F6D6D85
:10221000616E643A2022006F70656E005452494727
:102220004745524544007A5F6D61783A20006F70EF
:10223000656E0054524947474552454400795F6DE9
:1022400061783A20006F70656E00545249474745E7
:1022500052454400785F6D696E3A20005265706F98
:102260007274696E6720656E6473746F7020737426
:1022700061747573005A3A00593A0020436F756EC5
:102280007420583A2000453A005A3A00593A00580A
:102290003A004649524D574152455F4E414D453AED
:1022A0004D61726C696E20556C74696D616B6572FD
:1022B000323B20537072696E7465722F6772626C64
:1022C000206D617368757020666F722067656E3669
:1022D000204649524D574152455F55524C3A687419
:1022E00074703A2F2F6769746875622E636F6D2F53
:1022F000556C74696D616B65722050524F544F4339
:102300004F4C5F56455253494F4E3A312E30204D77
:10231000414348494E455F545950453A556C74699C
:102320006D616B65722045585452554445525F4368
:102330004F554E543A310A0020423A0020453A00A7
:10234000543A003F0020573A0020453A00543A00E2
:102350002042403A0020403A00202F0020423A001C
:10236000202F006F6B20543A002569206D696E2C78
:102370002025692073656300456E642066696C657D
:10238000206C69737400426567696E2066696C65CC
:10239000206C69737400256920686F75727320253D
:1023A00069206D696E7574657300446F6E65207089
:1023B00072696E74696E672066696C650050726937
:1023C0006E7465722073746F7070656420647565D7
:1023D00020746F206572726F72732E2046697820A8
:1023E000746865206572726F7220616E6420757307
:1023F00065204D39393920746F20726573746172AC
:10240000742E202854656D70657261747572652034
:1024100069732072657365742E2053657420697426
:102420002061667465722072657374617274696E7E
:102430006729006F6B004E6F204C696E65204E75EA
:102440006D626572207769746820636865636B7379
:10245000756D2C204C617374204C696E653A2000B8
:102460004E6F20436865636B73756D207769746880
:10247000206C696E65206E756D6265722C204C61F2
:102480007374204C696E653A2000636865636B73F2
:10249000756D206D69736D617463682C204C617378
:1024A00074204C696E653A20004C696E65204E754B
:1024B0006D626572206973206E6F74204C61737455
:1024C000204C696E65204E756D6265722B312C2033
:1024D0004C617374204C696E653A20004D31313087
:1024E00000446F6E6520736176696E672066696C63
:1024F000652E006F6B004D3239002020506C616EEC
:102500006E657242756666657242797465733A20CB
:10251000002046726565204D656D6F72793A200026
:102520004D6172203130203230313700436F6D7091
:10253000696C65643A2000566572733A5F322E34D6
:10254000676F00207C20417574686F723A20004DDF
:10255000617220313020323031372031303A33341B
:102560003A313900204C6173742055706461746590
:10257000643A2000312E302E30004D61726C696E4D
:10258000200020536F667477617265205265736511
:102590007400205761746368646F672052657365C7
:1025A00074002042726F776E206F757420526573CD
:1025B0006574002045787465726E616C2052657395
:1025C000657400506F776572557000737461727432
:1025D000002200656E717565696E67202200220019
:1025E000656E717565696E67202200FF010100004C
:1025F000E0400000E0400000E04000000843000030
:10260000F84200000243000060C10000F8420000F0
:1026100002430000F4420000F842000002430000C0
:1026200060C100000000000000006563686F3A00B0
:102630004572726F723A00000021104220633084AC
:1026400040A550C660E770088129914AA16BB18C02
:10265000C1ADD1CEE1EFF13112100273325222B589
:10266000529442F772D662399318837BB35AA3BD52
:10267000D39CC3FFF3DEE36224433420040114E659
:1026800064C774A44485546AA54BB528850995EEA2
:10269000E5CFF5ACC58DD55336722611163006D769
:1026A00076F6669556B4465BB77AA719973887DFF2
:1026B000F7FEE79DD7BCC7C448E5588668A77840B1
:1026C00008611802282338CCC9EDD98EE9AFF94842
:1026D0008969990AA92BB9F55AD44AB77A966A71C9
:1026E0001A500A333A122AFDDBDCCBBFFB9EEB7992
:1026F0009B588B3BBB1AABA66C877CE44CC55C2219
:102700002C033C600C411CAEED8FFDECCDCDDD2AE1
:10271000AD0BBD688D499D977EB66ED55EF44E13A8
:102720003E322E511E700E9FFFBEEFDDDFFCCF1B31
:10273000BF3AAF599F788F8891A981CAB1EBA10C9C
:10274000D12DC14EF16FE18010A100C230E3200411
:1027500050254046706760B9839893FBA3DAB33D78
:10276000C31CD37FE35EF3B1029012F322D2323561
:1027700042145277625672EAB5CBA5A89589856E48
:10278000F54FE52CD50DC5E234C324A014810466B1
:1027900074476424540544DBA7FAB79987B8975F58
:1027A000E77EF71DC73CD7D326F2369106B0165701
:1027B000667676154634564CD96DC90EF92FE9C8A0
:1027C00099E9898AB9ABA94458654806782768C051
:1027D00018E1088238A3287DCB5CDB3FEB1EFBF9B8
:1027E0008BD89BBBAB9ABB754A545A376A167AF1A1
:1027F0000AD01AB32A923A2EFD0FED6CDD4DCDAA08
:10280000BD8BADE89DC98D267C076C645C454CA2F0
:102810003C832CE01CC10C1FEF3EFF5DCF7CDF9B97
:10282000AFBABFD98FF89F176E367E554E745E9340
:102830002EB23ED10EF01E7C3C3E5E2B3D3F2F5B08
:102840005D3B2C2A225C0020746F6F206C6F6E67DA
:1028500020657874727573696F6E20707265766525
:102860006E7465640020636F6C64206578747275A3
:1028700073696F6E2070726576656E74656400654D
:1028800063686F3A00205A3A0020593A0020583ABB
:1028900000656E6473746F7073206869743A200009
:1028A00024F4D43050C38E20C2A24017828B701102
:1028B000127A910D816CD90AA861E108C7586607A0
:1028C000615143061E4B5D05C145A7041A41110421
:1028D000093D9803713931034036DB0265339102BB
:1028E000D4305402802E1D02632CEE01752AC501DE
:1028F000B028A001102781018F2564012B244B01F2
:10290000E0223401AC211F018D200D01801FFC004D
:10291000841EED00971DDF00B81CD200E61BC60028
:10292000201BBC00641AB200B219A8000A19A0004A
:102930006A189900D117910040178B00B5168400D2
:1029400031167E00B31579003A157300C7146F0075
:1029500058146A00EE1366008813630025135E00A6
:10296000C7125B006C12570015125400C1115100C0
:1029700070114F0021114B00D61049008D104700F7
:102980004610440002104200C00F4000800F3E007D
:10299000420F3C00060F3B00CB0E3800930E370071
:1029A0005C0E3500270E3400F30D3200C10D3100EE
:1029B000900D3000600D2E00320D2D00050D2C0005
:1029C000D90C2B00AE0C2900850C29005C0C2700CB
:1029D000350C27000E0C2600E80B2400C40B240045
:1029E000A00B23007D0B23005A0B2100390B210083
:1029F000180B2000F80A1F00D90A1E00BB0A1E008F
:102A00009D0A1D00800A1D00630A1C00470A1B0066
:102A10002C0A1B00110A1A00F7091A00DD09190017
:102A2000C4091900AB091900920917007B091800A5
:102A3000630917004C091600360916002009160014
:102A40000A091500F5081500E0081400CC08140068
:102A5000B8081400A4081400900813007D081200A0
:102A60006B081300580812004608120034081100C1
:102A7000230811001208110001081100F0071000CE
:102A8000E0071000D0071000C0071000B0070F00CB
:102A9000A107100091070E0083070F0074070F00B5
:102AA00065070E0057070E0049070E003B070D0093
:102AB0002E070E0020070D0013070D0006070D005E
:102AC000F9060C00ED060D00E0060C00D4060C0023
:102AD000C8060C00BC060C00B0060C00A4060B00D7
:102AE00099060C008D060B0082060B0077060B0082
:102AF0006C060B0061060A0057060B004C060A0024
:102B000042060A0038060A002E060A0024060A00B9
:102B10001A060A001006090007060A00FD0509004A
:102B2000F4050900EB050900E2050900D9050900D3
:102B3000D0050900C7050900BE050900B505080054
:102B4000AD050800A50509009C05080094050800CE
:102B50008C050800840508007C0508007405080041
:102B60006C050700650508005D05070056050800AF
:102B70004E05070047050700400508003805070017
:102B8000310507002A050700230507001C0506007C
:102B9000160507000F0507000805060002050700D7
:102BA000FB040600F5040700EE040600E804060036
:102BB000E2040700DB040600D5040600CF0406008B
:102BC000C9040600C3040600BD040600B7040600DD
:102BD000B1040500AC040600A6040600A00405002C
:102BE0009B04060095040500900406008A04050075
:102BF00085040500800406007A04050075040500BC
:102C0000700405006B0405006604050061040500FE
:102C10005C04050057040500520405004D0405003E
:102C200048040500430405003E0404003A0405007E
:102C300035040500300404002C04050027040400BA
:102C4000230405001E0404001A04040016040500F1
:102C5000110404000D040400090405000404040028
:102C600000040400FC030400F8030400F40304005F
:102C7000F0030400EC030400E8030400E403040090
:102C8000E0030400DC030400D8030400D4030400C0
:102C9000D0030400CC030400C8030300C5030300F1
:102CA00024F404D9201BC40C5C0E9804C4095F02F0
:102CB00065077101F405F900FB04B30048048700BF
:102CC000C10369005803550003034500BE023A00E2
:102CD0008402310053022A00290225000402200048
:102CE000E4011C00C8011900AF011700980114008D
:102CF00084011300710110006101100051010E00E8
:102D000043010D0036010B002B010B0020010B00CD
:102D1000150109000C01090003010800FB0008006F
:102D2000F3000800EB000700E4000600DE000600E8
:102D3000D8000600D2000600CC000500C700050040
:102D4000C2000500BD000400B9000400B500040085
:102D5000B1000400AD000400A9000400A5000300B8
:102D6000A20003009F0004009B00030098000300E2
:102D70009500020093000300900003008D00020004
:102D80008B0003008800020086000200840003001C
:102D9000810002007F0002007D0002007B00020033
:102DA0007900020077000100760002007400020042
:102DB00072000100710002006F0002006D0001004E
:102DC0006C0002006A000100690002006700010057
:102DD000660001006500010064000200620001005D
:102DE00061000100600001005F0002005D00010061
:102DF0005C0001005B0001005A0001005900010065
:102E00005800010057000100560001005500010064
:102E10005400010053000000530001005200010063
:102E200051000100500001004F0001004E00000061
:102E30004E0001004D0001004C0001004B0000005D
:102E40004B0001004A000100490001004800000059
:102E50004800010047000100460000004600010054
:102E6000450000004500010044000100430000004F
:102E70004300010042000000420001004100000048
:102E800041000100400001003F0000003F00010040
:102E90003E0000003E0001003D0000003D0001003A
:102EA0003C0000003C0000003C0001003B00000032
:102EB0003B0001003A0000003A0001003900000028
:102EC000390001003800000038000000380001001F
:102ED0003700000037000100360000003600000017
:102EE000360001003500000035000000350001000B
:102EF0003400000034000000340001003300000002
:102F000033000000330001003200000032000000F6
:102F100032000100310000003100000031000100EA
:102F20003000000030000000300001002F000000E1
:102F30002F0000002F0000002F0001002E000000D5
:102F40002E0000002E0001002D0000002D000000CA
:102F50002D0000002D0001002C0000002C000000BE
:102F60002C0000002C0001002B0000002B000000B2
:102F70002B0000002B0001002A0000002A000000A6
:102F80002A0000002A00010029000000290000009A
:102F9000290000002900000029000100280000008D
:102FA0002800000028000000280000002800010080
:102FB0002700000027000000270000002700000075
:102FC0002700010026000000260000002600000067
:102FD000260000002600010025000000250000005A
:102FE000250000002500000025000000250001004C
:102FF0002400000024000000240000002400000041
:103000002400010023000000230000002300000032
:103010002300000023000000230000002300010023
:103020002200000022000000220000002200000018
:103030002200000022000100210000002100000009
:1030400021000000210000002100000021000000FC
:1030500021000100200000002000000020000000EE
:1030600020000000200000002000000020000000E0
:10307000200001001F0000001F0000001F000000D2
:103080001F0000001F0000001F0000001F000100C3
:103090001E0000001E0000001E0000001E000000B8
:1030A0006563686F3A003A2045787472756465729A
:1030B000207377697463686564206F66662E204D9F
:1030C000494E54454D502074726967676572656456
:1030D0002021003A204578747275646572207377F8
:1030E000697463686564206F66662E204D4158548C
:1030F000454D5020747269676765726564202100D0
:10310000202D20496E76616C696420657874727533
:10311000646572206E756D626572202100504944AD
:10312000204175746F74756E652066696E69736889
:103130006564212050757420746865204B702C20C4
:103140004B6920616E64204B6420636F6E73746101
:103150006E747320696E746F20436F6E6669677555
:10316000726174696F6E2E68005049442041757415
:103170006F74756E65206661696C65642120746981
:103180006D656F75740020403A006F6B20543A00F3
:103190006F6B20423A00504944204175746F74753A
:1031A0006E65206661696C6564212054656D70658B
:1031B00072617475726520746F6F2068696768004A
:1031C000204B643A2000204B693A2000204B703A93
:1031D000200020436C617369632050494420002023
:1031E00054753A2000204B753A2000206D61783AE2
:1031F0002000206D696E3A200020643A2000206291
:103200006961733A2000504944204175746F7475A8
:103210006E65207374617274005049442041757466
:103220006F74756E65206661696C65642E204261FD
:1032300064206578747275646572206E756D626560
:10324000722E004572726F723A000000000018077B
:103250000100A807140030082800B8083C0038090D
:103260005000C0096400480A7800C80A8C00480B66
:10327000A000C80BB400480CC800C80CDC00400D0E
:10328000F000C00D0401380E1801B00E2C01280FFB
:103290004001A00F54011810680188107C01001132
:1032A00090013013F401481558024017BC02281948
:1032B0002003F01A8403A81CE803401E4C044D3878
:1032C0003420582059205A20450043616E6E6F7497
:1032D00020656E746572207375626469723A2000AD
:1032E0004D3234004D3233202573006175746F25E3
:1032F000692E67006572726F722077726974696EE9
:103300006720746F2066696C650043617264206594
:1033100072726F723A004E6F74205344207072695B
:103320006E74696E67002F005344207072696E746A
:10333000696E67206279746520002E0044656C65B3
:1033400074696F6E206661696C65642C2046696CD7
:10335000653A200046696C652064656C6574656437
:103360003A002E006F70656E206661696C65642C92
:103370002046696C653A200057726974696E67204F
:10338000746F2066696C653A20002E006F70656E60
:10339000206661696C65642C2046696C653A200082
:1033A0002E006F70656E206661696C65642C204626
:1033B000696C653A200046696C652073656C6563CD
:1033C000746564002053697A653A200046696C652B
:1033D000206F70656E65643A20002E006F70656E18
:1033E000206661696C65642C2046696C653A200032
:1033F00053442063617264206F6B006F70656E527E
:103400006F6F74206661696C656400766F6C756DB2
:10341000652E696E6974206661696C656400534449
:1034200020696E6974206661696C0043616E6E6F1D
:1034300074206F70656E20737562646972006563D5
:10344000686F3A004572726F723A00486172646345
:103450006F6465642044656661756C74205365749F
:1034600074696E6773204C6F616465640056303117
:10347000300053746F7265642073657474696E678D
:10348000732072657472696576656400204400205B
:1034900049002020204D3330312050005049442035
:1034A00073657474696E67733A00205A002059007E
:1034B00020204D323036205800486F6D65206F66F1
:1034C0006673657420286D6D293A00204500205AE6
:1034D0000020580020420020540020204D3230357A
:1034E000205300416476616E636564207661726981
:1034F00061626C65733A20533D4D696E2066656567
:10350000647261746520286D6D2F73292C20543DE1
:103510004D696E2074726176656C206665656472B3
:1035200061746520286D6D2F73292C20423D6D69D3
:103530006E696D756D207365676D656E7420746955
:103540006D6520286D73292C20583D6D6178696D5B
:10355000756D205859206A65726B20286D6D2F7328
:10356000292C20205A3D6D6178696D756D205A2097
:103570006A65726B20286D6D2F73292C2020453DC4
:103580006D6178696D756D2045206A65726B2028C4
:103590006D6D2F73290020540020204D32303420CF
:1035A0005300416363656C65726174696F6E3A20A4
:1035B000533D616363656C65726174696F6E2C2045
:1035C000543D7265747261637420616363656C65F8
:1035D000726174696F6E00204500205A0020590006
:1035E00020204D3230312058004D6178696D756D65
:1035F00020416363656C65726174696F6E20286D2C
:103600006D2F7332293A00204500205A00205900BE
:1036100020204D3230332058004D6178696D756D32
:103620002066656564726174657320286D6D2F7303
:10363000293A00204500205A0020590020204D3909
:103640003220580053746570732070657220756E57
:1036500069743A0053657474696E67732053746FAC
:10366000726564006563686F3A00544553540D0AEF
:10367000000D0A00556E6B6E6F776E20636F6D6D77
:10368000616E643A20000D0A003F00566572733A7D
:103690005F322E34676F0002B490C59011241FBEB4
:1036A000CFEFD1E2DEBFCDBF00E00CBF13E0A0E062
:1036B000B2E0ECE9F2ED01E00BBF02C007900D9221
:1036C000A831B107D9F729E1A8E1B3E001C01D9203
:1036D000A533B207E1F71BE1CDE4DBE100E006C072
:1036E00021970109802FFE010E94EEE1CC34D10721
:1036F00080E00807A9F70E9492DC0C943CE90C9446
:1037000000001F920F920FB60F9211242F933F9338
:103710008F939F93AF93BF938091190390911A0356
:10372000A0911B03B0911C033091180323E0230FD9
:103730002D3720F40196A11DB11D05C026E8230FE9
:103740000296A11DB11D2093180380931903909335
:103750001A03A0931B03B0931C0380911D03909147
:103760001E03A0911F03B09120030196A11DB11D5E
:1037700080931D0390931E03A0931F03B093200317
:10378000BF91AF919F918F913F912F910F900FBE5D
:103790000F901F9018952FB7F894609119037091AE
:1037A0001A0380911B0390911C032FBF08953FB70C
:1037B000F89480911D0390911E03A0911F03B09176
:1037C000200326B5A89B05C02F3F19F00196A11D27
:1037D000B11D3FBFBA2FA92F982F8827820F911DA7
:1037E000A11DB11DBC01CD0142E0660F771F881FEE
:1037F000991F4A95D1F70895CF92DF92EF92FF92E9
:10380000CF93DF936B017C010E94D71BEB01C114A6
:10381000D104E104F10479F00E94D71B6C1B7D0BED
:10382000683E7340A0F381E0C81AD108E108F108AE
:10383000C851DC4FECCFDF91CF91FF90EF90DF903C
:10384000CF900895019739F0880F991F880F991F1D
:1038500002970197F1F70895789484B5826084BD4A
:1038600084B5816084BD85B5826085BD85B5816084
:1038700085BDEEE6F0E0808181608083E1E8F0E0E4
:103880001082808182608083808181608083E0E813
:10389000F0E0808181608083E1EBF0E080818460F2
:1038A0008083E0EBF0E0808181608083E1E9F0E0FB
:1038B000808182608083808181608083E0E9F0E0A4
:1038C000808181608083E1EAF0E080818260808392
:1038D000808181608083E0EAF0E080818160808384
:1038E000E1E2F1E080818260808380818160808379
:1038F000E0E2F1E0808181608083EAE7F0E08081AE
:103900008460808380818260808380818160808305
:103910008081806880831092C10008951F93CF93A7
:10392000DF93182FEB0161E00E949F1D209711F497
:1039300060E004C0CF3FD10539F461E0812FDF9111
:10394000CF911F910C94DB1DE12FF0E0ED55FA4F64
:10395000E4914E2F50E0FA013197E131F10508F082
:1039600093C08827EE58FF4F8F4F0C94EEE184B53B
:10397000806884BDC7BD8DC084B5806284BDC8BD6C
:1039800088C080918000806880938000D0938900F7
:10399000C09388007EC08091800080628093800008
:1039A000D0938B00C0938A0074C08091B00080686F
:1039B0008093B000C093B3006CC08091B00080626F
:1039C0008093B000C093B40064C080919000806880
:1039D00080939000D0939900C09398005AC0809132
:1039E0009000806280939000D0939B00C0939A00D7
:1039F00050C080919000886080939000D0939D008B
:103A0000C0939C0046C08091A00080688093A00075
:103A10008091A0008F7B8093A000D093A900C093D9
:103A2000A80037C08091A00080628093A000D0934E
:103A3000AB00C093AA002DC08091A0008860809345
:103A4000A000D093AD00C093AC0023C080912001B2
:103A5000806880932001D0932901C093280119C068
:103A600080912001806280932001D0932B01C0932C
:103A70002A010FC080912001886080932001D0939B
:103A80002D01C0932C0105C0C038D1050CF055CFD5
:103A90004FCFDF91CF911F91089590E0FC013197B6
:103AA000E131F10508F04AC08827ED57FF4F8F4FED
:103AB0000C94EEE1809180008F7703C080918000AC
:103AC0008F7D80938000089584B58F7702C084B580
:103AD0008F7D84BD08958091B0008F7703C0809161
:103AE000B0008F7D8093B0000895809190008F7713
:103AF00007C0809190008F7D03C080919000877FE8
:103B00008093900008958091A0008F7707C08091E6
:103B1000A0008F7D03C08091A000877F8093A000CC
:103B20000895809120018F7707C0809120018F7DBB
:103B300003C080912001877F809320010895CF9357
:103B4000DF9390E0FC01E751FA4F2491FC01E15D25
:103B5000F94F8491882361F190E0880F991FFC014F
:103B6000E157F94FC591D491FC01EB58F94FA5915C
:103B7000B491611109C09FB7F89488812095822380
:103B80008883EC912E230BC0623061F49FB7F894C8
:103B90003881822F809583238883EC912E2B2C9360
:103BA0009FBF06C08FB7F894E8812E2B28838FBF64
:103BB000DF91CF9108951F93CF93DF93282F30E0AB
:103BC000F901ED55FA4F8491F901E751FA4FD4917B
:103BD000F901E15DF94FC491CC23C9F0162F811191
:103BE0000E944D1DEC2FF0E0EE0FFF1FEB58F94F38
:103BF000A591B4918FB7F894111105C09C91ED2F48
:103C0000E095E92302C0EC91ED2BEC938FBFDF919F
:103C1000CF911F9108951F920F920FB60F9211240A
:103C20000BB60F922F933F934F935F936F937F93B6
:103C30008F939F93AF93BF93EF93FF93809125034F
:103C400090912603892B29F0E0912503F09126031A
:103C50001995FF91EF91BF91AF919F918F917F91B6
:103C60006F915F914F913F912F910F900BBE0F90ED
:103C70000FBE0F901F9018951F920F920FB60F92C4
:103C800011240BB60F922F933F934F935F936F9333
:103C90007F938F939F93AF93BF93EF93FF93809105
:103CA000270390912803892B29F0E0912703F091B5
:103CB00028031995FF91EF91BF91AF919F918F913B
:103CC0007F916F915F914F913F912F910F900BBE1C
:103CD0000F900FBE0F901F9018951F920F920FB666
:103CE0000F9211240BB60F922F933F934F935F9334
:103CF0006F937F938F939F93AF93BF93EF93FF93B4
:103D00008091290390912A03892B29F0E0912903BE
:103D1000F0912A031995FF91EF91BF91AF919F9177
:103D20008F917F916F915F914F913F912F910F9064
:103D30000BBE0F900FBE0F901F9018951F920F9201
:103D40000FB60F9211240BB60F922F933F934F9300
:103D50005F936F937F938F939F93AF93BF93EF93F3
:103D6000FF9380912B0390912C03892B29F0E091F4
:103D70002B03F0912C031995FF91EF91BF91AF9117
:103D80009F918F917F916F915F914F913F912F9173
:103D90000F900BBE0F900FBE0F901F9018951F92A3
:103DA0000F920FB60F9211240BB60F922F933F93E1
:103DB0004F935F936F937F938F939F93AF93BF9333
:103DC000EF93FF938091210390912203892B29F097
:103DD000E0912103F09122031995FF91EF91BF919A
:103DE000AF919F918F917F916F915F914F913F9193
:103DF0002F910F900BBE0F900FBE0F901F90189534
:103E00001F920F920FB60F9211240BB60F922F93A1
:103E10003F934F935F936F937F938F939F93AF9352
:103E2000BF93EF93FF938091230390912403892BF9
:103E300029F0E0912303F09124031995FF91EF916C
:103E4000BF91AF919F918F917F916F915F914F91B2
:103E50003F912F910F900BBE0F900FBE0F901F90B0
:103E600018951F920F920FB60F9211240BB60F9256
:103E70002F933F934F935F936F937F938F939F9372
:103E8000AF93BF93EF93FF9380912D0390912E03F7
:103E9000892B29F0E0912D03F0912E031995FF91C4
:103EA000EF91BF91AF919F918F917F916F915F91B2
:103EB0004F913F912F910F900BBE0F900FBE0F901F
:103EC0001F9018951F920F920FB60F9211240BB6E8
:103ED0000F922F933F934F935F936F937F938F93A3
:103EE0009F93AF93BF93EF93FF9380912F03909194
:103EF0003003892B29F0E0912F03F09130031995BD
:103F0000FF91EF91BF91AF919F918F917F916F91B1
:103F10005F914F913F912F910F900BBE0F900FBE6D
:103F20000F901F901895FF920F931F93CF93DF93DD
:103F300088EA9FEF90935503809354034091480380
:103F400088E0840F405E682F0E945F290E94312F15
:103F5000809148038435D8F549E358E066E180E074
:103F60000E943C30D7E1C6E100E010E0F02E409125
:103F70004803842F90E0880F991F98012D5E3F4FD2
:103F80002817390744F4440F4451401B2D2F6C2F40
:103F900080E00E943C2F80914803282F30E0220FC0
:103FA000331F2017310734F0880F2D2F4FE76C2F68
:103FB0008F1904C02D2F4FE76C2F80E00E943C2FFB
:103FC0000F5F1F4FCE5FDE5FCA3281F609C081509E
:103FD0008093480349E358E066E180E00E943C306A
:103FE0000E94222980913103811113C0209148033E
:103FF00030E0220F331F40910802429FC001439FCF
:10400000900D112464E670E00E9499E188E00E941E
:104010008E1C80914703811104C080915303882333
:10402000E9F18091310381110DC0809108022FEFD9
:10403000829FC001112464E670E00E9499E188E04B
:104040000E948E1C10924703109248034CE360E3D9
:1040500080E30E945F298091530381110E94A73061
:1040600080E094E00E9403E9853579F420E030E0B7
:10407000A9016091820E7091830E8091840E9091BF
:10408000850E0E9495DD811103C08FE49DE302C07F
:1040900084E590E29093500380934F03DF91CF919A
:1040A0001F910F91FF90089548EB56E06FEA76E07C
:1040B00089EA96E00E94532480915303882349F1B2
:1040C00080915403909155039C01295F3F4F2F30FD
:1040D000310558F40E9468638CE99EE00E9436CC5A
:1040E00062E070E086E793E612C09C012850310937
:1040F0002830310528F468EA7FEF81EE91E507C0AA
:104100004097089730F468EA7FEF8CEB9DE30E94BC
:104110002324809152038823A1F08091540390912D
:104120005503883A9F4F69F41092470380914803E2
:10413000893C58F068EA7FEF87EA90E20E942324E6
:1041400004C010924703109248030C9422299F92B6
:10415000AF92BF92CF92DF92EF92FF920F931F9395
:10416000CF93DF938091540390915503883A9F4FEA
:1041700059F58AE190E0909355038093540324E726
:1041800037E043E053E080E090E0F901E80FF91FE9
:104190005083019685309105C1F741502B5F3F4F09
:1041A0004111F1CF109284071092830780E099E3C8
:1041B000909386078093850710928807109287074F
:1041C00010928A07109289078091540390915503A9
:1041D00097FF04C01092550310925403809154032A
:1041E00090915503880F991F8B36910534F085E324
:1041F00090E09093550380935403809187079091AA
:1042000088074091830750918407480F591F5093A6
:104210008407409383076091890770918A072091F2
:10422000850730918607260F371F30938607209326
:1042300085074F3F510509F01CF497FF0DC009C0D9
:104240004130ECE75E0764F097FF03C091958195DC
:10425000910991958195910990938807809387079B
:104260002F3F310509F05CF4CB0177FF03C0919536
:104270008195910990938A078093890705C021153C
:10428000FEE13F070CF051C0952F990F990B852F38
:1042900069E170E00E9499E1262F932F990F990B05
:1042A000832F6AE070E00E9499E185E0689FF00149
:1042B0001124E20FF11DEC58F84F80818823A9F1F9
:1042C000815080838091890790918A0797FF03C06E
:1042D00091958195910990938A078093890744E786
:1042E00057E0BA0123E080E090E0FB01E80FF91FFE
:1042F000308131111AC0019685309105B1F72150F6
:104300006B5F7F4F2111EFCF23E033E080E090E03F
:10431000FA01E80FF91F3083019685309105C1F746
:1043200021504B5F5F4F2111F1CF80918507909114
:10433000860781309A430CF448C02091830730915E
:10434000840780915403909155030197880F991F1A
:10435000582F44272417350734F04796982F88277D
:104360008217930734F468EA7FEF84E590E20E94B5
:10437000232420915403309155038BEF9FEF821B30
:10438000930B982F8827990F2091830730918407EA
:10439000820F931F97FDCF9656E0959587955A9576
:1043A000E1F72091870730918807820F931F909340
:1043B00088078093870797FF03C09195819591099E
:1043C000925090938A0780938907809189079091F2
:1043D0008A07892B59F580E099E3909386078093AB
:1043E000850780915403909155039C012B5F3F4FAB
:1043F000220F331F109283072093840720915303C9
:104400002223A1F0809733E0880F991F3A95E1F7B6
:10441000909388078093870797FF03C091958195B4
:104420009109925090938A07809389070E94312FB7
:1044300024E7E22E27E0F22ED3E087E0982E9D0EAF
:10444000CC24CA94CD0E96E0D92EDD0E8701C4E0AF
:104450005801F8018081882341F0292D43E14C0F58
:104460006C2D8FEF8C0F0E948E2EF8018081823090
:1044700039F42D2D42E14C0F6D2F8C2F0E94C22E4E
:104480000F5F1F4FF5018081833039F42D2D42E1FC
:104490004C0F6D2F8C2F0E94BE2FC75EC138C1F606
:1044A000D65FF5E0EF0EF11CD13239F66091860748
:1044B0008091840722E0260F42E0480F0E948E2E52
:1044C00080915403880F45E1480F2FE36CE30E946D
:1044D0008E2EDF91CF911F910F91FF90EF90DF9083
:1044E000CF90BF90AF909F900C9422290E941E31D4
:1044F0000E946756811106C00E94A05260E080E0D1
:104500000E9466550E94CD5383E99FE1909350032A
:1045100080934F0360E070E088E00E948E1C0E9450
:10452000CB1BDC01CB0188589341A109B1098093D1
:10453000330390933403A0933503B0933603089567
:10454000CF92DF92EF92FF920E945A29882309F4BA
:1045500068C10E94FD3082B382FB992790F981E007
:1045600089279091A00E981759F0909144109923A3
:1045700021F091509093441006C08093A00E03C088
:1045800088E28093441090914703809148039923D7
:1045900041F082508093480381110BC01092470371
:1045A00008C08E5F809348038E3719F481E08093B2
:1045B00047030E94B576882309F491C00E94312FE9
:1045C00069E278E08AE00E942A2D0E94BC7690E0A1
:1045D000FC013197EA30F10508F079C08827EC56E4
:1045E000FF4F8F4F0C94EEE16DE178E084E10E9483
:1045F0002A2D46E158E068E281E00E94562B43E014
:1046000058E061C063EF77E084E10E942A2D4CEE10
:1046100057E068E281E00E94562B49ED57E053C015
:104620006CEC77E084E10E942A2D45EC57E068E2CB
:1046300081E00E94562B42EB57E045C063EA77E0E9
:1046400084E10E942A2D4CE957E068E281E00E9453
:10465000562B49E857E037C069E777E084E10E94CC
:104660002A2D42E757E068E281E00E94562B4FE591
:1046700057E029C060E577E084E10E942A2D49E4F3
:1046800057E068E281E00E94562B46E357E01BC0EA
:1046900061E277E084E10E942A2D4AE157E068E276
:1046A00081E00E94562B47E057E00DC063EF76E0B3
:1046B00084E10E942A2D4CEE56E068E281E00E94DF
:1046C000562B49ED56E062E381E00E94562B809123
:1046D000480360E8681B482F0E945F2932C00E948F
:1046E000CB1BC0903303D0903403E0903503F0909F
:1046F0003603DC01CB018C199D09AE09BF0988384E
:104700009341A105B10518F58091320381110AC0CA
:104710000E94312F64EC76E084E10E942A2D81E032
:10472000809332038091B40B8350833050F40E9405
:10473000CB1B6093330370933403809335039093C2
:104740003603FF90EF90DF90CF900C9422291092C7
:1047500032032DEC3CEC4CE45DE360911E1970914A
:104760001F1980912019909121190E949EE06B01E0
:104770007C0123E333E343E75FE36091040270913C
:10478000050280910602909107020E949EE09B0123
:10479000AC01C701B6010E94A0DC609304027093D3
:1047A000050280930602909307022DEC3CEC4CE44A
:1047B0005DE3609118197091191980911A199091FF
:1047C0001B190E949EE06B017C0123E333E343E766
:1047D0005FE360910002709101028091020290916A
:1047E00003020E949EE09B01AC01C701B6010E943A
:1047F000A0DC609300027093010280930202909308
:104800000302E0914F03F09150031995E0914B039F
:10481000F0914C03309729F0FF90EF90DF90CF900C
:104820001994FF90EF90DF90CF9008951092271980
:104830001092261910922519109224191092780EB0
:1048400008950C94CA300F931F93CF93DF938C017C
:10485000EB011092460310924703109248034CE379
:1048600060E380E30E945F290E94A73080914F039C
:104870009091500390934E0380934D038091540385
:104880009091550390934A038093490310935003EA
:1048900000934F03D0935503C0935403DF91CF91FE
:1048A0001F910F910895EF92FF920F931F93CF9353
:1048B000DF937C018B01EA01209154033091550371
:1048C000283A8FEF3807A9F037FF06C0285E3F4F20
:1048D0003093550320935403209154033091550392
:1048E0002831310534F02851310930935503209394
:1048F00054030E94312F4DE265E080E40E943D2E7A
:1049000040E36CE783E00E94202E80915403909155
:10491000550307960F9790F42BE24BE367E085E091
:104920000E948E2E2AE24AE368E086E00E94BE2FB3
:10493000A70166E181E20E94B92D05C0A70166E1E9
:1049400081E20E94522D8091540390915503089763
:10495000089790F42BE24BE767E085E40E948E2EE7
:104960002AE24AE768E086E40E94BE2FA80166E1D9
:1049700081E60E94B92D05C0A80166E181E60E948A
:10498000522D209739F1809154039091550340970F
:104990000897B0F42DE34BE763E385E00E948E2E89
:1049A0002CE34AE764E386E00E94BE2FBE0185E364
:1049B000DF91CF911F910F91FF90EF900C943E2DBE
:1049C000BE0185E3DF91CF911F910F91FF90EF9092
:1049D0000C942A2DDF91CF911F910F91FF90EF90B2
:1049E00008950E94312F40E36CE783E00C94202E61
:1049F0000F931F93CF93DF931F921F92CDB7DEB714
:104A00008A012091540330915503283A4FEF34071F
:104A1000A9F037FF06C0205F3F4F30935503209326
:104A2000540320915403309155032031310534F063
:104A3000205131093093550320935403209153039F
:104A40002223C1F02091540330915503295F3F4F39
:104A50002F30310578F46115710531F089839A831F
:104A6000FB0119959A818981009721F068EA7FEF0F
:104A70000E9423240E94F1240115110511F402EC77
:104A800019E0809154039091550307960F97F8F41D
:104A90002DE34BE763E385E00E948E2E2CE34AE78B
:104AA00064E386E00E94BE2FC8010E9449E5982F6A
:104AB000990F890FA80165E391E4981B892F0F9046
:104AC0000F90DF91CF911F910F910C94392CC80159
:104AD0000E9449E5982F990F890FA80165E391E499
:104AE000981B892F0F900F90DF91CF911F910F91FD
:104AF0000C94562BAF92BF92CF92DF92EF92FF921F
:104B00000F931F93CF93DF936C01EA015901A0919A
:104B10005403B0915503A83A8FEFB80799F0B7FF47
:104B200005C05096B0935503A0935403809154034D
:104B300090915503803191052CF040979093550347
:104B40008093540380915303882331F1809154035F
:104B5000909155039C01295F3F4F2F30310560F440
:104B60006115710511F0FB011995C114D104A1F073
:104B700068EA7FEFC6010EC00897089768F4011530
:104B8000110511F0F8011995A114B10429F068EA92
:104B90007FEFC5010E9423240E94F12480915403D9
:104BA0009091550307960F97D0F42DE34EE363E3FE
:104BB00085E00E948E2E2CE34DE364E386E00E94A4
:104BC000BE2FCE010E9449E5982F990F890FAE01A3
:104BD00065E393E2981B892F0E94392C0CC0CE010B
:104BE0000E9449E5982F880F980FAE0165E383E294
:104BF000891B0E94562B809154039091550308976E
:104C0000089718F52DE34AE763E382E40E948E2EAD
:104C10002CE349E764E383E40E94BE2FC7010E94AE
:104C200049E5982F990F890FA70165E39FE5981B28
:104C3000892FDF91CF911F910F91FF90EF90DF901F
:104C4000CF90BF90AF900C94392CC7010E9449E5DA
:104C5000982F880F980FA70165E38FE5891BDF91D7
:104C6000CF911F910F91FF90EF90DF90CF90BF9069
:104C7000AF900C94562BEF92FF921F93CF93DF933C
:104C8000C82F2EE24CE766E283E00E948E2ED0E031
:104C9000219714E08CE0E82EF12CCF3F8FEFD8075E
:104CA000C1F01D37B1F0CE01B7010E9499E1AC010E
:104CB000453051051CF4485D68E205C08A3030F487
:104CC00063E2640F4CE2812F0E943D2E1F5F21970B
:104CD000E4CFDF91CF911F91FF90EF9008954F9215
:104CE0005F926F927F928F929F92AF92BF92CF927C
:104CF000DF92EF92FF920F931F93CF93DF93709108
:104D000053037111D8C0E0915403F0915503E83A70
:104D1000FF4F21F41092550310925403A0915403B5
:104D2000B0915503862E062E000C9908B7FF0BC0D4
:104D3000F401EE0FFF1FEE0FFF1FEA0FFB1FF093B2
:104D40005503E0935403E0915403F0915503D401CB
:104D5000AA0FBB1FAA0FBB1FEA17FB074CF074E09A
:104D60006702E019F1091124F0935503E09354030D
:104D7000009154031091550317FF02C00D5F1F4FA0
:104D800079015A016C011595079515950795702EB7
:104D90000E94312FA0913703B0913803C8019927A1
:104DA00063E0880F991F6A95E1F70F978A1B9B0BA9
:104DB000EC0197FD2396D595C795D595C795AC0F72
:104DC000BD1F1816190614F4119608C0892B29F472
:104DD000B0933803A093370309C01197B0933803F9
:104DE000A093370310924703109248038091370332
:104DF00090913803282F277033E0969587953A9540
:104E0000E1F79AE3692E621ADAE0D21BC82F8C2FE1
:104E100090E088159905DCF48C2FF50119952C018B
:104E2000FC01148AC7110EC027E02D0F4CE76FEF6D
:104E30006D0F83E00E94BE2FA2016D2F84E00E94BF
:104E4000482A05C0AC016D2F84E00E946629CF5F1F
:104E5000D85FD611DCCF28E04CE760E083E00E9409
:104E6000BE2F2FE34CE76FE283E00E943C2F29E046
:104E70004CE769E083E00E943C2F40E36CE783E06D
:104E80000E94202EB60181E00E943E2D802FF70166
:104E90001995DF91CF911F910F91FF90EF90DF90C7
:104EA000CF90BF90AF909F908F907F906F905F90CA
:104EB0004F900C942229DF91CF911F910F91FF9079
:104EC000EF90DF90CF90BF90AF909F908F907F90AA
:104ED0006F905F904F9008950F931F93CF93DF9340
:104EE000CDB7DEB766970FB6F894DEBF0FBECDBF65
:104EF00080913D0390913E032091540330915503DE
:104F00002817390724F49093550380935403809114
:104F10003B0390913C032091540330915503821739
:104F2000930724F4909355038093540380913F0397
:104F3000813041F4E0914003F091410380915403AA
:104F400080838EC0823059F4E0914003F091410398
:104F500080915403909155039183808381C0833065
:104F6000A9F40091400310914103609154037091A2
:104F70005503072E000C880B990B0E9449DE20E098
:104F800030E048EC52E40E949FDD65C0843089F433
:104F9000E0914003F09141038091540390915503B7
:104FA000092E000CAA0BBB0B80839183A283B383D1
:104FB00057C08530A1F4E0914003F0914103209166
:104FC0005403309155034FEF429FC001439F900D12
:104FD000112464E670E00E9499E1608341C086304C
:104FE00099F4009140031091410360915403709132
:104FF0005503072E000C880B990B0E9449DE20E018
:1050000030E040E752E414C08730A9F40091400337
:10501000109141036091540370915503072E000CC9
:10502000880B990B0E9449DE20E030E048EC52E406
:105030000E949EE010C0883099F4009140031091C6
:1050400041036091540370915503072E000C880BA7
:10505000990B0E9449DEF8016083718382839383F8
:105060000E94F124609144037091450384E10E9401
:105070002A2D20913F038091540390915503009174
:10508000420310914303233099F4BC01990F880B1C
:10509000990B0E9449DE20E030E048EC52E40E9487
:1050A0009FDD9801AE014F5F5F4F0E94FD3206C049
:1050B000A801BE016F5F7F4F0E94E331BE016F5FA9
:1050C0007F4F8EE10E94362B6BEB79E0CE0101968B
:1050D0000E9442E520913F03009142031091430357
:1050E0008091390390913A03233099F4BC01990FD0
:1050F000880B990B0E9449DE20E030E048EC52E436
:105100000E949FDD9801AE01495F5F4F0E94FD3212
:1051100006C0A801BE01695F7F4F0E94E331BE0156
:105120006F5F7F4F85E30E94362B0E94222980917A
:105130005303882351F06091490370914A03809191
:105140004D0390914E030E94232466960FB6F89467
:10515000DEBF0FBECDBFDF91CF911F910F9108959C
:105160009091BC0097FFFCCF8093BB0084E88093B4
:10517000BC0008958091BC0087FFFCCF84E9809338
:10518000BC0008951F93CF93DF931F92CDB7DEB776
:10519000182F84EA8093BC0080EC69830E94B028B9
:1051A000812F0E94B0286981862F0E94B0280F901D
:1051B000DF91CF911F910C94BA281F920F920FB6D6
:1051C0000F9211240BB60F922F933F934F935F933F
:1051D0006F937F938F939F93AF93BF93EF93FF93BF
:1051E0008091570390915803811524E0920719F498
:1051F0000E94BA2814C0FC01E45AFC4F80810E942E
:10520000B0288091BC0081608093BC0080915703DE
:105210009091580301969093580380935703FF9100
:10522000EF91BF91AF919F918F917F916F915F911E
:105230004F913F912F910F900BBE0F900FBE0F908B
:105240001F90189560915B0382E00E94C2286091D4
:105250005A0383E00E94C2286091590384E00E94AF
:10526000C22884EA8093BC0088E70E94B02880E0CE
:105270000E94B02880E00E94B02880E10E94B028FF
:1052800080EB0E94B0288091BC0087FFFCCF84EAAD
:105290008093BC0088E70E94B02880E40E94B02878
:1052A00010925803109257038091BC008160809344
:1052B000BC0008958091BC00809581700895809312
:1052C0005B0360935A03409359030895DF92EF9272
:1052D000FF920F931F93CF93DF93962F96959695FA
:1052E0009695A82FB0E080E8989FA00DB11D1124DD
:1052F0009D01245A3C4FA452BC4F677078E0761B46
:10530000E901249615E0FA01E080EE2009F4B8C026
:10531000F12CE0E2EE1AF1081E9DC0011F9D900DD8
:1053200011248052964FFC01F490062E01C0FF0C10
:105330000A94EAF7F901E080FE28F0827E01F3E0AA
:10534000EF1AF108FC013196E4910E2F062E01C0F0
:10535000000F0A94EAF7F701D0800D2900837E013F
:10536000F2E0EF1AF108FC013296E4910E2F062EBE
:1053700001C0000F0A94EAF7F701D0800D290083DD
:10538000FC013396E4910E2F062E01C0000F0A9403
:10539000EAF7FE01D2900D290083FC013496E491D6
:1053A000062E01C0EE0F0A94EAF78881E82BE88305
:1053B0002A5F3F4F662309F45FC0FA01E080F12CB9
:1053C000F0E2EF1AF1081E9DC0011F9D900D1124FF
:1053D0008052964FFC010491E02FF0E0072E02C0AE
:1053E000F595E7950A94E2F7FC91EF2BEC93FC011D
:1053F0003196E491F0E0072E02C0F595E7950A9406
:10540000E2F71196FC911197EF2B1196EC931197FF
:10541000FC013296E491F0E0072E02C0F595E79585
:105420000A94E2F71296FC911297EF2B1296EC93E6
:105430001297FC013396E491F0E0072E02C0F59537
:10544000E7950A94E2F71396FC911397EF2B1396C6
:10545000EC931397FC013496E491F0E0072E02C020
:10546000F595E7950A94E2F714968C911497E82B3A
:105470001496EC93149716964F5F5F4F269643CF82
:10548000DF91CF911F910F91FF90EF90DF900895E2
:10549000DF92EF92FF920F931F93CF93DF93962F9C
:1054A000969596959695A82FB0E080E8989FA00DC8
:1054B000B11D11249D01245A3C4FA452BC4F67706A
:1054C00078E0761BE901249615E0FA01E080EE20F1
:1054D00009F4C4C0F12CE0E2EE1AF1081E9DC001EF
:1054E0001F9D900D11248052964FFC01F490EF2DDA
:1054F000062E01C0EE0F0A94EAF7FE2EF094F90191
:10550000E080FE20F0827E01F3E0EF1AF108FC015A
:105510003196E491062E01C0EE0F0A94EAF70E2FA1
:105520000095F701D0800D2100837E01F2E0EF1A93
:10553000F108FC013296E491062E01C0EE0F0A94A8
:10554000EAF70E2F0095F701D0800D210083FC01B2
:105550003396E491062E01C0EE0F0A94EAF70E2F5F
:105560000095FE01D2900D210083FC013496E49158
:10557000062E01C0EE0F0A94EAF7E0958881E82331
:10558000E8832A5F3F4F662309F464C0FA01E08094
:10559000F12CF0E2EF1AF1081E9DC0011F9D900D45
:1055A00011248052964FFC010491E02FF0E0072E69
:1055B00002C0F595E7950A94E2F7E095FC91EF2398
:1055C000EC93FC013196E491F0E0072E02C0F595D2
:1055D000E7950A94E2F7E0951196FC911197EF2375
:1055E0001196EC931197FC013296E491F0E0072EAE
:1055F00002C0F595E7950A94E2F7E0951296FC91C2
:105600001297EF231296EC931297FC013396E491D4
:10561000F0E0072E02C0F595E7950A94E2F7E095D1
:105620001396FC911397EF231396EC931397FC01B9
:105630003496E491F0E0072E02C0F595E7950A94C0
:10564000E2F7E09514968C911497E8231496EC9366
:10565000149716964F5F5F4F269637CFDF91CF9105
:105660001F910F91FF90EF90DF900895AB01FB0128
:1056700001900020E9F73197E61BF70B9E2F990F59
:10568000E90F682F80E48E1B0C946629AB01FB01A7
:1056900001900020E9F73197E61BF70B9E2F990F39
:1056A000E90F682F80E48E1B0C94482A7F928F921A
:1056B0009F92AF92BF92CF92DF92EF92FF920F93A1
:1056C0001F93CF93DF93962F969596959695A82F37
:1056D000B0E020E8929FA00DB11D1124CD01845AA5
:1056E0009C4F5C01A452BC4F677078E0761BFA01B6
:1056F00024916C01F4E0CF0ED11C85E0982E22237A
:1057000009F4A9C030E020523109929EC001939E55
:10571000900D11248052964FFC012491062E01C059
:10572000220F0A94EAF7F5013081232B2083E6014A
:1057300023977C01FFEFEF1AFF0AF7012491062E51
:1057400001C0220F0A94EAF73881232B288321967F
:105750008C010E5F1F4FF8012491062E01C0220F0D
:105760000A94EAF73881232B2883EC012396FE0163
:105770008490062E01C0880C0A94EAF7F601729014
:10578000872880829C012C5F3F4FF9018490062E70
:1057900001C0880C0A94EAF7F6017080872880829D
:1057A000F6E0AF0EB11C662309F44DC0FC018491F4
:1057B00090E0072E02C0959587950A94E2F79C9198
:1057C000892B8C93F701E490F12C072E02C0F594FD
:1057D000E7940A94E2F711968C911197E82A1196B2
:1057E000EC921197F801049110E0072E02C0159574
:1057F00007950A94E2F712968C911297082B12964D
:105800000C931297FE01C491D0E0072E02C0D595EB
:10581000C7950A94E2F713968C911397C82B1396A9
:10582000CC931397F901249130E0072E02C03595EF
:1058300027950A94E2F714968C911497282B1496C6
:105840002C93149716964F5F5F4FFA012491F6E060
:10585000CF0ED11C54CFDF91CF911F910F91FF90AC
:10586000EF90DF90CF90BF90AF909F908F907F9000
:1058700008957F928F929F92AF92BF92CF92DF92C4
:10588000EF92FF920F931F93CF93DF93962F9695EE
:1058900096959695A82FB0E020E8929FA00DB11D97
:1058A0001124CD01845A9C4F5C01A452BC4F6770F7
:1058B00078E0761BFA0124916C01F4E0CF0ED11C44
:1058C00085E0982E222309F4B7C030E02052310938
:1058D000929EC001939E900D11248052964FFC0120
:1058E0002491062E01C0220F0A94EAF72095F501B3
:1058F000308123232083E60123977C01FFEFEF1AF9
:10590000FF0AF7012491062E01C0220F0A94EAF73C
:10591000209538812323288321968C010E5F1F4F09
:10592000F8012491062E01C0220F0A94EAF720956F
:10593000388123232883EC012396FE018490E82DEF
:10594000062E01C0EE0F0A94EAF78E2E8094F6011F
:105950007290872080829C012C5F3F4FF9018490D8
:10596000E82D062E01C0EE0F0A94EAF78E2E8094E1
:10597000F601708087208082F6E0AF0EB11C6623AE
:1059800009F452C0FC01849190E0072E02C0959565
:1059900087950A94E2F780959C9189238C93F7016F
:1059A000E490F12C072E02C0F594E7940A94E2F7F4
:1059B000E09411968C911197E8221196EC92119730
:1059C000F801049110E0072E02C0159507950A947E
:1059D000E2F7009512968C911297082312960C9379
:1059E0001297FE01C491D0E0072E02C0D595C7954D
:1059F0000A94E2F7C09513968C911397C8231396D7
:105A0000CC931397F901249130E0072E02C035950D
:105A100027950A94E2F7209514968C9114972823E1
:105A200014962C93149716964F5F5F4FFA012491AA
:105A3000F6E0CF0ED11C46CFDF91CF911F910F9191
:105A4000FF90EF90DF90CF90BF90AF909F908F909E
:105A50007F9008951F93CF93DF93182FEB01CB0115
:105A60000E9449E5982F880F980FAE01612F80E4BE
:105A7000891BDF91CF911F910C94562B1F93CF93CD
:105A8000DF93182FEB01CB010E9449E5982F880F77
:105A9000980FAE01612F80E4891BDF91CF911F9198
:105AA0000C94392CAF92BF92CF92DF92EF92FF927B
:105AB0000F931F93CF93DF93CDB7DEB72A970FB61F
:105AC000F894DEBF0FBECDBFE82EF62E6A016CE75C
:105AD00070E0CA010E942EE58C01009769F15C011B
