:100000000C94540F0C940E120C943F120C9470121A
:100010000C94A1120C94D2120C9403130C9434136C
:100020000C9465130C94850F0C94850F0C94850F1C
:100030000C94850F0C949C840C94850F0C94850F64
:100040000C94850F0C94255D0C94850F0C94850FF2
:100050000C94850F0C94850F0C9480700C94870F72
:100060000C94850F0C946C380C94850F0C94850FB0
:100070000C94850F0C94850F0C94850F0C94850FB0
:100080000C94850F0C94850F0C94850F0C94850FA0
:100090000C94850F0C94850F0C94850F0C94850F90
:1000A0000C94850F0C94850F0C94850F0C94850F80
:1000B0000C94850F0C94850F0C94850F0C94850F70
:1000C0000C94850F0C94850F0C94850F0C94850F60
:1000D0000C94850F0C94850F0C94850F0C94850F50
:1000E0000C94850FB910BE10C310CD104611D71057
:1000F000DF10E710F110FB10051114111E1146114D
:10010000281132113C11641167115A115E119E11B0
:100110006B116F11751179117D11831187118B117D
:100120009E119111951199113F203F204A204A209C
:100130004A205520552055206A20602060206020EC
:10014000D970E870047113712D713C7156715A7138
:100150006271084AD73B3BCE016E84BCBFFDC12F04
:100160003D6C74319ABD56833DDA3D00C77F11BEA8
:10017000D9E4BB4C3E916BAAAABE000000803F05AB
:10018000A84CCDB2D44EB93836A9020C50B99186DC
:1001900088083CA6AAAA2ABE000000803F000009E9
:1001A0000A02080B0C0D0706030401000000000002
:1001B000000000000000000000000000000000003F
:1001C00000000000000000000011100F00000000FF
:1001D000000000000000000000000000000000001F
:1001E00000000001021020200808102040102040CC
:1001F00080020102010804020101020408102040EB
:100200008080402010080402018004020180402008
:100210001008040201080402010102040810204031
:100220008001020408102040800505050507050827
:10023000080808020202020A0A0808040404040169
:10024000010101010101010303030303030303048B
:100250000707070C0C0C0C0C0C0C0C02020202061B
:10026000060606060606060B0B0B0B0B0B0B0B000C
:10027000002200250028002B002E0031003400024F
:10028000010000050108010B0100002100240027E6
:10029000002A002D00300033000101000004010796
:1002A000010A0153544F505045442E2000507269AA
:1002B0006E7465722073746F707065642064756508
:1002C00020746F206572726F72732E2046697820D9
:1002D000746865206572726F7220616E6420757338
:1002E00065204D39393920746F20726573746172DD
:1002F000742E202854656D70657261747572652066
:1003000069732072657365742E2053657420697457
:100310002061667465722072657374617274696EAF
:100320006729004B494C4C45442E20005072696EA1
:100330007465722068616C7465642E206B696C6CE6
:1003400028292063616C6C656421006F6B00526525
:1003500073656E643A20002200556E6B6E6F776E87
:1003600020636F6D6D616E643A2022004368616E98
:1003700067652066696C616D656E74005A204F6612
:1003800066736574203A20007A5F6D61783A2000C8
:100390007A5F6D696E3A20005A204F666673657405
:1003A000005A204F6666736574206F6B00486F7447
:1003B000656E64206F6666736574733A007A5F6D6C
:1003C000696E3A2000795F6D696E3A2000785F6D42
:1003D000696E3A2000205A3A0020593A0020436FB3
:1003E000756E7420583A200020453A00205A3A0091
:1003F00020593A00583A004649524D574152455FFC
:100400004E414D453A4D61726C696E2056313B202C
:10041000537072696E7465722F6772626C206D61C1
:100420007368757020666F722067656E3620464966
:10043000524D574152455F55524C3A687474703A68
:100440002F2F6669726D776172652E756C74696D98
:10045000616B65722E636F6D2050524F544F434F46
:100460004C5F56455253494F4E3A312E30204D4144
:100470004348494E455F545950453A556C74696D2F
:10048000616B65722045585452554445525F434F45
:10049000554E543A3220555549443A303030303078
:1004A0003030302D303030302D303030302D303055
:1004B00030302D3030303030303030303030300A65
:1004C00000556C74696D616B6572204F66662E0015
:1004D00042656420646F6E652E0020423A0020451C
:1004E0003A00543A004265642048656174696E6759
:1004F0002E0048656174696E6720646F6E652E001A
:1005000020573A0020453A00543A00486561746922
:100510006E672E2E2E002042403A0020403A0020E6
:100520002F003A00205400202F0020423A00202FB4
:10053000006F6B20543A002569206D696E2C2025D0
:10054000692073656300456E642066696C65206C84
:1005500069737400426567696E2066696C65206C1A
:10056000697374004E6F206D6F76652E005265734F
:10057000756D696E67207072696E74005761697479
:1005800020666F7220757365722E2E2E00536C6577
:1005900065702E2E2E00256920686F7572732025D8
:1005A00069206D696E7574657300446F6E652070A7
:1005B00072696E74696E672066696C650053544F8A
:1005C000505045442E20005072696E74657220733D
:1005D000746F707065642064756520746F20657237
:1005E000726F72732E204669782074686520657278
:1005F000726F7220616E6420757365204D393939D0
:1006000020746F20726573746172742E2028546593
:100610006D7065726174757265206973207265739F
:1006200065742E2053657420697420616674657248
:100630002072657374617274696E6729006F6B0054
:100640004E6F204C696E65204E756D626572207725
:1006500069746820636865636B73756D2C204C61E9
:100660007374204C696E653A20004E6F20436865B4
:10067000636B73756D2077697468206C696E652093
:100680006E756D6265722C204C617374204C696EBE
:10069000653A2000636865636B73756D206D6973DF
:1006A0006D617463682C204C617374204C696E65B5
:1006B0003A20004C696E65204E756D626572206946
:1006C00073206E6F74204C617374204C696E6520CA
:1006D0004E756D6265722B312C204C617374204C09
:1006E000696E653A20004D31313000446F6E6520EF
:1006F000736176696E672066696C652E006F6B00AA
:100700004D3239002020506C616E6E657242756604
:1007100066657242797465733A2000204672656599
:10072000204D656D6F72793A20004A756E20313721
:10073000203230313600436F6D70696C65643A2049
:100740000028446176696420427261616D2900204D
:100750007C20417574686F723A20004A756E2031B2
:100760003720323031362031333A31313A343900A2
:10077000204C61737420557064617465643A200084
:10078000312E302E30004D61726C696E0020536F37
:1007900066747761726520526573657400205761D5
:1007A000746368646F6720526573657400204272D9
:1007B0006F776E206F7574205265736574002045E5
:1007C000787465726E616C20526573657400506F49
:1007D0007765725570007374617274002200656EE3
:1007E000717565696E672022002200656E717565FE
:1007F000696E67202200FFFFFF0000A0400000A0FC
:1008000040000000400000524300005243000052EC
:100810004300000000000000000000000000005243
:10082000430000524300005243000000000000005B
:1008300000000000006563686F3A004572726F72D5
:100840003A007C3C3E5E2B3D3F2F5B5D3B2C2A22D9
:100850005C0020746F6F206C6F6E67206578747217
:100860007573696F6E2070726576656E746564006D
:1008700020636F6C6420657874727573696F6E2085
:1008800070726576656E746564006563686F3A00C2
:10089000656E6473746F7073206869743A205A00CF
:1008A000205A3A00656E6473746F707320686974BF
:1008B0003A20590020593A00656E6473746F707362
:1008C000206869743A20580020583A00656E6473B5
:1008D000746F7073206869743A200024F4D4305027
:1008E000C38E20C2A24017828B7011127A910D81A3
:1008F0006CD90AA861E108C7586607615143061E12
:100900004B5D05C145A7041A411104093D980371C7
:100910003931034036DB0265339102D43054028012
:100920002E1D02632CEE01752AC501B028A001100E
:100930002781018F2564012B244B01E0223401AC77
:10094000211F018D200D01801FFC00841EED0097EA
:100950001DDF00B81CD200E61BC600201BBC0064D3
:100960001AB200B219A8000A19A0006A189900D199
:1009700017910040178B00B516840031167E00B326
:100980001579003A157300C7146F0058146A00EE09
:100990001366008813630025135E00C7125B006CAA
:1009A00012570015125400C111510070114F00214F
:1009B000114B00D61049008D10470046104400022C
:1009C000104200C00F4000800F3E00420F3C000666
:1009D0000F3B00CB0E3800930E37005C0E3500271E
:1009E0000E3400F30D3200C10D3100900D30006067
:1009F0000D2E00320D2D00050D2C00D90C2B00AE54
:100A00000C2900850C29005C0C2700350C27000EF2
:100A10000C2600E80B2400C40B2400A00B23007D4F
:100A20000B23005A0B2100390B2100180B2000F872
:100A30000A1F00D90A1E00BB0A1E009D0A1D008065
:100A40000A1D00630A1C00470A1B002C0A1B001128
:100A50000A1A00F7091A00DD091900C4091900ABC8
:100A6000091900920917007B091800630917004C47
:100A700009160036091600200916000A091500F5A6
:100A8000081500E0081400CC081400B8081400A4ED
:100A9000081400900813007D0812006B081300581A
:100AA0000812004608120034081100230811001231
:100AB00008110001081100F0071000E0071000D035
:100AC000071000C0071000B0070F00A10710009129
:100AD000070E0083070F0074070F0065070E00570D
:100AE000070E0049070E003B070D002E070E0020E1
:100AF000070D0013070D0006070D00F9060C00EDA9
:100B0000060D00E0060C00D4060C00C8060C00BC64
:100B1000060C00B0060C00A4060B0099060C008D14
:100B2000060B0082060B0077060B006C060B0061BB
:100B3000060A0057060B004C060A0042060A003857
:100B4000060A002E060A0024060A001A060A0010E9
:100B500006090007060A00FD050900F4050900EB77
:100B6000050900E2050900D9050900D0050900C7FB
:100B7000050900BE050900B5050800AD050800A57A
:100B80000509009C050800940508008C05080084F0
:100B90000508007C050800740508006C0507006561
:100BA0000508005D050700560508004E05070047CB
:100BB0000507004005080038050700310507002A31
:100BC000050700230507001C050600160507000F92
:100BD0000507000805060002050700FB040600F5EE
:100BE000040700EE040600E8040600E2040700DB48
:100BF000040600D5040600CF040600C9040600C39D
:100C0000040600BD040600B7040600B1040500ACEC
:100C1000040600A6040600A00405009B0406009537
:100C2000040500900406008A040500850405008080
:100C30000406007A04050075040500700405006BC5
:100C400004050066040500610405005C0405005706
:100C5000040500520405004D040500480405004346
:100C60000405003E0404003A040500350405003084
:100C70000404002C04050027040400230405001EBE
:100C80000404001A04040016040500110404000DF5
:100C9000040400090405000404040000040400FC2A
:100CA000030400F8030400F4030400F0030400EC60
:100CB000030400E8030400E4030400E0030400DC90
:100CC000030400D8030400D4030400D0030400CCC0
:100CD000030400C8030300C503030024F404D9205F
:100CE0001BC40C5C0E9804C4095F0265077101F413
:100CF00005F900FB04B30048048700C103690058EC
:100D000003550003034500BE023A0084023100533C
:100D1000022A002902250004022000E4011C00C868
:100D2000011900AF0117009801140084011300712C
:100D30000110006101100051010E0043010D003649
:100D4000010B002B010B0020010B00150109000C09
:100D500001090003010800FB000800F3000800EB94
:100D6000000700E4000600DE000600D8000600D2FE
:100D7000000600CC000500C7000500C2000500BD4C
:100D8000000400B9000400B5000400B1000400AD87
:100D9000000400A9000400A5000300A20003009FB6
:100DA0000004009B000300980003009500020093DC
:100DB000000300900003008D0002008B00030088F8
:100DC0000002008600020084000300810002007F10
:100DD0000002007D0002007B000200790002007723
:100DE0000001007600020074000200720001007130
:100DF0000002006F0002006D0001006C0002006A3A
:100E00000001006900020067000100660001006542
:100E10000001006400020062000100610001006046
:100E20000001005F0002005D0001005C0001005B4A
:100E30000001005A0001005900010058000100574C
:100E4000000100560001005500010054000100534C
:100E50000000005300010052000100510001005049
:100E60000001004F0001004E0000004E0001004D47
:100E70000001004C0001004B0000004B0001004A43
:100E8000000100490001004800000048000100473F
:100E9000000100460000004600010045000000453A
:100EA0000001004400010043000000430001004233
:100EB000000000420001004100000041000100402C
:100EC0000001003F0000003F0001003E0000003E26
:100ED0000001003D0000003D0001003C0000003C1E
:100EE0000000003C0001003B0000003B0001003A14
:100EF0000000003A0001003900000039000100380C
:100F00000000003800000038000100370000003702
:100F100000010036000000360000003600010035F8
:100F200000000035000000350001003400000034EE
:100F300000000034000100330000003300000033E3
:100F400000010032000000320000003200010031D8
:100F500000000031000000310001003000000030CE
:100F6000000000300001002F0000002F0000002FC3
:100F70000000002F0001002E0000002E0000002EB7
:100F80000001002D0000002D0000002D0000002DAC
:100F90000001002C0000002C0000002C0000002CA0
:100FA0000001002B0000002B0000002B0000002B94
:100FB0000001002A0000002A0000002A0000002A88
:100FC000000100290000002900000029000000297C
:100FD000000000290001002800000028000000286F
:100FE0000000002800000028000100270000002762
:100FF0000000002700000027000000270001002655
:101000000000002600000026000000260000002648
:10101000000100250000002500000025000000253B
:10102000000000250000002500010024000000242D
:101030000000002400000024000000240001002320
:101040000000002300000023000000230000002314
:101050000000002300000023000100220000002205
:1010600000000022000000220000002200000022F8
:1010700000010021000000210000002100000021EB
:1010800000000021000000210000002100010020DC
:1010900000000020000000200000002000000020D0
:1010A0000000002000000020000000200001001FC0
:1010B0000000001F0000001F0000001F0000001FB4
:1010C0000000001F0000001F0001001E0000001EA5
:1010D0000000001E0000001E0000006563686F3AFB
:1010E000004572723A204D415854454D50204245BA
:1010F000440054656D706572617475726520686531
:1011000061746564206265642073776974636865DF
:1011100064206F66662E204D415854454D50207412
:101120007269676765726564202121004572723AB1
:10113000204D494E54454D50003A20457874727503
:10114000646572207377697463686564206F66668E
:101150002E204D494E54454D502074726967676585
:101160007265642021004572723A204D4158544501
:101170004D50003A2045787472756465722073771B
:10118000697463686564206F66662E204D4158540B
:10119000454D50207472696767657265642021004F
:1011A00048656174696E67206661696C65640020DA
:1011B0002D20496E76616C6964206578747275645F
:1011C0006572206E756D6265722021005049442061
:1011D0004175746F74756E652066696E69736865B4
:1011E00064212050757420746865206C61737420CC
:1011F0004B702C204B6920616E64204B6420636F20
:101200006E7374616E74732066726F6D2061626FAD
:10121000766520696E746F20436F6E6669677572BC
:101220006174696F6E2E6800504944204175746F77
:1012300074756E65206661696C6564212074696DE2
:10124000656F75740020403A006F6B20543A006F50
:101250006B20423A00504944204175746F74756E9A
:1012600065206661696C6564212054656D706572E6
:10127000617475726520746F6F20686967680020FB
:101280004B643A2000204B693A2000204B703A20F2
:101290000020436C6173736963205049442000202F
:1012A00054753A2000204B753A2000206D61783A41
:1012B0002000206D696E3A200020643A20002062F0
:1012C0006961733A20006563686F3A004572726F16
:1012D000723A0000000000300E0100C00E0A0050FB
:1012E0000F1400D00F1E0060102800E010320070B4
:1012F000113C00F01146007012500000135A00809B
:1013000013640000146E0090147800101582009091
:10131000158C00101696009016A0001017AA0090C9
:1013200017B4001018BE009018C8001019D2009011
:1013300019DC00101AE600801AF000001BFA008089
:101340001B0401F01B0E01701C1801F01C2201602F
:101350001D2C01E01D3601501E4001D01E4A0140E7
:101360001F5401B01F5E0130206801A020720110DF
:10137000217C0190218601002290016026F40190D9
:101380002A5802802EBC0250322003E035840350DC
:1013900039E803803C4C044D383420582059205AF9
:1013A00020450043616E6E6F7420656E7465722017
:1013B0007375626469723A20004D3234004D3233E5
:1013C000202573006175746F25692E670065727240
:1013D0006F722077726974696E6720746F20666916
:1013E0006C65004E6F74205344207072696E74698E
:1013F0006E67002F005344207072696E74696E67C7
:10140000206279746520002E0044656C6574696FF4
:101410006E206661696C65642C2046696C653A20B3
:101420000046696C652064656C657465643A002EDD
:10143000006F70656E206661696C65642C2046697A
:101440006C653A200057726974696E6720746F206A
:1014500066696C653A20002E006F70656E206661CB
:10146000696C65642C2046696C653A20002E006F1B
:1014700070656E206661696C65642C2046696C65D8
:101480003A200046696C652073656C656374656419
:10149000002053697A653A200046696C65206F70B8
:1014A000656E65643A20002E006F70656E2066617F
:1014B000696C65642C2046696C653A20004E6F7734
:1014C0002066726573682066696C653A20004E6F0D
:1014D0007720646F696E672066696C653A20002228
:1014E00020706F73002220706172656E743A220062
:1014F000535542524F5554494E452043414C4C2080
:101500007461726765743A2200747279696E67203B
:10151000746F2063616C6C207375622D67636F64F8
:10152000652066696C6573207769746820746F6FD5
:10153000206D616E79206C6576656C732E204D414F
:1015400058206C6576656C2069733A0053442063BB
:10155000617264206F6B006F70656E526F6F7420E4
:101560006661696C656400766F6C756D652E696E79
:101570006974206661696C656400534420696E6912
:1015800074206661696C006563686F3A0045727229
:101590006F723A0048617264636F646564204465E9
:1015A0006661756C742053657474696E6773204C42
:1015B0006F616465640053746F7265642073657451
:1015C00074696E677320726574726965766564000C
:1015D0002044002049002020204D3330312050008D
:1015E0005049442073657474696E67733A00205AD9
:1015F0000020590020204D323036205800486F6DB1
:1016000065206F666673657420286D6D293A002029
:101610004500205A0020580020420020540020207D
:101620004D323035205300416476616E636564202D
:101630007661726961626C65733A20533D4D696EE3
:1016400020666565647261746520286D6D2F73294D
:101650002C20543D4D696E2074726176656C206655
:101660006565647261746520286D6D2F73292C2067
:10167000423D6D696E696D756D207365676D656E50
:10168000742074696D6520286D73292C20583D6D78
:101690006178696D756D205859206A65726B2028D4
:1016A0006D6D2F73292C20205A3D6D6178696D7501
:1016B0006D205A206A65726B20286D6D2F73292C5E
:1016C0002020453D6D6178696D756D2045206A6506
:1016D000726B20286D6D2F73290020540020204D3F
:1016E000323034205300416363656C657261746904
:1016F0006F6E3A20533D616363656C657261746916
:101700006F6E2C20543D7265747261637420616346
:1017100063656C65726174696F6E00204500205AC4
:101720000020590020204D3230312058004D617882
:10173000696D756D20416363656C65726174696F75
:101740006E20286D6D2F7332293A00204500205AF3
:101750000020590020204D3230332058004D617850
:10176000696D756D206665656472617465732028A6
:101770006D6D2F73293A00204500205A0020590032
:1017800020204D39322058005374657073207065E5
:101790007220756E69743A0053657474696E67736C
:1017A0002053746F726564006563686F3A0002438A
:1017B0006172642072656D6F766564004361726466
:1017C00020696E736572746564002D2D3A2D2D00AD
:1017D0002D2D2D0053440001200001200001200088
:1017E0004D363030004368616E67652066696C6114
:1017F0006D656E7400466C6F77203100466C6F77B4
:10180000203100466C6F77203000466C6F772030B7
:101810000046616E2073706565640046616E2073DA
:10182000706565640042656400426564004E6F7ACD
:101830007A6C6532004E6F7A7A6C6532004E6F7A40
:101840007A6C65004E6F7A7A6C65005370656564DA
:10185000005370656564004D61696E004D38342039
:10186000583020593000473238005A0050726568AD
:1018700065617420504C4120426564005072656877
:1018800065617420504C4120416C6C005072656859
:1018900065617420504C412032005072656865616A
:1018A0007420504C412031005072657061726500A7
:1018B000507265686561742041425320426564003E
:1018C000507265686561742041425320416C6C0020
:1018D0005072656865617420414253203200507235
:1018E0006568656174204142532031005072657013
:1018F00061726500580059005A0045787472756429
:101900006572004578747275646572004D6F766516
:10191000205A004D6F76652059004D6F766520582E
:10192000004D6F76652061786973004D6F76652094
:10193000302E316D6D004D6F766520316D6D004D2F
:101940006F76652031306D6D005072657061726523
:10195000004D6F7665206178697300436F6F6C642A
:101960006F776E0050726568656174204142530064
:101970005072656865617420504C41004D6F76650A
:10198000205A004175746F20686F6D65004D3834C2
:101990000044697361626C65207374657070657270
:1019A00073004D61696E0053746F7265206D656DD3
:1019B0006F72790042656400426564004E6F7A7A06
:1019C0006C65004E6F7A7A6C650046616E207370AC
:1019D0006565640046616E207370656564005465DA
:1019E0006D70657261747572650053746F726520F5
:1019F0006D656D6F72790042656400426564004EEA
:101A00006F7A7A6C65004E6F7A7A6C650046616E0B
:101A10002073706565640046616E2073706565644F
:101A20000054656D70657261747572650050726501
:101A3000686561742041425320636F6E6600507286
:101A4000656865617420504C4120636F6E6600507C
:101A500049442D43005049442D43005049442D44EE
:101A6000005049442D44005049442D4900504944F8
:101A70002D49005049442D50005049442D500046F6
:101A8000616E2073706565640046616E20737065D9
:101A900065640042656400426564004E6F7A7A6C4A
:101AA0006532004E6F7A7A6C6532004E6F7A7A6CCE
:101AB00065004E6F7A7A6C6500436F6E74726F6C5E
:101AC000004573746570732F6D6D00457374657098
:101AD000732F6D6D005A73746570732F6D6D005A9E
:101AE00073746570732F6D6D005973746570732F07
:101AF0006D6D005973746570732F6D6D005873743C
:101B00006570732F6D6D005873746570732F6D6DF4
:101B100000412D7265747261637400412D726574A9
:101B20007261637400416D6178206500416D617878
:101B3000206500416D6178207A00416D6178207ADE
:101B400000416D6178207900416D61782079004114
:101B50006D6178207800416D61782078005654726C
:101B60006176206D696E005654726176206D696EE3
:101B700000566D696E00566D696E00566D61782075
:101B80006500566D6178206500566D6178207A0099
:101B9000566D6178207A00566D6178207900566D17
:101BA0006178207900566D6178207800566D6178F3
:101BB00020780056652D6A65726B0056652D6A6542
:101BC000726B00567A2D6A65726B00567A2D6A65C3
:101BD000726B005678792D6A65726B005678792D94
:101BE0006A65726B00416363656C00416363656C99
:101BF00000436F6E74726F6C004A756E203137202F
:101C0000323031362031333A31313A3532003235E3
:101C1000303030305F6475616C00556C74696D6193
:101C20006B65722B3A31352E30342E372D524335B9
:101C3000004669726D776172652076657273696FAF
:101C40006E004669726D77617265207665727369A0
:101C50006F6E00526573746F7265206661696C7394
:101C6000616665004C6F6164206D656D6F7279000F
:101C700053746F7265206D656D6F7279004D6F746E
:101C8000696F6E0054656D70657261747572650080
:101C90004D61696E004D383420582059205A204536
:101CA000004D3234004D323320257300052E2E00B6
:101CB0004D61696E004E6F20534420636172640071
:101CC0005072696E742066726F6D205344005374B5
:101CD0006F70207072696E7400526573756D652047
:101CE0007072696E74005061757365207072696EF0
:101CF0007400436F6E74726F6C0050726570617225
:101D0000650054756E6500496E666F207363726579
:101D1000656E004E414E494E495459494E46CDCC10
:101D2000CC3D0AD7233C17B7D13877CC2B329595C9
:101D3000E6241FB14F0A000020410000C8420040C5
:101D40001C4620BCBE4CCA1B0E5AAEC59D740C94DA
:101D500062880C9431A00C946A200C9405110C94A8
:101D600056710C94CD100C94F5B60C9432110C9461
:101D7000859C0C945A710C94CDB30C9420A50C94B2
:101D8000E7100C94F1100C94D7100C943C110C94A7
:101D900015960C9496130C949E110C94378A0C94FF
:101DA00046110C9475110C94618F0C9455200C9471
:101DB000B9100C948B110C9413710C9464B40C94A2
:101DC000D98B0C945B9E0C9487110C941B8A0C94F9
:101DD00073B10C946B110C944A200C943F200C941A
:101DE00091110C94AAB50C94E5450C94938C0C9429
:101DF000E8700C9464110C943C710C94325C0C945B
:101E00005A110C94D9700C9483110C944DB60C9407
:101E100048B00C94FB100C94ADB70C94298A0C9428
:101E2000C58B0C94EAAB0C9499110C9464380C9407
:101E3000CFB20C9407B50C94FC860C946F110C94E3
:101E400021B20C9404710C945E110C94C5B00C94E6
:101E5000BE100C9468380C94DA970C9467110C94AB
:101E6000DF100C9479110C9460200C947D110C946B
:101E7000FB910C9495110C942D710C94FBAF0C9468
:101E80001E110C94C3100C9450940C9428110C94B3
:101E9000DAB70C9414110C944DB30C9462710C9439
:101EA0005DBC6438FBAF683811241FBECFEFD1E2B0
:101EB000DEBFCDBF00E00CBF14E0A0E0B2E0EAEC72
:101EC000FFE801E00BBF02C007900D92AA3BB107EB
:101ED000D9F712E1AAEBB4E001C01D92A23AB10712
:101EE000E1F71EE1C6EADEE100E006C02297010943
:101EF000FE010BBF0E948DC1C23AD10780E00807E6
:101F0000A9F70E9463BC0C94D3C70C9400001F92E5
:101F10000F920FB60F9211242F933F938F939F939D
:101F2000AF93BF938091BB049091BC04A091BD047A
:101F3000B091BE043091BA0423E0230F2D3720F472
:101F40000196A11DB11D05C026E8230F0296A11D13
:101F5000B11D2093BA048093BB049093BC04A0935A
:101F6000BD04B093BE048091BF049091C004A091C1
:101F7000C104B091C2040196A11DB11D8093BF049C
:101F80009093C004A093C104B093C204BF91AF91D9
:101F90009F918F913F912F910F900FBE0F901F90A7
:101FA00018952FB7F8946091BB047091BC04809190
:101FB000BD049091BE042FBF08953FB7F89480915F
:101FC000BF049091C004A091C104B091C20426B591
:101FD000A89B05C02F3F19F00196A11DB11D3FBF61
:101FE0006627782F892F9A2F620F711D811D911DF1
:101FF00042E0660F771F881F991F4A95D1F7089511
:10200000CF92DF92EF92FF92CF93DF936B017C012F
:102010000E94DD0FEB01C114D104E104F10479F059
:102020000E94DD0F6C1B7D0B683E7340A0F381E0C6
:10203000C81AD108E108F108C851DC4FECCFDF9194
:10204000CF91FF90EF90DF90CF9008950197009788
:1020500039F0880F991F880F991F02970197F1F7A0
:102060000895789484B5826084BD84B5816084BD10
:1020700085B5826085BD85B5816085BDEEE6F0E001
:10208000808181608083E1E8F0E01082808182605D
:102090008083808181608083E0E8F0E080818160DE
:1020A0008083E1EBF0E0808184608083E0EBF0E00E
:1020B000808181608083E1E9F0E0808182608083BB
:1020C000808181608083E0E9F0E0808181608083AD
:1020D000E1EAF0E08081826080838081816080839A
:1020E000E0EAF0E0808181608083E1E2F1E08081DC
:1020F00082608083808181608083E0E2F1E0808182
:1021000081608083EAE7F0E0808184608083808161
:102110008260808380818160808380818068808309
:102120001092C10008951F93CF93DF93182FEB01F6
:1021300061E00E949F11209711F460E004C0CF3F3E
:10214000D10539F461E0812FDF91CF911F910C947B
:10215000D811E12FF0E0E356FE4F449150E0FA0130
:102160003197E131F10508F091C0EE58FF4F0C9422
:1021700078C184B5806884BDC7BD8DC084B58062D8
:1021800084BDC8BD88C08091800080688093800035
:10219000D0938900C09388007EC0809180008062C7
:1021A00080938000D0938B00C0938A0074C080918C
:1021B000B00080688093B000C093B3006CC0809181
:1021C000B00080628093B000C093B40064C080917E
:1021D0009000806880939000D0939900C0939800FD
:1021E0005AC080919000806280939000D0939B00B1
:1021F000C0939A0050C080919000886080939000B6
:10220000D0939D00C0939C0046C08091A000806840
:102210008093A0008091A0008F7B8093A000D0933A
:10222000A900C093A80037C08091A000806280936D
:10223000A000D093AB00C093AA002DC08091A00055
:1022400088608093A000D093AD00C093AC0023C001
:1022500080912001806880932001D0932901C09350
:10226000280119C080912001806280932001D093C1
:102270002B01C0932A010FC08091200188608093B8
:102280002001D0932D01C0932C0105C0C038D10589
:102290000CF058CF52CFDF91CF911F91089590E06D
:1022A000FC013197E131F10508F048C0ED57FF4FCF
:1022B0000C9478C1809180008F7703C0809180005A
:1022C0008F7D80938000089584B58F7702C084B598
:1022D0008F7D84BD08958091B0008F7703C0809179
:1022E000B0008F7D8093B0000895809190008F772B
:1022F00007C0809190008F7D03C080919000877F00
:102300008093900008958091A0008F7707C08091FE
:10231000A0008F7D03C08091A000877F8093A000E4
:102320000895809120018F7707C0809120018F7DD3
:1023300003C080912001877F809320010895CF936F
:10234000DF9390E0FC01ED51FE4F2491FC01E75D2D
:10235000FD4F8491882349F190E0880F991FFC017B
:10236000E757FD4FA591B49181599D4FFC01C5914F
:10237000D4919FB7611108C0F8948C912095822365
:102380008C93888182230AC0623051F4F8948C9136
:10239000322F309583238C938881822B888304C0CD
:1023A000F8948C91822B8C939FBFDF91CF910895ED
:1023B0000F931F93CF93DF931F92CDB7DEB7282FD4
:1023C00030E0F901E356FE4F8491F901ED51FE4FE3
:1023D0001491F901E75DFD4F04910023C9F08823B2
:1023E00021F069830E944F116981E02FF0E0EE0F28
:1023F000FF1FE159FD4FA591B4919FB7F8948C91BF
:10240000611103C01095812301C0812B8C939FBF64
:102410000F90DF91CF911F910F9108951F920F920E
:102420000FB60F9211240BB60F922F933F934F9339
:102430005F936F937F938F939F93AF93BF93EF932C
:10244000FF938091C7049091C804892B29F0E091F3
:10245000C704F091C8041995FF91EF91BF91AF9116
:102460009F918F917F916F915F914F913F912F91AC
:102470000F900BBE0F900FBE0F901F9018951F92DC
:102480000F920FB60F9211240BB60F922F933F931A
:102490004F935F936F937F938F939F93AF93BF936C
:1024A000EF93FF938091C9049091CA04892B29F07E
:1024B000E091C904F091CA041995FF91EF91BF9181
:1024C000AF919F918F917F916F915F914F913F91CC
:1024D0002F910F900BBE0F900FBE0F901F9018956D
:1024E0001F920F920FB60F9211240BB60F922F93DB
:1024F0003F934F935F936F937F938F939F93AF938C
:10250000BF93EF93FF938091CB049091CC04892BE0
:1025100029F0E091CB04F091CC041995FF91EF9153
:10252000BF91AF919F918F917F916F915F914F91EB
:102530003F912F910F900BBE0F900FBE0F901F90E9
:1025400018951F920F920FB60F9211240BB60F928F
:102550002F933F934F935F936F937F938F939F93AB
:10256000AF93BF93EF93FF938091CD049091CE04EE
:10257000892B29F0E091CD04F091CE041995FF91BB
:10258000EF91BF91AF919F918F917F916F915F91EB
:102590004F913F912F910F900BBE0F900FBE0F9058
:1025A0001F9018951F920F920FB60F9211240BB621
:1025B0000F922F933F934F935F936F937F938F93DC
:1025C0009F93AF93BF93EF93FF938091C304909138
:1025D000C404892B29F0E091C304F091C404199537
:1025E000FF91EF91BF91AF919F918F917F916F91EB
:1025F0005F914F913F912F910F900BBE0F900FBEA7
:102600000F901F9018951F920F920FB60F921124E2
:102610000BB60F922F933F934F935F936F937F93DC
:102620008F939F93AF93BF93EF93FF938091C504D4
:102630009091C604892B29F0E091C504F091C6045D
:102640001995FF91EF91BF91AF919F918F917F91DC
:102650006F915F914F913F912F910F900BBE0F9013
:102660000FBE0F901F9018951F920F920FB60F92EA
:1026700011240BB60F922F933F934F935F936F9359
:102680007F938F939F93AF93BF93EF93FF9380912B
:10269000CF049091D004892B29F0E091CF04F091E0
:1026A000D0041995FF91EF91BF91AF919F918F91B8
:1026B0007F916F915F914F913F912F910F900BBE42
:1026C0000F900FBE0F901F9018951F920F920FB68C
:1026D0000F9211240BB60F922F933F934F935F935A
:1026E0006F937F938F939F93AF93BF93EF93FF93DA
:1026F0008091D1049091D204892B29F0E091D104EA
:10270000F091D2041995FF91EF91BF91AF919F91F4
:102710008F917F916F915F914F913F912F910F908A
:102720000BBE0F900FBE0F901F901895CF92DF92A7
:10273000EF92FF920F931F93CF93DF936C017A0177
:10274000EB01E60EF71E00E010E0CE15DF0561F0AC
:102750006991D601ED91FC910190F081E02DC601C7
:102760001995080F191FF1CFC801DF91CF911F9163
:102770000F91FF90EF90DF90CF9008956115710554
:1027800081F0DB010D900020E9F7AD0141505109C6
:10279000461B570BDC01ED91FC910280F381E02D8B
:1027A000199480E090E008950C94BE13DC01ED9143
:1027B000FC910190F081E02D1994FC0165917591D7
:1027C000859194910895CF92DF92EF92FF920F93AB
:1027D0001F93CF93DF93EC01CC0FDD1FCC0FDD1FD8
:1027E000CE018F5E974F0E94DD13FE01E253F94F39
:1027F000C080D180E280F3808E010652194FA7017C
:1028000096010E9471BCF801608371838283938377
:10281000CE01875D974F0E94DD138E010E53194F35
:10282000A70196010E9471BCF801608371838283C5
:102830009383CE01835E974F0E94DD13CB5EDD4F05
:10284000A70196010E9471BC688379838A839B8368
:10285000DF91CF911F910F91FF90EF90DF90CF907C
:1028600008952F923F924F925F926F927F928F9234
:102870009F92AF92BF92CF92DF92EF92FF920F930F
:102880001F93CF93DF9300D000D0CDB7DEB79A83EC
:102890008983FC01EA50F84F94905C01AA0CBB1CA0
:1028A000AA0CBB1CC5018652994F1C01DC011D926C
:1028B0001D921D921C92139726EE36E042EE56E0D2
:1028C0006EED76E08AED96E00E94605BC5018B5F5D
:1028D000974F0E94DD136B017C01692D772767FDFF
:1028E0007095872F972F0E94ECBD2B013C01F501BD
:1028F000E856F94FFC83EB8320E030E040EC5FE3E7
:10290000C701B6010E941FC0A30192010E941FC00F
:10291000AB81BC816D937D938D939C931397F5014F
:10292000EF5CFD4FFE83ED83608171818281938135
:1029300060930F0270931002809311029093120221
:1029400020E030E040E752E40E9451BD2AEAC22E66
:1029500026E0D22E7B018C0124EA36E040EA56E0E4
:102960006CE976E088E996E00E94B6510E94CB635C
:10297000D1011D921D921D921C92139726EE36E0F6
:1029800042EE56E06EED76E08AED96E00E94605BE6
:10299000C5018750984F0E94DD134B015C01905890
:1029A000A30192010E941FC0EB81FC8160837183AF
:1029B0008283938320E030E040E752E460910F028D
:1029C0007091100280911102909112020E9451BDEB
:1029D0007B018C0124EA36E040EA56E06CE976E0BF
:1029E00088E996E00E94B6510E94CB63A50194014C
:1029F000C501B4010E9471BCA30192010E941FC0D5
:102A0000AB81BC816D937D938D939C93139720E054
:102A100030E040E05FE3ED81FE8160817181828181
:102A200093810E941FC060930F02709310028093E5
:102A300011029093120220E030E040E752E40E943D
:102A400051BD7B018C0124EA36E040EA56E06CE996
:102A500076E088E996E00E94B6510E94CB638981B6
:102A60009A810E94E313F10180819181A281B38157
:102A7000EB81FC8180839183A283B38310920F0248
:102A80001092100210921102109212020E94155D13
:102A9000E981FA81E154F94F81E0808326960FB6EF
:102AA000F894DEBF0FBECDBFDF91CF911F910F9184
:102AB000FF90EF90DF90CF90BF90AF909F908F905E
:102AC0007F906F905F904F903F902F900895FC0102
:102AD0002491222341F03091C00035FFFCCF209398
:102AE000C6000196F4CF22E030E08DE799E00C9427
:102AF0009D3AFC012491222341F03091C00035FF22
:102B0000FCCF2093C6000196F4CF2AE030E08DE799
:102B100099E00C94EC39CF93DF931F921F92CDB7BD
:102B2000DEB780919C1290919D129E012F5F3F4FC6
:102B3000009719F4225A324102C0281B390B3A83FC
:102B4000298389819A810F900F90DF91CF91089509
:102B50002091ED043091EE04243031050CF06AC070
:102B60004091EF045091F00460E6649F9001659FEE
:102B7000300D1124BC01C90189509B4F0E94C6C46D
:102B8000E5E3F8E08491882341F09091C00095FF3F
:102B9000FCCF8093C6003196F5CFEBEEF7E0849141
:102BA000882341F09091C00095FFFCCF8093C60030
:102BB0003196F5CF8091EF049091F00420E6289FA4
:102BC000F001299FF00D1124E950FB4F81918823DA
:102BD00039F09091C00095FFFCCF8093C600F6CFEE
:102BE000E9EEF7E08491882341F09091C00095FFD1
:102BF000FCCF8093C6003196F5CF8091C00085FF51
:102C0000FCCF8AE08093C6008091EF049091F0049D
:102C1000019664E070E00E9423C19093F0048093D9
:102C2000EF048091ED049091EE0401969093EE04F0
:102C30008093ED0408952091ED043091EE0424304A
:102C400031050CF06AC04091EF045091F00460E649
:102C5000649F9001659F300D1124BC01C90189500A
:102C60009B4F0E9452C4E5E3F8E08491882341F031
:102C70009091C00095FFFCCF8093C6003196F5CFB0
:102C8000EEEDF7E08491882341F09091C00095FF2C
:102C9000FCCF8093C6003196F5CF8091EF049091E0
:102CA000F00420E6289FF001299FF00D1124E9503F
:102CB000FB4F8191882339F09091C00095FFFCCFA4
:102CC0008093C600F6CFECEDF7E08491882341F0C5
:102CD0009091C00095FFFCCF8093C6003196F5CF50
:102CE0008091C00085FFFCCF8AE08093C600809170
:102CF000EF049091F004019664E070E00E9423C11B
:102D00009093F0048093EF048091ED049091EE0491
:102D100001969093EE048093ED04089540E950ED00
:102D200063E070E08DE799E00E94A538E6EDF7E0FA
:102D30008491882341F09091C00095FFFCCF80934F
:102D4000C6003196F5CF8091C00085FFFCCF8AE0A8
:102D50008093C60085E398E0FC012491222341F092
:102D60003091C00035FFFCCF2093C6003196F5CFDF
:102D700024B720FF14C0EEECF7E03491332341F088
:102D80004091C00045FFFCCF3093C6003196F5CF8F
:102D90003091C00035FFFCCF3AE03093C60021FFF0
:102DA00014C0EEEBF7E03491332341F04091C000C2
:102DB00045FFFCCF3093C6003196F5CF3091C0006F
:102DC00035FFFCCF3AE03093C60022FF14C0EDEA95
:102DD000F7E03491332341F04091C00045FFFCCF30
:102DE0003093C6003196F5CF3091C00035FFFCCF4F
:102DF0003AE03093C60023FF14C0EDE9F7E03491C8
:102E0000332341F04091C00045FFFCCF3093C60012
:102E10003196F5CF3091C00035FFFCCF3AE03093CA
:102E2000C60025FF14C0EDE8F7E02491222341F00D
:102E30003091C00035FFFCCF2093C6003196F5CF0E
:102E40002091C00025FFFCCF2AE02093C60014BECD
:102E5000E6E8F7E02491222341F03091C00035FFED
:102E6000FCCF2093C6003196F5CFE0E8F7E024913F
:102E7000222341F03091C00035FFFCCF2093C600E3
:102E80003196F5CF2091C00025FFFCCF2AE020939A
:102E9000C600FC012491E5E3F8E0222349F03091DB
:102EA000C00035FFFCCF2093C60031962491F5CFAA
:102EB000E0E7F7E02491222341F03091C00035FF94
:102EC000FCCF2093C6003196F5CFEBE5F7E02491D7
:102ED000222341F03091C00035FFFCCF2093C60083
:102EE0003196F5CFEFE4F7E02491222341F03091C1
:102EF000C00035FFFCCF2093C6003196F5CFE1E44A
:102F0000F7E02491222341F03091C00035FFFCCF3F
:102F10002093C6003196F5CF2091C00025FFFCCF4D
:102F20002AE02093C600E6E3F7E02491222341F053
:102F30003091C00035FFFCCF2093C6003196F5CF0D
:102F4000EAE2F7E02491222341F03091C00035FFFE
:102F5000FCCF2093C6003196F5CF2091C00025FF0D
:102F6000FCCF2AE02093C600FC018491E5E3F8E061
:102F7000882349F09091C00095FFFCCF8093C60054
:102F800031968491F5CFEBE1F7E08491882341F00D
:102F90009091C00095FFFCCF8093C6003196F5CF8D
:102FA0000E948B154AE050E0BC018DE799E00E9439
:102FB000BD39E4E0F7E08491882341F09091C000AE
:102FC00095FFFCCF8093C6003196F5CF4AE050E0E4
:102FD00060ED74E08DE799E00E94BD398091C000FA
:102FE00085FFFCCF8AE08093C6001092F304109214
:102FF000F4041092F5041092F6040E9449830E9492
:10300000016A0E9466510E9448840E94CE640E9418
:103010007A9AFFEF23ED80E3F15020408040E1F702
:1030200000C0000008958091E7049091E80460E0FA
:1030300070E001960C9491C18091E7049091E804AE
:103040004AE050E060E070E001960C940EC3682FF7
:1030500070E02091F1043091F20440E6429FC001FB
:10306000439F900D112489509B4F0E94BBC49093A5
:10307000E8048093E70421E0892B09F420E0822F03
:1030800008950E94D10F6093E3047093E404809349
:10309000E5049093E60408950E94D10F6093E30441
:1030A0007093E4048093E5049093E604E091F104C6
:1030B000F091F204ED50FB4F8081811114C0EBE4DC
:1030C000F3E08491882341F09091C00095FFFCCFFC
:1030D0008093C6003196F5CF8091C00085FFFCCF6C
:1030E0008AE08093C60008958DE799E00E94F73842
:1030F000EEE4F3E08491882341F09091C00095FFC5
:10310000FCCF8093C6003196F5CF40917C0650915C
:103110007D0660917E0670917F064F5F5F4F6F4F17
:103120007F4F2AE030E08DE799E00E949639809148
:10313000C00085FFFCCF8AE08093C6000C944C1839
:103140002F923F924F925F926F927F928F929F92B7
:10315000AF92BF92CF92DF92EF92FF920F931F93A5
:10316000CF93DF93CDB7DEB76F970FB6F894DEBF7E
:103170000FBECDBF60E6D62E74E0E72EF12CE7EC53
:10318000F5E0B490EAE0CE2EEDE3F6E0A4909924C9
:1031900093948091FE099091FF092091000A30914B
:1031A000010A821B930B8F779927892B39F0809125
:1031B000ED049091EE0404970CF44DC08091F2065A
:1031C000882309F48CC38091EA049091EB04892B45
:1031D00009F085C38091ED049091EE04892B11F4E0
:1031E0001092D304EAEAF5E024904CE3C42ED12CEB
:1031F000E12CF12C50E1452E5EE0552E612C712C16
:103200008E010F5F1F4F30E6332EE5E3F8E0949117
:103210009F8F409173095091740960917509709165
:10322000760980916B0990916C09A0916D09B0911C
:103230006E09481759076A077B0708F050C3809149
:10324000ED049091EE0404970CF049C38091D304EF
:10325000811145C321C28DE799E00E94DB3880933C
:10326000EC042091EA043091EB048A3061F08D3057
:1032700051F08A3321F49091E904992321F02F35FC
:1032800031050CF48DC12115310509F4A7C18091D8
:10329000EF049091F004D89E8001D99E100D112466
:1032A000F801E20FF31FE950FB4F10822091E9046F
:1032B000211171C11092E904FC01ED50FB4F108205
:1032C000980129503B4F39016EE470E0C9010E941A
:1032D000BBC4009709F4A2C09093E8048093E7046C
:1032E00086199709800F911F4AE050E060E070E076
:1032F00088509B4F0E940EC3609380067093810696
:10330000809382069093830640907C0650907D06C1
:1033100060907E0670907F063FEF431A530A630A5F
:10332000730A0091EF041091F00464157505860589
:10333000970509F456C1D09EC001D19E900D11246D
:1033400066EE76E089509B4F0E9480C4892B09F07D
:1033500048C1EBE3F8E08491882341F09091C000EC
:1033600095FFFCCF8093C6003196F5CFE3EBF6E0F6
:103370008491882341F09091C00095FFFCCF809309
:10338000C6003196F5CF40917C0650917D06609144
:103390007E0670917F062AE030E08DE799E00E947A
:1033A00096398091C00085FFFCCF32C09093E8042D
:1033B0008093E70484199509860D971D60E070E0FD
:1033C00088509B4F0E9491C10E94B9BD212F30E0CF
:1033D0002617370709F45EC0EBE3F8E0849181110A
:1033E0004BC1E4E9F6E0849181114EC140917C0625
:1033F00050917D0660917E0670917F062AE030E054
:103400008DE799E00E9496398091C00085FFFCCF3E
:103410008AE08093C6000E94741837C06AE270E0A8
:10342000C3010E94BBC4892B09F444C0EBE3F8E05C
:103430008491882341F09091C00095FFFCCF809348
:10344000C6003196F5CFE0E4F6E08491882341F0A0
:103450009091C00095FFFCCF8093C6003196F5CFC8
:1034600040917C0650917D0660917E0670917F06AA
:103470002AE030E08DE799E00E9496398091C00003
:1034800085FFFCCF8AE08093C6001092EB04109277
:10349000EA0425C28091800690918106A09182065F
:1034A000B091830680937C0690937D06A0937E0660
:1034B000B0937F068091EF049091F004D89E800134
:1034C000D99E100D1124C80189509B4F3C0167E41F
:1034D00070E00E94BBC4009709F448C09093E804D0
:1034E0008093E70486199709800F911F60E070E0D0
:1034F00088509B4F0E9491C10E94B9BD64307105F4
:10350000A8F58091D504811119C08091F006811130
:103510002DC08A2DEDE3F6E0882349F09091C0009C
:1035200095FFFCCF8093C60031968491F5CF8091B2
:10353000C00085FFFCCFC092C60018C08B2DE7EC01
:10354000F5E0882349F09091C00095FFFCCF80936F
:10355000C60031968491F5CF8091C00085FFFCCFE5
:10356000C092C6008DEB95E00E94099A8091EF040D
:103570009091F0040196B7010E9423C19093F0044A
:103580008093EF048091ED049091EE040196909366
:10359000EE048093ED041092EB041092EA04F9CD4E
:1035A0008B3311F49092E9049091E9049111F1CDDB
:1035B0004091EF045091F004B9016F5F7F4F709319
:1035C000EB046093EA04D49EF001D59EF00D112423
:1035D000E20FF31FE950FB4F8083DBCD1092E9042B
:1035E0007EC1D09E3001D19E700C112493012950D0
:1035F0003B4F29016AE270E0C9010E94BBC40097F9
:1036000069F5EBE3F8E08491882341F09091C000E4
:1036100095FFFCCF8093C6003196F5CFEAE6F6E041
:103620008491882341F09091C00095FFFCCF809356
:10363000C6003196F5CF40917C0650917D06609191
:103640007E0670917F062AE030E08DE799E00E94C7
:1036500096398091C00085FFFCCFDACE20E010E0E3
:10366000F301E20FF11DE950FB4F30813A3209F4CA
:103670009DCE2F5F1327F4CF9091C00095FFFCCF14
:103680008093C6003196AACE9091C00095FFFCCFE2
:103690008093C6003196A7CE8091C6089091C70846
:1036A000A091C808B091C9088093730990937409D8
:1036B000A0937509B09376098EEB98E00E948D3F38
:1036C000482F8093EC048A30B9F04D30A9F0433292
:1036D00029F42091E904222379F002C04A33C9F386
:1036E0002091EA043091EB042F3531052CF48F3F03
:1036F000AFEF9A0709F0D4C0409173095091740953
:10370000609175097091760980916B0990916C09AF
:10371000A0916D09B0916E09481759076A077B0798
:1037200008F482C0822DEAEAF5E0882349F09091FE
:10373000C00095FFFCCF8093C60031968491F5CFF1
:103740008091C00085FFFCCF8AE08093C6000E9474
:10375000D10F6093D7047093D8048093D9049093C9
:10376000DA048090DB049090DC04A090DD04B0903B
:10377000DE04681979098A099B0928EE33E040E0E4
:1037800050E00E9437C149015A01CA01B901A7019D
:1037900096010E9437C1CA01B901A70196010E9492
:1037A00037C17F936F93C501B401A30192010E94B9
:1037B00037C13F932F93A6E9B5E0BF93AF931F9313
:1037C0000F930E94EAC48F8D0FB6F894DEBF0FBE30
:1037D000CDBFE5E3F8E0882349F09091C00095FF64
:1037E000FCCF8093C60031968491F5CFF80181918A
:1037F000882339F09091C00095FFFCCF8093C600DC
:10380000F6CF8091C00085FFFCCF8AE08093C60090
:10381000C8010E94FA9980EF96E00E94677D61E0FE
:1038200080EF96E00E94CA7A8091EC04833219F40A
:1038300081E08093D3042091EA043091EB042115B8
:10384000310509F4CBCE8091EF049091F004389EBD
:10385000F001399EF00D1124E20FF31FE950FB4FE8
:103860001082FC01ED50FB4F21E020832091ED04FC
:103870003091EE042F5F3F4F3093EE042093ED0420
:10388000019664E070E00E9423C19093F00480935D
:10389000EF041092E9041092EB041092EA04B9CC00
:1038A0004B3319F441E04093E9044091E90441119C
:1038B000AACC4091EF045091F004B9016F5F7F4FA3
:1038C0007093EB046093EA04349EF001359EF00D92
:1038D0001124E20FF31FE950FB4F80839ACC6F96BF
:1038E0000FB6F894DEBF0FBECDBFDF91CF911F9111
:1038F0000F91FF90EF90DF90CF90BF90AF909F908F
:103900008F907F906F905F904F903F902F90089591
:103910008F929F92AF92BF92CF92DF92EF92FF92DF
:103920000F931F93CF93DF93FBE2EF2EF4E0FF2E74
:103930000AED16E0C8E9D6E0ACEECA2EA6E0DA2E13
:10394000F70181917F010E942718882319F10E94B5
:1039500013184B015C01F6018081811103C0609155
:10396000770601C061E070E080E090E00E94ECBD6D
:10397000F80120813181428153810E941FC09B0147
:10398000AC01C501B4010E9471BC688379838A834C
:103990009B8309C0F80180819181A281B3818883D2
:1039A0009983AA83BB830C5F1F4F2496FFEFCF1A26
:1039B000DF0A8FE2E81684E0F80611F686E40E943A
:1039C00027188823D9F00E9413186B017C0160939B
:1039D00088067093890680938A0690938B0620E070
:1039E00030E0A9010E944DBF181644F4C0920F02A6
:1039F000D0921002E0921102F0921202DF91CF9168
:103A00001F910F91FF90EF90DF90CF90BF90AF90FC
:103A10009F908F9008950E94881C89E40E94271827
:103A2000882359F00E94131860938C0670938D06BA
:103A300080938E0690938F0608C010928C06109289
:103A40008D0610928E0610928F068AE40E94271827
:103A5000882359F00E941318609390067093910682
:103A60008093920690939306089510929006109278
:103A7000910610929206109293060895CF92DF92CB
:103A8000EF92FF92CF93DF93EC01C090C206D090EB
:103A9000C306E090C406F090C506A70196016881B0
:103AA00079818A819B810E944ABD87FF04C0C882B8
:103AB000D982EA82FB82C090C606D090C706E09009
:103AC000C806F090C906A70196016C817D818E81A0
:103AD0009F810E944ABD87FF04C0CC82DD82EE82B6
:103AE000FF82C090CA06D090CB06E090CC06F09042
:103AF000CD06A7019601688579858A859B850E94F8
:103B00004ABD87FF04C0C886D986EA86FB86C09076
:103B10001502D0901602E0901702F0901802A7014B
:103B20009601688179818A819B810E944DBF181618
:103B300024F4C882D982EA82FB82C0901902D09014
:103B40001A02E0901B02F0901C02A70196016C8102
:103B50007D818E819F810E944DBF181624F4CC82F6
:103B6000DD82EE82FF82C0901D02D0901E02E090A6
:103B70001F02F0902002A7019601688579858A8549
:103B80009B850E944DBF181624F4C886D986EA8604
:103B9000FB86DF91CF91FF90EF90DF90CF9008955B
:103BA000CF92DF92EF92FF920F931F9388E996E0F6
:103BB0000E943E1D0E94D10F6093E3047093E404C1
:103BC0008093E5049093E60420919806309199063D
:103BD00040919A0650919B066091DA067091DB063F
:103BE0008091DC069091DD060E944ABD811179C06A
:103BF00020919C0630919D0640919E0650919F0613
:103C00006091DE067091DF068091E0069091E106FA
:103C10000E944ABD811165C020E030E040E752E4D7
:103C200060910F0270911002809111029091120226
:103C30000E9451BDBAEACB2EB6E0DB2E7B018C018F
:103C400024EA36E040EA56E06CE976E088E996E05E
:103C50000E94B6518091980690919906A0919A067B
:103C6000B0919B068093DA069093DB06A093DC0666
:103C7000B093DD0680919C0690919D06A0919E06D2
:103C8000B0919F068093DE069093DF06A093E00636
:103C9000B093E1068091A0069091A106A091A206A2
:103CA000B091A3068093E2069093E306A093E40606
:103CB000B093E5068091A4069091A506A091A60672
:103CC000B091A7068093E6069093E706A093E806D6
:103CD000B093E9061F910F91FF90EF90DF90CF9086
:103CE000089560912F0270913002882777FD8095AA
:103CF000982F0E94ECBD20910F023091100240914C
:103D00001102509112020E941FC020E030E040E7F3
:103D100052E40E9451BD20E030E048EC52E488CFEC
:103D2000AF92BF92CF92DF92EF92FF920F931F93C9
:103D3000CF93DF93D82F2091900630919106409138
:103D400092065091930660918C0670918D06809139
:103D50008E0690918F060E945ABFC62F172F082FEC
:103D6000F92E60912F0270913002882777FD80959F
:103D7000982F0E94ECBD20910F02309110024091CB
:103D80001102509112020E941FC020E030E040E773
:103D900052E40E9451BD20E030E048EC52E40E9421
:103DA00051BD2091AA062F93DF93FF920F931F938B
:103DB000CF935B016C01C2E0EC2E01E020E04CE807
:103DC00056E068E976E08AED96E00E94954A809197
:103DD000980690919906A0919A06B0919B068093BF
:103DE000DA069093DB06A093DC06B093DD068091A3
:103DF0009C0690919D06A0919E06B0919F0680938F
:103E0000DE069093DF06A093E006B093E106809172
:103E1000A0069091A106A091A206B091A30680935E
:103E2000E2069093E306A093E406B093E506809142
:103E3000A4069091A506A091A606B091A70680932E
:103E4000E6069093E706A093E806B093E9060E9481
:103E5000D10F6093E3047093E4048093E50490939E
:103E6000E6040F900F900F900F900F900F90DF913E
:103E7000CF911F910F91FF90EF90DF90CF90BF9067
:103E8000AF900895F8940E946E6B159A1092BF0639
:103E9000469A1092C006439A1092C106409A9FB764
:103EA000F89480910B01826080930B019FBFEBE33C
:103EB000F8E08491882341F09091C00095FFFCCFF9
:103EC0008093C6003196F5CFECE2F3E0849188232D
:103ED00041F09091C00095FFFCCF8093C6003196D1
:103EE000F5CF8091C00085FFFCCF8AE08093C600AB
:103EF00083E293E00E94189AFFCFCF92DF92EF9275
:103F0000FF920F931F930E94D10F0091DF04109135
:103F1000E0042091E1043091E204C090E304D090E9
:103F2000E404E090E504F090E6046C197D098E0944
:103F30009F09061717072807390730F4012B022BB2
:103F4000032B11F00E94421F80910B0290910C02F2
:103F5000A0910D02B0910E02892B8A2B8B2B09F1B7
:103F60000E94D10F0091E3041091E4042091E50434
:103F70003091E604601B710B820B930B00910B02D6
:103F800010910C0220910D0230910E0206171707B6
:103F90002807390730F49091100C80910F0C981776
:103FA00041F01F910F91FF90EF90DF90CF900C9414
:103FB0009A51159A1092BF06469A1092C006439ADB
:103FC0001092C106409A9FB7F89480910B018260CD
:103FD00080930B019FBFE5CF0E946E6B8091D5044B
:103FE000811138C081E08093D50480917C06909146
:103FF0007D06A0917E06B0917F068093780690930F
:104000007906A0937A06B0937B06EBE3F8E08491FF
:10401000882341F09091C00095FFFCCF8093C600AB
:104020003196F5CFEDEAF2E08491882341F090914A
:10403000C00095FFFCCF8093C6003196F5CF8091EC
:10404000C00085FFFCCF8AE08093C60083EA92E03F
:104050000C94099A08958091D50408956770772784
:10406000E82FF0E0E356FE4F849190E0FC01369794
:10407000EC30F10578F5EC56FF4F0C9478C1809147
:10408000B100887F8093B1008091B100862B80932E
:10409000B100089580919100887F80939100809174
:1040A0009100862B8093910008958091A100887FD4
:1040B0008093A1008091A100862B8093A100089598
:1040C00080912101887F8093210180912101862B9D
:1040D000809321010895CF93DF93EC018091AA068C
:1040E0008093D60484E50E942718811102C080E0E5
:1040F00075C00E9413180E94BEBD6093D604623042
:10410000B0F3E5E3F8E08491882341F09091C0009A
:1041100095FFFCCF8093C6003196F5CFCD36D10503
:10412000B9F054F4C836D105B1F0C936D10509F05B
:1041300045C0E2E4F3E021C0CA3DD10531F0CD3DF8
:10414000D105E1F5EDEFF2E036C0E4E1F3E029C09E
:10415000EBE2F3E01CC0E9E5F3E08191882371F123
:104160009091C00095FFFCCF8093C600F6CF909150
:10417000C00095FFFCCF8093C60081918111F7CFDD
:104180001DC09091C00095FFFCCF8093C600819127
:104190008111F7CF13C09091C00095FFFCCF8093A1
:1041A000C60081918111F7CF09C09091C00095FFA1
:1041B000FCCF8093C60081918111F7CF40E050E0A1
:1041C0006091D6048DE799E00E94F8398091C00093
:1041D00085FFFCCF8AE08093C60081E0DF91CF911C
:1041E00008952F923F924F925F926F927F928F929B
:1041F0009F92AF92BF92CF92DF92EF92FF920F9376
:104200001F93CF93DF93CDB7DEB7E5970FB6F89442
:10421000DEBF0FBECDBF87E40E942718882309F4B4
:1042200089C30E9413180E94B9BD64307105D9F189
:1042300044F46230710521F15CF577FF17C00C94EE
:10424000C1356A35710509F421C334F46C31710547
:1042500009F471C00C94C1356B35710509F41AC3AA
:104260006C35710509F41BC30C94C1358091D504DC
:10427000811106C00E94881C0E94D01D0C946C37CE
:104280008091D504811104C00E940B1D81E007C0FC
:104290008091D504811107C00E940B1D80E00E940F
:1042A000901E0C946C378DE895E00E94099A80E589
:1042B0000E942718882339F00E9413180E94BEBD5F
:1042C0004B015C0103C0812C912C540183E50E94B9
:1042D0002718882361F00E94131820E030E04AE795
:1042E00054E40E941FC00E94BEBD4B015C010E94AD
:1042F000CB630E94D10F6B017C01C80CD91CEA1C56
:10430000FB1C0E94D10F6093E3047093E40480933C
:10431000E5049093E6040E94D10F6C157D058E058F
:104320009F0510F00C94C1350E945C670E947D1FB0
:104330000E949D9AF0CF80910F0290911002A0915F
:104340001102B09112028093840690938506A09387
:104350008606B093870680912F0290913002909349
:10436000EB068093EA0684E690E090933002809317
:104370002F020E94D10F6093E3047093E4048093B2
:10438000E5049093E60481E00E941C5D8091DA06CA
:104390009091DB06A091DC06B091DD068093980633
:1043A00090939906A0939A06B0939B068091DE069F
:1043B0009091DF06A091E006B091E10680939C0603
:1043C00090939D06A0939E06B0939F068091E2066F
:1043D0009091E306A091E406B091E5068093A006D3
:1043E0009093A106A093A206B093A3068091E6063F
:1043F0009091E706A091E806B091E9068093A406A3
:104400009093A506A093A606B093A70610920F025C
:1044100010921002109211021092120288E50E946E
:104420002718882311F090E00AC089E50E94271818
:104430008111F9CF8AE50E94271891E0982790937F
:10444000130291110CC088E50E942718882309F4F3
:104450006CC189E50E942718882309F466C110926F
:10446000DA061092DB061092DC061092DD0610923E
:10447000DE061092DF061092E0061092E106E6EFEB
:10448000F7E0149126EE36E042EE56E06EED76E06F
:104490008AED96E00E94605B85E098E00E94DD1363
:1044A0006B017C0120E030E040EC5FE30E941FC024
:1044B0004B015C01612F772767FD7095872F972F40
:1044C0000E94ECBD9B01AC01C501B4010E941FC05C
:1044D000609398067093990680939A0690939B0632
:1044E00089E098E00E94DD134B015C01E7EFF7E003
:1044F000149120E030E040EC5FE30E941FC02B01EC
:104500003C01612F772767FD7095872F972F0E94B9
:10451000ECBD9B01AC01C301B2010E941FC06093BE
:104520009C0670939D0680939E0690939F06209113
:104530003102309132024091330250913402209383
:104540000F023093100240931102509312024090D8
:104550003502509036026090370270903802C301E5
:10456000B2010E944ABD87FF08C040920F025092DC
:1045700010026092110270921202A5019401C7010B
:10458000B6010E944DBF181614F00C94C435A70153
:104590009601C501B4010E9451BD9B01AC010E946E
:1045A0001FC020E030E040E85FE30E9471BC0E9441
:1045B0008CC09B01AC0160910F0270911002809140
:1045C0001102909112020E941FC060930F0270931B
:1045D0001002809311029093120220E030E040E735
:1045E00052E460910F02709110028091110290913B
:1045F00012020E9451BDBAEACB2EB6E0DB2E7B013F
:104600008C0124EA36E040EA56E06CE976E088E97D
:1046100096E00E94B6510E94CB6380E090E00E9439
:10462000E31381E090E00E94E31326EE36E042EED1
:1046300056E06EED76E08AED96E00E94605B809138
:10464000DA069091DB06A091DC06B091DD0680933E
:10465000980690939906A0939A06B0939B06809132
:10466000DE069091DF06A091E006B091E10680930E
:104670009C0690939D06A0939E06B0939F0620E013
:1046800030E040E752E460910F0270911002809197
:104690001102909112020E9451BD7B018C0124EA0B
:1046A00036E040EA56E06CE976E088E996E00E9460
:1046B000B65110920F021092100210921102109235
:1046C00012020E94CB630E94155D80919806909122
:1046D0009906A0919A06B0919B068093DA06909372
:1046E000DB06A093DC06B093DD0680919C069091DA
:1046F0009D06A0919E06B0919F068093DE06909342
:10470000DF06A093E006B093E1068091A0069091A9
:10471000A106A091A206B091A3068093E206909311
:10472000E306A093E406B093E5068091130281119D
:104730000C94CA3588E50E94271881110C94CA355B
:104740008091130281110C94D03589E50E942718BD
:1047500081110C94D03588E50E9427188823D1F068
:104760000E941C18672B682B692BA1F00E9413185C
:104770002091CE063091CF064091D0065091D106BF
:104780000E9471BC6093DA067093DB068093DC06AE
:104790009093DD0689E50E9427188823D1F00E94B6
:1047A0001C18672B682B692BA1F00E94131820910D
:1047B000D2063091D3064091D4065091D5060E947E
:1047C00071BC6093DE067093DF068093E0069093E1
:1047D000E1068091130281110C94D6358AE50E947E
:1047E000271881110C94D6358AE50E942718882352
:1047F000D1F00E941C18672B682B692BA1F00E9436
:1048000013182091D6063091D7064091D8065091C2
:10481000D9060E9471BC6093E2067093E306809310
:10482000E4069093E50626EE36E042EE56E06EEDA5
:1048300076E08AED96E00E94605B80E00E941C5D5D
:104840008091840690918506A0918606B091870696
:1048500080930F0290931002A0931102B093120262
:104860008091EA069091EB069093300280932F029C
:104870000E94D10F6093E3047093E4048093E504F5
:104880009093E6040E94155D0C94C1351092770652
:104890000C94C13581E0809377060C94C13585E492
:1048A0000E942718811102C00E94CB63FBE2CF2E29
:1048B000F4E0DF2EAEECEA2EA6E0FA2E0AED16E0CA
:1048C000B12CF60181916F010E942718882339F1DC
:1048D000F3E0BF120CC00E941318F80160837183CB
:1048E0008283938386EE96E00E94055C18C00E9446
:1048F0001318F70120813181428153810E9471BCDC
:10490000F801608371838283938326EE36E042EE62
:1049100056E06EED76E08AED96E00E94605BB3941F
:10492000F4E0EF0EF11C0C5F1F4F24E0B212C9CF70
:104930000C94C1358DE40E942718882311F40C943F
:1049400070340E9413180E94B9BD6337710511F4C9
:104950000C94582C0CF08AC06F31710509F43DC3DA
:10496000A4F56631710509F4DCC1BCF4613171054F
:1049700009F491C134F46230710508F431C10C942A
:10498000C1356431710509F498C10CF0C4C16231BC
:10499000710509F4D0C60C94C1356A31710509F46A
:1049A000F5C13CF46831710509F4DAC10CF4BFC1FA
:1049B000E7C16C31710509F4FDC10CF4F5C16E312C
:1049C000710509F42DC20C94C1356535710509F4E2
:1049D000E5C6CCF46135710509F485C654F460323E
:1049E000710509F45CC26A32710509F453C30C9471
:1049F000C1356335710509F499C60CF09CC6109257
:104A0000EF060C94C1356A36710509F43CC6DCF436
:104A10006836710509F469C30CF096C36C357105ED
:104A200011F00C94C1358BE294E098AB8FA701E4B0
:104A300011E1E1E58E2EE1E19E2EF5E0AF2EF1E1F0
:104A4000BF2E312C23C76D36710509F4A3C462371C
:104A5000710509F451C76B36710511F00C94C1351D
:104A60001092A9061092A8060C94C1356D3D7105EF
:104A700011F40C94D02F0CF05DC0683C710511F45A
:104A80000C94E22D2CF56837710511F40C945C2D13
:104A90006CF46537710509F41AC76737710511F0B1
:104AA0000C94C135EFE7F3E00C94672D6C38710579
:104AB00009F439C36E3B710509F4E5C46937710522
:104AC00011F00C94C13581E00E941C5D0C94C1353D
:104AD0006D3C710511F40C94B12EACF46B3C710576
:104AE00011F40C94752E14F00C94912E693C710500
:104AF00011F00C94C1350BE214E071E3E72E71E183
:104B0000F72E0C945B2E6A3D710511F40C94262F40
:104B10006C3D710511F40C94C12F6E3C710511F0C0
:104B20000C94C1350BE214E05EECE52E56E0F52E58
:104B30000C94172F653F31E0730711F40C94333157
:104B400034F56E3291E0790711F40C94E73064F497
:104B5000623E710511F40C94F62F6D32714011F420
:104B60000C9421300C94C135603921E0720711F4A6
:104B70000C942D31643F31E0730711F40C94303103
:104B80006F32714011F00C94C1350C94F5306335DF
:104B900093E0790711F40C943C3184F4673FF1E021
:104BA0007F0711F40C94393114F40C9436316835C4
:104BB000724011F40C9411320C94C135603A83E0C8
:104BC000780709F4D6C1673E93E0790711F40C9495
:104BD00059346B38734011F00C94C1350C94333454
:104BE0008CE795E00E94099A80E50E9427188823A7
:104BF00039F00E9413180E94BEBD6B017C0103C0F6
:104C0000C12CD12C760183E50E942718882361F0FE
:104C10000E94131820E030E04AE754E40E941FC0CD
:104C20000E94BEBD6B017C010E94CB630E94D10F2C
:104C30006093E3047093E4048093E5049093E604A6
:104C4000C114D104E104F104A9F00E94D10F4B0179
:104C50005C018C0C9D1CAE1CBF1C0E94D10F681502
:104C600079058A059B0588F40E94629B81110DC01D
:104C70000C94DC350E94629B811107C00E945C6726
:104C80000E947D1F0E949D9AF5CF8DE695E00E94BF
:104C9000099A0C94C13584E695E00E94099A15980A
:104CA0004698439840989FB7F89480910B018D7F68
:104CB00080930B019FBF0C94C135E4E5F5E084912E
:104CC000882341F09091C00095FFFCCF8093C600EF
:104CD0003196F5CF8091C00085FFFCCF8AE08093AC
:104CE000C60080EF96E00E942874E6E4F5E0849127
:104CF000882341F09091C00095FFFCCF8093C600BF
:104D00003196F5CF8091C00085FFFCCF8AE080937B
:104D1000C6000C94C13580EF96E00E947F740C941D
:104D2000C13580EF96E00E9446750C94C135009124
:104D3000E7041091E8040C5F1F4F6AE270E0C801BD
:104D40000E94BBC4009719F0FC013197108221E04A
:104D500041E0B80180EF96E00E94B5750C94C13532
:104D600080EF96E00E944A750E94D10F6093DB04A9
:104D70007093DC048093DD049093DE040C94C135C1
:104D800080EF96E00E9451750C94C1358091F30636
:104D9000882311F40C94C13583E50E9427188111F2
:104DA0000C94E4350C94C13580EF96E00E94047AAF
:104DB0000C94C1358091E7049091E8046AE270E0B8
:104DC00004960E94BBC48C010097E1F02091F1048D
:104DD0003091F20440E6429FC001439F900D1124A0
:104DE0006EE470E089509B4F0E94BBC460E270E0AB
:104DF0000E94BBC401969093E8048093E704F801F5
:104E0000319710826091E7047091E8046C5F7F4FE6
:104E100021E040E080EF96E00E94B5750C94C1352A
:104E20008091F306882311F40C94C13560E080EF83
:104E300096E00E94BD7B8091E7049091E8046AE2CD
:104E400070E004960E94BBC48C010097E1F02091B1
:104E5000F1043091F20440E6429FC001439F900D5F
:104E600011246EE470E089509B4F0E94BBC460E245
:104E700070E00E94BBC401969093E8048093E7041D
:104E8000F801319710826091E7047091E8046C5F3B
:104E90007F4F80EF96E00E94CA780C94C1358091D4
:104EA000F20681110E94CB630091E7041091E8049F
:104EB0000C5F1F4F6AE270E0C8010E94BBC47C0116
:104EC00061E270E0C8010E94BBC4009719F08C0138
:104ED0000F5F1F4FE114F10419F0F70131971082B1
:104EE00080E50E942718F82E2091E7043091E8040D
:104EF0000217130708F4F12C8091F306882311F4AC
:104F00000C94C13521E02F2541E0B80180EF96E0F7
:104F10000E94B57583E50E9427188823B9F0209177
:104F2000E7043091E8042017310780F40E941C1830
:104F3000AB01BC01409373095093740960937509E8
:104F4000709376098EEB98E00E94594080EF96E0CE
:104F50000E944A75F1100C94C1350E94D10F6093E4
:104F6000DB047093DC048093DD049093DE040C94E6
:104F7000C1358091E7049091E8046AE270E00596FB
:104F80000E94BBC48C010097E1F02091F1043091A4
:104F9000F20440E6429FC001439F900D11246EE44D
:104FA00070E089509B4F0E94BBC460E270E00E9499
:104FB000BBC401969093E8048093E704F80131970D
:104FC00010826091E7047091E8046B5F7F4F80EF7F
:104FD00096E00E94C4780C94C1350E94D10F609372
:104FE000D7047093D8048093D9049093DA04009185
:104FF000DB041091DC042091DD043091DE04601BA1
:10500000710B820B930B28EE33E040E050E00E94DE
:1050100037C1CA01B9012CE330E040E050E00E9402
:1050200037C17F936F933F932F9387E395E09F93CF
:105030008F938E010F5F1F4F1F930F930E94EAC43F
:10504000E5E3F8E084910FB6F894DEBF0FBECDBF64
:10505000882349F09091C00095FFFCCF8093C60053
:1050600031968491F5CFF8018191882339F09091A0
:10507000C00095FFFCCF8093C600F6CF8091C000A2
:1050800085FFFCCF8AE08093C600C8010E94FA9990
:105090000C94C13583E50E942718882311F40C94E1
:1050A000C1350E9413186B017C0180E50E9427180E
:1050B000882351F0C701B6010E94B9BD6F3F710549
:1050C00009F010F40C94F53568E070E020E0E22F70
:1050D000EE0FFF0BE551FC4F8081918186179707FA
:1050E00011F40C94C1352F5FF2CF88E690E00E9456
:1050F0006B2081110C94C13583E50E942718882309
:1051000071F00091D6040E94131810E0000F111FD7
:105110000D5C1D4E0E94B9BDF801718360830E9431
:10512000016B0C94C13583E50E942718882311F484
:105130000C94C1350E9413180E94B9BD70933212AD
:10514000609331120C94C13589E690E00E946B2087
:1051500081110C94C135E1E3F5E08491882341F09D
:105160009091C00095FFFCCF8093C6003196F5CF9B
:10517000E091D60424E0E29FF0011124EB5DFD4EA6
:10518000408151816281738121E030E08DE799E0B7
:105190000E949D3AEEE2F5E08491882341F09091DF
:1051A000C00095FFFCCF8093C6003196F5CFE0910B
:1051B000D604F0E0EE0FFF1FED5CFD4E60817181C3
:1051C000882777FD8095982F0E94ECBDAB01BC012C
:1051D00021E030E08DE799E00E949D3AEAE2F5E0B7
:1051E0008491882341F09091C00095FFFCCF80937B
:1051F000C6003196F5CF40911F1250912012609158
:1052000021127091221221E030E08DE799E00E9496
:105210009D3AE7E2F5E08491882341F09091C00047
:1052200095FFFCCF8093C6003196F5CF6091311287
:1052300070913212882777FD8095982F0E94ECBDDF
:10524000AB01BC0121E030E08DE799E00E949D3A7E
:1052500033E3E32E32E1F32E45E2C42E42E1D42EB5
:1052600000E010E0E4E2F5E0B490E2E2F5E0A490C2
:10527000EFE1F5E094908B2DE4E2F5E0882349F02E
:105280009091C00095FFFCCF8093C6003196849129
:10529000F5CF4AE050E0B8018DE799E00E94BD39B2
:1052A0008A2DE2E2F5E0882349F09091C00095FF55
:1052B000FCCF8093C60031968491F5CFF6014191E1
:1052C0005191619171916F0121E030E08DE799E09A
:1052D0000E949D3A892DEFE1F5E0882349F09091F5
:1052E000C00095FFFCCF8093C60031968491F5CF26
:1052F000F701619171917F01882777FD8095982F43
:105300000E94ECBDAB01BC0121E030E08DE799E0EB
:105310000E949D3A0F5F1F4F0230110509F0ABCF7D
:10532000EBE1F5E08491882341F09091C00095FF76
:10533000FCCF8093C6003196F5CF8091D60490E0E3
:105340000E9451674AE050E0BC018DE799E00E945D
:10535000BD39E6E1F5E08491882341F09091C000E9
:1053600095FFFCCF8093C6003196F5CF8FEF9FEF6E
:105370000E9451674AE050E0BC018DE799E00E942D
:10538000BD398091C00085FFFCCF8AE08093C600C4
:105390000C946C378DE690E00E946B2081110C9488
:1053A000C1358BE095E00E94099A83E50E94271899
:1053B000882391F00091D6040E94131810E0000F8A
:1053C000111F0D5C1D4E0E94B9BDF80171836083F1
:1053D00081E080930A0215C082E50E942718882385
:1053E00081F00091D6040E94131810E0000F111FE5
:1053F0000D5C1D4E0E94B9BDF8017183608310924F
:105400000A020E94016B0E94D10F4B015C010091C6
:10541000D60410E0F801EE0FFF1FED5CFD4E608139
:105420007181882777FD8095982F0E94ECBDF80147
:10543000EE0FFF1FEE0FFF1FEB5DFD4E11E0208111
:105440003181428153810E944DBF18160CF010E04B
:105450001093D404CC24CA94DC2C7601E8E0F5E067
:1054600024912FA7E4E0F5E0349139ABE0E0F5E0DA
:10547000249048EE442E43E0542E612C712C5AE0C7
:10548000352E0C94583685EE94E00E94099A83E5F7
:105490000E942718882361F00E9413180E94B9BD4A
:1054A000709332126093311281E080930A020FC030
:1054B00082E50E942718882351F00E9413180E9449
:1054C000B9BD709332126093311210920A020E9499
:1054D000D10F6B017C0160913112709132128827DB
:1054E00077FD8095982F0E94ECBD11E020911F124E
:1054F0003091201240912112509122120E944DBFF2
:1055000018160CF010E01093D404E2EEF4E01491BD
:10551000EEEDF4E00491EAEDF4E0B490AAE0AA2EF6
:105520008091D4046091311270913212882309F471
:1055300083C0882777FD8095982F0E94ECBD20912D
:105540001F123091201240912112509122120E947C
:105550004DBF18160CF087C00E94D10F6C197D0941
:105560008E099F09693E73408105910508F45DC06D
:10557000E091AA0634E0E39FF0011124EB5DFD4EBB
:105580004081518162817381812FE2EEF4E08823B2
:1055900049F09091C00095FFFCCF8093C6003196F2
:1055A0008491F5CF22E030E08DE799E00E949D3AAA
:1055B000802FEEEDF4E0882349F09091C00095FF34
:1055C000FCCF8093C60031968491F5CF6091AA06F6
:1055D00070E04AE050E08DE799E00E94BD398B2DE4
:1055E000EAEDF4E0882349F09091C00095FFFCCFEC
:1055F0008093C60031968491F5CF40911F1250914F
:105600002012609121127091221221E030E08DE78A
:1056100099E00E949D3A8091C00085FFFCCFA09246
:10562000C6000E94D10F6B017C010E945C670E9442
:105630007D1F0E949D9A74CF882777FD8095982FB3
:105640000E94ECBD20911F12309120124091211236
:10565000509122120E944ABD87FF05C080910A0224
:10566000882309F479CF80ED94E00E94099A0E9482
:10567000D10F6093E3047093E4048093E504909366
:10568000E6040C94C13583E50E942718882319F19C
:105690000E94131820E030E0A9010E944ABD87FD56
:1056A0000FC00E94131820E030E04FE753E40E943F
:1056B0004DBF181644F00E9413180E94B9BD05C0D2
:1056C00060E070E002C06FEF70E07093A906609335
:1056D000A8060C94C1358FEF90E09093A9068093B3
:1056E000A8060C94C1350E946E6B0E94CB63409A51
:1056F0009FB7F89480910B01826080930B019FBF4C
:105700000E9434641092A9061092A80668EE73E015
:1057100080E090E00E9400101092140281EC94E06E
:105720000E94099A0E949D9A0C94C13581E0809351
:10573000EF060C94C13583E50E9427188823A1F059
:105740000E94131820E030E04AE754E40E941FC092
:105750000E94BEBD60930B0270930C0280930D02F9
:1057600090930E020C94C13588E50E942718811190
:105770000C94343789E50E94271881110C94343732
:105780008AE50E94271881110C94343785E40E9421
:10579000271881110C9434370C945E3783E50E94EE
:1057A00027180E94131820E030E04AE754E40E94D2
:1057B0001FC00E94BEBD6093DF047093E00480931D
:1057C000E1049093E2040C94C135F3E03F1268C009
:1057D0000E9413186B017C0120E030E040EA51E4A4
:1057E0000E944ABD87FF3FC0A7019601F801608172
:1057F0007181828193810E9451BD2B013C019B01EB
:10580000AC016091191170911A1180911B11909146
:105810001C110E941FC06093191170931A1180937C
:105820001B1190931C11A3019201F40160817181FD
:10583000828193810E941FC0F401608371838283FF
:105840009383F50160817181828193810E94EABD19
:10585000A30192010E941FC00E94BEBDF50160839A
:10586000718382839383F801C082D182E282F382C2
:1058700033940C5F1F4FF4E08F0E911C24E0A20EB6
:10588000B11C34E0331611F40C94C135EFA5F8A91E
:105890008191F8ABEFA70E942718882349F395CF91
:1058A0000E941318F8016083718382839383E0CF91
:1058B000E7EFF3E08491882311F40C94C1359091C3
:1058C000C00095FFFCCF8093C6003196F3CF0091C6
:1058D000E7041091E8040B5F1F4F6AE270E0C80113
:1058E0000E94BBC4009719F0FC0131971082C801D7
:1058F0000E94FA990C94C135E4EFF3E08491882377
:1059000041F09091C00095FFFCCF8093C600319686
:10591000F5CF4091DA065091DB066091DC0670917C
:10592000DD0622E030E08DE799E00E949D3AE0EF4D
:10593000F3E08491882341F09091C00095FFFCCF63
:105940008093C6003196F5CF4091DE065091DF0678
:105950006091E0067091E10622E030E08DE799E089
:105960000E949D3AECEEF3E08491882341F09091FF
:10597000C00095FFFCCF8093C6003196F5CF4091D3
:10598000E2065091E3066091E4067091E50622E09C
:1059900030E08DE799E00E949D3AE8EEF3E08491D3
:1059A000882341F09091C00095FFFCCF8093C60002
:1059B0003196F5CF4091E6065091E7066091E806F2
:1059C0007091E90622E030E08DE799E00E949D3A6F
:1059D000EDEDF3E08491882341F09091C00095FFB4
:1059E000FCCF8093C6003196F5CF0E9426640E94BA
:1059F000ECBD2091411130914211409143115091E1
:105A000044110E9451BDAB01BC0122E030E08DE7A2
:105A100099E00E949D3AE9EDF3E08491882341F0FA
:105A20009091C00095FFFCCF8093C6003196F5CFD2
:105A300081E00E9426640E94ECBD209145113091C6
:105A4000461140914711509148110E9451BDAB0140
:105A5000BC0122E030E08DE799E00E949D3AE5ED3F
:105A6000F3E08491882341F09091C00095FFFCCF32
:105A70008093C6003196F5CF82E00E9426640E9492
:105A8000ECBD2091491130914A1140914B11509138
:105A90004C110E9451BDAB01BC0122E030E08DE70A
:105AA00099E00E949D3A8091C00085FFFCCF8AE07A
:105AB0008093C6000C94C13580E00E941C5D0C945C
:105AC000C1359091C00095FFFCCF8093C6008191B5
:105AD0008111F7CF8091C00085FFFCCF8AE08093D1
