:100000000C94C61B0C94801E0C94B11E0C94E21E22
:100010000C94131F0C94441F0C94751F0C94A61F72
:100020000C94D71F0C94F71B0C94F71B0C94F71B24
:100030000C94F71B0C9452E00C94F71B0C94F71BD8
:100040000C94F71B0C942CBA0C94F71B0C94F71B14
:100050000C94F71B0C94F71B0C943CCB0C94F91BE1
:100060000C94F71B0C94C4940C94F71B0C94F71B82
:100070000C94F71B0C94F71B0C94F71B0C94F71BB8
:100080000C94F71B0C94F71B0C94F71B0C94F71BA8
:100090000C94F71B0C94F71B0C94F71B0C946E2913
:1000A0000C94F71B0C94F71B0C94F71B0C94F71B88
:1000B0000C94F71B0C94F71B0C94F71B0C94F71B78
:1000C0000C94F71B0C94F71B0C94F71B0C94F71B68
:1000D0000C94F71B0C94F71B0C94F71B0C94F71B58
:1000E0000C94F71B2B1D301D351D3F1DB81D491DE0
:1000F000511D591D631D6D1D771D861D901DB81D59
:100100009A1DA41DAE1DD61DD91DCC1DD01D101EBF
:10011000DD1DE11DE71DEB1DEF1DF51DF91DFD1D8D
:10012000101E031E071E0B1E7523752383239123A8
:10013000AD23BB23C923D723E8239F23B0DEB3DE3F
:10014000BADEC1DEC8DECFDEB4DFD6DEDDDEE5DE60
:10015000B4DFEDDEF6DEFDDE06DF0DDF14DFB4DF3B
:100160001BDF22DF2BDFB4DF34DF3DDF3FDF41DF8A
:1001700043DF45DF47DF49DF4BDF4DDF4FDF51DF37
:1001800053DF55DF57DF59DF5BDFB4DFB4DFB4DFA8
:10019000B4DFB4DFB4DFB4DFB4DFB4DFB4DFB4DFC7
:1001A000B4DFB4DFB4DFB4DFB4DFB4DFB4DFB4DFB7
:1001B000B4DFB4DFB4DFB4DFB4DFB4DFB4DFB4DFA7
:1001C000B4DFB4DFB4DFB4DFB4DFB4DFB4DFB4DF97
:1001D000B4DFB4DFB4DFB4DFB4DFB4DFB4DFB4DF87
:1001E000B4DFB4DFB4DFB4DFB4DFB4DFB4DFB4DF77
:1001F000B4DFB4DFB4DFB4DFB4DFB4DFB4DFB4DF67
:10020000B4DFB4DF5FDF78DF084AD73B3BCE016E57
:1002100084BCBFFDC12F3D6C74319ABD56833DDA5D
:100220003D00C77F11BED9E4BB4C3E916BAAAABE6C
:10023000000000803F05A84CCDB2D44EB93836A995
:10024000020C50B9918688083CA6AAAA2ABE0000D2
:1002500000803F000C9471370C94B3DE0C943B6427
:100260000C94CA490C941C3E0C9461430C9436398E
:100270000C94D44F0C94C94E0C9455DF0C94BADEF8
:100280000C94E5490C94E11D0C94901D0C945D3F79
:100290000C9429560C9408670C9498590C94E823F4
:1002A0000C9403440C9483350C94E5DE0C94F91DF6
:1002B0000C9451DF0C94351D0C94101E0C94AF94CB
:1002C0000C94DA5A0C9443DF0C94DC450C94684F80
:1002D0000C94BD590C94CFDE0C9451620C943453A1
:1002E0000C941BDF0C94491D0C94E1590C94275B72
:1002F0000C94423E0C9495240C94984D0C94C72079
:100300000C942E550C94FB3B0C94E3340C946D53DD
:100310000C948C500C94D6DE0C944FDF0C944B5EF6
:100320000C94C9230C9459DF0C94771D0C94EF1D89
:100330000C941E5A0C9491230C94CC330C943C4F87
:100340000C94DD1D0C94AC5A0C94031E0C94643C6C
:100350000C94B4DF0C94A9460C94B81D0C94DD5C8D
:100360000C94763E0C9408200C94F6DE0C943DDF41
:100370000C940DDF0C94C76B0C94FDDE0C94071EDF
:100380000C94A4A20C94D7640C9443470C949A1D2B
:100390000C945D400C9447DF0C9482410C94FD1D3D
:1003A0000C9450480C94D7230C94DF5E0C94035BA0
:1003B0000C948A480C945B620C94631D0C94B76196
:1003C0000C94BD3D0C94AC3A0C945BDF0C94CA3792
:1003D0000C941E420C94E71D0C94E2510C94934F24
:1003E0000C94CC1D0C944BDF0C941B5C0C94C094AF
:1003F0000C94C53C0C941A210C94EB4C0C94861D67
:100400000C9449DF0C94BD490C948F340C94EB1D73
:100410000C945B360C9488650C94B9340C94EDDE26
:100420000C94511D0C94ED360C943F1D0C94DE4C35
:100430000C9441DF0C94591D0C94044E0C94AD2384
:100440000C9451480C94933F0C94AF430C94A939ED
:100450000C942B1D0C942F490C946F580C949743BB
:100460000C9470630C945FDF0C9408650C942BDF84
:100470000C9480380C946D1D0C940E580C947B4A8F
:100480000C9478DF0C94BB230C94C8DE0C9422DF10
:100490000C946B480C940C3D0C9440350C94C1DECC
:1004A0000C948F410C94FB270C94DD590C94F51D92
:1004B0000C940B1E0C947E3C0C94A23A0C947C3B46
:1004C0000C947E3D0C94D2330C946B470C94301DED
:1004D0000C94BA470C9475230C94AE1D0C94B0DEAA
:1004E0000C9445DF0C94E33A0C942B610C94F33A92
:1004F0000C94384D0C9453DF0C944DDF0C94D61DA6
:100500000C9406DF0C9457DF0C9414DF0C94EF3539
:100510000C94B2480C94603E0C94464E0C94113AE4
:100520000C94D91D0C9411340C9450340C94026228
:100530000C9403350C9483230C94EB3D0C94A63659
:100540000C949F230C94CF610C943FDF0C94244CAB
:100550000C94F6400C9434DF0C94A0480C94A41D29
:100560000C94DDDE0C9434370C94D01D0000090A85
:1005700002080B0C0D070603040100000000000038
:10058000000000000000000000000000000000006B
:10059000000000000000000011100F00000000002B
:1005A000000000000000000000000000000000004B
:1005B0000000010210202008081020401020408078
:1005C0000201020108040201010204081020408017
:1005D00080402010080402018004020180402010A5
:1005E00008040201080402010102040810204080EE
:1005F00001020408102040800505050507050808CC
:100600000808020202020A0A08080404040401019C
:1006100001010101010103030303030303030407B1
:1006200007070C0C0C0C0C0C0C0C02020202060648
:100630000606060606060B0B0B0B0B0B0B0B00003E
:100640002200250028002B002E003100340002017A
:100650000000050108010B01000021002400270013
:100660002A002D00300033000101000004010701C1
:100670000A015052494E54004D4154455249414C93
:10068000004D41494E54454E414E4345005072691C
:100690006E74696E672077697468205553422E2EF8
:1006A0002E00756C74696D616B65722E636F6D2FB2
:1006B0004552303700476F20746F3A0058206F72F0
:1006C00020592073776974636820737475636B00B5
:1006D000756C74696D616B65722E636F6D2F455219
:1006E000303700476F20746F3A0058206F722059DE
:1006F000207377697463682062726F6B656E007532
:100700006C74696D616B65722E636F6D2F4552302D
:100710003600476F20746F3A005A2073776974630C
:100720006820737475636B00756C74696D616B65BB
:10073000722E636F6D2F4552303500476F20746FF6
:100740003A005A207377697463682062726F6B6530
:100750006E00756C74696D616B65722E636F6D2FC1
:100760004552303400476F20746F3A00536166651C
:100770007479206369726375697400756C74696D4E
:10078000616B65722E636F6D2F4552303300476F7A
:1007900020746F3A00486561746572206572726FEB
:1007A0007200756C74696D616B65722E636F6D2F6D
:1007B0004552303200476F20746F3A0054656D70B7
:1007C0002073656E736F722042454400756C7469C6
:1007D0006D616B65722E636F6D2F4552303100472E
:1007E0006F20746F3A0054656D702073656E736F7F
:1007F00072004552524F52202D2053544F505045B5
:100800004400801506060606FEFEFEFEFC00000003
:1008100000000000FCFEFEFEFC0000000EFEFEFEDE
:10082000FE0000E0FCFEFEFCE0E0000000CECECECC
:10083000000000C0C0C0C0C0C080000000000000B8
:1008400080C0C0800000000000008080C0C0C0C028
:10085000C0C0C080800000000006FEFEFEFE00005A
:10086000000080C0C0C00000000000008080C0C048
:10087000C080808000000000C0C0C0C00080C0C038
:10088000C0C08000000000007FFFFFFFFF8000006D
:1008900000000080FFFFFFFFFF00000000FFFFFFE0
:1008A000FF000000FFFFFFFF0000000000FFFFFF50
:1008B00000000081F1FFFF3F0F3FFFFCF0F0FCFF65
:1008C0003F0F3FFFFEF880000000C1E1F1F1713100
:1008D000010183FFFFFFFC000000FFFFFFFF000C92
:1008E0003EFFFFF7C301000000FCFEFF870311314C
:1008F00031333F3F3F1E000001FFFFFFFF070301B1
:10090000010101000000000000010307070F0F0FA5
:100910000F0F0F0F0707070F0F06000000070F0F3D
:1009200007000000070F0F0700000000000F0F0F67
:100930000000060F0F070100000001070F0F07015D
:1009400000000001070F0F06000003070F0F0E0E37
:10095000060703070F0F07000000070F0F0700002F
:100960000000030F0F0F060000000307070F0E0E15
:100970000E0E0E0E06000000000F0F0F0F000000FD
:1009800000000000507265763A200043414E434516
:100990004C002073656300206D696E0020686F75E0
:1009A000720020686F757273000000000000000084
:1009B0005F00000007000700147F147F14242A7FC3
:1009C0002A12231308646236495522500005030099
:1009D00000001C2241000041221C00082A1C2A0899
:1009E00008083E0808005030000008080808080001
:1009F0006060000020100804023E5149453E00425C
:100A00007F400042615149462141454B3118141243
:100A10007F1027454545393C4A4949300171090550
:100A2000033649494936064949291E003636000031
:100A30000056360000000814224114141414144106
:100A4000221408000201510906324979413E7E1103
:100A500011117E7F494949363E414141227F414142
:100A6000221C7F494949417F090901013E41415109
:100A7000327F0808087F00417F41002040413F014C
:100A80007F081422417F404040407F0204027F7F64
:100A90000408107F3E4141413E7F090909063E415D
:100AA00051215E7F09192946464949493101017F93
:100AB00001013F4040403F1F2040201F7F20182061
:100AC0007F631408146303047804036151494543A8
:100AD00000007F4141020408102041417F000004D2
:100AE0000201020440404040400001020400205442
:100AF0005454787F4844443838444444203844446B
:100B0000487F3854545418087E090102081454547C
:100B10003C7F0804047800447D40002040443D00B0
:100B2000007F10284400417F40007C041804787C3A
:100B30000804047838444444387C14141408081415
:100B400014187C7C080404084854545420043F447E
:100B500040203C4040207C1C2040201C3C40304039
:100B60003C44281028440C5050503C4464544C449D
:100B7000000836410000007F0000004136080008F0
:100B8000082A1C08081C2A08084731204625692025
:100B90005A2569205825692059256900473238208F
:100BA0005A30205830205930006275696C64706C7E
:100BB0006174652E006F662061646A757374696E76
:100BC0006720796F7572007468726F75676820743A
:100BD00068652070726F6365737300492077696C74
:100BE0006C20677569646520796F7500434F4E54BA
:100BF000494E55450043414E43454C00473238204D
:100C00005A3000746F207072696E7420697421000C
:100C1000616E6420707265737320746865206275FC
:100C200074746F6E006F6E207468652053442D637A
:100C30006172640053656C65637420612070726931
:100C40006E742066696C650032312F3231004C457C
:100C5000542753205052494E540052656164696EC6
:100C60006720636172642E2E2E0032312F323100E4
:100C7000796F757220556C74696D616B6572322E77
:100C80002E2E00746861742063616D65207769742D
:100C90006800506C6561736520696E7365727420BD
:100CA00053442D636172640032312F3231006D6123
:100CB0006B652061203344205072696E74210049B5
:100CC000276D207265616479206C6574277300322A
:100CD000302F32310041524520594F552052454165
:100CE00044593F0066726F6D206E6F7A7A6C652E84
:100CF0002E2E006D6174657269616C20657869746F
:100D000073005075736820627574746F6E20776815
:100D1000656E0031392F323100434F4E54494E55E4
:100D200045004C6F6164696E67206D61746572691E
:100D3000616C2E2E2E0031382F32310061626F76B9
:100D40006520746865206172726F772E00796F7507
:100D50007220556C74696D616B6572322C0066721D
:100D60006F6D207468652072656172206F6600493E
:100D70006E73657274206E6577206D61746572693B
:100D8000616C0031372F323100434F4E54494E557C
:100D900045006D6174657269616C206C6F61646996
:100DA0006E67007072696E74686561642068656161
:100DB00074696E6720666F7200506C6561736520A0
:100DC000776169742C0031362F32310053656C65C0
:100DD000637420746865206D6174657269616C006C
:100DE0006974206973207573696E672E006F6620C1
:100DF0006D6174657269616C006B6E6F77732077DB
:100E0000686174206B696E64004E6F7720796F752E
:100E10007220556C74696D616B6572320031352FCB
:100E2000323100434F4E54494E554500697320748A
:100E30006869732072696768743F00596F7520682C
:100E40006176652063686F73656E0031342F3231CF
:100E500000594553004E4F00206173206D61746549
:100E60007269616C2C0031332F3231004D41544591
:100E70005249414C00556C74696D616B6572322E3C
:100E800000696E7365727420696E207468697300FE
:100E90006D6174657269616C20796F752077696C1A
:100EA0006C004E6578742C2073656C6563742074D7
:100EB00068650031322F3231005245414459004DAE
:100EC000383400473120463132303030205831310B
:100ED000302059313000746F20696E736572742050
:100EE0006D6174657269616C2E00746865206E6551
:100EF000787420737465702069730074686520626B
:100F000075696C64706C617465004E6F77207468ED
:100F10006174207765206C6576656C65640031319D
:100F20002F323100434F4E54494E55450074686589
:100F300020726967687420636F726E65722E2E2E40
:100F400000526570656174207468697320666F7201
:100F50000031302F323100434F4E54494E55450039
:100F6000444F4E4500746865206C65667420636F5D
:100F7000726E65722E2E2E0052657065617420743B
:100F800068697320666F7200392F323100434F4E0B
:100F900054494E55450062697420726573697374D3
:100FA000616E63652E00756E74696C20796F7520B3
:100FB0006665656C2061006275696C64706C617453
:100FC0006520616E64206E6F7A7A6C6500536C697F
:100FD0006465206120706170657220626574776558
:100FE000656E00382F323100434F4E54494E5545FF
:100FF00000434F4E54494E55450047312046256920
:10100000205A30004731204625692058256920594B
:10101000256900473120462569205A3500746865E6
:10102000206275696C64706C617465206C657665AE
:101030006C2E00706170657220746F2066696E6539
:101040002D74756E65006E6F772075736520612055
:101050007368656574206F66005265706561742001
:101060007468697320737465702C2062757400371E
:101070002F323100434F4E54494E55450066726F32
:101080006D20746865206275696C64706C6174654C
:101090002E0069732061206D696C6C696D657465E3
:1010A0007220617761790073637265772074696C6F
:1010B0006C20746865206E6F7A7A6C650054757266
:1010C0006E207269676874206275696C64706C6107
:1010D000746500362F323100434F4E54494E55450A
:1010E00000473120462569205A30004731204625E7
:1010F000692058256920592569004731204625690E
:10110000205A350066726F6D2074686520627569BB
:101110006C64706C6174652E0069732061206D6968
:101120006C6C696D657465722061776179007363B9
:101130007265772074696C6C20746865206E6F7AB4
:101140007A6C65005475726E206C656674206275E9
:10115000696C64706C61746500352F323100434FE7
:101160004E54494E554500473120462569205A3096
:1011700000473120462569205825692059256900F6
:10118000473120462569205A350066726F6D2074FC
:101190006865206275696C64706C6174652E0061AD
:1011A000206D696C6C696D65746572206177617919
:1011B00000756E74696C20746865206E6F7A7A6C45
:1011C0006520697300526F746174652074686520CE
:1011D000627574746F6E00342F323100434F4E5479
:1011E000494E554500434F4E54494E5545004731F1
:1011F00020462569205A25692058256920592569E6
:101200000047323820583020593000676F696E67C8
:1012100020746F20646F2074686174206E6F772E65
:101220000061646A7573746D656E74732C207765E4
:1012300020617265007765206E65656420746F209B
:10124000646F20736F6D65004166746572207472FF
:10125000616E73706F72746174696F6E00332F32D8
:101260003100434F4E54494E5545004731204625E5
:1012700069205A256900473238205A3000612066BB
:10128000697273742072756E2077697A6172642E48
:101290000077616C6B20796F75207468726F756769
:1012A000680066697273742073746172747570205B
:1012B000492077696C6C00426563617573652074C1
:1012C0006869732069732074686500322F323100B9
:1012D000434F4E54494E554500627574746F6E20ED
:1012E000746F20636F6E74696E756500556C7469F8
:1012F0006D616B657221205072657373207468652F
:101300000073746172747570206F6620796F7572E6
:101310000057656C636F6D6520746F20746865207D
:10132000666972737400312F323100434F4E544955
:101330004E5545004300432F00436C69636B207496
:101340006F2072657475726E004275696C64706CA2
:101350006174652074656D702E3A003F3F3F004612
:101360006163746F72792072657365740052756E73
:1013700074696D6520737461747300566572736966
:101380006F6E004D6F74696F6E2073657474696E53
:1013900067730052657472616374696F6E20736560
:1013A0007474696E6773005365742066616E207390
:1013B00070656564004D6F7665206D617465726956
:1013C000616C00496E73657274206D617465726939
:1013D000616C005261697365206275696C64706C40
:1013E000617465004C6F776572206275696C64701A
:1013F0006C61746500486F6D6520686561640048C4
:101400006561747570206275696C64706C61746577
:1014100000486561747570206E6F7A7A6C65004C57
:1014200045442073657474696E6773003C205245AF
:101430005455524E00566572733A5F322E316578BC
:101440000025004300432F004300432F0025003FA9
:101450003F3F0020476C6F77207768656E20646F90
:101460006E6500204F6E207768696C652070726928
:101470006E74696E670020416C77617973204F66E6
:10148000660020416C77617973204F6E004272696B
:101490006768746E657373003C2052455455524E14
:1014A00000250025004272696768746E65737300D9
:1014B0004C4544004300432F00436C69636B207428
:1014C0006F2072657475726E004E6F7A7A6C65204B
:1014D00074656D70657261747572653A0047323873
:1014E000205830205930004300432F00436C69637B
:1014F0006B20746F2072657475726E00526F746128
:10150000746520746F2065787472756465004E6F21
:101510007A7A6C652074656D706572617475726538
:101520003A003F3F3F0052657472616374207370EC
:101530006565640052657472616374206C656E67E2
:101540007468003C2052455455524E006D6D2F7307
:101550006563006D6D006D6D2F736563005265747A
:1015600072616374207370656564006D6D0052650F
:101570007472616374206C656E67746800524554C0
:1015800052414354494F4E003F3F3F0043757272F2
:10159000656E7420450043757272656E74205A0042
:1015A00043757272656E7420582F59004D61782012
:1015B0007370656564205A004D61782073706565AD
:1015C000642059004D61782073706565642058006F
:1015D000582F59204A65726B00416363656C6572D0
:1015E0006174696F6E003C2052455455524E006D37
:1015F00041006D41006D41006D6D2F736563006D9D
:101600006D2F736563006D6D2F736563006D6D2FB6
:10161000736563006D6D2F7365635E32006D41000D
:1016200043757272656E742045006D41004375729A
:1016300072656E74205A006D410043757272656E5A
:101640007420582F59006D6D2F736563004D6178BC
:10165000207370656564205A006D6D2F736563009B
:101660004D61782073706565642059006D6D2F732E
:101670006563004D61782073706565642058006D66
:101680006D2F73656300582F59204A65726B0030C7
:10169000306D6D2F7365635E3200416363656C6509
:1016A000726174696F6E004D4F54494F4E0056651C
:1016B00072733A5F322E316578004A756E2032308F
:1016C00020323031362031353A34313A3539005212
:1016D000657475726E006D00204D61743A003A00B9
:1016E0005072696E74696E673A003A004D616368C2
:1016F000696E65206F6E20666F723A005265747570
:10170000726E00746F2064656661756C743F005280
:10171000657365742065766572797468696E6700B3
:10172000594553004E4F00250046616E2073706589
:1017300065640047312046256920582569205925D0
:101740006900473238205830205930004731205A3C
:10175000343000473238205A3000473238205A306F
:101760000047323820583020593000473238205A4C
:101770003000414456414E434544004255494C4493
:101780002D7C504C41544500414456414E43454404
:101790000052455455524E004350450043504500B9
:1017A0004350450055504554004350450041425375
:1017B00000504C4100250046616E3A200043004332
:1017C000002500466C6F773A006D6D00636F6D65A4
:1017D00073206F757420746865206E6F7A7A6C65FB
:1017E00000576169742074696C6C206D6174657256
:1017F00069616C0052454144590043414E43454C98
:1018000000466F7277617264696E67206D617465FE
:101810007269616C0061626F766520746865206131
:1018200072726F772E00796F7572206D61636869CF
:101830006E652C0066726F6D20746865206261634E
:101840006B73696465206F6600496E7365727420FE
:101850006E6577206D6174657269616C00524541F7
:1018600044590043414E43454C006D6174657269B3
:10187000616C20696E73657274696F6E00436F6F7F
:101880006C696E67207072696E7468656164206649
:101890006F720048656174696E67207072696E745A
:1018A0006865616420666F72004D4154455249413C
:1018B0004C0052656D6F7665206D6174657269616B
:1018C0006C0052454144590043414E43454C00523F
:1018D0006576657273696E67206D617465726961A2
:1018E0006C00666F72206D6174657269616C207244
:1018F000656D6F76616C0048656174696E67207014
:1019000072696E746865616400473238205830200F
:10191000593000496D706F72742066726F6D20537C
:1019200044004578706F727420746F2053440043F4
:101930007573746F6D697A65003C20524554555239
:101940004E004C6F61647320616C6C206D61746536
:101950007269616C7300536176657320616C6C20F1
:101960006D6174657269616C73004D6F646966794D
:10197000207468652073657474696E677300250050
:1019800046616E3A2000430043002500466C6F77A5
:101990003A006D6D003F3F3F0053746F72652061E8
:1019A000732070726573657400466C6F7720250034
:1019B00046616E004469616D6574657200486561D9
:1019C000746564206275696C64706C617465005440
:1019D000656D7065726174757265003C2052455486
:1019E00055524E00250025006D6D00430043004E0A
:1019F000657720707265736574003C2052455455BC
:101A0000524E00505245534554530025004D6174C9
:101A1000657269616C20666C6F7700250046616EA7
:101A2000207370656564006D6D004D617465726949
:101A3000616C204469616D65746572004300427594
:101A4000696C64706C6174652054656D702E004320
:101A50000054656D7065726174757265004D415416
:101A6000455249414C00696E204D4154455249410F
:101A70004C2E54585400746F2074686520534420D1
:101A800063617264005361766564206D6174657290
:101A900069616C73004F6B000A0A006469616D65CF
:101AA0007465723D000A00666C6F773D000A00663F
:101AB000616E5F73706565643D000A006265645F16
:101AC00074656D70657261747572653D000A0074AD
:101AD000656D70657261747572653D000A006E61B6
:101AE0006D653D005B6D6174657269616C5D0A00D6
:101AF00052656164696E6720636172642E2E2E00E8
:101B0000506C6561736520696E73657274206361E2
:101B10007264004E6F2053442D43415244210066AD
:101B2000726F6D2074686520534420636172640095
:101B30004C6F61646564206D6174657269616C737A
:101B4000004F6B006469616D6574657200666C6F4F
:101B5000770066616E5F7370656564006265645FDF
:101B600074656D70657261747572650074656D7011
:101B700065726174757265006E616D65005B6D61A3
:101B800074657269616C5D00466F756E64206F6E7E
:101B900020636172642E004E6F206578706F7274DE
:101BA0002066696C650052656164696E67206361D7
:101BB00072642E2E2E00506C6561736520696E7301
:101BC0006572742063617264004E6F2053442D432C
:101BD000415244210053656C6563746564206D61F6
:101BE00074657269616C3A004F4B004D4154455227
:101BF00049414C0047312046256920582569205924
:101C00002569004732382058302059300043484178
:101C10004E47450053455454494E4753005245548E
:101C200055524E004300432F00436C69636B207490
:101C30006F2072657475726E004E6F7A7A6C6520D3
:101C400074656D70657261747572653A0050726585
:101C5000706172696E6720746F207072696E743A79
:101C60000048656174696E672075702E2E2E0054D1
:101C7000554E450041424F5254004C45442042725B
:101C8000696768746E65737300526574726163741A
:101C9000696F6E004D6174657269616C20666C6F6E
:101CA000770046616E207370656564004275696CEB
:101CB00064706C6174652074656D702E0054656D80
:101CC000706572617475726500537065656400417A
:101CD000626F7274003C2052455455524E002500EC
:101CE00025002500430043004300430025004162D6
:101CF0006F727420746865207072696E743F005949
:101D00004553004E4F003F3F3F0052657472616380
:101D10007420737065656400526574726163742029
:101D20006C656E677468003C2052455455524E00F5
:101D30006D6D2F736563006D6D006D6D2F73656341
:101D40000052657472616374207370656564006D20
:101D50006D0052657472616374206C656E6774689F
:101D60000052455452414354494F4E00250042729F
:101D7000696768746E6573730025004D61746572E0
:101D800069616C20666C6F7700250046616E207378
:101D9000706565640025005072696E74207370650B
:101DA00065640054554E450054696D65206C656648
:101DB000740054696D65206C65667420756E6B6E79
:101DC0006F776E004300430048656174696E672059
:101DD0006275696C64706C6174650043004300480F
:101DE000656174696E67005072696E74696E673AF6
:101DF0000054554E450050415553450052455355EA
:101E00004D457C5052494E54004348414E47457C15
:101E10004D4154455249414C0054554E45004D38B2
:101E2000340047323800473238205A3000473238C1
:101E30002058302059300047312046256920453050
:101E40000047393220452569004D343031004D3688
:101E50003031205835205935205A2569204C2569C4
:101E600000746865207072696E742E00596F752059
:101E700063616E2072656D6F7665005072696E7475
:101E80002066696E6973686564004241434B205463
:101E90004F204D454E550043004320005072696E5F
:101EA00074657220636F6F6C696E6720646F776E04
:101EB000004241434B20544F204D454E55006F6624
:101EC000207072696E74696E67206172656100547A
:101ED00072696564207072696E74696E67206F75CF
:101EE00074004552524F523A0052455455524E20BA
:101EF000544F204D41494E00756C74696D616B659E
:101F0000722E636F6D2F4552303800476F20746F0B
:101F10003A0072656164696E672053442D63617293
:101F20006421004572726F72207768696C65005297
:101F3000455455524E20544F204D41494E00667233
:101F40006F6D2074686520736C696365722E007311
:101F5000657474696E67207769746820736574743A
:101F6000696E67006F76657272696465206D616382
:101F700068696E6500546869732066696C652077CE
:101F8000696C6C00434F4E54494E55450043414ED9
:101F900043454C003C204241434B003C20524554B9
:101FA00055524E005344204341524400473120468D
:101FB00031323030302058352059313000473238F6
:101FC000003B464C41564F523A556C746947436F3B
:101FD0006465003B464C41564F523A556C74694714
:101FE000436F6465004E6F2066696C657320666F91
:101FF000756E6421004F4B004F4B00526561646960
:102000006E6720636172642E2E2E00506C656173C2
:102010006520696E736572742063617264004E6F2F
:102020002053442D4341524421004E6F20696E6677
:102030006F20617661696C61626C65006D006D0096
:102040004D6174657269616C3A200054696D653A3E
:1020500020003B4D4154455249414C3A003B5449C4
:102060004D453A00466F6C646572004D3231382040
:10207000496E76616C696420657874727564657206
:1020800020004D31303920496E76616C69642065DD
:102090007874727564657220004D31303520496E58
:1020A00076616C696420657874727564657220006D
:1020B0004D31303420496E76616C696420657874E6
:1020C000727564657220005072696E746572207357
:1020D000746F707065642064756520746F2065721C
:1020E000726F72732E20466978207468652065725D
:1020F000726F7220616E6420757365204D393939B5
:1021000020746F20726573746172742E2028546578
:102110006D70657261747572652069732072657384
:1021200065742E205365742069742061667465722D
:102130002072657374617274696E672900507269E8
:102140006E7465722068616C7465642E206B696CB6
:102150006C28292063616C6C656421006F6B0052F0
:102160006573656E643A2000456E6473746F702009
:102170007374696C6C20707265737365642061663A
:10218000746572206261636B696E67206F66662E8C
:1021900020456E6473746F7020737475636B3F00B9
:1021A000456E6473746F70206E6F74207072657307
:1021B00073656420616674657220686F6D696E670F
:1021C00020646F776E2E20456E6473746F7020628A
:1021D000726F6B656E3F00456E6473746F70206E36
:1021E0006F742070726573736564206166746572C4
:1021F00020686F6D696E6720646F776E2E20456E64
:102200006473746F702062726F6B656E3F002200A2
:10221000556E6B6E6F776E20636F6D6D616E643A95
:10222000202200456C656374726F6E6963735F741E
:1022300065737400416374697665204578747275BE
:102240006465723A2000496E76616C696420657835
:1022500074727564657200540020423A3000204266
:102260003A31006F6B20523A0020633A0020643A02
:102270000020693A0020703A006F6B002200556E12
:102280006B6E6F776E20636F6D6D616E643A2022A6
:10229000006F70656E0054524947474552454400EF
:1022A0007A5F6D61783A20006F70656E0054524914
:1022B00047474552454400795F6D61783A20006F89
:1022C00070656E0054524947474552454400785F57
:1022D0006D696E3A20005265706F7274696E672086
:1022E000656E6473746F7020737461747573005AD3
:1022F0003A00593A0020436F756E7420583A200016
:10230000453A005A3A00593A00583A004649524D67
:10231000574152455F4E414D453A4D61726C696E71
:1023200020556C74696D616B6572323B205370721D
:10233000696E7465722F6772626C206D6173687567
:102340007020666F722067656E36204649524D5781
:102350004152455F55524C3A687474703A2F2F675A
:1023600069746875622E636F6D2F556C74696D6149
:102370006B65722050524F544F434F4C5F5645523D
:1023800053494F4E3A312E30204D414348494E4536
:102390005F545950453A556C74696D616B65722094
:1023A00045585452554445525F434F554E543A3167
:1023B0000A0020423A0020453A00543A003F0020EB
:1023C000573A0020453A00543A002042403A002053
:1023D000403A00202F0020423A00202F006F6B204F
:1023E000543A002569206D696E2C2025692073659B
:1023F0006300456E642066696C65206C69737400C7
:10240000426567696E2066696C65206C697374004B
:10241000256920686F757273202569206D696E7556
:1024200074657300446F6E65207072696E74696EB6
:10243000672066696C65005072696E7465722073FE
:10244000746F707065642064756520746F206572A8
:10245000726F72732E2046697820746865206572E9
:10246000726F7220616E6420757365204D39393941
:1024700020746F20726573746172742E2028546505
:102480006D70657261747572652069732072657311
:1024900065742E20536574206974206166746572BA
:1024A0002072657374617274696E6729006F6B00C6
:1024B0004E6F204C696E65204E756D626572207797
:1024C00069746820636865636B73756D2C204C615B
:1024D0007374204C696E653A20004E6F2043686526
:1024E000636B73756D2077697468206C696E652005
:1024F0006E756D6265722C204C617374204C696E30
:10250000653A2000636865636B73756D206D697350
:102510006D617463682C204C617374204C696E6526
:102520003A20004C696E65204E756D6265722069B7
:1025300073206E6F74204C617374204C696E65203B
:102540004E756D6265722B312C204C617374204C7A
:10255000696E653A20004D31313000446F6E652060
:10256000736176696E672066696C652E006F6B001B
:102570004D3239002020506C616E6E657242756676
:1025800066657242797465733A200020467265650B
:10259000204D656D6F72793A20004A756E20323099
:1025A000203230313600436F6D70696C65643A20BB
:1025B00000566572733A5F322E31657800207C20B8
:1025C000417574686F723A20004A756E203230206F
:1025D000323031362031353A34313A353900204CF9
:1025E00061737420557064617465643A2000312E03
:1025F000302E30004D61726C696E200020536F6682
:102600007477617265205265736574002057617438
:102610006368646F67205265736574002042726F4F
:10262000776E206F7574205265736574002045784D
:102630007465726E616C20526573657400506F77BB
:1026400065725570007374617274002200656E715A
:102650007565696E672022002200656E7175656977
:102660006E67202200FF01010000E0400000E04012
:102670000000E04000006643000066430000A54300
:1026800000000000000066430000A5430000664310
:10269000000066430000A5430000000000000000A9
:1026A000000000006563686F3A004572726F723A0D
:1026B0000000002110422063308440A550C660E72E
:1026C00070088129914AA16BB18CC1ADD1CEE1EFE7
:1026D000F13112100273325222B5529442F772D67F
:1026E00062399318837BB35AA3BDD39CC3FFF3DE37
:1026F000E36224433420040114E664C774A44485CF
:10270000546AA54BB528850995EEE5CFF5ACC58D86
:10271000D55336722611163006D776F6669556B41E
:10272000465BB77AA719973887DFF7FEE79DD7BCD6
:10273000C7C448E5588668A778400861180228236E
:1027400038CCC9EDD98EE9AFF9488969990AA92B26
:10275000B9F55AD44AB77A966A711A500A333A12BE
:102760002AFDDBDCCBBFFB9EEB799B588B3BBB1A76
:10277000ABA66C877CE44CC55C222C033C600C410E
:102780001CAEED8FFDECCDCDDD2AAD0BBD688D49C6
:102790009D977EB66ED55EF44E133E322E511E705E
:1027A0000E9FFFBEEFDDDFFCCF1BBF3AAF599F7816
:1027B0008F8891A981CAB1EBA10CD12DC14EF16FC7
:1027C000E18010A100C230E320045025404670672C
:1027D00060B9839893FBA3DAB33DC31CD37FE35E58
:1027E000F3B1029012F322D232354214527762567C
:1027F00072EAB5CBA5A89589856EF54FE52CD50D68
:10280000C5E234C324A014810466744764245405CB
:1028100044DBA7FAB79987B8975FE77EF71DC73CF7
:10282000D7D326F2369106B016576676761546341B
:10283000564CD96DC90EF92FE9C899E9898AB9AB07
:10284000A94458654806782768C018E1088238A36B
:10285000287DCB5CDB3FEB1EFBF98BD89BBBAB9A97
:10286000BB754A545A376A167AF10AD01AB32A92BB
:102870003A2EFD0FED6CDD4DCDAABD8BADE89DC9A7
:102880008D267C076C645C454CA23C832CE01CC10B
:102890000C1FEF3EFF5DCF7CDF9BAFBABFD98FF837
:1028A0009F176E367E554E745E932EB23ED10EF05B
:1028B0001E7C3C3E5E2B3D3F2F5B5D3B2C2A225C09
:1028C0000020746F6F206C6F6E672065787472756E
:1028D00073696F6E2070726576656E746564002032
:1028E000636F6C6420657874727573696F6E2070A5
:1028F000726576656E746564006563686F3A002082
:102900005A3A0020593A0020583A00656E647374B0
:102910006F7073206869743A200024F4D43050C377
:102920008E20C2A24017828B7011127A910D816C99
:10293000D90AA861E108C7586607615143061E4BD2
:102940005D05C145A7041A411104093D9803713979
:1029500031034036DB0265339102D4305402802EBD
:102960001D02632CEE01752AC501B028A0011027B5
:1029700081018F2564012B244B01E0223401AC211D
:102980001F018D200D01801FFC00841EED00971D8E
:10299000DF00B81CD200E61BC600201BBC00641A76
:1029A000B200B219A8000A19A0006A189900D1173C
:1029B000910040178B00B516840031167E00B315C8
:1029C00079003A157300C7146F0058146A00EE13AB
:1029D00066008813630025135E00C7125B006C124B
:1029E000570015125400C111510070114F002111F0
:1029F0004B00D61049008D104700461044000210CD
:102A00004200C00F4000800F3E00420F3C00060F06
:102A10003B00CB0E3800930E37005C0E3500270EBE
:102A20003400F30D3200C10D3100900D3000600D07
:102A30002E00320D2D00050D2C00D90C2B00AE0CF4
:102A40002900850C29005C0C2700350C27000E0C92
:102A50002600E80B2400C40B2400A00B23007D0BF0
:102A600023005A0B2100390B2100180B2000F80A13
:102A70001F00D90A1E00BB0A1E009D0A1D00800A05
:102A80001D00630A1C00470A1B002C0A1B00110AC8
:102A90001A00F7091A00DD091900C4091900AB0969
:102AA0001900920917007B091800630917004C09E7
:102AB000160036091600200916000A091500F50847
:102AC0001500E0081400CC081400B8081400A4088D
:102AD0001400900813007D0812006B0813005808BA
:102AE00012004608120034081100230811001208D1
:102AF000110001081100F0071000E0071000D007D6
:102B00001000C0071000B0070F00A10710009107C8
:102B10000E0083070F0074070F0065070E005707AC
:102B20000E0049070E003B070D002E070E00200780
:102B30000D0013070D0006070D00F9060C00ED0649
:102B40000D00E0060C00D4060C00C8060C00BC0604
:102B50000C00B0060C00A4060B0099060C008D06B4
:102B60000B0082060B0077060B006C060B0061065B
:102B70000A0057060B004C060A0042060A003806F7
:102B80000A002E060A0024060A001A060A00100689
:102B9000090007060A00FD050900F4050900EB0518
:102BA0000900E2050900D9050900D0050900C7059B
:102BB0000900BE050900B5050800AD050800A5051A
:102BC00009009C050800940508008C050800840590
:102BD00008007C050800740508006C050700650501
:102BE00008005D050700560508004E05070047056B
:102BF00007004005080038050700310507002A05D1
:102C00000700230507001C050600160507000F0531
:102C100007000805060002050700FB040600F5048E
:102C20000700EE040600E8040600E2040700DB04E7
:102C30000600D5040600CF040600C9040600C3043C
:102C40000600BD040600B7040600B1040500AC048C
:102C50000600A6040600A00405009B0406009504D7
:102C60000500900406008A04050085040500800420
:102C700006007A04050075040500700405006B0465
:102C8000050066040500610405005C0405005704A6
:102C90000500520405004D040500480405004304E6
:102CA00005003E0404003A04050035040500300424
:102CB00004002C04050027040400230405001E045E
:102CC00004001A04040016040500110404000D0495
:102CD0000400090405000404040000040400FC03CB
:102CE0000400F8030400F4030400F0030400EC0300
:102CF0000400E8030400E4030400E0030400DC0330
:102D00000400D8030400D4030400D0030400CC035F
:102D10000400C8030300C503030024F404D9201BE6
:102D2000C40C5C0E9804C4095F0265077101F405C8
:102D3000F900FB04B30048048700C103690058038D
:102D4000550003034500BE023A00840231005302DD
:102D50002A002902250004022000E4011C00C80109
:102D60001900AF01170098011400840113007101CC
:102D700010006101100051010E0043010D003601E9
:102D80000B002B010B0020010B00150109000C01A9
:102D9000090003010800FB000800F3000800EB0035
:102DA0000700E4000600DE000600D8000600D2009E
:102DB0000600CC000500C7000500C2000500BD00EC
:102DC0000400B9000400B5000400B1000400AD0027
:102DD0000400A9000400A5000300A20003009F0056
:102DE00004009B000300980003009500020093007C
:102DF0000300900003008D0002008B000300880098
:102E000002008600020084000300810002007F00AF
:102E100002007D0002007B000200790002007700C2
:102E200001007600020074000200720001007100CF
:102E300002006F0002006D0001006C0002006A00D9
:102E400001006900020067000100660001006500E2
:102E500001006400020062000100610001006000E6
:102E600001005F0002005D0001005C0001005B00EA
:102E700001005A00010059000100580001005700EC
:102E800001005600010055000100540001005300EC
:102E900000005300010052000100510001005000E9
:102EA00001004F0001004E0000004E0001004D00E7
:102EB00001004C0001004B0000004B0001004A00E3
:102EC00001004900010048000000480001004700DF
:102ED00001004600000046000100450000004500DA
:102EE00001004400010043000000430001004200D3
:102EF00000004200010041000000410001004000CC
:102F000001003F0000003F0001003E0000003E00C5
:102F100001003D0000003D0001003C0000003C00BD
:102F200000003C0001003B0000003B0001003A00B3
:102F300000003A00010039000000390001003800AB
:102F400000003800000038000100370000003700A2
:102F50000100360000003600000036000100350098
:102F6000000035000000350001003400000034008E
:102F70000000340001003300000033000000330083
:102F80000100320000003200000032000100310078
:102F9000000031000000310001003000000030006E
:102FA0000000300001002F0000002F0000002F0063
:102FB00000002F0001002E0000002E0000002E0057
:102FC00001002D0000002D0000002D0000002D004C
:102FD00001002C0000002C0000002C0000002C0040
:102FE00001002B0000002B0000002B0000002B0034
:102FF00001002A0000002A0000002A0000002A0028
:10300000010029000000290000002900000029001B
:10301000000029000100280000002800000028000E
:103020000000280000002800010027000000270001
:1030300000002700000027000000270001002600F4
:1030400000002600000026000000260000002600E8
:1030500001002500000025000000250000002500DB
:1030600000002500000025000100240000002400CD
:1030700000002400000024000000240001002300C0
:1030800000002300000023000000230000002300B4
:1030900000002300000023000100220000002200A5
:1030A0000000220000002200000022000000220098
:1030B000010021000000210000002100000021008B
:1030C000000021000000210000002100010020007C
:1030D0000000200000002000000020000000200070
:1030E00000002000000020000000200001001F0060
:1030F00000001F0000001F0000001F0000001F0054
:1031000000001F0000001F0001001E0000001E0044
:1031100000001E0000001E0000006563686F3A009A
:103120003A204578747275646572207377697463A8
:10313000686564206F66662E204D494E54454D509B
:10314000207472696767657265642021003A2045C2
:1031500078747275646572207377697463686564E6
:10316000206F66662E204D415854454D5020747294
:103170006967676572656420210054656D706572CA
:103180006174757265206865617465642062656448
:10319000207377697463686564206F66662E204DBE
:1031A000415854454D502074726967676572656473
:1031B00020212100202D20496E76616C69642065F4
:1031C00078747275646572206E756D626572202107
:1031D00000504944204175746F74756E65206669AE
:1031E0006E69736865642120507574207468652069
:1031F0004B702C204B6920616E64204B6420636F00
:103200006E7374616E747320696E746F20436F6E99
:1032100066696775726174696F6E2E680050494403
:10322000204175746F74756E65206661696C6564A4
:10323000212074696D656F75740020403A006F6BD2
:1032400020543A006F6B20423A00504944204175A7
:10325000746F74756E65206661696C6564212054B5
:10326000656D706572617475726520746F6F20682A
:1032700069676800204B643A2000204B693A2000BF
:10328000204B703A200020436C61736963205049E1
:103290004420002054753A2000204B753A2000202D
:1032A0006D61783A2000206D696E3A200020643A02
:1032B000200020626961733A200050494420417522
:1032C000746F74756E652073746172740050494434
:1032D000204175746F74756E65206661696C6564F4
:1032E0002E20426164206578747275646572206E68
:1032F000756D6265722E004572726F723A00000041
:10330000000018070100A807140030082800B808BA
:103310003C0038095000C0096400480A7800C80A17
:103320008C00480BA000C80BB400480CC800C80CA7
:10333000DC00400DF000C00D0401380E1801B00E85
:103340002C01280F4001A00F5401181068018810AB
:103350007C01001190013013F40148155802401708
:10336000BC0228192003F01A8403A81CE803401E9D
:103370004C044D383420582059205A2045004361D0
:103380006E6E6F7420656E74657220737562646909
:10339000723A20004D3234004D32332025730061E3
:1033A00075746F25692E67006572726F722077726F
:1033B0006974696E6720746F2066696C650043618B
:1033C0007264206572726F723A004E6F74205344BB
:1033D000207072696E74696E67002F00534420700C
:1033E00072696E74696E67206279746520002E00C0
:1033F00044656C6574696F6E206661696C65642CE8
:103400002046696C653A200046696C652064656CED
:10341000657465643A002E006F70656E20666169A0
:103420006C65642C2046696C653A2000577269749B
:10343000696E6720746F2066696C653A20002E0003
:103440006F70656E206661696C65642C2046696CDE
:10345000653A20002E006F70656E206661696C65AC
:10346000642C2046696C653A200046696C652073BF
:10347000656C6563746564002053697A653A200061
:1034800046696C65206F70656E65643A20002E0099
:103490006F70656E206661696C65642C2046696C8E
:1034A000653A200053442063617264206F6B006FA3
:1034B00070656E526F6F74206661696C656400762A
:1034C0006F6C756D652E696E6974206661696C65D7
:1034D0006400534420696E6974206661696C00431E
:1034E000616E6E6F74206F70656E207375626469B3
:1034F00072006563686F3A004572726F723A0048F5
:10350000617264636F6465642044656661756C74A0
:103510002053657474696E6773204C6F61646564D1
:1035200000563031300053746F72656420736574D7
:1035300074696E677320726574726965766564007C
:103540002044002049002020204D333031205000FD
:103550005049442073657474696E67733A00205A49
:103560000020590020204D323036205800486F6D21
:1035700065206F666673657420286D6D293A00209A
:103580004500205A002058002042002054002020EE
:103590004D323035205300416476616E636564209E
:1035A0007661726961626C65733A20533D4D696E54
:1035B00020666565647261746520286D6D2F7329BE
:1035C0002C20543D4D696E2074726176656C2066C6
:1035D0006565647261746520286D6D2F73292C20D8
:1035E000423D6D696E696D756D207365676D656EC1
:1035F000742074696D6520286D73292C20583D6DE9
:103600006178696D756D205859206A65726B202844
:103610006D6D2F73292C20205A3D6D6178696D7571
:103620006D205A206A65726B20286D6D2F73292CCE
:103630002020453D6D6178696D756D2045206A6576
:10364000726B20286D6D2F73290020540020204DAF
:10365000323034205300416363656C657261746974
:103660006F6E3A20533D616363656C657261746986
:103670006F6E2C20543D72657472616374206163B7
:1036800063656C65726174696F6E00204500205A35
:103690000020590020204D3230312058004D6178F3
:1036A000696D756D20416363656C65726174696FE6
:1036B0006E20286D6D2F7332293A00204500205A64
:1036C0000020590020204D3230332058004D6178C1
:1036D000696D756D20666565647261746573202817
:1036E0006D6D2F73293A00204500205A00205900A3
:1036F00020204D3932205800537465707320706556
:103700007220756E69743A0053657474696E6773DC
:103710002053746F726564006563686F3A005445A6
:1037200053540D0A000D0A00556E6B6E6F776E20B4
:10373000636F6D6D616E643A20000D0A003F0056A4
:103740006572733A5F322E31657800024E414E4900
:103750004E495459494E46CDCCCC3D0AD7233C174F
:10376000B7D13877CC2B329595E6241FB14F0A009C
:103770000020410000C84200401C4620BCBE4CCA8C
:103780001B0E5AAEC59D7400AF94C09411241FBE89
:10379000CFEFD1E2DEBFCDBF00E00CBF13E0A0E071
:1037A000B2E0ECE1FAED01E00BBF02C007900D9230
:1037B000A831B107D9F729E1A8E1B3E001C01D9212
:1037C000A334B207E1F717E3CAE8D7E300E006C085
:1037D00022970109FE010BBF0E94D8E5C838D10726
:1037E00080E00807A9F70E94B2E00C94FCEC0C946E
:1037F00000001F920F920FB60F9211242F933F9348
:103800008F939F93AF93BF938091190390911A0365
:10381000A0911B03B0911C033091180323E0230FE8
:103820002D3720F40196A11DB11D05C026E8230FF8
:103830000296A11DB11D2093180380931903909344
:103840001A03A0931B03B0931C0380911D03909156
:103850001E03A0911F03B09120030196A11DB11D6D
:1038600080931D0390931E03A0931F03B093200326
:10387000BF91AF919F918F913F912F910F900FBE6C
:103880000F901F9018952FB7F894609119037091BD
:103890001A0380911B0390911C032FBF08953FB71B
:1038A000F89480911D0390911E03A0911F03B09185
:1038B000200326B5A89B05C02F3F19F00196A11D36
:1038C000B11D3FBF6627782F892F9A2F620F711D78
:1038D000811D911D42E0660F771F881F991F4A9531
:1038E000D1F70895CF92DF92EF92FF92CF93DF93BB
:1038F0006B017C010E944F1CEB01C114D104E10457
:10390000F10479F00E944F1C6C1B7D0B683E7340E4
:10391000A0F381E0C81AD108E108F108C851DC4FD2
:10392000ECCFDF91CF91FF90EF90DF90CF90089593
:103930000197009739F0880F991F880F991F0297F8
:103940000197F1F70895789484B5826084BD84B5B9
:10395000816084BD85B5826085BD85B5816085BD8A
:10396000EEE6F0E0808181608083E1E8F0E01082A3
:10397000808182608083808181608083E0E8F0E0E4
:10398000808181608083E1EBF0E0808184608083CE
:10399000E0EBF0E0808181608083E1E9F0E080810C
:1039A00082608083808181608083E0E9F0E08081B3
:1039B00081608083E1EAF0E08081826080838081A1
:1039C00081608083E0EAF0E0808181608083E1E2D1
:1039D000F1E0808182608083808181608083E0E289
:1039E000F1E0808181608083EAE7F0E0808184609B
:1039F00080838081826080838081816080838081F8
:103A0000806880831092C10008951F93CF93DF9345
:103A1000182FEB0161E00E94111E209711F460E065
:103A200004C0CF3FD10539F461E0812FDF91CF9100
:103A30001F910C944A1EE12FF0E0E459FA4F449193
:103A400050E0FA013197E131F10508F091C0EE58EC
:103A5000FF4F0C94A9E584B5806884BDC7BD8DC0B7
:103A600084B5806284BDC8BD88C0809180008068B4
:103A700080938000D0938900C09388007EC080919D
:103A80008000806280938000D0938B00C0938A0076
:103A900074C08091B00080688093B000C093B30080
:103AA0006CC08091B00080628093B000C093B4007D
:103AB00064C080919000806880939000D0939900BA
:103AC000C09398005AC080919000806280939000CB
:103AD000D0939B00C0939A0050C080919000886062
:103AE00080939000D0939D00C0939C0046C080912D
:103AF000A00080688093A0008091A0008F7B8093BD
:103B0000A000D093A900C093A80037C08091A00066
:103B100080628093A000D093AB00C093AA002DC018
:103B20008091A00088608093A000D093AD00C093E6
:103B3000AC0023C080912001806880932001D09345
:103B40002901C093280119C08091200180628093CF
:103B50002001D0932B01C0932A010FC08091200136
:103B6000886080932001D0932D01C0932C0105C063
:103B7000C038D1050CF058CF52CFDF91CF911F91B3
:103B8000089590E0FC013197E131F10508F048C05B
:103B9000ED57FF4F0C94A9E5809180008F7703C00B
:103BA000809180008F7D80938000089584B58F7709
:103BB00002C084B58F7D84BD08958091B0008F7759
:103BC00003C08091B0008F7D8093B00008958091F4
:103BD00090008F7707C0809190008F7D03C0809107
:103BE0009000877F8093900008958091A0008F7748
:103BF00007C08091A0008F7D03C08091A000877FC7
:103C00008093A0000895809120018F7707C0809154
:103C100020018F7D03C080912001877F8093200148
:103C20000895CF93DF9390E0FC01EE54FA4F249176
:103C3000FC01E850FA4F8491882349F190E0880F05
:103C4000991FFC01E85AF94FA591B491825C994FF4
:103C5000FC01C591D4919FB7611108C0F8948C9173
:103C6000209582238C93888182230AC0623051F48C
:103C7000F8948C91322F309583238C938881822BFA
:103C8000888304C0F8948C91822B8C939FBFDF9122
:103C9000CF9108950F931F93CF93DF931F92CDB7CA
:103CA000DEB7282F30E0F901E459FA4F8491F90189
:103CB000EE54FA4F1491F901E850FA4F04910023A1
:103CC000C9F0882321F069830E94C11D6981E02F1A
:103CD000F0E0EE0FFF1FE25CF94FA591B4919FB7A2
:103CE000F8948C91611103C01095812301C0812B40
:103CF0008C939FBF0F90DF91CF911F910F910895EB
:103D00001F920F920FB60F9211240BB60F922F93A2
:103D10003F934F935F936F937F938F939F93AF9353
:103D2000BF93EF93FF938091250390912603892BF6
:103D300029F0E0912503F09126031995FF91EF9169
:103D4000BF91AF919F918F917F916F915F914F91B3
:103D50003F912F910F900BBE0F900FBE0F901F90B1
:103D600018951F920F920FB60F9211240BB60F9257
:103D70002F933F934F935F936F937F938F939F9373
:103D8000AF93BF93EF93FF93809127039091280304
:103D9000892B29F0E0912703F09128031995FF91D1
:103DA000EF91BF91AF919F918F917F916F915F91B3
:103DB0004F913F912F910F900BBE0F900FBE0F9020
:103DC0001F9018951F920F920FB60F9211240BB6E9
:103DD0000F922F933F934F935F936F937F938F93A4
:103DE0009F93AF93BF93EF93FF938091290390919B
:103DF0002A03892B29F0E0912903F0912A031995D0
:103E0000FF91EF91BF91AF919F918F917F916F91B2
:103E10005F914F913F912F910F900BBE0F900FBE6E
:103E20000F901F9018951F920F920FB60F921124AA
:103E30000BB60F922F933F934F935F936F937F93A4
:103E40008F939F93AF93BF93EF93FF9380912B0337
:103E500090912C03892B29F0E0912B03F0912C03F6
:103E60001995FF91EF91BF91AF919F918F917F91A4
:103E70006F915F914F913F912F910F900BBE0F90DB
:103E80000FBE0F901F9018951F920F920FB60F92B2
:103E900011240BB60F922F933F934F935F936F9321
:103EA0007F938F939F93AF93BF93EF93FF938091F3
:103EB000210390912203892B29F0E0912103F091B5
:103EC00022031995FF91EF91BF91AF919F918F912F
:103ED0007F916F915F914F913F912F910F900BBE0A
:103EE0000F900FBE0F901F9018951F920F920FB654
:103EF0000F9211240BB60F922F933F934F935F9322
:103F00006F937F938F939F93AF93BF93EF93FF93A1
:103F10008091230390912403892B29F0E0912303BE
:103F2000F09124031995FF91EF91BF91AF919F916B
:103F30008F917F916F915F914F913F912F910F9052
:103F40000BBE0F900FBE0F901F9018951F920F92EF
:103F50000FB60F9211240BB60F922F933F934F93EE
:103F60005F936F937F938F939F93AF93BF93EF93E1
:103F7000FF9380912D0390912E03892B29F0E091DE
:103F80002D03F0912E031995FF91EF91BF91AF9101
:103F90009F918F917F916F915F914F913F912F9161
:103FA0000F900BBE0F900FBE0F901F9018951F9291
:103FB0000F920FB60F9211240BB60F922F933F93CF
:103FC0004F935F936F937F938F939F93AF93BF9321
:103FD000EF93FF9380912F0390913003892B29F069
:103FE000E0912F03F09130031995FF91EF91BF916C
:103FF000AF919F918F917F916F915F914F913F9181
:104000002F910F900BBE0F900FBE0F901F90189521
:10401000FF920F931F93CF93DF9388EA9FEF9093C4
:104020005503809354034091480388E0840F405E19
:10403000682F0E94F0290E94552F809148038435F3
:10404000C8F542E058E066E180E00E94643007E194
:1040500016E1C0E0D0E0FC2E40914803842F90E0B0
:10406000880F991FFE017396E817F90744F4440F6F
:1040700044514C1B202F612F80E00E94602F8091C3
:104080004803482F50E0440F551F4C175D0734F08C
:10409000880F202F4FE7612F8F1904C0202F4FE783
:1040A000612F80E00E94602F21961E5F0E5F1A3202
:1040B00091F609C081508093480342E058E066E1E0
:1040C00080E00E9464300E94B32980913103811105
:1040D00013C02091480330E0220F331F4091120299
:1040E000429FC001439F900D112464E670E00E943E
:1040F00054E588E00E94051D80914703811104C0AA
:10410000809153038823E9F18091310381110DC01F
:10411000809112022FEF829FC001112464E670E0AB
:104120000E9454E588E00E94051D109247031092FA
:1041300048034CE360E380E30E94F029809153033D
:1041400081110E94D73080E094E00E941AEC8535FE
:1041500079F420E030E0A9016091900E7091910E09
:104160008091920E9091930E0E9499E1811103C06B
:104170008EE79DE302C087EC90E29093500380931A
:104180004F03DF91CF911F910F91FF90089541E868
:1041900056E068E776E082E796E00E94D2248091BC
:1041A0005303882349F180915403909155039C0156
:1041B000295F3F4F2F30310558F40E94F6668AEA96
:1041C0009EE00E942ED062E070E088E097E612C088
:1041D0009C01285031092830310528F468EA7FEF26
:1041E00084E393E507C04097089730F468EA7FEFCF
:1041F0008BEE9DE30E94A224809152038823A1F0BC
:104200008091540390915503883A9F4F69F410921E
:10421000470380914803893C58F068EA7FEF8AE1C0
:1042200091E20E94A22404C0109247031092480316
:104230000C94B3298F929F92BF92CF92DF92EF920C
:10424000FF920F931F93CF93DF931F921F92CDB7CF
:10425000DEB78091540390915503883A9F4F59F5EA
:104260008AE190E0909355038093540326E737E06A
:1042700043E080E090E0F901E80FF91F40830196E8
:1042800085309105C1F72B5F3F4F87E02538380710
:1042900081F7109286071092850780E099E390934A
:1042A00088078093870710928A07109289071092D7
:1042B0008C0710928B07809154039091550397FFC0
:1042C00004C01092550310925403809154039091AE
:1042D0005503880F991F8B36910534F085E390E0E4
:1042E00090935503809354036091890770918A07D6
:1042F0008091850790918607860F971F9093860778
:104300008093850740918B0750918C0720918707F8
:1043100030918807240F351F309388072093870733
:104320008F3F910509F01CF477FF0DC009C0813063
:10433000ECE79E0764F077FF03C071956195710902
:1043400071956195710970938A07609389072F3F72
:10435000310509F054F457FF03C0519541955109B7
:1043600050938C0740938B0705C02115FEE13F0752
:104370000CF053C0292F220F220B892F922F69E1B5
:1043800070E00E9454E5262F932F990F990B832FED
:104390006AE070E00E9454E545E0649FF00111245A
:1043A000E20FF11DEA58F84F80818823B1F1815066
:1043B000808380918B0790918C0797FF03C0919524
:1043C0008195910990938C0780938B0786E797E0FE
:1043D00020E030E0FC01E20FF31F408141111DC0DD
:1043E0002F5F3F4F25303105A9F70596F7E0853857
:1043F0009F0771F786E797E043E020E030E0FC019B
:10440000E20FF31F40832F5F3F4F25303105B9F78F
:104410000596E7E085389E0781F7809187079091A0
:10442000880781309A430CF448C020918507309169
:10443000860780915403909155030197880F991F27
:10444000582F44272417350734F04796982F88278C
:104450008217930734F468EA7FEF87EC90E20E94BA
:10446000A2248BEF9FEF2091540330915503821BC0
:10447000930B982F8827990F2091850730918607F5
:10448000820F931F97FDCF96E6E095958795EA9565
:10449000E1F72091890730918A07820F931F90934B
:1044A0008A078093890797FF03C0919581959109A9
:1044B000925090938C0780938B0780918B079091FB
:1044C0008C07892B59F580E099E3909388078093B6
:1044D000870780915403909155039C012B5F3F4FB8
:1044E000220F331F109285072093860720915303D4
:1044F0002223A1F0809763E0880F991F6A95E1F766
:1045000090938A078093890797FF03C091958195BF
:104510009109925090938C0780938B070E94552F9E
:1045200006E717E033E047E0B42EB30ECC24CA947C
:10453000C30E56E0D52ED30E480194E07401F40169
:104540008081882361F02B2D43E1490F6C2D8FEF83
:10455000890F39839A830E94B82E9A813981F40198
:104560008081823059F42D2D42E1490F632F892F2C
:1045700039839A830E94EA2E9A813981FFEF8F1A3C
:104580009F0AF7018081833059F42D2D42E1490FB4
:10459000632F892F39839A830E94E62F9A8139816C
:1045A000975E913859F6365F0B5F1F4F313209F035
:1045B000BACF609188078091860722E0260F42E0FB
:1045C000480F0E94B82E80915403880F45E1480F90
:1045D0002FE36CE30E94B82E0F900F90DF91CF91E4
:1045E0001F910F91FF90EF90DF90CF90BF909F9021
:1045F0008F900C94B3290E944D310E9495588111DF
:1046000006C00E94F15360E080E00E9484570E943F
:10461000A75588E090E29093500380934F0360E0A9
:1046200070E088E00E94051D0E94431C6858734199
:1046300081099109609333037093340380933503A8
:10464000909336030895CF92DF92EF92FF920E94EB
:10465000EB29882309F464C10E942C3182B382FBC8
:10466000882780F991E089279091AE0E981759F02C
:1046700090915210992321F091509093521006C0BE
:104680008093AE0E03C088E280935210909147034E
:1046900080914803992341F082508093480381110F
:1046A0000BC01092470308C08E5F809348038E377B
:1046B00019F481E0809347030E94777A882309F4F4
:1046C0008FC00E94552F62EF77E08AE00E944F2D45
:1046D0000E947E7A90E0FC013197EA30F10508F003
:1046E00077C0EC56FF4F0C94A9E566EE77E084E1C5
:1046F0000E944F2D4FED57E068E281E00E94A52B0C
:104700004CEC57E061C06CEB77E084E10E944F2DE8
:1047100045EB57E068E281E00E94A52B42EA57E0B2
:1047200053C065E977E084E10E944F2D4EE857E0E1
:1047300068E281E00E94A52B4BE757E045C06CE69C
:1047400077E084E10E944F2D45E657E068E281E082
:104750000E94A52B42E557E037C062E477E084E190
:104760000E944F2D4BE357E068E281E00E94A52BA9
:1047700048E257E029C069E177E084E10E944F2DCB
:1047800042E157E068E281E00E94A52B4FEF56E03E
:104790001BC06AEE76E084E10E944F2D43EE56E0A6
:1047A00068E281E00E94A52B40ED56E00DC06CEB65
:1047B00076E084E10E944F2D45EB56E068E281E00F
:1047C0000E94A52B42EA56E062E381E00E94A52BFD
:1047D0008091480360E8681B482F0E94F02930C090
:1047E0000E94431CC0903303D0903403E090350303
:1047F000F09036036C197D098E099F096838734162
:104800008105910518F58091320381110AC00E943B
:10481000552F6DE876E084E10E944F2D81E0809372
:1048200032038091B60B8350833050F40E94431CB6
:10483000609333037093340380933503909336036E
:10484000FF90EF90DF90CF900C94B3291092320339
:104850002DEC3CEC4CE45DE360912C1970912D192A
:1048600080912E1990912F190E946EE46B017C01AA
:1048700023E333E343E75FE360910E0270910F029D
:1048800080911002909111020E946EE49B01AC0194
:10489000C701B6010E94C0E060930E0270930F0240
:1048A00080931002909311022DEC3CEC4CE45DE3FC
:1048B00060912619709127198091281990912919D2
:1048C0000E946EE46B017C0123E333E343E75FE383
:1048D00060910A0270910B0280910C0290910D027E
:1048E0000E946EE49B01AC01C701B6010E94C0E0CA
:1048F00060930A0270930B0280930C0290930D0256
:10490000E0914F03F09150031995E0914B03F09122
:104910004C03309729F0FF90EF90DF90CF901994DF
:10492000FF90EF90DF90CF9008951092351910927C
:104930003419109233191092321910927A0E089588
:104940000C94FA300F931F93CF93DF93EC018B01FC
:104950001092460310924703109248034CE360E321
:1049600080E30E94F0290E94D73080914F039091FC
:10497000500390934E0380934D0380915403909184
:10498000550390934A0380934903D0935003C093F7
:104990004F031093550300935403DF91CF911F9160
:1049A0000F910895EF92FF920F931F93CF93DF9390
:1049B0008C017B01EA012091540330915503283A80
:1049C0008FEF3807A1F037FF06C0285E3F4F3093C6
:1049D00055032093540380915403909155038831DB
:1049E00091052CF0489790935503809354030E94AF
:1049F000552F4DE265E080E40E94642E40E36CE7B1
:104A000083E00E94472E2091540330915503295F83
:104A10003F4F2F30310590F42BE24BE367E085E008
:104A20000E94B82E2AE24AE368E086E00E94E62F60
:104A3000A80166E181E20E94DF2D05C0A80166E1C0
:104A400081E20E94772D809154039091550308973D
:104A5000089790F42BE24BE767E085E40E94B82EBC
:104A60002AE24AE768E086E40E94E62FA70166E1B1
:104A700081E60E94DF2D05C0A70166E181E60E9464
:104A8000772D209739F180915403909155034097E9
:104A90000897B0F42DE34BE763E385E00E94B82E5E
:104AA0002CE34AE764E386E00E94E62FBE0185E33B
:104AB000DF91CF911F910F91FF90EF900C94632D98
:104AC000BE0185E3DF91CF911F910F91FF90EF9091
:104AD0000C944F2DDF91CF911F910F91FF90EF908C
:104AE00008950E94552F40E36CE783E00C94472E15
:104AF0000F931F93CF93DF931F921F92CDB7DEB713
:104B00008A012091540330915503283A4FEF34071E
:104B1000A9F037FF06C0205F3F4F30935503209325
:104B2000540320915403309155032031310534F062
:104B3000205131093093550320935403209153039E
:104B40002223C1F02091540330915503295F3F4F38
:104B50002F30310578F46115710531F089839A831E
:104B6000FB0119959A818981009721F068EA7FEF0E
:104B70000E94A2240E9471250115110511F40BE871
:104B800019E0809154039091550307960F97F0F424
:104B90002DE34BE763E385E00E94B82E2CE34AE760
:104BA00064E386E00E94E62FC8010E9410E9982F76
:104BB000990F980FA80165E381E4891B0F900F906E
:104BC000DF91CF911F910F910C94752CC8010E9419
:104BD00010E9982F990F980FA80165E381E4891BCC
:104BE0000F900F90DF91CF911F910F910C94A52BF7
:104BF000AF92BF92CF92DF92EF92FF920F931F93EB
:104C0000CF93DF936C01EA01590140915403509115
:104C10005503483A8FEF5807A1F057FF06C0405F91
:104C20005F4F5093550340935403809154039091E8
:104C30005503803191052CF0409790935503809354
:104C4000540380915303882331F180915403909150
:104C500055039C01295F3F4F2F30310560F46115EA
:104C6000710511F0FB011995C114D104A1F068EA96
:104C70007FEFC6010EC00897089768F4011511056B
:104C800011F0F8011995A114B10429F068EA7FEF39
:104C9000C5010E94A2240E94712580915403909125
:104CA000550307960F97C8F42DE34EE363E385E0C1
:104CB0000E94B82E2CE34DE364E386E00E94E62FC9
:104CC000CE010E9410E9982F990F980FAE0165E36D
:104CD00083E2891B0E94752C0CC0CE010E9410E952
:104CE000982F990F980FAE0165E383E2891B0E940C
:104CF000A52B80915403909155030897089710F5C0
:104D00002DE34AE763E382E40E94B82E2CE349E7EF
:104D100064E383E40E94E62FC7010E9410E9982F04
:104D2000990F980FA70165E38FE5891BDF91CF915C
:104D30001F910F91FF90EF90DF90CF90BF90AF90B9
:104D40000C94752CC7010E9410E9982F990F980FA9
:104D5000A70165E38FE5891BDF91CF911F910F912B
:104D6000FF90EF90DF90CF90BF90AF900C94A52B69
:104D7000DF92EF92FF920F931F93CF93DF93D82E82
:104D80002EE24CE766E283E00E94B82EC0E0D0E05D
:104D90000D2D10E0015011098CE0E82EF12CEC2FC4
:104DA000CD15D0F4C937D105B9F0C8018C1B9D0BC6
:104DB000B7010E9454E5482F853018F4485D68E239
:104DC00005C08A3038F463E2640F4CE284E08E0F51
:104DD0000E94642E2196E3CFDF91CF911F910F9116
:104DE000FF90EF90DF9008952F923F924F925F9245
:104DF0006F927F928F929F92AF92BF92CF92DF92EB
:104E0000EF92FF920F931F93CF93DF935C017A0190
:104E10006901809153038111DBC08091540390910B
:104E20005503883A9F4F21F4109255031092540372
:104E30002091540330915503862E992487FC909439
:104E400037FF0BC0C401880F991F880F991F820F6D
:104E5000931F909355038093540380915403909132
:104E600055039401220F331F220F331F821793071C
:104E70004CF0E4E06E0280199109112490935503DF
:104E800080935403009154031091550317FF02C0FF
:104E90000D5F1F4F1595079515950795702E0E946C
:104EA000552F8091370390913803D801BB2773E0C9
:104EB000AA0FBB1F7A95E1F71F97A81BB90BED014D
:104EC000B7FD2396D595C795D595C795C80FD91F1A
:104ED0001A161B0614F4219608C0AB2B29F4D093A4
:104EE0003803C093370309C02197D0933803C09388
:104EF0003703109247031092480380913703909133
:104F00003803282F27703AE0632E43E09695879563
:104F10004A95E1F7382E621AC0E0D0E02C2E230C1F
:104F2000222D30E028153905DCF4822DF701199582
:104F30002C01FC01148A27100EC027E0260D4CE737
:104F40006FEF660D83E00E94E62FA201662D84E0DC
:104F50000E94B92A05C0AC01662D84E00E94F729A1
:104F60002196F8E06F0EC630D105C1F628E04CE777
:104F700060E083E00E94E62F2FE34CE76FE283E0DE
:104F80000E94602F29E04CE769E083E00E94602FD7
:104F900040E36CE783E00E94472EB50181E00E9468
:104FA000632D802FF6011995DF91CF911F910F91FD
:104FB000FF90EF90DF90CF90BF90AF909F908F9039
:104FC0007F906F905F904F903F902F900C94B329FB
:104FD000DF91CF911F910F91FF90EF90DF90CF90D5
:104FE000BF90AF909F908F907F906F905F904F9009
:104FF0003F902F9008950F931F93CF93DF93CDB7DA
:10500000DEB760970FB6F894DEBF0FBECDBF8091BC
:105010003D0390913E03209154033091550328178E
:10502000390724F4909355038093540380913B03F4
:1050300090913C03209154033091550382179307BC
:1050400024F4909355038093540380913F0381305F
:1050500041F4E0914003F091410380915403808337
:105060008EC0823059F4E0914003F0914103809169
:105070005403909155039183808381C08330A9F4B8
:1050800000914003109141036091540370915503C6
:10509000882777FD8095982F0E943BE220E030E042
:1050A00048EC52E40E94A0E165C0843089F4E091AC
:1050B0004003F09141038091540390915503AA2736
:1050C00097FDA095BA2F80839183A283B38357C0A5
:1050D0008530A1F4E0914003F09141032091540305
:1050E000309155034FEF429FC001439F900D112413
:1050F00064E670E00E9454E5608341C0863099F414
:105100000091400310914103609154037091550345
:10511000882777FD8095982F0E943BE220E030E0C1
:1051200040E752E414C08730A9F400914003109185
:1051300041036091540370915503882777FD809552
:10514000982F0E943BE220E030E048EC52E40E94BD
:105150006EE410C0883099F400914003109141032F
:105160006091540370915503882777FD8095982F9F
:105170000E943BE2F80160837183828393830E94E3
:105180007125609144037091450384E10E944F2D85
:1051900020913F0380915403909155030091420365
:1051A000109143032330A1F4BC01882777FD80953B
:1051B000982F0E943BE220E030E048EC52E40E944D
:1051C000A0E19801AE014F5F5F4F0E94243306C0FB
:1051D000A801BE016F5F7F4F0E941632BE016F5F54
:1051E0007F4F8EE10E94852B64E879E0CE01019625
:1051F0000E9409E920913F0300914203109143036B
:105200008091390390913A032330A1F4BC0188279F
:1052100077FD8095982F0E943BE220E030E048EC3B
:1052200052E40E94A0E19801AE01495F5F4F0E94E5
:10523000243306C0A801BE01695F7F4F0E94163269
:10524000BE016F5F7F4F85E30E94852B0E94B329CB
:1052500080915303882351F06091490370914A0370
:1052600080914D0390914E030E94A22460960FB648
:10527000F894DEBF0FBECDBFDF91CF911F910F918C
:1052800008959091BC0097FFFCCF8093BB0084E809
:105290008093BC0008958091BC0087FFFCCF84E917
:1052A0008093BC0008951F93CF93DF931F92CDB7D7
:1052B000DEB7182F84EA8093BC0080EC69830E94DB
:1052C0004129812F0E9441296981862F0E9441290D
:1052D0000F90DF91CF911F910C944B291F920F9249
:1052E0000FB60F9211240BB60F922F933F934F934B
:1052F0005F936F937F938F939F93AF93BF93EF933E
:10530000FF938091570390915803811524E09207F1
:1053100019F40E944B2914C0FC01E45AFC4F80810F
:105320000E9441298091BC0081608093BC008091E3
:105330005703909158030196909358038093570315
:10534000FF91EF91BF91AF919F918F917F916F915D
:105350005F914F913F912F910F900BBE0F900FBE19
:105360000F901F90189560915B0382E00E94532973
:1053700060915A0383E00E9453296091590384E0AD
:105380000E94532984EA8093BC0088E70E94412947
:1053900080E00E94412980E00E94412980E10E9432
:1053A000412980EB0E9441298091BC0087FFFCCFFE
:1053B00084EA8093BC0088E70E94412980E40E942F
:1053C000412910925803109257038091BC008160CC
:1053D0008093BC0008958091BC00809581700895F1
:1053E00080935B0360935A034093590308951F937E
:1053F000CF93DF93962F969596959695C82FD0E0EC
:1054000080E8989FC00DD11D1124DE01A45ABC4F25
:10541000C452DC4F677078E0761B15E0FA012081FA
:10542000222309F4A2C030E020523109129FC001AA
:10543000139F900D11248755964FFC012491062E41
:1054400001C0220F0A94EAF73C91232B2C9331964A
:10545000E491062E01C0EE0F0A94EAF711962C9102
:105460001197E22B1196EC931197FC013296E4917F
:10547000062E01C0EE0F0A94EAF712962C911297AD
:10548000E22B1296EC931297FC013396E491062ED0
:1054900001C0EE0F0A94EAF713962C911397E22BB2
:1054A0001396EC931397FC0134968491062E01C059
:1054B000880F0A94EAF714969C911497892B1496F6
:1054C0008C9314971696662309F44CC0FA01208138
:1054D00030E020523109129FC001139F900D11241A
:1054E0008755964FFC01249130E0072E02C0359578
:1054F00027950A94E2F73881322B38833196E4916C
:10550000F0E0072E02C0F595E7950A94E2F72981AD
:105510002E2B2983FC013296E491F0E0072E02C085
:10552000F595E7950A94E2F72A812E2B2A83FC0150
:105530003396E491F0E0072E02C0F595E7950A94C2
:10554000E2F72B812E2B2B83FC013496849190E083
:10555000072E02C0959587950A94E2F79C81982BB7
:105560009C8326964F5F5F4F59CFDF91CF911F915C
:1055700008951F93CF93DF93962F969596959695C2
:10558000C82FD0E080E8989FC00DD11D1124DE0106
:10559000A45ABC4FC452DC4F677078E0761B15E00C
:1055A000FA012081222309F4ACC030E020523109F5
:1055B000129FC001139F900D11248755964FFC0137
:1055C0002491062E01C0220F0A94EAF720953C91FF
:1055D00032233C933196E491062E01C0EE0F0A94DB
:1055E000EAF7E09511962C9111972E2311962C93A2
:1055F0001197FC013296E491062E01C0EE0F0A9439
:10560000EAF7E09512962C9112972E2312962C937E
:105610001297FC013396E491062E01C0EE0F0A9416
:10562000EAF7E09513962C9113972E2313962C935B
:105630001397FC0134968491062E01C0880F0A94BA
:10564000EAF7809514969C911497982314969C934E
:1056500014971696662309F451C0FA01208130E0B0
:1056600020523109129FC001139F900D11248755BC
:10567000964FFC01249130E0072E02C03595279506
:105680000A94E2F720953881322338833196E491E9
:10569000F0E0072E02C0F595E7950A94E2F7E09551
:1056A00029812E232983FC013296E491F0E0072E14
:1056B00002C0F595E7950A94E2F7E0952A812E233A
:1056C0002A83FC013396E491F0E0072E02C0F595A1
:1056D000E7950A94E2F7E0952B812E232B83FC01BA
:1056E0003496849190E0072E02C0959587950A9490
:1056F000E2F780959C8198239C8326964F5F5F4FAD
:105700004FCFDF91CF911F910895AB01FB01019025
:105710000020E9F73197E61BF70B9E2F990F9E0F9C
:10572000682F80E4891B0C94F729AB01FB010190E1
:105730000020E9F73197E61BF70B9E2F990F9E0F7C
:10574000682F80E4891B0C94B92AAF92BF92CF9244
:10575000DF92EF92FF920F931F93CF93DF93962FD9
:10576000969596959695C82FD0E080E8989FC00DA5
:10577000D11D1124DE01A45ABC4FC452DC4F677006
:1057800078E0761BFA01249185E0B82E222309F4F3
:10579000A1C030E020523109B29EC001B39E900DED
:1057A00011248755964FFC012491062E01C0220F2B
:1057B0000A94EAF73C91232B2C938C010F5F1F4F27
:1057C000F8012491062E01C0220F0A94EAF71196DF
:1057D0003C911197232B11962C9311979C012E5FCE
:1057E0003F4FF901F490062E01C0FF0C0A94EAF72E
:1057F0001296FC911297FF2A1296FC9212976C0156
:10580000F3E0CF0ED11CF601F490062E01C0FF0C80
:105810000A94EAF71396FC911397FF2A1396FC92C9
:1058200013977C01F4E0EF0EF11CF701A490062E13
:1058300001C0AA0C0A94EAF71496FC911497AF2AB7
:105840001496AC9214971696662309F43EC0FC0198
:10585000849190E0072E02C0959587950A94E2F70F
:105860009881982B9883F801049110E0072E02C0CC
:10587000159507950A94E2F78981802B8983F901B0
:10588000249130E0072E02C0359527950A94E2F75F
:105890008A81822B8A83F601849190E0072E02C0D0
:1058A000959587950A94E2F79B81982B9B83F70146
:1058B000E490EE2DF0E0072E02C0F595E7950A94EE
:1058C000E2F78C818E2B8C8326964F5F5F4FFA0117
:1058D00024915CCFDF91CF911F910F91FF90EF90BA
:1058E000DF90CF90BF90AF900895AF92BF92CF92CC
:1058F000DF92EF92FF920F931F93CF93DF93962F38
:10590000969596959695C82FD0E080E8989FC00D03
:10591000D11D1124DE01A45ABC4FC452DC4F677064
:1059200078E0761BFA01249195E0B92E222309F440
:10593000ABC030E020523109B29EC001B39E900D41
:1059400011248755964FFC012491062E01C0220F89
:105950000A94EAF720953C9132233C938C010F5F27
:105960001F4FF8012491062E01C0220F0A94EAF776
:10597000209511963C911197322311963C931197E3
:105980009C012E5F3F4FF901F490062E01C0FF0CE1
:105990000A94EAF7F0941296FC911297FF2112965E
:1059A000FC9312976C01F3E0CF0ED11CF601F4903A
:1059B000062E01C0FF0C0A94EAF7F0941396FC91AE
:1059C0001397FF211396FC9313977C01F4E0EF0EDD
:1059D000F11CF701A490062E01C0AA0C0A94EAF764
:1059E000A0941496FC911497FA211496FC931497A2
:1059F0001696662309F443C0FC01849190E0072EBB
:105A000002C0959587950A94E2F78095988198232E
:105A10009883F801049110E0072E02C015950795B0
:105A20000A94E2F70095898180238983F901249102
:105A300030E0072E02C0359527950A94E2F72095AD
:105A40008A8182238A83F601849190E0072E02C026
:105A5000959587950A94E2F780959B8198239B837F
:105A6000F701E490EE2DF0E0072E02C0F595E795E2
:105A70000A94E2F7E0958C818E238C8326964F5F03
:105A80005F4FFA01249152CFDF91CF911F910F9177
:105A9000FF90EF90DF90CF90BF90AF9008951F934D
:105AA000CF93DF93182FEB01CB010E9410E9982FC1
:105AB000990F980FAE01612F80E4891BDF91CF9180
:105AC0001F910C94A52B1F93CF93DF93182FEB01FD
:105AD000CB010E9410E9982F990F980FAE01612F0A
