:100000000C948D0E0C9495170C94C6170C94F7173E
:100010000C9428180C9459180C948A180C94BB183A
:100020000C94EC180C94BA0E0C94BA0E0C94BA0EF4
:100030000C94BA0E0C94D4960C94BA0E0C94BA0E7E
:100040000C94BA0E0C94756B0C94BA0E0C94BA0EF8
:100050000C94BA0E0C94BA0E0C946D740C94841417
:100060000C94BA0E0C9406410C94BA0E0C94BA0E71
:100070000C94BA0E0C94BA0E0C94BA0E0C94BA0EE0
:100080000C94BA0E0C94BA0E0C94BA0E0C94BA0ED0
:100090000C94BA0E0C94BA0E0C94BA0E0C94BA0EC0
:1000A0000C94BA0E0C94BA0E0C94BA0E0C94BA0EB0
:1000B0000C94BA0E0C94BA0E0C94BA0E0C94BA0EA0
:1000C0000C94BA0E0C94BA0E0C94BA0E0C94BA0E90
:1000D0000C94BA0E0C94BA0E0C94BA0E0C94BA0E80
:1000E0000C94BA0E084AD73B3BCE016E84BCBFFDD0
:1000F000C12F3D6C74319ABD56833DDA3D00C77FF8
:1001000011BED9E4BB4C3E916BAAAABE0000008090
:100110003F05A84CCDB2D44EB93836A9020C50B91F
:10012000918688083CA6AAAA2ABE000000803F004B
:10013000002100240027002A002D00300033000198
:10014000010000040107010A010000220025002827
:10015000002B002E003100340002010000050108D0
:10016000010B01000020002300260029002C002F95
:100170000032000001000003010601090105050528
:1001800005070508080808020202020A0A0808040E
:10019000040404010101010101010103030303033C
:1001A000030303040707070C0C0C0C0C0C0C0C02CB
:1001B00002020206060606060606060B0B0B0B0BD2
:1001C0000B0B0B01021020200808102040102040CB
:1001D000800201020108040201010204081020400B
:1001E0008080402010080402018004020180402029
:1001F0001008040201080402010102040810204052
:100200008001020408102040800000090A02080B47
:100210000C0D0706030401000000000000000000B0
:1002200000000000000000000000000000000000CE
:10023000000000000011100F00000000000000008E
:100240000000000000000000000000000000006549
:1002500063686F3A004572726F723A0053544F50A0
:100260005045442E20005072696E7465722073747C
:100270006F707065642064756520746F206572729C
:100280006F72732E204669782074686520657272DB
:100290006F7220616E6420757365204D3939392085
:1002A000746F20726573746172742E202854656DAA
:1002B000706572617475726520697320726573650B
:1002C000742E2053657420697420616674657220F1
:1002D00072657374617274696E6729004B494C4C86
:1002E00045442E20005072696E7465722068616CFE
:1002F0007465642E206B696C6C28292063616C6CBA
:10030000656421006F6B00526573656E643A20006E
:100310002200556E6B6E6F776E20636F6D6D616E30
:10032000643A2022004368616E67652066696C61EB
:100330006D656E74005A204F6666736574203A20AE
:10034000007A5F6D61783A20007A5F6D696E3A20BD
:10035000005A204F6666736574005A204F666673B4
:100360006574206F6B00486F74656E64206F6666FD
:10037000736574733A007A5F6D696E3A2000795F35
:100380006D696E3A2000785F6D696E3A2000205AE0
:100390003A0020593A0020436F756E7420583A2075
:1003A0000020453A00205A3A0020593A00583A00B5
:1003B0004649524D574152455F4E414D453A4D6178
:1003C000726C696E2056313B20537072696E746591
:1003D000722F6772626C206D617368757020666F32
:1003E000722067656E36204649524D574152455F2F
:1003F00055524C3A687474703A2F2F6669726D7753
:100400006172652E756C74696D616B65722E636FB8
:100410006D2050524F544F434F4C5F5645525349F5
:100420004F4E3A312E30204D414348494E455F549E
:100430005950453A556C74696D616B657220455829
:100440005452554445525F434F554E543A3220550D
:100450005549443A30303030303030302D30303043
:10046000302D303030302D303030302D3030303095
:1004700030303030303030300A00556C74696D6186
:100480006B6572204F66662E0042656420646F6E55
:10049000652E0020423A0020453A00543A00426559
:1004A000642048656174696E672E004865617469EF
:1004B0006E6720646F6E652E0020573A0020453A23
:1004C00000543A0048656174696E672E2E2E002034
:1004D00042403A0020403A00202F003A00205400C9
:1004E000202F0020423A00202F006F6B20543A004A
:1004F0002569206D696E2C20256920736563004590
:100500006E642066696C65206C697374004265676F
:10051000696E2066696C65206C697374004E6F208B
:100520006D6F76652E00526573756D696E6720700C
:1005300072696E74005761697420666F72207573FA
:1005400065722E2E2E00536C6565702E2E2E00FFC8
:10055000FFFF0000524300005243000052430000DE
:10056000000000000000000000000000000000008B
:100570000000000000000000524300005243000051
:1005800052430000A0400000A04000000040256948
:1005900020686F757273202569206D696E757465AA
:1005A0007300446F6E65207072696E74696E6720A7
:1005B00066696C650053544F505045442E200050DE
:1005C00072696E7465722073746F707065642064F4
:1005D000756520746F206572726F72732E20466984
:1005E0007820746865206572726F7220616E642075
:1005F000757365204D39393920746F2072657374B5
:100600006172742E202854656D7065726174757204
:10061000652069732072657365742E20536574209C
:100620006974206166746572207265737461727496
:10063000696E6729006F6B004E6F204C696E6520F4
:100640004E756D62657220776974682063686563B2
:100650006B73756D2C204C617374204C696E653A18
:1006600020004E6F20436865636B73756D2077695A
:100670007468206C696E65206E756D6265722C20E1
:100680004C617374204C696E653A20006368656341
:100690006B73756D206D69736D617463682C204C8C
:1006A000617374204C696E653A20004C696E652058
:1006B0004E756D626572206973206E6F74204C6197
:1006C0007374204C696E65204E756D6265722B31B6
:1006D0002C204C617374204C696E653A20004D31BA
:1006E000313000446F6E6520736176696E672066F5
:1006F000696C652E006F6B004D3239002020506C04
:10070000616E6E6572427566666572427974657374
:100710003A20002046726565204D656D6F72793A0A
:100720002000466562203136203230313600436F7A
:100730006D70696C65643A200028446176696420B4
:10074000427261616D2900207C20417574686F726E
:100750003A20004665622031362032303136203171
:10076000333A33353A343900204C61737420557074
:1007700064617465643A2000312E302E30004D6182
:10078000726C696E0020536F6674776172652052D7
:100790006573657400205761746368646F672052E5
:1007A00065736574002042726F776E206F757420D8
:1007B0005265736574002045787465726E616C20B3
:1007C000526573657400506F77657255700073746D
:1007D000617274002200656E717565696E67202212
:1007E000002200656E717565696E672022007C3C91
:1007F0003E5E2B3D3F2F5B5D3B2C2A225C006563F8
:10080000686F3A0020746F6F206C6F6E6720657898
:1008100074727573696F6E2070726576656E74653B
:10082000640020636F6C6420657874727573696FFF
:100830006E2070726576656E7465640045303A208E
:10084000005A3A2000593A2000583A20004D5331BE
:100850002C4D53322050696E730A0024F404D920C1
:100860001BC40C5C0E9804C4095F0265077101F497
:1008700005F900FB04B30048048700C10369005870
:1008800003550003034500BE023A008402310053C1
:10089000022A002902250004022000E4011C00C8ED
:1008A000011900AF011700980114008401130071B1
:1008B0000110006101100051010E0043010D0036CE
:1008C000010B002B010B0020010B00150109000C8E
:1008D00001090003010800FB000800F3000800EB19
:1008E000000700E4000600DE000600D8000600D283
:1008F000000600CC000500C7000500C2000500BDD1
:10090000000400B9000400B5000400B1000400AD0B
:10091000000400A9000400A5000300A20003009F3A
:100920000004009B00030098000300950002009360
:10093000000300900003008D0002008B000300887C
:100940000002008600020084000300810002007F94
:100950000002007D0002007B0002007900020077A7
:1009600000010076000200740002007200010071B4
:100970000002006F0002006D0001006C0002006ABE
:1009800000010069000200670001006600010065C7
:1009900000010064000200620001006100010060CB
:1009A0000001005F0002005D0001005C0001005BCF
:1009B0000001005A000100590001005800010057D1
:1009C00000010056000100550001005400010053D1
:1009D00000000053000100520001005100010050CE
:1009E0000001004F0001004E0000004E0001004DCC
:1009F0000001004C0001004B0000004B0001004AC8
:100A000000010049000100480000004800010047C3
:100A100000010046000000460001004500000045BE
:100A200000010044000100430000004300010042B7
:100A300000000042000100410000004100010040B0
:100A40000001003F0000003F0001003E0000003EAA
:100A50000001003D0000003D0001003C0000003CA2
:100A60000000003C0001003B0000003B0001003A98
:100A70000000003A00010039000000390001003890
:100A80000000003800000038000100370000003787
:100A9000000100360000003600000036000100357D
:100AA0000000003500000035000100340000003473
:100AB0000000003400010033000000330000003368
:100AC000000100320000003200000032000100315D
:100AD0000000003100000031000100300000003053
:100AE000000000300001002F0000002F0000002F48
:100AF0000000002F0001002E0000002E0000002E3C
:100B00000001002D0000002D0000002D0000002D30
:100B10000001002C0000002C0000002C0000002C24
:100B20000001002B0000002B0000002B0000002B18
:100B30000001002A0000002A0000002A0000002A0C
:100B40000001002900000029000000290000002900
:100B500000000029000100280000002800000028F3
:100B600000000028000000280001002700000027E6
:100B700000000027000000270000002700010026D9
:100B800000000026000000260000002600000026CD
:100B900000010025000000250000002500000025C0
:100BA00000000025000000250001002400000024B2
:100BB00000000024000000240000002400010023A5
:100BC0000000002300000023000000230000002399
:100BD000000000230000002300010022000000228A
:100BE000000000220000002200000022000000227D
:100BF0000001002100000021000000210000002170
:100C00000000002100000021000000210001002060
:100C10000000002000000020000000200000002054
:100C20000000002000000020000000200001001F44
:100C30000000001F0000001F0000001F0000001F38
:100C40000000001F0000001F0001001E0000001E29
:100C50000000001E0000001E00000024F4D43050EC
:100C6000C38E20C2A24017828B7011127A910D811F
:100C70006CD90AA861E108C7586607615143061E8E
:100C80004B5D05C145A7041A411104093D98037144
:100C90003931034036DB0265339102D4305402808F
:100CA0002E1D02632CEE01752AC501B028A001108B
:100CB0002781018F2564012B244B01E0223401ACF4
:100CC000211F018D200D01801FFC00841EED009767
:100CD0001DDF00B81CD200E61BC600201BBC006450
:100CE0001AB200B219A8000A19A0006A189900D116
:100CF00017910040178B00B516840031167E00B3A3
:100D00001579003A157300C7146F0058146A00EE85
:100D10001366008813630025135E00C7125B006C26
:100D200012570015125400C111510070114F0021CB
:100D3000114B00D61049008D1047004610440002A8
:100D4000104200C00F4000800F3E00420F3C0006E2
:100D50000F3B00CB0E3800930E37005C0E3500279A
:100D60000E3400F30D3200C10D3100900D300060E3
:100D70000D2E00320D2D00050D2C00D90C2B00AED0
:100D80000C2900850C29005C0C2700350C27000E6F
:100D90000C2600E80B2400C40B2400A00B23007DCC
:100DA0000B23005A0B2100390B2100180B2000F8EF
:100DB0000A1F00D90A1E00BB0A1E009D0A1D0080E2
:100DC0000A1D00630A1C00470A1B002C0A1B0011A5
:100DD0000A1A00F7091A00DD091900C4091900AB45
:100DE000091900920917007B091800630917004CC4
:100DF00009160036091600200916000A091500F523
:100E0000081500E0081400CC081400B8081400A469
:100E1000081400900813007D0812006B0813005896
:100E200008120046081200340811002308110012AD
:100E300008110001081100F0071000E0071000D0B1
:100E4000071000C0071000B0070F00A107100091A5
:100E5000070E0083070F0074070F0065070E005789
:100E6000070E0049070E003B070D002E070E00205D
:100E7000070D0013070D0006070D00F9060C00ED25
:100E8000060D00E0060C00D4060C00C8060C00BCE1
:100E9000060C00B0060C00A4060B0099060C008D91
:100EA000060B0082060B0077060B006C060B006138
:100EB000060A0057060B004C060A0042060A0038D4
:100EC000060A002E060A0024060A001A060A001066
:100ED00006090007060A00FD050900F4050900EBF4
:100EE000050900E2050900D9050900D0050900C778
:100EF000050900BE050900B5050800AD050800A5F7
:100F00000509009C050800940508008C050800846C
:100F10000508007C050800740508006C05070065DD
:100F20000508005D050700560508004E0507004747
:100F30000507004005080038050700310507002AAD
:100F4000050700230507001C050600160507000F0E
:100F50000507000805060002050700FB040600F56A
:100F6000040700EE040600E8040600E2040700DBC4
:100F7000040600D5040600CF040600C9040600C319
:100F8000040600BD040600B7040600B1040500AC69
:100F9000040600A6040600A00405009B04060095B4
:100FA000040500900406008A0405008504050080FD
:100FB0000406007A04050075040500700405006B42
:100FC00004050066040500610405005C0405005783
:100FD000040500520405004D0405004804050043C3
:100FE0000405003E0404003A040500350405003001
:100FF0000404002C04050027040400230405001E3B
:101000000404001A04040016040500110404000D71
:10101000040400090405000404040000040400FCA6
:10102000030400F8030400F4030400F0030400ECDC
:10103000030400E8030400E4030400E0030400DC0C
:10104000030400D8030400D4030400D0030400CC3C
:10105000030400C8030300C50303006563686F3A17
:1010600000656E6473746F7073206869743A205AF7
:1010700000205A3A00656E6473746F70732068695B
:10108000743A20590020593A00656E6473746F7089
:1010900073206869743A20580020583A00656E64DD
:1010A00073746F7073206869743A20004572726FB0
:1010B000723A004572723A204D415854454D5020C5
:1010C0004245440054656D706572617475726520A7
:1010D0006865617465642062656420737769746310
:1010E000686564206F66662E204D415854454D500A
:1010F00020747269676765726564202121004572FA
:10110000723A204D494E54454D50003A204578746E
:101110007275646572207377697463686564206FA3
:1011200066662E204D494E54454D502074726967B5
:1011300067657265642021004572723A204D4158FE
:1011400054454D50003A204578747275646572209C
:101150007377697463686564206F66662E204D41FD
:101160005854454D502074726967676572656420F4
:101170002100202D20496E76616C696420657874A9
:101180007275646572206E756D6265722021000053
:10119000000000300E0100C00E0A00500F1400D0F5
:1011A0000F1E0060102800E010320070113C00F0AB
:1011B0001146007012500000135A008013640000A2
:1011C000146E00901478001015820090158C001099
:1011D0001696009016A0001017AA009017B40010E1
:1011E00018BE009018C8001019D2009019DC001029
:1011F0001AE600801AF000001BFA00801B0401F0C0
:101200001B0E01701C1801F01C2201601D2C01E056
:101210001D3601501E4001D01E4A01401F5401B02E
:101220001F5E0130206801A020720110217C019016
:10123000218601002290016026F401902A58028044
:101240002EBC0250322003E03584035039E803807D
:101250003C4C046563686F3A0048656174696E6769
:10126000206661696C656400504944204175746F63
:1012700074756E652066696E6973686564212050B7
:10128000757420746865206C617374204B702C2019
:101290004B6920616E64204B6420636F6E737461D0
:1012A0006E74732066726F6D2061626F766520695F
:1012B0006E746F20436F6E66696775726174696FD3
:1012C0006E2E6800504944204175746F74756E65C8
:1012D000206661696C6564212074696D656F757441
:1012E0000020403A006F6B20543A006F6B20423A66
:1012F00000504944204175746F74756E65206661B5
:10130000696C6564212054656D70657261747572D5
:101310006520746F6F206869676800204B643A200D
:1013200000204B693A2000204B703A200020436C8B
:1013300061737369632050494420002054753A203A
:1013400000204B753A2000206D61783A2000206D16
:10135000696E3A200020643A200020626961733A85
:1013600020004D383420582059205A20450065630C
:10137000686F3A0043616E6E6F7420656E746572BB
:10138000207375626469723A20004D3234004D3228
:1013900033202573006175746F25692E67004572CF
:1013A000726F723A006572726F7220777269746937
:1013B0006E6720746F2066696C65004E6F742053F1
:1013C00044207072696E74696E67002F0053442068
:1013D0007072696E74696E67206279746520002E80
:1013E0000044656C6574696F6E206661696C656444
:1013F0002C2046696C653A200046696C652064655E
:101400006C657465643A002E006F70656E206661CD
:10141000696C65642C2046696C653A2000577269D6
:1014200074696E6720746F2066696C653A20002EBF
:10143000006F70656E206661696C65642C2046697A
:101440006C653A20002E006F70656E206661696CD5
:1014500065642C2046696C653A200046696C6520FD
:1014600073656C6563746564002053697A653A201E
:101470000046696C65206F70656E65643A20002EC9
:10148000006F70656E206661696C65642C2046692A
:101490006C653A20004E6F7720667265736820662F
:1014A000696C653A20004E6F7720646F696E672023
:1014B00066696C653A20002220706F7300222070EC
:1014C0006172656E743A2200535542524F55544929
:1014D0004E452043414C4C207461726765743A223A
:1014E00000747279696E6720746F2063616C6C2080
:1014F0007375622D67636F64652066696C65732020
:101500007769746820746F6F206D616E79206C65E7
:1015100076656C732E204D4158206C6576656C2085
:1015200069733A0053442063617264206F6B006FEB
:1015300070656E526F6F74206661696C65640076C9
:101540006F6C756D652E696E6974206661696C6576
:101550006400534420696E6974206661696C00659B
:1015600063686F3A0048617264636F646564204425
:10157000656661756C742053657474696E67732059
:101580004C6F616465640053746F726564207365A9
:101590007474696E677320726574726965766564C8
:1015A000002044002049002020204D3330312050BD
:1015B000005049442073657474696E67733A002063
:1015C0005A0020590020204D323036205800486FF4
:1015D0006D65206F666673657420286D6D293A000D
:1015E000204500205A0020580020420020540020AE
:1015F000204D323035205300416476616E6365645E
:10160000207661726961626C65733A20533D4D6961
:101610006E20666565647261746520286D6D2F7338
:10162000292C20543D4D696E2074726176656C20C2
:10163000666565647261746520286D6D2F73292C51
:1016400020423D6D696E696D756D207365676D65CE
:101650006E742074696D6520286D73292C20583DA7
:101660006D6178696D756D205859206A65726B20BF
:10167000286D6D2F73292C20205A3D6D6178696D7E
:10168000756D205A206A65726B20286D6D2F732945
:101690002C2020453D6D6178696D756D2045206A6F
:1016A00065726B20286D6D2F732900205400202057
:1016B0004D323034205300416363656C6572617450
:1016C000696F6E3A20533D616363656C6572617446
:1016D000696F6E2C20543D72657472616374206171
:1016E0006363656C65726174696F6E0020450020EC
:1016F0005A0020590020204D3230312058004D61D1
:1017000078696D756D20416363656C65726174699C
:101710006F6E20286D6D2F7332293A00204500200E
:101720005A0020590020204D3230332058004D619E
:1017300078696D756D206665656472617465732086
:10174000286D6D2F73293A00204500205A0020593A
:101750000020204D3932205800537465707320707A
:10176000657220756E69743A0053657474696E67AA
:10177000732053746F72656400022D2D3A2D2D0075
:101780002D2D2D00534400012000012000012000D8
:101790004E6F2053442063617264005072696E740E
:1017A0002066726F6D2053440053746F7020707206
:1017B000696E7400526573756D65207072696E7420
:1017C000005061757365207072696E7400436F6EAE
:1017D00074726F6C00507265706172650054756E42
:1017E0006500496E666F2073637265656E00052E35
:1017F0002E004D61696E004D3234004D323320258C
:1018000073004D383420582059205A20450046692D
:10181000726D776172652076657273696F6E0052C2
:101820006573746F7265206661696C7361666500CB
:101830004C6F6164206D656D6F72790053746F72C7
:1018400065206D656D6F7279004D6F74696F6E0004
:1018500054656D7065726174757265004D61696E75
:101860000046656220313620323031362031333A3D
:1018700033353A3531003131353230305F6475619E
:101880006C00556C74696D616B65723A5F322E3114
:10189000004669726D776172652076657273696F53
:1018A0006E004573746570732F6D6D0045737465BC
:1018B00070732F6D6D005A73746570732F6D6D00AA
:1018C0005A73746570732F6D6D00597374657073FE
:1018D0002F6D6D005973746570732F6D6D005873A3
:1018E000746570732F6D6D005873746570732F6D10
:1018F0006D00412D7265747261637400412D7265D3
:10190000747261637400416D6178206500416D619E
:1019100078206500416D6178207A00416D61782002
:101920007A00416D6178207900416D6178207900FD
:10193000416D6178207800416D61782078005654BF
:10194000726176206D696E005654726176206D6901
:101950006E00566D696E00566D696E00566D617849
:10196000206500566D6178206500566D6178207A9B
:1019700000566D6178207A00566D617820790056A6
:101980006D6178207900566D6178207800566D6120
:101990007820780056652D6A65726B0056652D6A51
:1019A00065726B00567A2D6A65726B00567A2D6AE5
:1019B00065726B005678792D6A65726B005678797E
:1019C0002D6A65726B00416363656C0041636365FA
:1019D0006C00436F6E74726F6C0050726568656165
:1019E000742041425320636F6E66005072656865D3
:1019F000617420504C4120636F6E66005049442D45
:101A000043005049442D43005049442D440050495F
:101A1000442D44005049442D49005049442D49006B
:101A20005049442D50005049442D500046616E20CD
:101A300073706565640046616E207370656564004F
:101A400042656400426564004E6F7A7A6C653200CC
:101A50004E6F7A7A6C6532004E6F7A7A6C65004E02
:101A60006F7A7A6C6500436F6E74726F6C0053749A
:101A70006F7265206D656D6F72790042656400421A
:101A80006564004E6F7A7A6C65004E6F7A7A6C6589
:101A90000046616E2073706565640046616E207358
:101AA000706565640054656D70657261747572650A
:101AB0000053746F7265206D656D6F7279004265B9
:101AC0006400426564004E6F7A7A6C65004E6F7AEE
:101AD0007A6C650046616E207370656564004661CE
:101AE0006E2073706565640054656D706572617415
:101AF000757265004D6F7665206178697300436F7C
:101B00006F6C646F776E0050726568656174204118
:101B10004253005072656865617420504C41004D1D
:101B20006F7665205A004175746F20686F6D65008F
:101B30004D38340044697361626C6520737465705C
:101B400070657273004D61696E004D6F766520306F
:101B50002E316D6D004D6F766520316D6D004D6FCE
:101B600076652031306D6D00507265706172650070
:101B70004578747275646572004D6F7665205A0001
:101B80004D6F76652059004D6F76652058004D6F7A
:101B90007665206178697300457874727564657242
:101BA000005A005900580050726568656174204100
:101BB000425320426564005072656865617420413B
:101BC000425320416C6C005072656865617420411D
:101BD000425320320050726568656174204142535F
:101BE00020310050726570617265005072656865E1
:101BF000617420504C4120426564005072656865F4
:101C0000617420504C4120416C6C005072656865D5
:101C1000617420504C4120320050726568656174D7
:101C200020504C4120310050726570617265005A3D
:101C3000004D383420583020593000473238004D9C
:101C4000363030004368616E67652066696C616D8F
:101C5000656E7400466C6F77203100466C6F77209C
:101C60003100466C6F77203000466C6F7720300073
:101C700046616E2073706565640046616E20737006
:101C80006565640042656400426564004E6F7A7A5F
:101C90006C6532004E6F7A7A6C6532004E6F7A7ADC
:101CA0006C65004E6F7A7A6C6500537065656400F0
:101CB0005370656564004D61696E00436172642014
:101CC00072656D6F766564004361726420696E733E
:101CD000657274656400494E46494E4954594E41F7
:101CE0004ECDCCCC3D0AD7233C17B7D13877CC2B7F
:101CF000329595E6241FB14F0A000020410000C82C
:101D00004200401C4620BCBE4CCA1B0E5AAEC59DAC
:101D10007400A01A9A413FCF991A11241FBECFEF29
:101D2000D1E2DEBFCDBF00E00CBF14E0A0E0B2E026
:101D3000E4E9F0EC01E00BBF02C007900D92A03C7B
:101D4000B107D9F71BBE12E1A0ECB4E001C01D92AF
:101D5000A83AB107E1F71DE1C8E1DDE104C022972F
:101D6000FE010E94EFDFC231D107C9F70E94CFDA2E
:101D70000C943DE00C940000A0E0B0E0E2ECFEE04A
:101D80000C940CE0EC015B016115710519F0FB018D
:101D900091838083F9908F2D90E00E94F3DF892B4F
:101DA000C9F7FDE2FF1621F4F990EE24E39405C093
:101DB0002BE2F21609F4F990EE248E010150104046
:101DC000C80166ED7CE143E050E00E945211892B8E
:101DD00001F58E010E5F1F4FC80169ED7CE145E002
:101DE00050E00E945211892B19F48E01095F1F4F98
:101DF000A114B10419F0F50111830083E0FC04C0C3
:101E000070E090E080E814C070E090E080E86FEF50
:101E100008C1C8016EED7CE143E050E00E94521120
:101E2000892B69F4A114B10429F470E090E080ECEE
:101E30006FE7F7C02296F501D183C083F6CF8824DF
:101E4000992440E050E060E070E0EF2DE053EA308C
:101E5000A0F5F2E0EF2A8E2D90E09C012870307002
:101E6000E2FE06C0232B79F50894811C911C2BC03F
:101E7000232B19F0089481089108DB01CA0112E0B4
:101E8000880F991FAA1FBB1F1A95D1F7480F591F1A
:101E90006A1F7B1F440F551F661F771F4E0F511D72
:101EA000611D711D483929E9520729E9620729E1B5
:101EB000720748F084E0E82A06C0EE3F31F4E3FC04
:101EC00039C098E0E92AF990C0CFE53311F0E53147
:101ED00089F529912D3219F4E0E1EE2A05C02B3263
:101EE00019F081E090E003C0299182E090E0E22FB8
:101EF000E053EA3018F0C81BD90B1CC020E030E0DA
:101F0000FCE020383F075CF4C901880F991F880F57
:101F1000991F280F391F220F331F2E0F311DE991F2
:101F2000E053EA3068F3E4FE03C0309521953F4F5B
:101F3000820E931ECE2CDD24E1FE07C0A114B10455
:101F400021F02197F501D183C083CB01BA010E9412
:101F500058DC7B018C01F3E0CF22DD2423E0C216A4
:101F6000D10421F417FB109517F91095570168015A
:101F7000C801B70120E030E040E050E00E94B8DB4B
:101F8000882309F44AC097FE0DC025EFE22E2CE10C
:101F9000F22E9094819491089394C0E2D0E000E0F6
:101FA00010E012C09DE0E92E9DE1F92EF6CFF70179
:101FB0002591359145915491C601B5010E9498DE55
:101FC0005B016C018C1A9D0A8C169D0684F7D595D1
:101FD000C7950F5F1F4F0630110529F08CEF9FEF5B
:101FE000E80EF91EF1CFC501D6017C018D018C2DC3
:101FF000880F8D2D881F8F3F51F0C601B50120E05D
:1020000030E040E050E00E94B8DB882331F482E207
:1020100090E09093A7128093A6127E2D9F2D802F83
:10202000612F272F392F482F562FB901CA01CDB75D
:10203000DEB7ECE00C9428E02F923F925F926F9213
:102040007F928F929F92AF92BF92CF92DF92EF9248
:10205000FF920F931F93CF93DF938C011B01EA0133
:102060006115710519F0FB0191838083209749F078
:10207000CE010297839728F020E030E040E050E066
:10208000F6C0F801A1908F018A2D90E00E94F3DF45
:10209000892BB9F7FDE2AF1631F4F801A1908F0159
:1020A0005524539407C0FBE2AF1619F4F801A19030
:1020B0008F015524209719F0C031D105C1F4F0E308
:1020C000AF1679F4F8018081883711F0883549F42A
:1020D000F801A1800E5F1F4FF2E05F2AC0E1D0E05F
:1020E00006C0209721F480E3A816E9F427C0C83081
:1020F000D10531F1C930D10524F4C230D10531F513
:102100000CC0CA30D10589F0C031D105F9F4C12C19
:10211000D12CE12CB8E0FB2E28C0C12CD12CE12C15
:10212000A0E4FA2E22C0CAE0D0E0FCECCF2EFCECFA
:10213000DF2EFCECEF2EFCE0FF2E17C0C8E0D0E055
:10214000C12CD12CE12CE0E1FE2E0FC09E014427D2
:1021500037FD4095542F60E070E080E090E80E94E9
:10216000B0DFC901DA016C017D0120E030E040E020
:1021700050E060E03E01882477FC8094982C70ED5C
:10218000B72EBA0CE9E0EB1570F48A2D81548A3130
:1021900018F499ECB92E06C08A2D81568A3150F573
:1021A00089EAB82EBA0C8B2D90E08C179D0714F598
:1021B0006F3FE1F0C216D306E406F506B0F0CA019F
:1021C000B901A40193010E946ADF9B01AC012B0DB0
:1021D000311D411D511D2130F0E03F07F0E04F0758
:1021E000F0E85F0710F461E001C06FEFF801A19023
:1021F0008F01C5CF2114310481F0662331F00150E5
:102200001040F1011183008308C051FE1AC0025032
:102210001040F1011183008314C067FF12C050FC0D
:1022200005C02FEF3FEF4FEF5FE704C020E030E045
:1022300040E050E882E290E09093A7128093A612CB
:1022400016C050FE08C050954095309521953F4FDF
:102250004F4F5F4F0CC057FF0AC082E290E090934F
:10226000A7128093A6122FEF3FEF4FEF5FE7B90160
:10227000CA01DF91CF911F910F91FF90EF90DF90F6
:10228000CF90BF90AF909F908F907F906F905F9016
:102290003F902F900895FB01DC0105900D920020E6
:1022A000E1F70895FB01DC014150504088F08D9129
:1022B00081341CF08B350CF4805E659161341CF028
:1022C0006B350CF4605E861B611171F3990B0895F8
:1022D000881BFCCFFB01DC014150504048F00590C9
:1022E0000D920020C9F701C01D9241505040E0F707
:1022F0000895FB0155915523A9F0BF01DC014D91D3
:1023000045174111E1F759F4CD010590002049F03E
:102310004D9140154111C9F3FB014111EFCF81E00F
:1023200090E001970895FB01DC0104C08D910190BC
:10233000801921F441505040C8F7881B990B08952B
:10234000FB01DC0102C001900D9241505040D8F7D2
:102350000895FB01DC010D900020E9F71197019031
:102360000D920020E1F70895FC018191861721F07C
:102370008823D9F7992708953197CF010895FB0154
:10238000DC0101900D920020E1F70895FB01DC01D2
:102390004150504030F08D910190801919F4002087
:1023A000B9F7881B990B0895FB01DC01415050409F
:1023B00048F001900D920020C9F701C01D924150D4
:1023C0005040E0F70895AEE0B0E0E9EEF1E10C94A2
:1023D00014E00E891F898EE08C831A8309838FEFA6
:1023E0009FE79E838D839E01265E3F4FCE0101961F
:1023F000688D798DA9010E9407122F813885020FFF
:10240000131FF80110822E96E4E00C9430E0ABE04C
:10241000B0E0EDE0F2E10C9406E03C012B015A0142
:10242000FC0117821682838181FD03C06FEF7FEF6D
:10243000C6C19AE0892E1E010894211C311CF301AB
:102440002381F20123FD859123FF81912F018823B0
:1024500009F4B2C1853239F423FD859123FF8191BE
:102460002F01853229F490E0B3010E94FA13E7CFDF
:10247000982FFF24EE249924FFE1FF15D0F09B3222
:1024800069F09C3228F4903259F0933291F40EC0E6
:102490009D3249F0903369F441E024C052E0F52ABE
:1024A00084E0F82A28C098E0F92A25C0E0E1FE2A55
:1024B00022C0F7FC29C0892F80538A3070F4F6FEC1
:1024C00005C0989C902C1124980E15C0E89CE02C17
:1024D0001124E80EF0E2FF2A0EC09E3229F4F6FC29
:1024E0006BC140E4F42A07C09C3619F450E8F52A81
:1024F00002C0983649F4F20123FD959123FF919192
:102500002F01992309F0B8CF892F8554833018F013
:102510008052833038F444E050E0A40EB51E5FE3EF
:1025200059830FC0933631F0933779F0933509F022
:1025300056C020C0F5018081898342E050E0A40E9E
:10254000B51E610101E010E012C0F501C080D1802C
:10255000F6FC03C06FEF7FEF02C0692D70E042E030
:1025600050E0A40EB51EC6010E94EF138C015FE778
:10257000F52214C0F501C080D180F6FC03C06FEFD6
:102580007FEF02C0692D70E042E050E0A40EB51E5E
:10259000C6010E94E4138C0150E8F52AF3FE07C03F
:1025A0001AC080E290E0B3010E94FA13EA948E2DE3
:1025B00090E008171907A8F30EC0F601F7FC859103
:1025C000F7FE81916F0190E0B3010E94FA13E110D0
:1025D000EA94015010400115110579F7EAC09436CC
:1025E00011F0993669F5F7FE08C0F50120813181B7
:1025F0004281538184E090E00AC0F501808191819D
:102600009C01442737FD4095542F82E090E0A80EAE
:10261000B91E9FE6F92257FF09C0509540953095A5
:1026200021953F4F4F4F5F4FE0E8FE2ACA01B901A5
:10263000A1012AE030E00E942614D82ED21840C012
:10264000953729F41F2D1F7E2AE030E01DC01F2D75
:10265000197F9F3661F0903720F4983509F0ACC0AF
:102660000FC0903739F0983709F0A6C004C028E0B1
:1026700030E00AC0106114FD146020E130E004C0B5
:1026800014FD166020E132E017FF08C0F5016081FB
:1026900071818281938144E050E008C0F50180811E
:1026A0009181BC0180E090E042E050E0A40EB51EB4
:1026B000A1010E942614D82ED2188FE7F82EF122FD
:1026C000F6FE0BC05EEFF522D91438F4F4FE07C015
:1026D000F2FC05C08FEEF82202C01D2D01C0192D9D
:1026E000F4FE0DC0FE01ED0DF11D8081803319F463
:1026F00099EEF92208C01F5FF2FE05C003C08F2DBE
:10270000867809F01F5F0F2DF3FC14C0F0FE0FC098
:102710001E1510F09D2C0BC09D2C9E0C911A1E2D89
:1027200006C080E290E0B3010E94FA131F5F1E15FD
:10273000C0F304C01E1510F4E11A01C0EE2404FF1A
:102740000FC080E390E0B3010E94FA1302FF1DC0A6
:1027500001FD03C088E790E00EC088E590E00BC063
:10276000802F867891F001FF02C08BE201C080E2E9
:10277000F7FC8DE290E0B3010E94FA1306C080E3FB
:1027800090E0B3010E94FA139A94D914C0F3DA943A
:10279000F101ED0DF11D808190E0B3010E94FA136B
:1027A000DD20A9F706C080E290E0B3010E94FA1391
:1027B000EA94EE20C1F743CEF30166817781CB0125
:1027C0002B96E2E10C9422E0FC01059061507040F0
:1027D0000110D8F7809590958E0F9F1F0895FC01EA
:1027E0006150704001900110D8F7809590958E0F40
:1027F0009F1F08950F931F93CF93DF938C01EB01DD
:102800008B8181FF1BC082FF0DC02E813F818C8197
:102810009D812817390764F4E881F9810193F983D0
:10282000E88306C0E885F985802F1995892B31F456
:102830008E819F8101969F838E8302C00FEF1FEFD1
:10284000C801DF91CF911F910F910895FA01AA2736
:10285000283051F1203181F1E8946F936E7F6E5FE3
:102860007F4F8F4F9F4FAF4FB1E03ED0B4E03CD091
:10287000670F781F891F9A1FA11D680F791F8A1F74
:10288000911DA11D6A0F711D811D911DA11D20D0DB
:1028900009F468943F912AE0269F11243019305D95
:1028A0003193DEF6CF010895462F4770405D419386
:1028B000B3E00FD0C9F7F6CF462F4F70405D4A33D3
:1028C00018F0495D31FD4052419302D0A9F7EACF9B
:1028D000B4E0A6959795879577956795BA95C9F7CA
:1028E00000976105710508959B01AC010A2E0694BD
:1028F0005795479537952795BA95C9F7620F731F76
:10290000841F951FA01D08951F920F920FB60F925E
:1029100011242F933F938F939F93AF93BF938091F5
:10292000C4049091C504A091C604B091C70430912D
:10293000C8040196A11DB11D232F2D5F2D3720F056
:102940002D570196A11DB11D2093C8048093C40486
:102950009093C504A093C604B093C7048091C004AB
:102960009091C104A091C204B091C3040196A11D2D
:10297000B11D8093C0049093C104A093C204B0938E
:10298000C304BF91AF919F918F913F912F910F9071
:102990000FBE0F901F9018958FB7F8942091C40424
:1029A0003091C5044091C6045091C7048FBFB9014E
:1029B000CA0108959B01AC017FB7F8948091C004CF
:1029C0009091C104A091C204B091C30466B5A89BC4
:1029D00005C06F3F19F00196A11DB11D7FBFBA2F31
:1029E000A92F982F8827860F911DA11DB11D62E088
:1029F000880F991FAA1FBB1F6A95D1F7BC012DC074
:102A0000FFB7F8948091C0049091C104A091C204D2
:102A1000B091C304E6B5A89B05C0EF3F19F001963D
:102A2000A11DB11DFFBFBA2FA92F982F88278E0F88
:102A3000911DA11DB11DE2E0880F991FAA1FBB1FA8
:102A4000EA95D1F7861B970B885E9340C8F2215018
:102A500030404040504068517C4F211531054105C0
:102A6000510571F60895019739F0880F991F880F65
:102A7000991F02970197F1F70895789484B58260C1
:102A800084BD84B5816084BD85B5826085BD85B512
:102A9000816085BDEEE6F0E0808181608083E1E8C1
:102AA000F0E01082808182608083808181608083F9
:102AB000E0E8F0E0808181608083E1EBF0E08081FC
:102AC00084608083E0EBF0E0808181608083E1E9D5
:102AD000F0E0808182608083808181608083E0E992
:102AE000F0E0808181608083E1EAF0E080818260B3
:102AF0008083808181608083E0EAF0E08081816072
:102B00008083E1E2F1E08081826080838081816066
:102B10008083E0E2F1E0808181608083EAE7F0E099
:102B200080818460808380818260808380818160F5
:102B300080838081806880831092C10008951F93F4
:102B4000CF93DF93182FEB0161E00E947F1620974F
:102B500009F4CAC0CF3FD10509F4C9C0E12FF0E0A4
:102B6000E75FFD4F8491893009F466C08A30B0F484
:102B70008430F1F1853040F4823059F1833070F5C2
:102B8000813009F0AEC020C0873009F443C08830DE
:102B900008F048C0863009F0A4C034C08D3009F474
:102BA00078C08E3038F48B3009F45AC08C3008F07D
:102BB00066C04CC0803109F480C0813109F487C0FF
:102BC0008F3009F08EC06FC084B5806884BDC7BDEA
:102BD00092C084B5806284BDC8BD8DC080918000E4
:102BE000806880938000D0938900C093880083C060
:102BF00080918000806280938000D0938B00C0938E
:102C00008A0079C08091B00080688093B000C09342
:102C1000B30071C08091B00080628093B000C09317
:102C2000B40069C080919000806880939000D09338
:102C30009900C09398005FC080919000806280935B
:102C40009000D0939B00C0939A0055C08091900053
:102C5000886080939000D0939D00C0939C004BC0EF
:102C60008091A00080688093A0008091A0008F7B5D
:102C70008093A000D093A900C093A8003CC080918D
:102C8000A00080628093A000D093AB00C093AA0004
:102C900032C08091A00088608093A000D093AD00E6
:102CA000C093AC0028C080912001806880932001EF
:102CB000D0932901C09328011EC080912001806219
:102CC00080932001D0932B01C0932A0114C08091DE
:102CD0002001886080932001D0932D01C0932C01A6
:102CE0000AC0C038D1051CF4812F60E002C0812FDA
:102CF00061E00E943217DF91CF911F910895CF9329
:102D0000DF93482F50E0CA018D539E4FFC01349150
:102D100043585E4FFA018491882369F190E0880F4F
:102D2000991FFC01E15DFE4FA591B491FC01E75BA9
:102D3000FE4FC591D491662351F42FB7F8948C912E
:102D4000932F909589238C93888189230BC06230BF
:102D500061F42FB7F8948C91932F909589238C93DD
:102D60008881832B88832FBF06C09FB7F8948C91EE
:102D7000832B8C939FBFDF91CF910895893009F405
:102D800049C08A30A0F4843051F1853040F482305B
:102D900079F1833000F5813009F063C026C08730B7
:102DA00079F1883098F5863009F05BC025C08D3008
:102DB00009F442C08E3028F48B30B1F18C30C0F56C
:102DC0002DC0803109F442C0813109F445C08F30F3
:102DD00009F047C037C0809180008F7703C0809191
:102DE00080008F7D80938000089584B58F7702C026
:102DF00084B58F7D84BD08958091B0008F7703C026
:102E00008091B0008F7D8093B000089580919000F4
:102E10008F7707C0809190008F7D03C080919000D4
:102E2000877F8093900008958091A0008F7707C0DE
:102E30008091A0008F7D03C08091A000877F809348
:102E4000A0000895809120018F7703C08091200118
:102E50008F7D80932001089580912001877F80934A
:102E600020010895FF920F931F93F62E482F50E0F4
:102E7000CA01875F9D4FFC012491CA018D539E4F6B
:102E8000FC01149143585E4FFA0104910023C9F0EC
:102E9000222319F0822F0E94BE16E02FF0E0EE0FE1
:102EA000FF1FE75BFE4FA591B4919FB7F894FF20F9
:102EB00021F48C911095812302C08C91812B8C93ED
:102EC0009FBF1F910F91FF9008950F931F93482F5D
:102ED00050E0CA01875F9D4FFC012491CA018D53C8
:102EE0009E4FFC01049143585E4FFA011491112347
:102EF00019F420E030E015C0222319F0822F0E943F
:102F0000BE16812F90E0880F991F8D599E4FFC01AE
:102F1000A591B4918C9120E030E0802311F021E064
:102F200030E0C9011F910F9108951F920F920FB6C3
:102F30000F920BB60F9211242F933F934F935F93F1
:102F40006F937F938F939F93AF93BF93EF93FF9371
:102F50008091CD049091CE04892B29F0E091CD048D
:102F6000F091CE041995FF91EF91BF91AF919F9190
:102F70008F917F916F915F914F913F912F910F9022
:102F80000BBE0F900FBE0F901F9018951F920F92BF
:102F90000FB60F920BB60F9211242F933F934F93BE
:102FA0005F936F937F938F939F93AF93BF93EF93B1
:102FB000FF938091CF049091D004892B29F0E09168
:102FC000CF04F091D0041995FF91EF91BF91AF918B
:102FD0009F918F917F916F915F914F913F912F9131
:102FE0000F900BBE0F900FBE0F901F9018951F9261
:102FF0000F920FB60F920BB60F9211242F933F939F
:103000004F935F936F937F938F939F93AF93BF93F0
:10301000EF93FF938091D1049091D204892B29F0F2
:10302000E091D104F091D2041995FF91EF91BF91F5
:10303000AF919F918F917F916F915F914F913F9150
:103040002F910F900BBE0F900FBE0F901F901895F1
:103050001F920F920FB60F920BB60F9211242F935F
:103060003F934F935F936F937F938F939F93AF9310
:10307000BF93EF93FF938091D3049091D404892B55
:1030800029F0E091D304F091D4041995FF91EF91C8
:10309000BF91AF919F918F917F916F915F914F9170
:1030A0003F912F910F900BBE0F900FBE0F901F906E
:1030B00018951F920F920FB60F920BB60F92112414
:1030C0002F933F934F935F936F937F938F939F9330
:1030D000AF93BF93EF93FF938091C9049091CA047B
:1030E000892B29F0E091C904F091CA041995FF9148
:1030F000EF91BF91AF919F918F917F916F915F9170
:103100004F913F912F910F900BBE0F900FBE0F90DC
:103110001F9018951F920F920FB60F920BB60F9239
:1031200011242F933F934F935F936F937F938F93CC
:103130009F93AF93BF93EF93FF938091CB049091B4
:10314000CC04892B29F0E091CB04F091CC041995A3
:10315000FF91EF91BF91AF919F918F917F916F916F
:103160005F914F913F912F910F900BBE0F900FBE2B
:103170000F901F9018951F920F920FB60F920BB6DB
:103180000F9211242F933F934F935F936F937F93ED
:103190008F939F93AF93BF93EF93FF938091D50449
:1031A0009091D604892B29F0E091D504F091D604B2
:1031B0001995FF91EF91BF91AF919F918F917F9161
:1031C0006F915F914F913F912F910F900BBE0F9098
:1031D0000FBE0F901F9018951F920F920FB60F926F
:1031E0000BB60F9211242F933F934F935F936F93DE
:1031F0007F938F939F93AF93BF93EF93FF938091B0
:10320000D7049091D804892B29F0E091D704F0914C
:10321000D8041995FF91EF91BF91AF919F918F9134
:103220007F916F915F914F913F912F910F900BBEC6
:103230000F900FBE0F901F901895CF92DF92EF92D4
:10324000FF920F931F93CF93DF937C016B018A0151
:10325000C0E0D0E00FC0D6016D916D01D701ED91B6
:10326000FC910190F081E02DC7011995C80FD91F7D
:10327000015010400115110571F7CE01DF91CF917A
:103280001F910F91FF90EF90DF90CF900895DC0198
:10329000ED91FC910190F081E02D19950895CF9367
:1032A000DF93EC016115710519F420E030E00FC0E7
:1032B000DB010D900020E9F71197A61BB70BE88101
:1032C000F9810280F381E02DAD0119959C01C901BE
:1032D000DF91CF9108950E944F190895EF92FF92C8
:1032E0000F931F93CF93DF93EC01E0908807F0904A
:1032F000890700918A0710918B07688179818A81FB
:103300009B81A80197010E94B8DB882324F4E882FE
:10331000F9820A831B83E0908C07F0908D0700915F
:103320008E0710918F076C817D818E819F81A8010E
:1033300097010E94B8DB882324F4EC82FD820E837F
:103340001F83E0909007F0909107009192071091F1
:103350009307688579858A859B85A80197010E94D6
:10336000B8DB882324F4E886F9860A871B87E09077
:103370009303F09094030091950310919603688154
:1033800079818A819B81A80197010E94C6DD181668
:1033900024F4E882F9820A831B83E0909703F0907B
:1033A00098030091990310919A036C817D818E811D
:1033B0009F81A80197010E94C6DD181624F4EC82B3
:1033C000FD820E831F83E0909B03F0909C0300918D
:1033D0009D0310919E03688579858A859B85A80148
:1033E00097010E94C6DD181624F4E886F9860A873C
:1033F0001B87DF91CF911F910F91FF90EF90089560
:103400008091B607089567707070E82FF0E0E75F6D
:10341000FD4F84918B3028F48830A0F4863090F1F1
:1034200006C08E30D0F08F50833060F521C080917F
:10343000B100887F8093B1008091B100862B80938A
:10344000B100089580919100887F809391008091D0
:103450009100862B8093910008958091A100887F30
:103460008093A1008091A100862B8093A1000895F4
:1034700080912101887F8093210180912101862BF9
:103480008093210108950F931F93CF93DF93813091
:10349000910549F46F5F7F4F09F046C089ED94E0D4
:1034A0000E94BE8C41C0892B09F03EC06F5F7F4FE8
:1034B000D9F586E394E09093A4068093A3068091C7
:1034C000AA06882321F087EA96E00E947B47CFE591
:1034D000D6E006E314E005C06F9785E0C932D8074F
:1034E00051F0198308838F818823B1F3CE010496AC
:1034F0000E947B47F1CF86E394E0998388838F8194
:10350000882321F0CE0104960E947B4786E394E055
:10351000909309058093080580910F05882321F079
:103520008CE095E00E947B47DF91CF911F910F9136
:10353000089580E090E06FEF7FEF0E94431A0895B6
:1035400081E090E06FEF7FEF0E94431A08950E94A0
:1035500086738091B607882309F03AC081E0809392
:10356000B6078091B9079091BA07A091BB07B091B7
:10357000BC078093BD079093BE07A093BF07B0938D
:10358000C007E5E5F2E0949108C08091C00085FF96
:10359000FCCF9093C600319694919923B1F7E6E65B
:1035A000F2E0949108C08091C00085FFFCCF909319
:1035B000C600319694919923B1F78091C00085FFA0
:1035C000FCCF8AE08093C6008CE592E00E947CCF1D
:1035D0000895F8940E948673159A10929407469A5B
:1035E00010929507439A10929607409A8FB7F894D5
:1035F00090910B01926090930B018FBFE5E5F2E093
:10360000949108C08091C00085FFFCCF9093C600C4
:10361000319694919923B1F7E5EEF2E0949108C0C8
:103620008091C00085FFFCCF9093C60031969491A5
:103630009923B1F78091C00085FFFCCF8AE0809389
:10364000C6008CED92E00E948BCFFFCF0E94CC147D
:103650006093C1077093C2078093C3079093C40718
:10366000E091EA07F091EB07E451F84F808188235D
:10367000A9F4E4E0F3E0949108C08091C00085FFD4
:10368000FCCF9093C600319694919923B1F7809125
:10369000C00085FFFCCF8AE08093C60008950E9499
:1036A000CC146093C1077093C2078093C3079093B3
:1036B000C4070895EF92FF920F931F930E94CC14BA
:1036C000E090C507F090C6070091C7071091C807A2
:1036D0002091C1073091C2074091C3075091C407A0
:1036E000621B730B840B950BE616F7060807190788
:1036F00038F4E114F1040105110511F00E94E91AF2
:103700008091A1039091A203A091A303B091A4037F
:103710000097A105B10599F10E94CC142091C10731
:103720003091C2074091C3075091C407621B730BCD
:10373000840B950B2091A1033091A2034091A30328
:103740005091A4032617370748075907C0F49091F2
:10375000551180915611981791F4159A109294076B
:10376000469A10929507439A10929607409A9FB7EF
:10377000F89480910B01826080930B019FBF0E949F
:103780005C5A1F910F91FF90EF9008956F927F9276
:103790008F929F92AF92BF92CF92DF92EF92FF9261
:1037A0000F931F93F82E6091C9077091CA078091FB
:1037B000CB079091CC072091CD073091CE07409157
:1037C000CF075091D0070E94D3DD3B014C0100D0C0
:1037D00000D00DB71EB70F5F1F4F6091830370912C
:1037E0008403882777FD8095982F0E945ADC2091CA
:1037F000A5033091A6034091A7035091A8030E940E
:1038000098DE20E030E040E752E40E94BFDB20E099
:1038100030E048EC52E40E94BFDB5B016C01F80130
:103820006082718282829382F4828091AB07858369
:103830008CE697E065ED77E049EC57E020E001E0A9
:1038400032E0E32E0E945C548091D5079091D60718
:10385000A091D707B091D80780936C0790936D071C
:10386000A0936E07B0936F078091D9079091DA0704
:10387000A091DB07B091DC078093700790937107EC
:10388000A0937207B09373078091DD079091DE07D4
:10389000A091DF07B091E0078093740790937507BC
:1038A000A0937607B09377078091E1079091E207A4
:1038B000A091E307B091E40780937807909379078C
:1038C000A0937A07B0937B078DB79EB706960FB685
:1038D000F8949EBF0FBE8DBF0E94CC146093C107A9
:1038E0007093C2078093C3079093C4071F910F91F1
:1038F000FF90EF90DF90CF90BF90AF909F908F9010
:103900007F906F900895CF92DF92EF92FF920F9386
:103910001F9385ED97E00E946E190E94CC1460936E
:10392000C1077093C2078093C3079093C407609147
:103930006C0770916D0780916E0790916F072091D1
:10394000D5073091D6074091D7075091D8070E94EC
:10395000B8DB882309F07AC0609170077091710715
:1039600080917207909173072091D9073091DA07FF
:103970004091DB075091DC070E94B8DB882309F0F7
:1039800065C06091A5037091A6038091A7039091F3
:10399000A80320E030E040E752E40E94BFDB7B0157
:1039A0008C0185ED97E069ED77E04DED57E021EE74
:1039B00037E0EBEACE2EE7E0DE2E0E94435D8091F9
:1039C000D5079091D607A091D707B091D8078093DB
:1039D0006C0790936D07A0936E07B0936F0780916B
:1039E000D9079091DA07A091DB07B091DC078093AB
:1039F000700790937107A0937207B093730780913B
:103A0000DD079091DE07A091DF07B091E00780937A
:103A1000740790937507A0937607B093770780910A
:103A2000E1079091E207A091E307B091E40780934A
:103A3000780790937907A0937A07B0937B071F913B
:103A40000F91FF90EF90DF90CF90089560918303E6
:103A500070918403882777FD8095982F0E945ADC07
:103A60002091A5033091A6034091A7035091A8038C
:103A70000E9498DE20E030E040E752E40E94BFDB85
:103A800020E030E048EC52E488CF87E09AE00E94E2
:103A90009141E7E0F3E0949108C08091C00085FF78
:103AA000FCCF9093C600319694919923B1F7409141
:103AB000B9075091BA076091BB077091BC074F5F7F
:103AC0005F4F6F4F7F4F87E09AE02AE030E00E941F
:103AD00052428091C00085FFFCCF8AE08093C600EF
:103AE0000E94261B08952F923F924F925F926F92F1
:103AF0007F928F929F92AF92BF92CF92DF92EF927E
:103B0000FF920F931F93DF93CF93CDB7DEB7289724
:103B10000FB6F894DEBF0FBECDBF98878F8383307A
:103B2000910508F056C1FC01E15BFA4FD4903C01CD
:103B3000660C771C660C771C93012459384F3A8326
:103B4000298380E090E0A0E0B0E0F90180839183D8
:103B5000A283B3838CE697E060E777E044E757E021
:103B600028E737E00E943458F301EE5AFA4FE59007
:103B7000F590059114916D2D772767FD7095882735
:103B800077FD8095982F0E945ADC1B012C01930130
:103B90002B52384F3C832B83C801B70120E030E023
:103BA00040EC5FE30E9498DEA20191010E9498DE42
:103BB000AB81BC816D937D938D939C931397F3019F
:103BC000ED58FC4FFE83ED8360817181828193818A
:103BD0006093A5037093A6038093A7039093A80313
:103BE00020E030E040E752E40E94BFDB7B018C0123
:103BF00085ED97E069ED77E04DED57E021EE37E098
:103C0000ABEACA2EA7E0DA2E0E94435D0E94526BF7
:103C100080E090E0A0E0B0E0E981FA8180839183C8
:103C2000A283B3838CE697E060E777E044E757E050
:103C300028E737E00E943458F301EE57FA4F859099
:103C40009590A590B490C501B4019058A20191013E
:103C50000E9498DEAB81BC816D937D938D939C9384
:103C600013976091A5037091A6038091A70390918B
:103C7000A80320E030E040E752E40E94BFDB7B0174
:103C80008C0185ED97E069ED77E04DED57E021EE91
:103C900037E00E94435D0E94526BC501B401A5014B
:103CA00094010E94DFDAA20191010E9498DEEB816B
:103CB000FC816083718382839383AD81BE816D912A
:103CC0007D918D919C9120E030E040E05FE30E9487
:103CD00098DE6093A5037093A6038093A703909347
:103CE000A80320E030E040E752E40E94BFDB7B0104
:103CF0008C0185ED97E069ED77E04DED57E021EE21
:103D000037E00E94435D0E94526BF301E25AFA4F82
:103D10006591759185919491F301E458F84FA080D5
:103D2000B180C280D380A60195010E94DFDA7B01B9
:103D30008C01CB01D801E981FA8180839183A28330
:103D4000B383F301E659FA4F65917591859194918A
:103D5000F8E88F2EF7E09F2E860C971CA6019501A0
:103D60000E94DFDAD4016D937D938D939C9313971A
:103D7000F301EA58FA4F6591759185919491E3E9C1
:103D8000F3E06E0E7F1EA60195010E94DFDAD301DB
:103D90006D937D938D939C931397C701D801EB810D
:103DA000FC8180839183A283B38380E090E0A0E0D4
:103DB000B0E08093A5039093A603A093A703B093CC
:103DC000A8030E94CE69AF81B885AC56B84F81E098
:103DD0008C9328960FB6F894DEBF0FBECDBFCF915F
:103DE000DF911F910F91FF90EF90DF90CF90BF90E8
:103DF000AF909F908F907F906F905F904F903F908B
:103E00002F900895682F2091EA073091EB0780E604
:103E100090E0AC01249FC001259F900D349F900D30
:103E200011248A50984F70E00E94B4119C01909325
:103E3000F5078093F40780E0232B09F081E00895D3
:103E4000FC01949108C08091C00085FFFCCF909345
:103E5000C600319694919923B1F787E09AE022E069
:103E600030E00E9462430895FC01949108C0809163
:103E7000C00085FFFCCF9093C600319694919923A2
:103E8000B1F787E09AE02AE030E00E9433420895DB
:103E90008091F4079091F507019660E070E04AE0A8
:103EA00050E00E941C1008958091F4079091F5074E
:103EB000019660E070E00E94BC0E0895CF93DF93FE
:103EC000EC018091AB078093B80784E50E94021F44
:103ED000882309F482C00E94541F0E942CDC262FE4
:103EE0006093B807623008F478C0EFE4F2E0949190
:103EF00008C08091C00085FFFCCF9093C60031962A
:103F000094919923B1F7CD36D105C1F0CE36D105C4
:103F100044F4C836D105C1F0C936D10509F04DC009
:103F200010C0CA3DD10539F0CD3DD10509F045C0DD
:103F3000E0E0F2E03FC0E7E1F2E031C0EEE2F2E0C3
:103F400023C0E5E4F2E015C0ECE5F2E007C08091A3
:103F5000C00085FFFCCF31969093C60090819923D5
:103F6000B1F72BC08091C00085FFFCCF31969093B4
:103F7000C60090819923B1F720C08091C00085FFD1
:103F8000FCCF31969093C60090819923B1F715C06C
:103F90008091C00085FFFCCF31969093C600908140
:103FA0009923B1F70AC08091C00085FFFCCF3196FC
:103FB0009093C60090819923B1F787E09AE0622F31
:103FC00040E050E00E9440428091C00085FFFCCF5D
:103FD0008AE08093C60081E001C080E0DF91CF914C
:103FE0000895AF92BF92CF92DF92EF92FF920F931C
:103FF0001F93CF93DF931CE6E12E17E0F12EC5ED62
:10400000D7E000E010E0F801E251FC4F80810E940F
:10401000021F882339F10E94541F5B016C01F801D3
:10402000EA59F84F8081882311F061E002C0609165
:10403000E50770E0882777FD8095982F0E945ADC6D
:10404000F70120813181428153810E9498DE9B01DA
:10405000AC01C601B5010E94DFDA688379838A83E7
:104060009B8309C0F70180819181A281B3818883FC
:104070009983AA83BB830F5F1F4F84E090E0E80E13
:10408000F91E24960430110509F0BDCF86E40E9484
:10409000021F8823E1F00E94541F7B018C01609372
:1040A000E6077093E7078093E8079093E90720E01D
:1040B00030E040E050E00E94C6DD181644F4E09283
:1040C000A503F092A6030093A7031093A803DF9122
:1040D000CF911F910F91FF90EF90DF90CF90BF9005
:1040E000AF9008950E94F11F89E40E94021F882367
:1040F00059F00E94541F6093C9077093CA078093B8
:10410000CB079093CC070CC080E090E0A0E0B0E03B
:104110008093C9079093CA07A093CB07B093CC07AD
:104120008AE40E94021F882359F00E94541F609362
:10413000CD077093CE078093CF079093D007089553
:1041400080E090E0A0E0B0E08093CD079093CE07B0
:10415000A093CF07B093D00708952F923F924F922C
:104160005F926F927F928F929F92AF92BF92CF9207
:10417000DF92EF92FF920F931F93DF93CF93CDB710
:10418000DEB7EE970FB6F894DEBF0FBECDBF87E463
:104190000E94021F882309F44EC40E94541F0E94EB
:1041A00027DC6430710509F441C06530710554F4B1
:1041B0006230710541F1633071056CF57723CCF401
:1041C0000C9476396A35710509F4E0C36B357105D5
:1041D00034F46C31710511F00C9476396FC06B3585
:1041E000710509F4D7C36C35710511F00C9476395B
:1041F000D6C38091B607882331F40E94F11F0E9434
:10420000831C0C949D398091B607882321F40E9469
:10421000722081E007C08091B607882339F40E949C
:10422000722080E00E94C61B0C949D3986E495E0C4
:104230000E947CCF80E50E94021F882321F4EE2497
:10424000FF24870106C00E94541F0E942CDC7B01C2
:104250008C0183E50E94021F882361F00E94541F95
:1042600020E030E04AE754E40E9498DE0E942CDC13
:104270007B018C010E94526B0E94CC145B016C018B
:10428000AE0CBF1CC01ED11E0E94CC146093C1078F
:104290007093C2078093C3079093C40706C00E941F
:1042A000E9780E945A1B0E94AECF0E94CC146A1576
:1042B0007B058C059D0598F30C9476398091A503B8
:1042C0009091A603A091A703B091A8038093F00753
:1042D0009093F107A093F207B093F30780918303C3
:1042E0009091840390936B0780936A0784E690E033
:1042F00090938403809383030E94CC146093C1073E
:104300007093C2078093C3079093C40781E00E9413
:10431000D56980916C0790916D07A0916E07B0915F
:104320006F078093D5079093D607A093D707B093D4
:10433000D8078091700790917107A0917207B09192
:1043400073078093D9079093DA07A093DB07B093A4
:10435000DC078091740790917507A0917607B09162
:1043600077078093DD079093DE07A093DF07B09374
:10437000E0078091780790917907A0917A07B09132
:104380007B078093E1079093E207A093E307B09344
:10439000E40780E090E0A0E0B0E08093A503909374
:1043A000A603A093A703B093A80388E50E94021F69
:1043B000882361F489E50E94021F882339F48AE585
:1043C0000E94021F882311F481E001C080E08093E5
:1043D000A903882361F488E50E94021F882309F459
:1043E0001BC289E50E94021F882309F415C280E0E0
:1043F00090E0A0E0B0E080936C0790936D07A093ED
:104400006E07B0936F078093700790937107A09326
:104410007207B0937307BFE48B2EB5E09B2EF401B7
:10442000E4908CE697E060E777E044E757E028E720
:1044300037E00E943458A2E56A2EA5E07A2EF301F7
:10444000659175918591949120E030E040EC5FE3B7
:104450000E9498DE5B016C01FF24E7FCF0940027CA
:10446000F7FC0095102FC801B7010E945ADC9B0190
:10447000AC01C601B5010E9498DE6093D507709328
:10448000D6078093D7079093D807F4E04F2E512C8E
:10449000460C571CF2016591759185919491089491
:1044A000811C911CF401D49020E030E040EC5FE3EB
:1044B0000E9498DE7B018C016D2D772767FD70953A
:1044C000872F972F0E945ADC9B01AC01C801B701CE
:1044D0000E9498DE6093D9077093DA078093DB0718
:1044E0009093DC072091730330917403409175031E
:1044F000509176032093A5033093A6034093A7031E
:104500005093A803E0907703F0907803009179032B
:1045100010917A03C801B7010E94B8DB882344F4E4
:10452000E092A503F092A6030093A7031093A803BB
:10453000F301A590B590C590D490F201E590F59067
:1045400005911491C601B501A80197010E94C6DD2D
:1045500018162CF4C801B701A601950104C0C601C4
:10456000B501A80197010E94BFDB9B01AC010E942D
:1045700098DE9B01AC01CA0120E030E040E85FE337
:104580000E94DFDA0E9405DF9B01AC016091A50368
:104590007091A6038091A7039091A8030E9498DED2
:1045A0006093A5037093A6038093A7039093A80339
:1045B0006091A5037091A6038091A7039091A80331
:1045C00020E030E040E752E40E94BFDB7B018C0139
:1045D00085ED97E069ED77E04DED57E021EE37E0AE
:1045E000EBEACE2EE7E0DE2E0E94435D0E94526B86
:1045F000EEE5F5E0659175918591949120917C07A8
:1046000030917D0740917E0750917F070E94DFDA4D
:1046100060936C0770936D0780936E0790936F079C
:10462000EAE6F5E0659175918591949120917C077A
:1046300030917D0740917E0750917F070E94DFDA1D
:10464000609388077093890780938A0790938B07FC
:10465000E6E7F5E0659175918591949120917C074D
:1046600030917D0740917E0750917F070E94DFDAED
:1046700060939303709394038093950390939603B0
:10468000E2E6F5E06591759185919491209180071E
:104690003091810740918207509183070E94DFDAB1
:1046A00060937007709371078093720790937307FC
:1046B000EEE6F5E0659175918591949120918007E2
:1046C0003091810740918207509183070E94DFDA81
:1046D00060938C0770938D0780938E0790938F075C
:1046E000EAE7F5E0659175918591949120918007B5
:1046F0003091810740918207509183070E94DFDA51
:1047000060939703709398038093990390939A030F
:104710008CE697E060E777E044E757E028E737E08A
:104720000E94345880916C0790916D07A0916E079C
:10473000B0916F078093D5079093D607A093D707C2
:10474000B093D8078091700790917107A09172077C
:10475000B09173078093D9079093DA07A093DB0792
:10476000B093DC076091A5037091A6038091A70325
:104770009091A80320E030E040E752E40E94BFDBC4
:104780007B018C0185ED97E069ED77E04DED57E019
:1047900021EE37E00E94435D80E090E0A0E0B0E0D1
:1047A0008093A5039093A603A093A703B093A803B7
:1047B0000E94526B0E94CE698091D5079091D607D6
:1047C000A091D707B091D80780936C0790936D079D
:1047D000A0936E07B0936F078091D9079091DA0785
:1047E000A091DB07B091DC0780937007909371076D
:1047F000A0937207B09373078091DD079091DE0755
:10480000A091DF07B091E00780937407909375073C
:10481000A0937607B09377078091A903882329F4A2
:1048200088E50E94021F882321F080E090E00E942A
:10483000731D8091A903882329F489E50E94021F32
:10484000882321F081E090E00E94731D88E50E949A
:10485000021F8823D9F00E94481F61157105810548
:104860009105A1F00E94541F20917C0730917D0793
:1048700040917E0750917F070E94DFDA60936C07BA
:1048800070936D0780936E0790936F0789E50E9480
:10489000021F8823D9F00E94481F61157105810508
:1048A0009105A1F00E94541F20918007309181074B
:1048B00040918207509183070E94DFDA609370076E
:1048C0007093710780937207909373078091A90387
:1048D000882329F48AE50E94021F882321F082E0C0
:1048E00090E00E94731D8AE50E94021F8823D9F080
:1048F0000E94481F6115710581059105A1F00E9474
:10490000541F20918407309185074091860750916C
:1049100087070E94DFDA60937407709375078093AE
:104920007607909377078CE697E060E777E044E7B7
:1049300057E028E737E00E94345880E00E94D569AC
:104940008091F0079091F107A091F207B091F307E1
:104950008093A5039093A603A093A703B093A80305
:1049600080916A0790916B079093840380938303EF
:104970000E94CC146093C1077093C2078093C30751
:104980009093C4070E94CE690C9476391092E50783
:104990000C94763981E08093E5070C94763985E4B0
:1049A0000E94021F882311F40E94526B4CE6E42EF1
:1049B00047E0F42E3CE7C32E37E0D32E00E010E0B2
:1049C000F801E251FC4F80810E94021F882331F1DF
:1049D000033061F40E94541FF70160837183828366
:1049E000938388E797E00E94165818C00E94541FCE
:1049F000F60120813181428153810E94DFDAF70183
:104A000060837183828393838CE697E060E777E02D
:104A100044E757E028E737E00E9434580F5F1F4F04
:104A200024E030E0E20EF31EC20ED31E0430110566
:104A300039F60C9476398DE40E94021F882311F414
:104A40000C941A380E94541F0E9427DC63377105AA
:104A500011F40C94232F643771050CF096C06F315C
:104A6000710509F487C3603271050CF041C06631ED
:104A7000710509F4F4C167317105E4F46131710520
:104A800009F4A5C16231710534F46230710510F08A
:104A90000C9476393DC16431710509F4AAC16531C0
:104AA00071050CF0D6C16231710511F00C947639A4
:104AB0000C941D2E6A31710509F409C26B31710520
:104AC0004CF46831710509F4ECC1693171050CF0E1
:104AD000F8C1CBC16C31710509F41EC26C3171058E
:104AE0000CF414C26E31710511F00C94763951C278
:104AF0006535710511F40C94862E66357105F4F454
:104B00006135710511F40C94F12D6235710554F481
:104B10006032710509F483C26A32710511F00C9498
:104B20007639ADC36335710511F40C94182E6435D4
:104B3000710514F00C941D2E0C94142E6A36710518
:104B400011F40C94BA2D6B3671057CF4683671053E
:104B500009F4DFC3693671050CF00CC46C357105BE
:104B600011F00C9476390C949D2E6D36710509F474
:104B70003EC56237710511F40C944A2F6B367105EE
:104B800011F00C9476390C94EB2D6D3D710511F4F8
:104B90000C94E8326E3D71050CF054C0683C710510
:104BA00011F40C94D130693C710514F56837710526
:104BB00011F40C943F30693771055CF46537710569
:104BC00011F40C94332F6737710511F00C9476397A
:104BD0009BC06C38710509F4BCC36E3B710509F4C8
:104BE000B6C66937710511F00C9476390C944430CF
:104BF0006D3C710511F40C94AF316E3C71058CF471
:104C00006B3C710511F40C946E316C3C710514F021
:104C10000C948D31693C710511F00C9476390C942B
:104C20004B316A3D710511F40C942B326C3D7105CA
:104C300011F40C94D9326E3C710511F00C94763954
:104C40000C940D3231E0653F730711F40C949434E9
:104C500041E0663F74074CF551E06E32750711F480
:104C60000C943F3481E06F32780764F4623E710542
:104C700011F40C940F336D52714011F00C9476398D
:104C80000C946733E1E060397E0711F40C948E34A4
:104C9000F1E0643F7F0711F40C9491346F5271403E
:104CA00011F00C9476390C944E3433E0633573076D
:104CB00011F40C949D3443E0643574079CF451E086
:104CC000673F750711F40C949A3481E0673F7807C9
:104CD00014F40C9497346855724011F00C947639A2
:104CE0000C94A235E3E0603A7E0709F408C2F3E0D1
:104CF000673E7F0711F40C9403386B58734011F032
:104D00000C9476390C94D437E3E7F2E00C945030ED
:104D100085E395E00E947CCF80E50E94021F8823F6
:104D200021F4EE24FF24870106C00E94541F0E9434
:104D30002CDC7B018C0183E50E94021F882361F03B
:104D40000E94541F20E030E04AE754E40E9498DEBD
:104D50000E942CDC7B018C010E94526B0E94CC14BF
:104D60006093C1077093C2078093C3079093C407F1
:104D7000E114F1040105110501F10E94CC145B015D
:104D80006C01AE0CBF1CC01ED11E0E94CC146A1553
:104D90007B058C059D05A8F40E943797882389F42C
:104DA0000E94E9780E945A1B0E94AECFEECF0E946B
:104DB000E9780E945A1B0E94AECF0E943797882341
:104DC000B1F386E295E00E947CCF0C9476398DE1B8
:104DD00095E00E947CCF15984698439840989FB7DD
:104DE000F89480910B018D7F80930B019FBF0C94F1
:104DF0007639EDE0F5E0949108C08091C00085FF20
:104E0000FCCF9093C600319694919923B1F780918D
:104E1000C00085FFFCCF8AE08093C60089ED94E056
:104E20000E94718CEFEFF4E0949108C08091C00073
:104E300085FFFCCF9093C600319694919923B1F7EA
:104E40008091C00085FFFCCF8AE08093C6000C945F
:104E5000763989ED94E00E94D0870C94763989EDFB
:104E600094E00E9408800C9476398091F407909128
:104E7000F50704966AE270E00E94B411FC01009705
:104E800011F0319710826091F4077091F5076C5F13
:104E90007F4F89ED94E041E021E00E94E6830C948D
:104EA000763989ED94E00E940C800E94CC146093C6
:104EB000AE077093AF078093B0079093B1070C943F
:104EC000763989ED94E00E9413800C9476398091B4
:104ED000DC04882311F40C94763983E50E94021FC8
:104EE000882311F40C9476390E94481FAB01BC0151
:104EF00040935C0750935D0780935E0770935F0754
:104F000087EA96E00E9463460C94763989ED94E036
:104F10000E94D1810C9476398091F4079091F50725
:104F200004966AE270E00E94B4118C01009719F1B6
:104F30002091EA073091EB0780E690E0AC01249FD6
:104F4000C001259F900D349F900D11248A50984FD9
:104F50006EE470E00E94B41160E270E00E94B4114F
:104F60009C012F5F3F4F3093F5072093F4070150CA
:104F70001040F80110826091F4077091F5076C5FA2
:104F80007F4F89ED94E040E021E00E94E6830C949D
:104F900076398091DC04882311F40C94763989EDFC
:104FA00094E060E00E9440818091F4079091F507C1
:104FB00004966AE270E00E94B4118C01009719F126
:104FC0002091EA073091EB0780E690E0AC01249F46
:104FD000C001259F900D349F900D11248A50984F49
:104FE0006EE470E00E94B41160E270E00E94B411BF
:104FF0009C012F5F3F4F3093F5072093F40701503A
:105000001040F80110826091F4077091F5076C5F11
:105010007F4F89ED94E00E942B820C947639809129
:10502000DB04882311F00E94526BE090F407F090AB
:10503000F50724E030E0E20EF31EC7016AE270E0FB
:105040000E94B4118C01C70161E270E00E94B411AA
:10505000009721F07C010894E11CF11C0115110559
:1050600021F001501040F801108280E50E94021FDB
:10507000182F8091F4079091F507E816F90608F4C7
:1050800010E08091DC04882311F40C94763921E03F
:10509000212789ED94E0B70141E00E94E68383E592
:1050A0000E94021F8823B9F08091F4079091F507C0
:1050B0008E159F0580F40E94481FAB01BC014093F0
:1050C0005C0750935D0780935E0770935F0787EAE4
:1050D00096E00E94634689ED94E00E940C801123C3
:1050E00011F00C9476390E94CC146093AE07709343
:1050F000AF078093B0079093B1070C9476398091F5
:10510000F4079091F50705966AE270E00E94B411E9
:105110008C01009719F12091EA073091EB0780E6A6
:1051200090E0AC01249FC001259F900D349F900D0D
:1051300011248A50984F6EE470E00E94B41160E22E
:1051400070E00E94B4119C012F5F3F4F3093F50730
:105150002093F40701501040F80110826091F40789
:105160007091F5076B5F7F4F89ED94E00E94C787D0
:105170000C9476390E94CC146093B2077093B307F5
:105180008093B4079093B5072091AE073091AF0795
:105190004091B0075091B107621B730B840B950BC4
:1051A00028EE33E040E050E00E94B0DFF22EE32E24
:1051B000D42EC52E2DB73EB7285030400FB6F894E8
:1051C0003EBF0FBE2DBF0DB71EB70F5F1F4FCE01E5
:1051D0008196EDB7FEB79283818380EF94E0F8016A
:1051E000938382836F2D7E2D842F952F2CE330E0C7
:1051F00040E050E00E94B0DFF801358324836F2D3A
:105200007E2D8D2D9C2D2CE330E040E050E00E945F
:10521000B0DFF801778366830E94E311EFE4F2E0E8
:1052200094912DB73EB7285F3F4F0FB6F8943EBF1D
:105230000FBE2DBF08C08091C00085FFFCCF9093AA
:10524000C600319694919923B1F7FE01B19607C03B
:105250008091C00085FFFCCF31969093C60090816D
:105260009923B1F78091C00085FFFCCF8AE080933D
:10527000C600CE0181960E949FCF0C94763983E5BB
:105280000E94021F882311F40C9476390E94541F47
:105290000E9427DC7B018C016B0180E50E94021FCC
:1052A000882369F0F7FC0BC03FEFE316F10409F027
:1052B00034F40E94541F0E9427DC8B0102C008E0D6
:1052C00010E0E2EFF3E0808191818017910711F403
:1052D0000C947639329644E0E237F407A1F70730B0
:1052E000110529F4D092AD07C092AC0704C017FF96
:1052F00002C00C947639802F61E00E947F16802FC7
:105300006C2D0E943217802FB6010E949F150C94BD
:10531000763988E690E00E945E1F882311F00C9495
:10532000763983E50E94021F882379F00E94541F7A
:105330002091B807022F10E0000F111F0D541E4ED0
:105340000E9427DCF801718360830E9403760C942D
:10535000763983E50E94021F882311F40C94763974
:105360000E94541F0E9427DC7093B8116093B711FC
:105370000C94763989E690E00E945E1F882311F034
:105380000C947639EAEEF4E0949108C08091C00064
:1053900085FFFCCF9093C600319694919923B1F785
:1053A000E091B807F0E0EE0FFF1FEE0FFF1FE35490
:1053B000FE4E408151816281738187E09AE021E055
:1053C00030E00E946243E7EEF4E0949108C08091DF
:1053D000C00085FFFCCF9093C6003196949199232D
:1053E000B1F7E091B807F0E0EE0FFF1FED54FE4E6D
:1053F00060817181882777FD8095982F0E945ADC03
:10540000AB01BC0187E09AE021E030E00E946243FA
:10541000E3EEF4E0949108C08091C00085FFFCCFDA
:105420009093C600319694919923B1F74091C7119A
:105430005091C8116091C9117091CA1187E09AE02A
:1054400021E030E00E946243E0EEF4E0949108C075
:105450008091C00085FFFCCF9093C6003196949157
:105460009923B1F76091B7117091B811882777FD32
:105470008095982F0E945ADCAB01BC0187E09AE02E
:1054800021E030E00E94624303EBC02E01E1D02E08
:105490001DEBE12E11E1F12E00E010E0EDEDF4E066
:1054A0009490EBEDF4E0A490E8EDF4E0B490992D45
:1054B000EDEDF4E008C08091C00085FFFCCF909333
:1054C000C600319694919923B1F787E09AE0B8012C
:1054D0004AE050E00E9487429A2DEBEDF4E008C0CC
:1054E0008091C00085FFFCCF9093C60031969491C7
:1054F0009923B1F7F701408151816281738187E07F
:105500009AE021E030E00E9462439B2DE8EDF4E058
:1055100008C08091C00085FFFCCF9093C6003196F3
:1055200094919923B1F7F601619171916F018827E8
:1055300077FD8095982F0E945ADCAB01BC0187E073
:105540009AE021E030E00E9462430F5F1F4F24E0A9
:1055500030E0E20EF31E0230110509F0A8CFE4EDB1
:10556000F4E0949108C08091C00085FFFCCF909337
:10557000C600319694919923B1F78091B8070E94A3
:10558000CB72BC0187E09AE04AE050E00E9487427B
:10559000EFECF4E0949108C08091C00085FFFCCF4F
:1055A0009093C600319694919923B1F78FEF9FEFB6
:1055B0000E94CB72BC0187E09AE04AE050E00E9472
:1055C0008742ECE8F2E007C08091C00085FFFCCF85
:1055D00031969093C60090819923B1F78091C000D5
:1055E00085FFFCCF8AE08093C6000C949D398DE640
:1055F00090E00E945E1F882311F00C94763984ECB1
:1056000094E00E947CCF83E50E94021F882399F0DA
:105610000E94541F2091B807022F10E0000F111FA5
:105620000D541E4E0E9427DCF8017183608381E0D7
:105630008093A00316C082E50E94021F882389F090
:105640000E94541F2091B807022F10E0000F111F75
:105650000D541E4E0E9427DCF80171836083109266
:10566000A0030E9403760E94CC144B015C012091A0
:10567000B807022F10E01092B707000F111FF801B2
:10568000ED54FE4E60817181882777FD8095982FBB
:105690000E945ADC000F111F03541E4EF801208196
:1056A0003181428153810E94C6DD18161CF481E0CD
:1056B0008093B707CC24CA94DC2C7601E1ECF4E0AB
:1056C0005490EDEBF4E06490E9EBF4E074907AE050
:1056D000472E30C1952DE1ECF4E008C08091C00068
:1056E00085FFFCCF9093C600319694919923B1F732
:1056F000E091B807F0E0EE0FFF1FEE0FFF1FE3543D
:10570000FE4E408151816281738187E09AE021E001
:1057100030E00E946243962DEDEBF4E008C08091EA
:10572000C00085FFFCCF9093C600319694919923D9
:10573000B1F76091B80787E09AE070E04AE050E086
:105740000E948742972DE9EBF4E008C08091C000E9
:1057500085FFFCCF9093C600319694919923B1F7C1
:10576000F7FE03C0EDE8F2E028C00E94CC14A701C8
:1057700096012854344F4F4F5F4F261B370B480B71
:10578000590BCA01B90128EE33E040E050E00E9415
:10579000B0DF87E09AE0BA01A9012AE030E00E9478
:1057A00033428091C00085FFFCCF0EC08091C000C5
:1057B00085FFFCCF31969093C60090819923B1F775
:1057C0008091C00085FFFCCF4092C6000E94CC149F
:1057D0004B015C010E94E9780E945A1B0E94AECFE7
:1057E000FFEFCF16FFEFDF06FFEFEF06FFEFFF063D
:1057F00009F052C08091B707E091B807882331F1D2
:10580000F0E08F01000F111F000F111F03541E4EF7
:10581000EE0FFF1FED54FE4E60817181882777FDEA
:105820008095982F0E945ADC20E030E040E85FE34A
:105830000E94DEDA9B01AC01F801608171818281F6
:1058400093810E94C6DD87FF58C05EC0F0E08F01E3
:10585000000F111F000F111F03541E4EEE0FFF1FEC
:10586000ED54FE4E60817181882777FD8095982FD9
:105870000E945ADC20E030E040E85FE30E94DFDA7B
:105880009B01AC01F80160817181828193810E944A
:10589000B8DB181694F538C0F7FC36C0E091B807AD
:1058A000F0E08F01000F111F000F111F03541E4E57
:1058B000EE0FFF1FED54FE4E60817181882777FD4A
:1058C0008095982F0E945ADC9B01AC01F801608101
:1058D0007181828193810E94DEDA0E9427DC97FF2A
:1058E00007C090958095709561957F4F8F4F9F4F22
:1058F00064307105810591053CF00E94CC14AC0127
:10590000CB01DA016C017D01FFEFCF16FFEFDF065F
:10591000FFEFEF06FFEFFF0669F0F7FE02C00C9401
:1059200079390E94CC146C197D09685B7B4010F0BA
:105930000C9479390E94CC14681979098A099B0959
:10594000695E73408040904008F0C4CE43CF8EE93A
:1059500094E00E947CCF83E50E94021F882361F0BF
:105960000E94541F0E9427DC7093B8116093B711F6
:1059700081E08093A0030FC082E50E94021F88236C
:1059800051F00E94541F0E9427DC7093B81160935D
:10599000B7111092A0030E94CC147B018C011092CD
:1059A000B7076091B7117091B811882777FD80957E
:1059B000982F0E945ADC2091C7113091C811409154
:1059C000C9115091CA110E94C6DD18160CF082C090
:1059D00081E08093B7077EC00E94CC146E197F09C6
:1059E000800B910B695E73408040904008F46BC05F
:1059F000E091AB07F0E0EE0FFF1FEE0FFF1FE35447
:105A0000FE4E40815181628173819B2DEBE9F4E070
:105A100008C08091C00085FFFCCF9093C6003196EE
:105A200094919923B1F787E09AE022E030E00E9458
:105A300062439C2DE7E9F4E008C08091C00085FF37
:105A4000FCCF9093C600319694919923B1F7609161
:105A5000AB0787E09AE070E04AE050E00E9487429E
:105A60009D2DE3E9F4E008C08091C00085FFFCCFE4
:105A70009093C600319694919923B1F74091C71144
:105A80005091C8116091C9117091CA1187E09AE0D4
:105A900021E030E00E946243ECE8F2E007C0809130
:105AA000C00085FFFCCF31969093C600908199236A
:105AB000B1F78091C00085FFFCCFA092C6000E9484
:105AC000CC147B018C010E94E9780E945A1B0E9431
:105AD000AECF0BC0EBE9F4E0B490E7E9F4E0C4909A
